{
  "_format": "hh-sol-artifact-1",
  "contractName": "BVM_BIT",
  "sourceName": "contracts/L2/predeploys/BVM_BIT.sol",
  "abi": [
    {
      "inputs": [],
      "stateMutability": "nonpayable",
      "type": "constructor"
    },
    {
      "anonymous": false,
      "inputs": [
        {
          "indexed": true,
          "internalType": "address",
          "name": "owner",
          "type": "address"
        },
        {
          "indexed": true,
          "internalType": "address",
          "name": "spender",
          "type": "address"
        },
        {
          "indexed": false,
          "internalType": "uint256",
          "name": "value",
          "type": "uint256"
        }
      ],
      "name": "Approval",
      "type": "event"
    },
    {
      "anonymous": false,
      "inputs": [
        {
          "indexed": true,
          "internalType": "address",
          "name": "_account",
          "type": "address"
        },
        {
          "indexed": false,
          "internalType": "uint256",
          "name": "_amount",
          "type": "uint256"
        }
      ],
      "name": "Burn",
      "type": "event"
    },
    {
      "anonymous": false,
      "inputs": [
        {
          "indexed": true,
          "internalType": "address",
          "name": "_account",
          "type": "address"
        },
        {
          "indexed": false,
          "internalType": "uint256",
          "name": "_amount",
          "type": "uint256"
        }
      ],
      "name": "Mint",
      "type": "event"
    },
    {
      "anonymous": false,
      "inputs": [
        {
          "indexed": true,
          "internalType": "address",
          "name": "from",
          "type": "address"
        },
        {
          "indexed": true,
          "internalType": "address",
          "name": "to",
          "type": "address"
        },
        {
          "indexed": false,
          "internalType": "uint256",
          "name": "value",
          "type": "uint256"
        }
      ],
      "name": "Transfer",
      "type": "event"
    },
    {
      "inputs": [
        {
          "internalType": "address",
          "name": "owner",
          "type": "address"
        },
        {
          "internalType": "address",
          "name": "spender",
          "type": "address"
        }
      ],
      "name": "allowance",
      "outputs": [
        {
          "internalType": "uint256",
          "name": "",
          "type": "uint256"
        }
      ],
      "stateMutability": "view",
      "type": "function"
    },
    {
      "inputs": [
        {
          "internalType": "address",
          "name": "spender",
          "type": "address"
        },
        {
          "internalType": "uint256",
          "name": "amount",
          "type": "uint256"
        }
      ],
      "name": "approve",
      "outputs": [
        {
          "internalType": "bool",
          "name": "",
          "type": "bool"
        }
      ],
      "stateMutability": "nonpayable",
      "type": "function"
    },
    {
      "inputs": [
        {
          "internalType": "address",
          "name": "account",
          "type": "address"
        }
      ],
      "name": "balanceOf",
      "outputs": [
        {
          "internalType": "uint256",
          "name": "",
          "type": "uint256"
        }
      ],
      "stateMutability": "view",
      "type": "function"
    },
    {
      "inputs": [
        {
          "internalType": "address",
          "name": "_from",
          "type": "address"
        },
        {
          "internalType": "uint256",
          "name": "_amount",
          "type": "uint256"
        }
      ],
      "name": "burn",
      "outputs": [],
      "stateMutability": "nonpayable",
      "type": "function"
    },
    {
      "inputs": [],
      "name": "decimals",
      "outputs": [
        {
          "internalType": "uint8",
          "name": "",
          "type": "uint8"
        }
      ],
      "stateMutability": "view",
      "type": "function"
    },
    {
      "inputs": [
        {
          "internalType": "address",
          "name": "spender",
          "type": "address"
        },
        {
          "internalType": "uint256",
          "name": "subtractedValue",
          "type": "uint256"
        }
      ],
      "name": "decreaseAllowance",
      "outputs": [
        {
          "internalType": "bool",
          "name": "",
          "type": "bool"
        }
      ],
      "stateMutability": "nonpayable",
      "type": "function"
    },
    {
      "inputs": [
        {
          "internalType": "address",
          "name": "spender",
          "type": "address"
        },
        {
          "internalType": "uint256",
          "name": "addedValue",
          "type": "uint256"
        }
      ],
      "name": "increaseAllowance",
      "outputs": [
        {
          "internalType": "bool",
          "name": "",
          "type": "bool"
        }
      ],
      "stateMutability": "nonpayable",
      "type": "function"
    },
    {
      "inputs": [],
      "name": "l1Token",
      "outputs": [
        {
          "internalType": "address",
          "name": "",
          "type": "address"
        }
      ],
      "stateMutability": "view",
      "type": "function"
    },
    {
      "inputs": [],
      "name": "l2Bridge",
      "outputs": [
        {
          "internalType": "address",
          "name": "",
          "type": "address"
        }
      ],
      "stateMutability": "view",
      "type": "function"
    },
    {
      "inputs": [
        {
          "internalType": "address",
          "name": "_to",
          "type": "address"
        },
        {
          "internalType": "uint256",
          "name": "_amount",
          "type": "uint256"
        }
      ],
      "name": "mint",
      "outputs": [],
      "stateMutability": "nonpayable",
      "type": "function"
    },
    {
      "inputs": [],
      "name": "name",
      "outputs": [
        {
          "internalType": "string",
          "name": "",
          "type": "string"
        }
      ],
      "stateMutability": "view",
      "type": "function"
    },
    {
      "inputs": [
        {
          "internalType": "bytes4",
          "name": "_interfaceId",
          "type": "bytes4"
        }
      ],
      "name": "supportsInterface",
      "outputs": [
        {
          "internalType": "bool",
          "name": "",
          "type": "bool"
        }
      ],
      "stateMutability": "pure",
      "type": "function"
    },
    {
      "inputs": [],
      "name": "symbol",
      "outputs": [
        {
          "internalType": "string",
          "name": "",
          "type": "string"
        }
      ],
      "stateMutability": "view",
      "type": "function"
    },
    {
      "inputs": [],
      "name": "totalSupply",
      "outputs": [
        {
          "internalType": "uint256",
          "name": "",
          "type": "uint256"
        }
      ],
      "stateMutability": "view",
      "type": "function"
    },
    {
      "inputs": [
        {
          "internalType": "address",
          "name": "recipient",
          "type": "address"
        },
        {
          "internalType": "uint256",
          "name": "amount",
          "type": "uint256"
        }
      ],
      "name": "transfer",
      "outputs": [
        {
          "internalType": "bool",
          "name": "",
          "type": "bool"
        }
      ],
      "stateMutability": "nonpayable",
      "type": "function"
    },
    {
      "inputs": [
        {
          "internalType": "address",
          "name": "sender",
          "type": "address"
        },
        {
          "internalType": "address",
          "name": "recipient",
          "type": "address"
        },
        {
          "internalType": "uint256",
          "name": "amount",
          "type": "uint256"
        }
      ],
      "name": "transferFrom",
      "outputs": [
        {
          "internalType": "bool",
          "name": "",
          "type": "bool"
        }
      ],
      "stateMutability": "nonpayable",
      "type": "function"
    }
  ],
  "bytecode": "0x60806040523480156200001157600080fd5b50734200000000000000000000000000000000000010731a4b46696b2bb4794eb3d4c26f1c55f9170fa4c5604051806040016040528060098152602001682134ba102a37b5b2b760b91b8152506040518060400160405280600381526020016210925560ea1b8152508181816003908051906020019062000094929190620000e6565b508051620000aa906004906020840190620000e6565b5050600580546001600160a01b039586166001600160a01b031991821617909155600680549690951695169490941790925550620001c9915050565b828054620000f4906200018c565b90600052602060002090601f01602090048101928262000118576000855562000163565b82601f106200013357805160ff191683800117855562000163565b8280016001018555821562000163579182015b828111156200016357825182559160200191906001019062000146565b506200017192915062000175565b5090565b5b8082111562000171576000815560010162000176565b600181811c90821680620001a157607f821691505b60208210811415620001c357634e487b7160e01b600052602260045260246000fd5b50919050565b610eee80620001d96000396000f3fe608060405234801561001057600080fd5b50600436106101005760003560e01c806370a0823111610097578063a9059cbb11610066578063a9059cbb14610215578063ae1f6aaf14610228578063c01e1bd61461026d578063dd62ed3e1461028d57600080fd5b806370a08231146101b157806395d89b41146101e75780639dc29fac146101ef578063a457c2d71461020257600080fd5b806323b872dd116100d357806323b872dd14610167578063313ce5671461017a578063395093511461018957806340c10f191461019c57600080fd5b806301ffc9a71461010557806306fdde031461012d578063095ea7b31461014257806318160ddd14610155575b600080fd5b610118610113366004610c6d565b6102d3565b60405190151581526020015b60405180910390f35b610135610393565b6040516101249190610cb6565b610118610150366004610d52565b610425565b6002545b604051908152602001610124565b610118610175366004610d7c565b6104db565b60405160128152602001610124565b610118610197366004610d52565b61058c565b6101af6101aa366004610d52565b61063d565b005b6101596101bf366004610db8565b73ffffffffffffffffffffffffffffffffffffffff1660009081526020819052604090205490565b61013561071c565b6101af6101fd366004610d52565b61072b565b610118610210366004610d52565b6107fe565b610118610223366004610d52565b6108af565b6006546102489073ffffffffffffffffffffffffffffffffffffffff1681565b60405173ffffffffffffffffffffffffffffffffffffffff9091168152602001610124565b6005546102489073ffffffffffffffffffffffffffffffffffffffff1681565b61015961029b366004610dd3565b73ffffffffffffffffffffffffffffffffffffffff918216600090815260016020908152604080832093909416825291909152205490565b60007f01ffc9a7a5cef8baa21ed3c5c0d7e23accb804b619e9333b597f47a0d84076e27f1d1d8b63000000000000000000000000000000000000000000000000000000007fffffffff0000000000000000000000000000000000000000000000000000000084167f01ffc9a700000000000000000000000000000000000000000000000000000000148061038b57507fffffffff00000000000000000000000000000000000000000000000000000000848116908216145b949350505050565b6060600380546103a290610e06565b80601f01602080910402602001604051908101604052809291908181526020018280546103ce90610e06565b801561041b5780601f106103f05761010080835404028352916020019161041b565b820191906000526020600020905b8154815290600101906020018083116103fe57829003601f168201915b5050505050905090565b6040517f08c379a000000000000000000000000000000000000000000000000000000000815260206004820152604260248201527f42564d5f4249543a20617070726f76652069732064697361626c65642070656e60448201527f64696e67206675727468657220636f6d6d756e6974792064697363757373696f60648201527f6e2e000000000000000000000000000000000000000000000000000000000000608482015260009060a4015b60405180910390fd5b6040517f08c379a000000000000000000000000000000000000000000000000000000000815260206004820152604760248201527f42564d5f4249543a207472616e7366657246726f6d2069732064697361626c6560448201527f642070656e64696e67206675727468657220636f6d6d756e697479206469736360648201527f757373696f6e2e00000000000000000000000000000000000000000000000000608482015260009060a4016104d2565b6040517f08c379a000000000000000000000000000000000000000000000000000000000815260206004820152604c60248201527f42564d5f4249543a20696e637265617365416c6c6f77616e636520697320646960448201527f7361626c65642070656e64696e67206675727468657220636f6d6d756e69747960648201527f2064697363757373696f6e2e0000000000000000000000000000000000000000608482015260009060a4016104d2565b60065473ffffffffffffffffffffffffffffffffffffffff1633146106be576040517f08c379a000000000000000000000000000000000000000000000000000000000815260206004820181905260248201527f4f6e6c79204c32204272696467652063616e206d696e7420616e64206275726e60448201526064016104d2565b6106c88282610960565b8173ffffffffffffffffffffffffffffffffffffffff167f0f6798a560793a54c3bcfe86a93cde1e73087d944c0ea20544137d41213968858260405161071091815260200190565b60405180910390a25050565b6060600480546103a290610e06565b60065473ffffffffffffffffffffffffffffffffffffffff1633146107ac576040517f08c379a000000000000000000000000000000000000000000000000000000000815260206004820181905260248201527f4f6e6c79204c32204272696467652063616e206d696e7420616e64206275726e60448201526064016104d2565b6107b68282610a80565b8173ffffffffffffffffffffffffffffffffffffffff167fcc16f5dbb4873280815c1ee09dbd06736cffcc184412cf7a71a0fdb75d397ca58260405161071091815260200190565b6040517f08c379a000000000000000000000000000000000000000000000000000000000815260206004820152604c60248201527f42564d5f4249543a206465637265617365416c6c6f77616e636520697320646960448201527f7361626c65642070656e64696e67206675727468657220636f6d6d756e69747960648201527f2064697363757373696f6e2e0000000000000000000000000000000000000000608482015260009060a4016104d2565b6040517f08c379a000000000000000000000000000000000000000000000000000000000815260206004820152604360248201527f42564d5f4249543a207472616e736665722069732064697361626c656420706560448201527f6e64696e67206675727468657220636f6d6d756e69747920646973637573736960648201527f6f6e2e0000000000000000000000000000000000000000000000000000000000608482015260009060a4016104d2565b73ffffffffffffffffffffffffffffffffffffffff82166109dd576040517f08c379a000000000000000000000000000000000000000000000000000000000815260206004820152601f60248201527f45524332303a206d696e7420746f20746865207a65726f20616464726573730060448201526064016104d2565b80600260008282546109ef9190610e89565b909155505073ffffffffffffffffffffffffffffffffffffffff821660009081526020819052604081208054839290610a29908490610e89565b909155505060405181815273ffffffffffffffffffffffffffffffffffffffff8316906000907fddf252ad1be2c89b69c2b068fc378daa952ba7f163c4a11628f55a4df523b3ef9060200160405180910390a35050565b73ffffffffffffffffffffffffffffffffffffffff8216610b23576040517f08c379a000000000000000000000000000000000000000000000000000000000815260206004820152602160248201527f45524332303a206275726e2066726f6d20746865207a65726f2061646472657360448201527f730000000000000000000000000000000000000000000000000000000000000060648201526084016104d2565b73ffffffffffffffffffffffffffffffffffffffff821660009081526020819052604090205481811015610bd9576040517f08c379a000000000000000000000000000000000000000000000000000000000815260206004820152602260248201527f45524332303a206275726e20616d6f756e7420657863656564732062616c616e60448201527f636500000000000000000000000000000000000000000000000000000000000060648201526084016104d2565b73ffffffffffffffffffffffffffffffffffffffff83166000908152602081905260408120838303905560028054849290610c15908490610ea1565b909155505060405182815260009073ffffffffffffffffffffffffffffffffffffffff8516907fddf252ad1be2c89b69c2b068fc378daa952ba7f163c4a11628f55a4df523b3ef9060200160405180910390a3505050565b600060208284031215610c7f57600080fd5b81357fffffffff0000000000000000000000000000000000000000000000000000000081168114610caf57600080fd5b9392505050565b600060208083528351808285015260005b81811015610ce357858101830151858201604001528201610cc7565b81811115610cf5576000604083870101525b50601f017fffffffffffffffffffffffffffffffffffffffffffffffffffffffffffffffe016929092016040019392505050565b803573ffffffffffffffffffffffffffffffffffffffff81168114610d4d57600080fd5b919050565b60008060408385031215610d6557600080fd5b610d6e83610d29565b946020939093013593505050565b600080600060608486031215610d9157600080fd5b610d9a84610d29565b9250610da860208501610d29565b9150604084013590509250925092565b600060208284031215610dca57600080fd5b610caf82610d29565b60008060408385031215610de657600080fd5b610def83610d29565b9150610dfd60208401610d29565b90509250929050565b600181811c90821680610e1a57607f821691505b60208210811415610e54577f4e487b7100000000000000000000000000000000000000000000000000000000600052602260045260246000fd5b50919050565b7f4e487b7100000000000000000000000000000000000000000000000000000000600052601160045260246000fd5b60008219821115610e9c57610e9c610e5a565b500190565b600082821015610eb357610eb3610e5a565b50039056fea26469706673582212207130e3b0bf0eb22b20c458d1fad2ecc59220105c7d137311ade47cb1b6b24cba64736f6c63430008090033",
  "linkReferences": {},
  "deployedLinkReferences": {}
}