{
  "address": "0xA1B5E41F1DD961b7eEE18A2B2a101a44D2aEAF68",
  "abi": [
    {
      "anonymous": false,
      "inputs": [
        {
          "indexed": false,
          "internalType": "uint8",
          "name": "version",
          "type": "uint8"
        }
      ],
      "name": "Initialized",
      "type": "event"
    },
    {
      "anonymous": false,
      "inputs": [
        {
          "indexed": true,
          "internalType": "address",
          "name": "previousOwner",
          "type": "address"
        },
        {
          "indexed": true,
          "internalType": "address",
          "name": "newOwner",
          "type": "address"
        }
      ],
      "name": "OwnershipTransferred",
      "type": "event"
    },
    {
      "anonymous": false,
      "inputs": [
        {
          "indexed": false,
          "internalType": "uint256",
          "name": "_roundId",
          "type": "uint256"
        },
        {
          "indexed": false,
          "internalType": "bytes",
          "name": "_groupKey",
          "type": "bytes"
        },
        {
          "indexed": false,
          "internalType": "bytes[]",
          "name": "activeTssMembers",
          "type": "bytes[]"
        }
      ],
      "name": "tssActiveMemberAppended",
      "type": "event"
    },
    {
      "anonymous": false,
      "inputs": [
        {
          "indexed": false,
          "internalType": "uint256",
          "name": "_roundId",
          "type": "uint256"
        },
        {
          "indexed": false,
          "internalType": "uint256",
          "name": "_threshold",
          "type": "uint256"
        },
        {
          "indexed": false,
          "internalType": "bytes[]",
          "name": "_inActiveTssMembers",
          "type": "bytes[]"
        }
      ],
      "name": "tssGroupMemberAppend",
      "type": "event"
    },
    {
      "inputs": [],
      "name": "getTssGroupInfo",
      "outputs": [
        {
          "internalType": "uint256",
          "name": "",
          "type": "uint256"
        },
        {
          "internalType": "uint256",
          "name": "",
          "type": "uint256"
        },
        {
          "internalType": "bytes",
          "name": "",
          "type": "bytes"
        },
        {
          "internalType": "bytes[]",
          "name": "",
          "type": "bytes[]"
        }
      ],
      "stateMutability": "view",
      "type": "function"
    },
    {
      "inputs": [],
      "name": "getTssGroupMembers",
      "outputs": [
        {
          "internalType": "bytes[]",
          "name": "",
          "type": "bytes[]"
        }
      ],
      "stateMutability": "view",
      "type": "function"
    },
    {
      "inputs": [],
      "name": "getTssGroupUnJailMembers",
      "outputs": [
        {
          "internalType": "address[]",
          "name": "",
          "type": "address[]"
        }
      ],
      "stateMutability": "view",
      "type": "function"
    },
    {
      "inputs": [],
      "name": "getTssInactiveGroupInfo",
      "outputs": [
        {
          "internalType": "uint256",
          "name": "",
          "type": "uint256"
        },
        {
          "internalType": "uint256",
          "name": "",
          "type": "uint256"
        },
        {
          "internalType": "bytes[]",
          "name": "",
          "type": "bytes[]"
        }
      ],
      "stateMutability": "view",
      "type": "function"
    },
    {
      "inputs": [
        {
          "internalType": "bytes",
          "name": "_publicKey",
          "type": "bytes"
        }
      ],
      "name": "getTssMember",
      "outputs": [
        {
          "components": [
            {
              "internalType": "bytes",
              "name": "publicKey",
              "type": "bytes"
            },
            {
              "internalType": "address",
              "name": "nodeAddress",
              "type": "address"
            },
            {
              "internalType": "enum ITssGroupManager.MemberStatus",
              "name": "status",
              "type": "uint8"
            }
          ],
          "internalType": "struct ITssGroupManager.TssMember",
          "name": "",
          "type": "tuple"
        }
      ],
      "stateMutability": "view",
      "type": "function"
    },
    {
      "inputs": [],
      "name": "inActiveIsEmpty",
      "outputs": [
        {
          "internalType": "bool",
          "name": "",
          "type": "bool"
        }
      ],
      "stateMutability": "view",
      "type": "function"
    },
    {
      "inputs": [],
      "name": "initialize",
      "outputs": [],
      "stateMutability": "nonpayable",
      "type": "function"
    },
    {
      "inputs": [
        {
          "internalType": "bytes",
          "name": "byteListA",
          "type": "bytes"
        },
        {
          "internalType": "bytes",
          "name": "byteListB",
          "type": "bytes"
        }
      ],
      "name": "isEqual",
      "outputs": [
        {
          "internalType": "bool",
          "name": "",
          "type": "bool"
        }
      ],
      "stateMutability": "pure",
      "type": "function"
    },
    {
      "inputs": [
        {
          "internalType": "bytes",
          "name": "",
          "type": "bytes"
        }
      ],
      "name": "isInActiveMember",
      "outputs": [
        {
          "internalType": "bool",
          "name": "",
          "type": "bool"
        }
      ],
      "stateMutability": "view",
      "type": "function"
    },
    {
      "inputs": [
        {
          "internalType": "bytes",
          "name": "_publicKey",
          "type": "bytes"
        }
      ],
      "name": "memberExistActive",
      "outputs": [
        {
          "internalType": "bool",
          "name": "",
          "type": "bool"
        }
      ],
      "stateMutability": "view",
      "type": "function"
    },
    {
      "inputs": [
        {
          "internalType": "bytes",
          "name": "_publicKey",
          "type": "bytes"
        }
      ],
      "name": "memberExistInActive",
      "outputs": [
        {
          "internalType": "bool",
          "name": "",
          "type": "bool"
        }
      ],
      "stateMutability": "view",
      "type": "function"
    },
    {
      "inputs": [
        {
          "internalType": "bytes",
          "name": "_publicKey",
          "type": "bytes"
        }
      ],
      "name": "memberJail",
      "outputs": [],
      "stateMutability": "nonpayable",
      "type": "function"
    },
    {
      "inputs": [
        {
          "internalType": "bytes",
          "name": "_publicKey",
          "type": "bytes"
        }
      ],
      "name": "memberUnJail",
      "outputs": [],
      "stateMutability": "nonpayable",
      "type": "function"
    },
    {
      "inputs": [],
      "name": "owner",
      "outputs": [
        {
          "internalType": "address",
          "name": "",
          "type": "address"
        }
      ],
      "stateMutability": "view",
      "type": "function"
    },
    {
      "inputs": [
        {
          "internalType": "bytes",
          "name": "publicKey",
          "type": "bytes"
        }
      ],
      "name": "publicKeyToAddress",
      "outputs": [
        {
          "internalType": "address",
          "name": "",
          "type": "address"
        }
      ],
      "stateMutability": "pure",
      "type": "function"
    },
    {
      "inputs": [
        {
          "internalType": "bytes32",
          "name": "_ethSignedMessageHash",
          "type": "bytes32"
        },
        {
          "internalType": "bytes",
          "name": "_sig",
          "type": "bytes"
        }
      ],
      "name": "recover",
      "outputs": [
        {
          "internalType": "address",
          "name": "",
          "type": "address"
        }
      ],
      "stateMutability": "pure",
      "type": "function"
    },
    {
      "inputs": [
        {
          "internalType": "bytes",
          "name": "_publicKey",
          "type": "bytes"
        }
      ],
      "name": "removeMember",
      "outputs": [],
      "stateMutability": "nonpayable",
      "type": "function"
    },
    {
      "inputs": [],
      "name": "renounceOwnership",
      "outputs": [],
      "stateMutability": "nonpayable",
      "type": "function"
    },
    {
      "inputs": [
        {
          "internalType": "bytes",
          "name": "_publicKey",
          "type": "bytes"
        },
        {
          "internalType": "bytes",
          "name": "_groupPublicKey",
          "type": "bytes"
        }
      ],
      "name": "setGroupPublicKey",
      "outputs": [],
      "stateMutability": "nonpayable",
      "type": "function"
    },
    {
      "inputs": [
        {
          "internalType": "address",
          "name": "_address",
          "type": "address"
        }
      ],
      "name": "setStakingSlash",
      "outputs": [],
      "stateMutability": "nonpayable",
      "type": "function"
    },
    {
      "inputs": [
        {
          "internalType": "uint256",
          "name": "_threshold",
          "type": "uint256"
        },
        {
          "internalType": "bytes[]",
          "name": "_batchPublicKey",
          "type": "bytes[]"
        }
      ],
      "name": "setTssGroupMember",
      "outputs": [],
      "stateMutability": "nonpayable",
      "type": "function"
    },
    {
      "inputs": [],
      "name": "stakingSlash",
      "outputs": [
        {
          "internalType": "address",
          "name": "",
          "type": "address"
        }
      ],
      "stateMutability": "view",
      "type": "function"
    },
    {
      "inputs": [
        {
          "internalType": "address",
          "name": "newOwner",
          "type": "address"
        }
      ],
      "name": "transferOwnership",
      "outputs": [],
      "stateMutability": "nonpayable",
      "type": "function"
    },
    {
      "inputs": [
        {
          "internalType": "bytes",
          "name": "",
          "type": "bytes"
        }
      ],
      "name": "tssActiveMemberInfo",
      "outputs": [
        {
          "internalType": "bytes",
          "name": "publicKey",
          "type": "bytes"
        },
        {
          "internalType": "address",
          "name": "nodeAddress",
          "type": "address"
        },
        {
          "internalType": "enum ITssGroupManager.MemberStatus",
          "name": "status",
          "type": "uint8"
        }
      ],
      "stateMutability": "view",
      "type": "function"
    },
    {
      "inputs": [
        {
          "internalType": "bytes32",
          "name": "_message",
          "type": "bytes32"
        },
        {
          "internalType": "bytes",
          "name": "_sig",
          "type": "bytes"
        }
      ],
      "name": "verifySign",
      "outputs": [
        {
          "internalType": "bool",
          "name": "",
          "type": "bool"
        }
      ],
      "stateMutability": "view",
      "type": "function"
    }
  ],
  "transactionHash": "0x40e60fdaf9b225dcdd80e72c34b7d7764d1400ba72fdd7471596d3144a99134e",
  "args": [],
  "numDeployments": 1,
  "solcInputHash": "533f093e1cbf0533cfa4236f9c278f04",
  "bytecode": "0x608060405234801561001057600080fd5b50612f8f806100206000396000f3fe608060405234801561001057600080fd5b50600436106101a35760003560e01c8063715018a6116100ee578063b3bd9ac411610097578063e46a636811610071578063e46a63681461038f578063f2fde38b146103bd578063fcca5592146103d0578063fd3eb81f146103e857600080fd5b8063b3bd9ac41461033a578063bcbc5fc61461035c578063cf4c8a7b1461036f57600080fd5b80638a51d8b4116100c85780638a51d8b4146102fe5780638da5cb5b1461030757806395f645bc1461032557600080fd5b8063715018a6146102db5780637a952c11146102e35780638129fc1c146102f657600080fd5b8063404a6986116101505780634679b3661161012a5780634679b366146102955780634866e2e0146102a857806354bbb914146102bb57600080fd5b8063404a698614610258578063429ec49c1461026f57806343ae656c1461028257600080fd5b80632cd00d53116101815780632cd00d531461020d5780633231a7f014610222578063343598081461024557600080fd5b806319045a25146101a85780631a47931b146101e5578063254ff981146101fa575b600080fd5b6101bb6101b63660046127d3565b6103fb565b60405173ffffffffffffffffffffffffffffffffffffffff90911681526020015b60405180910390f35b6101f86101f336600461281a565b61050f565b005b6101f86102083660046128e9565b610895565b61021561096e565b6040516101dc9190612926565b6102356102303660046127d3565b610b76565b60405190151581526020016101dc565b610235610253366004612980565b610bba565b610260610c7c565b6040516101dc93929190612aa9565b6101f861027d3660046128e9565b610d67565b6101bb6102903660046128e9565b610e06565b6101f86102a3366004612980565b610e65565b6102356102b63660046128e9565b6111bf565b6102ce6102c93660046128e9565b6111ea565b6040516101dc9190612b3b565b6101f8611332565b6101f86102f13660046128e9565b611346565b6101f8611508565b609e5415610235565b60335473ffffffffffffffffffffffffffffffffffffffff166101bb565b61032d611672565b6040516101dc9190612b93565b61034d6103483660046128e9565b61174b565b6040516101dc93929190612bad565b61023561036a3660046128e9565b61182e565b609c546101bb9073ffffffffffffffffffffffffffffffffffffffff1681565b61023561039d3660046128e9565b805160208183018101805160a38252928201919093012091525460ff1681565b6101f86103cb366004612beb565b611873565b6103d861190d565b6040516101dc9493929190612c21565b6101f86103f6366004612beb565b611c19565b60008060008061040a85611c68565b92509250925060006001878386866040516000815260200160405260405161044e949392919093845260ff9290921660208401526040830152606082015260800190565b6020604051602081039080840390855afa158015610470573d6000803e3d6000fd5b50506040517fffffffffffffffffffffffffffffffffffffffffffffffffffffffffffffffe0015191505073ffffffffffffffffffffffffffffffffffffffff81166105035760405162461bcd60e51b815260206004820152601060248201527f65637265636f766572206661696c65640000000000000000000000000000000060448201526064015b60405180910390fd5b93505050505b92915050565b610517611cf1565b60008151116105685760405162461bcd60e51b815260206004820152601960248201527f6261746368207075626c6963206b657920697320656d7074790000000000000060448201526064016104fa565b805182106105de5760405162461bcd60e51b815260206004820152602360248201527f7468726573686f6c64206d757374206c657373207468616e20747373206d656d60448201527f626572000000000000000000000000000000000000000000000000000000000060648201526084016104fa565b609e54156107395760005b609e5481101561072c5760a160a0609e838154811061060a5761060a612c5d565b906000526020600020016040516106219190612ce0565b90815260405190819003602001812061063991612ce0565b90815260200160405180910390206000905560a0609e828154811061066057610660612c5d565b906000526020600020016040516106779190612ce0565b90815260200160405180910390206000610691919061253e565b60a2609e82815481106106a6576106a6612c5d565b906000526020600020016040516106bd9190612ce0565b908152604051908190036020019020805460ff19169055609e805460a39190839081106106ec576106ec612c5d565b906000526020600020016040516107039190612ce0565b908152604051908190036020019020805460ff191690558061072481612d81565b9150506105e9565b50610739609e6000612578565b60005b815181101561083957609e82828151811061075957610759612c5d565b6020908102919091018101518254600181018455600093845292829020815161078b9491909101929190910190612596565b50600160a38383815181106107a2576107a2612c5d565b60200260200101516040516107b79190612dba565b908152602001604051809103902060006101000a81548160ff021916908315150217905550600060a28383815181106107f2576107f2612c5d565b60200260200101516040516108079190612dba565b908152604051908190036020019020805491151560ff199092169190911790558061083181612d81565b91505061073c565b506099829055609a5461084d906001612dd6565b609a8190556000609b556040517ffa26843b7ced045dd12994ee0e73c6f0904c3a4608bce58ae304d606035b079e916108899185908590612aa9565b60405180910390a15050565b609c5473ffffffffffffffffffffffffffffffffffffffff1633146109225760405162461bcd60e51b815260206004820152602560248201527f636f6e74726163742063616c6c206973206e6f74207374616b696e6720736c6160448201527f7368696e6700000000000000000000000000000000000000000000000000000060648201526084016104fa565b6001609f826040516109349190612dba565b908152602001604051809103902060010160146101000a81548160ff0219169083600181111561096657610966612ad1565b021790555050565b60606000805b609d54811015610a02576000609f609d838154811061099557610995612c5d565b906000526020600020016040516109ac9190612ce0565b908152602001604051809103902060010160149054906101000a900460ff1660018111156109dc576109dc612ad1565b14156109f057816109ec81612d81565b9250505b806109fa81612d81565b915050610974565b5060008167ffffffffffffffff811115610a1e57610a1e6126c7565b604051908082528060200260200182016040528015610a47578160200160208202803683370190505b5090506000805b609d54811015610b6d576000609f609d8381548110610a6f57610a6f612c5d565b90600052602060002001604051610a869190612ce0565b908152602001604051809103902060010160149054906101000a900460ff166001811115610ab657610ab6612ad1565b1415610b5b57609f609d8281548110610ad157610ad1612c5d565b90600052602060002001604051610ae89190612ce0565b90815260405190819003602001902060010154835173ffffffffffffffffffffffffffffffffffffffff90911690849084908110610b2857610b28612c5d565b73ffffffffffffffffffffffffffffffffffffffff9092166020928302919091019091015281610b5781612d81565b9250505b80610b6581612d81565b915050610a4e565b50909392505050565b60985460009073ffffffffffffffffffffffffffffffffffffffff16610b9c84846103fb565b73ffffffffffffffffffffffffffffffffffffffff16149392505050565b60008151835114610bcd57506000610509565b60005b8351811015610c7257828181518110610beb57610beb612c5d565b602001015160f81c60f81b7effffffffffffffffffffffffffffffffffffffffffffffffffffffffffffff1916848281518110610c2a57610c2a612c5d565b01602001517fff000000000000000000000000000000000000000000000000000000000000001614610c60576000915050610509565b80610c6a81612d81565b915050610bd0565b5060019392505050565b6000806060609a54609954609e80805480602002602001604051908101604052809291908181526020016000905b82821015610d56578382906000526020600020018054610cc990612c8c565b80601f0160208091040260200160405190810160405280929190818152602001828054610cf590612c8c565b8015610d425780601f10610d1757610100808354040283529160200191610d42565b820191906000526020600020905b815481529060010190602001808311610d2557829003601f168201915b505050505081526020019060010190610caa565b505050509050925092509250909192565b609c5473ffffffffffffffffffffffffffffffffffffffff163314610df45760405162461bcd60e51b815260206004820152602560248201527f636f6e74726163742063616c6c206973206e6f74207374616b696e6720736c6160448201527f7368696e6700000000000000000000000000000000000000000000000000000060648201526084016104fa565b6000609f826040516109349190612dba565b60008151604014610e595760405162461bcd60e51b815260206004820152601f60248201527f7075626c6963206b6579206c656e677468206d7573742036342062797465730060448201526064016104fa565b50805160209091012090565b60a382604051610e759190612dba565b9081526040519081900360200190205460ff161515600114610eff5760405162461bcd60e51b815260206004820152602860248201527f796f7572207075626c6963206b6579206973206e6f7420696e20496e4163746960448201527f76654d656d62657200000000000000000000000000000000000000000000000060648201526084016104fa565b610f0882610e06565b73ffffffffffffffffffffffffffffffffffffffff163373ffffffffffffffffffffffffffffffffffffffff1614610f825760405162461bcd60e51b815260206004820152601460248201527f7075626c6963206b6579206e6f74206d6174636800000000000000000000000060448201526064016104fa565b60a282604051610f929190612dba565b9081526040519081900360200190205460ff16610fed57600160a283604051610fbb9190612dba565b908152604051908190036020019020805491151560ff19909216919091179055609b54610fe9906001612dd6565b609b555b61109d60a0836040516110009190612dba565b9081526020016040518091039020805461101990612c8c565b80601f016020809104026020016040519081016040528092919081815260200182805461104590612c8c565b80156110925780601f1061106757610100808354040283529160200191611092565b820191906000526020600020905b81548152906001019060200180831161107557829003601f168201915b505050505082610bba565b61118957600160a1826040516110b39190612dba565b908152602001604051809103902060008282546110d09190612dd6565b909155505060405160a0906110e6908490612dba565b908152602001604051809103902080546110ff90612c8c565b15905061115557600160a160a08460405161111a9190612dba565b90815260405190819003602001812061113291612ce0565b9081526020016040518091039020600082825461114f9190612dee565b90915550505b8060a0836040516111669190612dba565b90815260200160405180910390209080519060200190611187929190612596565b505b609e5460405160a19061119d908490612dba565b90815260200160405180910390205414156111bb576111bb81611d58565b5050565b600060a3826040516111d19190612dba565b9081526040519081900360200190205460ff1692915050565b61120b60408051606080820183528152600060208201819052909182015290565b609f8260405161121b9190612dba565b908152602001604051809103902060405180606001604052908160008201805461124490612c8c565b80601f016020809104026020016040519081016040528092919081815260200182805461127090612c8c565b80156112bd5780601f10611292576101008083540402835291602001916112bd565b820191906000526020600020905b8154815290600101906020018083116112a057829003601f168201915b505050918352505060018281015473ffffffffffffffffffffffffffffffffffffffff8116602084015260409092019174010000000000000000000000000000000000000000900460ff169081111561131857611318612ad1565b600181111561132957611329612ad1565b90525092915050565b61133a611cf1565b61134460006122b7565b565b609c5473ffffffffffffffffffffffffffffffffffffffff1633146113d35760405162461bcd60e51b815260206004820152602560248201527f636f6e74726163742063616c6c206973206e6f74207374616b696e6720736c6160448201527f7368696e6700000000000000000000000000000000000000000000000000000060648201526084016104fa565b60005b609d548110156114af5761148f609d82815481106113f6576113f6612c5d565b90600052602060002001805461140b90612c8c565b80601f016020809104026020016040519081016040528092919081815260200182805461143790612c8c565b80156114845780601f1061145957610100808354040283529160200191611484565b820191906000526020600020905b81548152906001019060200180831161146757829003601f168201915b505050505083610bba565b1561149d5761149d8161232e565b806114a781612d81565b9150506113d6565b50609f816040516114c09190612dba565b90815260405190819003602001902060006114db828261253e565b5060010180547fffffffffffffffffffffff00000000000000000000000000000000000000000016905550565b600054610100900460ff16158080156115285750600054600160ff909116105b806115425750303b158015611542575060005460ff166001145b6115b45760405162461bcd60e51b815260206004820152602e60248201527f496e697469616c697a61626c653a20636f6e747261637420697320616c72656160448201527f647920696e697469616c697a656400000000000000000000000000000000000060648201526084016104fa565b6000805460ff1916600117905580156115f457600080547fffffffffffffffffffffffffffffffffffffffffffffffffffffffffffff00ff166101001790555b6115fc612438565b6000609a819055609b819055609955801561166f57600080547fffffffffffffffffffffffffffffffffffffffffffffffffffffffffffff00ff169055604051600181527f7f26b83ff96e1f2b6a682f133852f6798a09c465da95921460cefb3847402498906020015b60405180910390a15b50565b6060609d805480602002602001604051908101604052809291908181526020016000905b828210156117425783829060005260206000200180546116b590612c8c565b80601f01602080910402602001604051908101604052809291908181526020018280546116e190612c8c565b801561172e5780601f106117035761010080835404028352916020019161172e565b820191906000526020600020905b81548152906001019060200180831161171157829003601f168201915b505050505081526020019060010190611696565b50505050905090565b8051602081830181018051609f8252928201919093012091528054819061177190612c8c565b80601f016020809104026020016040519081016040528092919081815260200182805461179d90612c8c565b80156117ea5780601f106117bf576101008083540402835291602001916117ea565b820191906000526020600020905b8154815290600101906020018083116117cd57829003601f168201915b5050506001909301549192505073ffffffffffffffffffffffffffffffffffffffff81169060ff740100000000000000000000000000000000000000009091041683565b600080609f836040516118419190612dba565b908152604051908190036020019020805461185b90612c8c565b9050111561186b57506001919050565b506000919050565b61187b611cf1565b73ffffffffffffffffffffffffffffffffffffffff81166119045760405162461bcd60e51b815260206004820152602660248201527f4f776e61626c653a206e6577206f776e657220697320746865207a65726f206160448201527f646472657373000000000000000000000000000000000000000000000000000060648201526084016104fa565b61166f816122b7565b609e546000908190606090819015611aa1576001609a5461192e9190612dee565b6099546097609d81805461194190612c8c565b80601f016020809104026020016040519081016040528092919081815260200182805461196d90612c8c565b80156119ba5780601f1061198f576101008083540402835291602001916119ba565b820191906000526020600020905b81548152906001019060200180831161199d57829003601f168201915b5050505050915080805480602002602001604051908101604052809291908181526020016000905b82821015611a8e578382906000526020600020018054611a0190612c8c565b80601f0160208091040260200160405190810160405280929190818152602001828054611a2d90612c8c565b8015611a7a5780601f10611a4f57610100808354040283529160200191611a7a565b820191906000526020600020905b815481529060010190602001808311611a5d57829003601f168201915b5050505050815260200190600101906119e2565b5050505090509350935093509350611c13565b609a546099546097609d818054611ab790612c8c565b80601f0160208091040260200160405190810160405280929190818152602001828054611ae390612c8c565b8015611b305780601f10611b0557610100808354040283529160200191611b30565b820191906000526020600020905b815481529060010190602001808311611b1357829003601f168201915b5050505050915080805480602002602001604051908101604052809291908181526020016000905b82821015611c04578382906000526020600020018054611b7790612c8c565b80601f0160208091040260200160405190810160405280929190818152602001828054611ba390612c8c565b8015611bf05780601f10611bc557610100808354040283529160200191611bf0565b820191906000526020600020905b815481529060010190602001808311611bd357829003601f168201915b505050505081526020019060010190611b58565b50505050905093509350935093505b90919293565b611c21611cf1565b609c80547fffffffffffffffffffffffff00000000000000000000000000000000000000001673ffffffffffffffffffffffffffffffffffffffff92909216919091179055565b60008060008351604114611cbe5760405162461bcd60e51b815260206004820152601860248201527f696e76616c6964207369676e6174757265206c656e677468000000000000000060448201526064016104fa565b50505060208101516040820151606083015160001a601b811015611cea57611ce7601b82612e05565b90505b9193909250565b60335473ffffffffffffffffffffffffffffffffffffffff1633146113445760405162461bcd60e51b815260206004820181905260248201527f4f776e61626c653a2063616c6c6572206973206e6f7420746865206f776e657260448201526064016104fa565b609d5415611dfd5760005b609d54811015611df057609f609d8281548110611d8257611d82612c5d565b90600052602060002001604051611d999190612ce0565b9081526040519081900360200190206000611db4828261253e565b5060010180547fffffffffffffffffffffff00000000000000000000000000000000000000000016905580611de881612d81565b915050611d63565b50611dfd609d6000612578565b60005b609e5481101561221257609d609e8281548110611e1f57611e1f612c5d565b600091825260208083208454600181018655948452922091018054919092019190611e4990612c8c565b611e5492919061261a565b506040518060600160405280609e8381548110611e7357611e73612c5d565b906000526020600020018054611e8890612c8c565b80601f0160208091040260200160405190810160405280929190818152602001828054611eb490612c8c565b8015611f015780601f10611ed657610100808354040283529160200191611f01565b820191906000526020600020905b815481529060010190602001808311611ee457829003601f168201915b50505050508152602001611fb9609e8481548110611f2157611f21612c5d565b906000526020600020018054611f3690612c8c565b80601f0160208091040260200160405190810160405280929190818152602001828054611f6290612c8c565b8015611faf5780601f10611f8457610100808354040283529160200191611faf565b820191906000526020600020905b815481529060010190602001808311611f9257829003601f168201915b5050505050610e06565b73ffffffffffffffffffffffffffffffffffffffff1681526020016000815250609f609e8381548110611fee57611fee612c5d565b906000526020600020016040516120059190612ce0565b9081526020016040518091039020600082015181600001908051906020019061202f929190612596565b5060208201516001808301805473ffffffffffffffffffffffffffffffffffffffff9093167fffffffffffffffffffffffff000000000000000000000000000000000000000084168117825560408601519391927fffffffffffffffffffffff0000000000000000000000000000000000000000009092161790740100000000000000000000000000000000000000009084908111156120d1576120d1612ad1565b021790555090505060a160a0609e83815481106120f0576120f0612c5d565b906000526020600020016040516121079190612ce0565b90815260405190819003602001812061211f91612ce0565b90815260200160405180910390206000905560a0609e828154811061214657612146612c5d565b9060005260206000200160405161215d9190612ce0565b90815260200160405180910390206000612177919061253e565b60a2609e828154811061218c5761218c612c5d565b906000526020600020016040516121a39190612ce0565b908152604051908190036020019020805460ff19169055609e805460a39190839081106121d2576121d2612c5d565b906000526020600020016040516121e99190612ce0565b908152604051908190036020019020805460ff191690558061220a81612d81565b915050611e00565b5061221f609e6000612578565b8051612232906097906020840190612596565b5061223c81610e06565b609880547fffffffffffffffffffffffff00000000000000000000000000000000000000001673ffffffffffffffffffffffffffffffffffffffff92909216919091179055609a546040517f61c7922e50ad7ea3d35879a4a819ae97eb09b665f2113451d7ada7cb2b689b6691611666918490609d90612e2a565b6033805473ffffffffffffffffffffffffffffffffffffffff8381167fffffffffffffffffffffffff0000000000000000000000000000000000000000831681179093556040519116919082907f8be0079c531659141344cd1fd0a4f28419497f9722a3daafe3b4186f6b6457e090600090a35050565b609d54811061237f5760405162461bcd60e51b815260206004820152601260248201527f696e646578206f7574206f6620626f756e64000000000000000000000000000060448201526064016104fa565b805b609d5461239090600190612dee565b81101561240557609d6123a4826001612dd6565b815481106123b4576123b4612c5d565b90600052602060002001609d82815481106123d1576123d1612c5d565b906000526020600020019080546123e790612c8c565b6123f292919061261a565b50806123fd81612d81565b915050612381565b50609d80548061241757612417612f2a565b600190038181906000526020600020016000612433919061253e565b905550565b600054610100900460ff166124b55760405162461bcd60e51b815260206004820152602b60248201527f496e697469616c697a61626c653a20636f6e7472616374206973206e6f74206960448201527f6e697469616c697a696e6700000000000000000000000000000000000000000060648201526084016104fa565b611344600054610100900460ff166125355760405162461bcd60e51b815260206004820152602b60248201527f496e697469616c697a61626c653a20636f6e7472616374206973206e6f74206960448201527f6e697469616c697a696e6700000000000000000000000000000000000000000060648201526084016104fa565b611344336122b7565b50805461254a90612c8c565b6000825580601f1061255a575050565b601f01602090049060005260206000209081019061166f9190612695565b508054600082559060005260206000209081019061166f91906126aa565b8280546125a290612c8c565b90600052602060002090601f0160209004810192826125c4576000855561260a565b82601f106125dd57805160ff191683800117855561260a565b8280016001018555821561260a579182015b8281111561260a5782518255916020019190600101906125ef565b50612616929150612695565b5090565b82805461262690612c8c565b90600052602060002090601f016020900481019282612648576000855561260a565b82601f10612659578054855561260a565b8280016001018555821561260a57600052602060002091601f016020900482015b8281111561260a57825482559160010191906001019061267a565b5b808211156126165760008155600101612696565b808211156126165760006126be828261253e565b506001016126aa565b7f4e487b7100000000000000000000000000000000000000000000000000000000600052604160045260246000fd5b604051601f82017fffffffffffffffffffffffffffffffffffffffffffffffffffffffffffffffe016810167ffffffffffffffff8111828210171561273d5761273d6126c7565b604052919050565b600082601f83011261275657600080fd5b813567ffffffffffffffff811115612770576127706126c7565b6127a160207fffffffffffffffffffffffffffffffffffffffffffffffffffffffffffffffe0601f840116016126f6565b8181528460208386010111156127b657600080fd5b816020850160208301376000918101602001919091529392505050565b600080604083850312156127e657600080fd5b82359150602083013567ffffffffffffffff81111561280457600080fd5b61281085828601612745565b9150509250929050565b6000806040838503121561282d57600080fd5b8235915060208084013567ffffffffffffffff8082111561284d57600080fd5b818601915086601f83011261286157600080fd5b813581811115612873576128736126c7565b8060051b6128828582016126f6565b918252838101850191858101908a84111561289c57600080fd5b86860192505b838310156128d8578235858111156128ba5760008081fd5b6128c88c89838a0101612745565b83525091860191908601906128a2565b809750505050505050509250929050565b6000602082840312156128fb57600080fd5b813567ffffffffffffffff81111561291257600080fd5b61291e84828501612745565b949350505050565b6020808252825182820181905260009190848201906040850190845b8181101561297457835173ffffffffffffffffffffffffffffffffffffffff1683529284019291840191600101612942565b50909695505050505050565b6000806040838503121561299357600080fd5b823567ffffffffffffffff808211156129ab57600080fd5b6129b786838701612745565b935060208501359150808211156129cd57600080fd5b5061281085828601612745565b60005b838110156129f55781810151838201526020016129dd565b83811115612a04576000848401525b50505050565b60008151808452612a228160208601602086016129da565b601f017fffffffffffffffffffffffffffffffffffffffffffffffffffffffffffffffe0169290920160200192915050565b600081518084526020808501808196508360051b8101915082860160005b85811015612a9c578284038952612a8a848351612a0a565b98850198935090840190600101612a72565b5091979650505050505050565b838152826020820152606060408201526000612ac86060830184612a54565b95945050505050565b7f4e487b7100000000000000000000000000000000000000000000000000000000600052602160045260246000fd5b60028110612b37577f4e487b7100000000000000000000000000000000000000000000000000000000600052602160045260246000fd5b9052565b602081526000825160606020840152612b576080840182612a0a565b905073ffffffffffffffffffffffffffffffffffffffff60208501511660408401526040840151612b8b6060850182612b00565b509392505050565b602081526000612ba66020830184612a54565b9392505050565b606081526000612bc06060830186612a0a565b905073ffffffffffffffffffffffffffffffffffffffff8416602083015261291e6040830184612b00565b600060208284031215612bfd57600080fd5b813573ffffffffffffffffffffffffffffffffffffffff81168114612ba657600080fd5b848152836020820152608060408201526000612c406080830185612a0a565b8281036060840152612c528185612a54565b979650505050505050565b7f4e487b7100000000000000000000000000000000000000000000000000000000600052603260045260246000fd5b600181811c90821680612ca057607f821691505b60208210811415612cda577f4e487b7100000000000000000000000000000000000000000000000000000000600052602260045260246000fd5b50919050565b6000808354612cee81612c8c565b60018281168015612d065760018114612d1757612d46565b60ff19841687528287019450612d46565b8760005260208060002060005b85811015612d3d5781548a820152908401908201612d24565b50505082870194505b50929695505050505050565b7f4e487b7100000000000000000000000000000000000000000000000000000000600052601160045260246000fd5b60007fffffffffffffffffffffffffffffffffffffffffffffffffffffffffffffffff821415612db357612db3612d52565b5060010190565b60008251612dcc8184602087016129da565b9190910192915050565b60008219821115612de957612de9612d52565b500190565b600082821015612e0057612e00612d52565b500390565b600060ff821660ff84168060ff03821115612e2257612e22612d52565b019392505050565b83815260006020606081840152612e446060840186612a0a565b83810360408501528085548083528383019150838160051b8401016000888152858120815b84811015612f19577fffffffffffffffffffffffffffffffffffffffffffffffffffffffffffffffe0878503018652828254612ea481612c8c565b80875260018281168015612ebf5760018114612ed357612f02565b60ff1984168d8a0152604089019450612f02565b8688528c8820885b84811015612efa5781548f828d01015283820191508e81019050612edb565b8a018e019550505b50988b019892965050509190910190600101612e69565b50919b9a5050505050505050505050565b7f4e487b7100000000000000000000000000000000000000000000000000000000600052603160045260246000fdfea2646970667358221220fd8a9cafd92c9ce475bbe8dbdccaa366ac86a1bf51983175546912b055acee0264736f6c63430008090033",
  "devdoc": {
    "kind": "dev",
    "methods": {
      "owner()": {
        "details": "Returns the address of the current owner."
      },
      "renounceOwnership()": {
        "details": "Leaves the contract without owner. It will not be possible to call `onlyOwner` functions anymore. Can only be called by the current owner. NOTE: Renouncing ownership will leave the contract without an owner, thereby removing any functionality that is only available to the owner."
      },
      "transferOwnership(address)": {
        "details": "Transfers ownership of the contract to a new account (`newOwner`). Can only be called by the current owner."
      }
    },
    "version": 1
  },
  "userdoc": {
    "kind": "user",
    "methods": {},
    "version": 1
  },
  "storageLayout": {
    "storage": [
      {
        "astId": 138,
        "contract": "contracts/L1/tss/TssGroupManager.sol:TssGroupManager",
        "label": "_initialized",
        "offset": 0,
        "slot": "0",
        "type": "t_uint8"
      },
      {
        "astId": 141,
        "contract": "contracts/L1/tss/TssGroupManager.sol:TssGroupManager",
        "label": "_initializing",
        "offset": 1,
        "slot": "0",
        "type": "t_bool"
      },
      {
        "astId": 752,
        "contract": "contracts/L1/tss/TssGroupManager.sol:TssGroupManager",
        "label": "__gap",
        "offset": 0,
        "slot": "1",
        "type": "t_array(t_uint256)50_storage"
      },
      {
        "astId": 10,
        "contract": "contracts/L1/tss/TssGroupManager.sol:TssGroupManager",
        "label": "_owner",
        "offset": 0,
        "slot": "51",
        "type": "t_address"
      },
      {
        "astId": 130,
        "contract": "contracts/L1/tss/TssGroupManager.sol:TssGroupManager",
        "label": "__gap",
        "offset": 0,
        "slot": "52",
        "type": "t_array(t_uint256)49_storage"
      },
      {
        "astId": 423,
        "contract": "contracts/L1/tss/TssGroupManager.sol:TssGroupManager",
        "label": "_status",
        "offset": 0,
        "slot": "101",
        "type": "t_uint256"
      },
      {
        "astId": 467,
        "contract": "contracts/L1/tss/TssGroupManager.sol:TssGroupManager",
        "label": "__gap",
        "offset": 0,
        "slot": "102",
        "type": "t_array(t_uint256)49_storage"
      },
      {
        "astId": 7685,
        "contract": "contracts/L1/tss/TssGroupManager.sol:TssGroupManager",
        "label": "confirmGroupPublicKey",
        "offset": 0,
        "slot": "151",
        "type": "t_bytes_storage"
      },
      {
        "astId": 7687,
        "contract": "contracts/L1/tss/TssGroupManager.sol:TssGroupManager",
        "label": "confirmGroupAddress",
        "offset": 0,
        "slot": "152",
        "type": "t_address"
      },
      {
        "astId": 7689,
        "contract": "contracts/L1/tss/TssGroupManager.sol:TssGroupManager",
        "label": "threshold",
        "offset": 0,
        "slot": "153",
        "type": "t_uint256"
      },
      {
        "astId": 7691,
        "contract": "contracts/L1/tss/TssGroupManager.sol:TssGroupManager",
        "label": "gRoundId",
        "offset": 0,
        "slot": "154",
        "type": "t_uint256"
      },
      {
        "astId": 7693,
        "contract": "contracts/L1/tss/TssGroupManager.sol:TssGroupManager",
        "label": "confirmNumber",
        "offset": 0,
        "slot": "155",
        "type": "t_uint256"
      },
      {
        "astId": 7695,
        "contract": "contracts/L1/tss/TssGroupManager.sol:TssGroupManager",
        "label": "stakingSlash",
        "offset": 0,
        "slot": "156",
        "type": "t_address"
      },
      {
        "astId": 7698,
        "contract": "contracts/L1/tss/TssGroupManager.sol:TssGroupManager",
        "label": "activeTssMembers",
        "offset": 0,
        "slot": "157",
        "type": "t_array(t_bytes_storage)dyn_storage"
      },
      {
        "astId": 7701,
        "contract": "contracts/L1/tss/TssGroupManager.sol:TssGroupManager",
        "label": "inActiveTssMembers",
        "offset": 0,
        "slot": "158",
        "type": "t_array(t_bytes_storage)dyn_storage"
      },
      {
        "astId": 7706,
        "contract": "contracts/L1/tss/TssGroupManager.sol:TssGroupManager",
        "label": "tssActiveMemberInfo",
        "offset": 0,
        "slot": "159",
        "type": "t_mapping(t_bytes_memory_ptr,t_struct(TssMember)7447_storage)"
      },
      {
        "astId": 7710,
        "contract": "contracts/L1/tss/TssGroupManager.sol:TssGroupManager",
        "label": "memberGroupKey",
        "offset": 0,
        "slot": "160",
        "type": "t_mapping(t_bytes_memory_ptr,t_bytes_storage)"
      },
      {
        "astId": 7714,
        "contract": "contracts/L1/tss/TssGroupManager.sol:TssGroupManager",
        "label": "groupKeyCounter",
        "offset": 0,
        "slot": "161",
        "type": "t_mapping(t_bytes_memory_ptr,t_uint256)"
      },
      {
        "astId": 7718,
        "contract": "contracts/L1/tss/TssGroupManager.sol:TssGroupManager",
        "label": "isSubmitGroupKey",
        "offset": 0,
        "slot": "162",
        "type": "t_mapping(t_bytes_memory_ptr,t_bool)"
      },
      {
        "astId": 7722,
        "contract": "contracts/L1/tss/TssGroupManager.sol:TssGroupManager",
        "label": "isInActiveMember",
        "offset": 0,
        "slot": "163",
        "type": "t_mapping(t_bytes_memory_ptr,t_bool)"
      }
    ],
    "types": {
      "t_address": {
        "encoding": "inplace",
        "label": "address",
        "numberOfBytes": "20"
      },
      "t_array(t_bytes_storage)dyn_storage": {
        "base": "t_bytes_storage",
        "encoding": "dynamic_array",
        "label": "bytes[]",
        "numberOfBytes": "32"
      },
      "t_array(t_uint256)49_storage": {
        "base": "t_uint256",
        "encoding": "inplace",
        "label": "uint256[49]",
        "numberOfBytes": "1568"
      },
      "t_array(t_uint256)50_storage": {
        "base": "t_uint256",
        "encoding": "inplace",
        "label": "uint256[50]",
        "numberOfBytes": "1600"
      },
      "t_bool": {
        "encoding": "inplace",
        "label": "bool",
        "numberOfBytes": "1"
      },
      "t_bytes_memory_ptr": {
        "encoding": "bytes",
        "label": "bytes",
        "numberOfBytes": "32"
      },
      "t_bytes_storage": {
        "encoding": "bytes",
        "label": "bytes",
        "numberOfBytes": "32"
      },
      "t_enum(MemberStatus)7439": {
        "encoding": "inplace",
        "label": "enum ITssGroupManager.MemberStatus",
        "numberOfBytes": "1"
      },
      "t_mapping(t_bytes_memory_ptr,t_bool)": {
        "encoding": "mapping",
        "key": "t_bytes_memory_ptr",
        "label": "mapping(bytes => bool)",
        "numberOfBytes": "32",
        "value": "t_bool"
      },
      "t_mapping(t_bytes_memory_ptr,t_bytes_storage)": {
        "encoding": "mapping",
        "key": "t_bytes_memory_ptr",
        "label": "mapping(bytes => bytes)",
        "numberOfBytes": "32",
        "value": "t_bytes_storage"
      },
      "t_mapping(t_bytes_memory_ptr,t_struct(TssMember)7447_storage)": {
        "encoding": "mapping",
        "key": "t_bytes_memory_ptr",
        "label": "mapping(bytes => struct ITssGroupManager.TssMember)",
        "numberOfBytes": "32",
        "value": "t_struct(TssMember)7447_storage"
      },
      "t_mapping(t_bytes_memory_ptr,t_uint256)": {
        "encoding": "mapping",
        "key": "t_bytes_memory_ptr",
        "label": "mapping(bytes => uint256)",
        "numberOfBytes": "32",
        "value": "t_uint256"
      },
      "t_struct(TssMember)7447_storage": {
        "encoding": "inplace",
        "label": "struct ITssGroupManager.TssMember",
        "members": [
          {
            "astId": 7441,
            "contract": "contracts/L1/tss/TssGroupManager.sol:TssGroupManager",
            "label": "publicKey",
            "offset": 0,
            "slot": "0",
            "type": "t_bytes_storage"
          },
          {
            "astId": 7443,
            "contract": "contracts/L1/tss/TssGroupManager.sol:TssGroupManager",
            "label": "nodeAddress",
            "offset": 0,
            "slot": "1",
            "type": "t_address"
          },
          {
            "astId": 7446,
            "contract": "contracts/L1/tss/TssGroupManager.sol:TssGroupManager",
            "label": "status",
            "offset": 20,
            "slot": "1",
            "type": "t_enum(MemberStatus)7439"
          }
        ],
        "numberOfBytes": "64"
      },
      "t_uint256": {
        "encoding": "inplace",
        "label": "uint256",
        "numberOfBytes": "32"
      },
      "t_uint8": {
        "encoding": "inplace",
        "label": "uint8",
        "numberOfBytes": "1"
      }
    }
  }
}