{
  "_format": "hh-sol-artifact-1",
  "contractName": "Challenge",
  "sourceName": "contracts/L1/fraud-proof/challenge/Challenge.sol",
  "abi": [
    {
      "anonymous": false,
      "inputs": [
        {
          "indexed": false,
          "internalType": "bytes32",
          "name": "startState",
          "type": "bytes32"
        },
        {
          "indexed": false,
          "internalType": "bytes32",
          "name": "midState",
          "type": "bytes32"
        },
        {
          "indexed": false,
          "internalType": "bytes32",
          "name": "endState",
          "type": "bytes32"
        },
        {
          "indexed": false,
          "internalType": "uint256",
          "name": "blockNum",
          "type": "uint256"
        },
        {
          "indexed": false,
          "internalType": "uint256",
          "name": "blockTime",
          "type": "uint256"
        },
        {
          "indexed": false,
          "internalType": "uint256",
          "name": "challengedSegmentStart",
          "type": "uint256"
        },
        {
          "indexed": false,
          "internalType": "uint256",
          "name": "challengedSegmentLength",
          "type": "uint256"
        }
      ],
      "name": "Bisected",
      "type": "event"
    },
    {
      "anonymous": false,
      "inputs": [
        {
          "indexed": false,
          "internalType": "address",
          "name": "winner",
          "type": "address"
        },
        {
          "indexed": false,
          "internalType": "address",
          "name": "loser",
          "type": "address"
        },
        {
          "indexed": false,
          "internalType": "enum IChallenge.CompletionReason",
          "name": "reason",
          "type": "uint8"
        }
      ],
      "name": "ChallengeCompleted",
      "type": "event"
    },
    {
      "inputs": [
        {
          "internalType": "bytes32[3]",
          "name": "bisection",
          "type": "bytes32[3]"
        },
        {
          "internalType": "uint256",
          "name": "challengedSegmentIndex",
          "type": "uint256"
        },
        {
          "internalType": "uint256",
          "name": "challengedSegmentStart",
          "type": "uint256"
        },
        {
          "internalType": "uint256",
          "name": "challengedSegmentLength",
          "type": "uint256"
        },
        {
          "internalType": "uint256",
          "name": "prevChallengedSegmentStart",
          "type": "uint256"
        },
        {
          "internalType": "uint256",
          "name": "prevChallengedSegmentLength",
          "type": "uint256"
        }
      ],
      "name": "bisectExecution",
      "outputs": [],
      "stateMutability": "nonpayable",
      "type": "function"
    },
    {
      "inputs": [],
      "name": "bisectionHash",
      "outputs": [
        {
          "internalType": "bytes32",
          "name": "",
          "type": "bytes32"
        }
      ],
      "stateMutability": "view",
      "type": "function"
    },
    {
      "inputs": [],
      "name": "challenger",
      "outputs": [
        {
          "internalType": "address",
          "name": "",
          "type": "address"
        }
      ],
      "stateMutability": "view",
      "type": "function"
    },
    {
      "inputs": [],
      "name": "challengerTimeLeft",
      "outputs": [
        {
          "internalType": "uint256",
          "name": "",
          "type": "uint256"
        }
      ],
      "stateMutability": "view",
      "type": "function"
    },
    {
      "inputs": [
        {
          "internalType": "bool",
          "name": "result",
          "type": "bool"
        }
      ],
      "name": "completeChallenge",
      "outputs": [],
      "stateMutability": "nonpayable",
      "type": "function"
    },
    {
      "inputs": [],
      "name": "currentBisected",
      "outputs": [
        {
          "internalType": "bytes32",
          "name": "startState",
          "type": "bytes32"
        },
        {
          "internalType": "bytes32",
          "name": "midState",
          "type": "bytes32"
        },
        {
          "internalType": "bytes32",
          "name": "endState",
          "type": "bytes32"
        },
        {
          "internalType": "uint256",
          "name": "blockNum",
          "type": "uint256"
        },
        {
          "internalType": "uint256",
          "name": "blockTime",
          "type": "uint256"
        },
        {
          "internalType": "uint256",
          "name": "challengedSegmentStart",
          "type": "uint256"
        },
        {
          "internalType": "uint256",
          "name": "challengedSegmentLength",
          "type": "uint256"
        }
      ],
      "stateMutability": "view",
      "type": "function"
    },
    {
      "inputs": [],
      "name": "currentResponder",
      "outputs": [
        {
          "internalType": "address",
          "name": "",
          "type": "address"
        }
      ],
      "stateMutability": "view",
      "type": "function"
    },
    {
      "inputs": [],
      "name": "currentResponderTimeLeft",
      "outputs": [
        {
          "internalType": "uint256",
          "name": "",
          "type": "uint256"
        }
      ],
      "stateMutability": "view",
      "type": "function"
    },
    {
      "inputs": [],
      "name": "defender",
      "outputs": [
        {
          "internalType": "address",
          "name": "",
          "type": "address"
        }
      ],
      "stateMutability": "view",
      "type": "function"
    },
    {
      "inputs": [],
      "name": "defenderTimeLeft",
      "outputs": [
        {
          "internalType": "uint256",
          "name": "",
          "type": "uint256"
        }
      ],
      "stateMutability": "view",
      "type": "function"
    },
    {
      "inputs": [
        {
          "internalType": "address",
          "name": "_defender",
          "type": "address"
        },
        {
          "internalType": "address",
          "name": "_challenger",
          "type": "address"
        },
        {
          "internalType": "contract IVerifierEntry",
          "name": "_verifier",
          "type": "address"
        },
        {
          "internalType": "address",
          "name": "_resultReceiver",
          "type": "address"
        },
        {
          "internalType": "uint256",
          "name": "_startInboxSize",
          "type": "uint256"
        },
        {
          "internalType": "bytes32",
          "name": "_startStateHash",
          "type": "bytes32"
        },
        {
          "internalType": "bytes32",
          "name": "_endStateHash",
          "type": "bytes32"
        }
      ],
      "name": "initialize",
      "outputs": [],
      "stateMutability": "nonpayable",
      "type": "function"
    },
    {
      "inputs": [
        {
          "internalType": "bytes32",
          "name": "checkStateHash",
          "type": "bytes32"
        },
        {
          "internalType": "uint256",
          "name": "_numSteps",
          "type": "uint256"
        }
      ],
      "name": "initializeChallengeLength",
      "outputs": [],
      "stateMutability": "nonpayable",
      "type": "function"
    },
    {
      "inputs": [],
      "name": "lastMoveBlockTime",
      "outputs": [
        {
          "internalType": "uint256",
          "name": "",
          "type": "uint256"
        }
      ],
      "stateMutability": "view",
      "type": "function"
    },
    {
      "inputs": [
        {
          "internalType": "uint256",
          "name": "",
          "type": "uint256"
        }
      ],
      "name": "prevBisection",
      "outputs": [
        {
          "internalType": "bytes32",
          "name": "",
          "type": "bytes32"
        }
      ],
      "stateMutability": "view",
      "type": "function"
    },
    {
      "inputs": [],
      "name": "rollback",
      "outputs": [
        {
          "internalType": "bool",
          "name": "",
          "type": "bool"
        }
      ],
      "stateMutability": "view",
      "type": "function"
    },
    {
      "inputs": [],
      "name": "setRollback",
      "outputs": [],
      "stateMutability": "nonpayable",
      "type": "function"
    },
    {
      "inputs": [],
      "name": "startInboxSize",
      "outputs": [
        {
          "internalType": "uint256",
          "name": "",
          "type": "uint256"
        }
      ],
      "stateMutability": "view",
      "type": "function"
    },
    {
      "inputs": [],
      "name": "timeout",
      "outputs": [],
      "stateMutability": "nonpayable",
      "type": "function"
    },
    {
      "inputs": [],
      "name": "turn",
      "outputs": [
        {
          "internalType": "enum Challenge.Turn",
          "name": "",
          "type": "uint8"
        }
      ],
      "stateMutability": "view",
      "type": "function"
    },
    {
      "inputs": [
        {
          "components": [
            {
              "internalType": "address",
              "name": "coinbase",
              "type": "address"
            },
            {
              "internalType": "uint256",
              "name": "timestamp",
              "type": "uint256"
            },
            {
              "internalType": "uint256",
              "name": "number",
              "type": "uint256"
            },
            {
              "internalType": "address",
              "name": "origin",
              "type": "address"
            },
            {
              "components": [
                {
                  "internalType": "uint64",
                  "name": "nonce",
                  "type": "uint64"
                },
                {
                  "internalType": "uint256",
                  "name": "gasPrice",
                  "type": "uint256"
                },
                {
                  "internalType": "uint64",
                  "name": "gas",
                  "type": "uint64"
                },
                {
                  "internalType": "address",
                  "name": "to",
                  "type": "address"
                },
                {
                  "internalType": "uint256",
                  "name": "value",
                  "type": "uint256"
                },
                {
                  "internalType": "bytes",
                  "name": "data",
                  "type": "bytes"
                },
                {
                  "internalType": "uint256",
                  "name": "v",
                  "type": "uint256"
                },
                {
                  "internalType": "uint256",
                  "name": "r",
                  "type": "uint256"
                },
                {
                  "internalType": "uint256",
                  "name": "s",
                  "type": "uint256"
                }
              ],
              "internalType": "struct EVMTypesLib.Transaction",
              "name": "transaction",
              "type": "tuple"
            },
            {
              "internalType": "bytes32",
              "name": "inputRoot",
              "type": "bytes32"
            },
            {
              "internalType": "bytes32",
              "name": "txHash",
              "type": "bytes32"
            }
          ],
          "internalType": "struct VerificationContext.Context",
          "name": "ctx",
          "type": "tuple"
        },
        {
          "internalType": "uint8",
          "name": "verifyType",
          "type": "uint8"
        },
        {
          "internalType": "bytes",
          "name": "proof",
          "type": "bytes"
        },
        {
          "internalType": "uint256",
          "name": "challengedStepIndex",
          "type": "uint256"
        },
        {
          "internalType": "uint256",
          "name": "prevChallengedSegmentStart",
          "type": "uint256"
        },
        {
          "internalType": "uint256",
          "name": "prevChallengedSegmentLength",
          "type": "uint256"
        }
      ],
      "name": "verifyOneStepProof",
      "outputs": [],
      "stateMutability": "nonpayable",
      "type": "function"
    },
    {
      "inputs": [],
      "name": "winner",
      "outputs": [
        {
          "internalType": "address",
          "name": "",
          "type": "address"
        }
      ],
      "stateMutability": "view",
      "type": "function"
    }
  ],
  "bytecode": "0x608060405234801561001057600080fd5b506118e4806100206000396000f3fe608060405234801561001057600080fd5b50600436106101375760003560e01c80638b299903116100b8578063dfbf53ae1161007c578063dfbf53ae146102a3578063e87e3589146102b6578063ed5b1303146102be578063f03a7fcb146102c7578063f2858aa3146102da578063faeff41b146102ed57600080fd5b80638b2999031461022c5780638f2400a8146102465780639afd9d7814610259578063abf480131461027d578063afeae9651461029057600080fd5b8063631acced116100ff578063631acced146101aa57806370dea79a146101b2578063732e6961146101ba5780637f4c91c5146102115780638a8cd2181461022457600080fd5b806318ef160d1461013c5780632a51f6f71461015157806341e8510c1461016d578063534db0e2146101765780635f41e3d6146101a1575b600080fd5b61014f61014a366004611333565b6102f6565b005b61015a60085481565b6040519081526020015b60405180910390f35b61015a60065481565b600354610189906001600160a01b031681565b6040516001600160a01b039091168152602001610164565b61015a60055481565b61014f6105d0565b61014f610636565b6010546011546012546013546014546015546016546101dc9695949392919087565b604080519788526020880196909652948601939093526060850191909152608084015260a083015260c082015260e001610164565b600254610189906001600160a01b031681565b6101896106c9565b6007546102399060ff1681565b604051610164919061136b565b61014f610254366004611385565b61075b565b600e5461026d90600160a01b900460ff1681565b6040519015158152602001610164565b61014f61028b3660046113fc565b610b55565b61015a61029e366004611473565b610cae565b600e54610189906001600160a01b031681565b61015a610cc5565b61015a60045481565b61014f6102d53660046114d5565b610d13565b61014f6102e8366004611579565b611018565b61015a600f5481565b6102fe6106c9565b6001600160a01b0316336001600160a01b0316146040518060400160405280600a8152602001692124a9afa9a2a72222a960b11b8152509061035c5760405162461bcd60e51b815260040161035391906115a2565b60405180910390fd5b50610365610cc5565b60045461037290426115f7565b11156040518060400160405280600c81526020016b4249535f444541444c494e4560a01b815250906103b75760405162461bcd60e51b815260040161035391906115a2565b5060085460408051808201909152600f81526e4348414c5f494e49545f535441544560881b602082015290156104005760405162461bcd60e51b815260040161035391906115a2565b50600081116104455760405162461bcd60e51b8152602060048201526011602482015270494e56414c49445f4e554d5f535445505360781b6044820152606401610353565b604080516000602080830191909152818301849052825180830384018152606090920190925280519101206008556040805160e08082018352600c548083526020808401879052600d54848601819052436060808701829052426080808901829052600060a0808b0182905260c09a8b018d9052601089905560118e9055601287905560138690556014849055601582905560168d90558b519889529688018d90529987019490945290850191909152908301528101939093529082018390527f71809f4d4f7bf3c208a85ccd3c922c984024f8e3cef51e3d03ae677e4217097d910160405180910390a1600160075460ff16600281111561054957610549611355565b141561057e5760045461055c90426115f7565b60065461056991906115f7565b6006556007805460ff191660021790556105c8565b600260075460ff16600281111561059757610597611355565b14156105c8576004546105aa90426115f7565b6005546105b791906115f7565b6005556007805460ff191660011790555b505042600455565b600e54600160a01b900460ff16156106215760405162461bcd60e51b8152602060048201526014602482015273414c52454144595f5345545f524f4c4c4241434b60601b6044820152606401610353565b600e805460ff60a01b1916600160a01b179055565b61063e610cc5565b60045461064b90426115f7565b116040518060400160405280601081526020016f54494d454f55545f444541444c494e4560801b815250906106935760405162461bcd60e51b815260040161035391906115a2565b50600260075460ff1660028111156106ad576106ad611355565b14156106bf576106bd60016111f4565b565b6106bd6001611257565b6000600260075460ff1660028111156106e4576106e4611355565b14156106fa57506002546001600160a01b031690565b600160075460ff16600281111561071357610713611355565b141561072957506003546001600160a01b031690565b60405162461bcd60e51b81526020600482015260076024820152662727afaa2aa92760c91b6044820152606401610353565b6107636106c9565b6001600160a01b0316336001600160a01b0316146040518060400160405280600a8152602001692124a9afa9a2a72222a960b11b815250906107b85760405162461bcd60e51b815260040161035391906115a2565b506107c1610cc5565b6004546107ce90426115f7565b11156040518060400160405280600c81526020016b4249535f444541444c494e4560a01b815250906108135760405162461bcd60e51b815260040161035391906115a2565b506008546108555760405162461bcd60e51b815260206004820152600f60248201526e1393d517d253925512505312569151608a1b6044820152606401610353565b604080516020808201859052818301849052825180830384018152606090920190925280519101206008548114604051806040016040528060088152602001672124a9afa82922ab60c11b815250906108c15760405162461bcd60e51b815260040161035391906115a2565b50600a541561091b57600954873514806108dd5750600a548735145b61091b5760405162461bcd60e51b815260206004820152600f60248201526e1053509251d553d554d7d4d5105495608a1b6044820152606401610353565b600b546040880135141561095f5760405162461bcd60e51b815260206004820152600b60248201526a1253959053125117d1539160aa1b6044820152606401610353565b6000841161099b5760405162461bcd60e51b81526020600482015260096024820152681513d3d7d4d213d49560ba1b6044820152606401610353565b8635600955602080880135600a55604080890135600b558051808301889052808201879052815180820383018152606090910190915280519101206008556040805160e081018252883581526020808a0135908201529081018860026020908102919091013582524382820181905242604080850182905260608086018c905260809586018b905286516010558685015160115586820151601255868101516013558686015160145560a08088015160155560c09788015160165582518f3581528f870135968101969096528e8301358684015290850193909352938301528101889052918201869052517f71809f4d4f7bf3c208a85ccd3c922c984024f8e3cef51e3d03ae677e4217097d9181900360e00190a150600160075460ff166002811115610aca57610aca611355565b1415610aff57600454610add90426115f7565b600654610aea91906115f7565b6006556007805460ff19166002179055610b49565b600260075460ff166002811115610b1857610b18611355565b1415610b4957600454610b2b90426115f7565b600554610b3891906115f7565b6005556007805460ff191660011790555b50504260045550505050565b600060075460ff166002811115610b6e57610b6e611355565b146040518060400160405280600f81526020016e4348414c5f494e49545f535441544560881b81525090610bb55760405162461bcd60e51b815260040161035391906115a2565b506001600160a01b03871615801590610bd657506001600160a01b03861615155b8015610bea57506001600160a01b03841615155b610c255760405162461bcd60e51b815260206004820152600c60248201526b5a45524f5f4144445245535360a01b6044820152606401610353565b600280546001600160a01b03199081166001600160a01b03998a16178255600380548216988a1698909817909755600180548816968916969096179095556000805490961693909616929092178455600c829055600d8590556007805460ff19169093179092554260045560966005819055600655600955600a91909155600b91909155600f55565b60098160038110610cbe57600080fd5b0154905081565b6000600260075460ff166002811115610ce057610ce0611355565b1415610ced575060055490565b600160075460ff166002811115610d0657610d06611355565b1415610729575060065490565b610d1b6106c9565b6001600160a01b0316336001600160a01b0316146040518060400160405280600a8152602001692124a9afa9a2a72222a960b11b81525090610d705760405162461bcd60e51b815260040161035391906115a2565b50610d79610cc5565b600454610d8690426115f7565b11156040518060400160405280600c81526020016b4249535f444541444c494e4560a01b81525090610dcb5760405162461bcd60e51b815260040161035391906115a2565b50604080516020808201859052818301849052825180830384018152606090920190925280519101206008548114604051806040016040528060088152602001672124a9afa82922ab60c11b81525090610e385760405162461bcd60e51b815260040161035391906115a2565b506001610e46600284611632565b1115610e8b5760405162461bcd60e51b8152602060048201526014602482015273424953454354494f4e5f494e434f4d504c45544560601b6044820152606401610353565b600180546000916001600160a01b039091169063625eb72e908b908b90600990610eb5908b6115f7565b60038110610ec557610ec561161c565b01548b8b6040518663ffffffff1660e01b8152600401610ee99594939291906117ac565b60206040518083038186803b158015610f0157600080fd5b505afa158015610f15573d6000803e3d6000fd5b505050506040513d601f19601f82011682018060405250810190610f39919061185f565b905060098560038110610f4e57610f4e61161c565b0154811415610f6657610f6160006112af565b610f70565b610f706000611302565b506001905060075460ff166002811115610f8c57610f8c611355565b1415610fc157600454610f9f90426115f7565b600654610fac91906115f7565b6006556007805460ff1916600217905561100b565b600260075460ff166002811115610fda57610fda611355565b141561100b57600454610fed90426115f7565b600554610ffa91906115f7565b6005556007805460ff191660011790555b5050426004555050505050565b6002546001600160a01b03166110635760405162461bcd60e51b815260206004820152601060248201526f111959995b99195c881b9bdd081cd95d60821b6044820152606401610353565b6002546001600160a01b031633146110b35760405162461bcd60e51b815260206004820152601360248201527221b0b63632b9103737ba103232b332b73232b960691b6044820152606401610353565b600e546001600160a01b03166111005760405162461bcd60e51b81526020600482015260126024820152712237903737ba103430bb32903bb4b73732b960711b6044820152606401610353565b600354600e546001600160a01b03908116911614156111b257801561118f57600054600354600254604051637d3c01f360e11b81526001600160a01b039283166004820152908216602482015291169063fa7803e6906044015b600060405180830381600087803b15801561117457600080fd5b505af1158015611188573d6000803e3d6000fd5b5050505050565b600254600e80546001600160a01b0319166001600160a01b039092169190911790555b600054600254600354604051637d3c01f360e11b81526001600160a01b039283166004820152908216602482015291169063fa7803e69060440161115a565b50565b600354600e80546001600160a01b0319166001600160a01b039283169081179091556002546040517f03f929a9a6b1f0aef5e43cb12b56f862da97ec3de3fda02a52e85f9f3974fb6a9361124c939216908590611878565b60405180910390a150565b600254600e80546001600160a01b0319166001600160a01b039283169081179091556003546040517f03f929a9a6b1f0aef5e43cb12b56f862da97ec3de3fda02a52e85f9f3974fb6a9361124c939216908590611878565b600260075460ff1660028111156112c8576112c8611355565b14156112d7576111f181611257565b600354600e80546001600160a01b0319166001600160a01b039092169190911790556111f1816111f4565b600260075460ff16600281111561131b5761131b611355565b141561132a576111f1816111f4565b6111f181611257565b6000806040838503121561134657600080fd5b50508035926020909101359150565b634e487b7160e01b600052602160045260246000fd5b602081016003831061137f5761137f611355565b91905290565b600080600080600080610100878903121561139f57600080fd5b60608701888111156113b057600080fd5b969896359750505060808701359460a0880135945060c0880135935060e088013592509050565b6001600160a01b03811681146111f157600080fd5b80356113f7816113d7565b919050565b600080600080600080600060e0888a03121561141757600080fd5b8735611422816113d7565b96506020880135611432816113d7565b95506040880135611442816113d7565b94506060880135611452816113d7565b9699959850939660808101359560a0820135955060c0909101359350915050565b60006020828403121561148557600080fd5b5035919050565b60008083601f84011261149e57600080fd5b50813567ffffffffffffffff8111156114b657600080fd5b6020830191508360208285010111156114ce57600080fd5b9250929050565b600080600080600080600060c0888a0312156114f057600080fd5b873567ffffffffffffffff8082111561150857600080fd5b9089019060e0828c03121561151c57600080fd5b90975060208901359060ff8216821461153457600080fd5b9096506040890135908082111561154a57600080fd5b506115578a828b0161148c565b989b979a50986060810135976080820135975060a09091013595509350505050565b60006020828403121561158b57600080fd5b8135801515811461159b57600080fd5b9392505050565b600060208083528351808285015260005b818110156115cf578581018301518582016040015282016115b3565b818111156115e1576000604083870101525b50601f01601f1916929092016040019392505050565b60008282101561161757634e487b7160e01b600052601160045260246000fd5b500390565b634e487b7160e01b600052603260045260246000fd5b60008261164f57634e487b7160e01b600052601260045260246000fd5b500490565b6000823561011e1983360301811261166b57600080fd5b90910192915050565b803567ffffffffffffffff811681146113f757600080fd5b6000808335601e198436030181126116a357600080fd5b830160208101925035905067ffffffffffffffff8111156116c357600080fd5b8036038313156114ce57600080fd5b81835281816020850137506000828201602090810191909152601f909101601f19169091010190565b600061012067ffffffffffffffff61171284611674565b1684526020830135602085015261172b60408401611674565b67ffffffffffffffff166040850152611746606084016113ec565b6001600160a01b031660608501526080838101359085015261176b60a084018461168c565b8260a087015261177e83870182846116d2565b9250505060c083013560c085015260e083013560e08501526101008084013581860152508091505092915050565b60808152600086356117bd816113d7565b6001600160a01b039081166080840152602088013560a0840152604088013560c08401526060880135906117f0826113d7565b1660e08301526118036080880188611654565b60e06101008401526118196101608401826116fb565b60a089013561012085015260c089013561014085015260ff88166020850152905085604084015282810360608401526118538185876116d2565b98975050505050505050565b60006020828403121561187157600080fd5b5051919050565b6001600160a01b0384811682528316602082015260608101600283106118a0576118a0611355565b82604083015294935050505056fea264697066735822122043a917a07b3fb34163ec8a974ec9abbe7aba69ee2f587cb59ca415ef8c9c990964736f6c63430008090033",
  "linkReferences": {},
  "deployedLinkReferences": {}
}