{
  "abi": [
    {
      "anonymous": false,
      "inputs": [
        {
          "indexed": false,
          "internalType": "uint8",
          "name": "version",
          "type": "uint8"
        }
      ],
      "name": "Initialized",
      "type": "event"
    },
    {
      "anonymous": false,
      "inputs": [
        {
          "indexed": true,
          "internalType": "address",
          "name": "previousOwner",
          "type": "address"
        },
        {
          "indexed": true,
          "internalType": "address",
          "name": "newOwner",
          "type": "address"
        }
      ],
      "name": "OwnershipTransferred",
      "type": "event"
    },
    {
      "inputs": [],
      "name": "EXIT_1_NO_RETURN_STEP",
      "outputs": [
        {
          "internalType": "uint8",
          "name": "",
          "type": "uint8"
        }
      ],
      "stateMutability": "view",
      "type": "function"
    },
    {
      "inputs": [],
      "name": "MantlePortalDynamicConfig",
      "outputs": [
        {
          "internalType": "bool",
          "name": "",
          "type": "bool"
        }
      ],
      "stateMutability": "view",
      "type": "function"
    },
    {
      "inputs": [],
      "name": "PROXY_TRANSFER_STEP",
      "outputs": [
        {
          "internalType": "uint8",
          "name": "",
          "type": "uint8"
        }
      ],
      "stateMutability": "view",
      "type": "function"
    },
    {
      "inputs": [],
      "name": "config",
      "outputs": [
        {
          "components": [
            {
              "internalType": "contract AddressManager",
              "name": "addressManager",
              "type": "address"
            },
            {
              "internalType": "contract ProxyAdmin",
              "name": "proxyAdmin",
              "type": "address"
            },
            {
              "internalType": "address",
              "name": "controller",
              "type": "address"
            },
            {
              "internalType": "address",
              "name": "finalOwner",
              "type": "address"
            }
          ],
          "internalType": "struct SystemDictator.GlobalConfig",
          "name": "globalConfig",
          "type": "tuple"
        },
        {
          "components": [
            {
              "internalType": "address",
              "name": "l2OutputOracleProxy",
              "type": "address"
            },
            {
              "internalType": "address",
              "name": "MantlePortalProxy",
              "type": "address"
            },
            {
              "internalType": "address",
              "name": "l1CrossDomainMessengerProxy",
              "type": "address"
            },
            {
              "internalType": "address",
              "name": "l1StandardBridgeProxy",
              "type": "address"
            },
            {
              "internalType": "address",
              "name": "MantleMintableERC20FactoryProxy",
              "type": "address"
            },
            {
              "internalType": "address",
              "name": "l1ERC721BridgeProxy",
              "type": "address"
            },
            {
              "internalType": "address",
              "name": "systemConfigProxy",
              "type": "address"
            }
          ],
          "internalType": "struct SystemDictator.ProxyAddressConfig",
          "name": "proxyAddressConfig",
          "type": "tuple"
        },
        {
          "components": [
            {
              "internalType": "contract L2OutputOracle",
              "name": "l2OutputOracleImpl",
              "type": "address"
            },
            {
              "internalType": "contract MantlePortal",
              "name": "MantlePortalImpl",
              "type": "address"
            },
            {
              "internalType": "contract L1CrossDomainMessenger",
              "name": "l1CrossDomainMessengerImpl",
              "type": "address"
            },
            {
              "internalType": "contract L1StandardBridge",
              "name": "l1StandardBridgeImpl",
              "type": "address"
            },
            {
              "internalType": "contract MantleMintableERC20Factory",
              "name": "MantleMintableERC20FactoryImpl",
              "type": "address"
            },
            {
              "internalType": "contract L1ERC721Bridge",
              "name": "l1ERC721BridgeImpl",
              "type": "address"
            },
            {
              "internalType": "contract PortalSender",
              "name": "portalSenderImpl",
              "type": "address"
            },
            {
              "internalType": "contract SystemConfig",
              "name": "systemConfigImpl",
              "type": "address"
            }
          ],
          "internalType": "struct SystemDictator.ImplementationAddressConfig",
          "name": "implementationAddressConfig",
          "type": "tuple"
        },
        {
          "components": [
            {
              "internalType": "address",
              "name": "owner",
              "type": "address"
            },
            {
              "internalType": "uint256",
              "name": "overhead",
              "type": "uint256"
            },
            {
              "internalType": "uint256",
              "name": "scalar",
              "type": "uint256"
            },
            {
              "internalType": "bytes32",
              "name": "batcherHash",
              "type": "bytes32"
            },
            {
              "internalType": "uint64",
              "name": "gasLimit",
              "type": "uint64"
            },
            {
              "internalType": "address",
              "name": "unsafeBlockSigner",
              "type": "address"
            }
          ],
          "internalType": "struct SystemDictator.SystemConfigConfig",
          "name": "systemConfigConfig",
          "type": "tuple"
        }
      ],
      "stateMutability": "view",
      "type": "function"
    },
    {
      "inputs": [],
      "name": "currentStep",
      "outputs": [
        {
          "internalType": "uint8",
          "name": "",
          "type": "uint8"
        }
      ],
      "stateMutability": "view",
      "type": "function"
    },
    {
      "inputs": [],
      "name": "dynamicConfigSet",
      "outputs": [
        {
          "internalType": "bool",
          "name": "",
          "type": "bool"
        }
      ],
      "stateMutability": "view",
      "type": "function"
    },
    {
      "inputs": [],
      "name": "exit1",
      "outputs": [],
      "stateMutability": "nonpayable",
      "type": "function"
    },
    {
      "inputs": [],
      "name": "exited",
      "outputs": [
        {
          "internalType": "bool",
          "name": "",
          "type": "bool"
        }
      ],
      "stateMutability": "view",
      "type": "function"
    },
    {
      "inputs": [],
      "name": "finalize",
      "outputs": [],
      "stateMutability": "nonpayable",
      "type": "function"
    },
    {
      "inputs": [],
      "name": "finalized",
      "outputs": [
        {
          "internalType": "bool",
          "name": "",
          "type": "bool"
        }
      ],
      "stateMutability": "view",
      "type": "function"
    },
    {
      "inputs": [
        {
          "components": [
            {
              "components": [
                {
                  "internalType": "contract AddressManager",
                  "name": "addressManager",
                  "type": "address"
                },
                {
                  "internalType": "contract ProxyAdmin",
                  "name": "proxyAdmin",
                  "type": "address"
                },
                {
                  "internalType": "address",
                  "name": "controller",
                  "type": "address"
                },
                {
                  "internalType": "address",
                  "name": "finalOwner",
                  "type": "address"
                }
              ],
              "internalType": "struct SystemDictator.GlobalConfig",
              "name": "globalConfig",
              "type": "tuple"
            },
            {
              "components": [
                {
                  "internalType": "address",
                  "name": "l2OutputOracleProxy",
                  "type": "address"
                },
                {
                  "internalType": "address",
                  "name": "MantlePortalProxy",
                  "type": "address"
                },
                {
                  "internalType": "address",
                  "name": "l1CrossDomainMessengerProxy",
                  "type": "address"
                },
                {
                  "internalType": "address",
                  "name": "l1StandardBridgeProxy",
                  "type": "address"
                },
                {
                  "internalType": "address",
                  "name": "MantleMintableERC20FactoryProxy",
                  "type": "address"
                },
                {
                  "internalType": "address",
                  "name": "l1ERC721BridgeProxy",
                  "type": "address"
                },
                {
                  "internalType": "address",
                  "name": "systemConfigProxy",
                  "type": "address"
                }
              ],
              "internalType": "struct SystemDictator.ProxyAddressConfig",
              "name": "proxyAddressConfig",
              "type": "tuple"
            },
            {
              "components": [
                {
                  "internalType": "contract L2OutputOracle",
                  "name": "l2OutputOracleImpl",
                  "type": "address"
                },
                {
                  "internalType": "contract MantlePortal",
                  "name": "MantlePortalImpl",
                  "type": "address"
                },
                {
                  "internalType": "contract L1CrossDomainMessenger",
                  "name": "l1CrossDomainMessengerImpl",
                  "type": "address"
                },
                {
                  "internalType": "contract L1StandardBridge",
                  "name": "l1StandardBridgeImpl",
                  "type": "address"
                },
                {
                  "internalType": "contract MantleMintableERC20Factory",
                  "name": "MantleMintableERC20FactoryImpl",
                  "type": "address"
                },
                {
                  "internalType": "contract L1ERC721Bridge",
                  "name": "l1ERC721BridgeImpl",
                  "type": "address"
                },
                {
                  "internalType": "contract PortalSender",
                  "name": "portalSenderImpl",
                  "type": "address"
                },
                {
                  "internalType": "contract SystemConfig",
                  "name": "systemConfigImpl",
                  "type": "address"
                }
              ],
              "internalType": "struct SystemDictator.ImplementationAddressConfig",
              "name": "implementationAddressConfig",
              "type": "tuple"
            },
            {
              "components": [
                {
                  "internalType": "address",
                  "name": "owner",
                  "type": "address"
                },
                {
                  "internalType": "uint256",
                  "name": "overhead",
                  "type": "uint256"
                },
                {
                  "internalType": "uint256",
                  "name": "scalar",
                  "type": "uint256"
                },
                {
                  "internalType": "bytes32",
                  "name": "batcherHash",
                  "type": "bytes32"
                },
                {
                  "internalType": "uint64",
                  "name": "gasLimit",
                  "type": "uint64"
                },
                {
                  "internalType": "address",
                  "name": "unsafeBlockSigner",
                  "type": "address"
                }
              ],
              "internalType": "struct SystemDictator.SystemConfigConfig",
              "name": "systemConfigConfig",
              "type": "tuple"
            }
          ],
          "internalType": "struct SystemDictator.DeployConfig",
          "name": "_config",
          "type": "tuple"
        }
      ],
      "name": "initialize",
      "outputs": [],
      "stateMutability": "nonpayable",
      "type": "function"
    },
    {
      "inputs": [],
      "name": "l2OutputOracleDynamicConfig",
      "outputs": [
        {
          "internalType": "uint256",
          "name": "l2OutputOracleStartingBlockNumber",
          "type": "uint256"
        },
        {
          "internalType": "uint256",
          "name": "l2OutputOracleStartingTimestamp",
          "type": "uint256"
        }
      ],
      "stateMutability": "view",
      "type": "function"
    },
    {
      "inputs": [],
      "name": "oldL1CrossDomainMessenger",
      "outputs": [
        {
          "internalType": "address",
          "name": "",
          "type": "address"
        }
      ],
      "stateMutability": "view",
      "type": "function"
    },
    {
      "inputs": [],
      "name": "owner",
      "outputs": [
        {
          "internalType": "address",
          "name": "",
          "type": "address"
        }
      ],
      "stateMutability": "view",
      "type": "function"
    },
    {
      "inputs": [],
      "name": "renounceOwnership",
      "outputs": [],
      "stateMutability": "nonpayable",
      "type": "function"
    },
    {
      "inputs": [],
      "name": "step1",
      "outputs": [],
      "stateMutability": "nonpayable",
      "type": "function"
    },
    {
      "inputs": [],
      "name": "step2",
      "outputs": [],
      "stateMutability": "nonpayable",
      "type": "function"
    },
    {
      "inputs": [],
      "name": "step3",
      "outputs": [],
      "stateMutability": "nonpayable",
      "type": "function"
    },
    {
      "inputs": [],
      "name": "step4",
      "outputs": [],
      "stateMutability": "nonpayable",
      "type": "function"
    },
    {
      "inputs": [],
      "name": "step5",
      "outputs": [],
      "stateMutability": "nonpayable",
      "type": "function"
    },
    {
      "inputs": [
        {
          "internalType": "address",
          "name": "newOwner",
          "type": "address"
        }
      ],
      "name": "transferOwnership",
      "outputs": [],
      "stateMutability": "nonpayable",
      "type": "function"
    },
    {
      "inputs": [
        {
          "components": [
            {
              "internalType": "uint256",
              "name": "l2OutputOracleStartingBlockNumber",
              "type": "uint256"
            },
            {
              "internalType": "uint256",
              "name": "l2OutputOracleStartingTimestamp",
              "type": "uint256"
            }
          ],
          "internalType": "struct SystemDictator.L2OutputOracleDynamicConfig",
          "name": "_l2OutputOracleDynamicConfig",
          "type": "tuple"
        },
        {
          "internalType": "bool",
          "name": "_MantlePortalDynamicConfig",
          "type": "bool"
        }
      ],
      "name": "updateDynamicConfig",
      "outputs": [],
      "stateMutability": "nonpayable",
      "type": "function"
    }
  ],
  "bytecode": {
    "object": "0x608060405234801561001057600080fd5b50613718806100206000396000f3fe608060405234801561001057600080fd5b50600436106101825760003560e01c806389cb7343116100d8578063d36ec4301161008c578063f2fde38b11610066578063f2fde38b1461045a578063fb5d73761461046d578063fe6b1ddf1461047557600080fd5b8063d36ec43014610437578063d40a71fb1461044a578063df4ec2491461045257600080fd5b80638f4ed333116100bd5780638f4ed333146103f2578063b3f05b97146103fa578063cf03c22d1461040e57600080fd5b806389cb7343146103a05780638da5cb5b146103b357600080fd5b80635ce6c3271161013a578063719a99d111610114578063719a99d11461022d57806379502c551461023a5780637d1d95a61461039857600080fd5b80635ce6c327146101ed5780636c4a5b1e14610212578063715018a61461022557600080fd5b80634bb278f31161016b5780634bb278f3146101c95780634fb4bcec146101d35780635bc34f71146101db57600080fd5b8063204c881c14610187578063289c6af7146101af575b600080fd5b607d54607e54610195919082565b604080519283526020830191909152015b60405180910390f35b6101b7600381565b60405160ff90911681526020016101a6565b6101d161047d565b005b6101d16106e7565b607f546101b790610100900460ff1681565b607f5461020290640100000000900460ff1681565b60405190151581526020016101a6565b6101d1610220366004612eeb565b61109f565b6101d16114ad565b607f546102029060ff1681565b604080516080808201835260655473ffffffffffffffffffffffffffffffffffffffff908116835260665481166020808501919091526067548216848601526068548216606080860191909152855160e0808201885260695485168252606a54851682850152606b54851682890152606c54851682840152606d54851682870152606e54851660a080840191909152606f54861660c080850191909152895161010081018b52607054881681526071548816818801526072548816818c01526073548816818701526074548816818a015260755488168184015260765488168183015260775488169381019390935289519081018a526078548716815260795495810195909552607a5498850198909852607b5492840192909252607c5467ffffffffffffffff81169584019590955268010000000000000000909404909216948101949094526103889384565b6040516101a69493929190612fb0565b6101b7600481565b607f546102029062010000900460ff1681565b60335473ffffffffffffffffffffffffffffffffffffffff165b60405173ffffffffffffffffffffffffffffffffffffffff90911681526020016101a6565b6101d16114c1565b607f54610202906301000000900460ff1681565b607f546103cd9065010000000000900473ffffffffffffffffffffffffffffffffffffffff1681565b6101d1610445366004613165565b611830565b6101d16118a3565b6101d1611d9a565b6101d1610468366004613204565b61235e565b6101d1612415565b6101d161270d565b610485612931565b6066546068546040517ff2fde38b00000000000000000000000000000000000000000000000000000000815273ffffffffffffffffffffffffffffffffffffffff918216600482015291169063f2fde38b90602401600060405180830381600087803b1580156104f457600080fd5b505af1158015610508573d6000803e3d6000fd5b5050607f54600461010090910460ff161191506106b79050576065546068546040517ff2fde38b00000000000000000000000000000000000000000000000000000000815273ffffffffffffffffffffffffffffffffffffffff918216600482015291169063f2fde38b90602401600060405180830381600087803b15801561059057600080fd5b505af11580156105a4573d6000803e3d6000fd5b5050606c546068546040517f13af403500000000000000000000000000000000000000000000000000000000815273ffffffffffffffffffffffffffffffffffffffff9182166004820152911692506313af40359150602401600060405180830381600087803b15801561061757600080fd5b505af115801561062b573d6000803e3d6000fd5b5050606e546068546040517f8f28397000000000000000000000000000000000000000000000000000000000815273ffffffffffffffffffffffffffffffffffffffff918216600482015291169250638f2839709150602401600060405180830381600087803b15801561069e57600080fd5b505af11580156106b2573d6000803e3d6000fd5b505050505b607f80547fffffffffffffffffffffffffffffffffffffffffffffffffffffffff00ffffff166301000000179055565b6106ef612931565b607f546005906301000000900460ff1615610791576040517f08c379a000000000000000000000000000000000000000000000000000000000815260206004820152602160248201527f53797374656d4469637461746f723a20616c72656164792066696e616c697a6560448201527f640000000000000000000000000000000000000000000000000000000000000060648201526084015b60405180910390fd5b607f54640100000000900460ff1615610806576040517f08c379a000000000000000000000000000000000000000000000000000000000815260206004820152601e60248201527f53797374656d4469637461746f723a20616c72656164792065786974656400006044820152606401610788565b607f5460ff828116610100909204161461087c576040517f08c379a000000000000000000000000000000000000000000000000000000000815260206004820152601e60248201527f53797374656d4469637461746f723a20696e636f7272656374207374657000006044820152606401610788565b607f5462010000900460ff16610914576040517f08c379a000000000000000000000000000000000000000000000000000000000815260206004820152603c60248201527f53797374656d4469637461746f723a2064796e616d6963206f7261636c65206360448201527f6f6e666967206973206e6f742079657420696e697469616c697a6564000000006064820152608401610788565b606654606954607054607d54607e546040516024810192909252604482015273ffffffffffffffffffffffffffffffffffffffff93841693639623609d938116921690606401604080517fffffffffffffffffffffffffffffffffffffffffffffffffffffffffffffffe08184030181529181526020820180517bffffffffffffffffffffffffffffffffffffffffffffffffffffffff167fe4a3011600000000000000000000000000000000000000000000000000000000179052517fffffffff0000000000000000000000000000000000000000000000000000000060e086901b168152610a09939291906004016132a2565b600060405180830381600087803b158015610a2357600080fd5b505af1158015610a37573d6000803e3d6000fd5b5050606654606a54607154607f5460405160ff9091161515602482015273ffffffffffffffffffffffffffffffffffffffff9384169550639623609d9450918316921690604401604080517fffffffffffffffffffffffffffffffffffffffffffffffffffffffffffffffe08184030181529181526020820180517bffffffffffffffffffffffffffffffffffffffffffffffffffffffff167fd53a822f00000000000000000000000000000000000000000000000000000000179052517fffffffff0000000000000000000000000000000000000000000000000000000060e086901b168152610b2d939291906004016132a2565b600060405180830381600087803b158015610b4757600080fd5b505af1158015610b5b573d6000803e3d6000fd5b5050606654606b546072546040517f99a88ec400000000000000000000000000000000000000000000000000000000815273ffffffffffffffffffffffffffffffffffffffff92831660048201529082166024820152911692506399a88ec49150604401600060405180830381600087803b158015610bd957600080fd5b505af1158015610bed573d6000803e3d6000fd5b5050606b54604080517f8129fc1c000000000000000000000000000000000000000000000000000000008152905173ffffffffffffffffffffffffffffffffffffffff9092169350638129fc1c925060048181019260009290919082900301818387803b158015610c5d57600080fd5b505af1925050508015610c6e575060015b610dcb57610c7a6132db565b806308c379a003610d415750610c8e6132f7565b80610c995750610d43565b7f7a2a4e26842155ea933fe6eb6e3137eb5a296dcdf55721c552be7b4c3cc2375981604051602001610ccb919061339f565b604051602081830303815290604052805190602001201481604051602001610cf391906133bb565b60405160208183030381529060405290610d3a576040517f08c379a00000000000000000000000000000000000000000000000000000000081526004016107889190613426565b5050610dcb565b505b6040517f08c379a000000000000000000000000000000000000000000000000000000000815260206004820152603f60248201527f53797374656d4469637461746f723a20756e6578706563746564206572726f7260448201527f20696e697469616c697a696e67204c3158444d20286e6f20726561736f6e29006064820152608401610788565b606654606c546076546040805160048082526024820183526020820180517bffffffffffffffffffffffffffffffffffffffffffffffffffffffff167fed88c68e0000000000000000000000000000000000000000000000000000000017905291517f9623609d00000000000000000000000000000000000000000000000000000000815273ffffffffffffffffffffffffffffffffffffffff95861695639623609d95610e81959082169491169291016132a2565b600060405180830381600087803b158015610e9b57600080fd5b505af1158015610eaf573d6000803e3d6000fd5b5050606654606c546073546040517f99a88ec400000000000000000000000000000000000000000000000000000000815273ffffffffffffffffffffffffffffffffffffffff92831660048201529082166024820152911692506399a88ec49150604401600060405180830381600087803b158015610f2d57600080fd5b505af1158015610f41573d6000803e3d6000fd5b5050606654606d546074546040517f99a88ec400000000000000000000000000000000000000000000000000000000815273ffffffffffffffffffffffffffffffffffffffff92831660048201529082166024820152911692506399a88ec49150604401600060405180830381600087803b158015610fbf57600080fd5b505af1158015610fd3573d6000803e3d6000fd5b5050606654606e546075546040517f99a88ec400000000000000000000000000000000000000000000000000000000815273ffffffffffffffffffffffffffffffffffffffff92831660048201529082166024820152911692506399a88ec491506044015b600060405180830381600087803b15801561105257600080fd5b505af1158015611066573d6000803e3d6000fd5b5050607f8054610100900460ff1692509050600161108383613468565b91906101000a81548160ff021916908360ff1602179055505050565b600054610100900460ff16158080156110bf5750600054600160ff909116105b806110d95750303b1580156110d9575060005460ff166001145b611165576040517f08c379a000000000000000000000000000000000000000000000000000000000815260206004820152602e60248201527f496e697469616c697a61626c653a20636f6e747261637420697320616c72656160448201527f647920696e697469616c697a65640000000000000000000000000000000000006064820152608401610788565b600080547fffffffffffffffffffffffffffffffffffffffffffffffffffffffffffffff0016600117905580156111c357600080547fffffffffffffffffffffffffffffffffffffffffffffffffffffffffffff00ff166101001790555b81518051606580547fffffffffffffffffffffffff000000000000000000000000000000000000000090811673ffffffffffffffffffffffffffffffffffffffff9384161790915560208084015160668054841691851691909117905560408085015160678054851691861691909117905560609485015160688054851691861691909117905581870151805160698054861691871691909117905580830151606a8054861691871691909117905580820151606b8054861691871691909117905580860151606c80548616918716919091179055608080820151606d8054871691881691909117905560a080830151606e8054881691891691909117905560c092830151606f80548816918916919091179055838a01518051607080548916918a1691909117905580860151607180548916918a1691909117905580850151607280548916918a1691909117905580890151607380548916918a1691909117905580830151607480548916918a1691909117905580820151607580548916918a169190911790559283015160768054881691891691909117905560e09092015160778054871691881691909117905586890151805160788054909716908816179095559284015160795590830151607a5593820151607b55810151607c8054929094015167ffffffffffffffff9091167fffffffff0000000000000000000000000000000000000000000000000000000090921691909117680100000000000000009190921602179055607f80546101007fffffffffffffffffffffffffffffffffffffffffffffffffffffffffffff00ff9091161790556114246129b2565b6067546114469073ffffffffffffffffffffffffffffffffffffffff16612a51565b80156114a957600080547fffffffffffffffffffffffffffffffffffffffffffffffffffffffffffff00ff169055604051600181527f7f26b83ff96e1f2b6a682f133852f6798a09c465da95921460cefb38474024989060200160405180910390a15b5050565b6114b5612931565b6114bf6000612a51565b565b6114c9612931565b607f546002906301000000900460ff1615611566576040517f08c379a000000000000000000000000000000000000000000000000000000000815260206004820152602160248201527f53797374656d4469637461746f723a20616c72656164792066696e616c697a6560448201527f64000000000000000000000000000000000000000000000000000000000000006064820152608401610788565b607f54640100000000900460ff16156115db576040517f08c379a000000000000000000000000000000000000000000000000000000000815260206004820152601e60248201527f53797374656d4469637461746f723a20616c72656164792065786974656400006044820152606401610788565b607f5460ff8281166101009092041614611651576040517f08c379a000000000000000000000000000000000000000000000000000000000815260206004820152601e60248201527f53797374656d4469637461746f723a20696e636f7272656374207374657000006044820152606401610788565b6065546040517fbf40fac100000000000000000000000000000000000000000000000000000000815273ffffffffffffffffffffffffffffffffffffffff9091169063bf40fac1906116a590600401613487565b602060405180830381865afa1580156116c2573d6000803e3d6000fd5b505050506040513d601f19601f820116820180604052508101906116e691906134ca565b607f80547fffffffffffffff0000000000000000000000000000000000000000ffffffffff166501000000000073ffffffffffffffffffffffffffffffffffffffff938416021790556065546040517f9b2ea4bd000000000000000000000000000000000000000000000000000000008152911690639b2ea4bd90611770906000906004016134e7565b600060405180830381600087803b15801561178a57600080fd5b505af115801561179e573d6000803e3d6000fd5b5050606554604080517f9b2ea4bd0000000000000000000000000000000000000000000000000000000081526004810191909152601160448201527f44544c5f534855544f46465f424c4f434b000000000000000000000000000000606482015273ffffffffffffffffffffffffffffffffffffffff43811660248301529091169250639b2ea4bd9150608401611038565b611838612931565b8151607d55602090910151607e55607f80547fffffffffffffffffffffffffffffffffffffffffffffffffffffffffff00ffff921515929092167fffffffffffffffffffffffffffffffffffffffffffffffffffffffffff00ff009092169190911762010000179055565b6118ab612931565b607f546001906301000000900460ff1615611948576040517f08c379a000000000000000000000000000000000000000000000000000000000815260206004820152602160248201527f53797374656d4469637461746f723a20616c72656164792066696e616c697a6560448201527f64000000000000000000000000000000000000000000000000000000000000006064820152608401610788565b607f54640100000000900460ff16156119bd576040517f08c379a000000000000000000000000000000000000000000000000000000000815260206004820152601e60248201527f53797374656d4469637461746f723a20616c72656164792065786974656400006044820152606401610788565b607f5460ff8281166101009092041614611a33576040517f08c379a000000000000000000000000000000000000000000000000000000000815260206004820152601e60248201527f53797374656d4469637461746f723a20696e636f7272656374207374657000006044820152606401610788565b6066546065546040517f0652b57a00000000000000000000000000000000000000000000000000000000815273ffffffffffffffffffffffffffffffffffffffff9182166004820152911690630652b57a90602401600060405180830381600087803b158015611aa257600080fd5b505af1158015611ab6573d6000803e3d6000fd5b5050606654606b546040517f8d52d4a000000000000000000000000000000000000000000000000000000000815273ffffffffffffffffffffffffffffffffffffffff9283169450638d52d4a09350611b189290911690600290600401613548565b600060405180830381600087803b158015611b3257600080fd5b505af1158015611b46573d6000803e3d6000fd5b5050606654606b546040517f860f7cda00000000000000000000000000000000000000000000000000000000815273ffffffffffffffffffffffffffffffffffffffff928316945063860f7cda9350611ba592909116906004016135a9565b600060405180830381600087803b158015611bbf57600080fd5b505af1158015611bd3573d6000803e3d6000fd5b5050606654606c546040517f8d52d4a000000000000000000000000000000000000000000000000000000000815273ffffffffffffffffffffffffffffffffffffffff9283169450638d52d4a09350611c359290911690600190600401613548565b600060405180830381600087803b158015611c4f57600080fd5b505af1158015611c63573d6000803e3d6000fd5b5050606654606f54607754607854607954607a54607b54607c5460405173ffffffffffffffffffffffffffffffffffffffff958616602482015260448101949094526064840192909252608483015267ffffffffffffffff811660a4830152680100000000000000009004821660c48201529381169550639623609d94509182169291169060e401604080517fffffffffffffffffffffffffffffffffffffffffffffffffffffffffffffffe08184030181529181526020820180517bffffffffffffffffffffffffffffffffffffffffffffffffffffffff167f8f974d7f00000000000000000000000000000000000000000000000000000000179052517fffffffff0000000000000000000000000000000000000000000000000000000060e086901b168152611038939291906004016132a2565b611da2612931565b607f546003906301000000900460ff1615611e3f576040517f08c379a000000000000000000000000000000000000000000000000000000000815260206004820152602160248201527f53797374656d4469637461746f723a20616c72656164792066696e616c697a6560448201527f64000000000000000000000000000000000000000000000000000000000000006064820152608401610788565b607f54640100000000900460ff1615611eb4576040517f08c379a000000000000000000000000000000000000000000000000000000000815260206004820152601e60248201527f53797374656d4469637461746f723a20616c72656164792065786974656400006044820152606401610788565b607f5460ff8281166101009092041614611f2a576040517f08c379a000000000000000000000000000000000000000000000000000000000815260206004820152601e60248201527f53797374656d4469637461746f723a20696e636f7272656374207374657000006044820152606401610788565b60006040518061022001604052806040518060400160405280601d81526020017f4f564d5f43616e6f6e6963616c5472616e73616374696f6e436861696e00000081525081526020016040518060400160405280601a81526020017f4f564d5f4c3243726f7373446f6d61696e4d657373656e67657200000000000081525081526020016040518060600160405280602281526020016136a26022913981526020016040518060400160405280600d81526020017f4f564d5f53657175656e6365720000000000000000000000000000000000000081525081526020016040518060400160405280600c81526020017f4f564d5f50726f706f736572000000000000000000000000000000000000000081525081526020016040518060600160405280602581526020016136c46025913981526020016040518060600160405280602381526020016136e9602391398152604080518082018252601d81527f4f564d5f43616e6f6e6963616c5472616e73616374696f6e436861696e0000006020828101919091528084019190915281518083018352601881527f4f564d5f5374617465436f6d6d69746d656e74436861696e0000000000000000818301528284015281518083018352600f81527f4f564d5f426f6e644d616e61676572000000000000000000000000000000000081830152606084015281518083018352601481527f4f564d5f457865637574696f6e4d616e616765720000000000000000000000008183015260808401528151808301835260118082527f4f564d5f467261756456657269666965720000000000000000000000000000008284015260a085019190915282518084018452601781527f4f564d5f53746174654d616e61676572466163746f72790000000000000000008184015260c085015282518084018452601c81527f4f564d5f53746174655472616e736974696f6e6572466163746f7279000000008184015260e0850152825180840184529081527f4f564d5f536166657479436865636b65720000000000000000000000000000008183015261010084015281518083018352601981527f4f564d5f4c314d756c74694d65737361676552656c6179657200000000000000818301526101208401528151808301909252600b82527f426f6e644d616e616765720000000000000000000000000000000000000000009082015261014090910152905060005b60118110156123445760655473ffffffffffffffffffffffffffffffffffffffff16639b2ea4bd8383601181106122db576122db613602565b602002015160006040518363ffffffff1660e01b81526004016122ff929190613631565b600060405180830381600087803b15801561231957600080fd5b505af115801561232d573d6000803e3d6000fd5b50505050808061233c90613669565b9150506122a2565b5050607f8054610100900460ff1690600161108383613468565b612366612931565b73ffffffffffffffffffffffffffffffffffffffff8116612409576040517f08c379a000000000000000000000000000000000000000000000000000000000815260206004820152602660248201527f4f776e61626c653a206e6577206f776e657220697320746865207a65726f206160448201527f64647265737300000000000000000000000000000000000000000000000000006064820152608401610788565b61241281612a51565b50565b61241d612931565b607f546004906301000000900460ff16156124ba576040517f08c379a000000000000000000000000000000000000000000000000000000000815260206004820152602160248201527f53797374656d4469637461746f723a20616c72656164792066696e616c697a6560448201527f64000000000000000000000000000000000000000000000000000000000000006064820152608401610788565b607f54640100000000900460ff161561252f576040517f08c379a000000000000000000000000000000000000000000000000000000000815260206004820152601e60248201527f53797374656d4469637461746f723a20616c72656164792065786974656400006044820152606401610788565b607f5460ff82811661010090920416146125a5576040517f08c379a000000000000000000000000000000000000000000000000000000000815260206004820152601e60248201527f53797374656d4469637461746f723a20696e636f7272656374207374657000006044820152606401610788565b6065546066546040517ff2fde38b00000000000000000000000000000000000000000000000000000000815273ffffffffffffffffffffffffffffffffffffffff918216600482015291169063f2fde38b90602401600060405180830381600087803b15801561261457600080fd5b505af1158015612628573d6000803e3d6000fd5b5050606c546066546040517f13af403500000000000000000000000000000000000000000000000000000000815273ffffffffffffffffffffffffffffffffffffffff9182166004820152911692506313af40359150602401600060405180830381600087803b15801561269b57600080fd5b505af11580156126af573d6000803e3d6000fd5b5050606e546066546040517f8f28397000000000000000000000000000000000000000000000000000000000815273ffffffffffffffffffffffffffffffffffffffff918216600482015291169250638f2839709150602401611038565b612715612931565b607f54610100900460ff166003146127af576040517f08c379a000000000000000000000000000000000000000000000000000000000815260206004820152603860248201527f53797374656d4469637461746f723a2063616e206f6e6c79206578697431206260448201527f65666f72652073746570203320697320657865637574656400000000000000006064820152608401610788565b606554607f546040517f9b2ea4bd00000000000000000000000000000000000000000000000000000000815273ffffffffffffffffffffffffffffffffffffffff92831692639b2ea4bd926128149265010000000000909104909116906004016134e7565b600060405180830381600087803b15801561282e57600080fd5b505af1158015612842573d6000803e3d6000fd5b5050606554604080517f9b2ea4bd0000000000000000000000000000000000000000000000000000000081526004810191909152601160448201527f44544c5f534855544f46465f424c4f434b00000000000000000000000000000060648201526000602482015273ffffffffffffffffffffffffffffffffffffffff9091169250639b2ea4bd9150608401600060405180830381600087803b1580156128e857600080fd5b505af11580156128fc573d6000803e3d6000fd5b5050607f80547fffffffffffffffffffffffffffffffffffffffffffffffffffffff00ffffffff166401000000001790555050565b60335473ffffffffffffffffffffffffffffffffffffffff1633146114bf576040517f08c379a000000000000000000000000000000000000000000000000000000000815260206004820181905260248201527f4f776e61626c653a2063616c6c6572206973206e6f7420746865206f776e65726044820152606401610788565b600054610100900460ff16612a49576040517f08c379a000000000000000000000000000000000000000000000000000000000815260206004820152602b60248201527f496e697469616c697a61626c653a20636f6e7472616374206973206e6f74206960448201527f6e697469616c697a696e670000000000000000000000000000000000000000006064820152608401610788565b6114bf612ac8565b6033805473ffffffffffffffffffffffffffffffffffffffff8381167fffffffffffffffffffffffff0000000000000000000000000000000000000000831681179093556040519116919082907f8be0079c531659141344cd1fd0a4f28419497f9722a3daafe3b4186f6b6457e090600090a35050565b600054610100900460ff16612b5f576040517f08c379a000000000000000000000000000000000000000000000000000000000815260206004820152602b60248201527f496e697469616c697a61626c653a20636f6e7472616374206973206e6f74206960448201527f6e697469616c697a696e670000000000000000000000000000000000000000006064820152608401610788565b6114bf33612a51565b6080810181811067ffffffffffffffff82111715612baf577f4e487b7100000000000000000000000000000000000000000000000000000000600052604160045260246000fd5b60405250565b7fffffffffffffffffffffffffffffffffffffffffffffffffffffffffffffffe0601f830116810181811067ffffffffffffffff82111715612c20577f4e487b7100000000000000000000000000000000000000000000000000000000600052604160045260246000fd5b6040525050565b73ffffffffffffffffffffffffffffffffffffffff8116811461241257600080fd5b8035612c5481612c27565b919050565b600060e08284031215612c6b57600080fd5b60405160e0810181811067ffffffffffffffff82111715612cb5577f4e487b7100000000000000000000000000000000000000000000000000000000600052604160045260246000fd5b6040529050808235612cc681612c27565b81526020830135612cd681612c27565b6020820152612ce760408401612c49565b6040820152612cf860608401612c49565b6060820152612d0960808401612c49565b6080820152612d1a60a08401612c49565b60a0820152612d2b60c08401612c49565b60c08201525092915050565b6000610100808385031215612d4b57600080fd5b6040519081019067ffffffffffffffff82118183101715612d95577f4e487b7100000000000000000000000000000000000000000000000000000000600052604160045260246000fd5b81604052809250612da584612c49565b8152612db360208501612c49565b6020820152612dc460408501612c49565b6040820152612dd560608501612c49565b6060820152612de660808501612c49565b6080820152612df760a08501612c49565b60a0820152612e0860c08501612c49565b60c0820152612e1960e08501612c49565b60e0820152505092915050565b600060c08284031215612e3857600080fd5b60405160c0810167ffffffffffffffff8282108183111715612e83577f4e487b7100000000000000000000000000000000000000000000000000000000600052604160045260246000fd5b8160405282935084359150612e9782612c27565b818352602085013560208401526040850135604084015260608501356060840152608085013591508082168214612ecd57600080fd5b506080820152612edf60a08401612c49565b60a08201525092915050565b6000818303610320811215612eff57600080fd5b604051612f0b81612b68565b6080821215612f1957600080fd5b6040519150612f2782612b68565b8335612f3281612c27565b82526020840135612f4281612c27565b60208301526040840135612f5581612c27565b60408301526060840135612f6881612c27565b6060830152818152612f7d8560808601612c59565b6020820152612f90856101608601612d37565b6040820152612fa3856102608601612e26565b6060820152949350505050565b60006103208201905073ffffffffffffffffffffffffffffffffffffffff8087511683528060208801511660208401528060408801511660408401528060608801511660608401528086511660808401528060208701511660a08401528060408701511660c08401528060608701511660e0840152806080870151166101008401525060a085015161305b61012084018273ffffffffffffffffffffffffffffffffffffffff169052565b5060c085015173ffffffffffffffffffffffffffffffffffffffff811661014084015250835173ffffffffffffffffffffffffffffffffffffffff90811661016084015260208501518116610180840152604085015181166101a0840152606085015181166101c0840152608085015181166101e084015260a0850151811661020084015260c0850151811661022084015260e085015116610240830152825173ffffffffffffffffffffffffffffffffffffffff908116610260840152602084015161028084015260408401516102a084015260608401516102c0840152608084015167ffffffffffffffff166102e084015260a0840151166103008301525b95945050505050565b600080828403606081121561317957600080fd5b604081121561318757600080fd5b506040516040810181811067ffffffffffffffff821117156131d2577f4e487b7100000000000000000000000000000000000000000000000000000000600052604160045260246000fd5b6040908152843582526020808601359083015290925083013580151581146131f957600080fd5b809150509250929050565b60006020828403121561321657600080fd5b813561322181612c27565b9392505050565b60005b8381101561324357818101518382015260200161322b565b83811115613252576000848401525b50505050565b60008151808452613270816020860160208601613228565b601f017fffffffffffffffffffffffffffffffffffffffffffffffffffffffffffffffe0169290920160200192915050565b600073ffffffffffffffffffffffffffffffffffffffff80861683528085166020840152506060604083015261315c6060830184613258565b600060033d11156132f45760046000803e5060005160e01c5b90565b600060443d10156133055790565b6040517ffffffffffffffffffffffffffffffffffffffffffffffffffffffffffffffffc803d016004833e81513d67ffffffffffffffff816024840111818411171561335357505050505090565b828501915081518181111561336b5750505050505090565b843d87010160208285010111156133855750505050505090565b61339460208286010187612bb5565b509095945050505050565b600082516133b1818460208701613228565b9190910192915050565b7f53797374656d4469637461746f723a20756e6578706563746564206572726f7281527f20696e697469616c697a696e67204c3158444d3a200000000000000000000000602082015260008251613419816035850160208701613228565b9190910160350192915050565b6020815260006132216020830184613258565b7f4e487b7100000000000000000000000000000000000000000000000000000000600052601160045260246000fd5b600060ff821660ff810361347e5761347e613439565b60010192915050565b6020815260006134c460208301601a81527f4f564d5f4c3143726f7373446f6d61696e4d657373656e676572000000000000602082015260400190565b92915050565b6000602082840312156134dc57600080fd5b815161322181612c27565b60408152600061352460408301601a81527f4f564d5f4c3143726f7373446f6d61696e4d657373656e676572000000000000602082015260400190565b905073ffffffffffffffffffffffffffffffffffffffff8316602083015292915050565b73ffffffffffffffffffffffffffffffffffffffff83168152604081016003831061359c577f4e487b7100000000000000000000000000000000000000000000000000000000600052602160045260246000fd5b8260208301529392505050565b73ffffffffffffffffffffffffffffffffffffffff8216815260406020820152600061322160408301601a81527f4f564d5f4c3143726f7373446f6d61696e4d657373656e676572000000000000602082015260400190565b7f4e487b7100000000000000000000000000000000000000000000000000000000600052603260045260246000fd5b6040815260006136446040830185613258565b905073ffffffffffffffffffffffffffffffffffffffff831660208301529392505050565b60007fffffffffffffffffffffffffffffffffffffffffffffffffffffffffffffffff820361369a5761369a613439565b506001019056fe4f564d5f4465636f6d7072657373696f6e507265636f6d70696c65416464726573734f564d5f436861696e53746f72616765436f6e7461696e65722d4354432d626174636865734f564d5f436861696e53746f72616765436f6e7461696e65722d4354432d7175657565a164736f6c634300080f000a",
    "linkReferences": {}
  },
  "methodIdentifiers": {
    "EXIT_1_NO_RETURN_STEP()": "289c6af7",
    "MantlePortalDynamicConfig()": "719a99d1",
    "PROXY_TRANSFER_STEP()": "7d1d95a6",
    "config()": "79502c55",
    "currentStep()": "5bc34f71",
    "dynamicConfigSet()": "89cb7343",
    "exit1()": "fe6b1ddf",
    "exited()": "5ce6c327",
    "finalize()": "4bb278f3",
    "finalized()": "b3f05b97",
    "initialize(((address,address,address,address),(address,address,address,address,address,address,address),(address,address,address,address,address,address,address,address),(address,uint256,uint256,bytes32,uint64,address)))": "6c4a5b1e",
    "l2OutputOracleDynamicConfig()": "204c881c",
    "oldL1CrossDomainMessenger()": "cf03c22d",
    "owner()": "8da5cb5b",
    "renounceOwnership()": "715018a6",
    "step1()": "d40a71fb",
    "step2()": "8f4ed333",
    "step3()": "df4ec249",
    "step4()": "fb5d7376",
    "step5()": "4fb4bcec",
    "transferOwnership(address)": "f2fde38b",
    "updateDynamicConfig((uint256,uint256),bool)": "d36ec430"
  },
  "storageLayout": {
    "storage": [
      {
        "astId": 45590,
        "contract": "contracts/deployment/SystemDictator.sol:SystemDictator",
        "label": "_initialized",
        "offset": 0,
        "slot": "0",
        "type": "t_uint8"
      },
      {
        "astId": 45593,
        "contract": "contracts/deployment/SystemDictator.sol:SystemDictator",
        "label": "_initializing",
        "offset": 1,
        "slot": "0",
        "type": "t_bool"
      },
      {
        "astId": 46018,
        "contract": "contracts/deployment/SystemDictator.sol:SystemDictator",
        "label": "__gap",
        "offset": 0,
        "slot": "1",
        "type": "t_array(t_uint256)50_storage"
      },
      {
        "astId": 45462,
        "contract": "contracts/deployment/SystemDictator.sol:SystemDictator",
        "label": "_owner",
        "offset": 0,
        "slot": "51",
        "type": "t_address"
      },
      {
        "astId": 45582,
        "contract": "contracts/deployment/SystemDictator.sol:SystemDictator",
        "label": "__gap",
        "offset": 0,
        "slot": "52",
        "type": "t_array(t_uint256)49_storage"
      },
      {
        "astId": 4079,
        "contract": "contracts/deployment/SystemDictator.sol:SystemDictator",
        "label": "config",
        "offset": 0,
        "slot": "101",
        "type": "t_struct(DeployConfig)4067_storage"
      },
      {
        "astId": 4083,
        "contract": "contracts/deployment/SystemDictator.sol:SystemDictator",
        "label": "l2OutputOracleDynamicConfig",
        "offset": 0,
        "slot": "125",
        "type": "t_struct(L2OutputOracleDynamicConfig)4041_storage"
      },
      {
        "astId": 4086,
        "contract": "contracts/deployment/SystemDictator.sol:SystemDictator",
        "label": "MantlePortalDynamicConfig",
        "offset": 0,
        "slot": "127",
        "type": "t_bool"
      },
      {
        "astId": 4089,
        "contract": "contracts/deployment/SystemDictator.sol:SystemDictator",
        "label": "currentStep",
        "offset": 1,
        "slot": "127",
        "type": "t_uint8"
      },
      {
        "astId": 4092,
        "contract": "contracts/deployment/SystemDictator.sol:SystemDictator",
        "label": "dynamicConfigSet",
        "offset": 2,
        "slot": "127",
        "type": "t_bool"
      },
      {
        "astId": 4095,
        "contract": "contracts/deployment/SystemDictator.sol:SystemDictator",
        "label": "finalized",
        "offset": 3,
        "slot": "127",
        "type": "t_bool"
      },
      {
        "astId": 4098,
        "contract": "contracts/deployment/SystemDictator.sol:SystemDictator",
        "label": "exited",
        "offset": 4,
        "slot": "127",
        "type": "t_bool"
      },
      {
        "astId": 4101,
        "contract": "contracts/deployment/SystemDictator.sol:SystemDictator",
        "label": "oldL1CrossDomainMessenger",
        "offset": 5,
        "slot": "127",
        "type": "t_address"
      }
    ],
    "types": {
      "t_address": {
        "encoding": "inplace",
        "label": "address",
        "numberOfBytes": "20"
      },
      "t_array(t_uint256)49_storage": {
        "encoding": "inplace",
        "label": "uint256[49]",
        "numberOfBytes": "1568",
        "base": "t_uint256"
      },
      "t_array(t_uint256)50_storage": {
        "encoding": "inplace",
        "label": "uint256[50]",
        "numberOfBytes": "1600",
        "base": "t_uint256"
      },
      "t_bool": {
        "encoding": "inplace",
        "label": "bool",
        "numberOfBytes": "1"
      },
      "t_bytes32": {
        "encoding": "inplace",
        "label": "bytes32",
        "numberOfBytes": "32"
      },
      "t_contract(AddressManager)6115": {
        "encoding": "inplace",
        "label": "contract AddressManager",
        "numberOfBytes": "20"
      },
      "t_contract(L1CrossDomainMessenger)125": {
        "encoding": "inplace",
        "label": "contract L1CrossDomainMessenger",
        "numberOfBytes": "20"
      },
      "t_contract(L1ERC721Bridge)325": {
        "encoding": "inplace",
        "label": "contract L1ERC721Bridge",
        "numberOfBytes": "20"
      },
      "t_contract(L1StandardBridge)772": {
        "encoding": "inplace",
        "label": "contract L1StandardBridge",
        "numberOfBytes": "20"
      },
      "t_contract(L2OutputOracle)1233": {
        "encoding": "inplace",
        "label": "contract L2OutputOracle",
        "numberOfBytes": "20"
      },
      "t_contract(MantleMintableERC20Factory)43563": {
        "encoding": "inplace",
        "label": "contract MantleMintableERC20Factory",
        "numberOfBytes": "20"
      },
      "t_contract(MantlePortal)1874": {
        "encoding": "inplace",
        "label": "contract MantlePortal",
        "numberOfBytes": "20"
      },
      "t_contract(PortalSender)3954": {
        "encoding": "inplace",
        "label": "contract PortalSender",
        "numberOfBytes": "20"
      },
      "t_contract(ProxyAdmin)44624": {
        "encoding": "inplace",
        "label": "contract ProxyAdmin",
        "numberOfBytes": "20"
      },
      "t_contract(SystemConfig)2436": {
        "encoding": "inplace",
        "label": "contract SystemConfig",
        "numberOfBytes": "20"
      },
      "t_struct(DeployConfig)4067_storage": {
        "encoding": "inplace",
        "label": "struct SystemDictator.DeployConfig",
        "numberOfBytes": "768",
        "members": [
          {
            "astId": 4057,
            "contract": "contracts/deployment/SystemDictator.sol:SystemDictator",
            "label": "globalConfig",
            "offset": 0,
            "slot": "0",
            "type": "t_struct(GlobalConfig)3996_storage"
          },
          {
            "astId": 4060,
            "contract": "contracts/deployment/SystemDictator.sol:SystemDictator",
            "label": "proxyAddressConfig",
            "offset": 0,
            "slot": "4",
            "type": "t_struct(ProxyAddressConfig)4011_storage"
          },
          {
            "astId": 4063,
            "contract": "contracts/deployment/SystemDictator.sol:SystemDictator",
            "label": "implementationAddressConfig",
            "offset": 0,
            "slot": "11",
            "type": "t_struct(ImplementationAddressConfig)4036_storage"
          },
          {
            "astId": 4066,
            "contract": "contracts/deployment/SystemDictator.sol:SystemDictator",
            "label": "systemConfigConfig",
            "offset": 0,
            "slot": "19",
            "type": "t_struct(SystemConfigConfig)4054_storage"
          }
        ]
      },
      "t_struct(GlobalConfig)3996_storage": {
        "encoding": "inplace",
        "label": "struct SystemDictator.GlobalConfig",
        "numberOfBytes": "128",
        "members": [
          {
            "astId": 3988,
            "contract": "contracts/deployment/SystemDictator.sol:SystemDictator",
            "label": "addressManager",
            "offset": 0,
            "slot": "0",
            "type": "t_contract(AddressManager)6115"
          },
          {
            "astId": 3991,
            "contract": "contracts/deployment/SystemDictator.sol:SystemDictator",
            "label": "proxyAdmin",
            "offset": 0,
            "slot": "1",
            "type": "t_contract(ProxyAdmin)44624"
          },
          {
            "astId": 3993,
            "contract": "contracts/deployment/SystemDictator.sol:SystemDictator",
            "label": "controller",
            "offset": 0,
            "slot": "2",
            "type": "t_address"
          },
          {
            "astId": 3995,
            "contract": "contracts/deployment/SystemDictator.sol:SystemDictator",
            "label": "finalOwner",
            "offset": 0,
            "slot": "3",
            "type": "t_address"
          }
        ]
      },
      "t_struct(ImplementationAddressConfig)4036_storage": {
        "encoding": "inplace",
        "label": "struct SystemDictator.ImplementationAddressConfig",
        "numberOfBytes": "256",
        "members": [
          {
            "astId": 4014,
            "contract": "contracts/deployment/SystemDictator.sol:SystemDictator",
            "label": "l2OutputOracleImpl",
            "offset": 0,
            "slot": "0",
            "type": "t_contract(L2OutputOracle)1233"
          },
          {
            "astId": 4017,
            "contract": "contracts/deployment/SystemDictator.sol:SystemDictator",
            "label": "MantlePortalImpl",
            "offset": 0,
            "slot": "1",
            "type": "t_contract(MantlePortal)1874"
          },
          {
            "astId": 4020,
            "contract": "contracts/deployment/SystemDictator.sol:SystemDictator",
            "label": "l1CrossDomainMessengerImpl",
            "offset": 0,
            "slot": "2",
            "type": "t_contract(L1CrossDomainMessenger)125"
          },
          {
            "astId": 4023,
            "contract": "contracts/deployment/SystemDictator.sol:SystemDictator",
            "label": "l1StandardBridgeImpl",
            "offset": 0,
            "slot": "3",
            "type": "t_contract(L1StandardBridge)772"
          },
          {
            "astId": 4026,
            "contract": "contracts/deployment/SystemDictator.sol:SystemDictator",
            "label": "MantleMintableERC20FactoryImpl",
            "offset": 0,
            "slot": "4",
            "type": "t_contract(MantleMintableERC20Factory)43563"
          },
          {
            "astId": 4029,
            "contract": "contracts/deployment/SystemDictator.sol:SystemDictator",
            "label": "l1ERC721BridgeImpl",
            "offset": 0,
            "slot": "5",
            "type": "t_contract(L1ERC721Bridge)325"
          },
          {
            "astId": 4032,
            "contract": "contracts/deployment/SystemDictator.sol:SystemDictator",
            "label": "portalSenderImpl",
            "offset": 0,
            "slot": "6",
            "type": "t_contract(PortalSender)3954"
          },
          {
            "astId": 4035,
            "contract": "contracts/deployment/SystemDictator.sol:SystemDictator",
            "label": "systemConfigImpl",
            "offset": 0,
            "slot": "7",
            "type": "t_contract(SystemConfig)2436"
          }
        ]
      },
      "t_struct(L2OutputOracleDynamicConfig)4041_storage": {
        "encoding": "inplace",
        "label": "struct SystemDictator.L2OutputOracleDynamicConfig",
        "numberOfBytes": "64",
        "members": [
          {
            "astId": 4038,
            "contract": "contracts/deployment/SystemDictator.sol:SystemDictator",
            "label": "l2OutputOracleStartingBlockNumber",
            "offset": 0,
            "slot": "0",
            "type": "t_uint256"
          },
          {
            "astId": 4040,
            "contract": "contracts/deployment/SystemDictator.sol:SystemDictator",
            "label": "l2OutputOracleStartingTimestamp",
            "offset": 0,
            "slot": "1",
            "type": "t_uint256"
          }
        ]
      },
      "t_struct(ProxyAddressConfig)4011_storage": {
        "encoding": "inplace",
        "label": "struct SystemDictator.ProxyAddressConfig",
        "numberOfBytes": "224",
        "members": [
          {
            "astId": 3998,
            "contract": "contracts/deployment/SystemDictator.sol:SystemDictator",
            "label": "l2OutputOracleProxy",
            "offset": 0,
            "slot": "0",
            "type": "t_address"
          },
          {
            "astId": 4000,
            "contract": "contracts/deployment/SystemDictator.sol:SystemDictator",
            "label": "MantlePortalProxy",
            "offset": 0,
            "slot": "1",
            "type": "t_address"
          },
          {
            "astId": 4002,
            "contract": "contracts/deployment/SystemDictator.sol:SystemDictator",
            "label": "l1CrossDomainMessengerProxy",
            "offset": 0,
            "slot": "2",
            "type": "t_address"
          },
          {
            "astId": 4004,
            "contract": "contracts/deployment/SystemDictator.sol:SystemDictator",
            "label": "l1StandardBridgeProxy",
            "offset": 0,
            "slot": "3",
            "type": "t_address"
          },
          {
            "astId": 4006,
            "contract": "contracts/deployment/SystemDictator.sol:SystemDictator",
            "label": "MantleMintableERC20FactoryProxy",
            "offset": 0,
            "slot": "4",
            "type": "t_address"
          },
          {
            "astId": 4008,
            "contract": "contracts/deployment/SystemDictator.sol:SystemDictator",
            "label": "l1ERC721BridgeProxy",
            "offset": 0,
            "slot": "5",
            "type": "t_address"
          },
          {
            "astId": 4010,
            "contract": "contracts/deployment/SystemDictator.sol:SystemDictator",
            "label": "systemConfigProxy",
            "offset": 0,
            "slot": "6",
            "type": "t_address"
          }
        ]
      },
      "t_struct(SystemConfigConfig)4054_storage": {
        "encoding": "inplace",
        "label": "struct SystemDictator.SystemConfigConfig",
        "numberOfBytes": "160",
        "members": [
          {
            "astId": 4043,
            "contract": "contracts/deployment/SystemDictator.sol:SystemDictator",
            "label": "owner",
            "offset": 0,
            "slot": "0",
            "type": "t_address"
          },
          {
            "astId": 4045,
            "contract": "contracts/deployment/SystemDictator.sol:SystemDictator",
            "label": "overhead",
            "offset": 0,
            "slot": "1",
            "type": "t_uint256"
          },
          {
            "astId": 4047,
            "contract": "contracts/deployment/SystemDictator.sol:SystemDictator",
            "label": "scalar",
            "offset": 0,
            "slot": "2",
            "type": "t_uint256"
          },
          {
            "astId": 4049,
            "contract": "contracts/deployment/SystemDictator.sol:SystemDictator",
            "label": "batcherHash",
            "offset": 0,
            "slot": "3",
            "type": "t_bytes32"
          },
          {
            "astId": 4051,
            "contract": "contracts/deployment/SystemDictator.sol:SystemDictator",
            "label": "gasLimit",
            "offset": 0,
            "slot": "4",
            "type": "t_uint64"
          },
          {
            "astId": 4053,
            "contract": "contracts/deployment/SystemDictator.sol:SystemDictator",
            "label": "unsafeBlockSigner",
            "offset": 8,
            "slot": "4",
            "type": "t_address"
          }
        ]
      },
      "t_uint256": {
        "encoding": "inplace",
        "label": "uint256",
        "numberOfBytes": "32"
      },
      "t_uint64": {
        "encoding": "inplace",
        "label": "uint64",
        "numberOfBytes": "8"
      },
      "t_uint8": {
        "encoding": "inplace",
        "label": "uint8",
        "numberOfBytes": "1"
      }
    }
  },
  "userdoc": {
    "version": 1,
    "kind": "user",
    "methods": {
      "EXIT_1_NO_RETURN_STEP()": {
        "notice": "Step after which exit 1 can no longer be used."
      },
      "MantlePortalDynamicConfig()": {
        "notice": "Dynamic configuration for the MantlePortal. Determines         if the system should be paused when initialized."
      },
      "PROXY_TRANSFER_STEP()": {
        "notice": "Step where proxy ownership is transferred."
      },
      "config()": {
        "notice": "System configuration."
      },
      "currentStep()": {
        "notice": "Current step;"
      },
      "dynamicConfigSet()": {
        "notice": "Whether or not dynamic config has been set."
      },
      "exit1()": {
        "notice": "First exit point, can only be called before step 3 is executed."
      },
      "exited()": {
        "notice": "Whether or not the deployment has been exited."
      },
      "finalize()": {
        "notice": "Tranfers admin ownership to the final owner."
      },
      "finalized()": {
        "notice": "Whether or not the deployment is finalized."
      },
      "l2OutputOracleDynamicConfig()": {
        "notice": "Dynamic configuration for the L2OutputOracle."
      },
      "oldL1CrossDomainMessenger()": {
        "notice": "Address of the old L1CrossDomainMessenger implementation."
      },
      "step1()": {
        "notice": "Configures the ProxyAdmin contract."
      },
      "step2()": {
        "notice": "Pauses the system by shutting down the L1CrossDomainMessenger and setting the         deposit halt flag to tell the Sequencer's DTL to stop accepting deposits."
      },
      "step3()": {
        "notice": "Removes deprecated addresses from the AddressManager."
      },
      "step4()": {
        "notice": "Transfers system ownership to the ProxyAdmin."
      },
      "step5()": {
        "notice": "Upgrades and initializes proxy contracts."
      },
      "updateDynamicConfig((uint256,uint256),bool)": {
        "notice": "Allows the owner to update dynamic config."
      }
    },
    "notice": "The SystemDictator is responsible for coordinating the deployment of a full Bedrock         system. The SystemDictator is designed to support both fresh network deployments and         upgrades to existing pre-Bedrock systems."
  },
  "devdoc": {
    "version": 1,
    "kind": "dev",
    "methods": {
      "initialize(((address,address,address,address),(address,address,address,address,address,address,address),(address,address,address,address,address,address,address,address),(address,uint256,uint256,bytes32,uint64,address)))": {
        "params": {
          "_config": "System configuration."
        }
      },
      "owner()": {
        "details": "Returns the address of the current owner."
      },
      "renounceOwnership()": {
        "details": "Leaves the contract without owner. It will not be possible to call `onlyOwner` functions anymore. Can only be called by the current owner. NOTE: Renouncing ownership will leave the contract without an owner, thereby removing any functionality that is only available to the owner."
      },
      "transferOwnership(address)": {
        "details": "Transfers ownership of the contract to a new account (`newOwner`). Can only be called by the current owner."
      },
      "updateDynamicConfig((uint256,uint256),bool)": {
        "params": {
          "_MantlePortalDynamicConfig": "Dynamic MantlePortal config.",
          "_l2OutputOracleDynamicConfig": "Dynamic L2OutputOracle config."
        }
      }
    },
    "title": "SystemDictator"
  },
  "id": 20
}