{
  "_format": "hh-sol-artifact-1",
  "contractName": "Rollup",
  "sourceName": "contracts/L1/fraud-proof/Rollup.sol",
  "abi": [
    {
      "inputs": [],
      "stateMutability": "nonpayable",
      "type": "constructor"
    },
    {
      "inputs": [],
      "name": "AssertionAlreadyResolved",
      "type": "error"
    },
    {
      "inputs": [],
      "name": "AssertionOutOfRange",
      "type": "error"
    },
    {
      "inputs": [],
      "name": "ChallengePeriodPending",
      "type": "error"
    },
    {
      "inputs": [],
      "name": "ChallengedStaker",
      "type": "error"
    },
    {
      "inputs": [],
      "name": "DifferentParent",
      "type": "error"
    },
    {
      "inputs": [],
      "name": "EmptyAssertion",
      "type": "error"
    },
    {
      "inputs": [
        {
          "internalType": "address",
          "name": "staker1Challenge",
          "type": "address"
        },
        {
          "internalType": "address",
          "name": "staker2Challenge",
          "type": "address"
        }
      ],
      "name": "InDifferentChallenge",
      "type": "error"
    },
    {
      "inputs": [],
      "name": "InboxReadLimitExceeded",
      "type": "error"
    },
    {
      "inputs": [],
      "name": "InsufficientStake",
      "type": "error"
    },
    {
      "inputs": [],
      "name": "InvalidParent",
      "type": "error"
    },
    {
      "inputs": [],
      "name": "MinimumAssertionPeriodNotPassed",
      "type": "error"
    },
    {
      "inputs": [],
      "name": "NoStaker",
      "type": "error"
    },
    {
      "inputs": [],
      "name": "NoUnresolvedAssertion",
      "type": "error"
    },
    {
      "inputs": [],
      "name": "NotAllStaked",
      "type": "error"
    },
    {
      "inputs": [],
      "name": "NotInChallenge",
      "type": "error"
    },
    {
      "inputs": [],
      "name": "NotStaked",
      "type": "error"
    },
    {
      "inputs": [],
      "name": "ParentAssertionUnstaked",
      "type": "error"
    },
    {
      "inputs": [],
      "name": "PreviousStateHash",
      "type": "error"
    },
    {
      "inputs": [],
      "name": "RedundantInitialized",
      "type": "error"
    },
    {
      "inputs": [],
      "name": "StakedOnUnconfirmedAssertion",
      "type": "error"
    },
    {
      "inputs": [],
      "name": "StakerStakedOnTarget",
      "type": "error"
    },
    {
      "inputs": [],
      "name": "StakersPresent",
      "type": "error"
    },
    {
      "inputs": [],
      "name": "TransferFailed",
      "type": "error"
    },
    {
      "inputs": [],
      "name": "UnproposedAssertion",
      "type": "error"
    },
    {
      "inputs": [],
      "name": "WrongOrder",
      "type": "error"
    },
    {
      "inputs": [],
      "name": "ZeroAddress",
      "type": "error"
    },
    {
      "anonymous": false,
      "inputs": [
        {
          "indexed": false,
          "internalType": "uint256",
          "name": "assertionID",
          "type": "uint256"
        },
        {
          "indexed": false,
          "internalType": "address",
          "name": "challengeAddr",
          "type": "address"
        }
      ],
      "name": "AssertionChallenged",
      "type": "event"
    },
    {
      "anonymous": false,
      "inputs": [
        {
          "indexed": false,
          "internalType": "uint256",
          "name": "assertionID",
          "type": "uint256"
        }
      ],
      "name": "AssertionConfirmed",
      "type": "event"
    },
    {
      "anonymous": false,
      "inputs": [
        {
          "indexed": false,
          "internalType": "uint256",
          "name": "assertionID",
          "type": "uint256"
        },
        {
          "indexed": false,
          "internalType": "address",
          "name": "asserterAddr",
          "type": "address"
        },
        {
          "indexed": false,
          "internalType": "bytes32",
          "name": "vmHash",
          "type": "bytes32"
        },
        {
          "indexed": false,
          "internalType": "uint256",
          "name": "inboxSize",
          "type": "uint256"
        }
      ],
      "name": "AssertionCreated",
      "type": "event"
    },
    {
      "anonymous": false,
      "inputs": [
        {
          "indexed": false,
          "internalType": "uint256",
          "name": "assertionID",
          "type": "uint256"
        }
      ],
      "name": "AssertionRejected",
      "type": "event"
    },
    {
      "anonymous": false,
      "inputs": [
        {
          "indexed": false,
          "internalType": "uint8",
          "name": "version",
          "type": "uint8"
        }
      ],
      "name": "Initialized",
      "type": "event"
    },
    {
      "anonymous": false,
      "inputs": [
        {
          "indexed": true,
          "internalType": "address",
          "name": "previousOwner",
          "type": "address"
        },
        {
          "indexed": true,
          "internalType": "address",
          "name": "newOwner",
          "type": "address"
        }
      ],
      "name": "OwnershipTransferred",
      "type": "event"
    },
    {
      "anonymous": false,
      "inputs": [
        {
          "indexed": false,
          "internalType": "address",
          "name": "stakerAddr",
          "type": "address"
        },
        {
          "indexed": false,
          "internalType": "uint256",
          "name": "assertionID",
          "type": "uint256"
        }
      ],
      "name": "StakerStaked",
      "type": "event"
    },
    {
      "inputs": [
        {
          "internalType": "address[]",
          "name": "toAddAddresses",
          "type": "address[]"
        }
      ],
      "name": "addToOperatorWhitelist",
      "outputs": [],
      "stateMutability": "nonpayable",
      "type": "function"
    },
    {
      "inputs": [
        {
          "internalType": "address[]",
          "name": "toAddAddresses",
          "type": "address[]"
        }
      ],
      "name": "addToStakerWhitelist",
      "outputs": [],
      "stateMutability": "nonpayable",
      "type": "function"
    },
    {
      "inputs": [
        {
          "internalType": "uint256",
          "name": "assertionID",
          "type": "uint256"
        }
      ],
      "name": "advanceStake",
      "outputs": [],
      "stateMutability": "nonpayable",
      "type": "function"
    },
    {
      "inputs": [],
      "name": "assertions",
      "outputs": [
        {
          "internalType": "contract AssertionMap",
          "name": "",
          "type": "address"
        }
      ],
      "stateMutability": "view",
      "type": "function"
    },
    {
      "inputs": [],
      "name": "baseStakeAmount",
      "outputs": [
        {
          "internalType": "uint256",
          "name": "",
          "type": "uint256"
        }
      ],
      "stateMutability": "view",
      "type": "function"
    },
    {
      "inputs": [
        {
          "internalType": "address[2]",
          "name": "players",
          "type": "address[2]"
        },
        {
          "internalType": "uint256[2]",
          "name": "assertionIDs",
          "type": "uint256[2]"
        }
      ],
      "name": "challengeAssertion",
      "outputs": [
        {
          "internalType": "address",
          "name": "",
          "type": "address"
        }
      ],
      "stateMutability": "nonpayable",
      "type": "function"
    },
    {
      "inputs": [],
      "name": "challengeCtx",
      "outputs": [
        {
          "internalType": "bool",
          "name": "completed",
          "type": "bool"
        },
        {
          "internalType": "address",
          "name": "challengeAddress",
          "type": "address"
        },
        {
          "internalType": "address",
          "name": "defenderAddress",
          "type": "address"
        },
        {
          "internalType": "address",
          "name": "challengerAddress",
          "type": "address"
        },
        {
          "internalType": "uint256",
          "name": "defenderAssertionID",
          "type": "uint256"
        },
        {
          "internalType": "uint256",
          "name": "challengerAssertionID",
          "type": "uint256"
        }
      ],
      "stateMutability": "view",
      "type": "function"
    },
    {
      "inputs": [
        {
          "internalType": "address",
          "name": "winner",
          "type": "address"
        },
        {
          "internalType": "address",
          "name": "loser",
          "type": "address"
        }
      ],
      "name": "completeChallenge",
      "outputs": [],
      "stateMutability": "nonpayable",
      "type": "function"
    },
    {
      "inputs": [],
      "name": "confirmFirstUnresolvedAssertion",
      "outputs": [],
      "stateMutability": "nonpayable",
      "type": "function"
    },
    {
      "inputs": [],
      "name": "confirmedInboxSize",
      "outputs": [
        {
          "internalType": "uint256",
          "name": "",
          "type": "uint256"
        }
      ],
      "stateMutability": "view",
      "type": "function"
    },
    {
      "inputs": [
        {
          "internalType": "bytes32",
          "name": "vmHash",
          "type": "bytes32"
        },
        {
          "internalType": "uint256",
          "name": "inboxSize",
          "type": "uint256"
        }
      ],
      "name": "createAssertion",
      "outputs": [],
      "stateMutability": "nonpayable",
      "type": "function"
    },
    {
      "inputs": [
        {
          "internalType": "bytes32",
          "name": "vmHash",
          "type": "bytes32"
        },
        {
          "internalType": "uint256",
          "name": "inboxSize",
          "type": "uint256"
        },
        {
          "internalType": "bytes32[]",
          "name": "_batch",
          "type": "bytes32[]"
        },
        {
          "internalType": "uint256",
          "name": "_shouldStartAtElement",
          "type": "uint256"
        },
        {
          "internalType": "bytes",
          "name": "_signature",
          "type": "bytes"
        }
      ],
      "name": "createAssertionWithStateBatch",
      "outputs": [],
      "stateMutability": "nonpayable",
      "type": "function"
    },
    {
      "inputs": [],
      "name": "currentRequiredStake",
      "outputs": [
        {
          "internalType": "uint256",
          "name": "",
          "type": "uint256"
        }
      ],
      "stateMutability": "view",
      "type": "function"
    },
    {
      "inputs": [
        {
          "internalType": "address",
          "name": "_owner",
          "type": "address"
        },
        {
          "internalType": "address",
          "name": "_verifier",
          "type": "address"
        },
        {
          "internalType": "address",
          "name": "_stakeToken",
          "type": "address"
        },
        {
          "internalType": "address",
          "name": "_libAddressManager",
          "type": "address"
        },
        {
          "internalType": "address",
          "name": "_assertionMap",
          "type": "address"
        },
        {
          "internalType": "uint256",
          "name": "_minimumAssertionPeriod",
          "type": "uint256"
        },
        {
          "internalType": "uint256",
          "name": "_baseStakeAmount",
          "type": "uint256"
        },
        {
          "internalType": "bytes32",
          "name": "_initialVMhash",
          "type": "bytes32"
        },
        {
          "internalType": "address[]",
          "name": "stakerWhitelists",
          "type": "address[]"
        },
        {
          "internalType": "address[]",
          "name": "operatorWhitelists",
          "type": "address[]"
        }
      ],
      "name": "initialize",
      "outputs": [],
      "stateMutability": "nonpayable",
      "type": "function"
    },
    {
      "inputs": [
        {
          "internalType": "address",
          "name": "addr",
          "type": "address"
        }
      ],
      "name": "isStaked",
      "outputs": [
        {
          "internalType": "bool",
          "name": "",
          "type": "bool"
        }
      ],
      "stateMutability": "view",
      "type": "function"
    },
    {
      "inputs": [],
      "name": "lastConfirmedAssertionID",
      "outputs": [
        {
          "internalType": "uint256",
          "name": "",
          "type": "uint256"
        }
      ],
      "stateMutability": "view",
      "type": "function"
    },
    {
      "inputs": [],
      "name": "lastCreatedAssertionID",
      "outputs": [
        {
          "internalType": "uint256",
          "name": "",
          "type": "uint256"
        }
      ],
      "stateMutability": "view",
      "type": "function"
    },
    {
      "inputs": [],
      "name": "lastResolvedAssertionID",
      "outputs": [
        {
          "internalType": "uint256",
          "name": "",
          "type": "uint256"
        }
      ],
      "stateMutability": "view",
      "type": "function"
    },
    {
      "inputs": [],
      "name": "libAddressManager",
      "outputs": [
        {
          "internalType": "contract Lib_AddressManager",
          "name": "",
          "type": "address"
        }
      ],
      "stateMutability": "view",
      "type": "function"
    },
    {
      "inputs": [],
      "name": "minimumAssertionPeriod",
      "outputs": [
        {
          "internalType": "uint256",
          "name": "",
          "type": "uint256"
        }
      ],
      "stateMutability": "view",
      "type": "function"
    },
    {
      "inputs": [],
      "name": "numStakers",
      "outputs": [
        {
          "internalType": "uint256",
          "name": "",
          "type": "uint256"
        }
      ],
      "stateMutability": "view",
      "type": "function"
    },
    {
      "inputs": [
        {
          "internalType": "address",
          "name": "",
          "type": "address"
        }
      ],
      "name": "operatorWhitelist",
      "outputs": [
        {
          "internalType": "bool",
          "name": "",
          "type": "bool"
        }
      ],
      "stateMutability": "view",
      "type": "function"
    },
    {
      "inputs": [],
      "name": "owner",
      "outputs": [
        {
          "internalType": "address",
          "name": "",
          "type": "address"
        }
      ],
      "stateMutability": "view",
      "type": "function"
    },
    {
      "inputs": [
        {
          "internalType": "address",
          "name": "",
          "type": "address"
        }
      ],
      "name": "registers",
      "outputs": [
        {
          "internalType": "address",
          "name": "",
          "type": "address"
        }
      ],
      "stateMutability": "view",
      "type": "function"
    },
    {
      "inputs": [],
      "name": "rejectFirstUnresolvedAssertion",
      "outputs": [],
      "stateMutability": "nonpayable",
      "type": "function"
    },
    {
      "inputs": [
        {
          "internalType": "address[]",
          "name": "toRemoveAddresses",
          "type": "address[]"
        }
      ],
      "name": "removeFromOperatorWhitelist",
      "outputs": [],
      "stateMutability": "nonpayable",
      "type": "function"
    },
    {
      "inputs": [
        {
          "internalType": "address[]",
          "name": "toRemoveAddresses",
          "type": "address[]"
        }
      ],
      "name": "removeFromStakerWhitelist",
      "outputs": [],
      "stateMutability": "nonpayable",
      "type": "function"
    },
    {
      "inputs": [],
      "name": "removeOldZombies",
      "outputs": [],
      "stateMutability": "nonpayable",
      "type": "function"
    },
    {
      "inputs": [
        {
          "internalType": "address",
          "name": "stakerAddress",
          "type": "address"
        }
      ],
      "name": "removeStake",
      "outputs": [],
      "stateMutability": "nonpayable",
      "type": "function"
    },
    {
      "inputs": [
        {
          "internalType": "string",
          "name": "_name",
          "type": "string"
        }
      ],
      "name": "resolve",
      "outputs": [
        {
          "internalType": "address",
          "name": "",
          "type": "address"
        }
      ],
      "stateMutability": "view",
      "type": "function"
    },
    {
      "inputs": [
        {
          "internalType": "uint256",
          "name": "stakeAmount",
          "type": "uint256"
        },
        {
          "internalType": "address",
          "name": "operator",
          "type": "address"
        }
      ],
      "name": "stake",
      "outputs": [],
      "stateMutability": "nonpayable",
      "type": "function"
    },
    {
      "inputs": [],
      "name": "stakeToken",
      "outputs": [
        {
          "internalType": "contract IERC20",
          "name": "",
          "type": "address"
        }
      ],
      "stateMutability": "view",
      "type": "function"
    },
    {
      "inputs": [
        {
          "internalType": "address",
          "name": "",
          "type": "address"
        }
      ],
      "name": "stakerWhitelist",
      "outputs": [
        {
          "internalType": "bool",
          "name": "",
          "type": "bool"
        }
      ],
      "stateMutability": "view",
      "type": "function"
    },
    {
      "inputs": [
        {
          "internalType": "address",
          "name": "",
          "type": "address"
        }
      ],
      "name": "stakers",
      "outputs": [
        {
          "internalType": "bool",
          "name": "isStaked",
          "type": "bool"
        },
        {
          "internalType": "uint256",
          "name": "amountStaked",
          "type": "uint256"
        },
        {
          "internalType": "uint256",
          "name": "assertionID",
          "type": "uint256"
        },
        {
          "internalType": "address",
          "name": "operator",
          "type": "address"
        },
        {
          "internalType": "address",
          "name": "currentChallenge",
          "type": "address"
        }
      ],
      "stateMutability": "view",
      "type": "function"
    },
    {
      "inputs": [
        {
          "internalType": "address",
          "name": "newOwner",
          "type": "address"
        }
      ],
      "name": "transferOwnership",
      "outputs": [],
      "stateMutability": "nonpayable",
      "type": "function"
    },
    {
      "inputs": [
        {
          "internalType": "uint256",
          "name": "stakeAmount",
          "type": "uint256"
        }
      ],
      "name": "unstake",
      "outputs": [],
      "stateMutability": "nonpayable",
      "type": "function"
    },
    {
      "inputs": [],
      "name": "verifier",
      "outputs": [
        {
          "internalType": "contract IVerifierEntry",
          "name": "",
          "type": "address"
        }
      ],
      "stateMutability": "view",
      "type": "function"
    },
    {
      "inputs": [],
      "name": "withdraw",
      "outputs": [],
      "stateMutability": "nonpayable",
      "type": "function"
    },
    {
      "inputs": [
        {
          "internalType": "address",
          "name": "",
          "type": "address"
        }
      ],
      "name": "withdrawableFunds",
      "outputs": [
        {
          "internalType": "uint256",
          "name": "",
          "type": "uint256"
        }
      ],
      "stateMutability": "view",
      "type": "function"
    },
    {
      "inputs": [
        {
          "internalType": "uint256",
          "name": "",
          "type": "uint256"
        }
      ],
      "name": "zombies",
      "outputs": [
        {
          "internalType": "address",
          "name": "stakerAddress",
          "type": "address"
        },
        {
          "internalType": "uint256",
          "name": "lastAssertionID",
          "type": "uint256"
        }
      ],
      "stateMutability": "view",
      "type": "function"
    }
  ],
  "bytecode": "0x60806040523480156200001157600080fd5b50600080546001600160a01b03191690556200002c62000032565b62000101565b600054600160a81b900460ff1615620000a15760405162461bcd60e51b815260206004820152602760248201527f496e697469616c697a61626c653a20636f6e747261637420697320696e697469604482015266616c697a696e6760c81b606482015260840160405180910390fd5b60005460ff600160a01b90910481161015620000ff576000805460ff60a01b191660ff60a01b17905560405160ff81527f7f26b83ff96e1f2b6a682f133852f6798a09c465da95921460cefb38474024989060200160405180910390a15b565b614fc880620001116000396000f3fe608060405234801561001057600080fd5b50600436106102485760003560e01c80636aabc3501161013b578063aca9a518116100b8578063c97a59191161007c578063c97a5919146105df578063e03c8632146105f2578063f2fde38b14610615578063fa7803e614610628578063fe2ba8481461063b57600080fd5b8063aca9a51814610595578063b553ee84146105a8578063b6da898f146105b1578063c8525c3e146105c4578063c94b5847146105d757600080fd5b80638c669739116100ff5780638c669739146104db5780638da5cb5b146104e35780639168ae72146104f65780639efbea2314610579578063a56ba93b1461058c57600080fd5b80636aabc3501461047a5780636c8b052a146104a357806371129559146104ac5780637acb7757146104b55780638821b2ae146104c857600080fd5b806330b26075116101c957806349cd30041161018d57806349cd30041461040d5780634d26732d1461042057806351ed6a30146104285780636177fd181461043b5780636a3685611461046757600080fd5b806330b26075146103ce5780633ccfd60b146103d657806340d9224b146103de57806345e38b64146103f1578063461a4478146103fa57600080fd5b80632b7ac3f3116102105780632b7ac3f3146103425780632e17de78146103555780632f06d1b0146103685780632f30cabd1461037b578063300a71611461039b57600080fd5b80630e456acf1461024d578063107035a4146102c45780632052465e146102db5780632906040e1461030d578063299ca47814610317575b600080fd5b6011546012546013546014546015546102809460ff8116946001600160a01b036101009092048216949082169391169186565b6040805196151587526001600160a01b0395861660208801529385169386019390935292166060840152608083019190915260a082015260c0015b60405180910390f35b6102cd600b5481565b6040519081526020016102bb565b6102ee6102e9366004613018565b61064e565b604080516001600160a01b0390931683526020830191909152016102bb565b610315610686565b005b60005461032a906001600160a01b031681565b6040516001600160a01b0390911681526020016102bb565b60055461032a906001600160a01b031681565b610315610363366004613018565b6108fd565b61032a610376366004613042565b610aae565b6102cd61038936600461309c565b600f6020526000908152604090205481565b6103be6103a936600461309c565b60076020526000908152604090205460ff1681565b60405190151581526020016102bb565b610315611081565b610315611398565b60045461032a906001600160a01b031681565b6102cd60015481565b61032a6104083660046130d6565b611434565b61031561041b3660046131d3565b6114b5565b6002546102cd565b60035461032a906001600160a01b031681565b6103be61044936600461309c565b6001600160a01b03166000908152600d602052604090205460ff1690565b61031561047536600461328d565b6116e2565b61032a61048836600461309c565b600e602052600090815260409020546001600160a01b031681565b6102cd600c5481565b6102cd60025481565b6103156104c33660046132cf565b611783565b6103156104d6366004613018565b611af7565b610315611c81565b60065461032a906001600160a01b031681565b61054361050436600461309c565b600d602052600090815260409020805460018201546002830154600384015460049094015460ff90931693919290916001600160a01b03908116911685565b6040805195151586526020860194909452928401919091526001600160a01b03908116606084015216608082015260a0016102bb565b61031561058736600461328d565b611cc4565b6102cd600a5481565b6103156105a336600461328d565b611d57565b6102cd60095481565b6103156105bf3660046132ff565b611dea565b6103156105d236600461328d565b612155565b6102cd6121f1565b6103156105ed366004613321565b612276565b6103be61060036600461309c565b60086020526000908152604090205460ff1681565b61031561062336600461309c565b612730565b61031561063636600461340f565b6127cb565b61031561064936600461309c565b6129ea565b6010818154811061065e57600080fd5b6000918252602090912060029091020180546001909101546001600160a01b03909116915082565b600b54600954106106d65760405162461bcd60e51b81526020600482015260156024820152742737aab73932b9b7b63b32b220b9b9b2b93a34b7b760591b60448201526064015b60405180910390fd5b6000600c54116107135760405162461bcd60e51b81526020600482015260086024820152672737a9ba30b5b2b960c11b60448201526064016106cd565b600060095460016107249190613453565b60048054604051638286227560e01b81529293506001600160a01b0316916382862275916107589185910190815260200190565b60206040518083038186803b15801561077057600080fd5b505afa158015610784573d6000803e3d6000fd5b505050506040513d601f19601f820116820180604052508101906107a8919061346b565b4210156107f05760405162461bcd60e51b81526020600482015260166024820152754368616c6c656e6765506572696f6450656e64696e6760501b60448201526064016106cd565b600a546004805460405163030b947760e41b81529182018490526001600160a01b0316906330b947709060240160206040518083038186803b15801561083557600080fd5b505afa158015610849573d6000803e3d6000fd5b505050506040513d601f19601f8201168201806040525081019061086d919061346b565b146108aa5760405162461bcd60e51b815260206004820152600d60248201526c125b9d985b1a5914185c995b9d609a1b60448201526064016106cd565b600980549060006108ba83613484565b9091555050600954600a8190556040519081527f453430d123684340024ae0a229704bdab39c93dc48bb5a0b4bc83142d95d48ef9060200160405180910390a150565b61090633612ad2565b336000908152600d60205260409020600a546002820154111561096b5760405162461bcd60e51b815260206004820152601c60248201527f5374616b65644f6e556e636f6e6669726d6564417373657274696f6e0000000060448201526064016106cd565b600254816001015461097d919061349f565b8211156109c05760405162461bcd60e51b8152602060048201526011602482015270496e73756666696369656e745374616b6560781b60448201526064016106cd565b818160010160008282546109d4919061349f565b909155505060035460405163a9059cbb60e01b8152336004820152602481018490526001600160a01b039091169063a9059cbb906044015b602060405180830381600087803b158015610a2657600080fd5b505af1158015610a3a573d6000803e3d6000fd5b505050506040513d601f19601f82011682018060405250810190610a5e91906134b6565b610aaa5760405162461bcd60e51b815260206004820152601b60248201527f7472616e7366657220657263323020746f6b656e206661696c6564000000000060448201526064016106cd565b5050565b600081356020830135808210610af35760405162461bcd60e51b815260206004820152600a6024820152692bb937b733a7b93232b960b11b60448201526064016106cd565b600b54811115610b3b5760405162461bcd60e51b81526020600482015260136024820152722ab7383937b837b9b2b220b9b9b2b93a34b7b760691b60448201526064016106cd565b81600a5410610b8c5760405162461bcd60e51b815260206004820152601860248201527f417373657274696f6e416c72656164795265736f6c766564000000000000000060448201526064016106cd565b6004805460405163030b947760e41b81529182018490526000916001600160a01b03909116906330b947709060240160206040518083038186803b158015610bd357600080fd5b505afa158015610be7573d6000803e3d6000fd5b505050506040513d601f19601f82011682018060405250810190610c0b919061346b565b6004805460405163030b947760e41b81529293506001600160a01b0316916330b9477091610c3f9186910190815260200190565b60206040518083038186803b158015610c5757600080fd5b505afa158015610c6b573d6000803e3d6000fd5b505050506040513d601f19601f82011682018060405250810190610c8f919061346b565b8114610ccf5760405162461bcd60e51b815260206004820152600f60248201526e111a5999995c995b9d14185c995b9d608a1b60448201526064016106cd565b6000610cde602088018861309c565b90506000610cf26040890160208a0161309c565b6001600160a01b038084166000908152600e602052604080822054838516835291205492935081169116610d2582612b26565b610d2e81612b26565b6000604051610d3c90612fc5565b604051809103906000f080158015610d58573d6000803e3d6000fd5b506001600160a01b038086166000818152600d60209081526040808320600490810180548789166001600160a01b03199182168117909255968d168086528386209092018054881682179055825160c08101845294855292840183905283820181905260608401859052608084018f905260a09093018d905260118054610100939093026001600160a81b0319909316929092179091556012805485169092179091556013805490931690911790915560148a905560158990555190915081907fd0ebe74b4f7d89a9b0fdc9d95f887a7b925c6c7300b5c4b2c3304d97925840fa90610e59908b9084909182526001600160a01b0316602082015260400190565b60405180910390a160048054604051632b27e93b60e01b81529182018990526000916001600160a01b0390911690632b27e93b9060240160206040518083038186803b158015610ea857600080fd5b505afa158015610ebc573d6000803e3d6000fd5b505050506040513d601f19601f82011682018060405250810190610ee0919061346b565b60048054604051632a411f3360e11b81529182018b90529192506000916001600160a01b0316906354823e669060240160206040518083038186803b158015610f2857600080fd5b505afa158015610f3c573d6000803e3d6000fd5b505050506040513d601f19601f82011682018060405250810190610f60919061346b565b60048054604051632a411f3360e11b81529182018e90529192506000916001600160a01b0316906354823e669060240160206040518083038186803b158015610fa857600080fd5b505afa158015610fbc573d6000803e3d6000fd5b505050506040513d601f19601f82011682018060405250810190610fe0919061346b565b60055460405163abf4801360e01b81526001600160a01b038c811660048301528b8116602483015291821660448201523060648201526084810186905260a4810185905260c4810183905291925086169063abf480139060e401600060405180830381600087803b15801561105457600080fd5b505af1158015611068573d6000803e3d6000fd5b50959e5050505050505050505050505050505b92915050565b600b54600954106110cc5760405162461bcd60e51b81526020600482015260156024820152742737aab73932b9b7b63b32b220b9b9b2b93a34b7b760591b60448201526064016106cd565b600060095460016110dd9190613453565b600a546004805460405163030b947760e41b815291820184905292935090916001600160a01b0316906330b947709060240160206040518083038186803b15801561112757600080fd5b505afa15801561113b573d6000803e3d6000fd5b505050506040513d601f19601f8201168201806040525081019061115f919061346b565b14156112e85760048054604051638286227560e01b81529182018390526001600160a01b03169063828622759060240160206040518083038186803b1580156111a757600080fd5b505afa1580156111bb573d6000803e3d6000fd5b505050506040513d601f19601f820116820180604052508101906111df919061346b565b4210156112275760405162461bcd60e51b81526020600482015260166024820152754368616c6c656e6765506572696f6450656e64696e6760501b60448201526064016106cd565b61123081612b8d565b6004805460405163366b2b6960e01b81529182018490526001600160a01b03169063366b2b699060240160206040518083038186803b15801561127257600080fd5b505afa158015611286573d6000803e3d6000fd5b505050506040513d601f19601f820116820180604052508101906112aa919061346b565b146112e85760405162461bcd60e51b815260206004820152600e60248201526d14dd185ad95c9cd41c995cd95b9d60921b60448201526064016106cd565b600980549060006112f883613484565b91905055507f5b24ab8ceb442373727ac5c559a027521cb52db451c74710ebed9faa5fe15a7c60095460405161133091815260200190565b60405180910390a16004805460095460405163d8a4e5af60e01b8152928301526001600160a01b03169063d8a4e5af90602401600060405180830381600087803b15801561137d57600080fd5b505af1158015611391573d6000803e3d6000fd5b5050505050565b336000818152600f6020526040808220805490839055905190929083908381818185875af1925050503d80600081146113ed576040519150601f19603f3d011682016040523d82523d6000602084013e6113f2565b606091505b5050905080610aaa5760405162461bcd60e51b815260206004820152600e60248201526d151c985b9cd9995c91985a5b195960921b60448201526064016106cd565b6000805460405163bf40fac160e01b81526001600160a01b039091169063bf40fac19061146590859060040161351a565b60206040518083038186803b15801561147d57600080fd5b505afa158015611491573d6000803e3d6000fd5b505050506040513d601f19601f8201168201806040525081019061107b919061354d565b336000908152600e60205260409020546001600160a01b03166114ea5760405162461bcd60e51b81526004016106cd9061356a565b6115176040518060400160405280600c81526020016b212b26afa937b6363ab832b960a11b815250611434565b6001600160a01b0316336001600160a01b0316146115955760405162461bcd60e51b815260206004820152603560248201527f6d73672e73656e646572206973206e6f7420726f6c6c75702070726f706f73656044820152740e45840c6c2dc4ee840c2e0e0cadcc840c4c2e8c6d605b1b60648201526084016106cd565b61159f8787611dea565b60006115d66040518060400160405280601481526020017329ba30ba32a1b7b6b6b4ba36b2b73a21b430b4b760611b815250611434565b90506000816001600160a01b031687878787876040516024016115fd95949392919061358f565b60408051601f198184030181529181526020820180516001600160e01b0316632169f79f60e01b1790525161163291906135ff565b6000604051808303816000865af19150503d806000811461166f576040519150601f19603f3d011682016040523d82523d6000602084013e611674565b606091505b50509050806116d75760405162461bcd60e51b815260206004820152602960248201527f73636320617070656e64207374617465206261746368206661696c65642c2072604482015268195d995c9d08185b1b60ba1b60648201526084016106cd565b505050505050505050565b6006546001600160a01b0316331461170c5760405162461bcd60e51b81526004016106cd9061361b565b60005b8181101561177e5760016007600085858581811061172f5761172f6134d8565b9050602002016020810190611744919061309c565b6001600160a01b031681526020810191909152604001600020805460ff19169115159190911790558061177681613484565b91505061170f565b505050565b3360008181526007602052604090205460ff166117e25760405162461bcd60e51b815260206004820152601760248201527f4e4f545f494e5f5354414b45525f57484954454c49535400000000000000000060448201526064016106cd565b6001600160a01b038216600090815260086020526040902054829060ff1661184c5760405162461bcd60e51b815260206004820152601960248201527f4e4f545f494e5f4f50455241544f525f57484954454c4953540000000000000060448201526064016106cd565b6003546040516323b872dd60e01b8152336004820152306024820152604481018690526001600160a01b03909116906323b872dd90606401602060405180830381600087803b15801561189e57600080fd5b505af11580156118b2573d6000803e3d6000fd5b505050506040513d601f19601f820116820180604052508101906118d691906134b6565b6119225760405162461bcd60e51b815260206004820152601b60248201527f7472616e7366657220657263323020746f6b656e206661696c6564000000000060448201526064016106cd565b336000908152600d602052604090205460ff16156119e257336000908152600d60205260409020600301546001600160a01b038481169116146119b55760405162461bcd60e51b815260206004820152602560248201527f7374616b6572203d3e206f70657261746f72206d617070696e67206e6f7420756044820152646e6971756560d81b60648201526084016106cd565b336000908152600d6020526040812060010180548692906119d7908490613453565b90915550611af19050565b600254841015611a285760405162461bcd60e51b8152602060048201526011602482015270496e73756666696369656e745374616b6560781b60448201526064016106cd565b6040805160a0810182526001808252602080830188815260008486018181526001600160a01b03808b16606088018181526080890185815233808752600d89528b87209a518b5490151560ff19909116178b559651988a01989098559251600289015591516003880180549183166001600160a01b03199283161790559551600490970180549790911696861696909617909555938452600e9091529282208054909116909217909155600c805491611ae083613484565b9190505550611af133600a54612c81565b50505050565b336000908152600e60205260409020546001600160a01b0316611b2c5760405162461bcd60e51b81526004016106cd9061356a565b336000908152600e60209081526040808320546001600160a01b0316808452600d90925290912060028101548311801590611b685750600b5483115b15611bab5760405162461bcd60e51b8152602060048201526013602482015272417373657274696f6e4f75744f6652616e676560681b60448201526064016106cd565b6004805460405163030b947760e41b81529182018590526001600160a01b0316906330b947709060240160206040518083038186803b158015611bed57600080fd5b505afa158015611c01573d6000803e3d6000fd5b505050506040513d601f19601f82011682018060405250810190611c25919061346b565b816002015414611c775760405162461bcd60e51b815260206004820152601760248201527f506172656e74417373657274696f6e556e7374616b656400000000000000000060448201526064016106cd565b61177e8284612c81565b336000908152600e60205260409020546001600160a01b0316611cb65760405162461bcd60e51b81526004016106cd9061356a565b611cc260106000612fd2565b565b6006546001600160a01b03163314611cee5760405162461bcd60e51b81526004016106cd9061361b565b60005b8181101561177e5760086000848484818110611d0f57611d0f6134d8565b9050602002016020810190611d24919061309c565b6001600160a01b031681526020810191909152604001600020805460ff1916905580611d4f81613484565b915050611cf1565b6006546001600160a01b03163314611d815760405162461bcd60e51b81526004016106cd9061361b565b60005b8181101561177e5760076000848484818110611da257611da26134d8565b9050602002016020810190611db7919061309c565b6001600160a01b031681526020810191909152604001600020805460ff1916905580611de281613484565b915050611d84565b336000908152600e60205260409020546001600160a01b0316611e1f5760405162461bcd60e51b81526004016106cd9061356a565b336000908152600e60209081526040808320546001600160a01b03908116808552600d90935292206004015490911615611eb55760405162461bcd60e51b815260206004820152603160248201527f63616e206e6f742063726561746520617373657274696f6e207768656e207374604482015270616b657220696e206368616c6c656e676560781b60648201526084016106cd565b6001600160a01b038181166000908152600d60205260409081902060020154600154600480549351634e04886d60e01b8152908101839052919390921690634e04886d9060240160206040518083038186803b158015611f1457600080fd5b505afa158015611f28573d6000803e3d6000fd5b505050506040513d601f19601f82011682018060405250810190611f4c919061346b565b611f56904361349f565b1015611fa45760405162461bcd60e51b815260206004820152601f60248201527f4d696e696d756d417373657274696f6e506572696f644e6f745061737365640060448201526064016106cd565b60048054604051632b27e93b60e01b81529182018390526001600160a01b031690632b27e93b9060240160206040518083038186803b158015611fe657600080fd5b505afa158015611ffa573d6000803e3d6000fd5b505050506040513d601f19601f8201168201806040525081019061201e919061346b565b831161205d5760405162461bcd60e51b815260206004820152600e60248201526d22b6b83a3ca0b9b9b2b93a34b7b760911b60448201526064016106cd565b600b805490600061206d83613484565b9091555050600b54604080519182523360208301528101859052606081018490527f5c610f28399ecc14b66149012a0197a5e3257a8c397125afee95d1cf4b9507349060800160405180910390a1600454600b546001600160a01b03909116906342281584908686856120de612d46565b6040516001600160e01b031960e088901b1681526004810195909552602485019390935260448401919091526064830152608482015260a401600060405180830381600087803b15801561213157600080fd5b505af1158015612145573d6000803e3d6000fd5b50505050611af182600b54612c81565b6006546001600160a01b0316331461217f5760405162461bcd60e51b81526004016106cd9061361b565b60005b8181101561177e576001600860008585858181106121a2576121a26134d8565b90506020020160208101906121b7919061309c565b6001600160a01b031681526020810191909152604001600020805460ff1916911515919091179055806121e981613484565b915050612182565b60048054600a54604051632b27e93b60e01b8152928301526000916001600160a01b0390911690632b27e93b9060240160206040518083038186803b15801561223957600080fd5b505afa15801561224d573d6000803e3d6000fd5b505050506040513d601f19601f82011682018060405250810190612271919061346b565b905090565b600054600160a81b900460ff161580801561229e57506000546001600160a01b90910460ff16105b806122bf5750303b1580156122bf5750600054600160a01b900460ff166001145b6123225760405162461bcd60e51b815260206004820152602e60248201527f496e697469616c697a61626c653a20636f6e747261637420697320616c72656160448201526d191e481a5b9a5d1a585b1a5e995960921b60648201526084016106cd565b6000805460ff60a01b1916600160a01b179055801561234f576000805460ff60a81b1916600160a81b1790555b6001600160a01b038d16158061236c57506001600160a01b038c16155b156123a75760405162461bcd60e51b815260206004820152600b60248201526a5a65726f4164647265737360a81b60448201526064016106cd565b8c600660006101000a8154816001600160a01b0302191690836001600160a01b031602179055508a600360006101000a8154816001600160a01b0302191690836001600160a01b031602179055508b600560006101000a8154816001600160a01b0302191690836001600160a01b0316021790555060006001600160a01b031660008054906101000a90046001600160a01b03166001600160a01b0316146124885760405162461bcd60e51b81526020600482015260146024820152731499591d5b99185b9d125b9a5d1a585b1a5e995960621b60448201526064016106cd565b600080546001600160a01b0319166001600160a01b038c81169190911790915560045416156124f05760405162461bcd60e51b81526020600482015260146024820152731499591d5b99185b9d125b9a5d1a585b1a5e995960621b60448201526064016106cd565b600480546001600160a01b0319166001600160a01b038b16908117825560018a905560028990556040516303b31b8360e11b8152309281019290925290630766370690602401600060405180830381600087803b15801561255057600080fd5b505af1158015612564573d6000803e3d6000fd5b505060006009819055600a819055600b8190556004805460405163108a056160e21b8152918201839052602482018b90526044820183905260648201929092524360848201526001600160a01b0390911692506342281584915060a401600060405180830381600087803b1580156125db57600080fd5b505af11580156125ef573d6000803e3d6000fd5b5050505060005b8481101561266557600160076000888885818110612616576126166134d8565b905060200201602081019061262b919061309c565b6001600160a01b031681526020810191909152604001600020805460ff19169115159190911790558061265d81613484565b9150506125f6565b5060005b828110156126d857600160086000868685818110612689576126896134d8565b905060200201602081019061269e919061309c565b6001600160a01b031681526020810191909152604001600020805460ff1916911515919091179055806126d081613484565b915050612669565b508015612721576000805460ff60a81b19169055604051600181527f7f26b83ff96e1f2b6a682f133852f6798a09c465da95921460cefb38474024989060200160405180910390a15b50505050505050505050505050565b6006546001600160a01b0316331461275a5760405162461bcd60e51b81526004016106cd9061361b565b6001600160a01b0381166127bf5760405162461bcd60e51b815260206004820152602660248201527f4f776e61626c653a206e6577206f776e657220697320746865207a65726f206160448201526564647265737360d01b60648201526084016106cd565b6127c881612e2d565b50565b6001600160a01b038083166000908152600e602052604080822054848416835291205490821691166127fc81612ad2565b60006128088383612e7f565b9050336001600160a01b038216146128515760405162461bcd60e51b815260206004820152600c60248201526b4e6f744368616c6c656e676560a01b60448201526064016106cd565b6001600160a01b038083166000908152600d6020526040808220600190810154938716835290822001546002549192918211156128cc57600254612895908361349f565b6001600160a01b0386166000908152600f6020526040812080549091906128bd908490613453565b909155505060025492506128d0565b8192505b6001600160a01b0386166000908152600d6020526040812060010180548592906128fb908490613453565b90915550506001600160a01b038087166000908152600d602052604080822060040180546001600160a01b03191690559187168152206002015461293e86612f4a565b604080518082019091526001600160a01b03968716815260208101918252601080546001808201835560009290925291517f1b6847dc741a1b0cd08d278845f9d819d87b734759afb55fe2de5cb82a9ae672600290930292830180546001600160a01b031916919099161790975590517f1b6847dc741a1b0cd08d278845f9d819d87b734759afb55fe2de5cb82a9ae6739091015550506011805460ff19169093179092555050505050565b6006546001600160a01b03163314612a145760405162461bcd60e51b81526004016106cd9061361b565b612a1d81612ad2565b6001600160a01b0381166000908152600d60205260409020600a5460028201541115612a8b5760405162461bcd60e51b815260206004820152601c60248201527f5374616b65644f6e556e636f6e6669726d6564417373657274696f6e0000000060448201526064016106cd565b612a9482612f4a565b600354600182015460405163a9059cbb60e01b81526001600160a01b038581166004830152602482019290925291169063a9059cbb90604401610a0c565b6001600160a01b0381166000908152600d602052604090205460ff166127c85760405162461bcd60e51b8152602060048201526009602482015268139bdd14dd185ad95960ba1b60448201526064016106cd565b612b2f81612ad2565b6001600160a01b038181166000908152600d602052604090206004015416156127c85760405162461bcd60e51b815260206004820152601060248201526f21b430b63632b733b2b229ba30b5b2b960811b60448201526064016106cd565b600080805b601054811015612c7a57600454601080546001600160a01b039092169163873fd08991879185908110612bc757612bc76134d8565b600091825260209091206002909102015460405160e084901b6001600160e01b031916815260048101929092526001600160a01b0316602482015260440160206040518083038186803b158015612c1d57600080fd5b505afa158015612c31573d6000803e3d6000fd5b505050506040513d601f19601f82011682018060405250810190612c5591906134b6565b15612c685781612c6481613484565b9250505b80612c7281613484565b915050612b92565b5092915050565b6001600160a01b038281166000818152600d60205260409081902060020184905560048054915163541961d760e11b815290810185905260248101929092529091169063a832c3ae90604401600060405180830381600087803b158015612ce757600080fd5b505af1158015612cfb573d6000803e3d6000fd5b5050604080516001600160a01b0386168152602081018590527f617d31491414a4ab2bd831e566a31837fa7fb6582921c91dffbbe83fbca789f3935001905060405180910390a15050565b600080612d7e6040518060400160405280601481526020017329ba30ba32a1b7b6b6b4ba36b2b73a21b430b4b760611b815250611434565b60408051600481526024810182526020810180516001600160e01b031663c17b291b60e01b179052905191925060009182916001600160a01b03851691612dc591906135ff565b6000604051808303816000865af19150503d8060008114612e02576040519150601f19603f3d011682016040523d82523d6000602084013e612e07565b606091505b5091509150600081612e1890613650565b9050612e248142613453565b94505050505090565b600680546001600160a01b038381166001600160a01b0319831681179093556040519116919082907f8be0079c531659141344cd1fd0a4f28419497f9722a3daafe3b4186f6b6457e090600090a35050565b6001600160a01b038083166000908152600d6020526040808220848416835290822060048201549293919290911680612eeb5760405162461bcd60e51b815260206004820152600e60248201526d4e6f74496e4368616c6c656e676560901b60448201526064016106cd565b60048201546001600160a01b03828116911614612f415760405162461bcd60e51b8152602060048201526014602482015273496e446966666572656e744368616c6c656e676560601b60448201526064016106cd565b95945050505050565b600c8054906000612f5a83613677565b90915550506001600160a01b039081166000908152600d60209081526040808320600381018054825460ff1916835560018301869055600283018690556001600160a01b0319808216909255600490920180548216905594168352600e909152902080549091169055565b6119048061368f83390190565b50805460008255600202906000526020600020908101906127c891905b808211156130145780546001600160a01b031916815560006001820155600201612fef565b5090565b60006020828403121561302a57600080fd5b5035919050565b806040810183101561107b57600080fd5b6000806080838503121561305557600080fd5b61305f8484613031565b915061306e8460408501613031565b90509250929050565b6001600160a01b03811681146127c857600080fd5b803561309781613077565b919050565b6000602082840312156130ae57600080fd5b81356130b981613077565b9392505050565b634e487b7160e01b600052604160045260246000fd5b6000602082840312156130e857600080fd5b813567ffffffffffffffff8082111561310057600080fd5b818401915084601f83011261311457600080fd5b813581811115613126576131266130c0565b604051601f8201601f19908116603f0116810190838211818310171561314e5761314e6130c0565b8160405282815287602084870101111561316757600080fd5b826020860160208301376000928101602001929092525095945050505050565b60008083601f84011261319957600080fd5b50813567ffffffffffffffff8111156131b157600080fd5b6020830191508360208260051b85010111156131cc57600080fd5b9250929050565b600080600080600080600060a0888a0312156131ee57600080fd5b8735965060208801359550604088013567ffffffffffffffff8082111561321457600080fd5b6132208b838c01613187565b909750955060608a0135945060808a013591508082111561324057600080fd5b818a0191508a601f83011261325457600080fd5b81358181111561326357600080fd5b8b602082850101111561327557600080fd5b60208301945080935050505092959891949750929550565b600080602083850312156132a057600080fd5b823567ffffffffffffffff8111156132b757600080fd5b6132c385828601613187565b90969095509350505050565b600080604083850312156132e257600080fd5b8235915060208301356132f481613077565b809150509250929050565b6000806040838503121561331257600080fd5b50508035926020909101359150565b6000806000806000806000806000806000806101408d8f03121561334457600080fd5b61334d8d61308c565b9b5061335b60208e0161308c565b9a5061336960408e0161308c565b995061337760608e0161308c565b985061338560808e0161308c565b975060a08d0135965060c08d0135955060e08d0135945067ffffffffffffffff6101008e013511156133b657600080fd5b6133c78e6101008f01358f01613187565b909450925067ffffffffffffffff6101208e013511156133e657600080fd5b6133f78e6101208f01358f01613187565b81935080925050509295989b509295989b509295989b565b6000806040838503121561342257600080fd5b823561342d81613077565b915060208301356132f481613077565b634e487b7160e01b600052601160045260246000fd5b600082198211156134665761346661343d565b500190565b60006020828403121561347d57600080fd5b5051919050565b60006000198214156134985761349861343d565b5060010190565b6000828210156134b1576134b161343d565b500390565b6000602082840312156134c857600080fd5b815180151581146130b957600080fd5b634e487b7160e01b600052603260045260246000fd5b60005b838110156135095781810151838201526020016134f1565b83811115611af15750506000910152565b60208152600082518060208401526135398160408501602087016134ee565b601f01601f19169190910160400192915050565b60006020828403121561355f57600080fd5b81516130b981613077565b6020808252600b908201526a2737ba27b832b930ba37b960a91b604082015260600190565b6060808252810185905260006001600160fb1b038611156135af57600080fd5b8560051b80886080850137602083018690528201828103608090810160408501528101849052838560a0830137600060a0858301015260a0601f19601f8601168201019150509695505050505050565b600082516136118184602087016134ee565b9190910192915050565b6020808252818101527f4f776e61626c653a2063616c6c6572206973206e6f7420746865206f776e6572604082015260600190565b80516020808301519190811015613671576000198160200360031b1b821691505b50919050565b6000816136865761368661343d565b50600019019056fe608060405234801561001057600080fd5b506118e4806100206000396000f3fe608060405234801561001057600080fd5b50600436106101375760003560e01c80638b299903116100b8578063dfbf53ae1161007c578063dfbf53ae146102a3578063e87e3589146102b6578063ed5b1303146102be578063f03a7fcb146102c7578063f2858aa3146102da578063faeff41b146102ed57600080fd5b80638b2999031461022c5780638f2400a8146102465780639afd9d7814610259578063abf480131461027d578063afeae9651461029057600080fd5b8063631acced116100ff578063631acced146101aa57806370dea79a146101b2578063732e6961146101ba5780637f4c91c5146102115780638a8cd2181461022457600080fd5b806318ef160d1461013c5780632a51f6f71461015157806341e8510c1461016d578063534db0e2146101765780635f41e3d6146101a1575b600080fd5b61014f61014a366004611333565b6102f6565b005b61015a60085481565b6040519081526020015b60405180910390f35b61015a60065481565b600354610189906001600160a01b031681565b6040516001600160a01b039091168152602001610164565b61015a60055481565b61014f6105d0565b61014f610636565b6010546011546012546013546014546015546016546101dc9695949392919087565b604080519788526020880196909652948601939093526060850191909152608084015260a083015260c082015260e001610164565b600254610189906001600160a01b031681565b6101896106c9565b6007546102399060ff1681565b604051610164919061136b565b61014f610254366004611385565b61075b565b600e5461026d90600160a01b900460ff1681565b6040519015158152602001610164565b61014f61028b3660046113fc565b610b55565b61015a61029e366004611473565b610cae565b600e54610189906001600160a01b031681565b61015a610cc5565b61015a60045481565b61014f6102d53660046114d5565b610d13565b61014f6102e8366004611579565b611018565b61015a600f5481565b6102fe6106c9565b6001600160a01b0316336001600160a01b0316146040518060400160405280600a8152602001692124a9afa9a2a72222a960b11b8152509061035c5760405162461bcd60e51b815260040161035391906115a2565b60405180910390fd5b50610365610cc5565b60045461037290426115f7565b11156040518060400160405280600c81526020016b4249535f444541444c494e4560a01b815250906103b75760405162461bcd60e51b815260040161035391906115a2565b5060085460408051808201909152600f81526e4348414c5f494e49545f535441544560881b602082015290156104005760405162461bcd60e51b815260040161035391906115a2565b50600081116104455760405162461bcd60e51b8152602060048201526011602482015270494e56414c49445f4e554d5f535445505360781b6044820152606401610353565b604080516000602080830191909152818301849052825180830384018152606090920190925280519101206008556040805160e08082018352600c548083526020808401879052600d54848601819052436060808701829052426080808901829052600060a0808b0182905260c09a8b018d9052601089905560118e9055601287905560138690556014849055601582905560168d90558b519889529688018d90529987019490945290850191909152908301528101939093529082018390527f71809f4d4f7bf3c208a85ccd3c922c984024f8e3cef51e3d03ae677e4217097d910160405180910390a1600160075460ff16600281111561054957610549611355565b141561057e5760045461055c90426115f7565b60065461056991906115f7565b6006556007805460ff191660021790556105c8565b600260075460ff16600281111561059757610597611355565b14156105c8576004546105aa90426115f7565b6005546105b791906115f7565b6005556007805460ff191660011790555b505042600455565b600e54600160a01b900460ff16156106215760405162461bcd60e51b8152602060048201526014602482015273414c52454144595f5345545f524f4c4c4241434b60601b6044820152606401610353565b600e805460ff60a01b1916600160a01b179055565b61063e610cc5565b60045461064b90426115f7565b116040518060400160405280601081526020016f54494d454f55545f444541444c494e4560801b815250906106935760405162461bcd60e51b815260040161035391906115a2565b50600260075460ff1660028111156106ad576106ad611355565b14156106bf576106bd60016111f4565b565b6106bd6001611257565b6000600260075460ff1660028111156106e4576106e4611355565b14156106fa57506002546001600160a01b031690565b600160075460ff16600281111561071357610713611355565b141561072957506003546001600160a01b031690565b60405162461bcd60e51b81526020600482015260076024820152662727afaa2aa92760c91b6044820152606401610353565b6107636106c9565b6001600160a01b0316336001600160a01b0316146040518060400160405280600a8152602001692124a9afa9a2a72222a960b11b815250906107b85760405162461bcd60e51b815260040161035391906115a2565b506107c1610cc5565b6004546107ce90426115f7565b11156040518060400160405280600c81526020016b4249535f444541444c494e4560a01b815250906108135760405162461bcd60e51b815260040161035391906115a2565b506008546108555760405162461bcd60e51b815260206004820152600f60248201526e1393d517d253925512505312569151608a1b6044820152606401610353565b604080516020808201859052818301849052825180830384018152606090920190925280519101206008548114604051806040016040528060088152602001672124a9afa82922ab60c11b815250906108c15760405162461bcd60e51b815260040161035391906115a2565b50600a541561091b57600954873514806108dd5750600a548735145b61091b5760405162461bcd60e51b815260206004820152600f60248201526e1053509251d553d554d7d4d5105495608a1b6044820152606401610353565b600b546040880135141561095f5760405162461bcd60e51b815260206004820152600b60248201526a1253959053125117d1539160aa1b6044820152606401610353565b6000841161099b5760405162461bcd60e51b81526020600482015260096024820152681513d3d7d4d213d49560ba1b6044820152606401610353565b8635600955602080880135600a55604080890135600b558051808301889052808201879052815180820383018152606090910190915280519101206008556040805160e081018252883581526020808a0135908201529081018860026020908102919091013582524382820181905242604080850182905260608086018c905260809586018b905286516010558685015160115586820151601255868101516013558686015160145560a08088015160155560c09788015160165582518f3581528f870135968101969096528e8301358684015290850193909352938301528101889052918201869052517f71809f4d4f7bf3c208a85ccd3c922c984024f8e3cef51e3d03ae677e4217097d9181900360e00190a150600160075460ff166002811115610aca57610aca611355565b1415610aff57600454610add90426115f7565b600654610aea91906115f7565b6006556007805460ff19166002179055610b49565b600260075460ff166002811115610b1857610b18611355565b1415610b4957600454610b2b90426115f7565b600554610b3891906115f7565b6005556007805460ff191660011790555b50504260045550505050565b600060075460ff166002811115610b6e57610b6e611355565b146040518060400160405280600f81526020016e4348414c5f494e49545f535441544560881b81525090610bb55760405162461bcd60e51b815260040161035391906115a2565b506001600160a01b03871615801590610bd657506001600160a01b03861615155b8015610bea57506001600160a01b03841615155b610c255760405162461bcd60e51b815260206004820152600c60248201526b5a45524f5f4144445245535360a01b6044820152606401610353565b600280546001600160a01b03199081166001600160a01b03998a16178255600380548216988a1698909817909755600180548816968916969096179095556000805490961693909616929092178455600c829055600d8590556007805460ff19169093179092554260045560966005819055600655600955600a91909155600b91909155600f55565b60098160038110610cbe57600080fd5b0154905081565b6000600260075460ff166002811115610ce057610ce0611355565b1415610ced575060055490565b600160075460ff166002811115610d0657610d06611355565b1415610729575060065490565b610d1b6106c9565b6001600160a01b0316336001600160a01b0316146040518060400160405280600a8152602001692124a9afa9a2a72222a960b11b81525090610d705760405162461bcd60e51b815260040161035391906115a2565b50610d79610cc5565b600454610d8690426115f7565b11156040518060400160405280600c81526020016b4249535f444541444c494e4560a01b81525090610dcb5760405162461bcd60e51b815260040161035391906115a2565b50604080516020808201859052818301849052825180830384018152606090920190925280519101206008548114604051806040016040528060088152602001672124a9afa82922ab60c11b81525090610e385760405162461bcd60e51b815260040161035391906115a2565b506001610e46600284611632565b1115610e8b5760405162461bcd60e51b8152602060048201526014602482015273424953454354494f4e5f494e434f4d504c45544560601b6044820152606401610353565b600180546000916001600160a01b039091169063625eb72e908b908b90600990610eb5908b6115f7565b60038110610ec557610ec561161c565b01548b8b6040518663ffffffff1660e01b8152600401610ee99594939291906117ac565b60206040518083038186803b158015610f0157600080fd5b505afa158015610f15573d6000803e3d6000fd5b505050506040513d601f19601f82011682018060405250810190610f39919061185f565b905060098560038110610f4e57610f4e61161c565b0154811415610f6657610f6160006112af565b610f70565b610f706000611302565b506001905060075460ff166002811115610f8c57610f8c611355565b1415610fc157600454610f9f90426115f7565b600654610fac91906115f7565b6006556007805460ff1916600217905561100b565b600260075460ff166002811115610fda57610fda611355565b141561100b57600454610fed90426115f7565b600554610ffa91906115f7565b6005556007805460ff191660011790555b5050426004555050505050565b6002546001600160a01b03166110635760405162461bcd60e51b815260206004820152601060248201526f111959995b99195c881b9bdd081cd95d60821b6044820152606401610353565b6002546001600160a01b031633146110b35760405162461bcd60e51b815260206004820152601360248201527221b0b63632b9103737ba103232b332b73232b960691b6044820152606401610353565b600e546001600160a01b03166111005760405162461bcd60e51b81526020600482015260126024820152712237903737ba103430bb32903bb4b73732b960711b6044820152606401610353565b600354600e546001600160a01b03908116911614156111b257801561118f57600054600354600254604051637d3c01f360e11b81526001600160a01b039283166004820152908216602482015291169063fa7803e6906044015b600060405180830381600087803b15801561117457600080fd5b505af1158015611188573d6000803e3d6000fd5b5050505050565b600254600e80546001600160a01b0319166001600160a01b039092169190911790555b600054600254600354604051637d3c01f360e11b81526001600160a01b039283166004820152908216602482015291169063fa7803e69060440161115a565b50565b600354600e80546001600160a01b0319166001600160a01b039283169081179091556002546040517f03f929a9a6b1f0aef5e43cb12b56f862da97ec3de3fda02a52e85f9f3974fb6a9361124c939216908590611878565b60405180910390a150565b600254600e80546001600160a01b0319166001600160a01b039283169081179091556003546040517f03f929a9a6b1f0aef5e43cb12b56f862da97ec3de3fda02a52e85f9f3974fb6a9361124c939216908590611878565b600260075460ff1660028111156112c8576112c8611355565b14156112d7576111f181611257565b600354600e80546001600160a01b0319166001600160a01b039092169190911790556111f1816111f4565b600260075460ff16600281111561131b5761131b611355565b141561132a576111f1816111f4565b6111f181611257565b6000806040838503121561134657600080fd5b50508035926020909101359150565b634e487b7160e01b600052602160045260246000fd5b602081016003831061137f5761137f611355565b91905290565b600080600080600080610100878903121561139f57600080fd5b60608701888111156113b057600080fd5b969896359750505060808701359460a0880135945060c0880135935060e088013592509050565b6001600160a01b03811681146111f157600080fd5b80356113f7816113d7565b919050565b600080600080600080600060e0888a03121561141757600080fd5b8735611422816113d7565b96506020880135611432816113d7565b95506040880135611442816113d7565b94506060880135611452816113d7565b9699959850939660808101359560a0820135955060c0909101359350915050565b60006020828403121561148557600080fd5b5035919050565b60008083601f84011261149e57600080fd5b50813567ffffffffffffffff8111156114b657600080fd5b6020830191508360208285010111156114ce57600080fd5b9250929050565b600080600080600080600060c0888a0312156114f057600080fd5b873567ffffffffffffffff8082111561150857600080fd5b9089019060e0828c03121561151c57600080fd5b90975060208901359060ff8216821461153457600080fd5b9096506040890135908082111561154a57600080fd5b506115578a828b0161148c565b989b979a50986060810135976080820135975060a09091013595509350505050565b60006020828403121561158b57600080fd5b8135801515811461159b57600080fd5b9392505050565b600060208083528351808285015260005b818110156115cf578581018301518582016040015282016115b3565b818111156115e1576000604083870101525b50601f01601f1916929092016040019392505050565b60008282101561161757634e487b7160e01b600052601160045260246000fd5b500390565b634e487b7160e01b600052603260045260246000fd5b60008261164f57634e487b7160e01b600052601260045260246000fd5b500490565b6000823561011e1983360301811261166b57600080fd5b90910192915050565b803567ffffffffffffffff811681146113f757600080fd5b6000808335601e198436030181126116a357600080fd5b830160208101925035905067ffffffffffffffff8111156116c357600080fd5b8036038313156114ce57600080fd5b81835281816020850137506000828201602090810191909152601f909101601f19169091010190565b600061012067ffffffffffffffff61171284611674565b1684526020830135602085015261172b60408401611674565b67ffffffffffffffff166040850152611746606084016113ec565b6001600160a01b031660608501526080838101359085015261176b60a084018461168c565b8260a087015261177e83870182846116d2565b9250505060c083013560c085015260e083013560e08501526101008084013581860152508091505092915050565b60808152600086356117bd816113d7565b6001600160a01b039081166080840152602088013560a0840152604088013560c08401526060880135906117f0826113d7565b1660e08301526118036080880188611654565b60e06101008401526118196101608401826116fb565b60a089013561012085015260c089013561014085015260ff88166020850152905085604084015282810360608401526118538185876116d2565b98975050505050505050565b60006020828403121561187157600080fd5b5051919050565b6001600160a01b0384811682528316602082015260608101600283106118a0576118a0611355565b82604083015294935050505056fea264697066735822122043a917a07b3fb34163ec8a974ec9abbe7aba69ee2f587cb59ca415ef8c9c990964736f6c63430008090033a2646970667358221220d7f284c945568bd4862bee7a29981cb2520a4b972345b33d1b9c0f214c05742864736f6c63430008090033",
  "linkReferences": {},
  "deployedLinkReferences": {}
}