{
  "address": "0x1872Ce78A362c58D093EE107cAdeE2667b7Bd993",
  "abi": [
    {
      "inputs": [],
      "stateMutability": "nonpayable",
      "type": "constructor"
    },
    {
      "inputs": [],
      "name": "ChildInboxSizeMismatch",
      "type": "error"
    },
    {
      "inputs": [
        {
          "internalType": "address",
          "name": "sender",
          "type": "address"
        },
        {
          "internalType": "address",
          "name": "rollup",
          "type": "address"
        }
      ],
      "name": "NotRollup",
      "type": "error"
    },
    {
      "inputs": [],
      "name": "SiblingStateHashExists",
      "type": "error"
    },
    {
      "anonymous": false,
      "inputs": [
        {
          "indexed": false,
          "internalType": "uint8",
          "name": "version",
          "type": "uint8"
        }
      ],
      "name": "Initialized",
      "type": "event"
    },
    {
      "inputs": [
        {
          "internalType": "uint256",
          "name": "",
          "type": "uint256"
        }
      ],
      "name": "assertions",
      "outputs": [
        {
          "internalType": "bytes32",
          "name": "stateHash",
          "type": "bytes32"
        },
        {
          "internalType": "uint256",
          "name": "inboxSize",
          "type": "uint256"
        },
        {
          "internalType": "uint256",
          "name": "parent",
          "type": "uint256"
        },
        {
          "internalType": "uint256",
          "name": "deadline",
          "type": "uint256"
        },
        {
          "internalType": "uint256",
          "name": "proposalTime",
          "type": "uint256"
        },
        {
          "internalType": "uint256",
          "name": "numStakers",
          "type": "uint256"
        },
        {
          "internalType": "uint256",
          "name": "childInboxSize",
          "type": "uint256"
        }
      ],
      "stateMutability": "view",
      "type": "function"
    },
    {
      "inputs": [
        {
          "internalType": "uint256",
          "name": "assertionID",
          "type": "uint256"
        },
        {
          "internalType": "bytes32",
          "name": "stateHash",
          "type": "bytes32"
        },
        {
          "internalType": "uint256",
          "name": "inboxSize",
          "type": "uint256"
        },
        {
          "internalType": "uint256",
          "name": "parentID",
          "type": "uint256"
        },
        {
          "internalType": "uint256",
          "name": "deadline",
          "type": "uint256"
        }
      ],
      "name": "createAssertion",
      "outputs": [],
      "stateMutability": "nonpayable",
      "type": "function"
    },
    {
      "inputs": [
        {
          "internalType": "uint256",
          "name": "assertionID",
          "type": "uint256"
        }
      ],
      "name": "deleteAssertion",
      "outputs": [],
      "stateMutability": "nonpayable",
      "type": "function"
    },
    {
      "inputs": [
        {
          "internalType": "uint256",
          "name": "assertionID",
          "type": "uint256"
        }
      ],
      "name": "deleteAssertionForBatch",
      "outputs": [],
      "stateMutability": "nonpayable",
      "type": "function"
    },
    {
      "inputs": [
        {
          "internalType": "uint256",
          "name": "assertionID",
          "type": "uint256"
        }
      ],
      "name": "getDeadline",
      "outputs": [
        {
          "internalType": "uint256",
          "name": "",
          "type": "uint256"
        }
      ],
      "stateMutability": "view",
      "type": "function"
    },
    {
      "inputs": [
        {
          "internalType": "uint256",
          "name": "assertionID",
          "type": "uint256"
        }
      ],
      "name": "getInboxSize",
      "outputs": [
        {
          "internalType": "uint256",
          "name": "",
          "type": "uint256"
        }
      ],
      "stateMutability": "view",
      "type": "function"
    },
    {
      "inputs": [
        {
          "internalType": "uint256",
          "name": "assertionID",
          "type": "uint256"
        }
      ],
      "name": "getNumStakers",
      "outputs": [
        {
          "internalType": "uint256",
          "name": "",
          "type": "uint256"
        }
      ],
      "stateMutability": "view",
      "type": "function"
    },
    {
      "inputs": [
        {
          "internalType": "uint256",
          "name": "assertionID",
          "type": "uint256"
        }
      ],
      "name": "getParentID",
      "outputs": [
        {
          "internalType": "uint256",
          "name": "",
          "type": "uint256"
        }
      ],
      "stateMutability": "view",
      "type": "function"
    },
    {
      "inputs": [
        {
          "internalType": "uint256",
          "name": "assertionID",
          "type": "uint256"
        }
      ],
      "name": "getProposalTime",
      "outputs": [
        {
          "internalType": "uint256",
          "name": "",
          "type": "uint256"
        }
      ],
      "stateMutability": "view",
      "type": "function"
    },
    {
      "inputs": [
        {
          "internalType": "uint256",
          "name": "assertionID",
          "type": "uint256"
        }
      ],
      "name": "getStateHash",
      "outputs": [
        {
          "internalType": "bytes32",
          "name": "",
          "type": "bytes32"
        }
      ],
      "stateMutability": "view",
      "type": "function"
    },
    {
      "inputs": [],
      "name": "initialize",
      "outputs": [],
      "stateMutability": "nonpayable",
      "type": "function"
    },
    {
      "inputs": [
        {
          "internalType": "uint256",
          "name": "assertionID",
          "type": "uint256"
        },
        {
          "internalType": "address",
          "name": "stakerAddress",
          "type": "address"
        }
      ],
      "name": "isStaker",
      "outputs": [
        {
          "internalType": "bool",
          "name": "",
          "type": "bool"
        }
      ],
      "stateMutability": "view",
      "type": "function"
    },
    {
      "inputs": [],
      "name": "rollupAddress",
      "outputs": [
        {
          "internalType": "address",
          "name": "",
          "type": "address"
        }
      ],
      "stateMutability": "view",
      "type": "function"
    },
    {
      "inputs": [
        {
          "internalType": "address",
          "name": "_rollupAddress",
          "type": "address"
        }
      ],
      "name": "setRollupAddress",
      "outputs": [],
      "stateMutability": "nonpayable",
      "type": "function"
    },
    {
      "inputs": [
        {
          "internalType": "uint256",
          "name": "assertionID",
          "type": "uint256"
        },
        {
          "internalType": "address",
          "name": "stakerAddress",
          "type": "address"
        }
      ],
      "name": "stakeOnAssertion",
      "outputs": [],
      "stateMutability": "nonpayable",
      "type": "function"
    }
  ],
  "transactionHash": "0x3aad52c6acd2f6b5148bde9556cfb3f1d80c7e2d9ce843b94250a5c683a3dc85",
  "args": [],
  "numDeployments": 1,
  "solcInputHash": "55be54ef118a4ed0a7d7c0cb615240a5",
  "bytecode": "0x608060405234801561001057600080fd5b5061001961001e565b6100de565b600054610100900460ff161561008a5760405162461bcd60e51b815260206004820152602760248201527f496e697469616c697a61626c653a20636f6e747261637420697320696e697469604482015266616c697a696e6760c81b606482015260840160405180910390fd5b60005460ff90811610156100dc576000805460ff191660ff9081179091556040519081527f7f26b83ff96e1f2b6a682f133852f6798a09c465da95921460cefb38474024989060200160405180910390a15b565b610981806100ed6000396000f3fe608060405234801561001057600080fd5b50600436106100f55760003560e01c806354823e6611610097578063873fd08911610066578063873fd089146102b7578063a832c3ae14610300578063d0087d6114610313578063d8a4e5af1461032657600080fd5b806354823e66146102415780635ec6a8df146102615780638129fc1c1461028c578063828622751461029457600080fd5b8063366b2b69116100d3578063366b2b6914610169578063422815841461018c5780634e04886d1461019f578063524232f6146101c257600080fd5b806307663706146100fa5780632b27e93b1461010f57806330b9477014610146575b600080fd5b61010d610108366004610880565b610339565b005b61013361011d3660046108a2565b6000908152600160208190526040909120015490565b6040519081526020015b60405180910390f35b6101336101543660046108a2565b60009081526001602052604090206002015490565b6101336101773660046108a2565b60009081526001602052604090206005015490565b61010d61019a3660046108bb565b610409565b6101336101ad3660046108a2565b60009081526001602052604090206004015490565b61020c6101d03660046108a2565b60016020819052600091825260409091208054918101546002820154600383015460048401546005850154600690950154939492939192909187565b604080519788526020880196909652948601939093526060850191909152608084015260a083015260c082015260e00161013d565b61013361024f3660046108a2565b60009081526001602052604090205490565b600354610274906001600160a01b031681565b6040516001600160a01b03909116815260200161013d565b61010d6105a7565b6101336102a23660046108a2565b60009081526001602052604090206003015490565b6102f06102c53660046108f6565b60009182526002602090815260408084206001600160a01b0393909316845291905290205460ff1690565b604051901515815260200161013d565b61010d61030e3660046108f6565b6106b0565b61010d6103213660046108a2565b610740565b61010d6103343660046108a2565b6107e9565b6003546001600160a01b0316156103a25760405162461bcd60e51b815260206004820152602260248201527f726f6c6c75704164647265737320616c726561647920696e697469616c697a65604482015261321760f11b60648201526084015b60405180910390fd5b6001600160a01b0381166103e75760405162461bcd60e51b815260206004820152600c60248201526b5a45524f5f4144445245535360a01b6044820152606401610399565b600380546001600160a01b0319166001600160a01b0392909216919091179055565b6003546001600160a01b0316331461044957600354604051630e4cf1bf60e21b81523360048201526001600160a01b039091166024820152604401610399565b6000828152600160209081526040808320600290925290912060068201548061047857600683018690556104c0565b8086146104c05760405162461bcd60e51b8152602060048201526016602482015275086d0d2d8c892dcc4def0a6d2f4ca9ad2e6dac2e8c6d60531b6044820152606401610399565b600087815260018301602052604090205460ff161561051a5760405162461bcd60e51b81526020600482015260166024820152755369626c696e6753746174654861736845786973747360501b6044820152606401610399565b506000868152600191820160209081526040808320805460ff191685179055805160e081018252988952888201978852888101968752606089019586524360808a0190815260a08a0184815260c08b018581529b85529285905292209751885595519187019190915592516002860155505160038401555160048301555160058201559051600690910155565b600054610100900460ff16158080156105c75750600054600160ff909116105b806105e15750303b1580156105e1575060005460ff166001145b6106445760405162461bcd60e51b815260206004820152602e60248201527f496e697469616c697a61626c653a20636f6e747261637420697320616c72656160448201526d191e481a5b9a5d1a585b1a5e995960921b6064820152608401610399565b6000805460ff191660011790558015610667576000805461ff0019166101001790555b80156106ad576000805461ff0019169055604051600181527f7f26b83ff96e1f2b6a682f133852f6798a09c465da95921460cefb38474024989060200160405180910390a15b50565b6003546001600160a01b031633146106f057600354604051630e4cf1bf60e21b81523360048201526001600160a01b039091166024820152604401610399565b6000828152600160208181526040808420600283528185206001600160a01b03871686529092528320805460ff1916909217909155600581018054919261073683610922565b9190505550505050565b6003546001600160a01b0316331461078057600354604051630e4cf1bf60e21b81523360048201526001600160a01b039091166024820152604401610399565b6000908152600160208181526040808420805460028083018054888555848801899055908890556003840188905560048401889055600584018890556006938401889055875283872090920186905590835281852090855290920190529020805460ff19169055565b6003546001600160a01b0316331461082957600354604051630e4cf1bf60e21b81523360048201526001600160a01b039091166024820152604401610399565b600090815260016020819052604082208281559081018290556002810182905560038101829055600481018290556005810182905560060155565b80356001600160a01b038116811461087b57600080fd5b919050565b60006020828403121561089257600080fd5b61089b82610864565b9392505050565b6000602082840312156108b457600080fd5b5035919050565b600080600080600060a086880312156108d357600080fd5b505083359560208501359550604085013594606081013594506080013592509050565b6000806040838503121561090957600080fd5b8235915061091960208401610864565b90509250929050565b600060001982141561094457634e487b7160e01b600052601160045260246000fd5b506001019056fea2646970667358221220a150566bf21c920790adc62952b4cfcc82068ec5fe990be17f7397ad067e2c9764736f6c63430008090033",
  "devdoc": {
    "errors": {
      "NotRollup(address,address)": [
        {
          "details": "Thrown when unauthorized (!rollup) address calls an only-rollup function",
          "params": {
            "rollup": "The rollup address authorized to call this function",
            "sender": "Address of the caller"
          }
        }
      ]
    },
    "kind": "dev",
    "methods": {},
    "version": 1
  },
  "userdoc": {
    "kind": "user",
    "methods": {},
    "version": 1
  },
  "storageLayout": {
    "storage": [
      {
        "astId": 216,
        "contract": "contracts/L1/fraud-proof/AssertionMap.sol:AssertionMap",
        "label": "_initialized",
        "offset": 0,
        "slot": "0",
        "type": "t_uint8"
      },
      {
        "astId": 219,
        "contract": "contracts/L1/fraud-proof/AssertionMap.sol:AssertionMap",
        "label": "_initializing",
        "offset": 1,
        "slot": "0",
        "type": "t_bool"
      },
      {
        "astId": 13404,
        "contract": "contracts/L1/fraud-proof/AssertionMap.sol:AssertionMap",
        "label": "assertions",
        "offset": 0,
        "slot": "1",
        "type": "t_mapping(t_uint256,t_struct(Assertion)13390_storage)"
      },
      {
        "astId": 13409,
        "contract": "contracts/L1/fraud-proof/AssertionMap.sol:AssertionMap",
        "label": "assertionStates",
        "offset": 0,
        "slot": "2",
        "type": "t_mapping(t_uint256,t_struct(AssertionState)13399_storage)"
      },
      {
        "astId": 13411,
        "contract": "contracts/L1/fraud-proof/AssertionMap.sol:AssertionMap",
        "label": "rollupAddress",
        "offset": 0,
        "slot": "3",
        "type": "t_address"
      }
    ],
    "types": {
      "t_address": {
        "encoding": "inplace",
        "label": "address",
        "numberOfBytes": "20"
      },
      "t_bool": {
        "encoding": "inplace",
        "label": "bool",
        "numberOfBytes": "1"
      },
      "t_bytes32": {
        "encoding": "inplace",
        "label": "bytes32",
        "numberOfBytes": "32"
      },
      "t_mapping(t_address,t_bool)": {
        "encoding": "mapping",
        "key": "t_address",
        "label": "mapping(address => bool)",
        "numberOfBytes": "32",
        "value": "t_bool"
      },
      "t_mapping(t_bytes32,t_bool)": {
        "encoding": "mapping",
        "key": "t_bytes32",
        "label": "mapping(bytes32 => bool)",
        "numberOfBytes": "32",
        "value": "t_bool"
      },
      "t_mapping(t_uint256,t_struct(Assertion)13390_storage)": {
        "encoding": "mapping",
        "key": "t_uint256",
        "label": "mapping(uint256 => struct AssertionMap.Assertion)",
        "numberOfBytes": "32",
        "value": "t_struct(Assertion)13390_storage"
      },
      "t_mapping(t_uint256,t_struct(AssertionState)13399_storage)": {
        "encoding": "mapping",
        "key": "t_uint256",
        "label": "mapping(uint256 => struct AssertionMap.AssertionState)",
        "numberOfBytes": "32",
        "value": "t_struct(AssertionState)13399_storage"
      },
      "t_struct(Assertion)13390_storage": {
        "encoding": "inplace",
        "label": "struct AssertionMap.Assertion",
        "members": [
          {
            "astId": 13377,
            "contract": "contracts/L1/fraud-proof/AssertionMap.sol:AssertionMap",
            "label": "stateHash",
            "offset": 0,
            "slot": "0",
            "type": "t_bytes32"
          },
          {
            "astId": 13379,
            "contract": "contracts/L1/fraud-proof/AssertionMap.sol:AssertionMap",
            "label": "inboxSize",
            "offset": 0,
            "slot": "1",
            "type": "t_uint256"
          },
          {
            "astId": 13381,
            "contract": "contracts/L1/fraud-proof/AssertionMap.sol:AssertionMap",
            "label": "parent",
            "offset": 0,
            "slot": "2",
            "type": "t_uint256"
          },
          {
            "astId": 13383,
            "contract": "contracts/L1/fraud-proof/AssertionMap.sol:AssertionMap",
            "label": "deadline",
            "offset": 0,
            "slot": "3",
            "type": "t_uint256"
          },
          {
            "astId": 13385,
            "contract": "contracts/L1/fraud-proof/AssertionMap.sol:AssertionMap",
            "label": "proposalTime",
            "offset": 0,
            "slot": "4",
            "type": "t_uint256"
          },
          {
            "astId": 13387,
            "contract": "contracts/L1/fraud-proof/AssertionMap.sol:AssertionMap",
            "label": "numStakers",
            "offset": 0,
            "slot": "5",
            "type": "t_uint256"
          },
          {
            "astId": 13389,
            "contract": "contracts/L1/fraud-proof/AssertionMap.sol:AssertionMap",
            "label": "childInboxSize",
            "offset": 0,
            "slot": "6",
            "type": "t_uint256"
          }
        ],
        "numberOfBytes": "224"
      },
      "t_struct(AssertionState)13399_storage": {
        "encoding": "inplace",
        "label": "struct AssertionMap.AssertionState",
        "members": [
          {
            "astId": 13394,
            "contract": "contracts/L1/fraud-proof/AssertionMap.sol:AssertionMap",
            "label": "stakers",
            "offset": 0,
            "slot": "0",
            "type": "t_mapping(t_address,t_bool)"
          },
          {
            "astId": 13398,
            "contract": "contracts/L1/fraud-proof/AssertionMap.sol:AssertionMap",
            "label": "childStateHashes",
            "offset": 0,
            "slot": "1",
            "type": "t_mapping(t_bytes32,t_bool)"
          }
        ],
        "numberOfBytes": "64"
      },
      "t_uint256": {
        "encoding": "inplace",
        "label": "uint256",
        "numberOfBytes": "32"
      },
      "t_uint8": {
        "encoding": "inplace",
        "label": "uint8",
        "numberOfBytes": "1"
      }
    }
  }
}