{
  "address": "0x503f784184856CeB5be19B4B29dE6511e7C31C4b",
  "abi": [
    {
      "inputs": [],
      "stateMutability": "nonpayable",
      "type": "constructor"
    },
    {
      "anonymous": false,
      "inputs": [
        {
          "indexed": false,
          "internalType": "address",
          "name": "oldFeeAddress",
          "type": "address"
        },
        {
          "indexed": false,
          "internalType": "address",
          "name": "newFeeAddress",
          "type": "address"
        }
      ],
      "name": "FeeAddressUpdated",
      "type": "event"
    },
    {
      "anonymous": false,
      "inputs": [
        {
          "indexed": false,
          "internalType": "uint8",
          "name": "version",
          "type": "uint8"
        }
      ],
      "name": "Initialized",
      "type": "event"
    },
    {
      "anonymous": false,
      "inputs": [
        {
          "indexed": true,
          "internalType": "address",
          "name": "previousOwner",
          "type": "address"
        },
        {
          "indexed": true,
          "internalType": "address",
          "name": "newOwner",
          "type": "address"
        }
      ],
      "name": "OwnershipTransferred",
      "type": "event"
    },
    {
      "anonymous": false,
      "inputs": [
        {
          "indexed": false,
          "internalType": "uint256",
          "name": "l2Block",
          "type": "uint256"
        },
        {
          "indexed": false,
          "internalType": "uint256",
          "name": "userRollupFee",
          "type": "uint256"
        }
      ],
      "name": "RollupFeeHistory",
      "type": "event"
    },
    {
      "inputs": [],
      "name": "gasFeeAddress",
      "outputs": [
        {
          "internalType": "address",
          "name": "",
          "type": "address"
        }
      ],
      "stateMutability": "view",
      "type": "function"
    },
    {
      "inputs": [],
      "name": "getRollupFee",
      "outputs": [
        {
          "internalType": "uint256",
          "name": "",
          "type": "uint256"
        }
      ],
      "stateMutability": "view",
      "type": "function"
    },
    {
      "inputs": [
        {
          "internalType": "address",
          "name": "_address",
          "type": "address"
        }
      ],
      "name": "initialize",
      "outputs": [],
      "stateMutability": "nonpayable",
      "type": "function"
    },
    {
      "inputs": [],
      "name": "owner",
      "outputs": [
        {
          "internalType": "address",
          "name": "",
          "type": "address"
        }
      ],
      "stateMutability": "view",
      "type": "function"
    },
    {
      "inputs": [],
      "name": "renounceOwnership",
      "outputs": [],
      "stateMutability": "nonpayable",
      "type": "function"
    },
    {
      "inputs": [
        {
          "internalType": "address",
          "name": "_address",
          "type": "address"
        }
      ],
      "name": "setFeeAddress",
      "outputs": [],
      "stateMutability": "nonpayable",
      "type": "function"
    },
    {
      "inputs": [
        {
          "internalType": "uint256",
          "name": "_l2Block",
          "type": "uint256"
        },
        {
          "internalType": "uint256",
          "name": "_userRollupFee",
          "type": "uint256"
        }
      ],
      "name": "setRollupFee",
      "outputs": [],
      "stateMutability": "nonpayable",
      "type": "function"
    },
    {
      "inputs": [
        {
          "internalType": "address",
          "name": "newOwner",
          "type": "address"
        }
      ],
      "name": "transferOwnership",
      "outputs": [],
      "stateMutability": "nonpayable",
      "type": "function"
    }
  ],
  "transactionHash": "0x2fd6b092ed22574270279ce6cc8647c420ca646de188eca1bb68ee3639e68c3c",
  "args": [],
  "numDeployments": 1,
  "solcInputHash": "1f6f64a71b9f51ac7d34ef41da116f1f",
  "bytecode": "0x608060405234801561001057600080fd5b5061001961001e565b6100de565b600054610100900460ff161561008a5760405162461bcd60e51b815260206004820152602760248201527f496e697469616c697a61626c653a20636f6e747261637420697320696e697469604482015266616c697a696e6760c81b606482015260840160405180910390fd5b60005460ff90811610156100dc576000805460ff191660ff9081179091556040519081527f7f26b83ff96e1f2b6a682f133852f6798a09c465da95921460cefb38474024989060200160405180910390a15b565b61063e806100ed6000396000f3fe608060405234801561001057600080fd5b50600436106100885760003560e01c8063c4d66de81161005b578063c4d66de8146100e7578063ced808e7146100fa578063f2fde38b1461010b578063f7d8f6161461011e57600080fd5b806366ab598b1461008d578063715018a6146100a25780638705fcd4146100aa5780638da5cb5b146100bd575b600080fd5b6100a061009b36600461056b565b610131565b005b6100a06101df565b6100a06100b836600461058d565b6101f3565b6033546001600160a01b03165b6040516001600160a01b0390911681526020015b60405180910390f35b6100a06100f536600461058d565b6102be565b6098546040519081526020016100de565b6100a061011936600461058d565b6103ec565b6097546100ca906001600160a01b031681565b6097546001600160a01b0316331461019c5760405162461bcd60e51b8152602060048201526024808201527f636f6e74726163742063616c6c206973206e6f742067617320666565206164646044820152637265737360e01b60648201526084015b60405180910390fd5b609881905560408051838152602081018390527f56b7c04de50cf9d2c6d1c31bff463ab5fc4f80431d2a1292062f73a6de2bbf7191015b60405180910390a15050565b6101e7610465565b6101f160006104bf565b565b6101fb610465565b6001600160a01b0381166102645760405162461bcd60e51b815260206004820152602a60248201527f736574466565416464726573733a206164647265737320697320746865207a65604482015269726f206164647265737360b01b6064820152608401610193565b609780546001600160a01b038381166001600160a01b031983168117909355604080519190921680825260208201939093527f11f35a22548bcd4c3788ab4a7e4fba427a2014f02e5d5e2da9af62212c03183f91016101d3565b600054610100900460ff16158080156102de5750600054600160ff909116105b806102f85750303b1580156102f8575060005460ff166001145b61035b5760405162461bcd60e51b815260206004820152602e60248201527f496e697469616c697a61626c653a20636f6e747261637420697320616c72656160448201526d191e481a5b9a5d1a585b1a5e995960921b6064820152608401610193565b6000805460ff19166001179055801561037e576000805461ff0019166101001790555b610386610511565b6000609855609780546001600160a01b0319166001600160a01b03841617905580156103e8576000805461ff0019169055604051600181527f7f26b83ff96e1f2b6a682f133852f6798a09c465da95921460cefb3847402498906020016101d3565b5050565b6103f4610465565b6001600160a01b0381166104595760405162461bcd60e51b815260206004820152602660248201527f4f776e61626c653a206e6577206f776e657220697320746865207a65726f206160448201526564647265737360d01b6064820152608401610193565b610462816104bf565b50565b6033546001600160a01b031633146101f15760405162461bcd60e51b815260206004820181905260248201527f4f776e61626c653a2063616c6c6572206973206e6f7420746865206f776e65726044820152606401610193565b603380546001600160a01b038381166001600160a01b0319831681179093556040519116919082907f8be0079c531659141344cd1fd0a4f28419497f9722a3daafe3b4186f6b6457e090600090a35050565b600054610100900460ff166105385760405162461bcd60e51b8152600401610193906105bd565b6101f1600054610100900460ff166105625760405162461bcd60e51b8152600401610193906105bd565b6101f1336104bf565b6000806040838503121561057e57600080fd5b50508035926020909101359150565b60006020828403121561059f57600080fd5b81356001600160a01b03811681146105b657600080fd5b9392505050565b6020808252602b908201527f496e697469616c697a61626c653a20636f6e7472616374206973206e6f74206960408201526a6e697469616c697a696e6760a81b60608201526080019056fea2646970667358221220c48df906c2b81c739a26ca9c0c5993da202d754a5b110f7f3799267eb9030ac464736f6c63430008090033",
  "devdoc": {
    "kind": "dev",
    "methods": {
      "owner()": {
        "details": "Returns the address of the current owner."
      },
      "renounceOwnership()": {
        "details": "Leaves the contract without owner. It will not be possible to call `onlyOwner` functions anymore. Can only be called by the current owner. NOTE: Renouncing ownership will leave the contract without an owner, thereby removing any functionality that is only available to the owner."
      },
      "transferOwnership(address)": {
        "details": "Transfers ownership of the contract to a new account (`newOwner`). Can only be called by the current owner."
      }
    },
    "version": 1
  },
  "userdoc": {
    "kind": "user",
    "methods": {},
    "version": 1
  },
  "storageLayout": {
    "storage": [
      {
        "astId": 216,
        "contract": "contracts/da/BVM_EigenDataLayrFee.sol:BVM_EigenDataLayrFee",
        "label": "_initialized",
        "offset": 0,
        "slot": "0",
        "type": "t_uint8"
      },
      {
        "astId": 219,
        "contract": "contracts/da/BVM_EigenDataLayrFee.sol:BVM_EigenDataLayrFee",
        "label": "_initializing",
        "offset": 1,
        "slot": "0",
        "type": "t_bool"
      },
      {
        "astId": 2492,
        "contract": "contracts/da/BVM_EigenDataLayrFee.sol:BVM_EigenDataLayrFee",
        "label": "__gap",
        "offset": 0,
        "slot": "1",
        "type": "t_array(t_uint256)50_storage"
      },
      {
        "astId": 10,
        "contract": "contracts/da/BVM_EigenDataLayrFee.sol:BVM_EigenDataLayrFee",
        "label": "_owner",
        "offset": 0,
        "slot": "51",
        "type": "t_address"
      },
      {
        "astId": 130,
        "contract": "contracts/da/BVM_EigenDataLayrFee.sol:BVM_EigenDataLayrFee",
        "label": "__gap",
        "offset": 0,
        "slot": "52",
        "type": "t_array(t_uint256)49_storage"
      },
      {
        "astId": 501,
        "contract": "contracts/da/BVM_EigenDataLayrFee.sol:BVM_EigenDataLayrFee",
        "label": "_status",
        "offset": 0,
        "slot": "101",
        "type": "t_uint256"
      },
      {
        "astId": 545,
        "contract": "contracts/da/BVM_EigenDataLayrFee.sol:BVM_EigenDataLayrFee",
        "label": "__gap",
        "offset": 0,
        "slot": "102",
        "type": "t_array(t_uint256)49_storage"
      },
      {
        "astId": 48431,
        "contract": "contracts/da/BVM_EigenDataLayrFee.sol:BVM_EigenDataLayrFee",
        "label": "gasFeeAddress",
        "offset": 0,
        "slot": "151",
        "type": "t_address"
      },
      {
        "astId": 48433,
        "contract": "contracts/da/BVM_EigenDataLayrFee.sol:BVM_EigenDataLayrFee",
        "label": "userRollupFee",
        "offset": 0,
        "slot": "152",
        "type": "t_uint256"
      }
    ],
    "types": {
      "t_address": {
        "encoding": "inplace",
        "label": "address",
        "numberOfBytes": "20"
      },
      "t_array(t_uint256)49_storage": {
        "base": "t_uint256",
        "encoding": "inplace",
        "label": "uint256[49]",
        "numberOfBytes": "1568"
      },
      "t_array(t_uint256)50_storage": {
        "base": "t_uint256",
        "encoding": "inplace",
        "label": "uint256[50]",
        "numberOfBytes": "1600"
      },
      "t_bool": {
        "encoding": "inplace",
        "label": "bool",
        "numberOfBytes": "1"
      },
      "t_uint256": {
        "encoding": "inplace",
        "label": "uint256",
        "numberOfBytes": "32"
      },
      "t_uint8": {
        "encoding": "inplace",
        "label": "uint8",
        "numberOfBytes": "1"
      }
    }
  }
}