{
  "address": "0x4692363048d0F32a2dE7816860D48fff0c61B24B",
  "abi": [
    {
      "inputs": [],
      "stateMutability": "nonpayable",
      "type": "constructor"
    },
    {
      "anonymous": false,
      "inputs": [
        {
          "indexed": true,
          "internalType": "bytes32",
          "name": "msgHash",
          "type": "bytes32"
        }
      ],
      "name": "FailedRelayedMessage",
      "type": "event"
    },
    {
      "anonymous": false,
      "inputs": [
        {
          "indexed": false,
          "internalType": "uint8",
          "name": "version",
          "type": "uint8"
        }
      ],
      "name": "Initialized",
      "type": "event"
    },
    {
      "anonymous": false,
      "inputs": [
        {
          "indexed": true,
          "internalType": "bytes32",
          "name": "_xDomainCalldataHash",
          "type": "bytes32"
        }
      ],
      "name": "MessageAllowed",
      "type": "event"
    },
    {
      "anonymous": false,
      "inputs": [
        {
          "indexed": true,
          "internalType": "bytes32",
          "name": "_xDomainCalldataHash",
          "type": "bytes32"
        }
      ],
      "name": "MessageBlocked",
      "type": "event"
    },
    {
      "anonymous": false,
      "inputs": [
        {
          "indexed": true,
          "internalType": "address",
          "name": "previousOwner",
          "type": "address"
        },
        {
          "indexed": true,
          "internalType": "address",
          "name": "newOwner",
          "type": "address"
        }
      ],
      "name": "OwnershipTransferred",
      "type": "event"
    },
    {
      "anonymous": false,
      "inputs": [
        {
          "indexed": false,
          "internalType": "address",
          "name": "account",
          "type": "address"
        }
      ],
      "name": "Paused",
      "type": "event"
    },
    {
      "anonymous": false,
      "inputs": [
        {
          "indexed": true,
          "internalType": "bytes32",
          "name": "msgHash",
          "type": "bytes32"
        }
      ],
      "name": "RelayedMessage",
      "type": "event"
    },
    {
      "anonymous": false,
      "inputs": [
        {
          "indexed": true,
          "internalType": "address",
          "name": "target",
          "type": "address"
        },
        {
          "indexed": false,
          "internalType": "address",
          "name": "sender",
          "type": "address"
        },
        {
          "indexed": false,
          "internalType": "bytes",
          "name": "message",
          "type": "bytes"
        },
        {
          "indexed": false,
          "internalType": "uint256",
          "name": "messageNonce",
          "type": "uint256"
        },
        {
          "indexed": false,
          "internalType": "uint256",
          "name": "gasLimit",
          "type": "uint256"
        }
      ],
      "name": "SentMessage",
      "type": "event"
    },
    {
      "anonymous": false,
      "inputs": [
        {
          "indexed": false,
          "internalType": "address",
          "name": "account",
          "type": "address"
        }
      ],
      "name": "Unpaused",
      "type": "event"
    },
    {
      "inputs": [
        {
          "internalType": "bytes32",
          "name": "_xDomainCalldataHash",
          "type": "bytes32"
        }
      ],
      "name": "allowMessage",
      "outputs": [],
      "stateMutability": "nonpayable",
      "type": "function"
    },
    {
      "inputs": [
        {
          "internalType": "bytes32",
          "name": "_xDomainCalldataHash",
          "type": "bytes32"
        }
      ],
      "name": "blockMessage",
      "outputs": [],
      "stateMutability": "nonpayable",
      "type": "function"
    },
    {
      "inputs": [
        {
          "internalType": "bytes32",
          "name": "",
          "type": "bytes32"
        }
      ],
      "name": "blockedMessages",
      "outputs": [
        {
          "internalType": "bool",
          "name": "",
          "type": "bool"
        }
      ],
      "stateMutability": "view",
      "type": "function"
    },
    {
      "inputs": [],
      "name": "getPauseOwner",
      "outputs": [
        {
          "internalType": "address",
          "name": "",
          "type": "address"
        }
      ],
      "stateMutability": "view",
      "type": "function"
    },
    {
      "inputs": [
        {
          "internalType": "address",
          "name": "_libAddressManager",
          "type": "address"
        }
      ],
      "name": "initialize",
      "outputs": [],
      "stateMutability": "nonpayable",
      "type": "function"
    },
    {
      "inputs": [],
      "name": "libAddressManager",
      "outputs": [
        {
          "internalType": "contract Lib_AddressManager",
          "name": "",
          "type": "address"
        }
      ],
      "stateMutability": "view",
      "type": "function"
    },
    {
      "inputs": [],
      "name": "owner",
      "outputs": [
        {
          "internalType": "address",
          "name": "",
          "type": "address"
        }
      ],
      "stateMutability": "view",
      "type": "function"
    },
    {
      "inputs": [],
      "name": "pause",
      "outputs": [],
      "stateMutability": "nonpayable",
      "type": "function"
    },
    {
      "inputs": [],
      "name": "pauseByPOwner",
      "outputs": [],
      "stateMutability": "nonpayable",
      "type": "function"
    },
    {
      "inputs": [],
      "name": "paused",
      "outputs": [
        {
          "internalType": "bool",
          "name": "",
          "type": "bool"
        }
      ],
      "stateMutability": "view",
      "type": "function"
    },
    {
      "inputs": [
        {
          "internalType": "address",
          "name": "_target",
          "type": "address"
        },
        {
          "internalType": "address",
          "name": "_sender",
          "type": "address"
        },
        {
          "internalType": "bytes",
          "name": "_message",
          "type": "bytes"
        },
        {
          "internalType": "uint256",
          "name": "_messageNonce",
          "type": "uint256"
        },
        {
          "components": [
            {
              "internalType": "bytes32",
              "name": "stateRoot",
              "type": "bytes32"
            },
            {
              "components": [
                {
                  "internalType": "uint256",
                  "name": "batchIndex",
                  "type": "uint256"
                },
                {
                  "internalType": "bytes32",
                  "name": "batchRoot",
                  "type": "bytes32"
                },
                {
                  "internalType": "uint256",
                  "name": "batchSize",
                  "type": "uint256"
                },
                {
                  "internalType": "uint256",
                  "name": "prevTotalElements",
                  "type": "uint256"
                },
                {
                  "internalType": "bytes",
                  "name": "signature",
                  "type": "bytes"
                },
                {
                  "internalType": "bytes",
                  "name": "extraData",
                  "type": "bytes"
                }
              ],
              "internalType": "struct Lib_BVMCodec.ChainBatchHeader",
              "name": "stateRootBatchHeader",
              "type": "tuple"
            },
            {
              "components": [
                {
                  "internalType": "uint256",
                  "name": "index",
                  "type": "uint256"
                },
                {
                  "internalType": "bytes32[]",
                  "name": "siblings",
                  "type": "bytes32[]"
                }
              ],
              "internalType": "struct Lib_BVMCodec.ChainInclusionProof",
              "name": "stateRootProof",
              "type": "tuple"
            },
            {
              "internalType": "bytes",
              "name": "stateTrieWitness",
              "type": "bytes"
            },
            {
              "internalType": "bytes",
              "name": "storageTrieWitness",
              "type": "bytes"
            }
          ],
          "internalType": "struct IL1CrossDomainMessenger.L2MessageInclusionProof",
          "name": "_proof",
          "type": "tuple"
        }
      ],
      "name": "relayMessage",
      "outputs": [],
      "stateMutability": "nonpayable",
      "type": "function"
    },
    {
      "inputs": [
        {
          "internalType": "bytes32",
          "name": "",
          "type": "bytes32"
        }
      ],
      "name": "relayedMessages",
      "outputs": [
        {
          "internalType": "bool",
          "name": "",
          "type": "bool"
        }
      ],
      "stateMutability": "view",
      "type": "function"
    },
    {
      "inputs": [],
      "name": "renounceOwnership",
      "outputs": [],
      "stateMutability": "nonpayable",
      "type": "function"
    },
    {
      "inputs": [
        {
          "internalType": "address",
          "name": "_target",
          "type": "address"
        },
        {
          "internalType": "address",
          "name": "_sender",
          "type": "address"
        },
        {
          "internalType": "bytes",
          "name": "_message",
          "type": "bytes"
        },
        {
          "internalType": "uint256",
          "name": "_queueIndex",
          "type": "uint256"
        },
        {
          "internalType": "uint32",
          "name": "_oldGasLimit",
          "type": "uint32"
        },
        {
          "internalType": "uint32",
          "name": "_newGasLimit",
          "type": "uint32"
        }
      ],
      "name": "replayMessage",
      "outputs": [],
      "stateMutability": "nonpayable",
      "type": "function"
    },
    {
      "inputs": [
        {
          "internalType": "string",
          "name": "_name",
          "type": "string"
        }
      ],
      "name": "resolve",
      "outputs": [
        {
          "internalType": "address",
          "name": "",
          "type": "address"
        }
      ],
      "stateMutability": "view",
      "type": "function"
    },
    {
      "inputs": [
        {
          "internalType": "address",
          "name": "_target",
          "type": "address"
        },
        {
          "internalType": "bytes",
          "name": "_message",
          "type": "bytes"
        },
        {
          "internalType": "uint32",
          "name": "_gasLimit",
          "type": "uint32"
        }
      ],
      "name": "sendMessage",
      "outputs": [],
      "stateMutability": "nonpayable",
      "type": "function"
    },
    {
      "inputs": [
        {
          "internalType": "address",
          "name": "_pauseOwner",
          "type": "address"
        }
      ],
      "name": "setPauseOwner",
      "outputs": [],
      "stateMutability": "nonpayable",
      "type": "function"
    },
    {
      "inputs": [
        {
          "internalType": "bytes32",
          "name": "",
          "type": "bytes32"
        }
      ],
      "name": "successfulMessages",
      "outputs": [
        {
          "internalType": "bool",
          "name": "",
          "type": "bool"
        }
      ],
      "stateMutability": "view",
      "type": "function"
    },
    {
      "inputs": [
        {
          "internalType": "address",
          "name": "newOwner",
          "type": "address"
        }
      ],
      "name": "transferOwnership",
      "outputs": [],
      "stateMutability": "nonpayable",
      "type": "function"
    },
    {
      "inputs": [],
      "name": "unpause",
      "outputs": [],
      "stateMutability": "nonpayable",
      "type": "function"
    },
    {
      "inputs": [],
      "name": "xDomainMessageSender",
      "outputs": [
        {
          "internalType": "address",
          "name": "",
          "type": "address"
        }
      ],
      "stateMutability": "view",
      "type": "function"
    }
  ],
  "transactionHash": "0xc22176056f3161a7a5ecb8350356003e9cf7690273fa357fb576e4efe35eb902",
  "args": [],
  "numDeployments": 1,
  "solcInputHash": "42c29c8929b6c579c5e67cf325c12a57",
  "bytecode": "0x608060405260cc80546001600160a01b03191661dead17905534801561002457600080fd5b50600080546001600160a01b0319169055613266806100446000396000f3fe608060405234801561001057600080fd5b50600436106101375760003560e01c80637738034c116100b8578063b1b1b2091161007c578063b1b1b20914610255578063c4d66de814610278578063c6b94ab01461028b578063cba4c652146102ae578063d9ce1901146102c1578063f2fde38b146102d457600080fd5b80637738034c1461021057806381ada46c146102185780638456cb591461022b5780638da5cb5b146102335780638ec6a68a1461024457600080fd5b8063461a4478116100ff578063461a4478146101cf5780635c975abb146101e25780636e296e45146101ed5780636f1c8d47146101f5578063715018a61461020857600080fd5b80630ecf2eea1461013c57806321d800ec14610151578063299ca478146101895780633dbb202b146101b45780633f4ba83a146101c7575b600080fd5b61014f61014a3660046127c9565b6102e7565b005b61017461015f3660046127c9565b60ca6020526000908152604090205460ff1681565b60405190151581526020015b60405180910390f35b60005461019c906001600160a01b031681565b6040516001600160a01b039091168152602001610180565b61014f6101c2366004612939565b610332565b61014f61045c565b61019c6101dd366004612998565b61046e565b60655460ff16610174565b61019c6104f5565b61014f6102033660046129e8565b61056a565b61014f610704565b61014f610716565b61014f6102263660046127c9565b610778565b61014f6107c0565b6033546001600160a01b031661019c565b60cd546001600160a01b031661019c565b6101746102633660046127c9565b60cb6020526000908152604090205460ff1681565b61014f610286366004612a73565b6107c8565b6101746102993660046127c9565b60c96020526000908152604090205460ff1681565b61014f6102bc366004612a73565b6109a4565b61014f6102cf366004612be1565b6109ce565b61014f6102e2366004612a73565b610daa565b6102ef610e23565b600081815260c96020526040808220805460ff191660011790555182917ff52508d5339edf0d7e5060a416df98db067af561bdc60872d29c0439eaa13a0291a250565b600061036e6040518060400160405280601981526020017821b0b737b734b1b0b62a3930b739b0b1ba34b7b721b430b4b760391b81525061046e565b90506000816001600160a01b031663b8f770056040518163ffffffff1660e01b815260040160206040518083038186803b1580156103ab57600080fd5b505afa1580156103bf573d6000803e3d6000fd5b505050506040513d601f19601f820116820180604052508101906103e39190612d2e565b905060006103fa8633878564ffffffffff16610e7d565b905061040d83828663ffffffff16610eca565b856001600160a01b03167fcb0f7ffd78f9aee47a248fae8db181db6eee833039123e026dcbff529522e52a3387858860405161044c9493929190612da5565b60405180910390a2505050505050565b610464610e23565b61046c610f38565b565b6000805460405163bf40fac160e01b81526001600160a01b039091169063bf40fac19061049f908590600401612ded565b60206040518083038186803b1580156104b757600080fd5b505afa1580156104cb573d6000803e3d6000fd5b505050506040513d601f19601f820116820180604052508101906104ef9190612e00565b92915050565b60cc546000906001600160a01b031661dead141561055a5760405162461bcd60e51b815260206004820152601f60248201527f78446f6d61696e4d65737361676553656e646572206973206e6f74207365740060448201526064015b60405180910390fd5b5060cc546001600160a01b031690565b60006105a66040518060400160405280601981526020017821b0b737b734b1b0b62a3930b739b0b1ba34b7b721b430b4b760391b81525061046e565b60405163153f8c5f60e11b8152600481018690529091506000906001600160a01b03831690632a7f18be9060240160606040518083038186803b1580156105ec57600080fd5b505afa158015610600573d6000803e3d6000fd5b505050506040513d601f19601f820116820180604052508101906106249190612e1d565b9050600061063489898989610e7d565b9050600073111100000000000000000000000000000000111130016007602160991b01878460405160200161066c9493929190612e81565b604051602081830303815290604052805190602001209050826000015181146106e75760405162461bcd60e51b815260206004820152602760248201527f50726f7669646564206d65737361676520686173206e6f74206265656e20656e60448201526638bab2bab2b21760c91b6064820152608401610551565b6106f884838763ffffffff16610eca565b50505050505050505050565b61070c610e23565b61046c6000610f8a565b60cd546001600160a01b031633146107705760405162461bcd60e51b815260206004820181905260248201527f6d73672e73656e6465722073686f756c652062652070617573656f776e65722e6044820152606401610551565b61046c610fdc565b610780610e23565b600081815260c96020526040808220805460ff191690555182917f52c8a2680a9f4cc0ad0bf88f32096eadbebf0646ea611d93a0ce6a29a024040591a250565b610770610e23565b600054600160a81b900460ff16158080156107f057506000546001600160a01b90910460ff16105b806108115750303b1580156108115750600054600160a01b900460ff166001145b6108745760405162461bcd60e51b815260206004820152602e60248201527f496e697469616c697a61626c653a20636f6e747261637420697320616c72656160448201526d191e481a5b9a5d1a585b1a5e995960921b6064820152608401610551565b6000805460ff60a01b1916600160a01b17905580156108a1576000805460ff60a81b1916600160a81b1790555b6000546001600160a01b03161561090d5760405162461bcd60e51b815260206004820152602a60248201527f4c3143726f7373446f6d61696e4d657373656e67657220616c72656164792069604482015269373a34b0b634bd32b21760b11b6064820152608401610551565b600080546001600160a01b0384166001600160a01b03199182161790915560cc805490911661dead179055610940611019565b610948611042565b610950611074565b6109586110a9565b80156109a0576000805460ff60a81b19169055604051600181527f7f26b83ff96e1f2b6a682f133852f6798a09c465da95921460cefb38474024989060200160405180910390a15b5050565b6109ac610e23565b60cd80546001600160a01b0319166001600160a01b0392909216919091179055565b60026097541415610a215760405162461bcd60e51b815260206004820152601f60248201527f5265656e7472616e637947756172643a207265656e7472616e742063616c6c006044820152606401610551565b6002609755610a2e6110d9565b6000610a3c86868686610e7d565b9050610a48818361111f565b1515600114610aa95760405162461bcd60e51b815260206004820152602760248201527f50726f7669646564206d65737361676520636f756c64206e6f742062652076656044820152663934b334b2b21760c91b6064820152608401610551565b8051602080830191909120600081815260cb90925260409091205460ff1615610b285760405162461bcd60e51b815260206004820152602b60248201527f50726f7669646564206d6573736167652068617320616c72656164792062656560448201526a37103932b1b2b4bb32b21760a91b6064820152608401610551565b600081815260c9602052604090205460ff1615610b925760405162461bcd60e51b815260206004820152602260248201527f50726f7669646564206d65737361676520686173206265656e20626c6f636b65604482015261321760f11b6064820152608401610551565b610bcc6040518060400160405280601981526020017821b0b737b734b1b0b62a3930b739b0b1ba34b7b721b430b4b760391b81525061046e565b6001600160a01b0316876001600160a01b03161415610c495760405162461bcd60e51b815260206004820152603360248201527f43616e6e6f742073656e64204c322d3e4c31206d6573736167657320746f204c604482015272189039bcb9ba32b69031b7b73a3930b1ba399760691b6064820152608401610551565b60cc80546001600160a01b0319166001600160a01b0388811691909117909155604051600091891690610c7d908890612eb9565b6000604051808303816000865af19150503d8060008114610cba576040519150601f19603f3d011682016040523d82523d6000602084013e610cbf565b606091505b505060cc80546001600160a01b03191661dead179055905080151560011415610d2757600082815260cb6020526040808220805460ff191660011790555183917f4641df4a962071e12719d8c8c8e5ac7fc4d97b927346a3d7a335b1f7517e133c91a2610d53565b60405182907f99d0e048484baa1b1540b1367cb128acd7ab2946d1ed91ec10e3c85e4bf51b8f90600090a25b6000833343604051602001610d6a93929190612ed5565b60408051601f198184030181529181528151602092830120600090815260ca9092529020805460ff19166001908117909155609755505050505050505050565b610db2610e23565b6001600160a01b038116610e175760405162461bcd60e51b815260206004820152602660248201527f4f776e61626c653a206e6577206f776e657220697320746865207a65726f206160448201526564647265737360d01b6064820152608401610551565b610e2081610f8a565b50565b6033546001600160a01b0316331461046c5760405162461bcd60e51b815260206004820181905260248201527f4f776e61626c653a2063616c6c6572206973206e6f7420746865206f776e65726044820152606401610551565b606084848484604051602401610e969493929190612f14565b60408051601f198184030181529190526020810180516001600160e01b031663cbd4ece960e01b1790529050949350505050565b60405163037f703f60e51b81526001600160a01b03841690636fee07e090610f01906007602160991b019085908790600401612f51565b600060405180830381600087803b158015610f1b57600080fd5b505af1158015610f2f573d6000803e3d6000fd5b50505050505050565b610f40611142565b6065805460ff191690557f5db9ee0a495bf2e6ff9c91a7834c1ba4fdd244a5e8aa4e537bd38aeae4b073aa335b6040516001600160a01b03909116815260200160405180910390a1565b603380546001600160a01b038381166001600160a01b0319831681179093556040519116919082907f8be0079c531659141344cd1fd0a4f28419497f9722a3daafe3b4186f6b6457e090600090a35050565b610fe46110d9565b6065805460ff191660011790557f62e78cea01bee320cd4e420270b5ea74000d11b0c9f74754ebdbfc544b05a258610f6d3390565b600054600160a81b900460ff1661046c5760405162461bcd60e51b815260040161055190612f78565b600054600160a81b900460ff1661106b5760405162461bcd60e51b815260040161055190612f78565b61046c33610f8a565b600054600160a81b900460ff1661109d5760405162461bcd60e51b815260040161055190612f78565b6065805460ff19169055565b600054600160a81b900460ff166110d25760405162461bcd60e51b815260040161055190612f78565b6001609755565b60655460ff161561046c5760405162461bcd60e51b815260206004820152601060248201526f14185d5cd8589b194e881c185d5cd95960821b6044820152606401610551565b600061112a8261118b565b801561113b575061113b83836112d8565b9392505050565b60655460ff1661046c5760405162461bcd60e51b815260206004820152601460248201527314185d5cd8589b194e881b9bdd081c185d5cd95960621b6044820152606401610551565b6000806111c36040518060400160405280601481526020017329ba30ba32a1b7b6b6b4ba36b2b73a21b430b4b760611b81525061046e565b602084015160405163011343b360e71b81529192506001600160a01b038316916389a1d980916111f591600401613019565b60206040518083038186803b15801561120d57600080fd5b505afa158015611221573d6000803e3d6000fd5b505050506040513d601f19601f82011682018060405250810190611245919061302c565b15801561113b575082516020840151604080860151905163b768bb1760e01b81526001600160a01b0385169363b768bb179361128893919290919060040161304e565b60206040518083038186803b1580156112a057600080fd5b505afa1580156112b4573d6000803e3d6000fd5b505050506040513d601f19601f8201168201806040525081019061113b919061302c565b600080836007602160991b016040516020016112f59291906130c6565b60408051601f1981840301815282825280516020918201209083015260009082015260600160408051601f19818403018152908290528051602091820120602160f91b91830191909152915060009081906113699060340160408051601f1981840301815291905260608701518751611467565b90925090506001821515146113fc5760405162461bcd60e51b815260206004820152604d60248201527f4d6573736167652070617373696e67207072656465706c6f7920686173206e6f60448201527f74206265656e20696e697469616c697a6564206f7220696e76616c696420707260648201526c37b7b310383937bb34b232b21760991b608482015260a401610551565b600061140782611490565b905061145c8460405160200161141f91815260200190565b60408051601f1981840301815290829052600160f81b60208301529060210160405160208183030381529060405288608001518460400151611554565b979650505050505050565b60006060600061147686611578565b90506114838186866115aa565b9250925050935093915050565b6040805160808101825260008082526020820181905291810182905260608101829052906114bd83611685565b905060405180608001604052806114ed836000815181106114e0576114e06130fd565b60200260200101516116b8565b8152602001611508836001815181106114e0576114e06130fd565b815260200161153083600281518110611523576115236130fd565b60200260200101516116bf565b815260200161154b83600381518110611523576115236130fd565b90529392505050565b60008061156086611578565b905061156e818686866117c1565b9695505050505050565b6060818051906020012060405160200161159491815260200190565b6040516020818303038152906040529050919050565b6000606060006115b9856117f7565b905060008060006115cb848a896118f1565b815192955090935091501580806115df5750815b61162b5760405162461bcd60e51b815260206004820152601a60248201527f50726f76696465642070726f6f6620697320696e76616c69642e0000000000006044820152606401610551565b6000816116475760405180602001604052806000815250611673565b61167386611656600188613129565b81518110611666576116666130fd565b6020026020010151611d15565b919b919a509098505050505050505050565b6040805180820182526000808252602091820152815180830190925282518252808301908201526060906104ef90611d3f565b60006104ef825b60006021826000015111156117165760405162461bcd60e51b815260206004820152601a60248201527f496e76616c696420524c5020627974657333322076616c75652e0000000000006044820152606401610551565b600080600061172485611f2b565b91945092509050600081600181111561173f5761173f613140565b1461178c5760405162461bcd60e51b815260206004820152601a60248201527f496e76616c696420524c5020627974657333322076616c75652e0000000000006044820152606401610551565b600083866020015161179e9190613156565b8051909150602084101561156e5760208490036101000a90049695505050505050565b60008060006117d18786866115aa565b9150915081801561145c575080516020808301919091208751918801919091201461145c565b6060600061180483611685565b9050600081516001600160401b03811115611821576118216127f7565b60405190808252806020026020018201604052801561186657816020015b604080518082019091526060808252602082015281526020019060019003908161183f5790505b50905060005b82518110156118e957600061189984838151811061188c5761188c6130fd565b6020026020010151612275565b905060405180604001604052808281526020016118b583611685565b8152508383815181106118ca576118ca6130fd565b60200260200101819052505080806118e19061316e565b91505061186c565b509392505050565b6000606081808061190187612305565b90506000869050600080611928604051806040016040528060608152602001606081525090565b60005b8c51811015611ced578c8181518110611946576119466130fd565b60200260200101519150828461195c9190613156565b9350611969600188613156565b9650836119c1578151805160209091012085146119bc5760405162461bcd60e51b8152602060048201526011602482015270092dcecc2d8d2c840e4dedee840d0c2e6d607b1b6044820152606401610551565b611a7e565b815151602011611a23578151805160209091012085146119bc5760405162461bcd60e51b815260206004820152601b60248201527f496e76616c6964206c6172676520696e7465726e616c206861736800000000006044820152606401610551565b84611a31836000015161243f565b14611a7e5760405162461bcd60e51b815260206004820152601a60248201527f496e76616c696420696e7465726e616c206e6f646520686173680000000000006044820152606401610551565b611a8a60106001613156565b8260200151511415611b03578551841415611aa457611ced565b6000868581518110611ab857611ab86130fd565b602001015160f81c60f81b60f81c9050600083602001518260ff1681518110611ae357611ae36130fd565b60200260200101519050611af681612467565b9650600194505050611cdb565b60028260200151511415611c93576000611b1c8361249d565b9050600081600081518110611b3357611b336130fd565b016020015160f81c90506000611b4a60028361319f565b611b559060026131c1565b90506000611b66848360ff166124c1565b90506000611b748b8a6124c1565b90506000611b8283836124f7565b905060ff851660021480611b99575060ff85166003145b15611bd357808351148015611bae5750808251145b15611bc057611bbd818b613156565b99505b50600160ff1b9950611ced945050505050565b60ff85161580611be6575060ff85166001145b15611c3c5782518114611c065750600160ff1b9950611ced945050505050565b611c2d8860200151600181518110611c2057611c206130fd565b6020026020010151612467565b9a509750611cdb945050505050565b60405162461bcd60e51b815260206004820152602660248201527f52656365697665642061206e6f6465207769746820616e20756e6b6e6f776e206044820152650e0e4caccd2f60d31b6064820152608401610551565b60405162461bcd60e51b815260206004820152601d60248201527f526563656976656420616e20756e706172736561626c65206e6f64652e0000006044820152606401610551565b80611ce58161316e565b91505061192b565b50600160ff1b841486611d0087866124c1565b909e909d50909b509950505050505050505050565b602081015180516060916104ef91611d2f90600190613129565b8151811061188c5761188c6130fd565b6060600080611d4d84611f2b565b91935090915060019050816001811115611d6957611d69613140565b14611db65760405162461bcd60e51b815260206004820152601760248201527f496e76616c696420524c50206c6973742076616c75652e0000000000000000006044820152606401610551565b6040805160208082526104208201909252600091816020015b6040805180820190915260008082526020820152815260200190600190039081611dcf5790505090506000835b8651811015611f205760208210611e685760405162461bcd60e51b815260206004820152602a60248201527f50726f766964656420524c50206c6973742065786365656473206d6178206c6960448201526939ba103632b733ba341760b11b6064820152608401610551565b600080611ea56040518060400160405280858c60000151611e899190613129565b8152602001858c60200151611e9e9190613156565b9052611f2b565b509150915060405180604001604052808383611ec19190613156565b8152602001848b60200151611ed69190613156565b815250858581518110611eeb57611eeb6130fd565b6020908102919091010152611f01600185613156565b9350611f0d8183613156565b611f179084613156565b92505050611dfc565b508152949350505050565b600080600080846000015111611f835760405162461bcd60e51b815260206004820152601860248201527f524c50206974656d2063616e6e6f74206265206e756c6c2e00000000000000006044820152606401610551565b6020840151805160001a607f8111611fa857600060016000945094509450505061226e565b60b78111612024576000611fbd608083613129565b9050808760000151116120125760405162461bcd60e51b815260206004820152601960248201527f496e76616c696420524c502073686f727420737472696e672e000000000000006044820152606401610551565b6001955093506000925061226e915050565b60bf811161211357600061203960b783613129565b90508087600001511161208e5760405162461bcd60e51b815260206004820152601f60248201527f496e76616c696420524c50206c6f6e6720737472696e67206c656e6774682e006044820152606401610551565b600183015160208290036101000a90046120a88183613156565b8851116120f75760405162461bcd60e51b815260206004820152601860248201527f496e76616c696420524c50206c6f6e6720737472696e672e00000000000000006044820152606401610551565b612102826001613156565b965094506000935061226e92505050565b60f7811161218e57600061212860c083613129565b90508087600001511161217d5760405162461bcd60e51b815260206004820152601760248201527f496e76616c696420524c502073686f7274206c6973742e0000000000000000006044820152606401610551565b60019550935084925061226e915050565b600061219b60f783613129565b9050808760000151116121f05760405162461bcd60e51b815260206004820152601d60248201527f496e76616c696420524c50206c6f6e67206c697374206c656e6774682e0000006044820152606401610551565b600183015160208290036101000a900461220a8183613156565b8851116122525760405162461bcd60e51b815260206004820152601660248201527524b73b30b634b210292628103637b733903634b9ba1760511b6044820152606401610551565b61225d826001613156565b965094506001935061226e92505050565b9193909250565b6060600080600061228585611f2b565b9194509250905060008160018111156122a0576122a0613140565b146122ed5760405162461bcd60e51b815260206004820152601860248201527f496e76616c696420524c502062797465732076616c75652e00000000000000006044820152606401610551565b6122fc85602001518484612573565b95945050505050565b606060008251600261231791906131e4565b6001600160401b0381111561232e5761232e6127f7565b6040519080825280601f01601f191660200182016040528015612358576020820181803683370190505b50905060005b835181101561243857600484828151811061237b5761237b6130fd565b01602001516001600160f81b031916901c826123988360026131e4565b815181106123a8576123a86130fd565b60200101906001600160f81b031916908160001a90535060108482815181106123d3576123d36130fd565b01602001516123e5919060f81c61319f565b60f81b826123f48360026131e4565b6123ff906001613156565b8151811061240f5761240f6130fd565b60200101906001600160f81b031916908160001a905350806124308161316e565b91505061235e565b5092915050565b600060208251101561245357506020015190565b818060200190518101906104ef9190613203565b600060606020836000015110156124885761248183612651565b9050612494565b61249183612275565b90505b61113b8161243f565b60606104ef6124bc836020015160008151811061188c5761188c6130fd565b612305565b6060825182106124e057506040805160208101909152600081526104ef565b61113b83838486516124f29190613129565b61265c565b6000805b80845111801561250b5750808351115b801561255c5750828181518110612524576125246130fd565b602001015160f81c60f81b6001600160f81b03191684828151811061254b5761254b6130fd565b01602001516001600160f81b031916145b1561113b578061256b8161316e565b9150506124fb565b60606000826001600160401b0381111561258f5761258f6127f7565b6040519080825280601f01601f1916602001820160405280156125b9576020820181803683370190505b5090508051600014156125cd57905061113b565b60006125d98587613156565b90506020820160005b6125ed60208761321c565b8110156126245782518252612603602084613156565b9250612610602083613156565b91508061261c8161316e565b9150506125e2565b5060006001602087066020036101000a039050808251168119845116178252839450505050509392505050565b60606104ef826127b3565b60608161266a81601f613156565b10156126a95760405162461bcd60e51b815260206004820152600e60248201526d736c6963655f6f766572666c6f7760901b6044820152606401610551565b826126b48382613156565b10156126f35760405162461bcd60e51b815260206004820152600e60248201526d736c6963655f6f766572666c6f7760901b6044820152606401610551565b6126fd8284613156565b845110156127415760405162461bcd60e51b8152602060048201526011602482015270736c6963655f6f75744f66426f756e647360781b6044820152606401610551565b60608215801561276057604051915060008252602082016040526127aa565b6040519150601f8416801560200281840101858101878315602002848b0101015b81831015612799578051835260209283019201612781565b5050858452601f01601f1916604052505b50949350505050565b60606104ef826020015160008460000151612573565b6000602082840312156127db57600080fd5b5035919050565b6001600160a01b0381168114610e2057600080fd5b634e487b7160e01b600052604160045260246000fd5b60405160c081016001600160401b038111828210171561282f5761282f6127f7565b60405290565b604080519081016001600160401b038111828210171561282f5761282f6127f7565b60405160a081016001600160401b038111828210171561282f5761282f6127f7565b604051601f8201601f191681016001600160401b03811182821017156128a1576128a16127f7565b604052919050565b60006001600160401b038311156128c2576128c26127f7565b6128d5601f8401601f1916602001612879565b90508281528383830111156128e957600080fd5b828260208301376000602084830101529392505050565b600082601f83011261291157600080fd5b61113b838335602085016128a9565b803563ffffffff8116811461293457600080fd5b919050565b60008060006060848603121561294e57600080fd5b8335612959816127e2565b925060208401356001600160401b0381111561297457600080fd5b61298086828701612900565b92505061298f60408501612920565b90509250925092565b6000602082840312156129aa57600080fd5b81356001600160401b038111156129c057600080fd5b8201601f810184136129d157600080fd5b6129e0848235602084016128a9565b949350505050565b60008060008060008060c08789031215612a0157600080fd5b8635612a0c816127e2565b95506020870135612a1c816127e2565b945060408701356001600160401b03811115612a3757600080fd5b612a4389828a01612900565b94505060608701359250612a5960808801612920565b9150612a6760a08801612920565b90509295509295509295565b600060208284031215612a8557600080fd5b813561113b816127e2565b600060c08284031215612aa257600080fd5b612aaa61280d565b90508135815260208201356020820152604082013560408201526060820135606082015260808201356001600160401b0380821115612ae857600080fd5b612af485838601612900565b608084015260a0840135915080821115612b0d57600080fd5b50612b1a84828501612900565b60a08301525092915050565b600060408284031215612b3857600080fd5b612b40612835565b9050813581526020808301356001600160401b0380821115612b6157600080fd5b818501915085601f830112612b7557600080fd5b813581811115612b8757612b876127f7565b8060051b9150612b98848301612879565b8181529183018401918481019088841115612bb257600080fd5b938501935b83851015612bd057843582529385019390850190612bb7565b808688015250505050505092915050565b600080600080600060a08688031215612bf957600080fd5b8535612c04816127e2565b94506020860135612c14816127e2565b935060408601356001600160401b0380821115612c3057600080fd5b612c3c89838a01612900565b9450606088013593506080880135915080821115612c5957600080fd5b9087019060a0828a031215612c6d57600080fd5b612c75612857565b82358152602083013582811115612c8b57600080fd5b612c978b828601612a90565b602083015250604083013582811115612caf57600080fd5b612cbb8b828601612b26565b604083015250606083013582811115612cd357600080fd5b612cdf8b828601612900565b606083015250608083013582811115612cf757600080fd5b612d038b828601612900565b6080830152508093505050509295509295909350565b805164ffffffffff8116811461293457600080fd5b600060208284031215612d4057600080fd5b61113b82612d19565b60005b83811015612d64578181015183820152602001612d4c565b83811115612d73576000848401525b50505050565b60008151808452612d91816020860160208601612d49565b601f01601f19169290920160200192915050565b6001600160a01b0385168152608060208201819052600090612dc990830186612d79565b905064ffffffffff8416604083015263ffffffff8316606083015295945050505050565b60208152600061113b6020830184612d79565b600060208284031215612e1257600080fd5b815161113b816127e2565b600060608284031215612e2f57600080fd5b604051606081018181106001600160401b0382111715612e5157612e516127f7565b60405282518152612e6460208401612d19565b6020820152612e7560408401612d19565b60408201529392505050565b6001600160a01b0385811682528416602082015263ffffffff8316604082015260806060820181905260009061156e90830184612d79565b60008251612ecb818460208701612d49565b9190910192915050565b60008451612ee7818460208901612d49565b60609490941b6bffffffffffffffffffffffff191691909301908152601481019190915260340192915050565b6001600160a01b03858116825284166020820152608060408201819052600090612f4090830185612d79565b905082606083015295945050505050565b60018060a01b03841681528260208201526060604082015260006122fc6060830184612d79565b6020808252602b908201527f496e697469616c697a61626c653a20636f6e7472616374206973206e6f74206960408201526a6e697469616c697a696e6760a81b606082015260800190565b805182526020810151602083015260408101516040830152606081015160608301526000608082015160c0608085015261300060c0850182612d79565b905060a083015184820360a08601526122fc8282612d79565b60208152600061113b6020830184612fc3565b60006020828403121561303e57600080fd5b8151801515811461113b57600080fd5b838152600060206060818401526130686060840186612fc3565b83810360408501526040810185518252828601516040848401528181518084526060850191508583019450600093505b808410156130b85784518252938501936001939093019290850190613098565b509998505050505050505050565b600083516130d8818460208801612d49565b60609390931b6bffffffffffffffffffffffff19169190920190815260140192915050565b634e487b7160e01b600052603260045260246000fd5b634e487b7160e01b600052601160045260246000fd5b60008282101561313b5761313b613113565b500390565b634e487b7160e01b600052602160045260246000fd5b6000821982111561316957613169613113565b500190565b600060001982141561318257613182613113565b5060010190565b634e487b7160e01b600052601260045260246000fd5b600060ff8316806131b2576131b2613189565b8060ff84160691505092915050565b600060ff821660ff8416808210156131db576131db613113565b90039392505050565b60008160001904831182151516156131fe576131fe613113565b500290565b60006020828403121561321557600080fd5b5051919050565b60008261322b5761322b613189565b50049056fea264697066735822122063c7024ca7ded8cdabced3c0d4897e94132ae114a75718c668aa1bf77465918864736f6c63430008090033",
  "devdoc": {
    "details": "The L1 Cross Domain Messenger contract sends messages from L1 to L2, and relays messages from L2 onto L1. In the event that a message sent from L1 to L2 is rejected for exceeding the L2 epoch gas limit, it can be resubmitted via this contract's replay function.",
    "kind": "dev",
    "methods": {
      "allowMessage(bytes32)": {
        "params": {
          "_xDomainCalldataHash": "Hash of the message to block."
        }
      },
      "blockMessage(bytes32)": {
        "params": {
          "_xDomainCalldataHash": "Hash of the message to block."
        }
      },
      "initialize(address)": {
        "params": {
          "_libAddressManager": "Address of the Address Manager."
        }
      },
      "owner()": {
        "details": "Returns the address of the current owner."
      },
      "paused()": {
        "details": "Returns true if the contract is paused, and false otherwise."
      },
      "relayMessage(address,address,bytes,uint256,(bytes32,(uint256,bytes32,uint256,uint256,bytes,bytes),(uint256,bytes32[]),bytes,bytes))": {
        "params": {
          "_message": "Message to send to the target.",
          "_messageNonce": "Nonce for the provided message.",
          "_proof": "Inclusion proof for the given message.",
          "_sender": "Message sender address.",
          "_target": "Target contract address."
        }
      },
      "renounceOwnership()": {
        "details": "Leaves the contract without owner. It will not be possible to call `onlyOwner` functions anymore. Can only be called by the current owner. NOTE: Renouncing ownership will leave the contract without an owner, thereby removing any functionality that is only available to the owner."
      },
      "replayMessage(address,address,bytes,uint256,uint32,uint32)": {
        "params": {
          "_message": "Message to send to the target.",
          "_newGasLimit": "New gas limit to be used for this message.",
          "_oldGasLimit": "Original gas limit used to send the message.",
          "_queueIndex": "CTC Queue index for the message to replay.",
          "_sender": "Original sender address.",
          "_target": "Target contract address."
        }
      },
      "resolve(string)": {
        "params": {
          "_name": "Name to resolve an address for."
        },
        "returns": {
          "_0": "Address associated with the given name."
        }
      },
      "sendMessage(address,bytes,uint32)": {
        "params": {
          "_gasLimit": "Gas limit for the provided message.",
          "_message": "Message to send to the target.",
          "_target": "Target contract address."
        }
      },
      "transferOwnership(address)": {
        "details": "Transfers ownership of the contract to a new account (`newOwner`). Can only be called by the current owner."
      }
    },
    "title": "L1CrossDomainMessenger",
    "version": 1
  },
  "userdoc": {
    "kind": "user",
    "methods": {
      "allowMessage(bytes32)": {
        "notice": "Allow a message."
      },
      "blockMessage(bytes32)": {
        "notice": "Block a message."
      },
      "constructor": {
        "notice": "This contract is intended to be behind a delegate proxy. We pass the zero address to the address resolver just to satisfy the constructor. We still need to set this value in initialize()."
      },
      "pause()": {
        "notice": "Pause relaying."
      },
      "relayMessage(address,address,bytes,uint256,(bytes32,(uint256,bytes32,uint256,uint256,bytes,bytes),(uint256,bytes32[]),bytes,bytes))": {
        "notice": "Relays a cross domain message to a contract."
      },
      "replayMessage(address,address,bytes,uint256,uint32,uint32)": {
        "notice": "Replays a cross domain message to the target messenger."
      },
      "resolve(string)": {
        "notice": "Resolves the address associated with a given name."
      },
      "sendMessage(address,bytes,uint32)": {
        "notice": "Sends a cross domain message to the target messenger."
      },
      "unpause()": {
        "notice": "UnPause relaying."
      }
    },
    "version": 1
  },
  "storageLayout": {
    "storage": [
      {
        "astId": 52622,
        "contract": "contracts/L1/messaging/L1CrossDomainMessenger.sol:L1CrossDomainMessenger",
        "label": "libAddressManager",
        "offset": 0,
        "slot": "0",
        "type": "t_contract(Lib_AddressManager)52614"
      },
      {
        "astId": 216,
        "contract": "contracts/L1/messaging/L1CrossDomainMessenger.sol:L1CrossDomainMessenger",
        "label": "_initialized",
        "offset": 20,
        "slot": "0",
        "type": "t_uint8"
      },
      {
        "astId": 219,
        "contract": "contracts/L1/messaging/L1CrossDomainMessenger.sol:L1CrossDomainMessenger",
        "label": "_initializing",
        "offset": 21,
        "slot": "0",
        "type": "t_bool"
      },
      {
        "astId": 2492,
        "contract": "contracts/L1/messaging/L1CrossDomainMessenger.sol:L1CrossDomainMessenger",
        "label": "__gap",
        "offset": 0,
        "slot": "1",
        "type": "t_array(t_uint256)50_storage"
      },
      {
        "astId": 10,
        "contract": "contracts/L1/messaging/L1CrossDomainMessenger.sol:L1CrossDomainMessenger",
        "label": "_owner",
        "offset": 0,
        "slot": "51",
        "type": "t_address"
      },
      {
        "astId": 130,
        "contract": "contracts/L1/messaging/L1CrossDomainMessenger.sol:L1CrossDomainMessenger",
        "label": "__gap",
        "offset": 0,
        "slot": "52",
        "type": "t_array(t_uint256)49_storage"
      },
      {
        "astId": 381,
        "contract": "contracts/L1/messaging/L1CrossDomainMessenger.sol:L1CrossDomainMessenger",
        "label": "_paused",
        "offset": 0,
        "slot": "101",
        "type": "t_bool"
      },
      {
        "astId": 486,
        "contract": "contracts/L1/messaging/L1CrossDomainMessenger.sol:L1CrossDomainMessenger",
        "label": "__gap",
        "offset": 0,
        "slot": "102",
        "type": "t_array(t_uint256)49_storage"
      },
      {
        "astId": 501,
        "contract": "contracts/L1/messaging/L1CrossDomainMessenger.sol:L1CrossDomainMessenger",
        "label": "_status",
        "offset": 0,
        "slot": "151",
        "type": "t_uint256"
      },
      {
        "astId": 545,
        "contract": "contracts/L1/messaging/L1CrossDomainMessenger.sol:L1CrossDomainMessenger",
        "label": "__gap",
        "offset": 0,
        "slot": "152",
        "type": "t_array(t_uint256)49_storage"
      },
      {
        "astId": 37238,
        "contract": "contracts/L1/messaging/L1CrossDomainMessenger.sol:L1CrossDomainMessenger",
        "label": "blockedMessages",
        "offset": 0,
        "slot": "201",
        "type": "t_mapping(t_bytes32,t_bool)"
      },
      {
        "astId": 37242,
        "contract": "contracts/L1/messaging/L1CrossDomainMessenger.sol:L1CrossDomainMessenger",
        "label": "relayedMessages",
        "offset": 0,
        "slot": "202",
        "type": "t_mapping(t_bytes32,t_bool)"
      },
      {
        "astId": 37246,
        "contract": "contracts/L1/messaging/L1CrossDomainMessenger.sol:L1CrossDomainMessenger",
        "label": "successfulMessages",
        "offset": 0,
        "slot": "203",
        "type": "t_mapping(t_bytes32,t_bool)"
      },
      {
        "astId": 37250,
        "contract": "contracts/L1/messaging/L1CrossDomainMessenger.sol:L1CrossDomainMessenger",
        "label": "xDomainMsgSender",
        "offset": 0,
        "slot": "204",
        "type": "t_address"
      },
      {
        "astId": 37252,
        "contract": "contracts/L1/messaging/L1CrossDomainMessenger.sol:L1CrossDomainMessenger",
        "label": "pauseOwner",
        "offset": 0,
        "slot": "205",
        "type": "t_address"
      }
    ],
    "types": {
      "t_address": {
        "encoding": "inplace",
        "label": "address",
        "numberOfBytes": "20"
      },
      "t_array(t_uint256)49_storage": {
        "base": "t_uint256",
        "encoding": "inplace",
        "label": "uint256[49]",
        "numberOfBytes": "1568"
      },
      "t_array(t_uint256)50_storage": {
        "base": "t_uint256",
        "encoding": "inplace",
        "label": "uint256[50]",
        "numberOfBytes": "1600"
      },
      "t_bool": {
        "encoding": "inplace",
        "label": "bool",
        "numberOfBytes": "1"
      },
      "t_bytes32": {
        "encoding": "inplace",
        "label": "bytes32",
        "numberOfBytes": "32"
      },
      "t_contract(Lib_AddressManager)52614": {
        "encoding": "inplace",
        "label": "contract Lib_AddressManager",
        "numberOfBytes": "20"
      },
      "t_mapping(t_bytes32,t_bool)": {
        "encoding": "mapping",
        "key": "t_bytes32",
        "label": "mapping(bytes32 => bool)",
        "numberOfBytes": "32",
        "value": "t_bool"
      },
      "t_uint256": {
        "encoding": "inplace",
        "label": "uint256",
        "numberOfBytes": "32"
      },
      "t_uint8": {
        "encoding": "inplace",
        "label": "uint8",
        "numberOfBytes": "1"
      }
    }
  }
}