{
  "address": "0x242a33ca49C564caFC9C83C700b79f1074c42A0D",
  "abi": [
    {
      "inputs": [],
      "stateMutability": "nonpayable",
      "type": "constructor"
    },
    {
      "inputs": [],
      "name": "AssertionAlreadyResolved",
      "type": "error"
    },
    {
      "inputs": [],
      "name": "AssertionOutOfRange",
      "type": "error"
    },
    {
      "inputs": [],
      "name": "ChallengePeriodPending",
      "type": "error"
    },
    {
      "inputs": [],
      "name": "ChallengedStaker",
      "type": "error"
    },
    {
      "inputs": [],
      "name": "DifferentParent",
      "type": "error"
    },
    {
      "inputs": [],
      "name": "EmptyAssertion",
      "type": "error"
    },
    {
      "inputs": [
        {
          "internalType": "address",
          "name": "staker1Challenge",
          "type": "address"
        },
        {
          "internalType": "address",
          "name": "staker2Challenge",
          "type": "address"
        }
      ],
      "name": "InDifferentChallenge",
      "type": "error"
    },
    {
      "inputs": [],
      "name": "InboxReadLimitExceeded",
      "type": "error"
    },
    {
      "inputs": [],
      "name": "InsufficientStake",
      "type": "error"
    },
    {
      "inputs": [],
      "name": "InvalidParent",
      "type": "error"
    },
    {
      "inputs": [],
      "name": "MinimumAssertionPeriodNotPassed",
      "type": "error"
    },
    {
      "inputs": [],
      "name": "NoStaker",
      "type": "error"
    },
    {
      "inputs": [],
      "name": "NoUnresolvedAssertion",
      "type": "error"
    },
    {
      "inputs": [],
      "name": "NotAllStaked",
      "type": "error"
    },
    {
      "inputs": [],
      "name": "NotInChallenge",
      "type": "error"
    },
    {
      "inputs": [],
      "name": "NotStaked",
      "type": "error"
    },
    {
      "inputs": [],
      "name": "ParentAssertionUnstaked",
      "type": "error"
    },
    {
      "inputs": [],
      "name": "PreviousStateHash",
      "type": "error"
    },
    {
      "inputs": [],
      "name": "RedundantInitialized",
      "type": "error"
    },
    {
      "inputs": [],
      "name": "StakedOnUnconfirmedAssertion",
      "type": "error"
    },
    {
      "inputs": [],
      "name": "StakerStakedOnTarget",
      "type": "error"
    },
    {
      "inputs": [],
      "name": "StakersPresent",
      "type": "error"
    },
    {
      "inputs": [],
      "name": "TransferFailed",
      "type": "error"
    },
    {
      "inputs": [],
      "name": "UnproposedAssertion",
      "type": "error"
    },
    {
      "inputs": [],
      "name": "WrongOrder",
      "type": "error"
    },
    {
      "inputs": [],
      "name": "ZeroAddress",
      "type": "error"
    },
    {
      "anonymous": false,
      "inputs": [
        {
          "indexed": false,
          "internalType": "uint256",
          "name": "assertionID",
          "type": "uint256"
        },
        {
          "indexed": false,
          "internalType": "address",
          "name": "challengeAddr",
          "type": "address"
        }
      ],
      "name": "AssertionChallenged",
      "type": "event"
    },
    {
      "anonymous": false,
      "inputs": [
        {
          "indexed": false,
          "internalType": "uint256",
          "name": "assertionID",
          "type": "uint256"
        }
      ],
      "name": "AssertionConfirmed",
      "type": "event"
    },
    {
      "anonymous": false,
      "inputs": [
        {
          "indexed": false,
          "internalType": "uint256",
          "name": "assertionID",
          "type": "uint256"
        },
        {
          "indexed": false,
          "internalType": "address",
          "name": "asserterAddr",
          "type": "address"
        },
        {
          "indexed": false,
          "internalType": "bytes32",
          "name": "vmHash",
          "type": "bytes32"
        },
        {
          "indexed": false,
          "internalType": "uint256",
          "name": "inboxSize",
          "type": "uint256"
        }
      ],
      "name": "AssertionCreated",
      "type": "event"
    },
    {
      "anonymous": false,
      "inputs": [
        {
          "indexed": false,
          "internalType": "uint256",
          "name": "assertionID",
          "type": "uint256"
        }
      ],
      "name": "AssertionRejected",
      "type": "event"
    },
    {
      "anonymous": false,
      "inputs": [
        {
          "indexed": false,
          "internalType": "uint8",
          "name": "version",
          "type": "uint8"
        }
      ],
      "name": "Initialized",
      "type": "event"
    },
    {
      "anonymous": false,
      "inputs": [
        {
          "indexed": true,
          "internalType": "address",
          "name": "previousOwner",
          "type": "address"
        },
        {
          "indexed": true,
          "internalType": "address",
          "name": "newOwner",
          "type": "address"
        }
      ],
      "name": "OwnershipTransferred",
      "type": "event"
    },
    {
      "anonymous": false,
      "inputs": [
        {
          "indexed": false,
          "internalType": "address",
          "name": "stakerAddr",
          "type": "address"
        },
        {
          "indexed": false,
          "internalType": "uint256",
          "name": "assertionID",
          "type": "uint256"
        }
      ],
      "name": "StakerStaked",
      "type": "event"
    },
    {
      "inputs": [
        {
          "internalType": "address[]",
          "name": "toAddAddresses",
          "type": "address[]"
        }
      ],
      "name": "addToOperatorWhitelist",
      "outputs": [],
      "stateMutability": "nonpayable",
      "type": "function"
    },
    {
      "inputs": [
        {
          "internalType": "address[]",
          "name": "toAddAddresses",
          "type": "address[]"
        }
      ],
      "name": "addToStakerWhitelist",
      "outputs": [],
      "stateMutability": "nonpayable",
      "type": "function"
    },
    {
      "inputs": [
        {
          "internalType": "uint256",
          "name": "assertionID",
          "type": "uint256"
        }
      ],
      "name": "advanceStake",
      "outputs": [],
      "stateMutability": "nonpayable",
      "type": "function"
    },
    {
      "inputs": [],
      "name": "assertions",
      "outputs": [
        {
          "internalType": "contract AssertionMap",
          "name": "",
          "type": "address"
        }
      ],
      "stateMutability": "view",
      "type": "function"
    },
    {
      "inputs": [],
      "name": "baseStakeAmount",
      "outputs": [
        {
          "internalType": "uint256",
          "name": "",
          "type": "uint256"
        }
      ],
      "stateMutability": "view",
      "type": "function"
    },
    {
      "inputs": [
        {
          "internalType": "address[2]",
          "name": "players",
          "type": "address[2]"
        },
        {
          "internalType": "uint256[2]",
          "name": "assertionIDs",
          "type": "uint256[2]"
        }
      ],
      "name": "challengeAssertion",
      "outputs": [
        {
          "internalType": "address",
          "name": "",
          "type": "address"
        }
      ],
      "stateMutability": "nonpayable",
      "type": "function"
    },
    {
      "inputs": [],
      "name": "challengeCtx",
      "outputs": [
        {
          "internalType": "bool",
          "name": "completed",
          "type": "bool"
        },
        {
          "internalType": "address",
          "name": "challengeAddress",
          "type": "address"
        },
        {
          "internalType": "address",
          "name": "defenderAddress",
          "type": "address"
        },
        {
          "internalType": "address",
          "name": "challengerAddress",
          "type": "address"
        },
        {
          "internalType": "uint256",
          "name": "defenderAssertionID",
          "type": "uint256"
        },
        {
          "internalType": "uint256",
          "name": "challengerAssertionID",
          "type": "uint256"
        }
      ],
      "stateMutability": "view",
      "type": "function"
    },
    {
      "inputs": [
        {
          "internalType": "address",
          "name": "winner",
          "type": "address"
        },
        {
          "internalType": "address",
          "name": "loser",
          "type": "address"
        }
      ],
      "name": "completeChallenge",
      "outputs": [],
      "stateMutability": "nonpayable",
      "type": "function"
    },
    {
      "inputs": [],
      "name": "confirmFirstUnresolvedAssertion",
      "outputs": [],
      "stateMutability": "nonpayable",
      "type": "function"
    },
    {
      "inputs": [],
      "name": "confirmedInboxSize",
      "outputs": [
        {
          "internalType": "uint256",
          "name": "",
          "type": "uint256"
        }
      ],
      "stateMutability": "view",
      "type": "function"
    },
    {
      "inputs": [
        {
          "internalType": "bytes32",
          "name": "vmHash",
          "type": "bytes32"
        },
        {
          "internalType": "uint256",
          "name": "inboxSize",
          "type": "uint256"
        }
      ],
      "name": "createAssertion",
      "outputs": [],
      "stateMutability": "nonpayable",
      "type": "function"
    },
    {
      "inputs": [
        {
          "internalType": "bytes32",
          "name": "vmHash",
          "type": "bytes32"
        },
        {
          "internalType": "uint256",
          "name": "inboxSize",
          "type": "uint256"
        },
        {
          "internalType": "bytes32[]",
          "name": "_batch",
          "type": "bytes32[]"
        },
        {
          "internalType": "uint256",
          "name": "_shouldStartAtElement",
          "type": "uint256"
        },
        {
          "internalType": "bytes",
          "name": "_signature",
          "type": "bytes"
        }
      ],
      "name": "createAssertionWithStateBatch",
      "outputs": [],
      "stateMutability": "nonpayable",
      "type": "function"
    },
    {
      "inputs": [],
      "name": "currentRequiredStake",
      "outputs": [
        {
          "internalType": "uint256",
          "name": "",
          "type": "uint256"
        }
      ],
      "stateMutability": "view",
      "type": "function"
    },
    {
      "inputs": [
        {
          "internalType": "address",
          "name": "_owner",
          "type": "address"
        },
        {
          "internalType": "address",
          "name": "_verifier",
          "type": "address"
        },
        {
          "internalType": "address",
          "name": "_stakeToken",
          "type": "address"
        },
        {
          "internalType": "address",
          "name": "_libAddressManager",
          "type": "address"
        },
        {
          "internalType": "address",
          "name": "_assertionMap",
          "type": "address"
        },
        {
          "internalType": "uint256",
          "name": "_minimumAssertionPeriod",
          "type": "uint256"
        },
        {
          "internalType": "uint256",
          "name": "_baseStakeAmount",
          "type": "uint256"
        },
        {
          "internalType": "bytes32",
          "name": "_initialVMhash",
          "type": "bytes32"
        },
        {
          "internalType": "address[]",
          "name": "stakerWhitelists",
          "type": "address[]"
        },
        {
          "internalType": "address[]",
          "name": "operatorWhitelists",
          "type": "address[]"
        }
      ],
      "name": "initialize",
      "outputs": [],
      "stateMutability": "nonpayable",
      "type": "function"
    },
    {
      "inputs": [
        {
          "internalType": "address",
          "name": "addr",
          "type": "address"
        }
      ],
      "name": "isStaked",
      "outputs": [
        {
          "internalType": "bool",
          "name": "",
          "type": "bool"
        }
      ],
      "stateMutability": "view",
      "type": "function"
    },
    {
      "inputs": [],
      "name": "lastConfirmedAssertionID",
      "outputs": [
        {
          "internalType": "uint256",
          "name": "",
          "type": "uint256"
        }
      ],
      "stateMutability": "view",
      "type": "function"
    },
    {
      "inputs": [],
      "name": "lastCreatedAssertionID",
      "outputs": [
        {
          "internalType": "uint256",
          "name": "",
          "type": "uint256"
        }
      ],
      "stateMutability": "view",
      "type": "function"
    },
    {
      "inputs": [],
      "name": "lastResolvedAssertionID",
      "outputs": [
        {
          "internalType": "uint256",
          "name": "",
          "type": "uint256"
        }
      ],
      "stateMutability": "view",
      "type": "function"
    },
    {
      "inputs": [],
      "name": "libAddressManager",
      "outputs": [
        {
          "internalType": "contract Lib_AddressManager",
          "name": "",
          "type": "address"
        }
      ],
      "stateMutability": "view",
      "type": "function"
    },
    {
      "inputs": [],
      "name": "minimumAssertionPeriod",
      "outputs": [
        {
          "internalType": "uint256",
          "name": "",
          "type": "uint256"
        }
      ],
      "stateMutability": "view",
      "type": "function"
    },
    {
      "inputs": [],
      "name": "numStakers",
      "outputs": [
        {
          "internalType": "uint256",
          "name": "",
          "type": "uint256"
        }
      ],
      "stateMutability": "view",
      "type": "function"
    },
    {
      "inputs": [
        {
          "internalType": "address",
          "name": "",
          "type": "address"
        }
      ],
      "name": "operatorWhitelist",
      "outputs": [
        {
          "internalType": "uint256",
          "name": "",
          "type": "uint256"
        }
      ],
      "stateMutability": "view",
      "type": "function"
    },
    {
      "inputs": [
        {
          "internalType": "uint256",
          "name": "",
          "type": "uint256"
        }
      ],
      "name": "operatorslist",
      "outputs": [
        {
          "internalType": "address",
          "name": "",
          "type": "address"
        }
      ],
      "stateMutability": "view",
      "type": "function"
    },
    {
      "inputs": [],
      "name": "owner",
      "outputs": [
        {
          "internalType": "address",
          "name": "",
          "type": "address"
        }
      ],
      "stateMutability": "view",
      "type": "function"
    },
    {
      "inputs": [
        {
          "internalType": "address",
          "name": "",
          "type": "address"
        }
      ],
      "name": "registers",
      "outputs": [
        {
          "internalType": "address",
          "name": "",
          "type": "address"
        }
      ],
      "stateMutability": "view",
      "type": "function"
    },
    {
      "inputs": [],
      "name": "rejectFirstUnresolvedAssertion",
      "outputs": [],
      "stateMutability": "nonpayable",
      "type": "function"
    },
    {
      "inputs": [
        {
          "components": [
            {
              "internalType": "uint256",
              "name": "batchIndex",
              "type": "uint256"
            },
            {
              "internalType": "bytes32",
              "name": "batchRoot",
              "type": "bytes32"
            },
            {
              "internalType": "uint256",
              "name": "batchSize",
              "type": "uint256"
            },
            {
              "internalType": "uint256",
              "name": "prevTotalElements",
              "type": "uint256"
            },
            {
              "internalType": "bytes",
              "name": "signature",
              "type": "bytes"
            },
            {
              "internalType": "bytes",
              "name": "extraData",
              "type": "bytes"
            }
          ],
          "internalType": "struct Lib_BVMCodec.ChainBatchHeader",
          "name": "_batchHeader",
          "type": "tuple"
        }
      ],
      "name": "rejectLatestCreatedAssertionWithBatch",
      "outputs": [],
      "stateMutability": "nonpayable",
      "type": "function"
    },
    {
      "inputs": [
        {
          "internalType": "address[]",
          "name": "toRemoveAddresses",
          "type": "address[]"
        }
      ],
      "name": "removeFromOperatorWhitelist",
      "outputs": [],
      "stateMutability": "nonpayable",
      "type": "function"
    },
    {
      "inputs": [
        {
          "internalType": "address[]",
          "name": "toRemoveAddresses",
          "type": "address[]"
        }
      ],
      "name": "removeFromStakerWhitelist",
      "outputs": [],
      "stateMutability": "nonpayable",
      "type": "function"
    },
    {
      "inputs": [],
      "name": "removeOldZombies",
      "outputs": [],
      "stateMutability": "nonpayable",
      "type": "function"
    },
    {
      "inputs": [
        {
          "internalType": "address",
          "name": "stakerAddress",
          "type": "address"
        }
      ],
      "name": "removeStake",
      "outputs": [],
      "stateMutability": "nonpayable",
      "type": "function"
    },
    {
      "inputs": [
        {
          "internalType": "string",
          "name": "_name",
          "type": "string"
        }
      ],
      "name": "resolve",
      "outputs": [
        {
          "internalType": "address",
          "name": "",
          "type": "address"
        }
      ],
      "stateMutability": "view",
      "type": "function"
    },
    {
      "inputs": [
        {
          "internalType": "uint256",
          "name": "_shouldRollBack",
          "type": "uint256"
        },
        {
          "internalType": "uint256",
          "name": "_shouldStartAtElement",
          "type": "uint256"
        },
        {
          "internalType": "bytes",
          "name": "_signature",
          "type": "bytes"
        }
      ],
      "name": "rollbackL2Chain",
      "outputs": [],
      "stateMutability": "nonpayable",
      "type": "function"
    },
    {
      "inputs": [
        {
          "internalType": "uint256",
          "name": "stakeAmount",
          "type": "uint256"
        },
        {
          "internalType": "address",
          "name": "operator",
          "type": "address"
        }
      ],
      "name": "stake",
      "outputs": [],
      "stateMutability": "nonpayable",
      "type": "function"
    },
    {
      "inputs": [],
      "name": "stakeToken",
      "outputs": [
        {
          "internalType": "contract IERC20",
          "name": "",
          "type": "address"
        }
      ],
      "stateMutability": "view",
      "type": "function"
    },
    {
      "inputs": [
        {
          "internalType": "address",
          "name": "",
          "type": "address"
        }
      ],
      "name": "stakerWhitelist",
      "outputs": [
        {
          "internalType": "uint256",
          "name": "",
          "type": "uint256"
        }
      ],
      "stateMutability": "view",
      "type": "function"
    },
    {
      "inputs": [
        {
          "internalType": "address",
          "name": "",
          "type": "address"
        }
      ],
      "name": "stakers",
      "outputs": [
        {
          "internalType": "bool",
          "name": "isStaked",
          "type": "bool"
        },
        {
          "internalType": "uint256",
          "name": "amountStaked",
          "type": "uint256"
        },
        {
          "internalType": "uint256",
          "name": "assertionID",
          "type": "uint256"
        },
        {
          "internalType": "address",
          "name": "operator",
          "type": "address"
        },
        {
          "internalType": "address",
          "name": "currentChallenge",
          "type": "address"
        }
      ],
      "stateMutability": "view",
      "type": "function"
    },
    {
      "inputs": [
        {
          "internalType": "uint256",
          "name": "",
          "type": "uint256"
        }
      ],
      "name": "stakerslist",
      "outputs": [
        {
          "internalType": "address",
          "name": "",
          "type": "address"
        }
      ],
      "stateMutability": "view",
      "type": "function"
    },
    {
      "inputs": [
        {
          "internalType": "address",
          "name": "newOwner",
          "type": "address"
        }
      ],
      "name": "transferOwnership",
      "outputs": [],
      "stateMutability": "nonpayable",
      "type": "function"
    },
    {
      "inputs": [
        {
          "internalType": "uint256",
          "name": "stakeAmount",
          "type": "uint256"
        }
      ],
      "name": "unstake",
      "outputs": [],
      "stateMutability": "nonpayable",
      "type": "function"
    },
    {
      "inputs": [],
      "name": "verifier",
      "outputs": [
        {
          "internalType": "contract IVerifierEntry",
          "name": "",
          "type": "address"
        }
      ],
      "stateMutability": "view",
      "type": "function"
    },
    {
      "inputs": [],
      "name": "withdraw",
      "outputs": [],
      "stateMutability": "nonpayable",
      "type": "function"
    },
    {
      "inputs": [
        {
          "internalType": "address",
          "name": "",
          "type": "address"
        }
      ],
      "name": "withdrawableFunds",
      "outputs": [
        {
          "internalType": "uint256",
          "name": "",
          "type": "uint256"
        }
      ],
      "stateMutability": "view",
      "type": "function"
    },
    {
      "inputs": [
        {
          "internalType": "uint256",
          "name": "",
          "type": "uint256"
        }
      ],
      "name": "zombies",
      "outputs": [
        {
          "internalType": "address",
          "name": "stakerAddress",
          "type": "address"
        },
        {
          "internalType": "uint256",
          "name": "lastAssertionID",
          "type": "uint256"
        }
      ],
      "stateMutability": "view",
      "type": "function"
    }
  ],
  "transactionHash": "0x889d02b77ab2c21f5e8db8336d273a37fab77744057e9c63d0e35145ebec1b2a",
  "args": [],
  "numDeployments": 1,
  "solcInputHash": "322573d8b501a415312ae007ebdbca9f",
  "bytecode": "0x60806040523480156200001157600080fd5b50600080546001600160a01b03191690556200002c62000032565b62000101565b600054600160a81b900460ff1615620000a15760405162461bcd60e51b815260206004820152602760248201527f496e697469616c697a61626c653a20636f6e747261637420697320696e697469604482015266616c697a696e6760c81b606482015260840160405180910390fd5b60005460ff600160a01b90910481161015620000ff576000805460ff60a01b191660ff60a01b17905560405160ff81527f7f26b83ff96e1f2b6a682f133852f6798a09c465da95921460cefb38474024989060200160405180910390a15b565b615d9e80620001116000396000f3fe608060405234801561001057600080fd5b50600436106102745760003560e01c80636aabc35011610151578063b553ee84116100c3578063cfc5901d11610087578063cfc5901d14610641578063de574efc14610654578063e03c863214610667578063f2fde38b14610687578063fa7803e61461069a578063fe2ba848146106ad57600080fd5b8063b553ee84146105f7578063b6da898f14610600578063c8525c3e14610613578063c94b584714610626578063c97a59191461062e57600080fd5b80638c669739116101155780638c6697391461052a5780638da5cb5b146105325780639168ae72146105455780639efbea23146105c8578063a56ba93b146105db578063aca9a518146105e457600080fd5b80636aabc350146104c95780636c8b052a146104f257806371129559146104fb5780637acb7757146105045780638821b2ae1461051757600080fd5b806330b26075116101ea578063461a4478116101ae578063461a44781461043957806349cd30041461044c5780634d26732d1461045f57806351ed6a30146104675780636177fd181461047a5780636a368561146104b657600080fd5b806330b26075146103fa57806337d1fbdd146104025780633ccfd60b1461041557806340d9224b1461041d57806345e38b641461043057600080fd5b80632aa234f61161023c5780632aa234f61461036e5780632b7ac3f3146103815780632e17de78146103945780632f06d1b0146103a75780632f30cabd146103ba578063300a7161146103da57600080fd5b80630e456acf14610279578063107035a4146102f05780632052465e146103075780632906040e14610339578063299ca47814610343575b600080fd5b607754607854607954607a54607b546102ac9460ff8116946001600160a01b036101009092048216949082169391169186565b6040805196151587526001600160a01b0395861660208801529385169386019390935292166060840152608083019190915260a082015260c0015b60405180910390f35b6102f960715481565b6040519081526020016102e7565b61031a610315366004613bad565b6106c0565b604080516001600160a01b0390931683526020830191909152016102e7565b6103416106f8565b005b600054610356906001600160a01b031681565b6040516001600160a01b0390911681526020016102e7565b61035661037c366004613bad565b6109a8565b600554610356906001600160a01b031681565b6103416103a2366004613bad565b6109d2565b6103566103b5366004613bd7565b610b52565b6102f96103c8366004613c31565b60756020526000908152604090205481565b6102f96103e8366004613c31565b60396020526000908152604090205481565b6103416111cc565b610356610410366004613bad565b611518565b610341611528565b600454610356906001600160a01b031681565b6102f960015481565b610356610447366004613d0a565b611618565b61034161045a366004613da7565b611699565b6002546102f9565b600354610356906001600160a01b031681565b6104a6610488366004613c31565b6001600160a01b031660009081526073602052604090205460ff1690565b60405190151581526020016102e7565b6103416104c4366004613e61565b6118c6565b6103566104d7366004613c31565b6074602052600090815260409020546001600160a01b031681565b6102f960725481565b6102f960025481565b610341610512366004613ea3565b6119c0565b610341610525366004613bad565b611dac565b610341611f3a565b603854610356906001600160a01b031681565b610592610553366004613c31565b6073602052600090815260409020805460018201546002830154600384015460049094015460ff90931693919290916001600160a01b03908116911685565b6040805195151586526020860194909452928401919091526001600160a01b03908116606084015216608082015260a0016102e7565b6103416105d6366004613e61565b611f7d565b6102f960705481565b6103416105f2366004613e61565b612159565b6102f9606f5481565b61034161060e366004613ed3565b612335565b610341610621366004613e61565b6126f6565b6102f96127ea565b61034161063c366004613ef5565b61286f565b61034161064f366004614003565b612c57565b610341610662366004614053565b612da3565b6102f9610675366004613c31565b603b6020526000908152604090205481565b610341610695366004613c31565b6131f0565b6103416106a836600461410c565b613288565b6103416106bb366004613c31565b6134ca565b607681815481106106d057600080fd5b6000918252602090912060029091020180546001909101546001600160a01b03909116915082565b336000908152607460205260409020546001600160a01b03166107365760405162461bcd60e51b815260040161072d9061413a565b60405180910390fd5b607154606f54106107815760405162461bcd60e51b81526020600482015260156024820152742737aab73932b9b7b63b32b220b9b9b2b93a34b7b760591b604482015260640161072d565b6000607254116107be5760405162461bcd60e51b81526020600482015260086024820152672737a9ba30b5b2b960c11b604482015260640161072d565b6000606f5460016107cf9190614175565b60048054604051638286227560e01b81529293506001600160a01b0316916382862275916108039185910190815260200190565b60206040518083038186803b15801561081b57600080fd5b505afa15801561082f573d6000803e3d6000fd5b505050506040513d601f19601f82011682018060405250810190610853919061418d565b42101561089b5760405162461bcd60e51b81526020600482015260166024820152754368616c6c656e6765506572696f6450656e64696e6760501b604482015260640161072d565b6070546004805460405163030b947760e41b81529182018490526001600160a01b0316906330b947709060240160206040518083038186803b1580156108e057600080fd5b505afa1580156108f4573d6000803e3d6000fd5b505050506040513d601f19601f82011682018060405250810190610918919061418d565b146109555760405162461bcd60e51b815260206004820152600d60248201526c125b9d985b1a5914185c995b9d609a1b604482015260640161072d565b606f8054906000610965836141a6565b9091555050606f5460708190556040519081527f453430d123684340024ae0a229704bdab39c93dc48bb5a0b4bc83142d95d48ef9060200160405180910390a150565b603a81815481106109b857600080fd5b6000918252602090912001546001600160a01b0316905081565b6109db3361361b565b33600090815260736020526040902060705460028201541115610a405760405162461bcd60e51b815260206004820152601c60248201527f5374616b65644f6e556e636f6e6669726d6564417373657274696f6e00000000604482015260640161072d565b6002548160010154610a5291906141c1565b821115610a955760405162461bcd60e51b8152602060048201526011602482015270496e73756666696369656e745374616b6560781b604482015260640161072d565b81816001016000828254610aa991906141c1565b909155505060035460405163a9059cbb60e01b8152336004820152602481018490526001600160a01b039091169063a9059cbb90604401602060405180830381600087803b158015610afa57600080fd5b505af1158015610b0e573d6000803e3d6000fd5b505050506040513d601f19601f82011682018060405250810190610b3291906141d8565b610b4e5760405162461bcd60e51b815260040161072d906141fa565b5050565b336000908152607460205260408120546001600160a01b0316610b875760405162461bcd60e51b815260040161072d9061413a565b81356020830135808210610bca5760405162461bcd60e51b815260206004820152600a6024820152692bb937b733a7b93232b960b11b604482015260640161072d565b607154811115610c125760405162461bcd60e51b81526020600482015260136024820152722ab7383937b837b9b2b220b9b9b2b93a34b7b760691b604482015260640161072d565b8160705410610c635760405162461bcd60e51b815260206004820152601860248201527f417373657274696f6e416c72656164795265736f6c7665640000000000000000604482015260640161072d565b6004805460405163030b947760e41b81529182018490526000916001600160a01b03909116906330b947709060240160206040518083038186803b158015610caa57600080fd5b505afa158015610cbe573d6000803e3d6000fd5b505050506040513d601f19601f82011682018060405250810190610ce2919061418d565b6004805460405163030b947760e41b81529293506001600160a01b0316916330b9477091610d169186910190815260200190565b60206040518083038186803b158015610d2e57600080fd5b505afa158015610d42573d6000803e3d6000fd5b505050506040513d601f19601f82011682018060405250810190610d66919061418d565b8114610da65760405162461bcd60e51b815260206004820152600f60248201526e111a5999995c995b9d14185c995b9d608a1b604482015260640161072d565b6000610db56020880188613c31565b90506000610dc96040890160208a01613c31565b9050806001600160a01b0316826001600160a01b03161415610e3b5760405162461bcd60e51b815260206004820152602560248201527f646566656e64657220616e64206368616c6c656e6765206d757374206e6f7420604482015264195c5d585b60da1b606482015260840161072d565b6001600160a01b038083166000908152607460205260408082205484841683529120549082169116610e6c8261366f565b610e758161366f565b6000604051610e8390613b5a565b604051809103906000f080158015610e9f573d6000803e3d6000fd5b506001600160a01b038084166000908152607360209081526040808320600490810180548688166001600160a01b031991821681179092558a871686528386209092018054831682179055825160c0810184529485529284018390528a8516848301819052948a1660608501819052608085018f905260a09094018d905260778054610100949094026001600160a81b031990941693909317909255607880548316909417909355607980549091169091179055607a8a9055607b8990555190915081907fd0ebe74b4f7d89a9b0fdc9d95f887a7b925c6c7300b5c4b2c3304d97925840fa90610fa4908b9084909182526001600160a01b0316602082015260400190565b60405180910390a160048054604051632b27e93b60e01b81529182018990526000916001600160a01b0390911690632b27e93b9060240160206040518083038186803b158015610ff357600080fd5b505afa158015611007573d6000803e3d6000fd5b505050506040513d601f19601f8201168201806040525081019061102b919061418d565b60048054604051632a411f3360e11b81529182018b90529192506000916001600160a01b0316906354823e669060240160206040518083038186803b15801561107357600080fd5b505afa158015611087573d6000803e3d6000fd5b505050506040513d601f19601f820116820180604052508101906110ab919061418d565b60048054604051632a411f3360e11b81529182018e90529192506000916001600160a01b0316906354823e669060240160206040518083038186803b1580156110f357600080fd5b505afa158015611107573d6000803e3d6000fd5b505050506040513d601f19601f8201168201806040525081019061112b919061418d565b60055460405163abf4801360e01b81526001600160a01b038c811660048301528b8116602483015291821660448201523060648201526084810186905260a4810185905260c4810183905291925086169063abf480139060e401600060405180830381600087803b15801561119f57600080fd5b505af11580156111b3573d6000803e3d6000fd5b50959e5050505050505050505050505050505b92915050565b336000908152607460205260409020546001600160a01b03166112015760405162461bcd60e51b815260040161072d9061413a565b607154606f541061124c5760405162461bcd60e51b81526020600482015260156024820152742737aab73932b9b7b63b32b220b9b9b2b93a34b7b760591b604482015260640161072d565b6000606f54600161125d9190614175565b6070546004805460405163030b947760e41b815291820184905292935090916001600160a01b0316906330b947709060240160206040518083038186803b1580156112a757600080fd5b505afa1580156112bb573d6000803e3d6000fd5b505050506040513d601f19601f820116820180604052508101906112df919061418d565b14156114685760048054604051638286227560e01b81529182018390526001600160a01b03169063828622759060240160206040518083038186803b15801561132757600080fd5b505afa15801561133b573d6000803e3d6000fd5b505050506040513d601f19601f8201168201806040525081019061135f919061418d565b4210156113a75760405162461bcd60e51b81526020600482015260166024820152754368616c6c656e6765506572696f6450656e64696e6760501b604482015260640161072d565b6113b0816136d6565b6004805460405163366b2b6960e01b81529182018490526001600160a01b03169063366b2b699060240160206040518083038186803b1580156113f257600080fd5b505afa158015611406573d6000803e3d6000fd5b505050506040513d601f19601f8201168201806040525081019061142a919061418d565b146114685760405162461bcd60e51b815260206004820152600e60248201526d14dd185ad95c9cd41c995cd95b9d60921b604482015260640161072d565b606f8054906000611478836141a6565b91905055507f5b24ab8ceb442373727ac5c559a027521cb52db451c74710ebed9faa5fe15a7c606f546040516114b091815260200190565b60405180910390a160048054606f5460405163d8a4e5af60e01b8152928301526001600160a01b03169063d8a4e5af90602401600060405180830381600087803b1580156114fd57600080fd5b505af1158015611511573d6000803e3d6000fd5b5050505050565b603c81815481106109b857600080fd5b336000908152607460205260409020546001600160a01b031661155d5760405162461bcd60e51b815260040161072d9061413a565b336000818152607560205260408082208054929055600354905163a9059cbb60e01b815260048101939093526024830182905290916001600160a01b039091169063a9059cbb90604401602060405180830381600087803b1580156115c157600080fd5b505af11580156115d5573d6000803e3d6000fd5b505050506040513d601f19601f820116820180604052508101906115f991906141d8565b6116155760405162461bcd60e51b815260040161072d906141fa565b50565b6000805460405163bf40fac160e01b81526001600160a01b039091169063bf40fac19061164990859060040161429f565b60206040518083038186803b15801561166157600080fd5b505afa158015611675573d6000803e3d6000fd5b505050506040513d601f19601f820116820180604052508101906111c691906142b2565b336000908152607460205260409020546001600160a01b03166116ce5760405162461bcd60e51b815260040161072d9061413a565b6116fb6040518060400160405280600c81526020016b212b26afa937b6363ab832b960a11b815250611618565b6001600160a01b0316336001600160a01b0316146117795760405162461bcd60e51b815260206004820152603560248201527f6d73672e73656e646572206973206e6f7420726f6c6c75702070726f706f73656044820152740e45840c6c2dc4ee840c2e0e0cadcc840c4c2e8c6d605b1b606482015260840161072d565b6117838787612335565b60006117ba6040518060400160405280601481526020017329ba30ba32a1b7b6b6b4ba36b2b73a21b430b4b760611b815250611618565b90506000816001600160a01b031687878787876040516024016117e19594939291906142cf565b60408051601f198184030181529181526020820180516001600160e01b0316632169f79f60e01b17905251611816919061433f565b6000604051808303816000865af19150503d8060008114611853576040519150601f19603f3d011682016040523d82523d6000602084013e611858565b606091505b50509050806118bb5760405162461bcd60e51b815260206004820152602960248201527f73636320617070656e64207374617465206261746368206661696c65642c2072604482015268195d995c9d08185b1b60ba1b606482015260840161072d565b505050505050505050565b6038546001600160a01b031633146118f05760405162461bcd60e51b815260040161072d9061435b565b603a5460005b828110156119ba576119088183614175565b6039600086868581811061191e5761191e614231565b90506020020160208101906119339190613c31565b6001600160a01b03168152602081019190915260400160002055603a84848381811061196157611961614231565b90506020020160208101906119769190613c31565b81546001810183556000928352602090922090910180546001600160a01b0319166001600160a01b03909216919091179055806119b2816141a6565b9150506118f6565b50505050565b33600081815260396020526040902054603a805483929081106119e5576119e5614231565b6000918252602090912001546001600160a01b031614611a475760405162461bcd60e51b815260206004820152601760248201527f4e4f545f494e5f5354414b45525f57484954454c495354000000000000000000604482015260640161072d565b6001600160a01b0382166000818152603b6020526040902054603c8054859392908110611a7657611a76614231565b6000918252602090912001546001600160a01b031614611ad85760405162461bcd60e51b815260206004820152601960248201527f4e4f545f494e5f4f50455241544f525f57484954454c49535400000000000000604482015260640161072d565b6003546040516323b872dd60e01b8152336004820152306024820152604481018690526001600160a01b03909116906323b872dd90606401602060405180830381600087803b158015611b2a57600080fd5b505af1158015611b3e573d6000803e3d6000fd5b505050506040513d601f19601f82011682018060405250810190611b6291906141d8565b611b7e5760405162461bcd60e51b815260040161072d906141fa565b3360009081526073602052604090205460ff1615611c3e57336000908152607360205260409020600301546001600160a01b03848116911614611c115760405162461bcd60e51b815260206004820152602560248201527f7374616b6572203d3e206f70657261746f72206d617070696e67206e6f7420756044820152646e6971756560d81b606482015260840161072d565b3360009081526073602052604081206001018054869290611c33908490614175565b909155506119ba9050565b6001600160a01b038381166000908152607460205260409020541615611c9d5760405162461bcd60e51b81526020600482015260146024820152731bdc195c985d1bdc881a5cc81bd8d8dd5c1a595960621b604482015260640161072d565b600254841015611ce35760405162461bcd60e51b8152602060048201526011602482015270496e73756666696369656e745374616b6560781b604482015260640161072d565b6040805160a0810182526001808252602080830188815260008486018181526001600160a01b03808b16606088018181526080890185815233808752607389528b87209a518b5490151560ff19909116178b559651988a01989098559251600289015591516003880180549183166001600160a01b03199283161790559551600490970180549790911696861696909617909555938452607490915292822080549091169092179091556072805491611d9b836141a6565b91905055506119ba336070546137ca565b336000908152607460205260409020546001600160a01b0316611de15760405162461bcd60e51b815260040161072d9061413a565b336000908152607460209081526040808320546001600160a01b03168084526073909252909120600281015483111580611e1c575060715483115b15611e5f5760405162461bcd60e51b8152602060048201526013602482015272417373657274696f6e4f75744f6652616e676560681b604482015260640161072d565b6004805460405163030b947760e41b81529182018590526001600160a01b0316906330b947709060240160206040518083038186803b158015611ea157600080fd5b505afa158015611eb5573d6000803e3d6000fd5b505050506040513d601f19601f82011682018060405250810190611ed9919061418d565b816002015414611f2b5760405162461bcd60e51b815260206004820152601760248201527f506172656e74417373657274696f6e556e7374616b6564000000000000000000604482015260640161072d565b611f3582846137ca565b505050565b336000908152607460205260409020546001600160a01b0316611f6f5760405162461bcd60e51b815260040161072d9061413a565b611f7b60766000613b67565b565b6038546001600160a01b03163314611fa75760405162461bcd60e51b815260040161072d9061435b565b60005b81811015611f35576000603b6000858585818110611fca57611fca614231565b9050602002016020810190611fdf9190613c31565b6001600160a01b03166001600160a01b0316815260200190815260200160002054905080603b6000603c6001603c8054905061201b91906141c1565b8154811061202b5761202b614231565b60009182526020808320909101546001600160a01b03168352820192909252604001902055603c8054612060906001906141c1565b8154811061207057612070614231565b600091825260209091200154603c80546001600160a01b03909216918390811061209c5761209c614231565b9060005260206000200160006101000a8154816001600160a01b0302191690836001600160a01b03160217905550603c8054806120db576120db614390565b600082815260208120820160001990810180546001600160a01b0319169055909101909155603b9085858581811061211557612115614231565b905060200201602081019061212a9190613c31565b6001600160a01b0316815260208101919091526040016000908120555080612151816141a6565b915050611faa565b6038546001600160a01b031633146121835760405162461bcd60e51b815260040161072d9061435b565b60005b81811015611f35576000603960008585858181106121a6576121a6614231565b90506020020160208101906121bb9190613c31565b6001600160a01b03166001600160a01b031681526020019081526020016000205490508060396000603a6001603a805490506121f791906141c1565b8154811061220757612207614231565b60009182526020808320909101546001600160a01b03168352820192909252604001902055603a805461223c906001906141c1565b8154811061224c5761224c614231565b600091825260209091200154603a80546001600160a01b03909216918390811061227857612278614231565b9060005260206000200160006101000a8154816001600160a01b0302191690836001600160a01b03160217905550603a8054806122b7576122b7614390565b600082815260208120820160001990810180546001600160a01b03191690559091019091556039908585858181106122f1576122f1614231565b90506020020160208101906123069190613c31565b6001600160a01b031681526020810191909152604001600090812055508061232d816141a6565b915050612186565b336000908152607460205260409020546001600160a01b031661236a5760405162461bcd60e51b815260040161072d9061413a565b336000908152607460209081526040808320546001600160a01b039081168085526073909352922060040154909116156124005760405162461bcd60e51b815260206004820152603160248201527f63616e206e6f742063726561746520617373657274696f6e207768656e207374604482015270616b657220696e206368616c6c656e676560781b606482015260840161072d565b6001600160a01b038181166000908152607360205260409081902060020154600154600480549351634e04886d60e01b8152908101839052919390921690634e04886d9060240160206040518083038186803b15801561245f57600080fd5b505afa158015612473573d6000803e3d6000fd5b505050506040513d601f19601f82011682018060405250810190612497919061418d565b6124a190436141c1565b10156124ef5760405162461bcd60e51b815260206004820152601f60248201527f4d696e696d756d417373657274696f6e506572696f644e6f7450617373656400604482015260640161072d565b60048054604051632b27e93b60e01b81529182018390526001600160a01b031690632b27e93b9060240160206040518083038186803b15801561253157600080fd5b505afa158015612545573d6000803e3d6000fd5b505050506040513d601f19601f82011682018060405250810190612569919061418d565b83116125a85760405162461bcd60e51b815260206004820152600e60248201526d22b6b83a3ca0b9b9b2b93a34b7b760911b604482015260640161072d565b607180549060006125b8836141a6565b9091555050607154604080519182523360208301528101859052606081018490527f5c610f28399ecc14b66149012a0197a5e3257a8c397125afee95d1cf4b9507349060800160405180910390a16004546071546001600160a01b039091169063422815849086868561262961388f565b6040516001600160e01b031960e088901b1681526004810195909552602485019390935260448401919091526064830152608482015260a401600060405180830381600087803b15801561267c57600080fd5b505af1158015612690573d6000803e3d6000fd5b505050506126a0826071546137ca565b606f80549060006126b0836141a6565b9091555050606f5460708190556040519081527f453430d123684340024ae0a229704bdab39c93dc48bb5a0b4bc83142d95d48ef9060200160405180910390a150505050565b6038546001600160a01b031633146127205760405162461bcd60e51b815260040161072d9061435b565b603c5460005b828110156119ba576127388183614175565b603b600086868581811061274e5761274e614231565b90506020020160208101906127639190613c31565b6001600160a01b03168152602081019190915260400160002055603c84848381811061279157612791614231565b90506020020160208101906127a69190613c31565b81546001810183556000928352602090922090910180546001600160a01b0319166001600160a01b03909216919091179055806127e2816141a6565b915050612726565b60048054607054604051632b27e93b60e01b8152928301526000916001600160a01b0390911690632b27e93b9060240160206040518083038186803b15801561283257600080fd5b505afa158015612846573d6000803e3d6000fd5b505050506040513d601f19601f8201168201806040525081019061286a919061418d565b905090565b600054600160a81b900460ff161580801561289757506000546001600160a01b90910460ff16105b806128b85750303b1580156128b85750600054600160a01b900460ff166001145b61291b5760405162461bcd60e51b815260206004820152602e60248201527f496e697469616c697a61626c653a20636f6e747261637420697320616c72656160448201526d191e481a5b9a5d1a585b1a5e995960921b606482015260840161072d565b6000805460ff60a01b1916600160a01b1790558015612948576000805460ff60a81b1916600160a81b1790555b6001600160a01b038d16158061296557506001600160a01b038c16155b156129a05760405162461bcd60e51b815260206004820152600b60248201526a5a65726f4164647265737360a81b604482015260640161072d565b8c603860006101000a8154816001600160a01b0302191690836001600160a01b031602179055508a600360006101000a8154816001600160a01b0302191690836001600160a01b031602179055508b600560006101000a8154816001600160a01b0302191690836001600160a01b0316021790555060006001600160a01b031660008054906101000a90046001600160a01b03166001600160a01b031614612a815760405162461bcd60e51b81526020600482015260146024820152731499591d5b99185b9d125b9a5d1a585b1a5e995960621b604482015260640161072d565b600080546001600160a01b0319166001600160a01b038c8116919091179091556004541615612ae95760405162461bcd60e51b81526020600482015260146024820152731499591d5b99185b9d125b9a5d1a585b1a5e995960621b604482015260640161072d565b600480546001600160a01b0319166001600160a01b038b16908117825560018a905560028990556040516303b31b8360e11b8152309281019290925290630766370690602401600060405180830381600087803b158015612b4957600080fd5b505af1158015612b5d573d6000803e3d6000fd5b50506000606f819055607081905560718190556004805460405163108a056160e21b8152918201839052602482018b90526044820183905260648201929092524360848201526001600160a01b0390911692506342281584915060a401600060405180830381600087803b158015612bd457600080fd5b505af1158015612be8573d6000803e3d6000fd5b50505050612bf685856118c6565b612c0083836126f6565b8015612c48576000805460ff60a81b19169055604051600181527f7f26b83ff96e1f2b6a682f133852f6798a09c465da95921460cefb38474024989060200160405180910390a15b50505050505050505050505050565b6038546001600160a01b03163314612c815760405162461bcd60e51b815260040161072d9061435b565b6000612cb86040518060400160405280601481526020017329ba30ba32a1b7b6b6b4ba36b2b73a21b430b4b760611b815250611618565b90506000816001600160a01b0316858585604051602401612cdb939291906143a6565b60408051601f198184030181529181526020820180516001600160e01b03166305f9daf960e11b17905251612d10919061433f565b6000604051808303816000865af19150503d8060008114612d4d576040519150601f19603f3d011682016040523d82523d6000602084013e612d52565b606091505b50509050806115115760405162461bcd60e51b815260206004820152601b60248201527f63616c6c20726f6c6c4261636b4c32436861696e206661696c65640000000000604482015260640161072d565b6038546001600160a01b03163314612dcd5760405162461bcd60e51b815260040161072d9061435b565b6000612e046040518060400160405280601481526020017329ba30ba32a1b7b6b6b4ba36b2b73a21b430b4b760611b815250611618565b60408051600481526024810182526020810180516001600160e01b0316633958777760e21b17905290519192506000916001600160a01b03841691612e489161433f565b6000604051808303816000865af19150503d8060008114612e85576040519150601f19603f3d011682016040523d82523d6000602084013e612e8a565b606091505b50915050600081612e9a906143c5565b8451909150612ea990826141c1565b600114612f045760405162461bcd60e51b8152602060048201526024808201527f64656c657465206261746368207769746820676170206973206e6f7420616c6c6044820152631bddd95960e21b606482015260840161072d565b6000836001600160a01b031685604051602401612f2191906143ec565b60408051601f198184030181529181526020820180516001600160e01b0316632da6c87160e11b17905251612f56919061433f565b6000604051808303816000865af19150503d8060008114612f93576040519150601f19603f3d011682016040523d82523d6000602084013e612f98565b606091505b5050905080612ffb5760405162461bcd60e51b815260206004820152602960248201527f7363632064656c657465207374617465206261746368206661696c65642c2072604482015268195d995c9d08185b1b60ba1b606482015260840161072d565b606f5460715410156130665760405162461bcd60e51b815260206004820152602e60248201527f64656c65746520617373657274696f6e206265666f7265206c6173742072657360448201526d37b63b32b21034b71032b93937b960911b606482015260840161072d565b7f5b24ab8ceb442373727ac5c559a027521cb52db451c74710ebed9faa5fe15a7c60715460405161309991815260200190565b60405180910390a16004805460715460405163d0087d6160e01b8152928301526001600160a01b03169063d0087d6190602401600060405180830381600087803b1580156130e657600080fd5b505af11580156130fa573d6000803e3d6000fd5b50506071805492509050600061310f8361444d565b9091555050606f80549060006131248361444d565b9091555050607080549060006131398361444d565b919050555060005b603a548110156131e85760715460736000603a848154811061316557613165614231565b60009182526020808320909101546001600160a01b0316835282019290925260400190206002015411156131d65760715460736000603a84815481106131ad576131ad614231565b60009182526020808320909101546001600160a01b031683528201929092526040019020600201555b806131e0816141a6565b915050613141565b505050505050565b6038546001600160a01b0316331461321a5760405162461bcd60e51b815260040161072d9061435b565b6001600160a01b03811661327f5760405162461bcd60e51b815260206004820152602660248201527f4f776e61626c653a206e6577206f776e657220697320746865207a65726f206160448201526564647265737360d01b606482015260840161072d565b611615816139c2565b336000908152607460205260409020546001600160a01b03166132bd5760405162461bcd60e51b815260040161072d9061413a565b6001600160a01b0380831660009081526074602052604080822054848416835291205490821691166132ee8161361b565b60006132fa8383613a14565b9050336001600160a01b038216146133435760405162461bcd60e51b815260206004820152600c60248201526b4e6f744368616c6c656e676560a01b604482015260640161072d565b6001600160a01b0382166000908152607360205260408120600101546002548111156133ad5760025461337690826141c1565b6001600160a01b0385166000908152607560205260408120805490919061339e908490614175565b909155505060025491506133b1565b8091505b6001600160a01b038516600090815260736020526040812060010180548492906133dc908490614175565b90915550506001600160a01b0380861660009081526073602052604080822060040180546001600160a01b03191690559186168152206002015461341f85613adf565b604080518082019091526001600160a01b03958616815260208101918252607680546001808201835560009290925291517fb5732705f5241370a28908c2fe1303cb223f03b90d857fd0573f003f79fefed4600290930292830180546001600160a01b031916919098161790965590517fb5732705f5241370a28908c2fe1303cb223f03b90d857fd0573f003f79fefed59091015550506077805460ff191690921790915550505050565b6038546001600160a01b031633146134f45760405162461bcd60e51b815260040161072d9061435b565b6134fd8161361b565b6001600160a01b03811660009081526073602052604090206070546002820154111561356b5760405162461bcd60e51b815260206004820152601c60248201527f5374616b65644f6e556e636f6e6669726d6564417373657274696f6e00000000604482015260640161072d565b600181015461357983613adf565b60035460405163a9059cbb60e01b81526001600160a01b038581166004830152602482018490529091169063a9059cbb90604401602060405180830381600087803b1580156135c757600080fd5b505af11580156135db573d6000803e3d6000fd5b505050506040513d601f19601f820116820180604052508101906135ff91906141d8565b611f355760405162461bcd60e51b815260040161072d906141fa565b6001600160a01b03811660009081526073602052604090205460ff166116155760405162461bcd60e51b8152602060048201526009602482015268139bdd14dd185ad95960ba1b604482015260640161072d565b6136788161361b565b6001600160a01b0381811660009081526073602052604090206004015416156116155760405162461bcd60e51b815260206004820152601060248201526f21b430b63632b733b2b229ba30b5b2b960811b604482015260640161072d565b600080805b6076548110156137c357600454607680546001600160a01b039092169163873fd0899187918590811061371057613710614231565b600091825260209091206002909102015460405160e084901b6001600160e01b031916815260048101929092526001600160a01b0316602482015260440160206040518083038186803b15801561376657600080fd5b505afa15801561377a573d6000803e3d6000fd5b505050506040513d601f19601f8201168201806040525081019061379e91906141d8565b156137b157816137ad816141a6565b9250505b806137bb816141a6565b9150506136db565b5092915050565b6001600160a01b038281166000818152607360205260409081902060020184905560048054915163541961d760e11b815290810185905260248101929092529091169063a832c3ae90604401600060405180830381600087803b15801561383057600080fd5b505af1158015613844573d6000803e3d6000fd5b5050604080516001600160a01b0386168152602081018590527f617d31491414a4ab2bd831e566a31837fa7fb6582921c91dffbbe83fbca789f3935001905060405180910390a15050565b6000806138c76040518060400160405280601481526020017329ba30ba32a1b7b6b6b4ba36b2b73a21b430b4b760611b815250611618565b60408051600481526024810182526020810180516001600160e01b031663c17b291b60e01b179052905191925060009182916001600160a01b0385169161390e919061433f565b6000604051808303816000865af19150503d806000811461394b576040519150601f19603f3d011682016040523d82523d6000602084013e613950565b606091505b5091509150816139a25760405162461bcd60e51b815260206004820181905260248201527f63616c6c2046524155445f50524f4f465f57494e444f572829206661696c6564604482015260640161072d565b60006139ad826143c5565b90506139b98142614175565b94505050505090565b603880546001600160a01b038381166001600160a01b0319831681179093556040519116919082907f8be0079c531659141344cd1fd0a4f28419497f9722a3daafe3b4186f6b6457e090600090a35050565b6001600160a01b03808316600090815260736020526040808220848416835290822060048201549293919290911680613a805760405162461bcd60e51b815260206004820152600e60248201526d4e6f74496e4368616c6c656e676560901b604482015260640161072d565b60048201546001600160a01b03828116911614613ad65760405162461bcd60e51b8152602060048201526014602482015273496e446966666572656e744368616c6c656e676560601b604482015260640161072d565b95945050505050565b60728054906000613aef8361444d565b90915550506001600160a01b039081166000908152607360209081526040808320600381018054825460ff1916835560018301869055600283018690556001600160a01b03198082169092556004909201805482169055941683526074909152902080549091169055565b6119048061446583390190565b508054600082556002029060005260206000209081019061161591905b80821115613ba95780546001600160a01b031916815560006001820155600201613b84565b5090565b600060208284031215613bbf57600080fd5b5035919050565b80604081018310156111c657600080fd5b60008060808385031215613bea57600080fd5b613bf48484613bc6565b9150613c038460408501613bc6565b90509250929050565b6001600160a01b038116811461161557600080fd5b8035613c2c81613c0c565b919050565b600060208284031215613c4357600080fd5b8135613c4e81613c0c565b9392505050565b634e487b7160e01b600052604160045260246000fd5b60405160c0810167ffffffffffffffff81118282101715613c8e57613c8e613c55565b60405290565b600067ffffffffffffffff80841115613caf57613caf613c55565b604051601f8501601f19908116603f01168101908282118183101715613cd757613cd7613c55565b81604052809350858152868686011115613cf057600080fd5b858560208301376000602087830101525050509392505050565b600060208284031215613d1c57600080fd5b813567ffffffffffffffff811115613d3357600080fd5b8201601f81018413613d4457600080fd5b613d5384823560208401613c94565b949350505050565b60008083601f840112613d6d57600080fd5b50813567ffffffffffffffff811115613d8557600080fd5b6020830191508360208260051b8501011115613da057600080fd5b9250929050565b600080600080600080600060a0888a031215613dc257600080fd5b8735965060208801359550604088013567ffffffffffffffff80821115613de857600080fd5b613df48b838c01613d5b565b909750955060608a0135945060808a0135915080821115613e1457600080fd5b818a0191508a601f830112613e2857600080fd5b813581811115613e3757600080fd5b8b6020828501011115613e4957600080fd5b60208301945080935050505092959891949750929550565b60008060208385031215613e7457600080fd5b823567ffffffffffffffff811115613e8b57600080fd5b613e9785828601613d5b565b90969095509350505050565b60008060408385031215613eb657600080fd5b823591506020830135613ec881613c0c565b809150509250929050565b60008060408385031215613ee657600080fd5b50508035926020909101359150565b6000806000806000806000806000806000806101408d8f031215613f1857600080fd5b613f218d613c21565b9b50613f2f60208e01613c21565b9a50613f3d60408e01613c21565b9950613f4b60608e01613c21565b9850613f5960808e01613c21565b975060a08d0135965060c08d0135955060e08d0135945067ffffffffffffffff6101008e01351115613f8a57600080fd5b613f9b8e6101008f01358f01613d5b565b909450925067ffffffffffffffff6101208e01351115613fba57600080fd5b613fcb8e6101208f01358f01613d5b565b81935080925050509295989b509295989b509295989b565b600082601f830112613ff457600080fd5b613c4e83833560208501613c94565b60008060006060848603121561401857600080fd5b8335925060208401359150604084013567ffffffffffffffff81111561403d57600080fd5b61404986828701613fe3565b9150509250925092565b60006020828403121561406557600080fd5b813567ffffffffffffffff8082111561407d57600080fd5b9083019060c0828603121561409157600080fd5b614099613c6b565b823581526020830135602082015260408301356040820152606083013560608201526080830135828111156140cd57600080fd5b6140d987828601613fe3565b60808301525060a0830135828111156140f157600080fd5b6140fd87828601613fe3565b60a08301525095945050505050565b6000806040838503121561411f57600080fd5b823561412a81613c0c565b91506020830135613ec881613c0c565b6020808252600b908201526a2737ba27b832b930ba37b960a91b604082015260600190565b634e487b7160e01b600052601160045260246000fd5b600082198211156141885761418861415f565b500190565b60006020828403121561419f57600080fd5b5051919050565b60006000198214156141ba576141ba61415f565b5060010190565b6000828210156141d3576141d361415f565b500390565b6000602082840312156141ea57600080fd5b81518015158114613c4e57600080fd5b6020808252601b908201527f7472616e7366657220657263323020746f6b656e206661696c65640000000000604082015260600190565b634e487b7160e01b600052603260045260246000fd5b60005b8381101561426257818101518382015260200161424a565b838111156119ba5750506000910152565b6000815180845261428b816020860160208601614247565b601f01601f19169290920160200192915050565b602081526000613c4e6020830184614273565b6000602082840312156142c457600080fd5b8151613c4e81613c0c565b6060808252810185905260006001600160fb1b038611156142ef57600080fd5b8560051b80886080850137602083018690528201828103608090810160408501528101849052838560a0830137600060a0858301015260a0601f19601f8601168201019150509695505050505050565b60008251614351818460208701614247565b9190910192915050565b6020808252818101527f4f776e61626c653a2063616c6c6572206973206e6f7420746865206f776e6572604082015260600190565b634e487b7160e01b600052603160045260246000fd5b838152826020820152606060408201526000613ad66060830184614273565b805160208083015191908110156143e6576000198160200360031b1b821691505b50919050565b60208152815160208201526020820151604082015260408201516060820152606082015160808201526000608083015160c060a084015261443060e0840182614273565b905060a0840151601f198483030160c0850152613ad68282614273565b60008161445c5761445c61415f565b50600019019056fe608060405234801561001057600080fd5b506118e4806100206000396000f3fe608060405234801561001057600080fd5b50600436106101375760003560e01c80638b299903116100b8578063dfbf53ae1161007c578063dfbf53ae146102a3578063e87e3589146102b6578063ed5b1303146102be578063f03a7fcb146102c7578063f2858aa3146102da578063faeff41b146102ed57600080fd5b80638b2999031461022c5780638f2400a8146102465780639afd9d7814610259578063abf480131461027d578063afeae9651461029057600080fd5b8063631acced116100ff578063631acced146101aa57806370dea79a146101b2578063732e6961146101ba5780637f4c91c5146102115780638a8cd2181461022457600080fd5b806318ef160d1461013c5780632a51f6f71461015157806341e8510c1461016d578063534db0e2146101765780635f41e3d6146101a1575b600080fd5b61014f61014a366004611333565b6102f6565b005b61015a60085481565b6040519081526020015b60405180910390f35b61015a60065481565b600354610189906001600160a01b031681565b6040516001600160a01b039091168152602001610164565b61015a60055481565b61014f6105d0565b61014f610636565b6010546011546012546013546014546015546016546101dc9695949392919087565b604080519788526020880196909652948601939093526060850191909152608084015260a083015260c082015260e001610164565b600254610189906001600160a01b031681565b6101896106c9565b6007546102399060ff1681565b604051610164919061136b565b61014f610254366004611385565b61075b565b600e5461026d90600160a01b900460ff1681565b6040519015158152602001610164565b61014f61028b3660046113fc565b610b55565b61015a61029e366004611473565b610cae565b600e54610189906001600160a01b031681565b61015a610cc5565b61015a60045481565b61014f6102d53660046114d5565b610d13565b61014f6102e8366004611579565b611018565b61015a600f5481565b6102fe6106c9565b6001600160a01b0316336001600160a01b0316146040518060400160405280600a8152602001692124a9afa9a2a72222a960b11b8152509061035c5760405162461bcd60e51b815260040161035391906115a2565b60405180910390fd5b50610365610cc5565b60045461037290426115f7565b11156040518060400160405280600c81526020016b4249535f444541444c494e4560a01b815250906103b75760405162461bcd60e51b815260040161035391906115a2565b5060085460408051808201909152600f81526e4348414c5f494e49545f535441544560881b602082015290156104005760405162461bcd60e51b815260040161035391906115a2565b50600081116104455760405162461bcd60e51b8152602060048201526011602482015270494e56414c49445f4e554d5f535445505360781b6044820152606401610353565b604080516000602080830191909152818301849052825180830384018152606090920190925280519101206008556040805160e08082018352600c548083526020808401879052600d54848601819052436060808701829052426080808901829052600060a0808b0182905260c09a8b018d9052601089905560118e9055601287905560138690556014849055601582905560168d90558b519889529688018d90529987019490945290850191909152908301528101939093529082018390527f71809f4d4f7bf3c208a85ccd3c922c984024f8e3cef51e3d03ae677e4217097d910160405180910390a1600160075460ff16600281111561054957610549611355565b141561057e5760045461055c90426115f7565b60065461056991906115f7565b6006556007805460ff191660021790556105c8565b600260075460ff16600281111561059757610597611355565b14156105c8576004546105aa90426115f7565b6005546105b791906115f7565b6005556007805460ff191660011790555b505042600455565b600e54600160a01b900460ff16156106215760405162461bcd60e51b8152602060048201526014602482015273414c52454144595f5345545f524f4c4c4241434b60601b6044820152606401610353565b600e805460ff60a01b1916600160a01b179055565b61063e610cc5565b60045461064b90426115f7565b116040518060400160405280601081526020016f54494d454f55545f444541444c494e4560801b815250906106935760405162461bcd60e51b815260040161035391906115a2565b50600260075460ff1660028111156106ad576106ad611355565b14156106bf576106bd60016111f4565b565b6106bd6001611257565b6000600260075460ff1660028111156106e4576106e4611355565b14156106fa57506002546001600160a01b031690565b600160075460ff16600281111561071357610713611355565b141561072957506003546001600160a01b031690565b60405162461bcd60e51b81526020600482015260076024820152662727afaa2aa92760c91b6044820152606401610353565b6107636106c9565b6001600160a01b0316336001600160a01b0316146040518060400160405280600a8152602001692124a9afa9a2a72222a960b11b815250906107b85760405162461bcd60e51b815260040161035391906115a2565b506107c1610cc5565b6004546107ce90426115f7565b11156040518060400160405280600c81526020016b4249535f444541444c494e4560a01b815250906108135760405162461bcd60e51b815260040161035391906115a2565b506008546108555760405162461bcd60e51b815260206004820152600f60248201526e1393d517d253925512505312569151608a1b6044820152606401610353565b604080516020808201859052818301849052825180830384018152606090920190925280519101206008548114604051806040016040528060088152602001672124a9afa82922ab60c11b815250906108c15760405162461bcd60e51b815260040161035391906115a2565b50600a541561091b57600954873514806108dd5750600a548735145b61091b5760405162461bcd60e51b815260206004820152600f60248201526e1053509251d553d554d7d4d5105495608a1b6044820152606401610353565b600b546040880135141561095f5760405162461bcd60e51b815260206004820152600b60248201526a1253959053125117d1539160aa1b6044820152606401610353565b6000841161099b5760405162461bcd60e51b81526020600482015260096024820152681513d3d7d4d213d49560ba1b6044820152606401610353565b8635600955602080880135600a55604080890135600b558051808301889052808201879052815180820383018152606090910190915280519101206008556040805160e081018252883581526020808a0135908201529081018860026020908102919091013582524382820181905242604080850182905260608086018c905260809586018b905286516010558685015160115586820151601255868101516013558686015160145560a08088015160155560c09788015160165582518f3581528f870135968101969096528e8301358684015290850193909352938301528101889052918201869052517f71809f4d4f7bf3c208a85ccd3c922c984024f8e3cef51e3d03ae677e4217097d9181900360e00190a150600160075460ff166002811115610aca57610aca611355565b1415610aff57600454610add90426115f7565b600654610aea91906115f7565b6006556007805460ff19166002179055610b49565b600260075460ff166002811115610b1857610b18611355565b1415610b4957600454610b2b90426115f7565b600554610b3891906115f7565b6005556007805460ff191660011790555b50504260045550505050565b600060075460ff166002811115610b6e57610b6e611355565b146040518060400160405280600f81526020016e4348414c5f494e49545f535441544560881b81525090610bb55760405162461bcd60e51b815260040161035391906115a2565b506001600160a01b03871615801590610bd657506001600160a01b03861615155b8015610bea57506001600160a01b03841615155b610c255760405162461bcd60e51b815260206004820152600c60248201526b5a45524f5f4144445245535360a01b6044820152606401610353565b600280546001600160a01b03199081166001600160a01b03998a16178255600380548216988a1698909817909755600180548816968916969096179095556000805490961693909616929092178455600c829055600d8590556007805460ff19169093179092554260045560966005819055600655600955600a91909155600b91909155600f55565b60098160038110610cbe57600080fd5b0154905081565b6000600260075460ff166002811115610ce057610ce0611355565b1415610ced575060055490565b600160075460ff166002811115610d0657610d06611355565b1415610729575060065490565b610d1b6106c9565b6001600160a01b0316336001600160a01b0316146040518060400160405280600a8152602001692124a9afa9a2a72222a960b11b81525090610d705760405162461bcd60e51b815260040161035391906115a2565b50610d79610cc5565b600454610d8690426115f7565b11156040518060400160405280600c81526020016b4249535f444541444c494e4560a01b81525090610dcb5760405162461bcd60e51b815260040161035391906115a2565b50604080516020808201859052818301849052825180830384018152606090920190925280519101206008548114604051806040016040528060088152602001672124a9afa82922ab60c11b81525090610e385760405162461bcd60e51b815260040161035391906115a2565b506001610e46600284611632565b1115610e8b5760405162461bcd60e51b8152602060048201526014602482015273424953454354494f4e5f494e434f4d504c45544560601b6044820152606401610353565b600180546000916001600160a01b039091169063625eb72e908b908b90600990610eb5908b6115f7565b60038110610ec557610ec561161c565b01548b8b6040518663ffffffff1660e01b8152600401610ee99594939291906117ac565b60206040518083038186803b158015610f0157600080fd5b505afa158015610f15573d6000803e3d6000fd5b505050506040513d601f19601f82011682018060405250810190610f39919061185f565b905060098560038110610f4e57610f4e61161c565b0154811415610f6657610f6160006112af565b610f70565b610f706000611302565b506001905060075460ff166002811115610f8c57610f8c611355565b1415610fc157600454610f9f90426115f7565b600654610fac91906115f7565b6006556007805460ff1916600217905561100b565b600260075460ff166002811115610fda57610fda611355565b141561100b57600454610fed90426115f7565b600554610ffa91906115f7565b6005556007805460ff191660011790555b5050426004555050505050565b6002546001600160a01b03166110635760405162461bcd60e51b815260206004820152601060248201526f111959995b99195c881b9bdd081cd95d60821b6044820152606401610353565b6002546001600160a01b031633146110b35760405162461bcd60e51b815260206004820152601360248201527221b0b63632b9103737ba103232b332b73232b960691b6044820152606401610353565b600e546001600160a01b03166111005760405162461bcd60e51b81526020600482015260126024820152712237903737ba103430bb32903bb4b73732b960711b6044820152606401610353565b600354600e546001600160a01b03908116911614156111b257801561118f57600054600354600254604051637d3c01f360e11b81526001600160a01b039283166004820152908216602482015291169063fa7803e6906044015b600060405180830381600087803b15801561117457600080fd5b505af1158015611188573d6000803e3d6000fd5b5050505050565b600254600e80546001600160a01b0319166001600160a01b039092169190911790555b600054600254600354604051637d3c01f360e11b81526001600160a01b039283166004820152908216602482015291169063fa7803e69060440161115a565b50565b600354600e80546001600160a01b0319166001600160a01b039283169081179091556002546040517f03f929a9a6b1f0aef5e43cb12b56f862da97ec3de3fda02a52e85f9f3974fb6a9361124c939216908590611878565b60405180910390a150565b600254600e80546001600160a01b0319166001600160a01b039283169081179091556003546040517f03f929a9a6b1f0aef5e43cb12b56f862da97ec3de3fda02a52e85f9f3974fb6a9361124c939216908590611878565b600260075460ff1660028111156112c8576112c8611355565b14156112d7576111f181611257565b600354600e80546001600160a01b0319166001600160a01b039092169190911790556111f1816111f4565b600260075460ff16600281111561131b5761131b611355565b141561132a576111f1816111f4565b6111f181611257565b6000806040838503121561134657600080fd5b50508035926020909101359150565b634e487b7160e01b600052602160045260246000fd5b602081016003831061137f5761137f611355565b91905290565b600080600080600080610100878903121561139f57600080fd5b60608701888111156113b057600080fd5b969896359750505060808701359460a0880135945060c0880135935060e088013592509050565b6001600160a01b03811681146111f157600080fd5b80356113f7816113d7565b919050565b600080600080600080600060e0888a03121561141757600080fd5b8735611422816113d7565b96506020880135611432816113d7565b95506040880135611442816113d7565b94506060880135611452816113d7565b9699959850939660808101359560a0820135955060c0909101359350915050565b60006020828403121561148557600080fd5b5035919050565b60008083601f84011261149e57600080fd5b50813567ffffffffffffffff8111156114b657600080fd5b6020830191508360208285010111156114ce57600080fd5b9250929050565b600080600080600080600060c0888a0312156114f057600080fd5b873567ffffffffffffffff8082111561150857600080fd5b9089019060e0828c03121561151c57600080fd5b90975060208901359060ff8216821461153457600080fd5b9096506040890135908082111561154a57600080fd5b506115578a828b0161148c565b989b979a50986060810135976080820135975060a09091013595509350505050565b60006020828403121561158b57600080fd5b8135801515811461159b57600080fd5b9392505050565b600060208083528351808285015260005b818110156115cf578581018301518582016040015282016115b3565b818111156115e1576000604083870101525b50601f01601f1916929092016040019392505050565b60008282101561161757634e487b7160e01b600052601160045260246000fd5b500390565b634e487b7160e01b600052603260045260246000fd5b60008261164f57634e487b7160e01b600052601260045260246000fd5b500490565b6000823561011e1983360301811261166b57600080fd5b90910192915050565b803567ffffffffffffffff811681146113f757600080fd5b6000808335601e198436030181126116a357600080fd5b830160208101925035905067ffffffffffffffff8111156116c357600080fd5b8036038313156114ce57600080fd5b81835281816020850137506000828201602090810191909152601f909101601f19169091010190565b600061012067ffffffffffffffff61171284611674565b1684526020830135602085015261172b60408401611674565b67ffffffffffffffff166040850152611746606084016113ec565b6001600160a01b031660608501526080838101359085015261176b60a084018461168c565b8260a087015261177e83870182846116d2565b9250505060c083013560c085015260e083013560e08501526101008084013581860152508091505092915050565b60808152600086356117bd816113d7565b6001600160a01b039081166080840152602088013560a0840152604088013560c08401526060880135906117f0826113d7565b1660e08301526118036080880188611654565b60e06101008401526118196101608401826116fb565b60a089013561012085015260c089013561014085015260ff88166020850152905085604084015282810360608401526118538185876116d2565b98975050505050505050565b60006020828403121561187157600080fd5b5051919050565b6001600160a01b0384811682528316602082015260608101600283106118a0576118a0611355565b82604083015294935050505056fea2646970667358221220ccb7efc97baac554457c80cecdacd0363693ddc1ffd8120b287494f2e6e7e88b64736f6c63430008090033a2646970667358221220b2320bae11ac531fb45a91ab63f86f0979c9923b7d16f7e7b868965375a21be764736f6c63430008090033",
  "devdoc": {
    "errors": {
      "AssertionAlreadyResolved()": [
        {
          "details": "Thrown when the assertion is already resolved"
        }
      ],
      "AssertionOutOfRange()": [
        {
          "details": "Thrown when a staker tries to advance stake to invalid assertionId."
        }
      ],
      "ChallengePeriodPending()": [
        {
          "details": "Thrown when the challenge period has not passed"
        }
      ],
      "ChallengedStaker()": [
        {
          "details": "Thrown when the staker is currently in Challenge"
        }
      ],
      "DifferentParent()": [
        {
          "details": "Thrown when the challenger and defender didn't attest to sibling assertions"
        }
      ],
      "EmptyAssertion()": [
        {
          "details": "Thrown when a sender tries to create assertion without any tx."
        }
      ],
      "InDifferentChallenge(address,address)": [
        {
          "details": "Thrown when the two stakers are in different challenge",
          "params": {
            "staker1Challenge": "challenge address of staker 1",
            "staker2Challenge": "challenge address of staker 2"
          }
        }
      ],
      "InboxReadLimitExceeded()": [
        {
          "details": "Thrown when the requested assertion read past the end of current Inbox."
        }
      ],
      "InsufficientStake()": [
        {
          "details": "Thrown when the function is called with Insufficient Stake"
        }
      ],
      "InvalidParent()": [
        {
          "details": "Thrown when the assertion's parent is not the last confirmed assertion"
        }
      ],
      "MinimumAssertionPeriodNotPassed()": [
        {
          "details": "Thrown when a sender tries to create assertion before the minimum assertion time period"
        }
      ],
      "NoStaker()": [
        {
          "details": "Thrown when there are zero stakers"
        }
      ],
      "NoUnresolvedAssertion()": [
        {
          "details": "Thrown when there is no unresolved assertion"
        }
      ],
      "NotAllStaked()": [
        {
          "details": "Thrown when all the stakers are not staked"
        }
      ],
      "NotInChallenge()": [
        {
          "details": "Thrown when the staker is not in a challenge"
        }
      ],
      "NotStaked()": [
        {
          "details": "Thrown when address that have not staked any token calls a only-staked function"
        }
      ],
      "ParentAssertionUnstaked()": [
        {
          "details": "Thrown when a staker tries to advance stake to non-child assertion"
        }
      ],
      "PreviousStateHash()": [
        {
          "details": "Thrown when parent's statehash is not equal to the start state(or previous state)/"
        }
      ],
      "RedundantInitialized()": [
        {
          "details": "Thrown when slot is not blank in initialize step"
        }
      ],
      "StakedOnUnconfirmedAssertion()": [
        {
          "details": "Thrown when the caller is staked on unconfirmed assertion."
        }
      ],
      "StakerStakedOnTarget()": [
        {
          "details": "Thrown staker's assertion is descendant of firstUnresolved assertion"
        }
      ],
      "StakersPresent()": [
        {
          "details": "Thrown when there are staker's present on the assertion"
        }
      ],
      "TransferFailed()": [
        {
          "details": "Thrown when transfer fails"
        }
      ],
      "UnproposedAssertion()": [
        {
          "details": "Thrown when the challenger tries to challenge an unproposed assertion"
        }
      ],
      "WrongOrder()": [
        {
          "details": "Thrown when the challenge assertion Id is not ordered or in range."
        }
      ],
      "ZeroAddress()": [
        {
          "details": "Thrown when function is called with a zero address argument"
        }
      ]
    },
    "kind": "dev",
    "methods": {
      "advanceStake(uint256)": {
        "params": {
          "assertionID": "ID of assertion to advance stake to. Currently this must be a child of the current assertion. TODO: generalize to arbitrary descendants."
        }
      },
      "challengeAssertion(address[2],uint256[2])": {
        "params": {
          "assertionIDs": "Assertion IDs of the players engaged in the challenge. The first ID should be the earlier-created and is the one being challenged.",
          "players": "Defender (first) and challenger (second) addresses. Must be staked on DAs on different branches."
        },
        "returns": {
          "_0": "Newly created challenge contract address."
        }
      },
      "completeChallenge(address,address)": {
        "params": {
          "loser": "Address of losing staker.",
          "winner": "Address of winning staker."
        }
      },
      "confirmedInboxSize()": {
        "returns": {
          "_0": "confirmedInboxSize size of inbox confirmed"
        }
      },
      "createAssertion(bytes32,uint256)": {
        "params": {
          "inboxSize": "Size of inbox corresponding to assertion (number of transactions).",
          "vmHash": "New VM hash."
        }
      },
      "createAssertionWithStateBatch(bytes32,uint256,bytes32[],uint256,bytes)": {
        "params": {
          "_batch": "Batch of state roots.",
          "_shouldStartAtElement": "Index of the element at which this batch should start.",
          "_signature": "tss group signature of state batches.",
          "inboxSize": "Size of inbox corresponding to assertion (number of transactions).",
          "vmHash": "New VM hash."
        }
      },
      "currentRequiredStake()": {
        "returns": {
          "_0": "The current required stake amount."
        }
      },
      "isStaked(address)": {
        "params": {
          "addr": "User address."
        },
        "returns": {
          "_0": "True if address is staked, else False."
        }
      },
      "removeStake(address)": {
        "params": {
          "stakerAddress": "Address of staker for which to unstake."
        }
      },
      "resolve(string)": {
        "params": {
          "_name": "Name to resolve an address for."
        },
        "returns": {
          "_0": "Address associated with the given name."
        }
      },
      "rollbackL2Chain(uint256,uint256,bytes)": {
        "params": {
          "_shouldRollBack": "roll back to should start.",
          "_shouldStartAtElement": "Index of the element at which this batch should start",
          "_signature": "signature of rollback message"
        }
      },
      "transferOwnership(address)": {
        "details": "Transfers ownership of the contract to a new account (`newOwner`). Can only be called by the current owner."
      },
      "unstake(uint256)": {
        "params": {
          "stakeAmount": "Token amount to withdraw. Must be <= sender's current stake minus the current required stake."
        }
      }
    },
    "version": 1
  },
  "userdoc": {
    "kind": "user",
    "methods": {
      "addToOperatorWhitelist(address[])": {
        "notice": "Add to whitelist"
      },
      "addToStakerWhitelist(address[])": {
        "notice": "Add to staker whitelist"
      },
      "advanceStake(uint256)": {
        "notice": "Advances msg.sender's existing sake to assertionID."
      },
      "challengeAssertion(address[2],uint256[2])": {
        "notice": "Initiates a dispute between a defender and challenger on an unconfirmed DA."
      },
      "completeChallenge(address,address)": {
        "notice": "Completes ongoing challenge. Callback, called by a challenge contract."
      },
      "confirmFirstUnresolvedAssertion()": {
        "notice": "Confirms first unresolved assertion. Assertion is confirmed if and only if: (1) there is at least one staker, and (2) challenge period has passed, and (3) predecessor has been confirmed, and (4) all stakers are staked on the assertion."
      },
      "createAssertion(bytes32,uint256)": {
        "notice": "Creates a new DA representing the rollup state after executing a block of transactions (sequenced in SequencerInbox). Block is represented by all transactions in range [prevInboxSize, inboxSize]. The latest staked DA of the sender is considered to be the predecessor. Moves sender stake onto the new DA. The new DA stores the hash of the parameters: vmHash"
      },
      "createAssertionWithStateBatch(bytes32,uint256,bytes32[],uint256,bytes)": {
        "notice": "create assertion with scc state batch"
      },
      "rejectFirstUnresolvedAssertion()": {
        "notice": "Rejects first unresolved assertion. Assertion is rejected if and only if: (1) all of the following are true: (a) challenge period has passed, and (b) at least one staker exists, and (c) no staker remains staked on the assertion (all have been destroyed). OR (2) predecessor has been rejected"
      },
      "removeFromOperatorWhitelist(address[])": {
        "notice": "Remove from whitelist"
      },
      "removeFromStakerWhitelist(address[])": {
        "notice": "Remove from whitelist"
      },
      "removeStake(address)": {
        "notice": "Removes stakerAddress from the set of stakers and withdraws the full stake amount to stakerAddress. This can be called by anyone since it is currently necessary to keep the chain progressing."
      },
      "resolve(string)": {
        "notice": "Resolves the address associated with a given name."
      },
      "rollbackL2Chain(uint256,uint256,bytes)": {
        "notice": "Emit event to notify sequencers to roll back."
      },
      "stake(uint256,address)": {
        "notice": "Deposits stake on staker's current assertion (or the last confirmed assertion if not currently staked).currently use MNT to stake; stakeAmount Token amount to deposit. Must be > than defined threshold if this is a new stake."
      },
      "unstake(uint256)": {
        "notice": "Withdraws stakeAmount from staker's stake by if assertion it is staked on is confirmed."
      },
      "withdraw()": {
        "notice": "Withdraws all of msg.sender's withdrawable funds."
      }
    },
    "version": 1
  },
  "storageLayout": {
    "storage": [
      {
        "astId": 52622,
        "contract": "contracts/L1/fraud-proof/Rollup.sol:Rollup",
        "label": "libAddressManager",
        "offset": 0,
        "slot": "0",
        "type": "t_contract(Lib_AddressManager)52614"
      },
      {
        "astId": 216,
        "contract": "contracts/L1/fraud-proof/Rollup.sol:Rollup",
        "label": "_initialized",
        "offset": 20,
        "slot": "0",
        "type": "t_uint8"
      },
      {
        "astId": 219,
        "contract": "contracts/L1/fraud-proof/Rollup.sol:Rollup",
        "label": "_initializing",
        "offset": 21,
        "slot": "0",
        "type": "t_bool"
      },
      {
        "astId": 14011,
        "contract": "contracts/L1/fraud-proof/Rollup.sol:Rollup",
        "label": "minimumAssertionPeriod",
        "offset": 0,
        "slot": "1",
        "type": "t_uint256"
      },
      {
        "astId": 14013,
        "contract": "contracts/L1/fraud-proof/Rollup.sol:Rollup",
        "label": "baseStakeAmount",
        "offset": 0,
        "slot": "2",
        "type": "t_uint256"
      },
      {
        "astId": 14016,
        "contract": "contracts/L1/fraud-proof/Rollup.sol:Rollup",
        "label": "stakeToken",
        "offset": 0,
        "slot": "3",
        "type": "t_contract(IERC20)7331"
      },
      {
        "astId": 14020,
        "contract": "contracts/L1/fraud-proof/Rollup.sol:Rollup",
        "label": "assertions",
        "offset": 0,
        "slot": "4",
        "type": "t_contract(AssertionMap)13745"
      },
      {
        "astId": 14023,
        "contract": "contracts/L1/fraud-proof/Rollup.sol:Rollup",
        "label": "verifier",
        "offset": 0,
        "slot": "5",
        "type": "t_contract(IVerifierEntry)24965"
      },
      {
        "astId": 14027,
        "contract": "contracts/L1/fraud-proof/Rollup.sol:Rollup",
        "label": "rollupBaseGap",
        "offset": 0,
        "slot": "6",
        "type": "t_array(t_uint256)50_storage"
      },
      {
        "astId": 15740,
        "contract": "contracts/L1/fraud-proof/Rollup.sol:Rollup",
        "label": "owner",
        "offset": 0,
        "slot": "56",
        "type": "t_address"
      },
      {
        "astId": 15744,
        "contract": "contracts/L1/fraud-proof/Rollup.sol:Rollup",
        "label": "stakerWhitelist",
        "offset": 0,
        "slot": "57",
        "type": "t_mapping(t_address,t_uint256)"
      },
      {
        "astId": 15747,
        "contract": "contracts/L1/fraud-proof/Rollup.sol:Rollup",
        "label": "stakerslist",
        "offset": 0,
        "slot": "58",
        "type": "t_array(t_address)dyn_storage"
      },
      {
        "astId": 15751,
        "contract": "contracts/L1/fraud-proof/Rollup.sol:Rollup",
        "label": "operatorWhitelist",
        "offset": 0,
        "slot": "59",
        "type": "t_mapping(t_address,t_uint256)"
      },
      {
        "astId": 15754,
        "contract": "contracts/L1/fraud-proof/Rollup.sol:Rollup",
        "label": "operatorslist",
        "offset": 0,
        "slot": "60",
        "type": "t_array(t_address)dyn_storage"
      },
      {
        "astId": 15758,
        "contract": "contracts/L1/fraud-proof/Rollup.sol:Rollup",
        "label": "whitelistGap",
        "offset": 0,
        "slot": "61",
        "type": "t_array(t_uint256)50_storage"
      },
      {
        "astId": 14099,
        "contract": "contracts/L1/fraud-proof/Rollup.sol:Rollup",
        "label": "lastResolvedAssertionID",
        "offset": 0,
        "slot": "111",
        "type": "t_uint256"
      },
      {
        "astId": 14101,
        "contract": "contracts/L1/fraud-proof/Rollup.sol:Rollup",
        "label": "lastConfirmedAssertionID",
        "offset": 0,
        "slot": "112",
        "type": "t_uint256"
      },
      {
        "astId": 14103,
        "contract": "contracts/L1/fraud-proof/Rollup.sol:Rollup",
        "label": "lastCreatedAssertionID",
        "offset": 0,
        "slot": "113",
        "type": "t_uint256"
      },
      {
        "astId": 14105,
        "contract": "contracts/L1/fraud-proof/Rollup.sol:Rollup",
        "label": "numStakers",
        "offset": 0,
        "slot": "114",
        "type": "t_uint256"
      },
      {
        "astId": 14110,
        "contract": "contracts/L1/fraud-proof/Rollup.sol:Rollup",
        "label": "stakers",
        "offset": 0,
        "slot": "115",
        "type": "t_mapping(t_address,t_struct(Staker)14038_storage)"
      },
      {
        "astId": 14114,
        "contract": "contracts/L1/fraud-proof/Rollup.sol:Rollup",
        "label": "registers",
        "offset": 0,
        "slot": "116",
        "type": "t_mapping(t_address,t_address)"
      },
      {
        "astId": 14118,
        "contract": "contracts/L1/fraud-proof/Rollup.sol:Rollup",
        "label": "withdrawableFunds",
        "offset": 0,
        "slot": "117",
        "type": "t_mapping(t_address,t_uint256)"
      },
      {
        "astId": 14122,
        "contract": "contracts/L1/fraud-proof/Rollup.sol:Rollup",
        "label": "zombies",
        "offset": 0,
        "slot": "118",
        "type": "t_array(t_struct(Zombie)14043_storage)dyn_storage"
      },
      {
        "astId": 14125,
        "contract": "contracts/L1/fraud-proof/Rollup.sol:Rollup",
        "label": "challengeCtx",
        "offset": 0,
        "slot": "119",
        "type": "t_struct(ChallengeCtx)14056_storage"
      }
    ],
    "types": {
      "t_address": {
        "encoding": "inplace",
        "label": "address",
        "numberOfBytes": "20"
      },
      "t_array(t_address)dyn_storage": {
        "base": "t_address",
        "encoding": "dynamic_array",
        "label": "address[]",
        "numberOfBytes": "32"
      },
      "t_array(t_struct(Zombie)14043_storage)dyn_storage": {
        "base": "t_struct(Zombie)14043_storage",
        "encoding": "dynamic_array",
        "label": "struct RollupBase.Zombie[]",
        "numberOfBytes": "32"
      },
      "t_array(t_uint256)50_storage": {
        "base": "t_uint256",
        "encoding": "inplace",
        "label": "uint256[50]",
        "numberOfBytes": "1600"
      },
      "t_bool": {
        "encoding": "inplace",
        "label": "bool",
        "numberOfBytes": "1"
      },
      "t_contract(AssertionMap)13745": {
        "encoding": "inplace",
        "label": "contract AssertionMap",
        "numberOfBytes": "20"
      },
      "t_contract(IERC20)7331": {
        "encoding": "inplace",
        "label": "contract IERC20",
        "numberOfBytes": "20"
      },
      "t_contract(IVerifierEntry)24965": {
        "encoding": "inplace",
        "label": "contract IVerifierEntry",
        "numberOfBytes": "20"
      },
      "t_contract(Lib_AddressManager)52614": {
        "encoding": "inplace",
        "label": "contract Lib_AddressManager",
        "numberOfBytes": "20"
      },
      "t_mapping(t_address,t_address)": {
        "encoding": "mapping",
        "key": "t_address",
        "label": "mapping(address => address)",
        "numberOfBytes": "32",
        "value": "t_address"
      },
      "t_mapping(t_address,t_struct(Staker)14038_storage)": {
        "encoding": "mapping",
        "key": "t_address",
        "label": "mapping(address => struct RollupBase.Staker)",
        "numberOfBytes": "32",
        "value": "t_struct(Staker)14038_storage"
      },
      "t_mapping(t_address,t_uint256)": {
        "encoding": "mapping",
        "key": "t_address",
        "label": "mapping(address => uint256)",
        "numberOfBytes": "32",
        "value": "t_uint256"
      },
      "t_struct(ChallengeCtx)14056_storage": {
        "encoding": "inplace",
        "label": "struct RollupBase.ChallengeCtx",
        "members": [
          {
            "astId": 14045,
            "contract": "contracts/L1/fraud-proof/Rollup.sol:Rollup",
            "label": "completed",
            "offset": 0,
            "slot": "0",
            "type": "t_bool"
          },
          {
            "astId": 14047,
            "contract": "contracts/L1/fraud-proof/Rollup.sol:Rollup",
            "label": "challengeAddress",
            "offset": 1,
            "slot": "0",
            "type": "t_address"
          },
          {
            "astId": 14049,
            "contract": "contracts/L1/fraud-proof/Rollup.sol:Rollup",
            "label": "defenderAddress",
            "offset": 0,
            "slot": "1",
            "type": "t_address"
          },
          {
            "astId": 14051,
            "contract": "contracts/L1/fraud-proof/Rollup.sol:Rollup",
            "label": "challengerAddress",
            "offset": 0,
            "slot": "2",
            "type": "t_address"
          },
          {
            "astId": 14053,
            "contract": "contracts/L1/fraud-proof/Rollup.sol:Rollup",
            "label": "defenderAssertionID",
            "offset": 0,
            "slot": "3",
            "type": "t_uint256"
          },
          {
            "astId": 14055,
            "contract": "contracts/L1/fraud-proof/Rollup.sol:Rollup",
            "label": "challengerAssertionID",
            "offset": 0,
            "slot": "4",
            "type": "t_uint256"
          }
        ],
        "numberOfBytes": "160"
      },
      "t_struct(Staker)14038_storage": {
        "encoding": "inplace",
        "label": "struct RollupBase.Staker",
        "members": [
          {
            "astId": 14029,
            "contract": "contracts/L1/fraud-proof/Rollup.sol:Rollup",
            "label": "isStaked",
            "offset": 0,
            "slot": "0",
            "type": "t_bool"
          },
          {
            "astId": 14031,
            "contract": "contracts/L1/fraud-proof/Rollup.sol:Rollup",
            "label": "amountStaked",
            "offset": 0,
            "slot": "1",
            "type": "t_uint256"
          },
          {
            "astId": 14033,
            "contract": "contracts/L1/fraud-proof/Rollup.sol:Rollup",
            "label": "assertionID",
            "offset": 0,
            "slot": "2",
            "type": "t_uint256"
          },
          {
            "astId": 14035,
            "contract": "contracts/L1/fraud-proof/Rollup.sol:Rollup",
            "label": "operator",
            "offset": 0,
            "slot": "3",
            "type": "t_address"
          },
          {
            "astId": 14037,
            "contract": "contracts/L1/fraud-proof/Rollup.sol:Rollup",
            "label": "currentChallenge",
            "offset": 0,
            "slot": "4",
            "type": "t_address"
          }
        ],
        "numberOfBytes": "160"
      },
      "t_struct(Zombie)14043_storage": {
        "encoding": "inplace",
        "label": "struct RollupBase.Zombie",
        "members": [
          {
            "astId": 14040,
            "contract": "contracts/L1/fraud-proof/Rollup.sol:Rollup",
            "label": "stakerAddress",
            "offset": 0,
            "slot": "0",
            "type": "t_address"
          },
          {
            "astId": 14042,
            "contract": "contracts/L1/fraud-proof/Rollup.sol:Rollup",
            "label": "lastAssertionID",
            "offset": 0,
            "slot": "1",
            "type": "t_uint256"
          }
        ],
        "numberOfBytes": "64"
      },
      "t_uint256": {
        "encoding": "inplace",
        "label": "uint256",
        "numberOfBytes": "32"
      },
      "t_uint8": {
        "encoding": "inplace",
        "label": "uint8",
        "numberOfBytes": "1"
      }
    }
  }
}