{
  "address": "0x7126F676ac359eCE8D5244120FF9E78eD3222246",
  "abi": [
    {
      "inputs": [
        {
          "internalType": "contract IDelegationManager",
          "name": "_delegationManager",
          "type": "address"
        }
      ],
      "stateMutability": "nonpayable",
      "type": "constructor"
    },
    {
      "anonymous": false,
      "inputs": [
        {
          "indexed": false,
          "internalType": "address",
          "name": "delegatedShare",
          "type": "address"
        },
        {
          "indexed": false,
          "internalType": "address",
          "name": "operator",
          "type": "address"
        },
        {
          "indexed": false,
          "internalType": "uint256",
          "name": "share",
          "type": "uint256"
        }
      ],
      "name": "DecreaseDelegatedShares",
      "type": "event"
    },
    {
      "anonymous": false,
      "inputs": [
        {
          "indexed": false,
          "internalType": "address",
          "name": "delegatior",
          "type": "address"
        },
        {
          "indexed": false,
          "internalType": "address",
          "name": "operator",
          "type": "address"
        }
      ],
      "name": "DelegateTo",
      "type": "event"
    },
    {
      "anonymous": false,
      "inputs": [
        {
          "indexed": false,
          "internalType": "address",
          "name": "delegatedShare",
          "type": "address"
        },
        {
          "indexed": false,
          "internalType": "address",
          "name": "operator",
          "type": "address"
        },
        {
          "indexed": false,
          "internalType": "uint256",
          "name": "share",
          "type": "uint256"
        }
      ],
      "name": "IncreaseDelegatedShares",
      "type": "event"
    },
    {
      "anonymous": false,
      "inputs": [
        {
          "indexed": false,
          "internalType": "uint8",
          "name": "version",
          "type": "uint8"
        }
      ],
      "name": "Initialized",
      "type": "event"
    },
    {
      "anonymous": false,
      "inputs": [
        {
          "indexed": true,
          "internalType": "contract IDelegationCallback",
          "name": "delegationTerms",
          "type": "address"
        },
        {
          "indexed": false,
          "internalType": "bytes32",
          "name": "returnData",
          "type": "bytes32"
        }
      ],
      "name": "OnDelegationReceivedCallFailure",
      "type": "event"
    },
    {
      "anonymous": false,
      "inputs": [
        {
          "indexed": true,
          "internalType": "contract IDelegationCallback",
          "name": "delegationTerms",
          "type": "address"
        },
        {
          "indexed": false,
          "internalType": "bytes32",
          "name": "returnData",
          "type": "bytes32"
        }
      ],
      "name": "OnDelegationWithdrawnCallFailure",
      "type": "event"
    },
    {
      "anonymous": false,
      "inputs": [
        {
          "indexed": true,
          "internalType": "address",
          "name": "previousOwner",
          "type": "address"
        },
        {
          "indexed": true,
          "internalType": "address",
          "name": "newOwner",
          "type": "address"
        }
      ],
      "name": "OwnershipTransferred",
      "type": "event"
    },
    {
      "anonymous": false,
      "inputs": [
        {
          "indexed": false,
          "internalType": "address",
          "name": "account",
          "type": "address"
        }
      ],
      "name": "Paused",
      "type": "event"
    },
    {
      "anonymous": false,
      "inputs": [
        {
          "indexed": false,
          "internalType": "address",
          "name": "delegationCallback",
          "type": "address"
        },
        {
          "indexed": false,
          "internalType": "address",
          "name": "register",
          "type": "address"
        }
      ],
      "name": "RegisterOperator",
      "type": "event"
    },
    {
      "anonymous": false,
      "inputs": [
        {
          "indexed": false,
          "internalType": "address",
          "name": "account",
          "type": "address"
        }
      ],
      "name": "Unpaused",
      "type": "event"
    },
    {
      "inputs": [],
      "name": "DELEGATION_TYPEHASH",
      "outputs": [
        {
          "internalType": "bytes32",
          "name": "",
          "type": "bytes32"
        }
      ],
      "stateMutability": "view",
      "type": "function"
    },
    {
      "inputs": [],
      "name": "DOMAIN_SEPARATOR",
      "outputs": [
        {
          "internalType": "bytes32",
          "name": "",
          "type": "bytes32"
        }
      ],
      "stateMutability": "view",
      "type": "function"
    },
    {
      "inputs": [],
      "name": "DOMAIN_TYPEHASH",
      "outputs": [
        {
          "internalType": "bytes32",
          "name": "",
          "type": "bytes32"
        }
      ],
      "stateMutability": "view",
      "type": "function"
    },
    {
      "inputs": [
        {
          "internalType": "address[]",
          "name": "toAddAddresses",
          "type": "address[]"
        }
      ],
      "name": "addToWhitelist",
      "outputs": [],
      "stateMutability": "nonpayable",
      "type": "function"
    },
    {
      "inputs": [
        {
          "internalType": "address",
          "name": "staker",
          "type": "address"
        },
        {
          "internalType": "contract IDelegationShare",
          "name": "delegationShare",
          "type": "address"
        },
        {
          "internalType": "uint256",
          "name": "shares",
          "type": "uint256"
        }
      ],
      "name": "decreaseDelegatedShares",
      "outputs": [],
      "stateMutability": "nonpayable",
      "type": "function"
    },
    {
      "inputs": [
        {
          "internalType": "address",
          "name": "staker",
          "type": "address"
        },
        {
          "internalType": "contract IDelegationShare[]",
          "name": "strategies",
          "type": "address[]"
        },
        {
          "internalType": "uint256[]",
          "name": "shares",
          "type": "uint256[]"
        }
      ],
      "name": "decreaseDelegatedShares",
      "outputs": [],
      "stateMutability": "nonpayable",
      "type": "function"
    },
    {
      "inputs": [
        {
          "internalType": "address",
          "name": "operator",
          "type": "address"
        },
        {
          "internalType": "address",
          "name": "staker",
          "type": "address"
        }
      ],
      "name": "delegateTo",
      "outputs": [],
      "stateMutability": "nonpayable",
      "type": "function"
    },
    {
      "inputs": [
        {
          "internalType": "address",
          "name": "operator",
          "type": "address"
        }
      ],
      "name": "delegateTo",
      "outputs": [],
      "stateMutability": "nonpayable",
      "type": "function"
    },
    {
      "inputs": [
        {
          "internalType": "address",
          "name": "staker",
          "type": "address"
        },
        {
          "internalType": "address",
          "name": "operator",
          "type": "address"
        },
        {
          "internalType": "uint256",
          "name": "expiry",
          "type": "uint256"
        },
        {
          "internalType": "bytes32",
          "name": "r",
          "type": "bytes32"
        },
        {
          "internalType": "bytes32",
          "name": "vs",
          "type": "bytes32"
        }
      ],
      "name": "delegateToSignature",
      "outputs": [],
      "stateMutability": "nonpayable",
      "type": "function"
    },
    {
      "inputs": [
        {
          "internalType": "address",
          "name": "",
          "type": "address"
        }
      ],
      "name": "delegatedTo",
      "outputs": [
        {
          "internalType": "address",
          "name": "",
          "type": "address"
        }
      ],
      "stateMutability": "view",
      "type": "function"
    },
    {
      "inputs": [
        {
          "internalType": "address",
          "name": "",
          "type": "address"
        }
      ],
      "name": "delegationCallback",
      "outputs": [
        {
          "internalType": "contract IDelegationCallback",
          "name": "",
          "type": "address"
        }
      ],
      "stateMutability": "view",
      "type": "function"
    },
    {
      "inputs": [],
      "name": "delegationManager",
      "outputs": [
        {
          "internalType": "contract IDelegationManager",
          "name": "",
          "type": "address"
        }
      ],
      "stateMutability": "view",
      "type": "function"
    },
    {
      "inputs": [
        {
          "internalType": "address",
          "name": "",
          "type": "address"
        }
      ],
      "name": "delegationStatus",
      "outputs": [
        {
          "internalType": "enum IDelegation.DelegationStatus",
          "name": "",
          "type": "uint8"
        }
      ],
      "stateMutability": "view",
      "type": "function"
    },
    {
      "inputs": [
        {
          "internalType": "address",
          "name": "staker",
          "type": "address"
        },
        {
          "internalType": "contract IDelegationShare",
          "name": "delegationShare",
          "type": "address"
        },
        {
          "internalType": "uint256",
          "name": "shares",
          "type": "uint256"
        }
      ],
      "name": "increaseDelegatedShares",
      "outputs": [],
      "stateMutability": "nonpayable",
      "type": "function"
    },
    {
      "inputs": [
        {
          "internalType": "address",
          "name": "initialOwner",
          "type": "address"
        }
      ],
      "name": "initialize",
      "outputs": [],
      "stateMutability": "nonpayable",
      "type": "function"
    },
    {
      "inputs": [
        {
          "internalType": "address",
          "name": "_stakingSlashing",
          "type": "address"
        },
        {
          "internalType": "address",
          "name": "initialOwner",
          "type": "address"
        }
      ],
      "name": "initializeT",
      "outputs": [],
      "stateMutability": "nonpayable",
      "type": "function"
    },
    {
      "inputs": [
        {
          "internalType": "address",
          "name": "staker",
          "type": "address"
        }
      ],
      "name": "isDelegated",
      "outputs": [
        {
          "internalType": "bool",
          "name": "",
          "type": "bool"
        }
      ],
      "stateMutability": "view",
      "type": "function"
    },
    {
      "inputs": [
        {
          "internalType": "address",
          "name": "staker",
          "type": "address"
        }
      ],
      "name": "isNotDelegated",
      "outputs": [
        {
          "internalType": "bool",
          "name": "",
          "type": "bool"
        }
      ],
      "stateMutability": "view",
      "type": "function"
    },
    {
      "inputs": [
        {
          "internalType": "address",
          "name": "operator",
          "type": "address"
        }
      ],
      "name": "isOperator",
      "outputs": [
        {
          "internalType": "bool",
          "name": "",
          "type": "bool"
        }
      ],
      "stateMutability": "view",
      "type": "function"
    },
    {
      "inputs": [
        {
          "internalType": "address",
          "name": "",
          "type": "address"
        }
      ],
      "name": "nonces",
      "outputs": [
        {
          "internalType": "uint256",
          "name": "",
          "type": "uint256"
        }
      ],
      "stateMutability": "view",
      "type": "function"
    },
    {
      "inputs": [
        {
          "internalType": "address",
          "name": "",
          "type": "address"
        },
        {
          "internalType": "contract IDelegationShare",
          "name": "",
          "type": "address"
        }
      ],
      "name": "operatorShares",
      "outputs": [
        {
          "internalType": "uint256",
          "name": "",
          "type": "uint256"
        }
      ],
      "stateMutability": "view",
      "type": "function"
    },
    {
      "inputs": [],
      "name": "owner",
      "outputs": [
        {
          "internalType": "address",
          "name": "",
          "type": "address"
        }
      ],
      "stateMutability": "view",
      "type": "function"
    },
    {
      "inputs": [],
      "name": "pause",
      "outputs": [],
      "stateMutability": "nonpayable",
      "type": "function"
    },
    {
      "inputs": [],
      "name": "paused",
      "outputs": [
        {
          "internalType": "bool",
          "name": "",
          "type": "bool"
        }
      ],
      "stateMutability": "view",
      "type": "function"
    },
    {
      "inputs": [
        {
          "internalType": "contract IDelegationCallback",
          "name": "dt",
          "type": "address"
        },
        {
          "internalType": "address",
          "name": "sender",
          "type": "address"
        }
      ],
      "name": "registerAsOperator",
      "outputs": [],
      "stateMutability": "nonpayable",
      "type": "function"
    },
    {
      "inputs": [
        {
          "internalType": "contract IDelegationCallback",
          "name": "dt",
          "type": "address"
        }
      ],
      "name": "registerAsOperator",
      "outputs": [],
      "stateMutability": "nonpayable",
      "type": "function"
    },
    {
      "inputs": [
        {
          "internalType": "address[]",
          "name": "toRemoveAddresses",
          "type": "address[]"
        }
      ],
      "name": "removeFromWhitelist",
      "outputs": [],
      "stateMutability": "nonpayable",
      "type": "function"
    },
    {
      "inputs": [],
      "name": "renounceOwnership",
      "outputs": [],
      "stateMutability": "nonpayable",
      "type": "function"
    },
    {
      "inputs": [
        {
          "internalType": "address",
          "name": "_address",
          "type": "address"
        }
      ],
      "name": "setStakingSlash",
      "outputs": [],
      "stateMutability": "nonpayable",
      "type": "function"
    },
    {
      "inputs": [],
      "name": "stakingSlash",
      "outputs": [
        {
          "internalType": "address",
          "name": "",
          "type": "address"
        }
      ],
      "stateMutability": "view",
      "type": "function"
    },
    {
      "inputs": [
        {
          "internalType": "address",
          "name": "newOwner",
          "type": "address"
        }
      ],
      "name": "transferOwnership",
      "outputs": [],
      "stateMutability": "nonpayable",
      "type": "function"
    },
    {
      "inputs": [
        {
          "internalType": "address",
          "name": "staker",
          "type": "address"
        }
      ],
      "name": "undelegate",
      "outputs": [],
      "stateMutability": "nonpayable",
      "type": "function"
    },
    {
      "inputs": [],
      "name": "unpause",
      "outputs": [],
      "stateMutability": "nonpayable",
      "type": "function"
    },
    {
      "inputs": [
        {
          "internalType": "address",
          "name": "",
          "type": "address"
        }
      ],
      "name": "whitelist",
      "outputs": [
        {
          "internalType": "bool",
          "name": "",
          "type": "bool"
        }
      ],
      "stateMutability": "view",
      "type": "function"
    }
  ],
  "transactionHash": "0xe6aa4f049b4492a965255342b5e892f28b09379c6f601f2cb61d0346b3584149",
  "args": [
    "0xA90FCe37D274e673f3850b835F18790542b1755d"
  ],
  "numDeployments": 1,
  "solcInputHash": "122d24e54e7a415d06d6c42567deeca7",
  "bytecode": "0x60a06040523480156200001157600080fd5b50604051620028b2380380620028b2833981016040819052620000349162000120565b6001600160a01b038116608052806200004c6200005e565b50620000576200005e565b5062000152565b600054610100900460ff1615620000cb5760405162461bcd60e51b815260206004820152602760248201527f496e697469616c697a61626c653a20636f6e747261637420697320696e697469604482015266616c697a696e6760c81b606482015260840160405180910390fd5b60005460ff90811610156200011e576000805460ff191660ff9081179091556040519081527f7f26b83ff96e1f2b6a682f133852f6798a09c465da95921460cefb38474024989060200160405180910390a15b565b6000602082840312156200013357600080fd5b81516001600160a01b03811681146200014b57600080fd5b9392505050565b60805161271a6200019860003960008181610526015281816106be015281816108b001528181610d070152818161138e015281816115b4015261178e015261271a6000f3fe608060405234801561001057600080fd5b50600436106102065760003560e01c80637ecebe001161011a578063c4a27a71116100ad578063e16e1a0c1161007c578063e16e1a0c146104d1578063e7a324dc146104fa578063ea4d3c9b14610521578063f2fde38b14610548578063fd3eb81f1461055b57600080fd5b8063c4a27a7114610485578063c4d66de814610498578063cf4c8a7b146104ab578063da8be864146104be57600080fd5b80639b19251a116100e95780639b19251a1461040c578063a3a199f21461042f578063ac637c7a1461045f578063bd44e4031461047257600080fd5b80637ecebe00146103c05780637f649783146103e05780638456cb59146103f35780638da5cb5b146103fb57600080fd5b8063438bb7e51161019d5780635c975abb1161016c5780635c975abb1461031357806365da12641461031e5780636d70f7ae1461035f578063715018a61461038d578063778e55f31461039557600080fd5b8063438bb7e5146102c7578063515a07eb146102da578063548db174146102ed5780635820491c1461030057600080fd5b806328a573ae116101d957806328a573ae146102905780633644e515146102a35780633e28391d146102ac5780633f4ba83a146102bf57600080fd5b806311a38c851461020b578063132d4967146102205780631d3696b71461023357806320606b701461025b575b600080fd5b61021e610219366004611ffe565b61056e565b005b61021e61022e366004612037565b6106b3565b610246610241366004612078565b61086d565b60405190151581526020015b60405180910390f35b6102827f8cad95687ba82c2ce50e74f7b754645e5117c3a5bec8151c0726d5857980a86681565b604051908152602001610252565b61021e61029e366004612037565b6108a5565b61028260985481565b6102466102ba366004612078565b610a51565b61021e610a5a565b61021e6102d5366004611ffe565b610a6c565b61021e6102e836600461209c565b610aac565b61021e6102fb366004612139565b610c8b565b61021e61030e36600461217b565b610cfc565b60655460ff16610246565b61034761032c366004612078565b609b602052600090815260409020546001600160a01b031681565b6040516001600160a01b039091168152602001610252565b61024661036d366004612078565b6001600160a01b039081166000908152609a602052604090205416151590565b61021e610f4f565b6102826103a3366004611ffe565b609960209081526000928352604080842090915290825290205481565b6102826103ce366004612078565b609d6020526000908152604090205481565b61021e6103ee366004612139565b610f61565b61021e610fdb565b6033546001600160a01b0316610347565b61024661041a366004612078565b60976020526000908152604090205460ff1681565b61045261043d366004612078565b609c6020526000908152604090205460ff1681565b6040516102529190612214565b61021e61046d366004612078565b610feb565b61021e610480366004612078565b611000565b61021e610493366004611ffe565b611100565b61021e6104a6366004612078565b61124f565b609e54610347906001600160a01b031681565b61021e6104cc366004612078565b611383565b6103476104df366004612078565b609a602052600090815260409020546001600160a01b031681565b6102827fb2a21c2f78b6ef501475a2971550fe4cedb86f0dec990e23909bfb01fd61c54c81565b6103477f000000000000000000000000000000000000000000000000000000000000000081565b61021e610556366004612078565b611404565b61021e610569366004612078565b61147a565b6001600160a01b038116600090815260976020526040902054819060ff166105d05760405162461bcd60e51b815260206004820152601060248201526f1393d517d25397d5d2125511531254d560821b60448201526064015b60405180910390fd5b609e546001600160a01b031633146105fa5760405162461bcd60e51b81526004016105c79061223c565b6001600160a01b038281166000908152609a602052604090205416156106325760405162461bcd60e51b81526004016105c790612281565b6001600160a01b038281166000908152609a6020526040902080546001600160a01b03191691851691909117905561066a82806114a4565b604080516001600160a01b038086168252841660208201527f6b79465d2d89e9355c00340dada48ce0cd05e807af465c48faed547fce4b5a7091015b60405180910390a1505050565b336001600160a01b037f000000000000000000000000000000000000000000000000000000000000000016146106fb5760405162461bcd60e51b81526004016105c7906122de565b61070483610a51565b15610868576001600160a01b038084166000908152609b60209081526040808320548416808452609983528184209487168452939091528120805484929061074d908490612323565b909155505060408051600180825281830190925260009160208083019080368337505060408051600180825281830190925292935060009291506020808301908036833701905050905084826000815181106107ab576107ab612350565b60200260200101906001600160a01b031690816001600160a01b03168152505083816000815181106107df576107df612350565b6020908102919091018101919091526001600160a01b038085166000908152609a909252604090912054166108178188868686611905565b604080516001600160a01b038089168252861660208201529081018690527fadb1483fabb8b6129204641b6b0d7c6aee5d3c06b23671230458f469ccf23abb906060015b60405180910390a1505050505b505050565b6000805b6001600160a01b0383166000908152609c602052604090205460ff16600181111561089e5761089e6121fe565b1492915050565b336001600160a01b037f000000000000000000000000000000000000000000000000000000000000000016146108ed5760405162461bcd60e51b81526004016105c7906122de565b6108f683610a51565b15610868576001600160a01b038084166000908152609b60209081526040808320548416808452609983528184209487168452939091528120805484929061093f908490612366565b9091555050604080516001808252818301909252600091602080830190803683375050604080516001808252818301909252929350600092915060208083019080368337019050509050848260008151811061099d5761099d612350565b60200260200101906001600160a01b031690816001600160a01b03168152505083816000815181106109d1576109d1612350565b6020908102919091018101919091526001600160a01b038085166000908152609a90925260409091205416610a098188868686611a29565b604080516001600160a01b038089168252861660208201529081018690527f7747bd0188a4f1ebd354b18edb152242f4acb7c7316843697460fe3fa054e7539060600161085b565b60006001610871565b610a62611b22565b610a6a611b7c565b565b609e546001600160a01b03163314610a965760405162461bcd60e51b81526004016105c79061223c565b610a9e611bce565b610aa881836114a4565b5050565b610ab4611bce565b821580610ac15750428310155b610b0d5760405162461bcd60e51b815260206004820152601c60248201527f64656c65676174696f6e207369676e617475726520657870697265640000000060448201526064016105c7565b6001600160a01b0385166000908152609d6020526040812080547fb2a21c2f78b6ef501475a2971550fe4cedb86f0dec990e23909bfb01fd61c54c918891889185610b578361237e565b909155506040805160208101959095526001600160a01b039384169085015291166060830152608082015260a0810185905260c001604051602081830303815290604052805190602001209050600060985482604051602001610bd192919061190160f01b81526002810192909252602282015260420190565b6040516020818303038152906040528051906020012090506000610bf6828686611c14565b9050876001600160a01b0316816001600160a01b031614610c775760405162461bcd60e51b815260206004820152603560248201527f44656c65676174696f6e2e64656c6567617465546f42795369676e61747572656044820152741d1039b4b3903737ba10333937b69039ba30b5b2b960591b60648201526084016105c7565b610c8188886114a4565b5050505050505050565b610c93611b22565b60005b818110156108685760976000848484818110610cb457610cb4612350565b9050602002016020810190610cc99190612078565b6001600160a01b031681526020810191909152604001600020805460ff1916905580610cf48161237e565b915050610c96565b336001600160a01b037f00000000000000000000000000000000000000000000000000000000000000001614610d445760405162461bcd60e51b81526004016105c7906122de565b610d4d85610a51565b15610f48576001600160a01b038086166000908152609b60205260408120549091169084905b81811015610eb757848482818110610d8d57610d8d612350565b9050602002013560996000856001600160a01b03166001600160a01b031681526020019081526020016000206000898985818110610dcd57610dcd612350565b9050602002016020810190610de29190612078565b6001600160a01b03166001600160a01b031681526020019081526020016000206000828254610e119190612323565b909155507fadb1483fabb8b6129204641b6b0d7c6aee5d3c06b23671230458f469ccf23abb9050878783818110610e4a57610e4a612350565b9050602002016020810190610e5f9190612078565b84878785818110610e7257610e72612350565b90506020020135604051610ea7939291906001600160a01b039384168152919092166020820152604081019190915260600190565b60405180910390a1600101610d73565b506001600160a01b038083166000908152609a60209081526040918290205482518983028181018401909452898152931692610c819284928c92889290918d918d9182919085019084908082843760009201919091525050604080516020808e0282810182019093528d82529093508d92508c91829185019084908082843760009201919091525061190592505050565b5050505050565b610f57611b22565b610a6a6000611c3a565b610f69611b22565b60005b8181101561086857600160976000858585818110610f8c57610f8c612350565b9050602002016020810190610fa19190612078565b6001600160a01b031681526020810191909152604001600020805460ff191691151591909117905580610fd38161237e565b915050610f6c565b610fe3611b22565b610a6a611c8c565b610ff3611bce565b610ffd33826114a4565b50565b3360008181526097602052604090205460ff166110525760405162461bcd60e51b815260206004820152601060248201526f1393d517d25397d5d2125511531254d560821b60448201526064016105c7565b336000908152609a60205260409020546001600160a01b0316156110885760405162461bcd60e51b81526004016105c790612281565b336000818152609a6020526040902080546001600160a01b0319166001600160a01b0385161790556110ba90806114a4565b604080516001600160a01b03841681523360208201527f6b79465d2d89e9355c00340dada48ce0cd05e807af465c48faed547fce4b5a7091015b60405180910390a15050565b600054610100900460ff16158080156111205750600054600160ff909116105b8061113a5750303b15801561113a575060005460ff166001145b6111565760405162461bcd60e51b81526004016105c790612399565b6000805460ff191660011790558015611179576000805461ff0019166101001790555b7f8cad95687ba82c2ce50e74f7b754645e5117c3a5bec8151c0726d5857980a866604051806040016040528060068152602001654d616e746c6560d01b81525046306040516020016111ce9493929190612417565b60408051808303601f190181529190528051602090910120609855609e80546001600160a01b0319166001600160a01b03851617905561120d82611c3a565b8015610868576000805461ff0019169055604051600181527f7f26b83ff96e1f2b6a682f133852f6798a09c465da95921460cefb3847402498906020016106a6565b600054610100900460ff161580801561126f5750600054600160ff909116105b806112895750303b158015611289575060005460ff166001145b6112a55760405162461bcd60e51b81526004016105c790612399565b6000805460ff1916600117905580156112c8576000805461ff0019166101001790555b7f8cad95687ba82c2ce50e74f7b754645e5117c3a5bec8151c0726d5857980a866604051806040016040528060068152602001654d616e746c6560d01b815250463060405160200161131d9493929190612417565b60408051601f19818403018152919052805160209091012060985561134182611c3a565b8015610aa8576000805461ff0019169055604051600181527f7f26b83ff96e1f2b6a682f133852f6798a09c465da95921460cefb3847402498906020016110f4565b336001600160a01b037f000000000000000000000000000000000000000000000000000000000000000016146113cb5760405162461bcd60e51b81526004016105c7906122de565b6001600160a01b03166000908152609c60209081526040808320805460ff19169055609b909152902080546001600160a01b0319169055565b61140c611b22565b6001600160a01b0381166114715760405162461bcd60e51b815260206004820152602660248201527f4f776e61626c653a206e6577206f776e657220697320746865207a65726f206160448201526564647265737360d01b60648201526084016105c7565b610ffd81611c3a565b611482611b22565b609e80546001600160a01b0319166001600160a01b0392909216919091179055565b6001600160a01b038082166000908152609a6020526040902054168061153e5760405162461bcd60e51b815260206004820152604360248201527f44656c65676174696f6e2e5f64656c65676174653a206f70657261746f72206860448201527f6173206e6f7420796574207265676973746572656420617320612064656c656760648201526261746560e81b608482015260a4016105c7565b6115478361086d565b6115b05760405162461bcd60e51b815260206004820152603460248201527f44656c65676174696f6e2e5f64656c65676174653a207374616b6572206861736044820152731032bc34b9ba34b733903232b632b3b0ba34b7b760611b60648201526084016105c7565b60007f00000000000000000000000000000000000000000000000000000000000000006001600160a01b031663bb5807746040518163ffffffff1660e01b815260040160206040518083038186803b15801561160b57600080fd5b505afa15801561161f573d6000803e3d6000fd5b505050506040513d601f19601f820116820180604052508101906116439190612469565b6040516372c1cc1b60e11b81526001600160a01b0385811660048301529192509082169063e58398369060240160206040518083038186803b15801561168857600080fd5b505afa15801561169c573d6000803e3d6000fd5b505050506040513d601f19601f820116820180604052508101906116c09190612486565b156117335760405162461bcd60e51b815260206004820152603a60248201527f44656c65676174696f6e2e5f64656c65676174653a2063616e6e6f742064656c60448201527f656761746520746f20612066726f7a656e206f70657261746f7200000000000060648201526084016105c7565b6001600160a01b038481166000818152609b6020908152604080832080548987166001600160a01b0319909116179055609c909152808220805460ff19166001179055516394f649dd60e01b815260048101929092529182917f0000000000000000000000000000000000000000000000000000000000000000909116906394f649dd9060240160006040518083038186803b1580156117d257600080fd5b505afa1580156117e6573d6000803e3d6000fd5b505050506040513d6000823e601f3d908101601f1916820160405261180e9190810190612568565b8151919350915060005b818110156118b75782818151811061183257611832612350565b602002602001015160996000896001600160a01b03166001600160a01b03168152602001908152602001600020600086848151811061187357611873612350565b60200260200101516001600160a01b03166001600160a01b0316815260200190815260200160002060008282546118aa9190612366565b9091555050600101611818565b506118c58588888686611a29565b604080516001600160a01b03808a168252881660208201527ff860b403db1c03a181fb5bde7737c75a7a2e076a3c5be1acbb710810b742903d910161085b565b600080866001600160a01b0316620186a063b1bbdc4160e01b88888888604051602401611935949392919061262d565b60408051601f198184030181529181526020820180516001600160e01b03166001600160e01b031990941693909317909252905161197391906126c8565b60006040518083038160008787f1925050503d80600081146119b1576040519150601f19603f3d011682016040523d82523d6000602084013e6119b6565b606091505b509150915081611a2057866001600160a01b03167fc58f3a088400523dc1a71a22ed64fdb04c35f0e1c89449cd1428add815675a4e826000815181106119fe576119fe612350565b602091018101516040516001600160f81b031990911681520160405180910390a25b50505050505050565b600080866001600160a01b0316620186a0636dd300b560e01b88888888604051602401611a59949392919061262d565b60408051601f198184030181529181526020820180516001600160e01b03166001600160e01b0319909416939093179092529051611a9791906126c8565b60006040518083038160008787f1925050503d8060008114611ad5576040519150601f19603f3d011682016040523d82523d6000602084013e611ada565b606091505b509150915081611a2057866001600160a01b03167f7e1d6196a63db3d494984adab6b42e91bcf8125ca3a3f80e658e5ed4e0f7efef826000815181106119fe576119fe612350565b6033546001600160a01b03163314610a6a5760405162461bcd60e51b815260206004820181905260248201527f4f776e61626c653a2063616c6c6572206973206e6f7420746865206f776e657260448201526064016105c7565b611b84611cc9565b6065805460ff191690557f5db9ee0a495bf2e6ff9c91a7834c1ba4fdd244a5e8aa4e537bd38aeae4b073aa335b6040516001600160a01b03909116815260200160405180910390a1565b60655460ff1615610a6a5760405162461bcd60e51b815260206004820152601060248201526f14185d5cd8589b194e881c185d5cd95960821b60448201526064016105c7565b6000806000611c24868686611d12565b91509150611c3181611d41565b50949350505050565b603380546001600160a01b038381166001600160a01b0319831681179093556040519116919082907f8be0079c531659141344cd1fd0a4f28419497f9722a3daafe3b4186f6b6457e090600090a35050565b611c94611bce565b6065805460ff191660011790557f62e78cea01bee320cd4e420270b5ea74000d11b0c9f74754ebdbfc544b05a258611bb13390565b60655460ff16610a6a5760405162461bcd60e51b815260206004820152601460248201527314185d5cd8589b194e881b9bdd081c185d5cd95960621b60448201526064016105c7565b6000806001600160ff1b03831660ff84901c601b01611d3387828885611efc565b935093505050935093915050565b6000816004811115611d5557611d556121fe565b1415611d5e5750565b6001816004811115611d7257611d726121fe565b1415611dc05760405162461bcd60e51b815260206004820152601860248201527f45434453413a20696e76616c6964207369676e6174757265000000000000000060448201526064016105c7565b6002816004811115611dd457611dd46121fe565b1415611e225760405162461bcd60e51b815260206004820152601f60248201527f45434453413a20696e76616c6964207369676e6174757265206c656e6774680060448201526064016105c7565b6003816004811115611e3657611e366121fe565b1415611e8f5760405162461bcd60e51b815260206004820152602260248201527f45434453413a20696e76616c6964207369676e6174757265202773272076616c604482015261756560f01b60648201526084016105c7565b6004816004811115611ea357611ea36121fe565b1415610ffd5760405162461bcd60e51b815260206004820152602260248201527f45434453413a20696e76616c6964207369676e6174757265202776272076616c604482015261756560f01b60648201526084016105c7565b6000807f7fffffffffffffffffffffffffffffff5d576e7357a4501ddfe92f46681b20a0831115611f335750600090506003611fe0565b8460ff16601b14158015611f4b57508460ff16601c14155b15611f5c5750600090506004611fe0565b6040805160008082526020820180845289905260ff881692820192909252606081018690526080810185905260019060a0016020604051602081039080840390855afa158015611fb0573d6000803e3d6000fd5b5050604051601f1901519150506001600160a01b038116611fd957600060019250925050611fe0565b9150600090505b94509492505050565b6001600160a01b0381168114610ffd57600080fd5b6000806040838503121561201157600080fd5b823561201c81611fe9565b9150602083013561202c81611fe9565b809150509250929050565b60008060006060848603121561204c57600080fd5b833561205781611fe9565b9250602084013561206781611fe9565b929592945050506040919091013590565b60006020828403121561208a57600080fd5b813561209581611fe9565b9392505050565b600080600080600060a086880312156120b457600080fd5b85356120bf81611fe9565b945060208601356120cf81611fe9565b94979496505050506040830135926060810135926080909101359150565b60008083601f8401126120ff57600080fd5b50813567ffffffffffffffff81111561211757600080fd5b6020830191508360208260051b850101111561213257600080fd5b9250929050565b6000806020838503121561214c57600080fd5b823567ffffffffffffffff81111561216357600080fd5b61216f858286016120ed565b90969095509350505050565b60008060008060006060868803121561219357600080fd5b853561219e81611fe9565b9450602086013567ffffffffffffffff808211156121bb57600080fd5b6121c789838a016120ed565b909650945060408801359150808211156121e057600080fd5b506121ed888289016120ed565b969995985093965092949392505050565b634e487b7160e01b600052602160045260246000fd5b602081016002831061223657634e487b7160e01b600052602160045260246000fd5b91905290565b60208082526025908201527f636f6e74726163742063616c6c206973206e6f74207374616b696e6720736c616040820152647368696e6760d81b606082015260800190565b6020808252603e908201527f44656c65676174696f6e2e726567697374657241734f70657261746f723a204460408201527f656c65676174652068617320616c726561647920726567697374657265640000606082015260800190565b60208082526015908201527437b7363ca232b632b3b0ba34b7b726b0b730b3b2b960591b604082015260600190565b634e487b7160e01b600052601160045260246000fd5b6000828210156123355761233561230d565b500390565b634e487b7160e01b600052604160045260246000fd5b634e487b7160e01b600052603260045260246000fd5b600082198211156123795761237961230d565b500190565b60006000198214156123925761239261230d565b5060010190565b6020808252602e908201527f496e697469616c697a61626c653a20636f6e747261637420697320616c72656160408201526d191e481a5b9a5d1a585b1a5e995960921b606082015260800190565b60005b838110156124025781810151838201526020016123ea565b83811115612411576000848401525b50505050565b848152608060208201526000845180608084015261243c8160a08501602089016123e7565b6040830194909452506001600160a01b0391909116606082015260a0601f909201601f1916010192915050565b60006020828403121561247b57600080fd5b815161209581611fe9565b60006020828403121561249857600080fd5b8151801515811461209557600080fd5b604051601f8201601f1916810167ffffffffffffffff811182821017156124d1576124d161233a565b604052919050565b600067ffffffffffffffff8211156124f3576124f361233a565b5060051b60200190565b600082601f83011261250e57600080fd5b8151602061252361251e836124d9565b6124a8565b82815260059290921b8401810191818101908684111561254257600080fd5b8286015b8481101561255d5780518352918301918301612546565b509695505050505050565b6000806040838503121561257b57600080fd5b825167ffffffffffffffff8082111561259357600080fd5b818501915085601f8301126125a757600080fd5b815160206125b761251e836124d9565b82815260059290921b840181019181810190898411156125d657600080fd5b948201945b838610156125fd5785516125ee81611fe9565b825294820194908201906125db565b9188015191965090935050508082111561261657600080fd5b50612623858286016124fd565b9150509250929050565b60006080820160018060a01b0380881684526020818816818601526080604086015282875180855260a087019150828901945060005b81811015612681578551851683529483019491830191600101612663565b5050858103606087015286518082529082019350915080860160005b838110156126b95781518552938201939082019060010161269d565b50929998505050505050505050565b600082516126da8184602087016123e7565b919091019291505056fea26469706673582212203b6d07745f8af342903e923473f33c10eab88576cd9805f00d701aef011d609164736f6c63430008090033",
  "devdoc": {
    "kind": "dev",
    "methods": {
      "decreaseDelegatedShares(address,address,uint256)": {
        "details": "Callable only by the InvestmentManager"
      },
      "delegateTo(address)": {
        "params": {
          "operator": "is the operator to whom staker (msg.sender) is delegating its assets"
        }
      },
      "delegateToSignature(address,address,uint256,bytes32,bytes32)": {
        "details": "requires that r, vs are a valid ECSDA signature from `staker` indicating their intention for this action"
      },
      "increaseDelegatedShares(address,address,uint256)": {
        "details": "Callable only by the InvestmentManager"
      },
      "owner()": {
        "details": "Returns the address of the current owner."
      },
      "paused()": {
        "details": "Returns true if the contract is paused, and false otherwise."
      },
      "registerAsOperator(address)": {
        "details": "An operator can set `dt` equal to their own address (or another EOA address), in the event that they want to split payments in a more 'trustful' manner.In the present design, once set, there is no way for an operator to ever modify the address of their DelegationTerms contract.",
        "params": {
          "dt": "is the `DelegationTerms` contract that the operator has for those who delegate to them."
        }
      },
      "renounceOwnership()": {
        "details": "Leaves the contract without owner. It will not be possible to call `onlyOwner` functions anymore. Can only be called by the current owner. NOTE: Renouncing ownership will leave the contract without an owner, thereby removing any functionality that is only available to the owner."
      },
      "transferOwnership(address)": {
        "details": "Transfers ownership of the contract to a new account (`newOwner`). Can only be called by the current owner."
      },
      "undelegate(address)": {
        "details": "Should only ever be called in the event that the `staker` has no active deposits."
      }
    },
    "title": "The primary delegation contract.",
    "version": 1
  },
  "userdoc": {
    "kind": "user",
    "methods": {
      "DELEGATION_TYPEHASH()": {
        "notice": "The EIP-712 typehash for the delegation struct used by the contract"
      },
      "DOMAIN_SEPARATOR()": {
        "notice": "EIP-712 Domain separator"
      },
      "DOMAIN_TYPEHASH()": {
        "notice": "The EIP-712 typehash for the contract's domain"
      },
      "addToWhitelist(address[])": {
        "notice": "Add to whitelist"
      },
      "decreaseDelegatedShares(address,address,uint256)": {
        "notice": "Decreases the `staker`'s delegated shares in `strategy` by `shares, typically called when the staker withdraws"
      },
      "decreaseDelegatedShares(address,address[],uint256[])": {
        "notice": "Version of `decreaseDelegatedShares` that accepts an array of inputs."
      },
      "delegateTo(address)": {
        "notice": "This will be called by a staker to delegate its assets to some operator."
      },
      "delegateToSignature(address,address,uint256,bytes32,bytes32)": {
        "notice": "Delegates from `staker` to `operator`."
      },
      "delegatedTo(address)": {
        "notice": "returns the address of the operator that `staker` is delegated to."
      },
      "delegationCallback(address)": {
        "notice": "returns the delegationCallback of the `operator`, which may mediate their interactions with stakers who delegate to them."
      },
      "delegationManager()": {
        "notice": "The InvestmentManager contract"
      },
      "increaseDelegatedShares(address,address,uint256)": {
        "notice": "Increases the `staker`'s delegated shares in `strategy` by `shares, typically called when the staker has further deposits"
      },
      "isDelegated(address)": {
        "notice": "Returns 'true' if `staker` *is* actively delegated, and 'false' otherwise."
      },
      "isNotDelegated(address)": {
        "notice": "Returns 'true' if `staker` is *not* actively delegated, and 'false' otherwise."
      },
      "isOperator(address)": {
        "notice": "Returns if an operator can be delegated to, i.e. it has called `registerAsOperator`."
      },
      "operatorShares(address,address)": {
        "notice": "returns the total number of shares in `DelegationShare` that are delegated to `operator`."
      },
      "registerAsOperator(address)": {
        "notice": "This will be called by an operator to register itself as an operator that stakers can choose to delegate to."
      },
      "removeFromWhitelist(address[])": {
        "notice": "Remove from whitelist"
      },
      "undelegate(address)": {
        "notice": "Undelegates `staker` from the operator who they are delegated to.Callable only by the InvestmentManager"
      }
    },
    "notice": "This is the contract for delegation. The main functionalities of this contract are - for enabling any staker to register as a delegate and specify the delegation terms it has agreed to - for enabling anyone to register as an operator - for a registered staker to delegate its stake to the operator of its agreed upon delegation terms contract - for a staker to undelegate its assets - for anyone to challenge a staker's claim to have fulfilled all its obligation before undelegation",
    "version": 1
  },
  "storageLayout": {
    "storage": [
      {
        "astId": 216,
        "contract": "contracts/L1/tss/delegation/TssDelegation.sol:TssDelegation",
        "label": "_initialized",
        "offset": 0,
        "slot": "0",
        "type": "t_uint8"
      },
      {
        "astId": 219,
        "contract": "contracts/L1/tss/delegation/TssDelegation.sol:TssDelegation",
        "label": "_initializing",
        "offset": 1,
        "slot": "0",
        "type": "t_bool"
      },
      {
        "astId": 2492,
        "contract": "contracts/L1/tss/delegation/TssDelegation.sol:TssDelegation",
        "label": "__gap",
        "offset": 0,
        "slot": "1",
        "type": "t_array(t_uint256)50_storage"
      },
      {
        "astId": 10,
        "contract": "contracts/L1/tss/delegation/TssDelegation.sol:TssDelegation",
        "label": "_owner",
        "offset": 0,
        "slot": "51",
        "type": "t_address"
      },
      {
        "astId": 130,
        "contract": "contracts/L1/tss/delegation/TssDelegation.sol:TssDelegation",
        "label": "__gap",
        "offset": 0,
        "slot": "52",
        "type": "t_array(t_uint256)49_storage"
      },
      {
        "astId": 381,
        "contract": "contracts/L1/tss/delegation/TssDelegation.sol:TssDelegation",
        "label": "_paused",
        "offset": 0,
        "slot": "101",
        "type": "t_bool"
      },
      {
        "astId": 486,
        "contract": "contracts/L1/tss/delegation/TssDelegation.sol:TssDelegation",
        "label": "__gap",
        "offset": 0,
        "slot": "102",
        "type": "t_array(t_uint256)49_storage"
      },
      {
        "astId": 12474,
        "contract": "contracts/L1/tss/delegation/TssDelegation.sol:TssDelegation",
        "label": "whitelist",
        "offset": 0,
        "slot": "151",
        "type": "t_mapping(t_address,t_bool)"
      },
      {
        "astId": 12408,
        "contract": "contracts/L1/tss/delegation/TssDelegation.sol:TssDelegation",
        "label": "DOMAIN_SEPARATOR",
        "offset": 0,
        "slot": "152",
        "type": "t_bytes32"
      },
      {
        "astId": 12419,
        "contract": "contracts/L1/tss/delegation/TssDelegation.sol:TssDelegation",
        "label": "operatorShares",
        "offset": 0,
        "slot": "153",
        "type": "t_mapping(t_address,t_mapping(t_contract(IDelegationShare)12988,t_uint256))"
      },
      {
        "astId": 12424,
        "contract": "contracts/L1/tss/delegation/TssDelegation.sol:TssDelegation",
        "label": "delegationCallback",
        "offset": 0,
        "slot": "154",
        "type": "t_mapping(t_address,t_contract(IDelegationCallback)12705)"
      },
      {
        "astId": 12428,
        "contract": "contracts/L1/tss/delegation/TssDelegation.sol:TssDelegation",
        "label": "delegatedTo",
        "offset": 0,
        "slot": "155",
        "type": "t_mapping(t_address,t_address)"
      },
      {
        "astId": 12433,
        "contract": "contracts/L1/tss/delegation/TssDelegation.sol:TssDelegation",
        "label": "delegationStatus",
        "offset": 0,
        "slot": "156",
        "type": "t_mapping(t_address,t_enum(DelegationStatus)12543)"
      },
      {
        "astId": 12437,
        "contract": "contracts/L1/tss/delegation/TssDelegation.sol:TssDelegation",
        "label": "nonces",
        "offset": 0,
        "slot": "157",
        "type": "t_mapping(t_address,t_uint256)"
      },
      {
        "astId": 43382,
        "contract": "contracts/L1/tss/delegation/TssDelegation.sol:TssDelegation",
        "label": "stakingSlash",
        "offset": 0,
        "slot": "158",
        "type": "t_address"
      }
    ],
    "types": {
      "t_address": {
        "encoding": "inplace",
        "label": "address",
        "numberOfBytes": "20"
      },
      "t_array(t_uint256)49_storage": {
        "base": "t_uint256",
        "encoding": "inplace",
        "label": "uint256[49]",
        "numberOfBytes": "1568"
      },
      "t_array(t_uint256)50_storage": {
        "base": "t_uint256",
        "encoding": "inplace",
        "label": "uint256[50]",
        "numberOfBytes": "1600"
      },
      "t_bool": {
        "encoding": "inplace",
        "label": "bool",
        "numberOfBytes": "1"
      },
      "t_bytes32": {
        "encoding": "inplace",
        "label": "bytes32",
        "numberOfBytes": "32"
      },
      "t_contract(IDelegationCallback)12705": {
        "encoding": "inplace",
        "label": "contract IDelegationCallback",
        "numberOfBytes": "20"
      },
      "t_contract(IDelegationShare)12988": {
        "encoding": "inplace",
        "label": "contract IDelegationShare",
        "numberOfBytes": "20"
      },
      "t_enum(DelegationStatus)12543": {
        "encoding": "inplace",
        "label": "enum IDelegation.DelegationStatus",
        "numberOfBytes": "1"
      },
      "t_mapping(t_address,t_address)": {
        "encoding": "mapping",
        "key": "t_address",
        "label": "mapping(address => address)",
        "numberOfBytes": "32",
        "value": "t_address"
      },
      "t_mapping(t_address,t_bool)": {
        "encoding": "mapping",
        "key": "t_address",
        "label": "mapping(address => bool)",
        "numberOfBytes": "32",
        "value": "t_bool"
      },
      "t_mapping(t_address,t_contract(IDelegationCallback)12705)": {
        "encoding": "mapping",
        "key": "t_address",
        "label": "mapping(address => contract IDelegationCallback)",
        "numberOfBytes": "32",
        "value": "t_contract(IDelegationCallback)12705"
      },
      "t_mapping(t_address,t_enum(DelegationStatus)12543)": {
        "encoding": "mapping",
        "key": "t_address",
        "label": "mapping(address => enum IDelegation.DelegationStatus)",
        "numberOfBytes": "32",
        "value": "t_enum(DelegationStatus)12543"
      },
      "t_mapping(t_address,t_mapping(t_contract(IDelegationShare)12988,t_uint256))": {
        "encoding": "mapping",
        "key": "t_address",
        "label": "mapping(address => mapping(contract IDelegationShare => uint256))",
        "numberOfBytes": "32",
        "value": "t_mapping(t_contract(IDelegationShare)12988,t_uint256)"
      },
      "t_mapping(t_address,t_uint256)": {
        "encoding": "mapping",
        "key": "t_address",
        "label": "mapping(address => uint256)",
        "numberOfBytes": "32",
        "value": "t_uint256"
      },
      "t_mapping(t_contract(IDelegationShare)12988,t_uint256)": {
        "encoding": "mapping",
        "key": "t_contract(IDelegationShare)12988",
        "label": "mapping(contract IDelegationShare => uint256)",
        "numberOfBytes": "32",
        "value": "t_uint256"
      },
      "t_uint256": {
        "encoding": "inplace",
        "label": "uint256",
        "numberOfBytes": "32"
      },
      "t_uint8": {
        "encoding": "inplace",
        "label": "uint8",
        "numberOfBytes": "1"
      }
    }
  }
}