{
  "address": "0xF7576237087F808eB39531cA490b4F8eFd4a0c69",
  "abi": [
    {
      "inputs": [],
      "stateMutability": "nonpayable",
      "type": "constructor"
    },
    {
      "anonymous": false,
      "inputs": [
        {
          "indexed": false,
          "internalType": "uint8",
          "name": "version",
          "type": "uint8"
        }
      ],
      "name": "Initialized",
      "type": "event"
    },
    {
      "anonymous": false,
      "inputs": [
        {
          "indexed": true,
          "internalType": "address",
          "name": "previousOwner",
          "type": "address"
        },
        {
          "indexed": true,
          "internalType": "address",
          "name": "newOwner",
          "type": "address"
        }
      ],
      "name": "OwnershipTransferred",
      "type": "event"
    },
    {
      "anonymous": false,
      "inputs": [
        {
          "indexed": false,
          "internalType": "uint256",
          "name": "_roundId",
          "type": "uint256"
        },
        {
          "indexed": false,
          "internalType": "bytes",
          "name": "_groupKey",
          "type": "bytes"
        },
        {
          "indexed": false,
          "internalType": "bytes[]",
          "name": "activeTssMembers",
          "type": "bytes[]"
        }
      ],
      "name": "tssActiveMemberAppended",
      "type": "event"
    },
    {
      "anonymous": false,
      "inputs": [
        {
          "indexed": false,
          "internalType": "uint256",
          "name": "_roundId",
          "type": "uint256"
        },
        {
          "indexed": false,
          "internalType": "uint256",
          "name": "_threshold",
          "type": "uint256"
        },
        {
          "indexed": false,
          "internalType": "bytes[]",
          "name": "_inActiveTssMembers",
          "type": "bytes[]"
        }
      ],
      "name": "tssGroupMemberAppend",
      "type": "event"
    },
    {
      "inputs": [],
      "name": "getTssGroupInfo",
      "outputs": [
        {
          "internalType": "uint256",
          "name": "",
          "type": "uint256"
        },
        {
          "internalType": "uint256",
          "name": "",
          "type": "uint256"
        },
        {
          "internalType": "bytes",
          "name": "",
          "type": "bytes"
        },
        {
          "internalType": "bytes[]",
          "name": "",
          "type": "bytes[]"
        }
      ],
      "stateMutability": "view",
      "type": "function"
    },
    {
      "inputs": [],
      "name": "getTssGroupMembers",
      "outputs": [
        {
          "internalType": "bytes[]",
          "name": "",
          "type": "bytes[]"
        }
      ],
      "stateMutability": "view",
      "type": "function"
    },
    {
      "inputs": [],
      "name": "getTssGroupUnJailMembers",
      "outputs": [
        {
          "internalType": "address[]",
          "name": "",
          "type": "address[]"
        }
      ],
      "stateMutability": "view",
      "type": "function"
    },
    {
      "inputs": [],
      "name": "getTssInactiveGroupInfo",
      "outputs": [
        {
          "internalType": "uint256",
          "name": "",
          "type": "uint256"
        },
        {
          "internalType": "uint256",
          "name": "",
          "type": "uint256"
        },
        {
          "internalType": "bytes[]",
          "name": "",
          "type": "bytes[]"
        }
      ],
      "stateMutability": "view",
      "type": "function"
    },
    {
      "inputs": [
        {
          "internalType": "bytes",
          "name": "_publicKey",
          "type": "bytes"
        }
      ],
      "name": "getTssMember",
      "outputs": [
        {
          "components": [
            {
              "internalType": "bytes",
              "name": "publicKey",
              "type": "bytes"
            },
            {
              "internalType": "address",
              "name": "nodeAddress",
              "type": "address"
            },
            {
              "internalType": "enum ITssGroupManager.MemberStatus",
              "name": "status",
              "type": "uint8"
            }
          ],
          "internalType": "struct ITssGroupManager.TssMember",
          "name": "",
          "type": "tuple"
        }
      ],
      "stateMutability": "view",
      "type": "function"
    },
    {
      "inputs": [],
      "name": "inActiveIsEmpty",
      "outputs": [
        {
          "internalType": "bool",
          "name": "",
          "type": "bool"
        }
      ],
      "stateMutability": "view",
      "type": "function"
    },
    {
      "inputs": [],
      "name": "initialize",
      "outputs": [],
      "stateMutability": "nonpayable",
      "type": "function"
    },
    {
      "inputs": [
        {
          "internalType": "bytes",
          "name": "",
          "type": "bytes"
        }
      ],
      "name": "isInActiveMember",
      "outputs": [
        {
          "internalType": "bool",
          "name": "",
          "type": "bool"
        }
      ],
      "stateMutability": "view",
      "type": "function"
    },
    {
      "inputs": [
        {
          "internalType": "address",
          "name": "_addr",
          "type": "address"
        }
      ],
      "name": "isTssGroupUnJailMembers",
      "outputs": [
        {
          "internalType": "bool",
          "name": "",
          "type": "bool"
        }
      ],
      "stateMutability": "view",
      "type": "function"
    },
    {
      "inputs": [
        {
          "internalType": "address",
          "name": "_addr",
          "type": "address"
        }
      ],
      "name": "memberExistActive",
      "outputs": [
        {
          "internalType": "bool",
          "name": "",
          "type": "bool"
        }
      ],
      "stateMutability": "view",
      "type": "function"
    },
    {
      "inputs": [
        {
          "internalType": "bytes",
          "name": "_publicKey",
          "type": "bytes"
        }
      ],
      "name": "memberExistActive",
      "outputs": [
        {
          "internalType": "bool",
          "name": "",
          "type": "bool"
        }
      ],
      "stateMutability": "view",
      "type": "function"
    },
    {
      "inputs": [
        {
          "internalType": "bytes",
          "name": "_publicKey",
          "type": "bytes"
        }
      ],
      "name": "memberExistInActive",
      "outputs": [
        {
          "internalType": "bool",
          "name": "",
          "type": "bool"
        }
      ],
      "stateMutability": "view",
      "type": "function"
    },
    {
      "inputs": [
        {
          "internalType": "bytes",
          "name": "_publicKey",
          "type": "bytes"
        }
      ],
      "name": "memberJail",
      "outputs": [],
      "stateMutability": "nonpayable",
      "type": "function"
    },
    {
      "inputs": [
        {
          "internalType": "bytes",
          "name": "_publicKey",
          "type": "bytes"
        }
      ],
      "name": "memberUnJail",
      "outputs": [],
      "stateMutability": "nonpayable",
      "type": "function"
    },
    {
      "inputs": [],
      "name": "owner",
      "outputs": [
        {
          "internalType": "address",
          "name": "",
          "type": "address"
        }
      ],
      "stateMutability": "view",
      "type": "function"
    },
    {
      "inputs": [
        {
          "internalType": "bytes32",
          "name": "_ethSignedMessageHash",
          "type": "bytes32"
        },
        {
          "internalType": "bytes",
          "name": "_sig",
          "type": "bytes"
        }
      ],
      "name": "recover",
      "outputs": [
        {
          "internalType": "address",
          "name": "",
          "type": "address"
        }
      ],
      "stateMutability": "pure",
      "type": "function"
    },
    {
      "inputs": [
        {
          "internalType": "bytes",
          "name": "_publicKey",
          "type": "bytes"
        }
      ],
      "name": "removeMember",
      "outputs": [],
      "stateMutability": "nonpayable",
      "type": "function"
    },
    {
      "inputs": [],
      "name": "renounceOwnership",
      "outputs": [],
      "stateMutability": "nonpayable",
      "type": "function"
    },
    {
      "inputs": [
        {
          "internalType": "bytes",
          "name": "_publicKey",
          "type": "bytes"
        },
        {
          "internalType": "bytes",
          "name": "_groupPublicKey",
          "type": "bytes"
        }
      ],
      "name": "setGroupPublicKey",
      "outputs": [],
      "stateMutability": "nonpayable",
      "type": "function"
    },
    {
      "inputs": [
        {
          "internalType": "address",
          "name": "_address",
          "type": "address"
        }
      ],
      "name": "setStakingSlash",
      "outputs": [],
      "stateMutability": "nonpayable",
      "type": "function"
    },
    {
      "inputs": [
        {
          "internalType": "uint256",
          "name": "_threshold",
          "type": "uint256"
        },
        {
          "internalType": "bytes[]",
          "name": "_batchPublicKey",
          "type": "bytes[]"
        }
      ],
      "name": "setTssGroupMember",
      "outputs": [],
      "stateMutability": "nonpayable",
      "type": "function"
    },
    {
      "inputs": [],
      "name": "stakingSlash",
      "outputs": [
        {
          "internalType": "address",
          "name": "",
          "type": "address"
        }
      ],
      "stateMutability": "view",
      "type": "function"
    },
    {
      "inputs": [
        {
          "internalType": "address",
          "name": "newOwner",
          "type": "address"
        }
      ],
      "name": "transferOwnership",
      "outputs": [],
      "stateMutability": "nonpayable",
      "type": "function"
    },
    {
      "inputs": [
        {
          "internalType": "bytes",
          "name": "",
          "type": "bytes"
        }
      ],
      "name": "tssActiveMemberInfo",
      "outputs": [
        {
          "internalType": "bytes",
          "name": "publicKey",
          "type": "bytes"
        },
        {
          "internalType": "address",
          "name": "nodeAddress",
          "type": "address"
        },
        {
          "internalType": "enum ITssGroupManager.MemberStatus",
          "name": "status",
          "type": "uint8"
        }
      ],
      "stateMutability": "view",
      "type": "function"
    },
    {
      "inputs": [
        {
          "internalType": "bytes32",
          "name": "_message",
          "type": "bytes32"
        },
        {
          "internalType": "bytes",
          "name": "_sig",
          "type": "bytes"
        }
      ],
      "name": "verifySign",
      "outputs": [
        {
          "internalType": "bool",
          "name": "",
          "type": "bool"
        }
      ],
      "stateMutability": "view",
      "type": "function"
    }
  ],
  "transactionHash": "0x4236973a7ca6f1e4e636e1dc55cbdc3b738f2385610e99983357aca946a5b0e7",
  "args": [],
  "numDeployments": 1,
  "solcInputHash": "ee1e34d4d1736701753c7ecc44ccb0d9",
  "bytecode": "0x60806040523480156200001157600080fd5b506200001c62000022565b620000e4565b600054610100900460ff16156200008f5760405162461bcd60e51b815260206004820152602760248201527f496e697469616c697a61626c653a20636f6e747261637420697320696e697469604482015266616c697a696e6760c81b606482015260840160405180910390fd5b60005460ff9081161015620000e2576000805460ff191660ff9081179091556040519081527f7f26b83ff96e1f2b6a682f133852f6798a09c465da95921460cefb38474024989060200160405180910390a15b565b612ed280620000f46000396000f3fe608060405234801561001057600080fd5b50600436106101735760003560e01c80637a952c11116100de578063b57388d311610097578063e46a636811610071578063e46a636814610338578063f2fde38b14610366578063fcca559214610379578063fd3eb81f1461039157600080fd5b8063b57388d3146102ff578063bcbc5fc614610312578063cf4c8a7b1461032557600080fd5b80637a952c11146102935780638129fc1c146102a65780638a51d8b4146102ae5780638da5cb5b146102b757806395f645bc146102c8578063b3bd9ac4146102dd57600080fd5b8063429ec49c11610130578063429ec49c1461021f5780634679b366146102325780634866e2e01461024557806354bbb9141461025857806368fe7d2314610278578063715018a61461028b57600080fd5b806319045a25146101785780631a47931b146101a8578063254ff981146101bd5780632cd00d53146101d05780633231a7f0146101e5578063404a698614610208575b600080fd5b61018b6101863660046125f1565b6103a4565b6040516001600160a01b0390911681526020015b60405180910390f35b6101bb6101b636600461263d565b6104b5565b005b6101bb6101cb3660046126bc565b61098d565b6101d8610a06565b60405161019f91906126fe565b6101f86101f33660046125f1565b610bf4565b604051901515815260200161019f565b610210610c20565b60405161019f939291906127f0565b6101bb61022d3660046126bc565b610d17565b6101bb610240366004612818565b610d55565b6101f86102533660046126bc565b61112b565b61026b6102663660046126bc565b61115b565b60405161019f91906128bc565b6101f8610286366004612906565b611288565b6101bb611370565b6101bb6102a13660046126bc565b611384565b6101bb611582565b609e54156101f8565b6033546001600160a01b031661018b565b6102d06116a2565b60405161019f9190612936565b6102f06102eb36600461295f565b61177b565b60405161019f93929190612a10565b6101f861030d366004612906565b611840565b6101f86103203660046126bc565b6118bb565b609c5461018b906001600160a01b031681565b6101f861034636600461295f565b805160208183018101805160a38252928201919093012091525460ff1681565b6101bb610374366004612906565b611902565b610381611978565b60405161019f9493929190612a49565b6101bb61039f366004612906565b611af5565b6000806000806103e986868080601f016020809104026020016040519081016040528093929190818152602001838380828437600092019190915250611b8092505050565b92509250925060006001888386866040516000815260200160405260405161042d949392919093845260ff9290921660208401526040830152606082015260800190565b6020604051602081039080840390855afa15801561044f573d6000803e3d6000fd5b5050604051601f1901519150506001600160a01b0381166104aa5760405162461bcd60e51b815260206004820152601060248201526f1958dc9958dbdd995c8819985a5b195960821b60448201526064015b60405180910390fd5b979650505050505050565b6104bd611c09565b8061050a5760405162461bcd60e51b815260206004820152601960248201527f6261746368207075626c6963206b657920697320656d7074790000000000000060448201526064016104a1565b8083106105655760405162461bcd60e51b815260206004820152602360248201527f7468726573686f6c64206d757374206c657373207468616e20747373206d656d6044820152623132b960e91b60648201526084016104a1565b60005b818110156106cd5760006105d384848481811061058757610587612a7a565b90506020028101906105999190612a90565b8080601f016020809104026020016040519081016040528093929190818152602001838380828437600092019190915250611c6392505050565b609c5460405163522c209d60e11b81526001600160a01b03808416600483015292935091169063a458413a90602401602060405180830381600087803b15801561061c57600080fd5b505af1158015610630573d6000803e3d6000fd5b505050506040513d601f19601f820116820180604052508101906106549190612ad7565b6106ba5760405162461bcd60e51b815260206004820152603160248201527f6261746368207075626c6963206b657973206861732061206e6f6465202c636160448201527037103737ba1031329037b832b930ba37b960791b60648201526084016104a1565b50806106c581612b0f565b915050610568565b50609e54156108295760005b609e5481101561081c5760a160a0609e83815481106106fa576106fa612a7a565b906000526020600020016040516107119190612b65565b90815260405190819003602001812061072991612b65565b90815260200160405180910390206000905560a0609e828154811061075057610750612a7a565b906000526020600020016040516107679190612b65565b9081526020016040518091039020600061078191906123ab565b60a2609e828154811061079657610796612a7a565b906000526020600020016040516107ad9190612b65565b908152604051908190036020019020805460ff19169055609e805460a39190839081106107dc576107dc612a7a565b906000526020600020016040516107f39190612b65565b908152604051908190036020019020805460ff191690558061081481612b0f565b9150506106d9565b50610829609e60006123e5565b60005b8181101561093757609e83838381811061084857610848612a7a565b905060200281019061085a9190612a90565b82546001810184556000938452602090932061087893019190612403565b50600160a384848481811061088f5761088f612a7a565b90506020028101906108a19190612a90565b6040516108af929190612bd7565b908152604051908190036020019020805491151560ff19909216919091179055600060a28484848181106108e5576108e5612a7a565b90506020028101906108f79190612a90565b604051610905929190612bd7565b908152604051908190036020019020805491151560ff199092169190911790558061092f81612b0f565b91505061082c565b50609b839055609a547ffa26843b7ced045dd12994ee0e73c6f0904c3a4608bce58ae304d606035b079e9061096d906001612be7565b8484846040516109809493929190612c28565b60405180910390a1505050565b609c546001600160a01b031633146109b75760405162461bcd60e51b81526004016104a190612cd6565b6001609f83836040516109cb929190612bd7565b908152602001604051809103902060010160146101000a81548160ff021916908360018111156109fd576109fd612884565b02179055505050565b60606000805b609d54811015610a9a576000609f609d8381548110610a2d57610a2d612a7a565b90600052602060002001604051610a449190612b65565b908152602001604051809103902060010160149054906101000a900460ff166001811115610a7457610a74612884565b1415610a885781610a8481612b0f565b9250505b80610a9281612b0f565b915050610a0c565b5060008167ffffffffffffffff811115610ab657610ab6612949565b604051908082528060200260200182016040528015610adf578160200160208202803683370190505b5090506000805b609d54811015610beb576000609f609d8381548110610b0757610b07612a7a565b90600052602060002001604051610b1e9190612b65565b908152602001604051809103902060010160149054906101000a900460ff166001811115610b4e57610b4e612884565b1415610bd957609f609d8281548110610b6957610b69612a7a565b90600052602060002001604051610b809190612b65565b9081526040519081900360200190206001015483516001600160a01b0390911690849084908110610bb357610bb3612a7a565b6001600160a01b039092166020928302919091019091015281610bd581612b0f565b9250505b80610be381612b0f565b915050610ae6565b50909392505050565b6098546000906001600160a01b0316610c0e8585856103a4565b6001600160a01b031614949350505050565b6000806060609a546001610c349190612be7565b609b54609e80805480602002602001604051908101604052809291908181526020016000905b82821015610d06578382906000526020600020018054610c7990612b2a565b80601f0160208091040260200160405190810160405280929190818152602001828054610ca590612b2a565b8015610cf25780601f10610cc757610100808354040283529160200191610cf2565b820191906000526020600020905b815481529060010190602001808311610cd557829003601f168201915b505050505081526020019060010190610c5a565b505050509050925092509250909192565b609c546001600160a01b03163314610d415760405162461bcd60e51b81526004016104a190612cd6565b6000609f83836040516109cb929190612bd7565b60a38484604051610d67929190612bd7565b9081526040519081900360200190205460ff16610dd75760405162461bcd60e51b815260206004820152602860248201527f796f7572207075626c6963206b6579206973206e6f7420696e20496e416374696044820152673b32a6b2b6b132b960c11b60648201526084016104a1565b610e1684848080601f016020809104026020016040519081016040528093929190818152602001838380828437600092019190915250611c6392505050565b6001600160a01b0316336001600160a01b031614610e6d5760405162461bcd60e51b81526020600482015260146024820152730e0eac4d8d2c640d6caf240dcdee840dac2e8c6d60631b60448201526064016104a1565b60408114610ebd5760405162461bcd60e51b815260206004820152601d60248201527f496e76616c69642067726f75705075626c69634b6579206c656e67746800000060448201526064016104a1565b60a28484604051610ecf929190612bd7565b9081526040519081900360200190205460ff16610f1b57600160a28585604051610efa929190612bd7565b908152604051908190036020019020805491151560ff199092169190911790555b61100360a08585604051610f30929190612bd7565b90815260200160405180910390208054610f4990612b2a565b80601f0160208091040260200160405190810160405280929190818152602001828054610f7590612b2a565b8015610fc25780601f10610f9757610100808354040283529160200191610fc2565b820191906000526020600020905b815481529060010190602001808311610fa557829003601f168201915b505050505083838080601f016020809104026020016040519081016040528093929190818152602001838380828437600092019190915250611cc292505050565b6110f157600160a1838360405161101b929190612bd7565b908152602001604051809103902060008282546110389190612be7565b909155505060405160a0906110509086908690612bd7565b9081526020016040518091039020805461106990612b2a565b1590506110c157600160a160a08686604051611086929190612bd7565b90815260405190819003602001812061109e91612b65565b908152602001604051809103902060008282546110bb9190612d1b565b90915550505b818160a086866040516110d5929190612bd7565b9081526040519081900360200190206110ef929091612403565b505b609e5460405160a1906111079085908590612bd7565b90815260200160405180910390205410611125576111258282611d54565b50505050565b600060a3838360405161113f929190612bd7565b9081526040519081900360200190205460ff1690505b92915050565b61117c60408051606080820183528152600060208201819052909182015290565b609f838360405161118e929190612bd7565b90815260200160405180910390206040518060600160405290816000820180546111b790612b2a565b80601f01602080910402602001604051908101604052809291908181526020018280546111e390612b2a565b80156112305780601f1061120557610100808354040283529160200191611230565b820191906000526020600020905b81548152906001019060200180831161121357829003601f168201915b50505091835250506001828101546001600160a01b0381166020840152604090920191600160a01b900460ff169081111561126d5761126d612884565b600181111561127e5761127e612884565b9052509392505050565b6000805b609d54811015611367576000609f609d83815481106112ad576112ad612a7a565b906000526020600020016040516112c49190612b65565b908152602001604051809103902060010160149054906101000a900460ff1660018111156112f4576112f4612884565b141561135557609f609d828154811061130f5761130f612a7a565b906000526020600020016040516113269190612b65565b908152604051908190036020019020600101546001600160a01b03848116911614156113555750600192915050565b8061135f81612b0f565b91505061128c565b50600092915050565b611378611c09565b611382600061226e565b565b61138c611c09565b60995461139a906001612be7565b609d54116114275760405162461bcd60e51b815260206004820152604e60248201527f54737347726f75704d616e616765722072656d6f76654d656d6265723a20616360448201527f74697665206d656d62657273206d757374206d6f7265207468616e207468726560648201526d73686f6c6420706c7573206f6e6560901b608482015260a4016104a1565b60005b609d5481101561153e57611519609d828154811061144a5761144a612a7a565b90600052602060002001805461145f90612b2a565b80601f016020809104026020016040519081016040528092919081815260200182805461148b90612b2a565b80156114d85780601f106114ad576101008083540402835291602001916114d8565b820191906000526020600020905b8154815290600101906020018083116114bb57829003601f168201915b505050505084848080601f016020809104026020016040519081016040528093929190818152602001838380828437600092019190915250611cc292505050565b1561152c57611527816122c0565b61153e565b8061153681612b0f565b91505061142a565b50609f8282604051611551929190612bd7565b908152604051908190036020019020600061156c82826123ab565b5060010180546001600160a81b03191690555050565b600054610100900460ff16158080156115a25750600054600160ff909116105b806115bc5750303b1580156115bc575060005460ff166001145b61161f5760405162461bcd60e51b815260206004820152602e60248201527f496e697469616c697a61626c653a20636f6e747261637420697320616c72656160448201526d191e481a5b9a5d1a585b1a5e995960921b60648201526084016104a1565b6000805460ff191660011790558015611642576000805461ff0019166101001790555b61164a612351565b6000609a8190556099819055609b55801561169f576000805461ff0019169055604051600181527f7f26b83ff96e1f2b6a682f133852f6798a09c465da95921460cefb38474024989060200160405180910390a15b50565b6060609d805480602002602001604051908101604052809291908181526020016000905b828210156117725783829060005260206000200180546116e590612b2a565b80601f016020809104026020016040519081016040528092919081815260200182805461171190612b2a565b801561175e5780601f106117335761010080835404028352916020019161175e565b820191906000526020600020905b81548152906001019060200180831161174157829003601f168201915b5050505050815260200190600101906116c6565b50505050905090565b8051602081830181018051609f825292820191909301209152805481906117a190612b2a565b80601f01602080910402602001604051908101604052809291908181526020018280546117cd90612b2a565b801561181a5780601f106117ef5761010080835404028352916020019161181a565b820191906000526020600020905b8154815290600101906020018083116117fd57829003601f168201915b505050600190930154919250506001600160a01b0381169060ff600160a01b9091041683565b6000805b609d5481101561136757609f609d828154811061186357611863612a7a565b9060005260206000200160405161187a9190612b65565b908152604051908190036020019020600101546001600160a01b03848116911614156118a95750600192915050565b806118b381612b0f565b915050611844565b600080609f84846040516118d0929190612bd7565b90815260405190819003602001902080546118ea90612b2a565b905011156118fa57506001611155565b506000611155565b61190a611c09565b6001600160a01b03811661196f5760405162461bcd60e51b815260206004820152602660248201527f4f776e61626c653a206e6577206f776e657220697320746865207a65726f206160448201526564647265737360d01b60648201526084016104a1565b61169f8161226e565b600080606080609a546099546097609d81805461199490612b2a565b80601f01602080910402602001604051908101604052809291908181526020018280546119c090612b2a565b8015611a0d5780601f106119e257610100808354040283529160200191611a0d565b820191906000526020600020905b8154815290600101906020018083116119f057829003601f168201915b5050505050915080805480602002602001604051908101604052809291908181526020016000905b82821015611ae1578382906000526020600020018054611a5490612b2a565b80601f0160208091040260200160405190810160405280929190818152602001828054611a8090612b2a565b8015611acd5780601f10611aa257610100808354040283529160200191611acd565b820191906000526020600020905b815481529060010190602001808311611ab057829003601f168201915b505050505081526020019060010190611a35565b505050509050935093509350935090919293565b611afd611c09565b6001600160a01b038116611b5e5760405162461bcd60e51b815260206004820152602260248201527f706172616d205f6164647265737320697320746865207a65726f206164647265604482015261737360f01b60648201526084016104a1565b609c80546001600160a01b0319166001600160a01b0392909216919091179055565b60008060008351604114611bd65760405162461bcd60e51b815260206004820152601860248201527f696e76616c6964207369676e6174757265206c656e677468000000000000000060448201526064016104a1565b50505060208101516040820151606083015160001a601b811015611c0257611bff601b82612d32565b90505b9193909250565b6033546001600160a01b031633146113825760405162461bcd60e51b815260206004820181905260248201527f4f776e61626c653a2063616c6c6572206973206e6f7420746865206f776e657260448201526064016104a1565b60008151604014611cb65760405162461bcd60e51b815260206004820152601f60248201527f7075626c6963206b6579206c656e677468206d7573742036342062797465730060448201526064016104a1565b50805160209091012090565b60008151835114611cd557506000611155565b60005b8351811015611d4a57828181518110611cf357611cf3612a7a565b602001015160f81c60f81b6001600160f81b031916848281518110611d1a57611d1a612a7a565b01602001516001600160f81b03191614611d38576000915050611155565b80611d4281612b0f565b915050611cd8565b5060019392505050565b609d5415611de15760005b609d54811015611dd457609f609d8281548110611d7e57611d7e612a7a565b90600052602060002001604051611d959190612b65565b9081526040519081900360200190206000611db082826123ab565b5060010180546001600160a81b031916905580611dcc81612b0f565b915050611d5f565b50611de1609d60006123e5565b60005b609e5481101561219b57609d609e8281548110611e0357611e03612a7a565b600091825260208083208454600181018655948452922091018054919092019190611e2d90612b2a565b611e38929190612487565b506040518060600160405280609e8381548110611e5757611e57612a7a565b906000526020600020018054611e6c90612b2a565b80601f0160208091040260200160405190810160405280929190818152602001828054611e9890612b2a565b8015611ee55780601f10611eba57610100808354040283529160200191611ee5565b820191906000526020600020905b815481529060010190602001808311611ec857829003601f168201915b50505050508152602001611f9d609e8481548110611f0557611f05612a7a565b906000526020600020018054611f1a90612b2a565b80601f0160208091040260200160405190810160405280929190818152602001828054611f4690612b2a565b8015611f935780601f10611f6857610100808354040283529160200191611f93565b820191906000526020600020905b815481529060010190602001808311611f7657829003601f168201915b5050505050611c63565b6001600160a01b031681526020016000815250609f609e8381548110611fc557611fc5612a7a565b90600052602060002001604051611fdc9190612b65565b90815260200160405180910390206000820151816000019080519060200190612006929190612502565b506020820151600180830180546001600160a01b039093166001600160a01b031984168117825560408601519391926001600160a81b03199092161790600160a01b90849081111561205a5761205a612884565b021790555090505060a160a0609e838154811061207957612079612a7a565b906000526020600020016040516120909190612b65565b9081526040519081900360200181206120a891612b65565b90815260200160405180910390206000905560a0609e82815481106120cf576120cf612a7a565b906000526020600020016040516120e69190612b65565b9081526020016040518091039020600061210091906123ab565b60a2609e828154811061211557612115612a7a565b9060005260206000200160405161212c9190612b65565b908152604051908190036020019020805460ff19169055609e805460a391908390811061215b5761215b612a7a565b906000526020600020016040516121729190612b65565b908152604051908190036020019020805460ff191690558061219381612b0f565b915050611de4565b506121a8609e60006123e5565b6121b460978383612403565b506121f482828080601f016020809104026020016040519081016040528093929190818152602001838380828437600092019190915250611c6392505050565b609880546001600160a01b0319166001600160a01b0392909216919091179055609b54609955609a54612228906001612be7565b609a8190556040517f61c7922e50ad7ea3d35879a4a819ae97eb09b665f2113451d7ada7cb2b689b66916122629185908590609d90612d57565b60405180910390a15050565b603380546001600160a01b038381166001600160a01b0319831681179093556040519116919082907f8be0079c531659141344cd1fd0a4f28419497f9722a3daafe3b4186f6b6457e090600090a35050565b609d80546122d090600190612d1b565b815481106122e0576122e0612a7a565b90600052602060002001609d82815481106122fd576122fd612a7a565b9060005260206000200190805461231390612b2a565b61231e929190612487565b50609d80548061233057612330612e3b565b60019003818190600052602060002001600061234c91906123ab565b905550565b600054610100900460ff166123785760405162461bcd60e51b81526004016104a190612e51565b611382600054610100900460ff166123a25760405162461bcd60e51b81526004016104a190612e51565b6113823361226e565b5080546123b790612b2a565b6000825580601f106123c7575050565b601f01602090049060005260206000209081019061169f9190612576565b508054600082559060005260206000209081019061169f919061258b565b82805461240f90612b2a565b90600052602060002090601f0160209004810192826124315760008555612477565b82601f1061244a5782800160ff19823516178555612477565b82800160010185558215612477579182015b8281111561247757823582559160200191906001019061245c565b50612483929150612576565b5090565b82805461249390612b2a565b90600052602060002090601f0160209004810192826124b55760008555612477565b82601f106124c65780548555612477565b8280016001018555821561247757600052602060002091601f016020900482015b828111156124775782548255916001019190600101906124e7565b82805461250e90612b2a565b90600052602060002090601f0160209004810192826125305760008555612477565b82601f1061254957805160ff1916838001178555612477565b82800160010185558215612477579182015b8281111561247757825182559160200191906001019061255b565b5b808211156124835760008155600101612577565b8082111561248357600061259f82826123ab565b5060010161258b565b60008083601f8401126125ba57600080fd5b50813567ffffffffffffffff8111156125d257600080fd5b6020830191508360208285010111156125ea57600080fd5b9250929050565b60008060006040848603121561260657600080fd5b83359250602084013567ffffffffffffffff81111561262457600080fd5b612630868287016125a8565b9497909650939450505050565b60008060006040848603121561265257600080fd5b83359250602084013567ffffffffffffffff8082111561267157600080fd5b818601915086601f83011261268557600080fd5b81358181111561269457600080fd5b8760208260051b85010111156126a957600080fd5b6020830194508093505050509250925092565b600080602083850312156126cf57600080fd5b823567ffffffffffffffff8111156126e657600080fd5b6126f2858286016125a8565b90969095509350505050565b6020808252825182820181905260009190848201906040850190845b8181101561273f5783516001600160a01b03168352928401929184019160010161271a565b50909695505050505050565b6000815180845260005b8181101561277157602081850181015186830182015201612755565b81811115612783576000602083870101525b50601f01601f19169290920160200192915050565b600082825180855260208086019550808260051b84010181860160005b848110156127e357601f198684030189526127d183835161274b565b988401989250908301906001016127b5565b5090979650505050505050565b83815282602082015260606040820152600061280f6060830184612798565b95945050505050565b6000806000806040858703121561282e57600080fd5b843567ffffffffffffffff8082111561284657600080fd5b612852888389016125a8565b9096509450602087013591508082111561286b57600080fd5b50612878878288016125a8565b95989497509550505050565b634e487b7160e01b600052602160045260246000fd5b600281106128b857634e487b7160e01b600052602160045260246000fd5b9052565b6020815260008251606060208401526128d8608084018261274b565b905060018060a01b03602085015116604084015260408401516128fe606085018261289a565b509392505050565b60006020828403121561291857600080fd5b81356001600160a01b038116811461292f57600080fd5b9392505050565b60208152600061292f6020830184612798565b634e487b7160e01b600052604160045260246000fd5b60006020828403121561297157600080fd5b813567ffffffffffffffff8082111561298957600080fd5b818401915084601f83011261299d57600080fd5b8135818111156129af576129af612949565b604051601f8201601f19908116603f011681019083821181831017156129d7576129d7612949565b816040528281528760208487010111156129f057600080fd5b826020860160208301376000928101602001929092525095945050505050565b606081526000612a23606083018661274b565b6001600160a01b03851660208401529050612a41604083018461289a565b949350505050565b848152836020820152608060408201526000612a68608083018561274b565b82810360608401526104aa8185612798565b634e487b7160e01b600052603260045260246000fd5b6000808335601e19843603018112612aa757600080fd5b83018035915067ffffffffffffffff821115612ac257600080fd5b6020019150368190038213156125ea57600080fd5b600060208284031215612ae957600080fd5b8151801515811461292f57600080fd5b634e487b7160e01b600052601160045260246000fd5b6000600019821415612b2357612b23612af9565b5060010190565b600181811c90821680612b3e57607f821691505b60208210811415612b5f57634e487b7160e01b600052602260045260246000fd5b50919050565b6000808354612b7381612b2a565b60018281168015612b8b5760018114612b9c57612bcb565b60ff19841687528287019450612bcb565b8760005260208060002060005b85811015612bc25781548a820152908401908201612ba9565b50505082870194505b50929695505050505050565b8183823760009101908152919050565b60008219821115612bfa57612bfa612af9565b500190565b81835281816020850137506000828201602090810191909152601f909101601f19169091010190565b60006060820186835260208681850152606060408501528185835260808501905060808660051b86010192508660005b87811015612cc757868503607f190183528135368a9003601e19018112612c7e57600080fd5b8901803567ffffffffffffffff811115612c9757600080fd5b8036038b1315612ca657600080fd5b612cb38782888501612bff565b965050509183019190830190600101612c58565b50929998505050505050505050565b60208082526025908201527f636f6e74726163742063616c6c206973206e6f74207374616b696e6720736c616040820152647368696e6760d81b606082015260800190565b600082821015612d2d57612d2d612af9565b500390565b600060ff821660ff84168060ff03821115612d4f57612d4f612af9565b019392505050565b84815260006020606081840152612d72606084018688612bff565b83810360408501528085548083528383019150838160051b8401016000888152858120815b84811015612e2957601f19878503018652828254612db481612b2a565b80875260018281168015612dcf5760018114612de357612e12565b60ff198416898e0152604089019450612e12565b8688528c8820885b84811015612e0a5781548f828d01015283820191508e81019050612deb565b8a018e019550505b50988b019892965050509190910190600101612d97565b50919c9b505050505050505050505050565b634e487b7160e01b600052603160045260246000fd5b6020808252602b908201527f496e697469616c697a61626c653a20636f6e7472616374206973206e6f74206960408201526a6e697469616c697a696e6760a81b60608201526080019056fea2646970667358221220c1fe39da9086ceea54804947accada4e29bc357d3134d4217f775e30b95f259364736f6c63430008090033",
  "devdoc": {
    "kind": "dev",
    "methods": {
      "owner()": {
        "details": "Returns the address of the current owner."
      },
      "renounceOwnership()": {
        "details": "Leaves the contract without owner. It will not be possible to call `onlyOwner` functions anymore. Can only be called by the current owner. NOTE: Renouncing ownership will leave the contract without an owner, thereby removing any functionality that is only available to the owner."
      },
      "transferOwnership(address)": {
        "details": "Transfers ownership of the contract to a new account (`newOwner`). Can only be called by the current owner."
      }
    },
    "version": 1
  },
  "userdoc": {
    "kind": "user",
    "methods": {},
    "version": 1
  },
  "storageLayout": {
    "storage": [
      {
        "astId": 216,
        "contract": "contracts/L1/tss/TssGroupManager.sol:TssGroupManager",
        "label": "_initialized",
        "offset": 0,
        "slot": "0",
        "type": "t_uint8"
      },
      {
        "astId": 219,
        "contract": "contracts/L1/tss/TssGroupManager.sol:TssGroupManager",
        "label": "_initializing",
        "offset": 1,
        "slot": "0",
        "type": "t_bool"
      },
      {
        "astId": 2492,
        "contract": "contracts/L1/tss/TssGroupManager.sol:TssGroupManager",
        "label": "__gap",
        "offset": 0,
        "slot": "1",
        "type": "t_array(t_uint256)50_storage"
      },
      {
        "astId": 10,
        "contract": "contracts/L1/tss/TssGroupManager.sol:TssGroupManager",
        "label": "_owner",
        "offset": 0,
        "slot": "51",
        "type": "t_address"
      },
      {
        "astId": 130,
        "contract": "contracts/L1/tss/TssGroupManager.sol:TssGroupManager",
        "label": "__gap",
        "offset": 0,
        "slot": "52",
        "type": "t_array(t_uint256)49_storage"
      },
      {
        "astId": 501,
        "contract": "contracts/L1/tss/TssGroupManager.sol:TssGroupManager",
        "label": "_status",
        "offset": 0,
        "slot": "101",
        "type": "t_uint256"
      },
      {
        "astId": 545,
        "contract": "contracts/L1/tss/TssGroupManager.sol:TssGroupManager",
        "label": "__gap",
        "offset": 0,
        "slot": "102",
        "type": "t_array(t_uint256)49_storage"
      },
      {
        "astId": 40760,
        "contract": "contracts/L1/tss/TssGroupManager.sol:TssGroupManager",
        "label": "confirmGroupPublicKey",
        "offset": 0,
        "slot": "151",
        "type": "t_bytes_storage"
      },
      {
        "astId": 40762,
        "contract": "contracts/L1/tss/TssGroupManager.sol:TssGroupManager",
        "label": "confirmGroupAddress",
        "offset": 0,
        "slot": "152",
        "type": "t_address"
      },
      {
        "astId": 40764,
        "contract": "contracts/L1/tss/TssGroupManager.sol:TssGroupManager",
        "label": "threshold",
        "offset": 0,
        "slot": "153",
        "type": "t_uint256"
      },
      {
        "astId": 40766,
        "contract": "contracts/L1/tss/TssGroupManager.sol:TssGroupManager",
        "label": "gRoundId",
        "offset": 0,
        "slot": "154",
        "type": "t_uint256"
      },
      {
        "astId": 40768,
        "contract": "contracts/L1/tss/TssGroupManager.sol:TssGroupManager",
        "label": "tempThreshold",
        "offset": 0,
        "slot": "155",
        "type": "t_uint256"
      },
      {
        "astId": 40770,
        "contract": "contracts/L1/tss/TssGroupManager.sol:TssGroupManager",
        "label": "stakingSlash",
        "offset": 0,
        "slot": "156",
        "type": "t_address"
      },
      {
        "astId": 40773,
        "contract": "contracts/L1/tss/TssGroupManager.sol:TssGroupManager",
        "label": "activeTssMembers",
        "offset": 0,
        "slot": "157",
        "type": "t_array(t_bytes_storage)dyn_storage"
      },
      {
        "astId": 40776,
        "contract": "contracts/L1/tss/TssGroupManager.sol:TssGroupManager",
        "label": "inActiveTssMembers",
        "offset": 0,
        "slot": "158",
        "type": "t_array(t_bytes_storage)dyn_storage"
      },
      {
        "astId": 40781,
        "contract": "contracts/L1/tss/TssGroupManager.sol:TssGroupManager",
        "label": "tssActiveMemberInfo",
        "offset": 0,
        "slot": "159",
        "type": "t_mapping(t_bytes_memory_ptr,t_struct(TssMember)40494_storage)"
      },
      {
        "astId": 40785,
        "contract": "contracts/L1/tss/TssGroupManager.sol:TssGroupManager",
        "label": "_memberGroupKey",
        "offset": 0,
        "slot": "160",
        "type": "t_mapping(t_bytes_memory_ptr,t_bytes_storage)"
      },
      {
        "astId": 40789,
        "contract": "contracts/L1/tss/TssGroupManager.sol:TssGroupManager",
        "label": "_groupKeyCounter",
        "offset": 0,
        "slot": "161",
        "type": "t_mapping(t_bytes_memory_ptr,t_uint256)"
      },
      {
        "astId": 40793,
        "contract": "contracts/L1/tss/TssGroupManager.sol:TssGroupManager",
        "label": "_isSubmitGroupKey",
        "offset": 0,
        "slot": "162",
        "type": "t_mapping(t_bytes_memory_ptr,t_bool)"
      },
      {
        "astId": 40797,
        "contract": "contracts/L1/tss/TssGroupManager.sol:TssGroupManager",
        "label": "isInActiveMember",
        "offset": 0,
        "slot": "163",
        "type": "t_mapping(t_bytes_memory_ptr,t_bool)"
      }
    ],
    "types": {
      "t_address": {
        "encoding": "inplace",
        "label": "address",
        "numberOfBytes": "20"
      },
      "t_array(t_bytes_storage)dyn_storage": {
        "base": "t_bytes_storage",
        "encoding": "dynamic_array",
        "label": "bytes[]",
        "numberOfBytes": "32"
      },
      "t_array(t_uint256)49_storage": {
        "base": "t_uint256",
        "encoding": "inplace",
        "label": "uint256[49]",
        "numberOfBytes": "1568"
      },
      "t_array(t_uint256)50_storage": {
        "base": "t_uint256",
        "encoding": "inplace",
        "label": "uint256[50]",
        "numberOfBytes": "1600"
      },
      "t_bool": {
        "encoding": "inplace",
        "label": "bool",
        "numberOfBytes": "1"
      },
      "t_bytes_memory_ptr": {
        "encoding": "bytes",
        "label": "bytes",
        "numberOfBytes": "32"
      },
      "t_bytes_storage": {
        "encoding": "bytes",
        "label": "bytes",
        "numberOfBytes": "32"
      },
      "t_enum(MemberStatus)40486": {
        "encoding": "inplace",
        "label": "enum ITssGroupManager.MemberStatus",
        "numberOfBytes": "1"
      },
      "t_mapping(t_bytes_memory_ptr,t_bool)": {
        "encoding": "mapping",
        "key": "t_bytes_memory_ptr",
        "label": "mapping(bytes => bool)",
        "numberOfBytes": "32",
        "value": "t_bool"
      },
      "t_mapping(t_bytes_memory_ptr,t_bytes_storage)": {
        "encoding": "mapping",
        "key": "t_bytes_memory_ptr",
        "label": "mapping(bytes => bytes)",
        "numberOfBytes": "32",
        "value": "t_bytes_storage"
      },
      "t_mapping(t_bytes_memory_ptr,t_struct(TssMember)40494_storage)": {
        "encoding": "mapping",
        "key": "t_bytes_memory_ptr",
        "label": "mapping(bytes => struct ITssGroupManager.TssMember)",
        "numberOfBytes": "32",
        "value": "t_struct(TssMember)40494_storage"
      },
      "t_mapping(t_bytes_memory_ptr,t_uint256)": {
        "encoding": "mapping",
        "key": "t_bytes_memory_ptr",
        "label": "mapping(bytes => uint256)",
        "numberOfBytes": "32",
        "value": "t_uint256"
      },
      "t_struct(TssMember)40494_storage": {
        "encoding": "inplace",
        "label": "struct ITssGroupManager.TssMember",
        "members": [
          {
            "astId": 40488,
            "contract": "contracts/L1/tss/TssGroupManager.sol:TssGroupManager",
            "label": "publicKey",
            "offset": 0,
            "slot": "0",
            "type": "t_bytes_storage"
          },
          {
            "astId": 40490,
            "contract": "contracts/L1/tss/TssGroupManager.sol:TssGroupManager",
            "label": "nodeAddress",
            "offset": 0,
            "slot": "1",
            "type": "t_address"
          },
          {
            "astId": 40493,
            "contract": "contracts/L1/tss/TssGroupManager.sol:TssGroupManager",
            "label": "status",
            "offset": 20,
            "slot": "1",
            "type": "t_enum(MemberStatus)40486"
          }
        ],
        "numberOfBytes": "64"
      },
      "t_uint256": {
        "encoding": "inplace",
        "label": "uint256",
        "numberOfBytes": "32"
      },
      "t_uint8": {
        "encoding": "inplace",
        "label": "uint8",
        "numberOfBytes": "1"
      }
    }
  }
}