{
  "_format": "hh-sol-artifact-1",
  "contractName": "L2CrossDomainMessenger",
  "sourceName": "contracts/L2/messaging/L2CrossDomainMessenger.sol",
  "abi": [
    {
      "inputs": [
        {
          "internalType": "address",
          "name": "_l1CrossDomainMessenger",
          "type": "address"
        }
      ],
      "stateMutability": "nonpayable",
      "type": "constructor"
    },
    {
      "anonymous": false,
      "inputs": [
        {
          "indexed": true,
          "internalType": "bytes32",
          "name": "msgHash",
          "type": "bytes32"
        }
      ],
      "name": "FailedRelayedMessage",
      "type": "event"
    },
    {
      "anonymous": false,
      "inputs": [
        {
          "indexed": true,
          "internalType": "bytes32",
          "name": "msgHash",
          "type": "bytes32"
        }
      ],
      "name": "RelayedMessage",
      "type": "event"
    },
    {
      "anonymous": false,
      "inputs": [
        {
          "indexed": true,
          "internalType": "address",
          "name": "target",
          "type": "address"
        },
        {
          "indexed": false,
          "internalType": "address",
          "name": "sender",
          "type": "address"
        },
        {
          "indexed": false,
          "internalType": "bytes",
          "name": "message",
          "type": "bytes"
        },
        {
          "indexed": false,
          "internalType": "uint256",
          "name": "messageNonce",
          "type": "uint256"
        },
        {
          "indexed": false,
          "internalType": "uint256",
          "name": "gasLimit",
          "type": "uint256"
        }
      ],
      "name": "SentMessage",
      "type": "event"
    },
    {
      "inputs": [],
      "name": "l1CrossDomainMessenger",
      "outputs": [
        {
          "internalType": "address",
          "name": "",
          "type": "address"
        }
      ],
      "stateMutability": "view",
      "type": "function"
    },
    {
      "inputs": [],
      "name": "messageNonce",
      "outputs": [
        {
          "internalType": "uint256",
          "name": "",
          "type": "uint256"
        }
      ],
      "stateMutability": "view",
      "type": "function"
    },
    {
      "inputs": [
        {
          "internalType": "address",
          "name": "_target",
          "type": "address"
        },
        {
          "internalType": "address",
          "name": "_sender",
          "type": "address"
        },
        {
          "internalType": "bytes",
          "name": "_message",
          "type": "bytes"
        },
        {
          "internalType": "uint256",
          "name": "_messageNonce",
          "type": "uint256"
        }
      ],
      "name": "relayMessage",
      "outputs": [],
      "stateMutability": "nonpayable",
      "type": "function"
    },
    {
      "inputs": [
        {
          "internalType": "bytes32",
          "name": "",
          "type": "bytes32"
        }
      ],
      "name": "relayedMessages",
      "outputs": [
        {
          "internalType": "bool",
          "name": "",
          "type": "bool"
        }
      ],
      "stateMutability": "view",
      "type": "function"
    },
    {
      "inputs": [
        {
          "internalType": "address",
          "name": "_target",
          "type": "address"
        },
        {
          "internalType": "bytes",
          "name": "_message",
          "type": "bytes"
        },
        {
          "internalType": "uint32",
          "name": "_gasLimit",
          "type": "uint32"
        }
      ],
      "name": "sendMessage",
      "outputs": [],
      "stateMutability": "nonpayable",
      "type": "function"
    },
    {
      "inputs": [
        {
          "internalType": "bytes32",
          "name": "",
          "type": "bytes32"
        }
      ],
      "name": "sentMessages",
      "outputs": [
        {
          "internalType": "bool",
          "name": "",
          "type": "bool"
        }
      ],
      "stateMutability": "view",
      "type": "function"
    },
    {
      "inputs": [
        {
          "internalType": "bytes32",
          "name": "",
          "type": "bytes32"
        }
      ],
      "name": "successfulMessages",
      "outputs": [
        {
          "internalType": "bool",
          "name": "",
          "type": "bool"
        }
      ],
      "stateMutability": "view",
      "type": "function"
    },
    {
      "inputs": [],
      "name": "xDomainMessageSender",
      "outputs": [
        {
          "internalType": "address",
          "name": "",
          "type": "address"
        }
      ],
      "stateMutability": "view",
      "type": "function"
    }
  ],
  "bytecode": "0x6080604052600480546001600160a01b03191661dead17905534801561002457600080fd5b50604051610cc3380380610cc383398101604081905261004391610068565b600580546001600160a01b0319166001600160a01b0392909216919091179055610098565b60006020828403121561007a57600080fd5b81516001600160a01b038116811461009157600080fd5b9392505050565b610c1c806100a76000396000f3fe608060405234801561001057600080fd5b50600436106100885760003560e01c8063a71198691161005b578063a71198691461012a578063b1b1b2091461014a578063cbd4ece91461016d578063ecc704281461018057600080fd5b806321d800ec1461008d5780633dbb202b146100c55780636e296e45146100da57806382e3702d14610107575b600080fd5b6100b061009b366004610826565b60006020819052908152604090205460ff1681565b60405190151581526020015b60405180910390f35b6100d86100d3366004610942565b610197565b005b6100e26102e2565b60405173ffffffffffffffffffffffffffffffffffffffff90911681526020016100bc565b6100b0610115366004610826565b60026020526000908152604090205460ff1681565b6005546100e29073ffffffffffffffffffffffffffffffffffffffff1681565b6100b0610158366004610826565b60016020526000908152604090205460ff1681565b6100d861017b3660046109ad565b61038b565b61018960035481565b6040519081526020016100bc565b60006101a784338560035461078d565b80516020808301919091206000908152600290915260409081902080547fffffffffffffffffffffffffffffffffffffffffffffffffffffffffffffff00166001179055517fcafa81dc0000000000000000000000000000000000000000000000000000000081529091507342000000000000000000000000000000000000009063cafa81dc9061023c908490600401610a89565b600060405180830381600087803b15801561025657600080fd5b505af115801561026a573d6000803e3d6000fd5b505050508373ffffffffffffffffffffffffffffffffffffffff167fcb0f7ffd78f9aee47a248fae8db181db6eee833039123e026dcbff529522e52a3385600354866040516102bc9493929190610aa3565b60405180910390a26001600360008282546102d79190610aef565b909155505050505050565b60045460009073ffffffffffffffffffffffffffffffffffffffff1661dead141561036e576040517f08c379a000000000000000000000000000000000000000000000000000000000815260206004820152601f60248201527f78446f6d61696e4d65737361676553656e646572206973206e6f74207365740060448201526064015b60405180910390fd5b5060045473ffffffffffffffffffffffffffffffffffffffff1690565b60055473ffffffffffffffffffffffffffffffffffffffff167fffffffffffffffffffffffffeeeeffffffffffffffffffffffffffffffffeeef330173ffffffffffffffffffffffffffffffffffffffff161461046a576040517f08c379a000000000000000000000000000000000000000000000000000000000815260206004820152602760248201527f50726f7669646564206d65737361676520636f756c64206e6f7420626520766560448201527f7269666965642e000000000000000000000000000000000000000000000000006064820152608401610365565b60006104788585858561078d565b8051602080830191909120600081815260019092526040909120549192509060ff1615610527576040517f08c379a000000000000000000000000000000000000000000000000000000000815260206004820152602b60248201527f50726f7669646564206d6573736167652068617320616c72656164792062656560448201527f6e2072656365697665642e0000000000000000000000000000000000000000006064820152608401610365565b73ffffffffffffffffffffffffffffffffffffffff8616734200000000000000000000000000000000000000141561059957600090815260016020819052604090912080547fffffffffffffffffffffffffffffffffffffffffffffffffffffffffffffff0016909117905550610787565b600480547fffffffffffffffffffffffff00000000000000000000000000000000000000001673ffffffffffffffffffffffffffffffffffffffff878116919091179091556040516000918816906105f2908790610b2e565b6000604051808303816000865af19150503d806000811461062f576040519150601f19603f3d011682016040523d82523d6000602084013e610634565b606091505b5050600480547fffffffffffffffffffffffff00000000000000000000000000000000000000001661dead1790559050801515600114156106d557600082815260016020819052604080832080547fffffffffffffffffffffffffffffffffffffffffffffffffffffffffffffff00169092179091555183917f4641df4a962071e12719d8c8c8e5ac7fc4d97b927346a3d7a335b1f7517e133c91a2610701565b60405182907f99d0e048484baa1b1540b1367cb128acd7ab2946d1ed91ec10e3c85e4bf51b8f90600090a25b600083334360405160200161071893929190610b4a565b604080517fffffffffffffffffffffffffffffffffffffffffffffffffffffffffffffffe08184030181529181528151602092830120600090815291829052902080547fffffffffffffffffffffffffffffffffffffffffffffffffffffffffffffff00166001179055505050505b50505050565b6060848484846040516024016107a69493929190610b9c565b604080517fffffffffffffffffffffffffffffffffffffffffffffffffffffffffffffffe08184030181529190526020810180517bffffffffffffffffffffffffffffffffffffffffffffffffffffffff167fcbd4ece9000000000000000000000000000000000000000000000000000000001790529050949350505050565b60006020828403121561083857600080fd5b5035919050565b803573ffffffffffffffffffffffffffffffffffffffff8116811461086357600080fd5b919050565b7f4e487b7100000000000000000000000000000000000000000000000000000000600052604160045260246000fd5b600082601f8301126108a857600080fd5b813567ffffffffffffffff808211156108c3576108c3610868565b604051601f83017fffffffffffffffffffffffffffffffffffffffffffffffffffffffffffffffe0908116603f0116810190828211818310171561090957610909610868565b8160405283815286602085880101111561092257600080fd5b836020870160208301376000602085830101528094505050505092915050565b60008060006060848603121561095757600080fd5b6109608461083f565b9250602084013567ffffffffffffffff81111561097c57600080fd5b61098886828701610897565b925050604084013563ffffffff811681146109a257600080fd5b809150509250925092565b600080600080608085870312156109c357600080fd5b6109cc8561083f565b93506109da6020860161083f565b9250604085013567ffffffffffffffff8111156109f657600080fd5b610a0287828801610897565b949793965093946060013593505050565b60005b83811015610a2e578181015183820152602001610a16565b838111156107875750506000910152565b60008151808452610a57816020860160208601610a13565b601f017fffffffffffffffffffffffffffffffffffffffffffffffffffffffffffffffe0169290920160200192915050565b602081526000610a9c6020830184610a3f565b9392505050565b73ffffffffffffffffffffffffffffffffffffffff85168152608060208201526000610ad26080830186610a3f565b905083604083015263ffffffff8316606083015295945050505050565b60008219821115610b29577f4e487b7100000000000000000000000000000000000000000000000000000000600052601160045260246000fd5b500190565b60008251610b40818460208701610a13565b9190910192915050565b60008451610b5c818460208901610a13565b60609490941b7fffffffffffffffffffffffffffffffffffffffff0000000000000000000000001691909301908152601481019190915260340192915050565b600073ffffffffffffffffffffffffffffffffffffffff808716835280861660208401525060806040830152610bd56080830185610a3f565b90508260608301529594505050505056fea264697066735822122060db5939914765b6ad042b95a40568e91920bfb1eadc40c6a64ec7445e27814a64736f6c63430008090033",
  "linkReferences": {},
  "deployedLinkReferences": {}
}