{
  "_format": "hh-sol-artifact-1",
  "contractName": "L2StandardBridge",
  "sourceName": "contracts/L2/messaging/L2StandardBridge.sol",
  "abi": [
    {
      "inputs": [
        {
          "internalType": "address",
          "name": "_l2CrossDomainMessenger",
          "type": "address"
        },
        {
          "internalType": "address",
          "name": "_l1TokenBridge",
          "type": "address"
        }
      ],
      "stateMutability": "nonpayable",
      "type": "constructor"
    },
    {
      "anonymous": false,
      "inputs": [
        {
          "indexed": true,
          "internalType": "address",
          "name": "_l1Token",
          "type": "address"
        },
        {
          "indexed": true,
          "internalType": "address",
          "name": "_l2Token",
          "type": "address"
        },
        {
          "indexed": true,
          "internalType": "address",
          "name": "_from",
          "type": "address"
        },
        {
          "indexed": false,
          "internalType": "address",
          "name": "_to",
          "type": "address"
        },
        {
          "indexed": false,
          "internalType": "uint256",
          "name": "_amount",
          "type": "uint256"
        },
        {
          "indexed": false,
          "internalType": "bytes",
          "name": "_data",
          "type": "bytes"
        }
      ],
      "name": "DepositFailed",
      "type": "event"
    },
    {
      "anonymous": false,
      "inputs": [
        {
          "indexed": true,
          "internalType": "address",
          "name": "_l1Token",
          "type": "address"
        },
        {
          "indexed": true,
          "internalType": "address",
          "name": "_l2Token",
          "type": "address"
        },
        {
          "indexed": true,
          "internalType": "address",
          "name": "_from",
          "type": "address"
        },
        {
          "indexed": false,
          "internalType": "address",
          "name": "_to",
          "type": "address"
        },
        {
          "indexed": false,
          "internalType": "uint256",
          "name": "_amount",
          "type": "uint256"
        },
        {
          "indexed": false,
          "internalType": "bytes",
          "name": "_data",
          "type": "bytes"
        }
      ],
      "name": "DepositFinalized",
      "type": "event"
    },
    {
      "anonymous": false,
      "inputs": [
        {
          "indexed": true,
          "internalType": "address",
          "name": "_l1Token",
          "type": "address"
        },
        {
          "indexed": true,
          "internalType": "address",
          "name": "_l2Token",
          "type": "address"
        },
        {
          "indexed": true,
          "internalType": "address",
          "name": "_from",
          "type": "address"
        },
        {
          "indexed": false,
          "internalType": "address",
          "name": "_to",
          "type": "address"
        },
        {
          "indexed": false,
          "internalType": "uint256",
          "name": "_amount",
          "type": "uint256"
        },
        {
          "indexed": false,
          "internalType": "bytes",
          "name": "_data",
          "type": "bytes"
        }
      ],
      "name": "WithdrawalInitiated",
      "type": "event"
    },
    {
      "inputs": [
        {
          "internalType": "address",
          "name": "_l1Token",
          "type": "address"
        },
        {
          "internalType": "address",
          "name": "_l2Token",
          "type": "address"
        },
        {
          "internalType": "address",
          "name": "_from",
          "type": "address"
        },
        {
          "internalType": "address",
          "name": "_to",
          "type": "address"
        },
        {
          "internalType": "uint256",
          "name": "_amount",
          "type": "uint256"
        },
        {
          "internalType": "bytes",
          "name": "_data",
          "type": "bytes"
        }
      ],
      "name": "finalizeDeposit",
      "outputs": [],
      "stateMutability": "nonpayable",
      "type": "function"
    },
    {
      "inputs": [],
      "name": "l1TokenBridge",
      "outputs": [
        {
          "internalType": "address",
          "name": "",
          "type": "address"
        }
      ],
      "stateMutability": "view",
      "type": "function"
    },
    {
      "inputs": [],
      "name": "messenger",
      "outputs": [
        {
          "internalType": "address",
          "name": "",
          "type": "address"
        }
      ],
      "stateMutability": "view",
      "type": "function"
    },
    {
      "inputs": [
        {
          "internalType": "address",
          "name": "_l2Token",
          "type": "address"
        },
        {
          "internalType": "uint256",
          "name": "_amount",
          "type": "uint256"
        },
        {
          "internalType": "uint32",
          "name": "_l1Gas",
          "type": "uint32"
        },
        {
          "internalType": "bytes",
          "name": "_data",
          "type": "bytes"
        }
      ],
      "name": "withdraw",
      "outputs": [],
      "stateMutability": "nonpayable",
      "type": "function"
    },
    {
      "inputs": [
        {
          "internalType": "address",
          "name": "_l2Token",
          "type": "address"
        },
        {
          "internalType": "address",
          "name": "_to",
          "type": "address"
        },
        {
          "internalType": "uint256",
          "name": "_amount",
          "type": "uint256"
        },
        {
          "internalType": "uint32",
          "name": "_l1Gas",
          "type": "uint32"
        },
        {
          "internalType": "bytes",
          "name": "_data",
          "type": "bytes"
        }
      ],
      "name": "withdrawTo",
      "outputs": [],
      "stateMutability": "nonpayable",
      "type": "function"
    }
  ],
  "bytecode": "0x608060405234801561001057600080fd5b5060405161123138038061123183398101604081905261002f9161007c565b600080546001600160a01b039384166001600160a01b031991821617909155600180549290931691161790556100af565b80516001600160a01b038116811461007757600080fd5b919050565b6000806040838503121561008f57600080fd5b61009883610060565b91506100a660208401610060565b90509250929050565b611173806100be6000396000f3fe608060405234801561001057600080fd5b50600436106100675760003560e01c80633cb747bf116100505780633cb747bf146100ca578063662a633a146100ea578063a3a79548146100fd57600080fd5b806332b7006d1461006c57806336c717c114610081575b600080fd5b61007f61007a366004610d7c565b610110565b005b6001546100a19073ffffffffffffffffffffffffffffffffffffffff1681565b60405173ffffffffffffffffffffffffffffffffffffffff909116815260200160405180910390f35b6000546100a19073ffffffffffffffffffffffffffffffffffffffff1681565b61007f6100f8366004610ded565b610126565b61007f61010b366004610e85565b6106c1565b61011f853333878787876106d8565b5050505050565b60015473ffffffffffffffffffffffffffffffffffffffff1661015e60005473ffffffffffffffffffffffffffffffffffffffff1690565b73ffffffffffffffffffffffffffffffffffffffff163373ffffffffffffffffffffffffffffffffffffffff161461021d576040517f08c379a000000000000000000000000000000000000000000000000000000000815260206004820152602e60248201527f42564d5f58434841494e3a206d657373656e67657220636f6e7472616374207560448201527f6e61757468656e7469636174656400000000000000000000000000000000000060648201526084015b60405180910390fd5b8073ffffffffffffffffffffffffffffffffffffffff1661025360005473ffffffffffffffffffffffffffffffffffffffff1690565b73ffffffffffffffffffffffffffffffffffffffff16636e296e456040518163ffffffff1660e01b815260040160206040518083038186803b15801561029857600080fd5b505afa1580156102ac573d6000803e3d6000fd5b505050506040513d601f19601f820116820180604052508101906102d09190610f08565b73ffffffffffffffffffffffffffffffffffffffff1614610373576040517f08c379a000000000000000000000000000000000000000000000000000000000815260206004820152603060248201527f42564d5f58434841494e3a2077726f6e672073656e646572206f662063726f7360448201527f732d646f6d61696e206d657373616765000000000000000000000000000000006064820152608401610214565b61039d877f1d1d8b6300000000000000000000000000000000000000000000000000000000610a9f565b801561045357508673ffffffffffffffffffffffffffffffffffffffff1663c01e1bd66040518163ffffffff1660e01b8152600401602060405180830381600087803b1580156103ec57600080fd5b505af1158015610400573d6000803e3d6000fd5b505050506040513d601f19601f820116820180604052508101906104249190610f08565b73ffffffffffffffffffffffffffffffffffffffff168873ffffffffffffffffffffffffffffffffffffffff16145b15610567576040517f40c10f1900000000000000000000000000000000000000000000000000000000815273ffffffffffffffffffffffffffffffffffffffff8681166004830152602482018690528816906340c10f1990604401600060405180830381600087803b1580156104c857600080fd5b505af11580156104dc573d6000803e3d6000fd5b505050508573ffffffffffffffffffffffffffffffffffffffff168773ffffffffffffffffffffffffffffffffffffffff168973ffffffffffffffffffffffffffffffffffffffff167fb0444523268717a02698be47d0803aa7468c00acbed2f8bd93a0459cde61dd898888888860405161055a9493929190610f75565b60405180910390a46106b7565b600063a9f9e67560e01b8989888a89898960405160240161058e9796959493929190610fab565b604080517fffffffffffffffffffffffffffffffffffffffffffffffffffffffffffffffe08184030181529190526020810180517bffffffffffffffffffffffffffffffffffffffffffffffffffffffff167fffffffff00000000000000000000000000000000000000000000000000000000909316929092179091526001549091506106339073ffffffffffffffffffffffffffffffffffffffff16600083610ac4565b8673ffffffffffffffffffffffffffffffffffffffff168873ffffffffffffffffffffffffffffffffffffffff168a73ffffffffffffffffffffffffffffffffffffffff167f7ea89a4591614515571c2b51f5ea06494056f261c10ab1ed8c03c7590d87bce0898989896040516106ad9493929190610f75565b60405180910390a4505b5050505050505050565b6106d0863387878787876106d8565b505050505050565b6040517f9dc29fac0000000000000000000000000000000000000000000000000000000081523360048201526024810185905273ffffffffffffffffffffffffffffffffffffffff881690639dc29fac90604401600060405180830381600087803b15801561074657600080fd5b505af115801561075a573d6000803e3d6000fd5b5050505060008773ffffffffffffffffffffffffffffffffffffffff1663c01e1bd66040518163ffffffff1660e01b8152600401602060405180830381600087803b1580156107a857600080fd5b505af11580156107bc573d6000803e3d6000fd5b505050506040513d601f19601f820116820180604052508101906107e09190610f08565b9050606073ffffffffffffffffffffffffffffffffffffffff891673deaddeaddeaddeaddeaddeaddeaddeaddead111114156108d5576040517f1532ec340000000000000000000000000000000000000000000000000000000090610851908a908a908a9089908990602401611008565b604080517fffffffffffffffffffffffffffffffffffffffffffffffffffffffffffffffe08184030181529190526020810180517bffffffffffffffffffffffffffffffffffffffffffffffffffffffff167fffffffff00000000000000000000000000000000000000000000000000000000909316929092179091529050610a01565b73ffffffffffffffffffffffffffffffffffffffff891673deaddeaddeaddeaddeaddeaddeaddeaddead00001415610942576040517f839f0ec60000000000000000000000000000000000000000000000000000000090610851908a908a908a9089908990602401611008565b6040517fa9f9e67500000000000000000000000000000000000000000000000000000000906109819084908c908c908c908c908b908b90602401610fab565b604080517fffffffffffffffffffffffffffffffffffffffffffffffffffffffffffffffe08184030181529190526020810180517bffffffffffffffffffffffffffffffffffffffffffffffffffffffff167fffffffff000000000000000000000000000000000000000000000000000000009093169290921790915290505b600154610a259073ffffffffffffffffffffffffffffffffffffffff168683610ac4565b3373ffffffffffffffffffffffffffffffffffffffff168973ffffffffffffffffffffffffffffffffffffffff168373ffffffffffffffffffffffffffffffffffffffff167f73d170910aba9e6d50b102db522b1dbcd796216f5128b445aa2135272886497e8a8a89896040516106ad9493929190610f75565b6000610aaa83610b55565b8015610abb5750610abb8383610bb9565b90505b92915050565b6000546040517f3dbb202b00000000000000000000000000000000000000000000000000000000815273ffffffffffffffffffffffffffffffffffffffff90911690633dbb202b90610b1e90869085908790600401611083565b600060405180830381600087803b158015610b3857600080fd5b505af1158015610b4c573d6000803e3d6000fd5b50505050505050565b6000610b81827f01ffc9a700000000000000000000000000000000000000000000000000000000610bb9565b8015610abe5750610bb2827fffffffff00000000000000000000000000000000000000000000000000000000610bb9565b1592915050565b604080517fffffffff00000000000000000000000000000000000000000000000000000000831660248083019190915282518083039091018152604490910182526020810180517bffffffffffffffffffffffffffffffffffffffffffffffffffffffff167f01ffc9a7000000000000000000000000000000000000000000000000000000001790529051600091908290819073ffffffffffffffffffffffffffffffffffffffff87169061753090610c739086906110ff565b6000604051808303818686fa925050503d8060008114610caf576040519150601f19603f3d011682016040523d82523d6000602084013e610cb4565b606091505b5091509150602081511015610ccf5760009350505050610abe565b818015610ceb575080806020019051810190610ceb919061111b565b9695505050505050565b73ffffffffffffffffffffffffffffffffffffffff81168114610d1757600080fd5b50565b803563ffffffff81168114610d2e57600080fd5b919050565b60008083601f840112610d4557600080fd5b50813567ffffffffffffffff811115610d5d57600080fd5b602083019150836020828501011115610d7557600080fd5b9250929050565b600080600080600060808688031215610d9457600080fd5b8535610d9f81610cf5565b945060208601359350610db460408701610d1a565b9250606086013567ffffffffffffffff811115610dd057600080fd5b610ddc88828901610d33565b969995985093965092949392505050565b600080600080600080600060c0888a031215610e0857600080fd5b8735610e1381610cf5565b96506020880135610e2381610cf5565b95506040880135610e3381610cf5565b94506060880135610e4381610cf5565b93506080880135925060a088013567ffffffffffffffff811115610e6657600080fd5b610e728a828b01610d33565b989b979a50959850939692959293505050565b60008060008060008060a08789031215610e9e57600080fd5b8635610ea981610cf5565b95506020870135610eb981610cf5565b945060408701359350610ece60608801610d1a565b9250608087013567ffffffffffffffff811115610eea57600080fd5b610ef689828a01610d33565b979a9699509497509295939492505050565b600060208284031215610f1a57600080fd5b8151610f2581610cf5565b9392505050565b8183528181602085013750600060208284010152600060207fffffffffffffffffffffffffffffffffffffffffffffffffffffffffffffffe0601f840116840101905092915050565b73ffffffffffffffffffffffffffffffffffffffff85168152836020820152606060408201526000610ceb606083018486610f2c565b600073ffffffffffffffffffffffffffffffffffffffff808a1683528089166020840152808816604084015280871660608401525084608083015260c060a0830152610ffb60c083018486610f2c565b9998505050505050505050565b600073ffffffffffffffffffffffffffffffffffffffff808816835280871660208401525084604083015260806060830152611048608083018486610f2c565b979650505050505050565b60005b8381101561106e578181015183820152602001611056565b8381111561107d576000848401525b50505050565b73ffffffffffffffffffffffffffffffffffffffff8416815260606020820152600083518060608401526110be816080850160208801611053565b63ffffffff93909316604083015250601f919091017fffffffffffffffffffffffffffffffffffffffffffffffffffffffffffffffe0160160800192915050565b60008251611111818460208701611053565b9190910192915050565b60006020828403121561112d57600080fd5b81518015158114610f2557600080fdfea2646970667358221220c3a18d6cb25a717fc2811d2494b09dcae28c97abb0e1e8f4d4292e1aa816717564736f6c63430008090033",
  "linkReferences": {},
  "deployedLinkReferences": {}
}