{
  "_format": "hh-sol-artifact-1",
  "contractName": "CallOpVerifier",
  "sourceName": "contracts/L1/fraud-proof/verifier/subverifiers/CallOpVerifier.sol",
  "abi": [
    {
      "inputs": [
        {
          "components": [
            {
              "internalType": "address",
              "name": "coinbase",
              "type": "address"
            },
            {
              "internalType": "uint256",
              "name": "timestamp",
              "type": "uint256"
            },
            {
              "internalType": "uint256",
              "name": "number",
              "type": "uint256"
            },
            {
              "internalType": "address",
              "name": "origin",
              "type": "address"
            },
            {
              "components": [
                {
                  "internalType": "uint64",
                  "name": "nonce",
                  "type": "uint64"
                },
                {
                  "internalType": "uint256",
                  "name": "gasPrice",
                  "type": "uint256"
                },
                {
                  "internalType": "uint64",
                  "name": "gas",
                  "type": "uint64"
                },
                {
                  "internalType": "address",
                  "name": "to",
                  "type": "address"
                },
                {
                  "internalType": "uint256",
                  "name": "value",
                  "type": "uint256"
                },
                {
                  "internalType": "bytes",
                  "name": "data",
                  "type": "bytes"
                },
                {
                  "internalType": "uint256",
                  "name": "v",
                  "type": "uint256"
                },
                {
                  "internalType": "uint256",
                  "name": "r",
                  "type": "uint256"
                },
                {
                  "internalType": "uint256",
                  "name": "s",
                  "type": "uint256"
                }
              ],
              "internalType": "struct EVMTypesLib.Transaction",
              "name": "transaction",
              "type": "tuple"
            },
            {
              "internalType": "bytes32",
              "name": "inputRoot",
              "type": "bytes32"
            },
            {
              "internalType": "bytes32",
              "name": "txHash",
              "type": "bytes32"
            }
          ],
          "internalType": "struct VerificationContext.Context",
          "name": "ctx",
          "type": "tuple"
        },
        {
          "internalType": "bytes32",
          "name": "currStateHash",
          "type": "bytes32"
        },
        {
          "internalType": "bytes",
          "name": "encoded",
          "type": "bytes"
        }
      ],
      "name": "executeOneStepProof",
      "outputs": [
        {
          "components": [
            {
              "internalType": "uint64",
              "name": "blockNumber",
              "type": "uint64"
            },
            {
              "internalType": "uint64",
              "name": "transactionIdx",
              "type": "uint64"
            },
            {
              "internalType": "uint16",
              "name": "depth",
              "type": "uint16"
            },
            {
              "internalType": "uint64",
              "name": "gas",
              "type": "uint64"
            },
            {
              "internalType": "uint64",
              "name": "refund",
              "type": "uint64"
            },
            {
              "internalType": "bytes32",
              "name": "lastDepthHash",
              "type": "bytes32"
            },
            {
              "internalType": "address",
              "name": "contractAddress",
              "type": "address"
            },
            {
              "internalType": "address",
              "name": "caller",
              "type": "address"
            },
            {
              "internalType": "uint256",
              "name": "value",
              "type": "uint256"
            },
            {
              "internalType": "uint8",
              "name": "callFlag",
              "type": "uint8"
            },
            {
              "internalType": "uint64",
              "name": "out",
              "type": "uint64"
            },
            {
              "internalType": "uint64",
              "name": "outSize",
              "type": "uint64"
            },
            {
              "internalType": "uint64",
              "name": "pc",
              "type": "uint64"
            },
            {
              "internalType": "uint8",
              "name": "opCode",
              "type": "uint8"
            },
            {
              "internalType": "bytes32",
              "name": "codeHash",
              "type": "bytes32"
            },
            {
              "internalType": "uint64",
              "name": "stackSize",
              "type": "uint64"
            },
            {
              "internalType": "bytes32",
              "name": "stackHash",
              "type": "bytes32"
            },
            {
              "internalType": "uint64",
              "name": "memSize",
              "type": "uint64"
            },
            {
              "internalType": "bytes32",
              "name": "memRoot",
              "type": "bytes32"
            },
            {
              "internalType": "uint64",
              "name": "inputDataSize",
              "type": "uint64"
            },
            {
              "internalType": "bytes32",
              "name": "inputDataRoot",
              "type": "bytes32"
            },
            {
              "internalType": "uint64",
              "name": "returnDataSize",
              "type": "uint64"
            },
            {
              "internalType": "bytes32",
              "name": "returnDataRoot",
              "type": "bytes32"
            },
            {
              "internalType": "bytes32",
              "name": "committedGlobalStateRoot",
              "type": "bytes32"
            },
            {
              "internalType": "bytes32",
              "name": "globalStateRoot",
              "type": "bytes32"
            },
            {
              "internalType": "bytes32",
              "name": "selfDestructAcc",
              "type": "bytes32"
            },
            {
              "internalType": "bytes32",
              "name": "logAcc",
              "type": "bytes32"
            },
            {
              "internalType": "bytes32",
              "name": "blockHashRoot",
              "type": "bytes32"
            },
            {
              "internalType": "bytes32",
              "name": "accessListRoot",
              "type": "bytes32"
            }
          ],
          "internalType": "struct OneStepProof.StateProof",
          "name": "endState",
          "type": "tuple"
        }
      ],
      "stateMutability": "pure",
      "type": "function"
    },
    {
      "inputs": [
        {
          "components": [
            {
              "internalType": "address",
              "name": "coinbase",
              "type": "address"
            },
            {
              "internalType": "uint256",
              "name": "timestamp",
              "type": "uint256"
            },
            {
              "internalType": "uint256",
              "name": "number",
              "type": "uint256"
            },
            {
              "internalType": "address",
              "name": "origin",
              "type": "address"
            },
            {
              "components": [
                {
                  "internalType": "uint64",
                  "name": "nonce",
                  "type": "uint64"
                },
                {
                  "internalType": "uint256",
                  "name": "gasPrice",
                  "type": "uint256"
                },
                {
                  "internalType": "uint64",
                  "name": "gas",
                  "type": "uint64"
                },
                {
                  "internalType": "address",
                  "name": "to",
                  "type": "address"
                },
                {
                  "internalType": "uint256",
                  "name": "value",
                  "type": "uint256"
                },
                {
                  "internalType": "bytes",
                  "name": "data",
                  "type": "bytes"
                },
                {
                  "internalType": "uint256",
                  "name": "v",
                  "type": "uint256"
                },
                {
                  "internalType": "uint256",
                  "name": "r",
                  "type": "uint256"
                },
                {
                  "internalType": "uint256",
                  "name": "s",
                  "type": "uint256"
                }
              ],
              "internalType": "struct EVMTypesLib.Transaction",
              "name": "transaction",
              "type": "tuple"
            },
            {
              "internalType": "bytes32",
              "name": "inputRoot",
              "type": "bytes32"
            },
            {
              "internalType": "bytes32",
              "name": "txHash",
              "type": "bytes32"
            }
          ],
          "internalType": "struct VerificationContext.Context",
          "name": "ctx",
          "type": "tuple"
        },
        {
          "internalType": "bytes32",
          "name": "currStateHash",
          "type": "bytes32"
        },
        {
          "internalType": "bytes",
          "name": "encoded",
          "type": "bytes"
        }
      ],
      "name": "verifyOneStepProof",
      "outputs": [
        {
          "internalType": "bytes32",
          "name": "",
          "type": "bytes32"
        }
      ],
      "stateMutability": "pure",
      "type": "function"
    }
  ],
  "bytecode": "0x608060405234801561001057600080fd5b50612245806100206000396000f3fe608060405234801561001057600080fd5b50600436106100365760003560e01c80632138b3e41461003b57806389c3ad0f14610061575b600080fd5b61004e610049366004611d87565b610081565b6040519081526020015b60405180910390f35b61007461006f366004611d87565b6100a0565b6040516100589190611e70565b6000610097610092868686866100a0565b6101fa565b95945050505050565b6100a8611a0b565b60006100b2611a0b565b6100be87868685610299565b60405191935091506000908387823783902090508681146101185760405162461bcd60e51b815260206004820152600f60248201526e2130b21029ba30ba3290283937b7b360891b60448201526064015b60405180910390fd5b6101a082015160f060ff8216141561012f576101ed565b8060ff1660f11415610140576101ed565b8060ff1660f31415610151576101ed565b8060ff1660f21415610162576101ed565b8060ff1660f41415610173576101ed565b8060ff1660f51415610184576101ed565b8060ff1660fa1415610195576101ed565b8060ff1660fd14156101a6576101ed565b8060ff1660ff14156101b7576101ed565b60405162461bcd60e51b815260206004820152600b60248201526a556e726561636861626c6560a81b604482015260640161010f565b5090979650505050505050565b6000816040015161ffff166000141561028257610215611af7565b82516001600160401b039081168252602080850151909116908201526103008301516040820152610100830151606082015260a08084015160808301526103608401519082015261032083015160c082015261034083015160e082015261027b81610ce3565b9392505050565b61028b82610cee565b805190602001209050919050565b60006102a3611a0b565b60006102af8486612056565b90506101436001600160401b0382168111156102dd5760405162461bcd60e51b815260040161010f9061207e565b610329856001600160401b031688888080601f01602080910402602001604051908101604052809392919081815260200183838082843760009201919091525092939250506111149050565b6001600160401b0316835261038a6103428660086120b5565b6001600160401b031688888080601f01602080910402602001604051908101604052809392919081815260200183838082843760009201919091525092939250506111149050565b6001600160401b031660208401526103ee6103a68660106120b5565b6001600160401b031688888080601f01602080910402602001604051908101604052809392919081815260200183838082843760009201919091525092939250506111719050565b61ffff1660408401526104056103428660126120b5565b6001600160401b0316606084015261042161034286601a6120b5565b6001600160401b0316608084015261048561043d8660226120b5565b6001600160401b031688888080601f01602080910402602001604051908101604052809392919081815260200183838082843760009201919091525092939250506111ce9050565b60a08401526104958560426120b5565b94506001836040015161ffff1611156106ac576104b36061826120b5565b9050806001600160401b0316826001600160401b031610156104e75760405162461bcd60e51b815260040161010f9061207e565b610533856001600160401b031688888080601f016020809104026020016040519081016040528093929190818152602001838380828437600092019190915250929392505061122c9050565b6001600160a01b031660c084015261059761054f8660146120b5565b6001600160401b031688888080601f016020809104026020016040519081016040528093929190818152602001838380828437600092019190915250929392505061122c9050565b6001600160a01b031660e08401526105fb6105b38660286120b5565b6001600160401b031688888080601f01602080910402602001604051908101604052809392919081815260200183838082843760009201919091525092939250506112919050565b61010084015261065761060f8660486120b5565b6001600160401b031688888080601f01602080910402602001604051908101604052809392919081815260200183838082843760009201919091525092939250506112e69050565b60ff1661012084015261066e6103428660496120b5565b6001600160401b031661014084015261068b6103428660516120b5565b6001600160401b03166101608401526106a56059866120b5565b945061071a565b6080880151606001516001600160a01b031660c084015260608801516001600160a01b031660e0840152608080890151015161010084015260006106f589608001516060015190565b6001600160a01b0316141561071157600461012084015261071a565b60006101208401525b610766856001600160401b031688888080601f01602080910402602001604051908101604052809392919081815260200183838082843760009201919091525092939250506111149050565b6001600160401b031661018084015261078361060f8660086120b5565b60ff166101a084015261079a61043d8660096120b5565b6101c08401526107ae6103428660296120b5565b6001600160401b03166101e08401526107c86031866120b5565b9450826101e001516001600160401b031660001461087f576107eb6020826120b5565b9050806001600160401b0316826001600160401b0316101561081f5760405162461bcd60e51b815260040161010f9061207e565b61086b856001600160401b031688888080601f01602080910402602001604051908101604052809392919081815260200183838082843760009201919091525092939250506111ce9050565b61020084015261087c6020866120b5565b94505b6108cb856001600160401b031688888080601f01602080910402602001604051908101604052809392919081815260200183838082843760009201919091525092939250506111149050565b6001600160401b03166102208401526108e56008866120b5565b94508261022001516001600160401b031660001461099c576109086020826120b5565b9050806001600160401b0316826001600160401b0316101561093c5760405162461bcd60e51b815260040161010f9061207e565b610988856001600160401b031688888080601f01602080910402602001604051908101604052809392919081815260200183838082843760009201919091525092939250506111ce9050565b6102408401526109996020866120b5565b94505b6001836040015161ffff161115610acf576109f9856001600160401b031688888080601f01602080910402602001604051908101604052809392919081815260200183838082843760009201919091525092939250506111149050565b6001600160401b0316610260840152610a136008866120b5565b94508261026001516001600160401b0316600014610aca57610a366020826120b5565b9050806001600160401b0316826001600160401b03161015610a6a5760405162461bcd60e51b815260040161010f9061207e565b610ab6856001600160401b031688888080601f01602080910402602001604051908101604052809392919081815260200183838082843760009201919091525092939250506111ce9050565b610280840152610ac76020866120b5565b94505b610af8565b608088015160a00151516001600160401b0316610260840152610af188611342565b6102808401525b610b44856001600160401b031688888080601f01602080910402602001604051908101604052809392919081815260200183838082843760009201919091525092939250506111149050565b6001600160401b03166102a0840152610b5e6008866120b5565b9450826102a001516001600160401b0316600014610c1557610b816020826120b5565b9050806001600160401b0316826001600160401b03161015610bb55760405162461bcd60e51b815260040161010f9061207e565b610c01856001600160401b031688888080601f01602080910402602001604051908101604052809392919081815260200183838082843760009201919091525092939250506111ce9050565b6102c0840152610c126020866120b5565b94505b610c61856001600160401b031688888080601f01602080910402602001604051908101604052809392919081815260200183838082843760009201919091525092939250506111ce9050565b6102e0840152610c7561043d8660206120b5565b610300840152610c8961043d8660406120b5565b610320840152610c9d61043d8660606120b5565b610340840152610cb161043d8660806120b5565b610360840152610cc561043d8660a06120b5565b610380840152610cd68560c06120b5565b9350505094509492505050565b600061028b8261136d565b6060610d1f8260000151604051602001610d0891906120e0565b60408051601f198184030181529190528290611468565b9050610d398260200151604051602001610d0891906120e0565b9050610d668260400151604051602001610d08919060f09190911b6001600160f01b031916815260020190565b9050610d808260600151604051602001610d0891906120e0565b9050610d9a8260800151604051602001610d0891906120e0565b9050610db68260a00151604051602001610d0891815260200190565b90506001826040015161ffff161115610eaf57610df98260c00151604051602001610d08919060609190911b6bffffffffffffffffffffffff1916815260140190565b9050610e2b8260e00151604051602001610d08919060609190911b6bffffffffffffffffffffffff1916815260140190565b9050610e48826101000151604051602001610d0891815260200190565b9050610e76826101200151604051602001610d08919060f89190911b6001600160f81b031916815260010190565b9050610e91826101400151604051602001610d0891906120e0565b9050610eac826101600151604051602001610d0891906120e0565b90505b610ec8826101800151604051602001610d0891906120e0565b9050610ef6826101a00151604051602001610d08919060f89190911b6001600160f81b031916815260010190565b9050610f13826101c00151604051602001610d0891815260200190565b9050610f2e826101e00151604051602001610d0891906120e0565b9050816101e001516001600160401b0316600014610f6457610f61826102000151604051602001610d0891815260200190565b90505b610f7d826102200151604051602001610d0891906120e0565b90508161022001516001600160401b0316600014610fb357610fb0826102400151604051602001610d0891815260200190565b90505b6001826040015161ffff16111561101357610fdd826102600151604051602001610d0891906120e0565b90508161026001516001600160401b031660001461101357611010826102800151604051602001610d0891815260200190565b90505b61102c826102a00151604051602001610d0891906120e0565b9050816102a001516001600160401b03166000146110625761105f826102c00151604051602001610d0891815260200190565b90505b61107d826102e00151604051602001610d0891815260200190565b905061109a826103000151604051602001610d0891815260200190565b90506110b7826103200151604051602001610d0891815260200190565b90506110d4826103400151604051602001610d0891815260200190565b90506110f1826103600151604051602001610d0891815260200190565b905061110e826103800151604051602001610d0891815260200190565b92915050565b60006111218260086120f8565b835110156111685760405162461bcd60e51b8152602060048201526014602482015273746f55696e7436345f6f75744f66426f756e647360601b604482015260640161010f565b50016008015190565b600061117e8260026120f8565b835110156111c55760405162461bcd60e51b8152602060048201526014602482015273746f55696e7431365f6f75744f66426f756e647360601b604482015260640161010f565b50016002015190565b60006111db8260206120f8565b835110156112235760405162461bcd60e51b8152602060048201526015602482015274746f427974657333325f6f75744f66426f756e647360581b604482015260640161010f565b50016020015190565b60006112398260146120f8565b835110156112815760405162461bcd60e51b8152602060048201526015602482015274746f416464726573735f6f75744f66426f756e647360581b604482015260640161010f565b500160200151600160601b900490565b600061129e8260206120f8565b835110156112235760405162461bcd60e51b8152602060048201526015602482015274746f55696e743235365f6f75744f66426f756e647360581b604482015260640161010f565b60006112f38260016120f8565b835110156113395760405162461bcd60e51b8152602060048201526013602482015272746f55696e74385f6f75744f66426f756e647360681b604482015260640161010f565b50016001015190565b60a08101516000906113655761135f826080015160a001516114e5565b60a08301525b5060a0015190565b60606113878260000151604051602001610d0891906120e0565b90506113a18260200151604051602001610d0891906120e0565b90506113bd8260400151604051602001610d0891815260200190565b90506113d98260600151604051602001610d0891815260200190565b90506113f58260800151604051602001610d0891815260200190565b90506114118260a00151604051602001610d0891815260200190565b905061142d8260c00151604051602001610d0891815260200190565b90506114498260e00151604051602001610d0891815260200190565b905061110e82610100015160000151604051602001610d089190612110565b6060806040519050835180825260208201818101602087015b81831015611499578051835260209283019201611481565b50855184518101855292509050808201602086015b818310156114c65780518352602092830192016114ae565b508651929092011591909101601f01601f191660405250905092915050565b6000806114f460008451611613565b90506000816001600160401b03166001600160401b0381111561151957611519611b70565b604051908082528060200260200182016040528015611542578160200160208202803683370190505b50905060005b611553600184612056565b6001600160401b03168110156115a757611578611571826020612145565b86906111ce565b82828151811061158a5761158a612164565b60209081029190910101528061159f8161217a565b915050611548565b506115d16115b6600184612056565b6115c1906020612195565b85906001600160401b031661164b565b816115dd600185612056565b6001600160401b0316815181106115f6576115f6612164565b60200260200101818152505061160b81611691565b949350505050565b60006116206020846121c4565b602061162c84866120b5565b61163790601f6120b5565b61164191906121c4565b61027b9190612056565b60208183018101516000916116619084906120f8565b8451101561027b5783516000906116798560206120f8565b61168391906121f8565b91821c90911b949350505050565b600061110e825160001b6116a4846116b3565b60009182526020526040902090565b600061110e6116c1836116c6565b6118ce565b805160609060006116de60018084169084901c6120f8565b9050806001600160401b038111156116f8576116f8611b70565b604051908082528060200260200182016040528015611721578160200160208202803683370190505b5092506000805b828210156118c55750600181811b9061174190856121f8565b8114156117c657600060f81b86828151811061175f5761175f612164565b602002602001015160405160200161178d9291906001600160f81b0319929092168252600182015260210190565b604051602081830303815290604052805190602001208583815181106117b5576117b5612164565b6020026020010181815250506118c5565b611897600060f81b8783815181106117e0576117e0612164565b602002602001015160405160200161180e9291906001600160f81b0319929092168252600182015260210190565b60408051601f1981840301815291905280516020909101206000886118348560016120f8565b8151811061184457611844612164565b60200260200101516040516020016118729291906001600160f81b0319929092168252600182015260210190565b6040516020818303038152906040528051906020012060009182526020526040902090565b85836118a28161217a565b9450815181106118b4576118b4612164565b602002602001018181525050611728565b50505050919050565b805160009081805b60018311156119e65750600181811b906118f090846121f8565b81141561194a5784818151811061190957611909612164565b602002602001015185838151811061192357611923612164565b60209081029190910101526000915061194360018085169085901c6120f8565b92506118d6565b828110611966576000915061194360018085169085901c6120f8565b6119b885828151811061197b5761197b612164565b60200260200101518683600161199191906120f8565b815181106119a1576119a1612164565b602002602001015160009182526020526040902090565b85836119c38161217a565b9450815181106119d5576119d5612164565b6020026020010181815250506118d6565b846000815181106119f9576119f9612164565b60200260200101519350505050919050565b604080516103a081018252600080825260208201819052918101829052606081018290526080810182905260a0810182905260c0810182905260e08101829052610100810182905261012081018290526101408101829052610160810182905261018081018290526101a081018290526101c081018290526101e08101829052610200810182905261022081018290526102408101829052610260810182905261028081018290526102a081018290526102c081018290526102e08101829052610300810182905261032081018290526103408101829052610360810182905261038081019190915290565b6040805161012081018252600080825260208201819052918101829052606081018290526080810182905260a0810182905260c0810182905260e08101919091526101008101611b45611b4a565b905290565b60408051610120810190915280611b456020820160088161010080368337509192915050565b634e487b7160e01b600052604160045260246000fd5b60405161012081016001600160401b0381118282101715611ba957611ba9611b70565b60405290565b60405160e081016001600160401b0381118282101715611ba957611ba9611b70565b80356001600160a01b0381168114611be857600080fd5b919050565b80356001600160401b0381168114611be857600080fd5b600082601f830112611c1557600080fd5b81356001600160401b0380821115611c2f57611c2f611b70565b604051601f8301601f19908116603f01168101908282118183101715611c5757611c57611b70565b81604052838152866020858801011115611c7057600080fd5b836020870160208301376000602085830101528094505050505092915050565b60006101208284031215611ca357600080fd5b611cab611b86565b9050611cb682611bed565b815260208201356020820152611cce60408301611bed565b6040820152611cdf60608301611bd1565b60608201526080820135608082015260a08201356001600160401b03811115611d0757600080fd5b611d1384828501611c04565b60a08301525060c082013560c082015260e082013560e082015261010080830135818301525092915050565b60008083601f840112611d5157600080fd5b5081356001600160401b03811115611d6857600080fd5b602083019150836020828501011115611d8057600080fd5b9250929050565b60008060008060608587031215611d9d57600080fd5b84356001600160401b0380821115611db457600080fd5b9086019060e08289031215611dc857600080fd5b611dd0611baf565b611dd983611bd1565b81526020830135602082015260408301356040820152611dfb60608401611bd1565b6060820152608083013582811115611e1257600080fd5b611e1e8a828601611c90565b60808301525060a083013560a082015260c083013560c082015280965050602087013594506040870135915080821115611e5757600080fd5b50611e6487828801611d3f565b95989497509550505050565b81516001600160401b031681526103a081016020830151611e9c60208401826001600160401b03169052565b506040830151611eb2604084018261ffff169052565b506060830151611ecd60608401826001600160401b03169052565b506080830151611ee860808401826001600160401b03169052565b5060a083015160a083015260c0830151611f0d60c08401826001600160a01b03169052565b5060e0830151611f2860e08401826001600160a01b03169052565b5061010083810151908301526101208084015160ff90811691840191909152610140808501516001600160401b039081169185019190915261016080860151821690850152610180808601518216908501526101a080860151909216918401919091526101c080850151908401526101e08085015182169084015261020080850151908401526102208085015182169084015261024080850151908401526102608085015182169084015261028080850151908401526102a080850151909116908301526102c080840151908301526102e08084015190830152610300808401519083015261032080840151908301526103408084015190830152610360808401519083015261038092830151929091019190915290565b634e487b7160e01b600052601160045260246000fd5b60006001600160401b038381169083168181101561207657612076612040565b039392505050565b60208082526017908201527f50726f6f6620556e646572666c6f772028537461746529000000000000000000604082015260600190565b60006001600160401b038083168185168083038211156120d7576120d7612040565b01949350505050565b60c09190911b6001600160c01b031916815260080190565b6000821982111561210b5761210b612040565b500190565b60008183825b6008811015612135578151835260209283019290910190600101612116565b5050506101008201905092915050565b600081600019048311821515161561215f5761215f612040565b500290565b634e487b7160e01b600052603260045260246000fd5b600060001982141561218e5761218e612040565b5060010190565b60006001600160401b03808316818516818304811182151516156121bb576121bb612040565b02949350505050565b60006001600160401b03808416806121ec57634e487b7160e01b600052601260045260246000fd5b92169190910492915050565b60008282101561220a5761220a612040565b50039056fea26469706673582212208251e0595c0564c0901bbda5a261d0f54000693aee993a79057dbd35de1c414d64736f6c63430008090033",
  "linkReferences": {},
  "deployedLinkReferences": {}
}