{
  "_format": "hh-sol-artifact-1",
  "contractName": "BVM_SequencerFeeVault",
  "sourceName": "contracts/L2/predeploys/BVM_SequencerFeeVault.sol",
  "abi": [
    {
      "inputs": [
        {
          "internalType": "address",
          "name": "_l1FeeWallet",
          "type": "address"
        },
        {
          "internalType": "address",
          "name": "_bvmGasPriceOracleAddress",
          "type": "address"
        }
      ],
      "stateMutability": "nonpayable",
      "type": "constructor"
    },
    {
      "inputs": [],
      "name": "L1Gas",
      "outputs": [
        {
          "internalType": "uint256",
          "name": "",
          "type": "uint256"
        }
      ],
      "stateMutability": "view",
      "type": "function"
    },
    {
      "inputs": [],
      "name": "MIN_WITHDRAWAL_AMOUNT",
      "outputs": [
        {
          "internalType": "uint256",
          "name": "",
          "type": "uint256"
        }
      ],
      "stateMutability": "view",
      "type": "function"
    },
    {
      "inputs": [],
      "name": "bvmGasPriceOracleAddress",
      "outputs": [
        {
          "internalType": "address",
          "name": "",
          "type": "address"
        }
      ],
      "stateMutability": "view",
      "type": "function"
    },
    {
      "inputs": [],
      "name": "l1FeeWallet",
      "outputs": [
        {
          "internalType": "address",
          "name": "",
          "type": "address"
        }
      ],
      "stateMutability": "view",
      "type": "function"
    },
    {
      "inputs": [],
      "name": "withdraw",
      "outputs": [],
      "stateMutability": "nonpayable",
      "type": "function"
    },
    {
      "stateMutability": "payable",
      "type": "receive"
    }
  ],
  "bytecode": "0x608060405234801561001057600080fd5b5060405161055138038061055183398101604081905261002f9161007c565b600080546001600160a01b039384166001600160a01b031991821617909155600180549290931691161790556100af565b80516001600160a01b038116811461007757600080fd5b919050565b6000806040838503121561008f57600080fd5b61009883610060565b91506100a660208401610060565b90509250929050565b610493806100be6000396000f3fe60806040526004361061005e5760003560e01c80635558979e116100435780635558979e146100d8578063d3e5792b146100fd578063d4ff92181461011957600080fd5b8063110b7eb01461006a5780633ccfd60b146100c157600080fd5b3661006557005b600080fd5b34801561007657600080fd5b506001546100979073ffffffffffffffffffffffffffffffffffffffff1681565b60405173ffffffffffffffffffffffffffffffffffffffff90911681526020015b60405180910390f35b3480156100cd57600080fd5b506100d6610146565b005b3480156100e457600080fd5b506100ef62030d4081565b6040519081526020016100b8565b34801561010957600080fd5b506100ef67d02ab486cedc000081565b34801561012557600080fd5b506000546100979073ffffffffffffffffffffffffffffffffffffffff1681565b600054600154604080517f0d1e43a0000000000000000000000000000000000000000000000000000000008152905173ffffffffffffffffffffffffffffffffffffffff9384169390921691630d1e43a091600480820192602092909190829003018186803b1580156101b857600080fd5b505afa1580156101cc573d6000803e3d6000fd5b505050506040513d601f19601f820116820180604052508101906101f09190610383565b151560011415610216575061dead67d02ab486cedc00004710156102115750565b6102d8565b67d02ab486cedc00004710156102d8576040517f08c379a000000000000000000000000000000000000000000000000000000000815260206004820152605760248201527f42564d5f53657175656e6365724665655661756c743a2077697468647261776160448201527f6c20616d6f756e74206d7573742062652067726561746572207468616e206d6960648201527f6e696d756d207769746864726177616c20616d6f756e74000000000000000000608482015260a40160405180910390fd5b60408051602081018252600080825291517fa3a795480000000000000000000000000000000000000000000000000000000081527342000000000000000000000000000000000000109263a3a795489261034e9273deaddeaddeaddeaddeaddeaddeaddeaddead000092879247926004016103ac565b600060405180830381600087803b15801561036857600080fd5b505af115801561037c573d6000803e3d6000fd5b5050505050565b60006020828403121561039557600080fd5b815180151581146103a557600080fd5b9392505050565b600073ffffffffffffffffffffffffffffffffffffffff808816835260208188168185015286604085015263ffffffff8616606085015260a06080850152845191508160a085015260005b828110156104135785810182015185820160c0015281016103f7565b8281111561042557600060c084870101525b5050601f017fffffffffffffffffffffffffffffffffffffffffffffffffffffffffffffffe0169190910160c001969550505050505056fea2646970667358221220a6d111225baa85377953056aac6ff199b4da17af5c15a91764fc0c333c0d76b264736f6c63430008090033",
  "linkReferences": {},
  "deployedLinkReferences": {}
}