{
  "_format": "hh-sol-artifact-1",
  "contractName": "BVM_GasPriceOracle",
  "sourceName": "contracts/L2/predeploys/BVM_GasPriceOracle.sol",
  "abi": [
    {
      "inputs": [
        {
          "internalType": "address",
          "name": "_owner",
          "type": "address"
        }
      ],
      "stateMutability": "nonpayable",
      "type": "constructor"
    },
    {
      "anonymous": false,
      "inputs": [
        {
          "indexed": false,
          "internalType": "uint256",
          "name": "",
          "type": "uint256"
        }
      ],
      "name": "DecimalsUpdated",
      "type": "event"
    },
    {
      "anonymous": false,
      "inputs": [
        {
          "indexed": false,
          "internalType": "uint256",
          "name": "",
          "type": "uint256"
        }
      ],
      "name": "GasPriceUpdated",
      "type": "event"
    },
    {
      "anonymous": false,
      "inputs": [
        {
          "indexed": false,
          "internalType": "bool",
          "name": "",
          "type": "bool"
        }
      ],
      "name": "IsBurningUpdated",
      "type": "event"
    },
    {
      "anonymous": false,
      "inputs": [
        {
          "indexed": false,
          "internalType": "uint256",
          "name": "",
          "type": "uint256"
        }
      ],
      "name": "L1BaseFeeUpdated",
      "type": "event"
    },
    {
      "anonymous": false,
      "inputs": [
        {
          "indexed": false,
          "internalType": "uint256",
          "name": "",
          "type": "uint256"
        }
      ],
      "name": "OverheadUpdated",
      "type": "event"
    },
    {
      "anonymous": false,
      "inputs": [
        {
          "indexed": true,
          "internalType": "address",
          "name": "previousOwner",
          "type": "address"
        },
        {
          "indexed": true,
          "internalType": "address",
          "name": "newOwner",
          "type": "address"
        }
      ],
      "name": "OwnershipTransferred",
      "type": "event"
    },
    {
      "anonymous": false,
      "inputs": [
        {
          "indexed": false,
          "internalType": "uint256",
          "name": "",
          "type": "uint256"
        }
      ],
      "name": "ScalarUpdated",
      "type": "event"
    },
    {
      "inputs": [],
      "name": "IsBurning",
      "outputs": [
        {
          "internalType": "bool",
          "name": "",
          "type": "bool"
        }
      ],
      "stateMutability": "view",
      "type": "function"
    },
    {
      "inputs": [],
      "name": "decimals",
      "outputs": [
        {
          "internalType": "uint256",
          "name": "",
          "type": "uint256"
        }
      ],
      "stateMutability": "view",
      "type": "function"
    },
    {
      "inputs": [],
      "name": "gasPrice",
      "outputs": [
        {
          "internalType": "uint256",
          "name": "",
          "type": "uint256"
        }
      ],
      "stateMutability": "view",
      "type": "function"
    },
    {
      "inputs": [
        {
          "internalType": "bytes",
          "name": "_data",
          "type": "bytes"
        }
      ],
      "name": "getL1Fee",
      "outputs": [
        {
          "internalType": "uint256",
          "name": "",
          "type": "uint256"
        }
      ],
      "stateMutability": "view",
      "type": "function"
    },
    {
      "inputs": [
        {
          "internalType": "bytes",
          "name": "_data",
          "type": "bytes"
        }
      ],
      "name": "getL1GasUsed",
      "outputs": [
        {
          "internalType": "uint256",
          "name": "",
          "type": "uint256"
        }
      ],
      "stateMutability": "view",
      "type": "function"
    },
    {
      "inputs": [],
      "name": "l1BaseFee",
      "outputs": [
        {
          "internalType": "uint256",
          "name": "",
          "type": "uint256"
        }
      ],
      "stateMutability": "view",
      "type": "function"
    },
    {
      "inputs": [],
      "name": "overhead",
      "outputs": [
        {
          "internalType": "uint256",
          "name": "",
          "type": "uint256"
        }
      ],
      "stateMutability": "view",
      "type": "function"
    },
    {
      "inputs": [],
      "name": "owner",
      "outputs": [
        {
          "internalType": "address",
          "name": "",
          "type": "address"
        }
      ],
      "stateMutability": "view",
      "type": "function"
    },
    {
      "inputs": [],
      "name": "renounceOwnership",
      "outputs": [],
      "stateMutability": "nonpayable",
      "type": "function"
    },
    {
      "inputs": [],
      "name": "scalar",
      "outputs": [
        {
          "internalType": "uint256",
          "name": "",
          "type": "uint256"
        }
      ],
      "stateMutability": "view",
      "type": "function"
    },
    {
      "inputs": [
        {
          "internalType": "uint256",
          "name": "_decimals",
          "type": "uint256"
        }
      ],
      "name": "setDecimals",
      "outputs": [],
      "stateMutability": "nonpayable",
      "type": "function"
    },
    {
      "inputs": [
        {
          "internalType": "uint256",
          "name": "_gasPrice",
          "type": "uint256"
        }
      ],
      "name": "setGasPrice",
      "outputs": [],
      "stateMutability": "nonpayable",
      "type": "function"
    },
    {
      "inputs": [
        {
          "internalType": "bool",
          "name": "_isBurning",
          "type": "bool"
        }
      ],
      "name": "setIsBurning",
      "outputs": [],
      "stateMutability": "nonpayable",
      "type": "function"
    },
    {
      "inputs": [
        {
          "internalType": "uint256",
          "name": "_baseFee",
          "type": "uint256"
        }
      ],
      "name": "setL1BaseFee",
      "outputs": [],
      "stateMutability": "nonpayable",
      "type": "function"
    },
    {
      "inputs": [
        {
          "internalType": "uint256",
          "name": "_overhead",
          "type": "uint256"
        }
      ],
      "name": "setOverhead",
      "outputs": [],
      "stateMutability": "nonpayable",
      "type": "function"
    },
    {
      "inputs": [
        {
          "internalType": "uint256",
          "name": "_scalar",
          "type": "uint256"
        }
      ],
      "name": "setScalar",
      "outputs": [],
      "stateMutability": "nonpayable",
      "type": "function"
    },
    {
      "inputs": [
        {
          "internalType": "address",
          "name": "newOwner",
          "type": "address"
        }
      ],
      "name": "transferOwnership",
      "outputs": [],
      "stateMutability": "nonpayable",
      "type": "function"
    }
  ],
  "bytecode": "0x608060405234801561001057600080fd5b50604051610fa6380380610fa683398101604081905261002f91610167565b61003833610047565b61004181610097565b50610197565b600080546001600160a01b038381166001600160a01b0319831681178455604051919092169283917f8be0079c531659141344cd1fd0a4f28419497f9722a3daafe3b4186f6b6457e09190a35050565b6000546001600160a01b031633146100f65760405162461bcd60e51b815260206004820181905260248201527f4f776e61626c653a2063616c6c6572206973206e6f7420746865206f776e657260448201526064015b60405180910390fd5b6001600160a01b03811661015b5760405162461bcd60e51b815260206004820152602660248201527f4f776e61626c653a206e6577206f776e657220697320746865207a65726f206160448201526564647265737360d01b60648201526084016100ed565b61016481610047565b50565b60006020828403121561017957600080fd5b81516001600160a01b038116811461019057600080fd5b9392505050565b610e00806101a66000396000f3fe608060405234801561001057600080fd5b506004361061011b5760003560e01c80638c8885c8116100b2578063bf1fe42011610081578063f2fde38b11610066578063f2fde38b1461022e578063f45e65d814610241578063fe173b971461024a57600080fd5b8063bf1fe42014610208578063de26c4a11461021b57600080fd5b80638c8885c8146101a75780638da5cb5b146101ba578063bc3f4f54146101e2578063bede39b5146101f557600080fd5b806349948e0e116100ee57806349948e0e14610170578063519b4bd314610183578063704655971461018c578063715018a61461019f57600080fd5b80630c18c162146101205780630d1e43a01461013c578063313ce567146101525780633577afc51461015b575b600080fd5b61012960035481565b6040519081526020015b60405180910390f35b60065460ff166040519015158152602001610133565b61012960055481565b61016e6101693660046109ff565b610253565b005b61012961017e366004610a47565b610315565b61012960025481565b61016e61019a3660046109ff565b610371565b61016e610427565b61016e6101b53660046109ff565b6104b4565b60005460405173ffffffffffffffffffffffffffffffffffffffff9091168152602001610133565b61016e6101f0366004610b16565b61056a565b61016e6102033660046109ff565b61064a565b61016e6102163660046109ff565b610700565b610129610229366004610a47565b6107b6565b61016e61023c366004610b3f565b61085a565b61012960045481565b61012960015481565b60005473ffffffffffffffffffffffffffffffffffffffff1633146102d9576040517f08c379a000000000000000000000000000000000000000000000000000000000815260206004820181905260248201527f4f776e61626c653a2063616c6c6572206973206e6f7420746865206f776e657260448201526064015b60405180910390fd5b60038190556040518181527f32740b35c0ea213650f60d44366b4fb211c9033b50714e4a1d34e65d5beb9bb4906020015b60405180910390a150565b600080610321836107b6565b90506000600254826103339190610ba4565b90506000600554600a6103469190610d03565b90506000600454836103589190610ba4565b905060006103668383610d0f565b979650505050505050565b60005473ffffffffffffffffffffffffffffffffffffffff1633146103f2576040517f08c379a000000000000000000000000000000000000000000000000000000000815260206004820181905260248201527f4f776e61626c653a2063616c6c6572206973206e6f7420746865206f776e657260448201526064016102d0565b60048190556040518181527f3336cd9708eaf2769a0f0dc0679f30e80f15dcd88d1921b5a16858e8b85c591a9060200161030a565b60005473ffffffffffffffffffffffffffffffffffffffff1633146104a8576040517f08c379a000000000000000000000000000000000000000000000000000000000815260206004820181905260248201527f4f776e61626c653a2063616c6c6572206973206e6f7420746865206f776e657260448201526064016102d0565b6104b2600061098a565b565b60005473ffffffffffffffffffffffffffffffffffffffff163314610535576040517f08c379a000000000000000000000000000000000000000000000000000000000815260206004820181905260248201527f4f776e61626c653a2063616c6c6572206973206e6f7420746865206f776e657260448201526064016102d0565b60058190556040518181527fd68112a8707e326d08be3656b528c1bcc5bbbfc47f4177e2179b14d8640838c19060200161030a565b60005473ffffffffffffffffffffffffffffffffffffffff1633146105eb576040517f08c379a000000000000000000000000000000000000000000000000000000000815260206004820181905260248201527f4f776e61626c653a2063616c6c6572206973206e6f7420746865206f776e657260448201526064016102d0565b600680547fffffffffffffffffffffffffffffffffffffffffffffffffffffffffffffff00168215159081179091556040519081527faebc6141d146fd8cd65faa1802c49c918226a8c0e4fba3409fb4114392e6ba7a9060200161030a565b60005473ffffffffffffffffffffffffffffffffffffffff1633146106cb576040517f08c379a000000000000000000000000000000000000000000000000000000000815260206004820181905260248201527f4f776e61626c653a2063616c6c6572206973206e6f7420746865206f776e657260448201526064016102d0565b60028190556040518181527f351fb23757bb5ea0546c85b7996ddd7155f96b939ebaa5ff7bc49c75f27f2c449060200161030a565b60005473ffffffffffffffffffffffffffffffffffffffff163314610781576040517f08c379a000000000000000000000000000000000000000000000000000000000815260206004820181905260248201527f4f776e61626c653a2063616c6c6572206973206e6f7420746865206f776e657260448201526064016102d0565b60018190556040518181527ffcdccc6074c6c42e4bd578aa9870c697dc976a270968452d2b8c8dc369fae3969060200161030a565b600080805b8351811015610833578381815181106107d6576107d6610d4a565b01602001517fff00000000000000000000000000000000000000000000000000000000000000166108135761080c600483610d79565b9150610821565b61081e601083610d79565b91505b8061082b81610d91565b9150506107bb565b506000600354826108449190610d79565b905061085281610440610d79565b949350505050565b60005473ffffffffffffffffffffffffffffffffffffffff1633146108db576040517f08c379a000000000000000000000000000000000000000000000000000000000815260206004820181905260248201527f4f776e61626c653a2063616c6c6572206973206e6f7420746865206f776e657260448201526064016102d0565b73ffffffffffffffffffffffffffffffffffffffff811661097e576040517f08c379a000000000000000000000000000000000000000000000000000000000815260206004820152602660248201527f4f776e61626c653a206e6577206f776e657220697320746865207a65726f206160448201527f646472657373000000000000000000000000000000000000000000000000000060648201526084016102d0565b6109878161098a565b50565b6000805473ffffffffffffffffffffffffffffffffffffffff8381167fffffffffffffffffffffffff0000000000000000000000000000000000000000831681178455604051919092169283917f8be0079c531659141344cd1fd0a4f28419497f9722a3daafe3b4186f6b6457e09190a35050565b600060208284031215610a1157600080fd5b5035919050565b7f4e487b7100000000000000000000000000000000000000000000000000000000600052604160045260246000fd5b600060208284031215610a5957600080fd5b813567ffffffffffffffff80821115610a7157600080fd5b818401915084601f830112610a8557600080fd5b813581811115610a9757610a97610a18565b604051601f82017fffffffffffffffffffffffffffffffffffffffffffffffffffffffffffffffe0908116603f01168101908382118183101715610add57610add610a18565b81604052828152876020848701011115610af657600080fd5b826020860160208301376000928101602001929092525095945050505050565b600060208284031215610b2857600080fd5b81358015158114610b3857600080fd5b9392505050565b600060208284031215610b5157600080fd5b813573ffffffffffffffffffffffffffffffffffffffff81168114610b3857600080fd5b7f4e487b7100000000000000000000000000000000000000000000000000000000600052601160045260246000fd5b6000817fffffffffffffffffffffffffffffffffffffffffffffffffffffffffffffffff0483118215151615610bdc57610bdc610b75565b500290565b600181815b80851115610c3a57817fffffffffffffffffffffffffffffffffffffffffffffffffffffffffffffffff04821115610c2057610c20610b75565b80851615610c2d57918102915b93841c9390800290610be6565b509250929050565b600082610c5157506001610cfd565b81610c5e57506000610cfd565b8160018114610c745760028114610c7e57610c9a565b6001915050610cfd565b60ff841115610c8f57610c8f610b75565b50506001821b610cfd565b5060208310610133831016604e8410600b8410161715610cbd575081810a610cfd565b610cc78383610be1565b807fffffffffffffffffffffffffffffffffffffffffffffffffffffffffffffffff04821115610cf957610cf9610b75565b0290505b92915050565b6000610b388383610c42565b600082610d45577f4e487b7100000000000000000000000000000000000000000000000000000000600052601260045260246000fd5b500490565b7f4e487b7100000000000000000000000000000000000000000000000000000000600052603260045260246000fd5b60008219821115610d8c57610d8c610b75565b500190565b60007fffffffffffffffffffffffffffffffffffffffffffffffffffffffffffffffff821415610dc357610dc3610b75565b506001019056fea26469706673582212200074b5eff0f5241f470e70059e42546c16cb9d031ccbc431116ec40d2bb986aa64736f6c63430008090033",
  "linkReferences": {},
  "deployedLinkReferences": {}
}