{
  "_format": "hh-sol-artifact-1",
  "contractName": "ChainStorageContainer",
  "sourceName": "contracts/L1/rollup/ChainStorageContainer.sol",
  "abi": [
    {
      "inputs": [
        {
          "internalType": "address",
          "name": "_libAddressManager",
          "type": "address"
        },
        {
          "internalType": "string",
          "name": "_owner",
          "type": "string"
        }
      ],
      "stateMutability": "nonpayable",
      "type": "constructor"
    },
    {
      "inputs": [
        {
          "internalType": "uint256",
          "name": "_index",
          "type": "uint256"
        },
        {
          "internalType": "bytes27",
          "name": "_globalMetadata",
          "type": "bytes27"
        }
      ],
      "name": "deleteElementsAfterInclusive",
      "outputs": [],
      "stateMutability": "nonpayable",
      "type": "function"
    },
    {
      "inputs": [
        {
          "internalType": "uint256",
          "name": "_index",
          "type": "uint256"
        }
      ],
      "name": "deleteElementsAfterInclusive",
      "outputs": [],
      "stateMutability": "nonpayable",
      "type": "function"
    },
    {
      "inputs": [
        {
          "internalType": "uint256",
          "name": "_index",
          "type": "uint256"
        }
      ],
      "name": "get",
      "outputs": [
        {
          "internalType": "bytes32",
          "name": "",
          "type": "bytes32"
        }
      ],
      "stateMutability": "view",
      "type": "function"
    },
    {
      "inputs": [],
      "name": "getGlobalMetadata",
      "outputs": [
        {
          "internalType": "bytes27",
          "name": "",
          "type": "bytes27"
        }
      ],
      "stateMutability": "view",
      "type": "function"
    },
    {
      "inputs": [],
      "name": "length",
      "outputs": [
        {
          "internalType": "uint256",
          "name": "",
          "type": "uint256"
        }
      ],
      "stateMutability": "view",
      "type": "function"
    },
    {
      "inputs": [],
      "name": "libAddressManager",
      "outputs": [
        {
          "internalType": "contract Lib_AddressManager",
          "name": "",
          "type": "address"
        }
      ],
      "stateMutability": "view",
      "type": "function"
    },
    {
      "inputs": [],
      "name": "owner",
      "outputs": [
        {
          "internalType": "string",
          "name": "",
          "type": "string"
        }
      ],
      "stateMutability": "view",
      "type": "function"
    },
    {
      "inputs": [
        {
          "internalType": "bytes32",
          "name": "_object",
          "type": "bytes32"
        },
        {
          "internalType": "bytes27",
          "name": "_globalMetadata",
          "type": "bytes27"
        }
      ],
      "name": "push",
      "outputs": [],
      "stateMutability": "nonpayable",
      "type": "function"
    },
    {
      "inputs": [
        {
          "internalType": "bytes32",
          "name": "_object",
          "type": "bytes32"
        }
      ],
      "name": "push",
      "outputs": [],
      "stateMutability": "nonpayable",
      "type": "function"
    },
    {
      "inputs": [
        {
          "internalType": "string",
          "name": "_name",
          "type": "string"
        }
      ],
      "name": "resolve",
      "outputs": [
        {
          "internalType": "address",
          "name": "",
          "type": "address"
        }
      ],
      "stateMutability": "view",
      "type": "function"
    },
    {
      "inputs": [
        {
          "internalType": "bytes27",
          "name": "_globalMetadata",
          "type": "bytes27"
        }
      ],
      "name": "setGlobalMetadata",
      "outputs": [],
      "stateMutability": "nonpayable",
      "type": "function"
    }
  ],
  "bytecode": "0x60806040523480156200001157600080fd5b50604051620011b3380380620011b3833981016040819052620000349162000129565b600080546001600160a01b0319166001600160a01b0384161790558051620000649060019060208401906200006d565b50505062000266565b8280546200007b9062000229565b90600052602060002090601f0160209004810192826200009f5760008555620000ea565b82601f10620000ba57805160ff1916838001178555620000ea565b82800160010185558215620000ea579182015b82811115620000ea578251825591602001919060010190620000cd565b50620000f8929150620000fc565b5090565b5b80821115620000f85760008155600101620000fd565b634e487b7160e01b600052604160045260246000fd5b600080604083850312156200013d57600080fd5b82516001600160a01b03811681146200015557600080fd5b602084810151919350906001600160401b03808211156200017557600080fd5b818601915086601f8301126200018a57600080fd5b8151818111156200019f576200019f62000113565b604051601f8201601f19908116603f01168101908382118183101715620001ca57620001ca62000113565b816040528281528986848701011115620001e357600080fd5b600093505b82841015620002075784840186015181850187015292850192620001e8565b82841115620002195760008684830101525b8096505050505050509250929050565b600181811c908216806200023e57607f821691505b602082108114156200026057634e487b7160e01b600052602260045260246000fd5b50919050565b610f3d80620002766000396000f3fe608060405234801561001057600080fd5b50600436106100c95760003560e01c8063461a4478116100815780639507d39a1161005b5780639507d39a146101a4578063b298e36b146101b7578063ccf8f969146101ca57600080fd5b8063461a4478146101695780634651d91e1461017c5780638da5cb5b1461018f57600080fd5b80632015276c116100b25780632015276c146100fe57806329061de214610111578063299ca4781461012457600080fd5b8063167fd681146100ce5780631f7b6d32146100e3575b600080fd5b6100e16100dc366004610c59565b6101e9565b005b6100eb61034d565b6040519081526020015b60405180910390f35b6100e161010c366004610c59565b610365565b6100e161011f366004610c85565b61043d565b6000546101449073ffffffffffffffffffffffffffffffffffffffff1681565b60405173ffffffffffffffffffffffffffffffffffffffff90911681526020016100f5565b610144610177366004610cd6565b610517565b6100e161018a366004610da5565b6105c4565b61019761069b565b6040516100f59190610dbe565b6100eb6101b2366004610da5565b610729565b6100e16101c5366004610da5565b61073d565b6101d2610814565b60405164ffffffffff1990911681526020016100f5565b61027c600180546101f990610e31565b80601f016020809104026020016040519081016040528092919081815260200182805461022590610e31565b80156102725780601f1061024757610100808354040283529160200191610272565b820191906000526020600020905b81548152906001019060200180831161025557829003601f168201915b5050505050610517565b73ffffffffffffffffffffffffffffffffffffffff163373ffffffffffffffffffffffffffffffffffffffff161461033d57604080517f08c379a00000000000000000000000000000000000000000000000000000000081526020600482015260248101919091527f436861696e53746f72616765436f6e7461696e65723a2046756e6374696f6e2060448201527f63616e206f6e6c792062652063616c6c656420627920746865206f776e65722e60648201526084015b60405180910390fd5b61034960028383610825565b5050565b6000610359600261090c565b64ffffffffff16905090565b610375600180546101f990610e31565b73ffffffffffffffffffffffffffffffffffffffff163373ffffffffffffffffffffffffffffffffffffffff161461043157604080517f08c379a00000000000000000000000000000000000000000000000000000000081526020600482015260248101919091527f436861696e53746f72616765436f6e7461696e65723a2046756e6374696f6e2060448201527f63616e206f6e6c792062652063616c6c656420627920746865206f776e65722e6064820152608401610334565b61034960028383610957565b61044d600180546101f990610e31565b73ffffffffffffffffffffffffffffffffffffffff163373ffffffffffffffffffffffffffffffffffffffff161461050957604080517f08c379a00000000000000000000000000000000000000000000000000000000081526020600482015260248101919091527f436861696e53746f72616765436f6e7461696e65723a2046756e6374696f6e2060448201527f63616e206f6e6c792062652063616c6c656420627920746865206f776e65722e6064820152608401610334565b6105146002826109e6565b50565b600080546040517fbf40fac100000000000000000000000000000000000000000000000000000000815273ffffffffffffffffffffffffffffffffffffffff9091169063bf40fac19061056e908590600401610dbe565b60206040518083038186803b15801561058657600080fd5b505afa15801561059a573d6000803e3d6000fd5b505050506040513d601f19601f820116820180604052508101906105be9190610e85565b92915050565b6105d4600180546101f990610e31565b73ffffffffffffffffffffffffffffffffffffffff163373ffffffffffffffffffffffffffffffffffffffff161461069057604080517f08c379a00000000000000000000000000000000000000000000000000000000081526020600482015260248101919091527f436861696e53746f72616765436f6e7461696e65723a2046756e6374696f6e2060448201527f63616e206f6e6c792062652063616c6c656420627920746865206f776e65722e6064820152608401610334565b610514600282610a47565b600180546106a890610e31565b80601f01602080910402602001604051908101604052809291908181526020018280546106d490610e31565b80156107215780601f106106f657610100808354040283529160200191610721565b820191906000526020600020905b81548152906001019060200180831161070457829003601f168201915b505050505081565b60006105be600264ffffffffff8416610aa4565b61074d600180546101f990610e31565b73ffffffffffffffffffffffffffffffffffffffff163373ffffffffffffffffffffffffffffffffffffffff161461080957604080517f08c379a00000000000000000000000000000000000000000000000000000000081526020600482015260248101919091527f436861696e53746f72616765436f6e7461696e65723a2046756e6374696f6e2060448201527f63616e206f6e6c792062652063616c6c656420627920746865206f776e65722e6064820152608401610334565b610514600282610b73565b60006108206002610bd0565b905090565b600061086784604080518082019091526000808252602082015250546040805180820190915264ffffffffff8216815264ffffffffff19909116602082015290565b9050806000015164ffffffffff168364ffffffffff16106108e4576040517f08c379a000000000000000000000000000000000000000000000000000000000815260206004820152601460248201527f496e646578206f7574206f6620626f756e64732e0000000000000000000000006044820152606401610334565b64ffffffffff8316815264ffffffffff19821660208201526109068482610c1e565b50505050565b60008061094f83604080518082019091526000808252602082015250546040805180820190915264ffffffffff8216815264ffffffffff19909116602082015290565b519392505050565b600061099984604080518082019091526000808252602082015250546040805180820190915264ffffffffff8216815264ffffffffff19909116602082015290565b805164ffffffffff16600090815260018601602052604090208490558051909150816109c482610ebb565b64ffffffffff1690525064ffffffffff19821660208201526109068482610c1e565b6000610a2883604080518082019091526000808252602082015250546040805180820190915264ffffffffff8216815264ffffffffff19909116602082015290565b64ffffffffff19831660208201529050610a428382610c1e565b505050565b6000610a8983604080518082019091526000808252602082015250546040805180820190915264ffffffffff8216815264ffffffffff19909116602082015290565b9050610a42828260200151856108259092919063ffffffff16565b600080610ae784604080518082019091526000808252602082015250546040805180820190915264ffffffffff8216815264ffffffffff19909116602082015290565b805190915064ffffffffff168310610b5b576040517f08c379a000000000000000000000000000000000000000000000000000000000815260206004820152601460248201527f496e646578206f7574206f6620626f756e64732e0000000000000000000000006044820152606401610334565b50506000908152600191909101602052604090205490565b6000610bb583604080518082019091526000808252602082015250546040805180820190915264ffffffffff8216815264ffffffffff19909116602082015290565b9050610a42828260200151856109579092919063ffffffff16565b600080610c1383604080518082019091526000808252602082015250546040805180820190915264ffffffffff8216815264ffffffffff19909116602082015290565b602001519392505050565b8051602082015183548183179291908314610c37578285555b5050505050565b803564ffffffffff1981168114610c5457600080fd5b919050565b60008060408385031215610c6c57600080fd5b82359150610c7c60208401610c3e565b90509250929050565b600060208284031215610c9757600080fd5b610ca082610c3e565b9392505050565b7f4e487b7100000000000000000000000000000000000000000000000000000000600052604160045260246000fd5b600060208284031215610ce857600080fd5b813567ffffffffffffffff80821115610d0057600080fd5b818401915084601f830112610d1457600080fd5b813581811115610d2657610d26610ca7565b604051601f82017fffffffffffffffffffffffffffffffffffffffffffffffffffffffffffffffe0908116603f01168101908382118183101715610d6c57610d6c610ca7565b81604052828152876020848701011115610d8557600080fd5b826020860160208301376000928101602001929092525095945050505050565b600060208284031215610db757600080fd5b5035919050565b600060208083528351808285015260005b81811015610deb57858101830151858201604001528201610dcf565b81811115610dfd576000604083870101525b50601f017fffffffffffffffffffffffffffffffffffffffffffffffffffffffffffffffe016929092016040019392505050565b600181811c90821680610e4557607f821691505b60208210811415610e7f577f4e487b7100000000000000000000000000000000000000000000000000000000600052602260045260246000fd5b50919050565b600060208284031215610e9757600080fd5b815173ffffffffffffffffffffffffffffffffffffffff81168114610ca057600080fd5b600064ffffffffff80831681811415610efd577f4e487b7100000000000000000000000000000000000000000000000000000000600052601160045260246000fd5b600101939250505056fea2646970667358221220e1995ee56c4c5e67de41c56ad510b16704727d3ab1fa5bb2e3c62b0bd7c0597564736f6c63430008090033",
  "linkReferences": {},
  "deployedLinkReferences": {}
}