{
  "abi": [
    {
      "inputs": [
        {
          "internalType": "bytes",
          "name": "header",
          "type": "bytes"
        },
        {
          "internalType": "uint32",
          "name": "firstChunkNumber",
          "type": "uint32"
        },
        {
          "internalType": "bytes[]",
          "name": "polys",
          "type": "bytes[]"
        },
        {
          "components": [
            {
              "components": [
                {
                  "internalType": "uint256",
                  "name": "X",
                  "type": "uint256"
                },
                {
                  "internalType": "uint256",
                  "name": "Y",
                  "type": "uint256"
                }
              ],
              "internalType": "struct BN254.G1Point",
              "name": "interpolationPoly",
              "type": "tuple"
            },
            {
              "components": [
                {
                  "internalType": "uint256",
                  "name": "X",
                  "type": "uint256"
                },
                {
                  "internalType": "uint256",
                  "name": "Y",
                  "type": "uint256"
                }
              ],
              "internalType": "struct BN254.G1Point",
              "name": "revealProof",
              "type": "tuple"
            },
            {
              "components": [
                {
                  "internalType": "uint256[2]",
                  "name": "X",
                  "type": "uint256[2]"
                },
                {
                  "internalType": "uint256[2]",
                  "name": "Y",
                  "type": "uint256[2]"
                }
              ],
              "internalType": "struct BN254.G2Point",
              "name": "zeroPoly",
              "type": "tuple"
            },
            {
              "internalType": "bytes",
              "name": "zeroPolyProof",
              "type": "bytes"
            }
          ],
          "internalType": "struct DataLayrDisclosureLogic.MultiRevealProof[]",
          "name": "multiRevealProofs",
          "type": "tuple[]"
        },
        {
          "components": [
            {
              "internalType": "uint256[2]",
              "name": "X",
              "type": "uint256[2]"
            },
            {
              "internalType": "uint256[2]",
              "name": "Y",
              "type": "uint256[2]"
            }
          ],
          "internalType": "struct BN254.G2Point",
          "name": "polyEquivalenceProof",
          "type": "tuple"
        }
      ],
      "name": "batchNonInteractivePolynomialProofs",
      "outputs": [
        {
          "internalType": "bool",
          "name": "",
          "type": "bool"
        }
      ],
      "stateMutability": "view",
      "type": "function"
    },
    {
      "inputs": [
        {
          "internalType": "bytes",
          "name": "header",
          "type": "bytes"
        }
      ],
      "name": "getDataCommitmentAndMultirevealDegreeAndSymbolBreakdownFromHeader",
      "outputs": [
        {
          "components": [
            {
              "components": [
                {
                  "internalType": "uint256",
                  "name": "X",
                  "type": "uint256"
                },
                {
                  "internalType": "uint256",
                  "name": "Y",
                  "type": "uint256"
                }
              ],
              "internalType": "struct BN254.G1Point",
              "name": "c",
              "type": "tuple"
            },
            {
              "internalType": "uint48",
              "name": "degree",
              "type": "uint48"
            },
            {
              "internalType": "uint32",
              "name": "numSys",
              "type": "uint32"
            },
            {
              "internalType": "uint32",
              "name": "numPar",
              "type": "uint32"
            }
          ],
          "internalType": "struct DataLayrDisclosureLogic.DataStoreKZGMetadata",
          "name": "",
          "type": "tuple"
        }
      ],
      "stateMutability": "pure",
      "type": "function"
    },
    {
      "inputs": [
        {
          "internalType": "uint32",
          "name": "i",
          "type": "uint32"
        },
        {
          "internalType": "uint32",
          "name": "numSys",
          "type": "uint32"
        },
        {
          "internalType": "uint32",
          "name": "numPar",
          "type": "uint32"
        }
      ],
      "name": "getLeadingCosetIndexFromHighestRootOfUnity",
      "outputs": [
        {
          "internalType": "uint32",
          "name": "",
          "type": "uint32"
        }
      ],
      "stateMutability": "pure",
      "type": "function"
    },
    {
      "inputs": [
        {
          "internalType": "bytes",
          "name": "header",
          "type": "bytes"
        }
      ],
      "name": "getNumSysFromHeader",
      "outputs": [
        {
          "internalType": "uint32",
          "name": "",
          "type": "uint32"
        }
      ],
      "stateMutability": "pure",
      "type": "function"
    },
    {
      "inputs": [
        {
          "internalType": "uint256",
          "name": "degree",
          "type": "uint256"
        }
      ],
      "name": "getZeroPolyMerkleRoot",
      "outputs": [
        {
          "internalType": "bytes32",
          "name": "",
          "type": "bytes32"
        }
      ],
      "stateMutability": "pure",
      "type": "function"
    },
    {
      "inputs": [
        {
          "internalType": "bytes",
          "name": "poly",
          "type": "bytes"
        },
        {
          "internalType": "uint256",
          "name": "r",
          "type": "uint256"
        }
      ],
      "name": "linearPolynomialEvaluation",
      "outputs": [
        {
          "internalType": "uint256",
          "name": "",
          "type": "uint256"
        }
      ],
      "stateMutability": "pure",
      "type": "function"
    },
    {
      "inputs": [
        {
          "internalType": "uint256",
          "name": "n",
          "type": "uint256"
        }
      ],
      "name": "nextPowerOf2",
      "outputs": [
        {
          "internalType": "uint256",
          "name": "",
          "type": "uint256"
        }
      ],
      "stateMutability": "pure",
      "type": "function"
    },
    {
      "inputs": [
        {
          "internalType": "bytes",
          "name": "header",
          "type": "bytes"
        },
        {
          "internalType": "uint32",
          "name": "chunkNumber",
          "type": "uint32"
        },
        {
          "internalType": "bytes",
          "name": "poly",
          "type": "bytes"
        },
        {
          "components": [
            {
              "components": [
                {
                  "internalType": "uint256",
                  "name": "X",
                  "type": "uint256"
                },
                {
                  "internalType": "uint256",
                  "name": "Y",
                  "type": "uint256"
                }
              ],
              "internalType": "struct BN254.G1Point",
              "name": "interpolationPoly",
              "type": "tuple"
            },
            {
              "components": [
                {
                  "internalType": "uint256",
                  "name": "X",
                  "type": "uint256"
                },
                {
                  "internalType": "uint256",
                  "name": "Y",
                  "type": "uint256"
                }
              ],
              "internalType": "struct BN254.G1Point",
              "name": "revealProof",
              "type": "tuple"
            },
            {
              "components": [
                {
                  "internalType": "uint256[2]",
                  "name": "X",
                  "type": "uint256[2]"
                },
                {
                  "internalType": "uint256[2]",
                  "name": "Y",
                  "type": "uint256[2]"
                }
              ],
              "internalType": "struct BN254.G2Point",
              "name": "zeroPoly",
              "type": "tuple"
            },
            {
              "internalType": "bytes",
              "name": "zeroPolyProof",
              "type": "bytes"
            }
          ],
          "internalType": "struct DataLayrDisclosureLogic.MultiRevealProof",
          "name": "multiRevealProof",
          "type": "tuple"
        },
        {
          "components": [
            {
              "internalType": "uint256[2]",
              "name": "X",
              "type": "uint256[2]"
            },
            {
              "internalType": "uint256[2]",
              "name": "Y",
              "type": "uint256[2]"
            }
          ],
          "internalType": "struct BN254.G2Point",
          "name": "polyEquivalenceProof",
          "type": "tuple"
        }
      ],
      "name": "nonInteractivePolynomialProof",
      "outputs": [
        {
          "internalType": "bool",
          "name": "",
          "type": "bool"
        }
      ],
      "stateMutability": "view",
      "type": "function"
    },
    {
      "inputs": [
        {
          "components": [
            {
              "internalType": "uint256",
              "name": "X",
              "type": "uint256"
            },
            {
              "internalType": "uint256",
              "name": "Y",
              "type": "uint256"
            }
          ],
          "internalType": "struct BN254.G1Point",
          "name": "c",
          "type": "tuple"
        },
        {
          "components": [
            {
              "internalType": "uint256[2]",
              "name": "X",
              "type": "uint256[2]"
            },
            {
              "internalType": "uint256[2]",
              "name": "Y",
              "type": "uint256[2]"
            }
          ],
          "internalType": "struct BN254.G2Point",
          "name": "pi",
          "type": "tuple"
        },
        {
          "internalType": "uint256",
          "name": "r",
          "type": "uint256"
        },
        {
          "internalType": "uint256",
          "name": "s",
          "type": "uint256"
        }
      ],
      "name": "openPolynomialAtPoint",
      "outputs": [
        {
          "internalType": "bool",
          "name": "",
          "type": "bool"
        }
      ],
      "stateMutability": "view",
      "type": "function"
    },
    {
      "inputs": [
        {
          "internalType": "uint32",
          "name": "value",
          "type": "uint32"
        }
      ],
      "name": "reverseBits",
      "outputs": [
        {
          "internalType": "uint32",
          "name": "",
          "type": "uint32"
        }
      ],
      "stateMutability": "pure",
      "type": "function"
    },
    {
      "inputs": [
        {
          "internalType": "uint32",
          "name": "length",
          "type": "uint32"
        },
        {
          "internalType": "uint32",
          "name": "value",
          "type": "uint32"
        }
      ],
      "name": "reverseBitsLimited",
      "outputs": [
        {
          "internalType": "uint32",
          "name": "",
          "type": "uint32"
        }
      ],
      "stateMutability": "pure",
      "type": "function"
    },
    {
      "inputs": [
        {
          "components": [
            {
              "components": [
                {
                  "internalType": "uint256",
                  "name": "X",
                  "type": "uint256"
                },
                {
                  "internalType": "uint256",
                  "name": "Y",
                  "type": "uint256"
                }
              ],
              "internalType": "struct BN254.G1Point",
              "name": "c",
              "type": "tuple"
            },
            {
              "internalType": "uint48",
              "name": "degree",
              "type": "uint48"
            },
            {
              "internalType": "uint32",
              "name": "numSys",
              "type": "uint32"
            },
            {
              "internalType": "uint32",
              "name": "numPar",
              "type": "uint32"
            }
          ],
          "internalType": "struct DataLayrDisclosureLogic.DataStoreKZGMetadata",
          "name": "dskzgMetadata",
          "type": "tuple"
        },
        {
          "internalType": "uint32",
          "name": "chunkNumber",
          "type": "uint32"
        },
        {
          "components": [
            {
              "internalType": "uint256",
              "name": "X",
              "type": "uint256"
            },
            {
              "internalType": "uint256",
              "name": "Y",
              "type": "uint256"
            }
          ],
          "internalType": "struct BN254.G1Point",
          "name": "interpolationPoly",
          "type": "tuple"
        },
        {
          "components": [
            {
              "internalType": "uint256",
              "name": "X",
              "type": "uint256"
            },
            {
              "internalType": "uint256",
              "name": "Y",
              "type": "uint256"
            }
          ],
          "internalType": "struct BN254.G1Point",
          "name": "revealProof",
          "type": "tuple"
        },
        {
          "components": [
            {
              "internalType": "uint256[2]",
              "name": "X",
              "type": "uint256[2]"
            },
            {
              "internalType": "uint256[2]",
              "name": "Y",
              "type": "uint256[2]"
            }
          ],
          "internalType": "struct BN254.G2Point",
          "name": "zeroPoly",
          "type": "tuple"
        },
        {
          "internalType": "bytes",
          "name": "zeroPolyProof",
          "type": "bytes"
        }
      ],
      "name": "validateDisclosureResponse",
      "outputs": [
        {
          "internalType": "bool",
          "name": "",
          "type": "bool"
        }
      ],
      "stateMutability": "view",
      "type": "function"
    },
    {
      "inputs": [
        {
          "internalType": "bytes[]",
          "name": "polys",
          "type": "bytes[]"
        },
        {
          "components": [
            {
              "internalType": "uint256",
              "name": "X",
              "type": "uint256"
            },
            {
              "internalType": "uint256",
              "name": "Y",
              "type": "uint256"
            }
          ],
          "internalType": "struct BN254.G1Point[]",
          "name": "interpolationPolys",
          "type": "tuple[]"
        },
        {
          "components": [
            {
              "internalType": "uint256[2]",
              "name": "X",
              "type": "uint256[2]"
            },
            {
              "internalType": "uint256[2]",
              "name": "Y",
              "type": "uint256[2]"
            }
          ],
          "internalType": "struct BN254.G2Point",
          "name": "polyEquivalenceProof",
          "type": "tuple"
        }
      ],
      "name": "verifyBatchPolyEquivalenceProof",
      "outputs": [
        {
          "internalType": "bool",
          "name": "",
          "type": "bool"
        }
      ],
      "stateMutability": "view",
      "type": "function"
    },
    {
      "inputs": [
        {
          "internalType": "bytes",
          "name": "poly",
          "type": "bytes"
        },
        {
          "components": [
            {
              "internalType": "uint256",
              "name": "X",
              "type": "uint256"
            },
            {
              "internalType": "uint256",
              "name": "Y",
              "type": "uint256"
            }
          ],
          "internalType": "struct BN254.G1Point",
          "name": "interpolationPoly",
          "type": "tuple"
        },
        {
          "components": [
            {
              "internalType": "uint256[2]",
              "name": "X",
              "type": "uint256[2]"
            },
            {
              "internalType": "uint256[2]",
              "name": "Y",
              "type": "uint256[2]"
            }
          ],
          "internalType": "struct BN254.G2Point",
          "name": "polyEquivalenceProof",
          "type": "tuple"
        }
      ],
      "name": "verifyPolyEquivalenceProof",
      "outputs": [
        {
          "internalType": "bool",
          "name": "",
          "type": "bool"
        }
      ],
      "stateMutability": "view",
      "type": "function"
    }
  ],
  "bytecode": {
    "object": "0x6127e661003a600b82828239805160001a60731461002d57634e487b7160e01b600052600060045260246000fd5b30600052607381538281f3fe73000000000000000000000000000000000000000030146080604052600436106100f45760003560e01c8063899c1afc11610096578063bd73d38511610070578063bd73d3851461023b578063c9f698e71461024e578063ddeacaf614610261578063e34c39d61461027457600080fd5b8063899c1afc1461020257806399ae87ee14610215578063b39028271461022857600080fd5b80632a797870116100d25780632a7978701461015a5780632b2c99df146101b9578063413a94ee146101dc5780635729f2ce146101ef57600080fd5b80630e425d17146100f957806329cc94b81461011f5780632a6fa69314610147575b600080fd5b61010c610107366004611c00565b61028d565b6040519081526020015b60405180910390f35b61013261012d366004611c2d565b6102ba565b60405163ffffffff9091168152602001610116565b61010c610155366004611c00565b6102fb565b61016d610168366004611ca8565b6105ef565b604080518251805182526020908101518183015283015165ffffffffffff16818301529082015163ffffffff90811660608084019190915290920151909116608082015260a001610116565b6101cc6101c7366004611d13565b610672565b6040519015158152602001610116565b6101cc6101ea366004611dbd565b610717565b6101cc6101fd366004611efe565b610a24565b6101cc610210366004611f43565b610ba4565b61010c610223366004612002565b610fe5565b61013261023636600461204d565b611069565b6101cc610249366004612068565b6110b7565b61013261025c366004612127565b6111e4565b6101cc61026f366004612219565b611340565b610132610282366004611ca8565b506044013560e01c90565b600060015b82816001901b10156102b057806102a881612327565b915050610292565b6001901b92915050565b6000806102cc8463ffffffff16611548565b6102d7906020612340565b90508063ffffffff166102e984611069565b63ffffffff16901c9150505b92915050565b60008061030783611548565b90508060000361033957507fe82cea94884b1b895ea0742840a3b19249a723810fd1b04d8564d675b0a416f192915050565b8060010361036957507f4843774a80fc8385b31024f5bd18b42e62de439206ab9468d42d826796d41f6792915050565b8060020361039957507f092d3e5f87f5293e7ab0cc2ca6b0b5e4adb5e0011656544915f7cea34e69e5ab92915050565b806003036103c957507f494b208540ec8624fbbb3f2c64ffccdaf6253f8f4e50c0d93922d88195b0775592915050565b806004036103f957507ffdb44b84a82893cfa0e37a97f09ffc4298ad5e62be1bea1d03320ae836213d2292915050565b8060050361042957507f3f50cb08231d2a76853ba9dbb20dad45a1b75c57cdaff6223bfe069752cff3d492915050565b8060060361045957507fbb39eebd8138eefd5802a49d571e65b3e0d4e32277c28fbf5fbca66e7fb0431092915050565b8060070361048957507ff0a39b513e11fa80cbecbf352f69310eddd5cd03148768e0e9542bd600b133ec92915050565b806008036104b957507f038cca2238865414efb752cc004fffec9e6069b709f495249cdf36efbd5952f692915050565b806009036104e957507f2a26b054ed559dd255d8ac9060ebf6b95b768d87de767f8174ad2f9a4e48dd0192915050565b80600a0361051957507f1fe180d0bc4ff7c69fefa595b3b5f3c284535a280f6fdcf69b20770d1e20e1fc92915050565b80600b0361054957507f60e34ad57c61cd6fdd8177437c30e4a30334e63d7683989570cf27020efc820192915050565b80600c0361057957507feda2417e770ddbe88f083acf06b6794dfb76301314a32bd0697440d76f6cd9cc92915050565b80600d036105a957507f8cbe9b8cf92ce70e3bec8e1e72a0f85569017a7e43c3db50e4a5badb8dea7ce892915050565b60405162461bcd60e51b81526020600482015260166024820152754c6f67206e6f7420696e2076616c69642072616e676560501b60448201526064015b60405180910390fd5b6040805160c08101825260006080820181815260a0830182905282526020820181905291810182905260608101919091525050604080518082018252823581526020838101358183015282516080810184529182528383013560e090811c918301919091526044840135811c92820192909252604890920135901c606082015290565b600080600080516020612791833981519152868660405161069492919061235d565b6040805191829003822060208084019190915287359183019190915286013560608201526080016040516020818303038152906040528051906020012060001c6106de9190612383565b905060006106ed878784610fe5565b9050600061070b61070336889003880188612397565b868585610a24565b98975050505050505050565b600080856001600160401b0381111561073257610732611e6e565b60405190808252806020026020018201604052801561075b578160200160208202803683370190505b50905060005b868110156108435787878281811061077b5761077b6123b3565b905060200281019061078d91906123c9565b60405161079b92919061235d565b60405180910390208686838181106107b5576107b56123b3565b905060400201600001358787848181106107d1576107d16123b3565b905060400201602001356040516020016107fe939291909283526020830191909152604082015260600190565b60405160208183030381529060405280519060200120828281518110610826576108266123b3565b60209081029190910101528061083b81612327565b915050610761565b506000600080516020612791833981519152826040516020016108669190612442565b6040516020818303038152906040528051906020012060001c6108899190612383565b9050610893611b69565b6000805160206127918339815191528360006040516020016108b692919061244e565b6040516020818303038152906040528051906020012060001c6108d99190612383565b80825260208201526000878782816108f3576108f36123b3565b9050604002018036038101906109099190612397565b9050600061093b8b8b6000818110610923576109236123b3565b905060200281019061093591906123c9565b86610fe5565b905060015b88811015610a0857610986836109818c8c85818110610961576109616123b3565b9050604002018036038101906109779190612397565b60208801516115ae565b61163f565b925060006109b78d8d8481811061099f5761099f6123b3565b90506020028101906109b191906123c9565b88610fe5565b90506000805160206127918339815191528082876001602002015109840860208601518651919450600080516020612791833981519152910960208601525080610a0081612327565b915050610940565b50610a1582888684610a24565b9b9a5050505050505050505050565b60408051808201909152600181526002602082015260009081610a4f610a49836116d4565b866115ae565b604080518082019091527f220ac48bb1f91fd93f502a3d0caa077ac70e0af8819b9d8fa26a168a2c558a5781527f08f54b82af08ceaf7cd5f180bac94870f6d8100a9c9afa9dd09a4491653891126020820152909150610aaf818361163f565b91506000610ac5610abf856116d4565b876115ae565b90506000610ad38a8361163f565b604080516080810182527f198e9393920d483a7260bfb731fb5d25f1aa493335a9e71297e485b7aef312c28183019081527f1800deef121f1e76426a00665e5c4479674322d4f75edadd46debd5cd992f6ed6060830152815281518083019092527f275dc4a288d1afb3cbb1ac09187524c7db36395df7be3b99e673b13a075a65ec82527f1d9befcd05a5323e6da4d435f3b617cdb3af83285c2df711ef39c01571827f9d602083810191909152810191909152909150610a1585610b9d368d90038d018d612467565b8484611793565b600080856001600160401b03811115610bbf57610bbf611e6e565b604051908082528060200260200182016040528015610be8578160200160208202803683370190505b5090506000610bf78b8b6105ef565b90508460005b81811015610e2557610cc883610c13838e612483565b8a8a85818110610c2557610c256123b3565b9050602002810190610c3791906124a0565b8b8b86818110610c4957610c496123b3565b9050602002810190610c5b91906124a0565b6040018c8c87818110610c7057610c706123b3565b9050602002810190610c8291906124a0565b608001803603810190610c959190612467565b8d8d88818110610ca757610ca76123b3565b9050602002810190610cb991906124a0565b61026f906101008101906123c9565b610ce45760405162461bcd60e51b81526004016105e6906124c1565b898982818110610cf657610cf66123b3565b9050602002810190610d0891906123c9565b905083602001516020610d1b9190612503565b65ffffffffffff1614610d405760405162461bcd60e51b81526004016105e690612525565b898982818110610d5257610d526123b3565b9050602002810190610d6491906123c9565b604051610d7292919061235d565b6040518091039020888883818110610d8c57610d8c6123b3565b9050602002810190610d9e91906124a0565b35898984818110610db157610db16123b3565b9050602002810190610dc391906124a0565b604051610dea93929160209081013591019283526020830191909152604082015260600190565b60405160208183030381529060405280519060200120848281518110610e1257610e126123b3565b6020908102919091010152600101610bfd565b50600060008051602061279183398151915284604051602001610e489190612442565b6040516020818303038152906040528051906020012060001c610e6b9190612383565b9050610e75611b69565b600080516020612791833981519152856000604051602001610e9892919061244e565b6040516020818303038152906040528051906020012060001c610ebb9190612383565b8082526020820152600089898281610ed557610ed56123b3565b9050602002810190610ee791906124a0565b610ef79036819003810190612397565b90506000610f118d8d6000818110610923576109236123b3565b905060015b8a811015610fc357610f59836109818e8e85818110610f3757610f376123b3565b9050602002810190610f4991906124a0565b6109779036819003810190612397565b92506000610f728f8f8481811061099f5761099f6123b3565b90506000805160206127918339815191528082876001602002015109840860208601518651919450600080516020612791833981519152910960208601525080610fbb81612327565b915050610f16565b50610fd0828a8684610a24565b97505050505050505098975050505050505050565b600080836001825b8281101561105b576000888289611005826020612582565b9261101293929190612595565b61101b916125bf565b905060008051602061279183398151915280848309860894506000805160206127918339815191528784099250611053602083612582565b915050610fed565b5091925050505b9392505050565b600080805b60208110156110b0576001811b84811663ffffffff161561109d5761109482601f6125dd565b6001901b831792505b50806110a881612327565b91505061106e565b5092915050565b6000806110c489896105ef565b90506110f0818886604081016110e236839003830160808401612467565b61026f6101008b018b6123c9565b61110c5760405162461bcd60e51b81526004016105e6906124c1565b6020810151859061111e9060016125f0565b611129906020612503565b65ffffffffffff161461114e5760405162461bcd60e51b81526004016105e690612525565b6000600080516020612791833981519152878760405161116f92919061235d565b6040805191829003822060208084019190915288359183019190915287013560608201526080016040516020818303038152906040528051906020012060001c6111b99190612383565b905060006111c8888884610fe5565b9050610a156111dc36889003880188612397565b868484610a24565b6000806111f18385612483565b905060006112048563ffffffff1661028d565b90506000611212868461260f565b63ffffffff1615611224576001611227565b60005b60ff166112348785612632565b61123e9190612483565b9050600061125a61124f8385612655565b63ffffffff1661028d565b90508663ffffffff168863ffffffff16101561129c578061127b828a6102ba565b61128790610100612655565b6112919190612632565b945050505050611062565b6112a68784612340565b6112b09082612340565b63ffffffff168863ffffffff1610156112dd578061127b81856112d38b8d612340565b61012d9190612483565b60405162461bcd60e51b815260206004820152603260248201527f43616e6e6f7420637265617465206e756d626572206f66206672616d6520686960448201527167686572207468616e20706f737369626c6560701b60648201526084016105e6565b8251602080820151915181860151808301519051604080519485019590955293830191909152606082015260808101919091526000906113fd9060a001604051602081830303815290604052805190602001206113a6898b604001518c606001516111e4565b63ffffffff166113c18b6020015165ffffffffffff166102fb565b86868080601f016020809104026020016040519081016040528093929190818152602001838380828437600092019190915250611a0192505050565b6114495760405162461bcd60e51b815260206004820181905260248201527f496e636f7272656374207a65726f20706f6c79206d65726b6c652070726f6f6660448201526064016105e6565b875160009061146990610981611464368b90038b018b612397565b6116d4565b604080516080810182527f198e9393920d483a7260bfb731fb5d25f1aa493335a9e71297e485b7aef312c28183019081527f1800deef121f1e76426a00665e5c4479674322d4f75edadd46debd5cd992f6ed6060830152815281518083019092527f275dc4a288d1afb3cbb1ac09187524c7db36395df7be3b99e673b13a075a65ec82527f1d9befcd05a5323e6da4d435f3b617cdb3af83285c2df711ef39c01571827f9d60208381019190915281019190915290915061153a61153236899003890189612397565b878484611793565b9a9950505050505050505050565b600080821161158f5760405162461bcd60e51b8152602060048201526013602482015272131bd9c81b5d5cdd081899481919599a5b9959606a1b60448201526064016105e6565b60005b600183821c146102f557806115a681612327565b915050611592565b60408051808201909152600080825260208201526115ca611b87565b835181526020808501519082015260408082018490526000908360608460076107d05a03fa905080806115f957fe5b50806116375760405162461bcd60e51b815260206004820152600d60248201526c1958cb5b5d5b0b59985a5b1959609a1b60448201526064016105e6565b505092915050565b604080518082019091526000808252602082015261165b611ba5565b835181526020808501518183015283516040808401919091529084015160608301526000908360808460066107d05a03fa9050808061169657fe5b50806116375760405162461bcd60e51b815260206004820152600d60248201526c1958cb5859190b59985a5b1959609a1b60448201526064016105e6565b604080518082019091526000808252602082015281511580156116f957506020820151155b15611717575050604080518082019091526000808252602082015290565b6040518060400160405280836000015181526020017f30644e72e131a029b85045b68181585d97816a916871ca8d3c208c16d87cfd47846020015161175c9190612383565b611786907f30644e72e131a029b85045b68181585d97816a916871ca8d3c208c16d87cfd476125dd565b905292915050565b919050565b6040805180820182528581526020808201859052825180840190935285835282018390526000916117c2611bc3565b60005b60028110156119875760006117db826006612675565b90508482600281106117ef576117ef6123b3565b60200201515183611801836000612582565b600c8110611811576118116123b3565b6020020152848260028110611828576118286123b3565b6020020151602001518382600161183f9190612582565b600c811061184f5761184f6123b3565b6020020152838260028110611866576118666123b3565b6020020151515183611879836002612582565b600c8110611889576118896123b3565b60200201528382600281106118a0576118a06123b3565b60200201515160016020020151836118b9836003612582565b600c81106118c9576118c96123b3565b60200201528382600281106118e0576118e06123b3565b6020020151602001516000600281106118fb576118fb6123b3565b60200201518361190c836004612582565b600c811061191c5761191c6123b3565b6020020152838260028110611933576119336123b3565b60200201516020015160016002811061194e5761194e6123b3565b60200201518361195f836005612582565b600c811061196f5761196f6123b3565b6020020152508061197f81612327565b9150506117c5565b50611990611be2565b60006020826101808560086107d05a03fa905080806119ab57fe5b50806119f15760405162461bcd60e51b81526020600482015260156024820152741c185a5c9a5b99cb5bdc18dbd9194b59985a5b1959605a1b60448201526064016105e6565b5051151598975050505050505050565b600060208251611a119190612383565b15611a555760405162461bcd60e51b8152602060048201526014602482015273092dcecc2d8d2c840e0e4dedecc40d8cadccee8d60631b60448201526064016105e6565b600060208351611a65919061268c565b9050611a72816002612784565b8510611ab85760405162461bcd60e51b81526020600482015260156024820152744c65616620696e64657820697320746f6f2062696760581b60448201526064016105e6565b60008660205b85518111611b5b57858101519250611ad7600289612383565b600003611b0f576040805160208101849052908101849052606001604051602081830303815290604052805190602001209150611b3c565b60408051602081018590529081018390526060016040516020818303038152906040528051906020012091505b611b4760028961268c565b9750611b54602082612582565b9050611abe565b509094149695505050505050565b60405180604001604052806002906020820280368337509192915050565b60405180606001604052806003906020820280368337509192915050565b60405180608001604052806004906020820280368337509192915050565b604051806101800160405280600c906020820280368337509192915050565b60405180602001604052806001906020820280368337509192915050565b600060208284031215611c1257600080fd5b5035919050565b803563ffffffff8116811461178e57600080fd5b60008060408385031215611c4057600080fd5b611c4983611c19565b9150611c5760208401611c19565b90509250929050565b60008083601f840112611c7257600080fd5b5081356001600160401b03811115611c8957600080fd5b602083019150836020828501011115611ca157600080fd5b9250929050565b60008060208385031215611cbb57600080fd5b82356001600160401b03811115611cd157600080fd5b611cdd85828601611c60565b90969095509350505050565b600060408284031215611cfb57600080fd5b50919050565b600060808284031215611cfb57600080fd5b60008060008060e08587031215611d2957600080fd5b84356001600160401b03811115611d3f57600080fd5b611d4b87828801611c60565b9095509350611d5f90508660208701611ce9565b9150611d6e8660608701611d01565b905092959194509250565b60008083601f840112611d8b57600080fd5b5081356001600160401b03811115611da257600080fd5b6020830191508360208260051b8501011115611ca157600080fd5b600080600080600060c08688031215611dd557600080fd5b85356001600160401b0380821115611dec57600080fd5b611df889838a01611d79565b90975095506020880135915080821115611e1157600080fd5b818801915088601f830112611e2557600080fd5b813581811115611e3457600080fd5b8960208260061b8501011115611e4957600080fd5b602083019550809450505050611e628760408801611d01565b90509295509295909350565b634e487b7160e01b600052604160045260246000fd5b604080519081016001600160401b0381118282101715611ea657611ea6611e6e565b60405290565b604051608081016001600160401b0381118282101715611ea657611ea6611e6e565b600060408284031215611ee057600080fd5b611ee8611e84565b9050813581526020820135602082015292915050565b6000806000806101008587031215611f1557600080fd5b611f1f8686611ece565b9350611f2e8660408701611d01565b939693955050505060c08201359160e0013590565b600080600080600080600080610100898b031215611f6057600080fd5b88356001600160401b0380821115611f7757600080fd5b611f838c838d01611c60565b909a509850889150611f9760208c01611c19565b975060408b0135915080821115611fad57600080fd5b611fb98c838d01611d79565b909750955060608b0135915080821115611fd257600080fd5b50611fdf8b828c01611d79565b9094509250611ff390508a60808b01611d01565b90509295985092959890939650565b60008060006040848603121561201757600080fd5b83356001600160401b0381111561202d57600080fd5b61203986828701611c60565b909790965060209590950135949350505050565b60006020828403121561205f57600080fd5b61106282611c19565b6000806000806000806000610100888a03121561208457600080fd5b87356001600160401b038082111561209b57600080fd5b6120a78b838c01611c60565b90995097508791506120bb60208b01611c19565b965060408a01359150808211156120d157600080fd5b6120dd8b838c01611c60565b909650945060608a01359150808211156120f657600080fd5b508801610120818b03121561210a57600080fd5b91506121198960808a01611d01565b905092959891949750929550565b60008060006060848603121561213c57600080fd5b61214584611c19565b925061215360208501611c19565b915061216160408501611c19565b90509250925092565b600082601f83011261217b57600080fd5b604051604081018181106001600160401b038211171561219d5761219d611e6e565b80604052508060408401858111156121b457600080fd5b845b818110156121ce5780358352602092830192016121b6565b509195945050505050565b6000608082840312156121eb57600080fd5b6121f3611e84565b90506121ff838361216a565b815261220e836040840161216a565b602082015292915050565b60008060008060008060008789036101e081121561223657600080fd5b60a081121561224457600080fd5b5061224d611eac565b6122578a8a611ece565b8152604089013565ffffffffffff8116811461227257600080fd5b602082015261228360608a01611c19565b604082015261229460808a01611c19565b606082015296506122a760a08901611c19565b95506122b68960c08a01611ce9565b94506122c6896101008a01611ce9565b93506122d6896101408a016121d9565b92506101c08801356001600160401b038111156122f257600080fd5b6122fe8a828b01611c60565b989b979a50959850939692959293505050565b634e487b7160e01b600052601160045260246000fd5b60006001820161233957612339612311565b5060010190565b63ffffffff8281168282160390808211156110b0576110b0612311565b8183823760009101908152919050565b634e487b7160e01b600052601260045260246000fd5b6000826123925761239261236d565b500690565b6000604082840312156123a957600080fd5b6110628383611ece565b634e487b7160e01b600052603260045260246000fd5b6000808335601e198436030181126123e057600080fd5b8301803591506001600160401b038211156123fa57600080fd5b602001915036819003821315611ca157600080fd5b60008151602080840160005b838110156124375781518752958201959082019060010161241b565b509495945050505050565b6000611062828461240f565b600061245a828561240f565b9283525050602001919050565b60006080828403121561247957600080fd5b61106283836121d9565b63ffffffff8181168382160190808211156110b0576110b0612311565b6000823561011e198336030181126124b757600080fd5b9190910192915050565b60208082526022908201527f52657665616c206661696c65642064756520746f206e6f6e20312070616972696040820152616e6760f01b606082015260800190565b65ffffffffffff81811683821602808216919082811461163757611637612311565b60208082526038908201527f506f6c796e6f6d69616c206d757374206861766520612032353620626974206360408201527f6f656666696369656e7420666f722065616368207465726d0000000000000000606082015260800190565b808201808211156102f5576102f5612311565b600080858511156125a557600080fd5b838611156125b257600080fd5b5050820193919092039150565b803560208310156102f557600019602084900360031b1b1692915050565b818103818111156102f5576102f5612311565b65ffffffffffff8181168382160190808211156110b0576110b0612311565b600063ffffffff808416806126265761262661236d565b92169190910692915050565b600063ffffffff808416806126495761264961236d565b92169190910492915050565b63ffffffff81811683821602808216919082811461163757611637612311565b80820281158282048414176102f5576102f5612311565b60008261269b5761269b61236d565b500490565b600181815b808511156126db5781600019048211156126c1576126c1612311565b808516156126ce57918102915b93841c93908002906126a5565b509250929050565b6000826126f2575060016102f5565b816126ff575060006102f5565b8160018114612715576002811461271f5761273b565b60019150506102f5565b60ff84111561273057612730612311565b50506001821b6102f5565b5060208310610133831016604e8410600b841016171561275e575081810a6102f5565b61276883836126a0565b806000190482111561277c5761277c612311565b029392505050565b600061106283836126e356fe30644e72e131a029b85045b68181585d2833e84879b9709143e1f593f0000001a264697066735822122072b70597b1f9ee8275ba9bb935e6ca548b504c716ec052f46a7c101e1b92eed764736f6c63430008110033",
    "linkReferences": {}
  },
  "methodIdentifiers": {
    "batchNonInteractivePolynomialProofs(bytes,uint32,bytes[],DataLayrDisclosureLogic.MultiRevealProof[],BN254.G2Point)": "899c1afc",
    "getDataCommitmentAndMultirevealDegreeAndSymbolBreakdownFromHeader(bytes)": "2a797870",
    "getLeadingCosetIndexFromHighestRootOfUnity(uint32,uint32,uint32)": "c9f698e7",
    "getNumSysFromHeader(bytes)": "e34c39d6",
    "getZeroPolyMerkleRoot(uint256)": "2a6fa693",
    "linearPolynomialEvaluation(bytes,uint256)": "99ae87ee",
    "nextPowerOf2(uint256)": "0e425d17",
    "nonInteractivePolynomialProof(bytes,uint32,bytes,DataLayrDisclosureLogic.MultiRevealProof,BN254.G2Point)": "bd73d385",
    "openPolynomialAtPoint(BN254.G1Point,BN254.G2Point,uint256,uint256)": "5729f2ce",
    "reverseBits(uint32)": "b3902827",
    "reverseBitsLimited(uint32,uint32)": "29cc94b8",
    "validateDisclosureResponse(DataLayrDisclosureLogic.DataStoreKZGMetadata,uint32,BN254.G1Point,BN254.G1Point,BN254.G2Point,bytes)": "ddeacaf6",
    "verifyBatchPolyEquivalenceProof(bytes[],BN254.G1Point[],BN254.G2Point)": "413a94ee",
    "verifyPolyEquivalenceProof(bytes,BN254.G1Point,BN254.G2Point)": "2b2c99df"
  },
  "id": 15
}