{
  "address": "0x88EC574e2ef0EcF9043373139099f7E535F94dBC",
  "abi": [
    {
      "inputs": [
        {
          "internalType": "address",
          "name": "_libAddressManager",
          "type": "address"
        },
        {
          "internalType": "address",
          "name": "_l1messenger",
          "type": "address"
        },
        {
          "internalType": "uint256",
          "name": "_fraudProofWindow",
          "type": "uint256"
        },
        {
          "internalType": "uint256",
          "name": "_sequencerPublishWindow",
          "type": "uint256"
        }
      ],
      "stateMutability": "nonpayable",
      "type": "constructor"
    },
    {
      "anonymous": false,
      "inputs": [
        {
          "indexed": true,
          "internalType": "uint256",
          "name": "_startBlockNumber",
          "type": "uint256"
        },
        {
          "indexed": false,
          "internalType": "uint256",
          "name": "_length",
          "type": "uint256"
        },
        {
          "indexed": true,
          "internalType": "uint256",
          "name": "_batchTime",
          "type": "uint256"
        },
        {
          "indexed": false,
          "internalType": "address[]",
          "name": "_tssMembers",
          "type": "address[]"
        }
      ],
      "name": "DistributeTssReward",
      "type": "event"
    },
    {
      "anonymous": false,
      "inputs": [
        {
          "indexed": true,
          "internalType": "uint256",
          "name": "_startBlockNumber",
          "type": "uint256"
        }
      ],
      "name": "RollBackL2Chain",
      "type": "event"
    },
    {
      "anonymous": false,
      "inputs": [
        {
          "indexed": true,
          "internalType": "uint256",
          "name": "_batchIndex",
          "type": "uint256"
        },
        {
          "indexed": false,
          "internalType": "bytes32",
          "name": "_batchRoot",
          "type": "bytes32"
        },
        {
          "indexed": false,
          "internalType": "uint256",
          "name": "_batchSize",
          "type": "uint256"
        },
        {
          "indexed": false,
          "internalType": "uint256",
          "name": "_prevTotalElements",
          "type": "uint256"
        },
        {
          "indexed": false,
          "internalType": "bytes",
          "name": "_signature",
          "type": "bytes"
        },
        {
          "indexed": false,
          "internalType": "bytes",
          "name": "_extraData",
          "type": "bytes"
        }
      ],
      "name": "StateBatchAppended",
      "type": "event"
    },
    {
      "anonymous": false,
      "inputs": [
        {
          "indexed": true,
          "internalType": "uint256",
          "name": "_batchIndex",
          "type": "uint256"
        },
        {
          "indexed": false,
          "internalType": "bytes32",
          "name": "_batchRoot",
          "type": "bytes32"
        }
      ],
      "name": "StateBatchDeleted",
      "type": "event"
    },
    {
      "inputs": [],
      "name": "FRAUD_PROOF_WINDOW",
      "outputs": [
        {
          "internalType": "uint256",
          "name": "",
          "type": "uint256"
        }
      ],
      "stateMutability": "view",
      "type": "function"
    },
    {
      "inputs": [],
      "name": "SEQUENCER_PUBLISH_WINDOW",
      "outputs": [
        {
          "internalType": "uint256",
          "name": "",
          "type": "uint256"
        }
      ],
      "stateMutability": "view",
      "type": "function"
    },
    {
      "inputs": [
        {
          "internalType": "bytes32[]",
          "name": "_batch",
          "type": "bytes32[]"
        },
        {
          "internalType": "uint256",
          "name": "_shouldStartAtElement",
          "type": "uint256"
        },
        {
          "internalType": "bytes",
          "name": "_signature",
          "type": "bytes"
        }
      ],
      "name": "appendStateBatch",
      "outputs": [],
      "stateMutability": "nonpayable",
      "type": "function"
    },
    {
      "inputs": [],
      "name": "batches",
      "outputs": [
        {
          "internalType": "contract IChainStorageContainer",
          "name": "",
          "type": "address"
        }
      ],
      "stateMutability": "view",
      "type": "function"
    },
    {
      "inputs": [
        {
          "components": [
            {
              "internalType": "uint256",
              "name": "batchIndex",
              "type": "uint256"
            },
            {
              "internalType": "bytes32",
              "name": "batchRoot",
              "type": "bytes32"
            },
            {
              "internalType": "uint256",
              "name": "batchSize",
              "type": "uint256"
            },
            {
              "internalType": "uint256",
              "name": "prevTotalElements",
              "type": "uint256"
            },
            {
              "internalType": "bytes",
              "name": "signature",
              "type": "bytes"
            },
            {
              "internalType": "bytes",
              "name": "extraData",
              "type": "bytes"
            }
          ],
          "internalType": "struct Lib_BVMCodec.ChainBatchHeader",
          "name": "_batchHeader",
          "type": "tuple"
        }
      ],
      "name": "deleteStateBatch",
      "outputs": [],
      "stateMutability": "nonpayable",
      "type": "function"
    },
    {
      "inputs": [],
      "name": "getLastSequencerTimestamp",
      "outputs": [
        {
          "internalType": "uint256",
          "name": "_lastSequencerTimestamp",
          "type": "uint256"
        }
      ],
      "stateMutability": "view",
      "type": "function"
    },
    {
      "inputs": [],
      "name": "getTotalBatches",
      "outputs": [
        {
          "internalType": "uint256",
          "name": "_totalBatches",
          "type": "uint256"
        }
      ],
      "stateMutability": "view",
      "type": "function"
    },
    {
      "inputs": [],
      "name": "getTotalElements",
      "outputs": [
        {
          "internalType": "uint256",
          "name": "_totalElements",
          "type": "uint256"
        }
      ],
      "stateMutability": "view",
      "type": "function"
    },
    {
      "inputs": [
        {
          "components": [
            {
              "internalType": "uint256",
              "name": "batchIndex",
              "type": "uint256"
            },
            {
              "internalType": "bytes32",
              "name": "batchRoot",
              "type": "bytes32"
            },
            {
              "internalType": "uint256",
              "name": "batchSize",
              "type": "uint256"
            },
            {
              "internalType": "uint256",
              "name": "prevTotalElements",
              "type": "uint256"
            },
            {
              "internalType": "bytes",
              "name": "signature",
              "type": "bytes"
            },
            {
              "internalType": "bytes",
              "name": "extraData",
              "type": "bytes"
            }
          ],
          "internalType": "struct Lib_BVMCodec.ChainBatchHeader",
          "name": "_batchHeader",
          "type": "tuple"
        }
      ],
      "name": "insideFraudProofWindow",
      "outputs": [
        {
          "internalType": "bool",
          "name": "_inside",
          "type": "bool"
        }
      ],
      "stateMutability": "view",
      "type": "function"
    },
    {
      "inputs": [],
      "name": "libAddressManager",
      "outputs": [
        {
          "internalType": "contract Lib_AddressManager",
          "name": "",
          "type": "address"
        }
      ],
      "stateMutability": "view",
      "type": "function"
    },
    {
      "inputs": [],
      "name": "messenger",
      "outputs": [
        {
          "internalType": "address",
          "name": "",
          "type": "address"
        }
      ],
      "stateMutability": "view",
      "type": "function"
    },
    {
      "inputs": [
        {
          "internalType": "string",
          "name": "_name",
          "type": "string"
        }
      ],
      "name": "resolve",
      "outputs": [
        {
          "internalType": "address",
          "name": "",
          "type": "address"
        }
      ],
      "stateMutability": "view",
      "type": "function"
    },
    {
      "inputs": [
        {
          "internalType": "uint256",
          "name": "_shouldRollBack",
          "type": "uint256"
        },
        {
          "internalType": "uint256",
          "name": "_shouldStartAtElement",
          "type": "uint256"
        },
        {
          "internalType": "bytes",
          "name": "_signature",
          "type": "bytes"
        }
      ],
      "name": "rollBackL2Chain",
      "outputs": [],
      "stateMutability": "nonpayable",
      "type": "function"
    },
    {
      "inputs": [
        {
          "internalType": "bytes32",
          "name": "_element",
          "type": "bytes32"
        },
        {
          "components": [
            {
              "internalType": "uint256",
              "name": "batchIndex",
              "type": "uint256"
            },
            {
              "internalType": "bytes32",
              "name": "batchRoot",
              "type": "bytes32"
            },
            {
              "internalType": "uint256",
              "name": "batchSize",
              "type": "uint256"
            },
            {
              "internalType": "uint256",
              "name": "prevTotalElements",
              "type": "uint256"
            },
            {
              "internalType": "bytes",
              "name": "signature",
              "type": "bytes"
            },
            {
              "internalType": "bytes",
              "name": "extraData",
              "type": "bytes"
            }
          ],
          "internalType": "struct Lib_BVMCodec.ChainBatchHeader",
          "name": "_batchHeader",
          "type": "tuple"
        },
        {
          "components": [
            {
              "internalType": "uint256",
              "name": "index",
              "type": "uint256"
            },
            {
              "internalType": "bytes32[]",
              "name": "siblings",
              "type": "bytes32[]"
            }
          ],
          "internalType": "struct Lib_BVMCodec.ChainInclusionProof",
          "name": "_proof",
          "type": "tuple"
        }
      ],
      "name": "verifyStateCommitment",
      "outputs": [
        {
          "internalType": "bool",
          "name": "",
          "type": "bool"
        }
      ],
      "stateMutability": "view",
      "type": "function"
    }
  ],
  "transactionHash": "0x144f13d8c5b78de1d9235c4e2988542e6f379d64805783cc7d26afc92191cd47",
  "args": [
    "0xe0F937a54074f0F8710f14112C6274a8DAEF97b5",
    "0x93afF64C6756b771498A5b159ecEc6f9448A1c20",
    0,
    12592000
  ],
  "numDeployments": 1,
  "solcInputHash": "63b4f6f6f352226027f19b7b750e3c10",
  "bytecode": "0x60806040523480156200001157600080fd5b5060405162002b8e38038062002b8e833981016040819052620000349162000090565b600080546001600160a01b039586166001600160a01b0319918216179091556001805494909516931692909217909255600291909155600355620000d8565b80516001600160a01b03811681146200008b57600080fd5b919050565b60008060008060808587031215620000a757600080fd5b620000b28562000073565b9350620000c26020860162000073565b6040860151606090960151949790965092505050565b612aa680620000e86000396000f3fe608060405234801561001057600080fd5b50600436106100ea5760003560e01c80637ad168a01161008c578063b768bb1711610066578063b768bb17146101f1578063c17b291b14610204578063cfdf677e1461020d578063e561dddc1461021557600080fd5b80637ad168a0146101bd57806381eb62ef146101c557806389a1d980146101ce57600080fd5b80633cb747bf116100c85780633cb747bf14610161578063461a4478146101815780635b4d90e2146101945780637aa63a86146101a757600080fd5b80630bf3b5f2146100ef5780632169f79f14610104578063299ca47814610117575b600080fd5b6101026100fd366004612271565b61021d565b005b610102610112366004612350565b6103fc565b6000546101379073ffffffffffffffffffffffffffffffffffffffff1681565b60405173ffffffffffffffffffffffffffffffffffffffff90911681526020015b60405180910390f35b6001546101379073ffffffffffffffffffffffffffffffffffffffff1681565b61013761018f3660046123b3565b610807565b6101026101a236600461249b565b6108b4565b6101af610a70565b604051908152602001610158565b6101af610a89565b6101af60035481565b6101e16101dc36600461249b565b610aa2565b6040519015158152602001610158565b6101e16101ff3660046124d0565b610b4a565b6101af60025481565b610137610c14565b6101af610c3c565b610225610a70565b821461029e5760405162461bcd60e51b815260206004820152603d60248201527f41637475616c20626174636820737461727420696e64657820646f6573206e6f60448201527f74206d6174636820657870656374656420737461727420696e6465782e00000060648201526084015b60405180910390fd5b6102dc6040518060400160405280600b81526020017f426f6e644d616e61676572000000000000000000000000000000000000000000815250610807565b6040517f02ad4d2a00000000000000000000000000000000000000000000000000000000815233600482015273ffffffffffffffffffffffffffffffffffffffff91909116906302ad4d2a9060240160206040518083038186803b15801561034357600080fd5b505afa158015610357573d6000803e3d6000fd5b505050506040513d601f19601f8201168201806040525081019061037b919061258d565b6103ed5760405162461bcd60e51b815260206004820152602f60248201527f50726f706f73657220646f6573206e6f74206861766520656e6f75676820636f60448201527f6c6c61746572616c20706f7374656400000000000000000000000000000000006064820152608401610295565b6103f78382610cc3565b505050565b610404610a70565b82146104785760405162461bcd60e51b815260206004820152603d60248201527f41637475616c20626174636820737461727420696e64657820646f6573206e6f60448201527f74206d6174636820657870656374656420737461727420696e6465782e0000006064820152608401610295565b6104b66040518060400160405280600b81526020017f426f6e644d616e61676572000000000000000000000000000000000000000000815250610807565b6040517f02ad4d2a00000000000000000000000000000000000000000000000000000000815233600482015273ffffffffffffffffffffffffffffffffffffffff91909116906302ad4d2a9060240160206040518083038186803b15801561051d57600080fd5b505afa158015610531573d6000803e3d6000fd5b505050506040513d601f19601f82011682018060405250810190610555919061258d565b6105c75760405162461bcd60e51b815260206004820152602f60248201527f50726f706f73657220646f6573206e6f74206861766520656e6f75676820636f60448201527f6c6c61746572616c20706f7374656400000000000000000000000000000000006064820152608401610295565b600083511161063e5760405162461bcd60e51b815260206004820152602360248201527f43616e6e6f74207375626d697420616e20656d7074792073746174652062617460448201527f63682e00000000000000000000000000000000000000000000000000000000006064820152608401610295565b61067c6040518060400160405280601981526020017f43616e6f6e6963616c5472616e73616374696f6e436861696e00000000000000815250610807565b73ffffffffffffffffffffffffffffffffffffffff16637aa63a866040518163ffffffff1660e01b815260040160206040518083038186803b1580156106c157600080fd5b505afa1580156106d5573d6000803e3d6000fd5b505050506040513d601f19601f820116820180604052508101906106f991906125af565b8351610703610a70565b61070d91906125f7565b11156107a75760405162461bcd60e51b815260206004820152604960248201527f4e756d626572206f6620737461746520726f6f74732063616e6e6f742065786360448201527f65656420746865206e756d626572206f662063616e6f6e6963616c207472616e60648201527f73616374696f6e732e0000000000000000000000000000000000000000000000608482015260a401610295565b6107b2838383610ec2565b6107fd838242336040516020016107e992919091825273ffffffffffffffffffffffffffffffffffffffff16602082015260400190565b604051602081830303815290604052611000565b6103f783836112b0565b600080546040517fbf40fac100000000000000000000000000000000000000000000000000000000815273ffffffffffffffffffffffffffffffffffffffff9091169063bf40fac19061085e90859060040161265c565b60206040518083038186803b15801561087657600080fd5b505afa15801561088a573d6000803e3d6000fd5b505050506040513d601f19601f820116820180604052508101906108ae9190612691565b92915050565b6108f26040518060400160405280601181526020017f42564d5f46726175645665726966696572000000000000000000000000000000815250610807565b73ffffffffffffffffffffffffffffffffffffffff163373ffffffffffffffffffffffffffffffffffffffff16146109925760405162461bcd60e51b815260206004820152603b60248201527f537461746520626174636865732063616e206f6e6c792062652064656c65746560448201527f64206279207468652042564d5f467261756456657269666965722e00000000006064820152608401610295565b61099b816114c7565b6109e75760405162461bcd60e51b815260206004820152601560248201527f496e76616c6964206261746368206865616465722e00000000000000000000006044820152606401610295565b6109f081610aa2565b610a64576040805162461bcd60e51b81526020600482015260248101919091527f537461746520626174636865732063616e206f6e6c792062652064656c65746560448201527f642077697468696e207468652066726175642070726f6f662077696e646f772e6064820152608401610295565b610a6d81611589565b50565b600080610a7b6117ba565b5064ffffffffff1692915050565b600080610a946117ba565b64ffffffffff169392505050565b6000808260a00151806020019051810190610abd91906126ae565b50905080610b335760405162461bcd60e51b815260206004820152602560248201527f4261746368206865616465722074696d657374616d702063616e6e6f7420626560448201527f207a65726f0000000000000000000000000000000000000000000000000000006064820152608401610295565b4260025482610b4291906125f7565b119392505050565b6000610b55836114c7565b610ba15760405162461bcd60e51b815260206004820152601560248201527f496e76616c6964206261746368206865616465722e00000000000000000000006044820152606401610295565b610bbe83602001518584600001518560200151876040015161185e565b610c0a5760405162461bcd60e51b815260206004820152601860248201527f496e76616c696420696e636c7573696f6e2070726f6f662e00000000000000006044820152606401610295565b5060019392505050565b6000610c37604051806060016040528060218152602001612a5060219139610807565b905090565b6000610c46610c14565b73ffffffffffffffffffffffffffffffffffffffff16631f7b6d326040518163ffffffff1660e01b815260040160206040518083038186803b158015610c8b57600080fd5b505afa158015610c9f573d6000803e3d6000fd5b505050506040513d601f19601f82011682018060405250810190610c3791906125af565b610d016040518060400160405280601781526020017f50726f78795f5f5453535f47726f75704d616e61676572000000000000000000815250610807565b73ffffffffffffffffffffffffffffffffffffffff16633231a7f083604051602001610d2f91815260200190565b60405160208183030381529060405280519060200120836040518363ffffffff1660e01b8152600401610d639291906126de565b602060405180830381600087803b158015610d7d57600080fd5b505af1158015610d91573d6000803e3d6000fd5b505050506040513d601f19601f82011682018060405250810190610db5919061258d565b610e015760405162461bcd60e51b815260206004820152601760248201527f766572696679207369676e6174757265206661696c65640000000000000000006044820152606401610295565b600082604051602401610e1691815260200190565b60408051601f198184030181529190526020810180517bffffffffffffffffffffffffffffffffffffffffffffffffffffffff167ff523f40d000000000000000000000000000000000000000000000000000000001790529050610e9273deaddeaddeaddeaddeaddeaddeaddeaddead2222621e848083611acc565b60405183907f8ef5d07412def056f6bfc680f359c8a0370cfacb2becaf67d01e2e372e08964a90600090a2505050565b610f006040518060400160405280601781526020017f50726f78795f5f5453535f47726f75704d616e61676572000000000000000000815250610807565b73ffffffffffffffffffffffffffffffffffffffff16633231a7f08484604051602001610f2e9291906126f7565b60405160208183030381529060405280519060200120836040518363ffffffff1660e01b8152600401610f629291906126de565b602060405180830381600087803b158015610f7c57600080fd5b505af1158015610f90573d6000803e3d6000fd5b505050506040513d601f19601f82011682018060405250810190610fb4919061258d565b6103f75760405162461bcd60e51b815260206004820152601760248201527f766572696679207369676e6174757265206661696c65640000000000000000006044820152606401610295565b60006110406040518060400160405280600c81526020017f42564d5f50726f706f7365720000000000000000000000000000000000000000815250610807565b905060008061104d6117ba565b90925090503373ffffffffffffffffffffffffffffffffffffffff84161415611077575042611126565b426003548264ffffffffff1661108d91906125f7565b106111265760405162461bcd60e51b815260206004820152604360248201527f43616e6e6f74207075626c69736820737461746520726f6f747320776974686960448201527f6e207468652073657175656e636572207075626c69636174696f6e2077696e6460648201527f6f772e0000000000000000000000000000000000000000000000000000000000608482015260a401610295565b60006040518060c0016040528061113b610c3c565b815260200161114989611b5d565b8152602001885181526020018464ffffffffff16815260200187815260200186815250905080600001517f9cf3ad24eae3fd6d461e2f566b35b95b6d671871d9fcb45f8ac8030e4a8d21b382602001518360400151846060015185608001518660a001516040516111be95949392919061273f565b60405180910390a26111ce610c14565b73ffffffffffffffffffffffffffffffffffffffff16632015276c6111f283612041565b6112178460400151856060015161120991906125f7565b602887811b91909117901b90565b6040517fffffffff0000000000000000000000000000000000000000000000000000000060e085901b16815260048101929092527fffffffffffffffffffffffffffffffffffffffffffffffffffffff0000000000166024820152604401600060405180830381600087803b15801561128f57600080fd5b505af11580156112a3573d6000803e3d6000fd5b5050505050505050505050565b60006112f06040518060400160405280601781526020017f50726f78795f5f5453535f47726f75704d616e61676572000000000000000000815250610807565b73ffffffffffffffffffffffffffffffffffffffff16632cd00d536040518163ffffffff1660e01b8152600401600060405180830381600087803b15801561133757600080fd5b505af115801561134b573d6000803e3d6000fd5b505050506040513d6000823e601f3d908101601f191682016040526113739190810190612782565b905060008151116113c65760405162461bcd60e51b815260206004820152601860248201527f67657420747373206d656d6265727320696e206572726f7200000000000000006044820152606401610295565b82516040516000917f0fae75d900000000000000000000000000000000000000000000000000000000916114029186914290879060240161286d565b60408051601f198184030181529190526020810180517bffffffffffffffffffffffffffffffffffffffffffffffffffffffff167fffffffff00000000000000000000000000000000000000000000000000000000909316929092179091529050611485734200000000000000000000000000000000000020621e848083611acc565b42837ff533ef50019763ee9d95ad46e28350b533c11edd472ae7be93e8fae83c1b6d998651856040516114b992919061289c565b60405180910390a350505050565b60006114d1610c14565b82516040517f9507d39a00000000000000000000000000000000000000000000000000000000815273ffffffffffffffffffffffffffffffffffffffff9290921691639507d39a916115299160040190815260200190565b60206040518083038186803b15801561154157600080fd5b505afa158015611555573d6000803e3d6000fd5b505050506040513d601f19601f8201168201806040525081019061157991906125af565b61158283612041565b1492915050565b611591610c14565b73ffffffffffffffffffffffffffffffffffffffff16631f7b6d326040518163ffffffff1660e01b815260040160206040518083038186803b1580156115d657600080fd5b505afa1580156115ea573d6000803e3d6000fd5b505050506040513d601f19601f8201168201806040525081019061160e91906125af565b81511061165d5760405162461bcd60e51b815260206004820152601460248201527f496e76616c696420626174636820696e6465782e0000000000000000000000006044820152606401610295565b611666816114c7565b6116b25760405162461bcd60e51b815260206004820152601560248201527f496e76616c6964206261746368206865616465722e00000000000000000000006044820152606401610295565b6116ba610c14565b8151606083015173ffffffffffffffffffffffffffffffffffffffff929092169163167fd681919060281b6040517fffffffff0000000000000000000000000000000000000000000000000000000060e085901b16815260048101929092527fffffffffffffffffffffffffffffffffffffffffffffffffffffff0000000000166024820152604401600060405180830381600087803b15801561175d57600080fd5b505af1158015611771573d6000803e3d6000fd5b5050505080600001517f8747b69ce8fdb31c3b9b0a67bd8049ad8c1a69ea417b69b12174068abd9cbd6482602001516040516117af91815260200190565b60405180910390a250565b60008060006117c7610c14565b73ffffffffffffffffffffffffffffffffffffffff1663ccf8f9696040518163ffffffff1660e01b815260040160206040518083038186803b15801561180c57600080fd5b505afa158015611820573d6000803e3d6000fd5b505050506040513d601f19601f8201168201806040525081019061184491906128b5565b64ffffffffff602882901c169460509190911c9350915050565b60008082116118d55760405162461bcd60e51b815260206004820152603760248201527f4c69625f4d65726b6c65547265653a20546f74616c206c6561766573206d757360448201527f742062652067726561746572207468616e207a65726f2e0000000000000000006064820152608401610295565b8184106119495760405162461bcd60e51b8152602060048201526024808201527f4c69625f4d65726b6c65547265653a20496e646578206f7574206f6620626f7560448201527f6e64732e000000000000000000000000000000000000000000000000000000006064820152608401610295565b6119528261208a565b8351146119ed5760405162461bcd60e51b815260206004820152604d60248201527f4c69625f4d65726b6c65547265653a20546f74616c207369626c696e6773206460448201527f6f6573206e6f7420636f72726563746c7920636f72726573706f6e6420746f2060648201527f746f74616c206c65617665732e00000000000000000000000000000000000000608482015260a401610295565b8460005b8451811015611abf578560011660011415611a5857848181518110611a1857611a186128f7565b602002602001015182604051602001611a3b929190918252602082015260400190565b604051602081830303815290604052805190602001209150611aa6565b81858281518110611a6b57611a6b6128f7565b6020026020010151604051602001611a8d929190918252602082015260400190565b6040516020818303038152906040528051906020012091505b60019590951c9480611ab781612926565b9150506119f1565b5090951495945050505050565b6001546040517f3dbb202b00000000000000000000000000000000000000000000000000000000815273ffffffffffffffffffffffffffffffffffffffff90911690633dbb202b90611b269086908590879060040161295f565b600060405180830381600087803b158015611b4057600080fd5b505af1158015611b54573d6000803e3d6000fd5b50505050505050565b600080825111611bd55760405162461bcd60e51b815260206004820152603460248201527f4c69625f4d65726b6c65547265653a204d7573742070726f766964652061742060448201527f6c65617374206f6e65206c65616620686173682e0000000000000000000000006064820152608401610295565b815160011415611c015781600081518110611bf257611bf26128f7565b60200260200101519050919050565b60408051610200810182527f290decd9548b62a8d60345a988386fc84ba6bc95484008f6362f93160ef3e56381527f633dc4d7da7256660a892f8f1604a44b5432649cc8ec5cb3ced4c4e6ac94dd1d60208201527f890740a8eb06ce9be422cb8da5cdafc2b58c0a5e24036c578de2a433c828ff7d818301527f3b8ec09e026fdc305365dfc94e189a81b38c7597b3d941c279f042e8206e0bd86060808301919091527fecd50eee38e386bd62be9bedb990706951b65fe053bd9d8a521af753d139e2da60808301527fdefff6d330bb5403f63b14f33b578274160de3a50df4efecf0e0db73bcdd3da560a08301527f617bdd11f7c0a11f49db22f629387a12da7596f9d1704d7465177c63d88ec7d760c08301527f292c23a9aa1d8bea7e2435e555a4a60e379a5a35f3f452bae60121073fb6eead60e08301527fe1cea92ed99acdcb045a6726b2f87107e8a61620a232cf4d7d5b5766b3952e106101008301527f7ad66c0a68c72cb89e4fb4303841966e4062a76ab97451e3b9fb526a5ceb7f826101208301527fe026cc5a4aed3c22a58cbd3d2ac754c9352c5436f638042dca99034e836365166101408301527f3d04cffd8b46a874edf5cfae63077de85f849a660426697b06a829c70dd1409c6101608301527fad676aa337a485e4728a0b240d92b3ef7b3c372d06d189322bfd5f61f1e7203e6101808301527fa2fca4a49658f9fab7aa63289c91b7c7b6c832a6d0e69334ff5b0a3483d09dab6101a08301527f4ebfd9cd7bca2505f7bef59cc1c12ecc708fff26ae4af19abe852afe9e20c8626101c08301527f2def10d13dd169f550f578bda343d9717a138562e0093b380a1120789d53cf106101e083015282518381529081018352909160009190602082018180368337505085519192506000918291508180805b600184111561201757611eb26002856129d3565b9150611ebf6002856129e7565b600114905060005b82811015611f6b578a611edb8260026129fb565b81518110611eeb57611eeb6128f7565b602002602001015196508a816002611f0391906129fb565b611f0e9060016125f7565b81518110611f1e57611f1e6128f7565b6020026020010151955086602089015285604089015287805190602001208b8281518110611f4e57611f4e6128f7565b602090810291909101015280611f6381612926565b915050611ec7565b508015611fe75789611f7e600186612a38565b81518110611f8e57611f8e6128f7565b60200260200101519550878360108110611faa57611faa6128f7565b602002015160001b945085602088015284604088015286805190602001208a8381518110611fda57611fda6128f7565b6020026020010181815250505b80611ff3576000611ff6565b60015b6120039060ff16836125f7565b93508261200f81612926565b935050611e9e565b8960008151811061202a5761202a6128f7565b602002602001015198505050505050505050919050565b6020808201516040808401516060850151608086015160a0870151935160009661206d9695910161273f565b604051602081830303815290604052805190602001209050919050565b60008082116121015760405162461bcd60e51b815260206004820152603060248201527f4c69625f4d65726b6c65547265653a2043616e6e6f7420636f6d70757465206360448201527f65696c286c6f675f3229206f6620302e000000000000000000000000000000006064820152608401610295565b816001141561211257506000919050565b81600060805b60018110612150578061212e600180831b612a38565b901b8316156121485761214181836125f7565b92811c9291505b60011c612118565b506001811b8414612169576121666001826125f7565b90505b9392505050565b7f4e487b7100000000000000000000000000000000000000000000000000000000600052604160045260246000fd5b60405160c0810167ffffffffffffffff811182821017156121c2576121c2612170565b60405290565b604051601f8201601f1916810167ffffffffffffffff811182821017156121f1576121f1612170565b604052919050565b600067ffffffffffffffff83111561221357612213612170565b6122266020601f19601f860116016121c8565b905082815283838301111561223a57600080fd5b828260208301376000602084830101529392505050565b600082601f83011261226257600080fd5b612169838335602085016121f9565b60008060006060848603121561228657600080fd5b8335925060208401359150604084013567ffffffffffffffff8111156122ab57600080fd5b6122b786828701612251565b9150509250925092565b600067ffffffffffffffff8211156122db576122db612170565b5060051b60200190565b600082601f8301126122f657600080fd5b8135602061230b612306836122c1565b6121c8565b82815260059290921b8401810191818101908684111561232a57600080fd5b8286015b84811015612345578035835291830191830161232e565b509695505050505050565b60008060006060848603121561236557600080fd5b833567ffffffffffffffff8082111561237d57600080fd5b612389878388016122e5565b94506020860135935060408601359150808211156123a657600080fd5b506122b786828701612251565b6000602082840312156123c557600080fd5b813567ffffffffffffffff8111156123dc57600080fd5b8201601f810184136123ed57600080fd5b6123fc848235602084016121f9565b949350505050565b600060c0828403121561241657600080fd5b61241e61219f565b905081358152602082013560208201526040820135604082015260608201356060820152608082013567ffffffffffffffff8082111561245d57600080fd5b61246985838601612251565b608084015260a084013591508082111561248257600080fd5b5061248f84828501612251565b60a08301525092915050565b6000602082840312156124ad57600080fd5b813567ffffffffffffffff8111156124c457600080fd5b6123fc84828501612404565b6000806000606084860312156124e557600080fd5b83359250602084013567ffffffffffffffff8082111561250457600080fd5b61251087838801612404565b9350604086013591508082111561252657600080fd5b908501906040828803121561253a57600080fd5b60405160408101818110838211171561255557612555612170565b6040528235815260208301358281111561256e57600080fd5b61257a898286016122e5565b6020830152508093505050509250925092565b60006020828403121561259f57600080fd5b8151801515811461216957600080fd5b6000602082840312156125c157600080fd5b5051919050565b7f4e487b7100000000000000000000000000000000000000000000000000000000600052601160045260246000fd5b6000821982111561260a5761260a6125c8565b500190565b6000815180845260005b8181101561263557602081850181015186830182015201612619565b81811115612647576000602083870101525b50601f01601f19169290920160200192915050565b602081526000612169602083018461260f565b73ffffffffffffffffffffffffffffffffffffffff81168114610a6d57600080fd5b6000602082840312156126a357600080fd5b81516121698161266f565b600080604083850312156126c157600080fd5b8251915060208301516126d38161266f565b809150509250929050565b8281526040602082015260006123fc604083018461260f565b604080825283519082018190526000906020906060840190828701845b8281101561273057815184529284019290840190600101612714565b50505092019290925292915050565b85815284602082015283604082015260a06060820152600061276460a083018561260f565b8281036080840152612776818561260f565b98975050505050505050565b6000602080838503121561279557600080fd5b825167ffffffffffffffff8111156127ac57600080fd5b8301601f810185136127bd57600080fd5b80516127cb612306826122c1565b81815260059190911b820183019083810190878311156127ea57600080fd5b928401925b828410156128115783516128028161266f565b825292840192908401906127ef565b979650505050505050565b600081518084526020808501945080840160005b8381101561286257815173ffffffffffffffffffffffffffffffffffffffff1687529582019590820190600101612830565b509495945050505050565b848152836020820152826040820152608060608201526000612892608083018461281c565b9695505050505050565b8281526040602082015260006123fc604083018461281c565b6000602082840312156128c757600080fd5b81517fffffffffffffffffffffffffffffffffffffffffffffffffffffff00000000008116811461216957600080fd5b7f4e487b7100000000000000000000000000000000000000000000000000000000600052603260045260246000fd5b60007fffffffffffffffffffffffffffffffffffffffffffffffffffffffffffffffff821415612958576129586125c8565b5060010190565b73ffffffffffffffffffffffffffffffffffffffff8416815260606020820152600061298e606083018561260f565b905063ffffffff83166040830152949350505050565b7f4e487b7100000000000000000000000000000000000000000000000000000000600052601260045260246000fd5b6000826129e2576129e26129a4565b500490565b6000826129f6576129f66129a4565b500690565b6000817fffffffffffffffffffffffffffffffffffffffffffffffffffffffffffffffff0483118215151615612a3357612a336125c8565b500290565b600082821015612a4a57612a4a6125c8565b50039056fe436861696e53746f72616765436f6e7461696e65722d5343432d62617463686573a2646970667358221220e865968202dc6bd5d0f683522c168d34c8d0795574fb9dc485e02ac66ae7a17e64736f6c63430008090033",
  "devdoc": {
    "details": "The State Commitment Chain (SCC) contract contains a list of proposed state roots which Proposers assert to be a result of each transaction in the Canonical Transaction Chain (CTC). Elements here have a 1:1 correspondence with transactions in the CTC, and should be the unique state root calculated off-chain by applying the canonical transactions one by one.",
    "kind": "dev",
    "methods": {
      "appendStateBatch(bytes32[],uint256,bytes)": {
        "params": {
          "_batch": "Batch of state roots.",
          "_shouldStartAtElement": "Index of the element at which this batch should start."
        }
      },
      "batches()": {
        "returns": {
          "_0": "Reference to the batch storage container."
        }
      },
      "constructor": {
        "params": {
          "_libAddressManager": "Address of the Address Manager."
        }
      },
      "deleteStateBatch((uint256,bytes32,uint256,uint256,bytes,bytes))": {
        "params": {
          "_batchHeader": "Header of the batch to start deleting from."
        }
      },
      "getLastSequencerTimestamp()": {
        "returns": {
          "_lastSequencerTimestamp": "Last sequencer batch timestamp."
        }
      },
      "getTotalBatches()": {
        "returns": {
          "_totalBatches": "Total submitted batches."
        }
      },
      "getTotalElements()": {
        "returns": {
          "_totalElements": "Total submitted elements."
        }
      },
      "insideFraudProofWindow((uint256,bytes32,uint256,uint256,bytes,bytes))": {
        "params": {
          "_batchHeader": "Header of the batch to check."
        },
        "returns": {
          "_inside": "Whether or not the batch is inside the fraud proof window."
        }
      },
      "resolve(string)": {
        "params": {
          "_name": "Name to resolve an address for."
        },
        "returns": {
          "_0": "Address associated with the given name."
        }
      },
      "rollBackL2Chain(uint256,uint256,bytes)": {
        "params": {
          "_shouldRollBack": "roll back to should start .",
          "_shouldStartAtElement": "Index of the element at which this batch should start",
          "_signature": "signature of rollback message"
        }
      },
      "verifyStateCommitment(bytes32,(uint256,bytes32,uint256,uint256,bytes,bytes),(uint256,bytes32[]))": {
        "params": {
          "_batchHeader": "Header of the batch in which the element was included.",
          "_element": "Hash of the element to verify a proof for.",
          "_proof": "Merkle inclusion proof for the element."
        }
      }
    },
    "title": "StateCommitmentChain",
    "version": 1
  },
  "userdoc": {
    "kind": "user",
    "methods": {
      "appendStateBatch(bytes32[],uint256,bytes)": {
        "notice": "Appends a batch of state roots to the chain."
      },
      "batches()": {
        "notice": "Accesses the batch storage container."
      },
      "deleteStateBatch((uint256,bytes32,uint256,uint256,bytes,bytes))": {
        "notice": "Deletes all state roots after (and including) a given batch."
      },
      "getLastSequencerTimestamp()": {
        "notice": "Retrieves the timestamp of the last batch submitted by the sequencer."
      },
      "getTotalBatches()": {
        "notice": "Retrieves the total number of batches submitted."
      },
      "getTotalElements()": {
        "notice": "Retrieves the total number of elements submitted."
      },
      "insideFraudProofWindow((uint256,bytes32,uint256,uint256,bytes,bytes))": {
        "notice": "Checks whether a given batch is still inside its fraud proof window."
      },
      "resolve(string)": {
        "notice": "Resolves the address associated with a given name."
      },
      "rollBackL2Chain(uint256,uint256,bytes)": {
        "notice": "Emit event to notify sequencers to roll back."
      },
      "verifyStateCommitment(bytes32,(uint256,bytes32,uint256,uint256,bytes,bytes),(uint256,bytes32[]))": {
        "notice": "Verifies a batch inclusion proof."
      }
    },
    "version": 1
  },
  "storageLayout": {
    "storage": [
      {
        "astId": 17983,
        "contract": "contracts/L1/rollup/StateCommitmentChain.sol:StateCommitmentChain",
        "label": "libAddressManager",
        "offset": 0,
        "slot": "0",
        "type": "t_contract(Lib_AddressManager)17975"
      },
      {
        "astId": 13122,
        "contract": "contracts/L1/rollup/StateCommitmentChain.sol:StateCommitmentChain",
        "label": "messenger",
        "offset": 0,
        "slot": "1",
        "type": "t_address"
      },
      {
        "astId": 7021,
        "contract": "contracts/L1/rollup/StateCommitmentChain.sol:StateCommitmentChain",
        "label": "FRAUD_PROOF_WINDOW",
        "offset": 0,
        "slot": "2",
        "type": "t_uint256"
      },
      {
        "astId": 7023,
        "contract": "contracts/L1/rollup/StateCommitmentChain.sol:StateCommitmentChain",
        "label": "SEQUENCER_PUBLISH_WINDOW",
        "offset": 0,
        "slot": "3",
        "type": "t_uint256"
      }
    ],
    "types": {
      "t_address": {
        "encoding": "inplace",
        "label": "address",
        "numberOfBytes": "20"
      },
      "t_contract(Lib_AddressManager)17975": {
        "encoding": "inplace",
        "label": "contract Lib_AddressManager",
        "numberOfBytes": "20"
      },
      "t_uint256": {
        "encoding": "inplace",
        "label": "uint256",
        "numberOfBytes": "32"
      }
    }
  }
}