{
  "address": "0xc8666f019A4F9aFC36c3c69F610A8328C952c1B5",
  "abi": [
    {
      "anonymous": false,
      "inputs": [
        {
          "indexed": false,
          "internalType": "uint8",
          "name": "version",
          "type": "uint8"
        }
      ],
      "name": "Initialized",
      "type": "event"
    },
    {
      "anonymous": false,
      "inputs": [
        {
          "indexed": true,
          "internalType": "address",
          "name": "previousOwner",
          "type": "address"
        },
        {
          "indexed": true,
          "internalType": "address",
          "name": "newOwner",
          "type": "address"
        }
      ],
      "name": "OwnershipTransferred",
      "type": "event"
    },
    {
      "anonymous": false,
      "inputs": [
        {
          "indexed": false,
          "internalType": "uint256",
          "name": "_roundId",
          "type": "uint256"
        },
        {
          "indexed": false,
          "internalType": "bytes",
          "name": "_groupKey",
          "type": "bytes"
        },
        {
          "indexed": false,
          "internalType": "bytes[]",
          "name": "activeTssMembers",
          "type": "bytes[]"
        }
      ],
      "name": "tssActiveMemberAppended",
      "type": "event"
    },
    {
      "anonymous": false,
      "inputs": [
        {
          "indexed": false,
          "internalType": "uint256",
          "name": "_roundId",
          "type": "uint256"
        },
        {
          "indexed": false,
          "internalType": "uint256",
          "name": "_threshold",
          "type": "uint256"
        },
        {
          "indexed": false,
          "internalType": "bytes[]",
          "name": "_inActiveTssMembers",
          "type": "bytes[]"
        }
      ],
      "name": "tssGroupMemberAppend",
      "type": "event"
    },
    {
      "inputs": [],
      "name": "getTssGroupInfo",
      "outputs": [
        {
          "internalType": "uint256",
          "name": "",
          "type": "uint256"
        },
        {
          "internalType": "uint256",
          "name": "",
          "type": "uint256"
        },
        {
          "internalType": "bytes",
          "name": "",
          "type": "bytes"
        },
        {
          "internalType": "bytes[]",
          "name": "",
          "type": "bytes[]"
        }
      ],
      "stateMutability": "view",
      "type": "function"
    },
    {
      "inputs": [],
      "name": "getTssGroupMembers",
      "outputs": [
        {
          "internalType": "bytes[]",
          "name": "",
          "type": "bytes[]"
        }
      ],
      "stateMutability": "view",
      "type": "function"
    },
    {
      "inputs": [],
      "name": "getTssGroupUnJailMembers",
      "outputs": [
        {
          "internalType": "address[]",
          "name": "",
          "type": "address[]"
        }
      ],
      "stateMutability": "nonpayable",
      "type": "function"
    },
    {
      "inputs": [],
      "name": "getTssInactiveGroupInfo",
      "outputs": [
        {
          "internalType": "uint256",
          "name": "",
          "type": "uint256"
        },
        {
          "internalType": "uint256",
          "name": "",
          "type": "uint256"
        },
        {
          "internalType": "bytes[]",
          "name": "",
          "type": "bytes[]"
        }
      ],
      "stateMutability": "view",
      "type": "function"
    },
    {
      "inputs": [
        {
          "internalType": "bytes",
          "name": "_publicKey",
          "type": "bytes"
        }
      ],
      "name": "getTssMember",
      "outputs": [
        {
          "components": [
            {
              "internalType": "bytes",
              "name": "publicKey",
              "type": "bytes"
            },
            {
              "internalType": "address",
              "name": "nodeAddress",
              "type": "address"
            },
            {
              "internalType": "enum ITssGroupManager.MemberStatus",
              "name": "status",
              "type": "uint8"
            }
          ],
          "internalType": "struct ITssGroupManager.TssMember",
          "name": "",
          "type": "tuple"
        }
      ],
      "stateMutability": "view",
      "type": "function"
    },
    {
      "inputs": [],
      "name": "inActiveIsEmpty",
      "outputs": [
        {
          "internalType": "bool",
          "name": "",
          "type": "bool"
        }
      ],
      "stateMutability": "view",
      "type": "function"
    },
    {
      "inputs": [],
      "name": "initialize",
      "outputs": [],
      "stateMutability": "nonpayable",
      "type": "function"
    },
    {
      "inputs": [
        {
          "internalType": "bytes",
          "name": "byteListA",
          "type": "bytes"
        },
        {
          "internalType": "bytes",
          "name": "byteListB",
          "type": "bytes"
        }
      ],
      "name": "isEqual",
      "outputs": [
        {
          "internalType": "bool",
          "name": "",
          "type": "bool"
        }
      ],
      "stateMutability": "pure",
      "type": "function"
    },
    {
      "inputs": [
        {
          "internalType": "bytes",
          "name": "",
          "type": "bytes"
        }
      ],
      "name": "isInActiveMember",
      "outputs": [
        {
          "internalType": "bool",
          "name": "",
          "type": "bool"
        }
      ],
      "stateMutability": "view",
      "type": "function"
    },
    {
      "inputs": [
        {
          "internalType": "bytes",
          "name": "_publicKey",
          "type": "bytes"
        }
      ],
      "name": "memberExistActive",
      "outputs": [
        {
          "internalType": "bool",
          "name": "",
          "type": "bool"
        }
      ],
      "stateMutability": "view",
      "type": "function"
    },
    {
      "inputs": [
        {
          "internalType": "bytes",
          "name": "_publicKey",
          "type": "bytes"
        }
      ],
      "name": "memberExistInActive",
      "outputs": [
        {
          "internalType": "bool",
          "name": "",
          "type": "bool"
        }
      ],
      "stateMutability": "view",
      "type": "function"
    },
    {
      "inputs": [
        {
          "internalType": "bytes",
          "name": "_publicKey",
          "type": "bytes"
        }
      ],
      "name": "memberJail",
      "outputs": [],
      "stateMutability": "nonpayable",
      "type": "function"
    },
    {
      "inputs": [
        {
          "internalType": "bytes",
          "name": "_publicKey",
          "type": "bytes"
        }
      ],
      "name": "memberUnJail",
      "outputs": [],
      "stateMutability": "nonpayable",
      "type": "function"
    },
    {
      "inputs": [],
      "name": "owner",
      "outputs": [
        {
          "internalType": "address",
          "name": "",
          "type": "address"
        }
      ],
      "stateMutability": "view",
      "type": "function"
    },
    {
      "inputs": [
        {
          "internalType": "bytes",
          "name": "publicKey",
          "type": "bytes"
        }
      ],
      "name": "publicKeyToAddress",
      "outputs": [
        {
          "internalType": "address",
          "name": "",
          "type": "address"
        }
      ],
      "stateMutability": "pure",
      "type": "function"
    },
    {
      "inputs": [
        {
          "internalType": "bytes32",
          "name": "_ethSignedMessageHash",
          "type": "bytes32"
        },
        {
          "internalType": "bytes",
          "name": "_sig",
          "type": "bytes"
        }
      ],
      "name": "recover",
      "outputs": [
        {
          "internalType": "address",
          "name": "",
          "type": "address"
        }
      ],
      "stateMutability": "pure",
      "type": "function"
    },
    {
      "inputs": [
        {
          "internalType": "bytes",
          "name": "_publicKey",
          "type": "bytes"
        }
      ],
      "name": "removeMember",
      "outputs": [],
      "stateMutability": "nonpayable",
      "type": "function"
    },
    {
      "inputs": [],
      "name": "renounceOwnership",
      "outputs": [],
      "stateMutability": "nonpayable",
      "type": "function"
    },
    {
      "inputs": [
        {
          "internalType": "bytes",
          "name": "_publicKey",
          "type": "bytes"
        },
        {
          "internalType": "bytes",
          "name": "_groupPublicKey",
          "type": "bytes"
        }
      ],
      "name": "setGroupPublicKey",
      "outputs": [],
      "stateMutability": "nonpayable",
      "type": "function"
    },
    {
      "inputs": [
        {
          "internalType": "address",
          "name": "_address",
          "type": "address"
        }
      ],
      "name": "setStakingSlash",
      "outputs": [],
      "stateMutability": "nonpayable",
      "type": "function"
    },
    {
      "inputs": [
        {
          "internalType": "uint256",
          "name": "_threshold",
          "type": "uint256"
        },
        {
          "internalType": "bytes[]",
          "name": "_batchPublicKey",
          "type": "bytes[]"
        }
      ],
      "name": "setTssGroupMember",
      "outputs": [],
      "stateMutability": "nonpayable",
      "type": "function"
    },
    {
      "inputs": [],
      "name": "stakingSlash",
      "outputs": [
        {
          "internalType": "address",
          "name": "",
          "type": "address"
        }
      ],
      "stateMutability": "view",
      "type": "function"
    },
    {
      "inputs": [
        {
          "internalType": "address",
          "name": "newOwner",
          "type": "address"
        }
      ],
      "name": "transferOwnership",
      "outputs": [],
      "stateMutability": "nonpayable",
      "type": "function"
    },
    {
      "inputs": [
        {
          "internalType": "bytes",
          "name": "",
          "type": "bytes"
        }
      ],
      "name": "tssActiveMemberInfo",
      "outputs": [
        {
          "internalType": "bytes",
          "name": "publicKey",
          "type": "bytes"
        },
        {
          "internalType": "address",
          "name": "nodeAddress",
          "type": "address"
        },
        {
          "internalType": "enum ITssGroupManager.MemberStatus",
          "name": "status",
          "type": "uint8"
        }
      ],
      "stateMutability": "view",
      "type": "function"
    },
    {
      "inputs": [
        {
          "internalType": "bytes32",
          "name": "_message",
          "type": "bytes32"
        },
        {
          "internalType": "bytes",
          "name": "_sig",
          "type": "bytes"
        }
      ],
      "name": "verifySign",
      "outputs": [
        {
          "internalType": "bool",
          "name": "",
          "type": "bool"
        }
      ],
      "stateMutability": "view",
      "type": "function"
    }
  ],
  "transactionHash": "0x7ae6a3eab3179b249dc28dadec2967f0b0e5096f127471f0b87c43f331dc7a7e",
  "args": [],
  "numDeployments": 1,
  "solcInputHash": "76930eb93d7d5ad26b4e45ea562392aa",
  "bytecode": "0x608060405234801561001057600080fd5b50612e74806100206000396000f3fe608060405234801561001057600080fd5b50600436106101a35760003560e01c8063715018a6116100ee578063b3bd9ac411610097578063e46a636811610071578063e46a63681461038f578063f2fde38b146103bd578063fcca5592146103d0578063fd3eb81f146103e857600080fd5b8063b3bd9ac41461033a578063bcbc5fc61461035c578063cf4c8a7b1461036f57600080fd5b80638a51d8b4116100c85780638a51d8b4146102fe5780638da5cb5b1461030757806395f645bc1461032557600080fd5b8063715018a6146102db5780637a952c11146102e35780638129fc1c146102f657600080fd5b8063404a6986116101505780634679b3661161012a5780634679b366146102955780634866e2e0146102a857806354bbb914146102bb57600080fd5b8063404a698614610258578063429ec49c1461026f57806343ae656c1461028257600080fd5b80632cd00d53116101815780632cd00d531461020d5780633231a7f014610222578063343598081461024557600080fd5b806319045a25146101a85780631a47931b146101e5578063254ff981146101fa575b600080fd5b6101bb6101b63660046126e0565b6103fb565b60405173ffffffffffffffffffffffffffffffffffffffff90911681526020015b60405180910390f35b6101f86101f3366004612727565b61047b565b005b6101f86102083660046127f6565b610806565b6102156108df565b6040516101dc9190612833565b6102356102303660046126e0565b610a7a565b60405190151581526020016101dc565b61023561025336600461288d565b610abe565b610260610b80565b6040516101dc939291906129b3565b6101f861027d3660046127f6565b610c6b565b6101bb6102903660046127f6565b610d0a565b6101f86102a336600461288d565b610d69565b6102356102b63660046127f6565b6110c3565b6102ce6102c93660046127f6565b6110ee565b6040516101dc9190612a45565b6101f8611236565b6101f86102f13660046127f6565b61124a565b6101f861140c565b609f5415610235565b60335473ffffffffffffffffffffffffffffffffffffffff166101bb565b61032d611576565b6040516101dc9190612a9d565b61034d6103483660046127f6565b61164f565b6040516101dc93929190612ab7565b61023561036a3660046127f6565b611732565b609d546101bb9073ffffffffffffffffffffffffffffffffffffffff1681565b61023561039d3660046127f6565b805160208183018101805160a48252928201919093012091525460ff1681565b6101f86103cb366004612af5565b611777565b6103d8611811565b6040516101dc9493929190612b2b565b6101f86103f6366004612af5565b611b1d565b60008060008061040a85611b6c565b6040805160008152602081018083528b905260ff8316918101919091526060810184905260808101839052929550909350915060019060a0016020604051602081039080840390855afa158015610465573d6000803e3d6000fd5b5050506020604051035193505050505b92915050565b610483611be0565b60008151116104d95760405162461bcd60e51b815260206004820152601960248201527f6261746368207075626c6963206b657920697320656d7074790000000000000060448201526064015b60405180910390fd5b8051821061054f5760405162461bcd60e51b815260206004820152602360248201527f7468726573686f6c64206d757374206c657373207468616e20747373206d656d60448201527f626572000000000000000000000000000000000000000000000000000000000060648201526084016104d0565b609f54156106aa5760005b609f5481101561069d5760a260a1609f838154811061057b5761057b612b67565b906000526020600020016040516105929190612bea565b9081526040519081900360200181206105aa91612bea565b90815260200160405180910390206000905560a1609f82815481106105d1576105d1612b67565b906000526020600020016040516105e89190612bea565b90815260200160405180910390206000610602919061242d565b60a3609f828154811061061757610617612b67565b9060005260206000200160405161062e9190612bea565b908152604051908190036020019020805460ff19169055609f805460a491908390811061065d5761065d612b67565b906000526020600020016040516106749190612bea565b908152604051908190036020019020805460ff191690558061069581612c8b565b91505061055a565b506106aa609f6000612467565b60005b81518110156107aa57609f8282815181106106ca576106ca612b67565b602090810291909101810151825460018101845560009384529282902081516106fc9491909101929190910190612485565b50600160a483838151811061071357610713612b67565b60200260200101516040516107289190612cc4565b908152602001604051809103902060006101000a81548160ff021916908315150217905550600060a383838151811061076357610763612b67565b60200260200101516040516107789190612cc4565b908152604051908190036020019020805491151560ff19909216919091179055806107a281612c8b565b9150506106ad565b506099829055609a546107be906001612ce0565b609a8190556000609b556040517ffa26843b7ced045dd12994ee0e73c6f0904c3a4608bce58ae304d606035b079e916107fa91859085906129b3565b60405180910390a15050565b609d5473ffffffffffffffffffffffffffffffffffffffff1633146108935760405162461bcd60e51b815260206004820152602560248201527f636f6e74726163742063616c6c206973206e6f74207374616b696e6720736c6160448201527f7368696e6700000000000000000000000000000000000000000000000000000060648201526084016104d0565b600160a0826040516108a59190612cc4565b908152602001604051809103902060010160146101000a81548160ff021916908360018111156108d7576108d76129db565b021790555050565b60606108ed609c6000612509565b60005b609e54811015610a0c57600060a0609e838154811061091157610911612b67565b906000526020600020016040516109289190612bea565b908152602001604051809103902060010160149054906101000a900460ff166001811115610958576109586129db565b14156109fa57609c60a0609e838154811061097557610975612b67565b9060005260206000200160405161098c9190612bea565b9081526040519081900360209081019091206001908101548354918201845560009384529190922090910180547fffffffffffffffffffffffff00000000000000000000000000000000000000001673ffffffffffffffffffffffffffffffffffffffff9092169190911790555b80610a0481612c8b565b9150506108f0565b50609c805480602002602001604051908101604052809291908181526020018280548015610a7057602002820191906000526020600020905b815473ffffffffffffffffffffffffffffffffffffffff168152600190910190602001808311610a45575b5050505050905090565b60985460009073ffffffffffffffffffffffffffffffffffffffff16610aa084846103fb565b73ffffffffffffffffffffffffffffffffffffffff16149392505050565b60008151835114610ad157506000610475565b60005b8351811015610b7657828181518110610aef57610aef612b67565b602001015160f81c60f81b7effffffffffffffffffffffffffffffffffffffffffffffffffffffffffffff1916848281518110610b2e57610b2e612b67565b01602001517fff000000000000000000000000000000000000000000000000000000000000001614610b64576000915050610475565b80610b6e81612c8b565b915050610ad4565b5060019392505050565b6000806060609a54609954609f80805480602002602001604051908101604052809291908181526020016000905b82821015610c5a578382906000526020600020018054610bcd90612b96565b80601f0160208091040260200160405190810160405280929190818152602001828054610bf990612b96565b8015610c465780601f10610c1b57610100808354040283529160200191610c46565b820191906000526020600020905b815481529060010190602001808311610c2957829003601f168201915b505050505081526020019060010190610bae565b505050509050925092509250909192565b609d5473ffffffffffffffffffffffffffffffffffffffff163314610cf85760405162461bcd60e51b815260206004820152602560248201527f636f6e74726163742063616c6c206973206e6f74207374616b696e6720736c6160448201527f7368696e6700000000000000000000000000000000000000000000000000000060648201526084016104d0565b600060a0826040516108a59190612cc4565b60008151604014610d5d5760405162461bcd60e51b815260206004820152601f60248201527f7075626c6963206b6579206c656e677468206d7573742036342062797465730060448201526064016104d0565b50805160209091012090565b60a482604051610d799190612cc4565b9081526040519081900360200190205460ff161515600114610e035760405162461bcd60e51b815260206004820152602860248201527f796f7572207075626c6963206b6579206973206e6f7420696e20496e4163746960448201527f76654d656d62657200000000000000000000000000000000000000000000000060648201526084016104d0565b610e0c82610d0a565b73ffffffffffffffffffffffffffffffffffffffff163373ffffffffffffffffffffffffffffffffffffffff1614610e865760405162461bcd60e51b815260206004820152601460248201527f7075626c6963206b6579206e6f74206d6174636800000000000000000000000060448201526064016104d0565b60a382604051610e969190612cc4565b9081526040519081900360200190205460ff16610ef157600160a383604051610ebf9190612cc4565b908152604051908190036020019020805491151560ff19909216919091179055609b54610eed906001612ce0565b609b555b610fa160a183604051610f049190612cc4565b90815260200160405180910390208054610f1d90612b96565b80601f0160208091040260200160405190810160405280929190818152602001828054610f4990612b96565b8015610f965780601f10610f6b57610100808354040283529160200191610f96565b820191906000526020600020905b815481529060010190602001808311610f7957829003601f168201915b505050505082610abe565b61108d57600160a282604051610fb79190612cc4565b90815260200160405180910390206000828254610fd49190612ce0565b909155505060405160a190610fea908490612cc4565b9081526020016040518091039020805461100390612b96565b15905061105957600160a260a18460405161101e9190612cc4565b90815260405190819003602001812061103691612bea565b908152602001604051809103902060008282546110539190612cf8565b90915550505b8060a18360405161106a9190612cc4565b9081526020016040518091039020908051906020019061108b929190612485565b505b609f5460405160a2906110a1908490612cc4565b90815260200160405180910390205414156110bf576110bf81611c47565b5050565b600060a4826040516110d59190612cc4565b9081526040519081900360200190205460ff1692915050565b61110f60408051606080820183528152600060208201819052909182015290565b60a08260405161111f9190612cc4565b908152602001604051809103902060405180606001604052908160008201805461114890612b96565b80601f016020809104026020016040519081016040528092919081815260200182805461117490612b96565b80156111c15780601f10611196576101008083540402835291602001916111c1565b820191906000526020600020905b8154815290600101906020018083116111a457829003601f168201915b505050918352505060018281015473ffffffffffffffffffffffffffffffffffffffff8116602084015260409092019174010000000000000000000000000000000000000000900460ff169081111561121c5761121c6129db565b600181111561122d5761122d6129db565b90525092915050565b61123e611be0565b61124860006121a6565b565b609d5473ffffffffffffffffffffffffffffffffffffffff1633146112d75760405162461bcd60e51b815260206004820152602560248201527f636f6e74726163742063616c6c206973206e6f74207374616b696e6720736c6160448201527f7368696e6700000000000000000000000000000000000000000000000000000060648201526084016104d0565b60005b609e548110156113b357611393609e82815481106112fa576112fa612b67565b90600052602060002001805461130f90612b96565b80601f016020809104026020016040519081016040528092919081815260200182805461133b90612b96565b80156113885780601f1061135d57610100808354040283529160200191611388565b820191906000526020600020905b81548152906001019060200180831161136b57829003601f168201915b505050505083610abe565b156113a1576113a18161221d565b806113ab81612c8b565b9150506112da565b5060a0816040516113c49190612cc4565b90815260405190819003602001902060006113df828261242d565b5060010180547fffffffffffffffffffffff00000000000000000000000000000000000000000016905550565b600054610100900460ff161580801561142c5750600054600160ff909116105b806114465750303b158015611446575060005460ff166001145b6114b85760405162461bcd60e51b815260206004820152602e60248201527f496e697469616c697a61626c653a20636f6e747261637420697320616c72656160448201527f647920696e697469616c697a656400000000000000000000000000000000000060648201526084016104d0565b6000805460ff1916600117905580156114f857600080547fffffffffffffffffffffffffffffffffffffffffffffffffffffffffffff00ff166101001790555b611500612327565b6000609a819055609b819055609955801561157357600080547fffffffffffffffffffffffffffffffffffffffffffffffffffffffffffff00ff169055604051600181527f7f26b83ff96e1f2b6a682f133852f6798a09c465da95921460cefb3847402498906020015b60405180910390a15b50565b6060609e805480602002602001604051908101604052809291908181526020016000905b828210156116465783829060005260206000200180546115b990612b96565b80601f01602080910402602001604051908101604052809291908181526020018280546115e590612b96565b80156116325780601f1061160757610100808354040283529160200191611632565b820191906000526020600020905b81548152906001019060200180831161161557829003601f168201915b50505050508152602001906001019061159a565b50505050905090565b805160208183018101805160a08252928201919093012091528054819061167590612b96565b80601f01602080910402602001604051908101604052809291908181526020018280546116a190612b96565b80156116ee5780601f106116c3576101008083540402835291602001916116ee565b820191906000526020600020905b8154815290600101906020018083116116d157829003601f168201915b5050506001909301549192505073ffffffffffffffffffffffffffffffffffffffff81169060ff740100000000000000000000000000000000000000009091041683565b60008060a0836040516117459190612cc4565b908152604051908190036020019020805461175f90612b96565b9050111561176f57506001919050565b506000919050565b61177f611be0565b73ffffffffffffffffffffffffffffffffffffffff81166118085760405162461bcd60e51b815260206004820152602660248201527f4f776e61626c653a206e6577206f776e657220697320746865207a65726f206160448201527f646472657373000000000000000000000000000000000000000000000000000060648201526084016104d0565b611573816121a6565b609f5460009081906060908190156119a5576001609a546118329190612cf8565b6099546097609e81805461184590612b96565b80601f016020809104026020016040519081016040528092919081815260200182805461187190612b96565b80156118be5780601f10611893576101008083540402835291602001916118be565b820191906000526020600020905b8154815290600101906020018083116118a157829003601f168201915b5050505050915080805480602002602001604051908101604052809291908181526020016000905b8282101561199257838290600052602060002001805461190590612b96565b80601f016020809104026020016040519081016040528092919081815260200182805461193190612b96565b801561197e5780601f106119535761010080835404028352916020019161197e565b820191906000526020600020905b81548152906001019060200180831161196157829003601f168201915b5050505050815260200190600101906118e6565b5050505090509350935093509350611b17565b609a546099546097609e8180546119bb90612b96565b80601f01602080910402602001604051908101604052809291908181526020018280546119e790612b96565b8015611a345780601f10611a0957610100808354040283529160200191611a34565b820191906000526020600020905b815481529060010190602001808311611a1757829003601f168201915b5050505050915080805480602002602001604051908101604052809291908181526020016000905b82821015611b08578382906000526020600020018054611a7b90612b96565b80601f0160208091040260200160405190810160405280929190818152602001828054611aa790612b96565b8015611af45780601f10611ac957610100808354040283529160200191611af4565b820191906000526020600020905b815481529060010190602001808311611ad757829003601f168201915b505050505081526020019060010190611a5c565b50505050905093509350935093505b90919293565b611b25611be0565b609d80547fffffffffffffffffffffffff00000000000000000000000000000000000000001673ffffffffffffffffffffffffffffffffffffffff92909216919091179055565b60008060008351604114611bc25760405162461bcd60e51b815260206004820152601860248201527f696e76616c6964207369676e6174757265206c656e677468000000000000000060448201526064016104d0565b50505060208101516040820151606090920151909260009190911a90565b60335473ffffffffffffffffffffffffffffffffffffffff1633146112485760405162461bcd60e51b815260206004820181905260248201527f4f776e61626c653a2063616c6c6572206973206e6f7420746865206f776e657260448201526064016104d0565b609e5415611cec5760005b609e54811015611cdf5760a0609e8281548110611c7157611c71612b67565b90600052602060002001604051611c889190612bea565b9081526040519081900360200190206000611ca3828261242d565b5060010180547fffffffffffffffffffffff00000000000000000000000000000000000000000016905580611cd781612c8b565b915050611c52565b50611cec609e6000612467565b60005b609f5481101561210157609e609f8281548110611d0e57611d0e612b67565b600091825260208083208454600181018655948452922091018054919092019190611d3890612b96565b611d43929190612527565b506040518060600160405280609f8381548110611d6257611d62612b67565b906000526020600020018054611d7790612b96565b80601f0160208091040260200160405190810160405280929190818152602001828054611da390612b96565b8015611df05780601f10611dc557610100808354040283529160200191611df0565b820191906000526020600020905b815481529060010190602001808311611dd357829003601f168201915b50505050508152602001611ea8609f8481548110611e1057611e10612b67565b906000526020600020018054611e2590612b96565b80601f0160208091040260200160405190810160405280929190818152602001828054611e5190612b96565b8015611e9e5780601f10611e7357610100808354040283529160200191611e9e565b820191906000526020600020905b815481529060010190602001808311611e8157829003601f168201915b5050505050610d0a565b73ffffffffffffffffffffffffffffffffffffffff168152602001600081525060a0609f8381548110611edd57611edd612b67565b90600052602060002001604051611ef49190612bea565b90815260200160405180910390206000820151816000019080519060200190611f1e929190612485565b5060208201516001808301805473ffffffffffffffffffffffffffffffffffffffff9093167fffffffffffffffffffffffff000000000000000000000000000000000000000084168117825560408601519391927fffffffffffffffffffffff000000000000000000000000000000000000000000909216179074010000000000000000000000000000000000000000908490811115611fc057611fc06129db565b021790555090505060a260a1609f8381548110611fdf57611fdf612b67565b90600052602060002001604051611ff69190612bea565b90815260405190819003602001812061200e91612bea565b90815260200160405180910390206000905560a1609f828154811061203557612035612b67565b9060005260206000200160405161204c9190612bea565b90815260200160405180910390206000612066919061242d565b60a3609f828154811061207b5761207b612b67565b906000526020600020016040516120929190612bea565b908152604051908190036020019020805460ff19169055609f805460a49190839081106120c1576120c1612b67565b906000526020600020016040516120d89190612bea565b908152604051908190036020019020805460ff19169055806120f981612c8b565b915050611cef565b5061210e609f6000612467565b8051612121906097906020840190612485565b5061212b81610d0a565b609880547fffffffffffffffffffffffff00000000000000000000000000000000000000001673ffffffffffffffffffffffffffffffffffffffff92909216919091179055609a546040517f61c7922e50ad7ea3d35879a4a819ae97eb09b665f2113451d7ada7cb2b689b669161156a918490609e90612d0f565b6033805473ffffffffffffffffffffffffffffffffffffffff8381167fffffffffffffffffffffffff0000000000000000000000000000000000000000831681179093556040519116919082907f8be0079c531659141344cd1fd0a4f28419497f9722a3daafe3b4186f6b6457e090600090a35050565b609e54811061226e5760405162461bcd60e51b815260206004820152601260248201527f696e646578206f7574206f6620626f756e64000000000000000000000000000060448201526064016104d0565b805b609e5461227f90600190612cf8565b8110156122f457609e612293826001612ce0565b815481106122a3576122a3612b67565b90600052602060002001609e82815481106122c0576122c0612b67565b906000526020600020019080546122d690612b96565b6122e1929190612527565b50806122ec81612c8b565b915050612270565b50609e80548061230657612306612e0f565b600190038181906000526020600020016000612322919061242d565b905550565b600054610100900460ff166123a45760405162461bcd60e51b815260206004820152602b60248201527f496e697469616c697a61626c653a20636f6e7472616374206973206e6f74206960448201527f6e697469616c697a696e6700000000000000000000000000000000000000000060648201526084016104d0565b611248600054610100900460ff166124245760405162461bcd60e51b815260206004820152602b60248201527f496e697469616c697a61626c653a20636f6e7472616374206973206e6f74206960448201527f6e697469616c697a696e6700000000000000000000000000000000000000000060648201526084016104d0565b611248336121a6565b50805461243990612b96565b6000825580601f10612449575050565b601f01602090049060005260206000209081019061157391906125a2565b508054600082559060005260206000209081019061157391906125b7565b82805461249190612b96565b90600052602060002090601f0160209004810192826124b357600085556124f9565b82601f106124cc57805160ff19168380011785556124f9565b828001600101855582156124f9579182015b828111156124f95782518255916020019190600101906124de565b506125059291506125a2565b5090565b508054600082559060005260206000209081019061157391906125a2565b82805461253390612b96565b90600052602060002090601f01602090048101928261255557600085556124f9565b82601f1061256657805485556124f9565b828001600101855582156124f957600052602060002091601f016020900482015b828111156124f9578254825591600101919060010190612587565b5b8082111561250557600081556001016125a3565b808211156125055760006125cb828261242d565b506001016125b7565b7f4e487b7100000000000000000000000000000000000000000000000000000000600052604160045260246000fd5b604051601f82017fffffffffffffffffffffffffffffffffffffffffffffffffffffffffffffffe016810167ffffffffffffffff8111828210171561264a5761264a6125d4565b604052919050565b600082601f83011261266357600080fd5b813567ffffffffffffffff81111561267d5761267d6125d4565b6126ae60207fffffffffffffffffffffffffffffffffffffffffffffffffffffffffffffffe0601f84011601612603565b8181528460208386010111156126c357600080fd5b816020850160208301376000918101602001919091529392505050565b600080604083850312156126f357600080fd5b82359150602083013567ffffffffffffffff81111561271157600080fd5b61271d85828601612652565b9150509250929050565b6000806040838503121561273a57600080fd5b8235915060208084013567ffffffffffffffff8082111561275a57600080fd5b818601915086601f83011261276e57600080fd5b813581811115612780576127806125d4565b8060051b61278f858201612603565b918252838101850191858101908a8411156127a957600080fd5b86860192505b838310156127e5578235858111156127c75760008081fd5b6127d58c89838a0101612652565b83525091860191908601906127af565b809750505050505050509250929050565b60006020828403121561280857600080fd5b813567ffffffffffffffff81111561281f57600080fd5b61282b84828501612652565b949350505050565b6020808252825182820181905260009190848201906040850190845b8181101561288157835173ffffffffffffffffffffffffffffffffffffffff168352928401929184019160010161284f565b50909695505050505050565b600080604083850312156128a057600080fd5b823567ffffffffffffffff808211156128b857600080fd5b6128c486838701612652565b935060208501359150808211156128da57600080fd5b5061271d85828601612652565b60005b838110156129025781810151838201526020016128ea565b83811115612911576000848401525b50505050565b6000815180845261292f8160208601602086016128e7565b601f017fffffffffffffffffffffffffffffffffffffffffffffffffffffffffffffffe0169290920160200192915050565b6000815180845260208085019450848260051b860182860160005b858110156129a6578383038952612994838351612917565b9885019892509084019060010161297c565b5090979650505050505050565b8381528260208201526060604082015260006129d26060830184612961565b95945050505050565b7f4e487b7100000000000000000000000000000000000000000000000000000000600052602160045260246000fd5b60028110612a41577f4e487b7100000000000000000000000000000000000000000000000000000000600052602160045260246000fd5b9052565b602081526000825160606020840152612a616080840182612917565b905073ffffffffffffffffffffffffffffffffffffffff60208501511660408401526040840151612a956060850182612a0a565b509392505050565b602081526000612ab06020830184612961565b9392505050565b606081526000612aca6060830186612917565b905073ffffffffffffffffffffffffffffffffffffffff8416602083015261282b6040830184612a0a565b600060208284031215612b0757600080fd5b813573ffffffffffffffffffffffffffffffffffffffff81168114612ab057600080fd5b848152836020820152608060408201526000612b4a6080830185612917565b8281036060840152612b5c8185612961565b979650505050505050565b7f4e487b7100000000000000000000000000000000000000000000000000000000600052603260045260246000fd5b600181811c90821680612baa57607f821691505b60208210811415612be4577f4e487b7100000000000000000000000000000000000000000000000000000000600052602260045260246000fd5b50919050565b6000808354612bf881612b96565b60018281168015612c105760018114612c2157612c50565b60ff19841687528287019450612c50565b8760005260208060002060005b85811015612c475781548a820152908401908201612c2e565b50505082870194505b50929695505050505050565b7f4e487b7100000000000000000000000000000000000000000000000000000000600052601160045260246000fd5b60007fffffffffffffffffffffffffffffffffffffffffffffffffffffffffffffffff821415612cbd57612cbd612c5c565b5060010190565b60008251612cd68184602087016128e7565b9190910192915050565b60008219821115612cf357612cf3612c5c565b500190565b600082821015612d0a57612d0a612c5c565b500390565b83815260006020606081840152612d296060840186612917565b83810360408501528085548083528383019150838160051b8401016000888152858120815b84811015612dfe577fffffffffffffffffffffffffffffffffffffffffffffffffffffffffffffffe0878503018652828254612d8981612b96565b80875260018281168015612da45760018114612db857612de7565b60ff1984168d8a0152604089019450612de7565b8688528c8820885b84811015612ddf5781548f828d01015283820191508e81019050612dc0565b8a018e019550505b50988b019892965050509190910190600101612d4e565b50919b9a5050505050505050505050565b7f4e487b7100000000000000000000000000000000000000000000000000000000600052603160045260246000fdfea2646970667358221220fd660d84960873fb495834f1e782aec5be450b02e89715a8fd2b2b9ab840f25064736f6c63430008090033",
  "devdoc": {
    "kind": "dev",
    "methods": {
      "owner()": {
        "details": "Returns the address of the current owner."
      },
      "renounceOwnership()": {
        "details": "Leaves the contract without owner. It will not be possible to call `onlyOwner` functions anymore. Can only be called by the current owner. NOTE: Renouncing ownership will leave the contract without an owner, thereby removing any functionality that is only available to the owner."
      },
      "transferOwnership(address)": {
        "details": "Transfers ownership of the contract to a new account (`newOwner`). Can only be called by the current owner."
      }
    },
    "version": 1
  },
  "userdoc": {
    "kind": "user",
    "methods": {},
    "version": 1
  },
  "storageLayout": {
    "storage": [
      {
        "astId": 138,
        "contract": "contracts/L1/tss/TssGroupManager.sol:TssGroupManager",
        "label": "_initialized",
        "offset": 0,
        "slot": "0",
        "type": "t_uint8"
      },
      {
        "astId": 141,
        "contract": "contracts/L1/tss/TssGroupManager.sol:TssGroupManager",
        "label": "_initializing",
        "offset": 1,
        "slot": "0",
        "type": "t_bool"
      },
      {
        "astId": 752,
        "contract": "contracts/L1/tss/TssGroupManager.sol:TssGroupManager",
        "label": "__gap",
        "offset": 0,
        "slot": "1",
        "type": "t_array(t_uint256)50_storage"
      },
      {
        "astId": 10,
        "contract": "contracts/L1/tss/TssGroupManager.sol:TssGroupManager",
        "label": "_owner",
        "offset": 0,
        "slot": "51",
        "type": "t_address"
      },
      {
        "astId": 130,
        "contract": "contracts/L1/tss/TssGroupManager.sol:TssGroupManager",
        "label": "__gap",
        "offset": 0,
        "slot": "52",
        "type": "t_array(t_uint256)49_storage"
      },
      {
        "astId": 423,
        "contract": "contracts/L1/tss/TssGroupManager.sol:TssGroupManager",
        "label": "_status",
        "offset": 0,
        "slot": "101",
        "type": "t_uint256"
      },
      {
        "astId": 467,
        "contract": "contracts/L1/tss/TssGroupManager.sol:TssGroupManager",
        "label": "__gap",
        "offset": 0,
        "slot": "102",
        "type": "t_array(t_uint256)49_storage"
      },
      {
        "astId": 7685,
        "contract": "contracts/L1/tss/TssGroupManager.sol:TssGroupManager",
        "label": "confirmGroupPublicKey",
        "offset": 0,
        "slot": "151",
        "type": "t_bytes_storage"
      },
      {
        "astId": 7687,
        "contract": "contracts/L1/tss/TssGroupManager.sol:TssGroupManager",
        "label": "confirmGroupAddress",
        "offset": 0,
        "slot": "152",
        "type": "t_address"
      },
      {
        "astId": 7689,
        "contract": "contracts/L1/tss/TssGroupManager.sol:TssGroupManager",
        "label": "threshold",
        "offset": 0,
        "slot": "153",
        "type": "t_uint256"
      },
      {
        "astId": 7691,
        "contract": "contracts/L1/tss/TssGroupManager.sol:TssGroupManager",
        "label": "gRoundId",
        "offset": 0,
        "slot": "154",
        "type": "t_uint256"
      },
      {
        "astId": 7693,
        "contract": "contracts/L1/tss/TssGroupManager.sol:TssGroupManager",
        "label": "confirmNumber",
        "offset": 0,
        "slot": "155",
        "type": "t_uint256"
      },
      {
        "astId": 7696,
        "contract": "contracts/L1/tss/TssGroupManager.sol:TssGroupManager",
        "label": "addresses",
        "offset": 0,
        "slot": "156",
        "type": "t_array(t_address)dyn_storage"
      },
      {
        "astId": 7698,
        "contract": "contracts/L1/tss/TssGroupManager.sol:TssGroupManager",
        "label": "stakingSlash",
        "offset": 0,
        "slot": "157",
        "type": "t_address"
      },
      {
        "astId": 7701,
        "contract": "contracts/L1/tss/TssGroupManager.sol:TssGroupManager",
        "label": "activeTssMembers",
        "offset": 0,
        "slot": "158",
        "type": "t_array(t_bytes_storage)dyn_storage"
      },
      {
        "astId": 7704,
        "contract": "contracts/L1/tss/TssGroupManager.sol:TssGroupManager",
        "label": "inActiveTssMembers",
        "offset": 0,
        "slot": "159",
        "type": "t_array(t_bytes_storage)dyn_storage"
      },
      {
        "astId": 7709,
        "contract": "contracts/L1/tss/TssGroupManager.sol:TssGroupManager",
        "label": "tssActiveMemberInfo",
        "offset": 0,
        "slot": "160",
        "type": "t_mapping(t_bytes_memory_ptr,t_struct(TssMember)7447_storage)"
      },
      {
        "astId": 7713,
        "contract": "contracts/L1/tss/TssGroupManager.sol:TssGroupManager",
        "label": "memberGroupKey",
        "offset": 0,
        "slot": "161",
        "type": "t_mapping(t_bytes_memory_ptr,t_bytes_storage)"
      },
      {
        "astId": 7717,
        "contract": "contracts/L1/tss/TssGroupManager.sol:TssGroupManager",
        "label": "groupKeyCounter",
        "offset": 0,
        "slot": "162",
        "type": "t_mapping(t_bytes_memory_ptr,t_uint256)"
      },
      {
        "astId": 7721,
        "contract": "contracts/L1/tss/TssGroupManager.sol:TssGroupManager",
        "label": "isSubmitGroupKey",
        "offset": 0,
        "slot": "163",
        "type": "t_mapping(t_bytes_memory_ptr,t_bool)"
      },
      {
        "astId": 7725,
        "contract": "contracts/L1/tss/TssGroupManager.sol:TssGroupManager",
        "label": "isInActiveMember",
        "offset": 0,
        "slot": "164",
        "type": "t_mapping(t_bytes_memory_ptr,t_bool)"
      }
    ],
    "types": {
      "t_address": {
        "encoding": "inplace",
        "label": "address",
        "numberOfBytes": "20"
      },
      "t_array(t_address)dyn_storage": {
        "base": "t_address",
        "encoding": "dynamic_array",
        "label": "address[]",
        "numberOfBytes": "32"
      },
      "t_array(t_bytes_storage)dyn_storage": {
        "base": "t_bytes_storage",
        "encoding": "dynamic_array",
        "label": "bytes[]",
        "numberOfBytes": "32"
      },
      "t_array(t_uint256)49_storage": {
        "base": "t_uint256",
        "encoding": "inplace",
        "label": "uint256[49]",
        "numberOfBytes": "1568"
      },
      "t_array(t_uint256)50_storage": {
        "base": "t_uint256",
        "encoding": "inplace",
        "label": "uint256[50]",
        "numberOfBytes": "1600"
      },
      "t_bool": {
        "encoding": "inplace",
        "label": "bool",
        "numberOfBytes": "1"
      },
      "t_bytes_memory_ptr": {
        "encoding": "bytes",
        "label": "bytes",
        "numberOfBytes": "32"
      },
      "t_bytes_storage": {
        "encoding": "bytes",
        "label": "bytes",
        "numberOfBytes": "32"
      },
      "t_enum(MemberStatus)7439": {
        "encoding": "inplace",
        "label": "enum ITssGroupManager.MemberStatus",
        "numberOfBytes": "1"
      },
      "t_mapping(t_bytes_memory_ptr,t_bool)": {
        "encoding": "mapping",
        "key": "t_bytes_memory_ptr",
        "label": "mapping(bytes => bool)",
        "numberOfBytes": "32",
        "value": "t_bool"
      },
      "t_mapping(t_bytes_memory_ptr,t_bytes_storage)": {
        "encoding": "mapping",
        "key": "t_bytes_memory_ptr",
        "label": "mapping(bytes => bytes)",
        "numberOfBytes": "32",
        "value": "t_bytes_storage"
      },
      "t_mapping(t_bytes_memory_ptr,t_struct(TssMember)7447_storage)": {
        "encoding": "mapping",
        "key": "t_bytes_memory_ptr",
        "label": "mapping(bytes => struct ITssGroupManager.TssMember)",
        "numberOfBytes": "32",
        "value": "t_struct(TssMember)7447_storage"
      },
      "t_mapping(t_bytes_memory_ptr,t_uint256)": {
        "encoding": "mapping",
        "key": "t_bytes_memory_ptr",
        "label": "mapping(bytes => uint256)",
        "numberOfBytes": "32",
        "value": "t_uint256"
      },
      "t_struct(TssMember)7447_storage": {
        "encoding": "inplace",
        "label": "struct ITssGroupManager.TssMember",
        "members": [
          {
            "astId": 7441,
            "contract": "contracts/L1/tss/TssGroupManager.sol:TssGroupManager",
            "label": "publicKey",
            "offset": 0,
            "slot": "0",
            "type": "t_bytes_storage"
          },
          {
            "astId": 7443,
            "contract": "contracts/L1/tss/TssGroupManager.sol:TssGroupManager",
            "label": "nodeAddress",
            "offset": 0,
            "slot": "1",
            "type": "t_address"
          },
          {
            "astId": 7446,
            "contract": "contracts/L1/tss/TssGroupManager.sol:TssGroupManager",
            "label": "status",
            "offset": 20,
            "slot": "1",
            "type": "t_enum(MemberStatus)7439"
          }
        ],
        "numberOfBytes": "64"
      },
      "t_uint256": {
        "encoding": "inplace",
        "label": "uint256",
        "numberOfBytes": "32"
      },
      "t_uint8": {
        "encoding": "inplace",
        "label": "uint8",
        "numberOfBytes": "1"
      }
    }
  }
}