{
  "address": "0x73CBD0De9e8cB1D726b55855831b46dCc4ad91F6",
  "abi": [
    {
      "inputs": [],
      "name": "foo",
      "outputs": [
        {
          "internalType": "uint256",
          "name": "",
          "type": "uint256"
        }
      ],
      "stateMutability": "pure",
      "type": "function"
    }
  ],
  "transactionHash": "0x18d4b427bf8ac64e50892cd3a797123c588cab574d8127e5ea88dbd96eb24322",
  "args": [],
  "numDeployments": 1,
  "solcInputHash": "433fe2bd6c3930a1612d809c77f23404",
  "bytecode": "0x6080604052348015600f57600080fd5b50607780601d6000396000f3fe6080604052348015600f57600080fd5b506004361060285760003560e01c8063c298557814602d575b600080fd5b600060405190815260200160405180910390f3fea2646970667358221220b72a61a19498172c16e3dd47e923813a716c2b1749272efe87dc903ee958638864736f6c63430008090033",
  "devdoc": {
    "kind": "dev",
    "methods": {},
    "version": 1
  },
  "userdoc": {
    "kind": "user",
    "methods": {},
    "version": 1
  },
  "storageLayout": {
    "storage": [],
    "types": null
  }
}