{
  "abi": [
    {
      "inputs": [],
      "stateMutability": "nonpayable",
      "type": "constructor"
    },
    {
      "anonymous": false,
      "inputs": [
        {
          "indexed": true,
          "internalType": "address",
          "name": "owner",
          "type": "address"
        },
        {
          "indexed": true,
          "internalType": "address",
          "name": "spender",
          "type": "address"
        },
        {
          "indexed": false,
          "internalType": "uint256",
          "name": "value",
          "type": "uint256"
        }
      ],
      "name": "Approval",
      "type": "event"
    },
    {
      "anonymous": false,
      "inputs": [
        {
          "indexed": true,
          "internalType": "address",
          "name": "account",
          "type": "address"
        },
        {
          "indexed": false,
          "internalType": "uint256",
          "name": "amount",
          "type": "uint256"
        }
      ],
      "name": "Burn",
      "type": "event"
    },
    {
      "anonymous": false,
      "inputs": [
        {
          "indexed": true,
          "internalType": "address",
          "name": "account",
          "type": "address"
        },
        {
          "indexed": false,
          "internalType": "uint256",
          "name": "amount",
          "type": "uint256"
        }
      ],
      "name": "Mint",
      "type": "event"
    },
    {
      "anonymous": false,
      "inputs": [
        {
          "indexed": true,
          "internalType": "address",
          "name": "from",
          "type": "address"
        },
        {
          "indexed": true,
          "internalType": "address",
          "name": "to",
          "type": "address"
        },
        {
          "indexed": false,
          "internalType": "uint256",
          "name": "value",
          "type": "uint256"
        }
      ],
      "name": "Transfer",
      "type": "event"
    },
    {
      "inputs": [],
      "name": "BRIDGE",
      "outputs": [
        {
          "internalType": "address",
          "name": "",
          "type": "address"
        }
      ],
      "stateMutability": "view",
      "type": "function"
    },
    {
      "inputs": [],
      "name": "REMOTE_TOKEN",
      "outputs": [
        {
          "internalType": "address",
          "name": "",
          "type": "address"
        }
      ],
      "stateMutability": "view",
      "type": "function"
    },
    {
      "inputs": [
        {
          "internalType": "address",
          "name": "owner",
          "type": "address"
        },
        {
          "internalType": "address",
          "name": "spender",
          "type": "address"
        }
      ],
      "name": "allowance",
      "outputs": [
        {
          "internalType": "uint256",
          "name": "",
          "type": "uint256"
        }
      ],
      "stateMutability": "view",
      "type": "function"
    },
    {
      "inputs": [
        {
          "internalType": "address",
          "name": "",
          "type": "address"
        },
        {
          "internalType": "uint256",
          "name": "",
          "type": "uint256"
        }
      ],
      "name": "approve",
      "outputs": [
        {
          "internalType": "bool",
          "name": "",
          "type": "bool"
        }
      ],
      "stateMutability": "nonpayable",
      "type": "function"
    },
    {
      "inputs": [
        {
          "internalType": "address",
          "name": "_who",
          "type": "address"
        }
      ],
      "name": "balanceOf",
      "outputs": [
        {
          "internalType": "uint256",
          "name": "",
          "type": "uint256"
        }
      ],
      "stateMutability": "view",
      "type": "function"
    },
    {
      "inputs": [],
      "name": "bridge",
      "outputs": [
        {
          "internalType": "address",
          "name": "",
          "type": "address"
        }
      ],
      "stateMutability": "view",
      "type": "function"
    },
    {
      "inputs": [
        {
          "internalType": "address",
          "name": "",
          "type": "address"
        },
        {
          "internalType": "uint256",
          "name": "",
          "type": "uint256"
        }
      ],
      "name": "burn",
      "outputs": [],
      "stateMutability": "nonpayable",
      "type": "function"
    },
    {
      "inputs": [],
      "name": "decimals",
      "outputs": [
        {
          "internalType": "uint8",
          "name": "",
          "type": "uint8"
        }
      ],
      "stateMutability": "view",
      "type": "function"
    },
    {
      "inputs": [
        {
          "internalType": "address",
          "name": "",
          "type": "address"
        },
        {
          "internalType": "uint256",
          "name": "",
          "type": "uint256"
        }
      ],
      "name": "decreaseAllowance",
      "outputs": [
        {
          "internalType": "bool",
          "name": "",
          "type": "bool"
        }
      ],
      "stateMutability": "nonpayable",
      "type": "function"
    },
    {
      "inputs": [
        {
          "internalType": "address",
          "name": "",
          "type": "address"
        },
        {
          "internalType": "uint256",
          "name": "",
          "type": "uint256"
        }
      ],
      "name": "increaseAllowance",
      "outputs": [
        {
          "internalType": "bool",
          "name": "",
          "type": "bool"
        }
      ],
      "stateMutability": "nonpayable",
      "type": "function"
    },
    {
      "inputs": [],
      "name": "l1Token",
      "outputs": [
        {
          "internalType": "address",
          "name": "",
          "type": "address"
        }
      ],
      "stateMutability": "view",
      "type": "function"
    },
    {
      "inputs": [],
      "name": "l2Bridge",
      "outputs": [
        {
          "internalType": "address",
          "name": "",
          "type": "address"
        }
      ],
      "stateMutability": "view",
      "type": "function"
    },
    {
      "inputs": [
        {
          "internalType": "address",
          "name": "",
          "type": "address"
        },
        {
          "internalType": "uint256",
          "name": "",
          "type": "uint256"
        }
      ],
      "name": "mint",
      "outputs": [],
      "stateMutability": "nonpayable",
      "type": "function"
    },
    {
      "inputs": [],
      "name": "name",
      "outputs": [
        {
          "internalType": "string",
          "name": "",
          "type": "string"
        }
      ],
      "stateMutability": "view",
      "type": "function"
    },
    {
      "inputs": [],
      "name": "remoteToken",
      "outputs": [
        {
          "internalType": "address",
          "name": "",
          "type": "address"
        }
      ],
      "stateMutability": "view",
      "type": "function"
    },
    {
      "inputs": [
        {
          "internalType": "bytes4",
          "name": "_interfaceId",
          "type": "bytes4"
        }
      ],
      "name": "supportsInterface",
      "outputs": [
        {
          "internalType": "bool",
          "name": "",
          "type": "bool"
        }
      ],
      "stateMutability": "pure",
      "type": "function"
    },
    {
      "inputs": [],
      "name": "symbol",
      "outputs": [
        {
          "internalType": "string",
          "name": "",
          "type": "string"
        }
      ],
      "stateMutability": "view",
      "type": "function"
    },
    {
      "inputs": [],
      "name": "totalSupply",
      "outputs": [
        {
          "internalType": "uint256",
          "name": "",
          "type": "uint256"
        }
      ],
      "stateMutability": "view",
      "type": "function"
    },
    {
      "inputs": [
        {
          "internalType": "address",
          "name": "",
          "type": "address"
        },
        {
          "internalType": "uint256",
          "name": "",
          "type": "uint256"
        }
      ],
      "name": "transfer",
      "outputs": [
        {
          "internalType": "bool",
          "name": "",
          "type": "bool"
        }
      ],
      "stateMutability": "nonpayable",
      "type": "function"
    },
    {
      "inputs": [
        {
          "internalType": "address",
          "name": "",
          "type": "address"
        },
        {
          "internalType": "address",
          "name": "",
          "type": "address"
        },
        {
          "internalType": "uint256",
          "name": "",
          "type": "uint256"
        }
      ],
      "name": "transferFrom",
      "outputs": [
        {
          "internalType": "bool",
          "name": "",
          "type": "bool"
        }
      ],
      "stateMutability": "nonpayable",
      "type": "function"
    },
    {
      "inputs": [],
      "name": "version",
      "outputs": [
        {
          "internalType": "string",
          "name": "",
          "type": "string"
        }
      ],
      "stateMutability": "view",
      "type": "function"
    }
  ],
  "bytecode": {
    "object": "0x6101206040523480156200001257600080fd5b5073420000000000000000000000000000000000001060006040518060400160405280600581526020016422ba3432b960d91b8152506040518060400160405280600381526020016208aa8960eb1b8152506001600080848481600390816200007c91906200015a565b5060046200008b82826200015a565b50505060809290925260a05260c05250506001600160a01b0390811660e052166101005262000226565b634e487b7160e01b600052604160045260246000fd5b600181811c90821680620000e057607f821691505b6020821081036200010157634e487b7160e01b600052602260045260246000fd5b50919050565b601f8211156200015557600081815260208120601f850160051c81016020861015620001305750805b601f850160051c820191505b8181101562000151578281556001016200013c565b5050505b505050565b81516001600160401b03811115620001765762000176620000b5565b6200018e81620001878454620000cb565b8462000107565b602080601f831160018114620001c65760008415620001ad5750858301515b600019600386901b1c1916600185901b17855562000151565b600085815260208120601f198616915b82811015620001f757888601518255948401946001909101908401620001d6565b5085821015620002165787850151600019600388901b60f8161c191681555b5050505050600190811b01905550565b60805160a05160c05160e05161010051610e5762000279600039600081816102e7015261037c0152600081816101a9015261030d0152600061078201526000610759015260006107300152610e576000f3fe608060405234801561001057600080fd5b50600436106101775760003560e01c806370a08231116100d8578063ae1f6aaf1161008c578063dd62ed3e11610066578063dd62ed3e14610331578063e78cea92146102e5578063ee9a31a21461037757600080fd5b8063ae1f6aaf146102e5578063c01e1bd61461030b578063d6c0b2c41461030b57600080fd5b80639dc29fac116100bd5780639dc29fac146102ac578063a457c2d7146102bf578063a9059cbb146102d257600080fd5b806370a082311461027c57806395d89b41146102a457600080fd5b806323b872dd1161012f5780633950935111610114578063395093511461024c57806340c10f191461025f57806354fd4d501461027457600080fd5b806323b872dd1461022a578063313ce5671461023d57600080fd5b806306fdde031161016057806306fdde03146101f0578063095ea7b31461020557806318160ddd1461021857600080fd5b806301ffc9a71461017c578063033964be146101a4575b600080fd5b61018f61018a366004610a8f565b61039e565b60405190151581526020015b60405180910390f35b6101cb7f000000000000000000000000000000000000000000000000000000000000000081565b60405173ffffffffffffffffffffffffffffffffffffffff909116815260200161019b565b6101f861048f565b60405161019b9190610b08565b61018f610213366004610b82565b610521565b6002545b60405190815260200161019b565b61018f610238366004610bac565b6105b1565b6040516012815260200161019b565b61018f61025a366004610b82565b61063c565b61027261026d366004610b82565b6106c7565b005b6101f8610729565b61021c61028a366004610be8565b73ffffffffffffffffffffffffffffffffffffffff163190565b6101f86107cc565b6102726102ba366004610b82565b6107db565b61018f6102cd366004610b82565b61083d565b61018f6102e0366004610b82565b6108c8565b7f00000000000000000000000000000000000000000000000000000000000000006101cb565b7f00000000000000000000000000000000000000000000000000000000000000006101cb565b61021c61033f366004610c03565b73ffffffffffffffffffffffffffffffffffffffff918216600090815260016020908152604080832093909416825291909152205490565b6101cb7f000000000000000000000000000000000000000000000000000000000000000081565b60007f01ffc9a7000000000000000000000000000000000000000000000000000000007f1d1d8b63000000000000000000000000000000000000000000000000000000007fec4fc8e3000000000000000000000000000000000000000000000000000000007fffffffff00000000000000000000000000000000000000000000000000000000851683148061045757507fffffffff00000000000000000000000000000000000000000000000000000000858116908316145b8061048657507fffffffff00000000000000000000000000000000000000000000000000000000858116908216145b95945050505050565b60606003805461049e90610c36565b80601f01602080910402602001604051908101604052809291908181526020018280546104ca90610c36565b80156105175780601f106104ec57610100808354040283529160200191610517565b820191906000526020600020905b8154815290600101906020018083116104fa57829003601f168201915b5050505050905090565b6040517f08c379a000000000000000000000000000000000000000000000000000000000815260206004820152602360248201527f4c656761637945524332304554483a20617070726f766520697320646973616260448201527f6c6564000000000000000000000000000000000000000000000000000000000060648201526000906084015b60405180910390fd5b6040517f08c379a000000000000000000000000000000000000000000000000000000000815260206004820152602860248201527f4c656761637945524332304554483a207472616e7366657246726f6d2069732060448201527f64697361626c656400000000000000000000000000000000000000000000000060648201526000906084016105a8565b6040517f08c379a000000000000000000000000000000000000000000000000000000000815260206004820152602d60248201527f4c656761637945524332304554483a20696e637265617365416c6c6f77616e6360448201527f652069732064697361626c65640000000000000000000000000000000000000060648201526000906084016105a8565b6040517f08c379a000000000000000000000000000000000000000000000000000000000815260206004820181905260248201527f4c656761637945524332304554483a206d696e742069732064697361626c656460448201526064016105a8565b60606107547f0000000000000000000000000000000000000000000000000000000000000000610952565b61077d7f0000000000000000000000000000000000000000000000000000000000000000610952565b6107a67f0000000000000000000000000000000000000000000000000000000000000000610952565b6040516020016107b893929190610c89565b604051602081830303815290604052905090565b60606004805461049e90610c36565b6040517f08c379a000000000000000000000000000000000000000000000000000000000815260206004820181905260248201527f4c656761637945524332304554483a206275726e2069732064697361626c656460448201526064016105a8565b6040517f08c379a000000000000000000000000000000000000000000000000000000000815260206004820152602d60248201527f4c656761637945524332304554483a206465637265617365416c6c6f77616e6360448201527f652069732064697361626c65640000000000000000000000000000000000000060648201526000906084016105a8565b6040517f08c379a0000000000000000000000000000000000000000000000000000000008152602060048201526024808201527f4c656761637945524332304554483a207472616e73666572206973206469736160448201527f626c65640000000000000000000000000000000000000000000000000000000060648201526000906084016105a8565b60608160000361099557505060408051808201909152600181527f3000000000000000000000000000000000000000000000000000000000000000602082015290565b8160005b81156109bf57806109a981610d2e565b91506109b89050600a83610d95565b9150610999565b60008167ffffffffffffffff8111156109da576109da610da9565b6040519080825280601f01601f191660200182016040528015610a04576020820181803683370190505b5090505b8415610a8757610a19600183610dd8565b9150610a26600a86610def565b610a31906030610e03565b60f81b818381518110610a4657610a46610e1b565b60200101907effffffffffffffffffffffffffffffffffffffffffffffffffffffffffffff1916908160001a905350610a80600a86610d95565b9450610a08565b949350505050565b600060208284031215610aa157600080fd5b81357fffffffff0000000000000000000000000000000000000000000000000000000081168114610ad157600080fd5b9392505050565b60005b83811015610af3578181015183820152602001610adb565b83811115610b02576000848401525b50505050565b6020815260008251806020840152610b27816040850160208701610ad8565b601f017fffffffffffffffffffffffffffffffffffffffffffffffffffffffffffffffe0169190910160400192915050565b803573ffffffffffffffffffffffffffffffffffffffff81168114610b7d57600080fd5b919050565b60008060408385031215610b9557600080fd5b610b9e83610b59565b946020939093013593505050565b600080600060608486031215610bc157600080fd5b610bca84610b59565b9250610bd860208501610b59565b9150604084013590509250925092565b600060208284031215610bfa57600080fd5b610ad182610b59565b60008060408385031215610c1657600080fd5b610c1f83610b59565b9150610c2d60208401610b59565b90509250929050565b600181811c90821680610c4a57607f821691505b602082108103610c83577f4e487b7100000000000000000000000000000000000000000000000000000000600052602260045260246000fd5b50919050565b60008451610c9b818460208901610ad8565b80830190507f2e000000000000000000000000000000000000000000000000000000000000008082528551610cd7816001850160208a01610ad8565b60019201918201528351610cf2816002840160208801610ad8565b0160020195945050505050565b7f4e487b7100000000000000000000000000000000000000000000000000000000600052601160045260246000fd5b60007fffffffffffffffffffffffffffffffffffffffffffffffffffffffffffffffff8203610d5f57610d5f610cff565b5060010190565b7f4e487b7100000000000000000000000000000000000000000000000000000000600052601260045260246000fd5b600082610da457610da4610d66565b500490565b7f4e487b7100000000000000000000000000000000000000000000000000000000600052604160045260246000fd5b600082821015610dea57610dea610cff565b500390565b600082610dfe57610dfe610d66565b500690565b60008219821115610e1657610e16610cff565b500190565b7f4e487b7100000000000000000000000000000000000000000000000000000000600052603260045260246000fdfea164736f6c634300080f000a",
    "linkReferences": {}
  },
  "methodIdentifiers": {
    "BRIDGE()": "ee9a31a2",
    "REMOTE_TOKEN()": "033964be",
    "allowance(address,address)": "dd62ed3e",
    "approve(address,uint256)": "095ea7b3",
    "balanceOf(address)": "70a08231",
    "bridge()": "e78cea92",
    "burn(address,uint256)": "9dc29fac",
    "decimals()": "313ce567",
    "decreaseAllowance(address,uint256)": "a457c2d7",
    "increaseAllowance(address,uint256)": "39509351",
    "l1Token()": "c01e1bd6",
    "l2Bridge()": "ae1f6aaf",
    "mint(address,uint256)": "40c10f19",
    "name()": "06fdde03",
    "remoteToken()": "d6c0b2c4",
    "supportsInterface(bytes4)": "01ffc9a7",
    "symbol()": "95d89b41",
    "totalSupply()": "18160ddd",
    "transfer(address,uint256)": "a9059cbb",
    "transferFrom(address,address,uint256)": "23b872dd",
    "version()": "54fd4d50"
  },
  "storageLayout": {
    "storage": [
      {
        "astId": 46417,
        "contract": "contracts/legacy/LegacyERC20ETH.sol:LegacyERC20ETH",
        "label": "_balances",
        "offset": 0,
        "slot": "0",
        "type": "t_mapping(t_address,t_uint256)"
      },
      {
        "astId": 46423,
        "contract": "contracts/legacy/LegacyERC20ETH.sol:LegacyERC20ETH",
        "label": "_allowances",
        "offset": 0,
        "slot": "1",
        "type": "t_mapping(t_address,t_mapping(t_address,t_uint256))"
      },
      {
        "astId": 46425,
        "contract": "contracts/legacy/LegacyERC20ETH.sol:LegacyERC20ETH",
        "label": "_totalSupply",
        "offset": 0,
        "slot": "2",
        "type": "t_uint256"
      },
      {
        "astId": 46427,
        "contract": "contracts/legacy/LegacyERC20ETH.sol:LegacyERC20ETH",
        "label": "_name",
        "offset": 0,
        "slot": "3",
        "type": "t_string_storage"
      },
      {
        "astId": 46429,
        "contract": "contracts/legacy/LegacyERC20ETH.sol:LegacyERC20ETH",
        "label": "_symbol",
        "offset": 0,
        "slot": "4",
        "type": "t_string_storage"
      }
    ],
    "types": {
      "t_address": {
        "encoding": "inplace",
        "label": "address",
        "numberOfBytes": "20"
      },
      "t_mapping(t_address,t_mapping(t_address,t_uint256))": {
        "encoding": "mapping",
        "key": "t_address",
        "label": "mapping(address => mapping(address => uint256))",
        "numberOfBytes": "32",
        "value": "t_mapping(t_address,t_uint256)"
      },
      "t_mapping(t_address,t_uint256)": {
        "encoding": "mapping",
        "key": "t_address",
        "label": "mapping(address => uint256)",
        "numberOfBytes": "32",
        "value": "t_uint256"
      },
      "t_string_storage": {
        "encoding": "bytes",
        "label": "string",
        "numberOfBytes": "32"
      },
      "t_uint256": {
        "encoding": "inplace",
        "label": "uint256",
        "numberOfBytes": "32"
      }
    }
  },
  "userdoc": {
    "version": 1,
    "kind": "user",
    "methods": {
      "BRIDGE()": {
        "notice": "Address of the StandardBridge on this network."
      },
      "REMOTE_TOKEN()": {
        "notice": "Address of the corresponding version of this token on the remote chain."
      },
      "balanceOf(address)": {
        "notice": "Returns the ETH balance of the target account. Overrides the base behavior of the         contract to preserve the invariant that the balance within this contract always         matches the balance in the state trie."
      },
      "constructor": {
        "notice": "Initializes the contract as an Mantle Mintable ERC20."
      },
      "supportsInterface(bytes4)": {
        "notice": "ERC165 interface check function."
      },
      "version()": {
        "notice": "Returns the full semver contract version."
      }
    },
    "events": {
      "Burn(address,uint256)": {
        "notice": "Emitted whenever tokens are burned from an account."
      },
      "Mint(address,uint256)": {
        "notice": "Emitted whenever tokens are minted for an account."
      }
    },
    "notice": "LegacyERC20ETH is a legacy contract that held ETH balances before the Bedrock upgrade.         All ETH balances held within this contract were migrated to the state trie as part of         the Bedrock upgrade. Functions within this contract that mutate state were already         disabled as part of the EVM equivalence upgrade."
  },
  "devdoc": {
    "version": 1,
    "kind": "dev",
    "methods": {
      "allowance(address,address)": {
        "details": "See {IERC20-allowance}."
      },
      "approve(address,uint256)": {},
      "balanceOf(address)": {
        "params": {
          "_who": "Address of the account to query."
        },
        "returns": {
          "_0": "The ETH balance of the target account."
        }
      },
      "bridge()": {},
      "burn(address,uint256)": {},
      "decimals()": {
        "details": "Returns the number of decimals used to get its user representation. For example, if `decimals` equals `2`, a balance of `505` tokens should be displayed to a user as `5.05` (`505 / 10 ** 2`). Tokens usually opt for a value of 18, imitating the relationship between Ether and Wei. This is the value {ERC20} uses, unless this function is overridden; NOTE: This information is only used for _display_ purposes: it in no way affects any of the arithmetic of the contract, including {IERC20-balanceOf} and {IERC20-transfer}."
      },
      "decreaseAllowance(address,uint256)": {},
      "increaseAllowance(address,uint256)": {},
      "l1Token()": {},
      "l2Bridge()": {},
      "mint(address,uint256)": {},
      "name()": {
        "details": "Returns the name of the token."
      },
      "remoteToken()": {},
      "supportsInterface(bytes4)": {
        "params": {
          "_interfaceId": "Interface ID to check."
        },
        "returns": {
          "_0": "Whether or not the interface is supported by this contract."
        }
      },
      "symbol()": {
        "details": "Returns the symbol of the token, usually a shorter version of the name."
      },
      "totalSupply()": {
        "details": "See {IERC20-totalSupply}."
      },
      "transfer(address,uint256)": {},
      "transferFrom(address,address,uint256)": {},
      "version()": {
        "returns": {
          "_0": "Semver contract version as a string."
        }
      }
    },
    "title": "LegacyERC20ETH"
  },
  "id": 33
}