{
  "address": "0x19F02AAd2BD9BfEe1873BB79Cc799827b11F730C",
  "abi": [
    {
      "inputs": [],
      "stateMutability": "nonpayable",
      "type": "constructor"
    },
    {
      "anonymous": false,
      "inputs": [
        {
          "indexed": false,
          "internalType": "address",
          "name": "depositor",
          "type": "address"
        },
        {
          "indexed": false,
          "internalType": "address",
          "name": "token",
          "type": "address"
        },
        {
          "indexed": false,
          "internalType": "uint256",
          "name": "amount",
          "type": "uint256"
        }
      ],
      "name": "Deposit",
      "type": "event"
    },
    {
      "anonymous": false,
      "inputs": [
        {
          "indexed": false,
          "internalType": "uint8",
          "name": "version",
          "type": "uint8"
        }
      ],
      "name": "Initialized",
      "type": "event"
    },
    {
      "anonymous": false,
      "inputs": [
        {
          "indexed": true,
          "internalType": "address",
          "name": "previousOwner",
          "type": "address"
        },
        {
          "indexed": true,
          "internalType": "address",
          "name": "newOwner",
          "type": "address"
        }
      ],
      "name": "OwnershipTransferred",
      "type": "event"
    },
    {
      "anonymous": false,
      "inputs": [
        {
          "indexed": false,
          "internalType": "address",
          "name": "account",
          "type": "address"
        }
      ],
      "name": "Paused",
      "type": "event"
    },
    {
      "anonymous": false,
      "inputs": [
        {
          "indexed": false,
          "internalType": "address",
          "name": "",
          "type": "address"
        },
        {
          "indexed": false,
          "internalType": "enum TssStakingSlashing.SlashType",
          "name": "",
          "type": "uint8"
        }
      ],
      "name": "Slashing",
      "type": "event"
    },
    {
      "anonymous": false,
      "inputs": [
        {
          "indexed": false,
          "internalType": "address",
          "name": "account",
          "type": "address"
        }
      ],
      "name": "Unpaused",
      "type": "event"
    },
    {
      "anonymous": false,
      "inputs": [
        {
          "indexed": false,
          "internalType": "address",
          "name": "depositor",
          "type": "address"
        },
        {
          "indexed": false,
          "internalType": "address",
          "name": "token",
          "type": "address"
        },
        {
          "indexed": false,
          "internalType": "uint256",
          "name": "amount",
          "type": "uint256"
        }
      ],
      "name": "Withdraw",
      "type": "event"
    },
    {
      "anonymous": false,
      "inputs": [
        {
          "indexed": false,
          "internalType": "address",
          "name": "",
          "type": "address"
        },
        {
          "indexed": false,
          "internalType": "uint256",
          "name": "",
          "type": "uint256"
        }
      ],
      "name": "WithdrawQueue",
      "type": "event"
    },
    {
      "inputs": [],
      "name": "canCompleteQueuedWithdrawal",
      "outputs": [
        {
          "internalType": "bool",
          "name": "",
          "type": "bool"
        }
      ],
      "stateMutability": "nonpayable",
      "type": "function"
    },
    {
      "inputs": [
        {
          "internalType": "address",
          "name": "",
          "type": "address"
        }
      ],
      "name": "claimerOperators",
      "outputs": [
        {
          "internalType": "address",
          "name": "",
          "type": "address"
        }
      ],
      "stateMutability": "view",
      "type": "function"
    },
    {
      "inputs": [],
      "name": "clearQuitRequestList",
      "outputs": [],
      "stateMutability": "nonpayable",
      "type": "function"
    },
    {
      "inputs": [],
      "name": "completeWithdraw",
      "outputs": [],
      "stateMutability": "nonpayable",
      "type": "function"
    },
    {
      "inputs": [
        {
          "internalType": "address",
          "name": "_operator",
          "type": "address"
        }
      ],
      "name": "delegateTo",
      "outputs": [],
      "stateMutability": "nonpayable",
      "type": "function"
    },
    {
      "inputs": [],
      "name": "delegation",
      "outputs": [
        {
          "internalType": "contract IDelegation",
          "name": "",
          "type": "address"
        }
      ],
      "stateMutability": "view",
      "type": "function"
    },
    {
      "inputs": [],
      "name": "delegationManager",
      "outputs": [
        {
          "internalType": "contract IDelegationManager",
          "name": "",
          "type": "address"
        }
      ],
      "stateMutability": "view",
      "type": "function"
    },
    {
      "inputs": [
        {
          "internalType": "address",
          "name": "",
          "type": "address"
        }
      ],
      "name": "delegators",
      "outputs": [
        {
          "internalType": "address",
          "name": "",
          "type": "address"
        }
      ],
      "stateMutability": "view",
      "type": "function"
    },
    {
      "inputs": [
        {
          "internalType": "address",
          "name": "depositor",
          "type": "address"
        },
        {
          "internalType": "contract IERC20",
          "name": "token",
          "type": "address"
        },
        {
          "internalType": "uint256",
          "name": "amount",
          "type": "uint256"
        }
      ],
      "name": "deposit",
      "outputs": [
        {
          "internalType": "uint256",
          "name": "newShares",
          "type": "uint256"
        }
      ],
      "stateMutability": "nonpayable",
      "type": "function"
    },
    {
      "inputs": [
        {
          "internalType": "uint256",
          "name": "amount",
          "type": "uint256"
        }
      ],
      "name": "deposit",
      "outputs": [
        {
          "internalType": "uint256",
          "name": "",
          "type": "uint256"
        }
      ],
      "stateMutability": "nonpayable",
      "type": "function"
    },
    {
      "inputs": [],
      "name": "explanation",
      "outputs": [
        {
          "internalType": "string",
          "name": "",
          "type": "string"
        }
      ],
      "stateMutability": "pure",
      "type": "function"
    },
    {
      "inputs": [],
      "name": "getQuitRequestList",
      "outputs": [
        {
          "internalType": "address[]",
          "name": "",
          "type": "address[]"
        }
      ],
      "stateMutability": "view",
      "type": "function"
    },
    {
      "inputs": [
        {
          "internalType": "uint256",
          "name": "batchIndex",
          "type": "uint256"
        },
        {
          "internalType": "address",
          "name": "user",
          "type": "address"
        }
      ],
      "name": "getSlashRecord",
      "outputs": [
        {
          "internalType": "bool",
          "name": "",
          "type": "bool"
        }
      ],
      "stateMutability": "view",
      "type": "function"
    },
    {
      "inputs": [],
      "name": "getSlashingParams",
      "outputs": [
        {
          "internalType": "uint256[2]",
          "name": "",
          "type": "uint256[2]"
        }
      ],
      "stateMutability": "view",
      "type": "function"
    },
    {
      "inputs": [
        {
          "internalType": "address",
          "name": "_mantleToken",
          "type": "address"
        },
        {
          "internalType": "address",
          "name": "_tssGroupContract",
          "type": "address"
        },
        {
          "internalType": "address",
          "name": "_delegationManager",
          "type": "address"
        },
        {
          "internalType": "address",
          "name": "_delegation",
          "type": "address"
        },
        {
          "internalType": "address",
          "name": "_l1messenger",
          "type": "address"
        },
        {
          "internalType": "address",
          "name": "_regulatoryAccount",
          "type": "address"
        }
      ],
      "name": "initialize",
      "outputs": [],
      "stateMutability": "nonpayable",
      "type": "function"
    },
    {
      "inputs": [
        {
          "internalType": "address",
          "name": "_addr",
          "type": "address"
        }
      ],
      "name": "isCanOperator",
      "outputs": [
        {
          "internalType": "bool",
          "name": "",
          "type": "bool"
        }
      ],
      "stateMutability": "nonpayable",
      "type": "function"
    },
    {
      "inputs": [
        {
          "internalType": "address",
          "name": "user",
          "type": "address"
        }
      ],
      "name": "isJailed",
      "outputs": [
        {
          "internalType": "bool",
          "name": "",
          "type": "bool"
        }
      ],
      "stateMutability": "nonpayable",
      "type": "function"
    },
    {
      "inputs": [],
      "name": "isSetParam",
      "outputs": [
        {
          "internalType": "bool",
          "name": "",
          "type": "bool"
        }
      ],
      "stateMutability": "view",
      "type": "function"
    },
    {
      "inputs": [],
      "name": "messenger",
      "outputs": [
        {
          "internalType": "address",
          "name": "",
          "type": "address"
        }
      ],
      "stateMutability": "view",
      "type": "function"
    },
    {
      "inputs": [
        {
          "internalType": "address",
          "name": "delegator",
          "type": "address"
        },
        {
          "internalType": "contract IDelegationShare[]",
          "name": "investorDelegationShares",
          "type": "address[]"
        },
        {
          "internalType": "uint256[]",
          "name": "investorShares",
          "type": "uint256[]"
        }
      ],
      "name": "onDelegationReceived",
      "outputs": [],
      "stateMutability": "nonpayable",
      "type": "function"
    },
    {
      "inputs": [
        {
          "internalType": "address",
          "name": "delegator",
          "type": "address"
        },
        {
          "internalType": "address",
          "name": "operator",
          "type": "address"
        },
        {
          "internalType": "contract IDelegationShare[]",
          "name": "delegationShares",
          "type": "address[]"
        },
        {
          "internalType": "uint256[]",
          "name": "investorShares",
          "type": "uint256[]"
        }
      ],
      "name": "onDelegationReceived",
      "outputs": [],
      "stateMutability": "nonpayable",
      "type": "function"
    },
    {
      "inputs": [
        {
          "internalType": "address",
          "name": "delegator",
          "type": "address"
        },
        {
          "internalType": "address",
          "name": "operator",
          "type": "address"
        },
        {
          "internalType": "contract IDelegationShare[]",
          "name": "delegationShares",
          "type": "address[]"
        },
        {
          "internalType": "uint256[]",
          "name": "investorShares",
          "type": "uint256[]"
        }
      ],
      "name": "onDelegationWithdrawn",
      "outputs": [],
      "stateMutability": "nonpayable",
      "type": "function"
    },
    {
      "inputs": [
        {
          "internalType": "address",
          "name": "delegator",
          "type": "address"
        },
        {
          "internalType": "contract IDelegationShare[]",
          "name": "investorDelegationShares",
          "type": "address[]"
        },
        {
          "internalType": "uint256[]",
          "name": "investorShares",
          "type": "uint256[]"
        }
      ],
      "name": "onDelegationWithdrawn",
      "outputs": [],
      "stateMutability": "nonpayable",
      "type": "function"
    },
    {
      "inputs": [
        {
          "internalType": "address",
          "name": "",
          "type": "address"
        }
      ],
      "name": "operatorClaimers",
      "outputs": [
        {
          "internalType": "address",
          "name": "",
          "type": "address"
        }
      ],
      "stateMutability": "view",
      "type": "function"
    },
    {
      "inputs": [
        {
          "internalType": "address",
          "name": "",
          "type": "address"
        }
      ],
      "name": "operators",
      "outputs": [
        {
          "internalType": "bytes",
          "name": "",
          "type": "bytes"
        }
      ],
      "stateMutability": "view",
      "type": "function"
    },
    {
      "inputs": [],
      "name": "owner",
      "outputs": [
        {
          "internalType": "address",
          "name": "",
          "type": "address"
        }
      ],
      "stateMutability": "view",
      "type": "function"
    },
    {
      "inputs": [],
      "name": "paused",
      "outputs": [
        {
          "internalType": "bool",
          "name": "",
          "type": "bool"
        }
      ],
      "stateMutability": "view",
      "type": "function"
    },
    {
      "inputs": [
        {
          "internalType": "contract IERC20",
          "name": "token",
          "type": "address"
        },
        {
          "internalType": "uint256",
          "name": "amount",
          "type": "uint256"
        }
      ],
      "name": "payForService",
      "outputs": [],
      "stateMutability": "payable",
      "type": "function"
    },
    {
      "inputs": [],
      "name": "quitRequest",
      "outputs": [],
      "stateMutability": "nonpayable",
      "type": "function"
    },
    {
      "inputs": [
        {
          "internalType": "uint256",
          "name": "",
          "type": "uint256"
        }
      ],
      "name": "quitRequestList",
      "outputs": [
        {
          "internalType": "address",
          "name": "",
          "type": "address"
        }
      ],
      "stateMutability": "view",
      "type": "function"
    },
    {
      "inputs": [
        {
          "internalType": "bytes",
          "name": "_pubKey",
          "type": "bytes"
        }
      ],
      "name": "registerAsOperator",
      "outputs": [],
      "stateMutability": "nonpayable",
      "type": "function"
    },
    {
      "inputs": [],
      "name": "regulatoryAccount",
      "outputs": [
        {
          "internalType": "address",
          "name": "",
          "type": "address"
        }
      ],
      "stateMutability": "view",
      "type": "function"
    },
    {
      "inputs": [],
      "name": "renounceOwnership",
      "outputs": [],
      "stateMutability": "nonpayable",
      "type": "function"
    },
    {
      "inputs": [
        {
          "internalType": "address",
          "name": "_operator",
          "type": "address"
        },
        {
          "internalType": "address",
          "name": "_claimer",
          "type": "address"
        }
      ],
      "name": "setClaimer",
      "outputs": [],
      "stateMutability": "nonpayable",
      "type": "function"
    },
    {
      "inputs": [
        {
          "internalType": "bytes",
          "name": "_pubKey",
          "type": "bytes"
        }
      ],
      "name": "setPublicKey",
      "outputs": [],
      "stateMutability": "nonpayable",
      "type": "function"
    },
    {
      "inputs": [
        {
          "internalType": "address",
          "name": "_account",
          "type": "address"
        }
      ],
      "name": "setRegulatoryAccount",
      "outputs": [],
      "stateMutability": "nonpayable",
      "type": "function"
    },
    {
      "inputs": [
        {
          "internalType": "uint256[2]",
          "name": "_slashAmount",
          "type": "uint256[2]"
        }
      ],
      "name": "setSlashingParams",
      "outputs": [],
      "stateMutability": "nonpayable",
      "type": "function"
    },
    {
      "inputs": [
        {
          "internalType": "address",
          "name": "_token",
          "type": "address"
        }
      ],
      "name": "setTokenAddress",
      "outputs": [],
      "stateMutability": "nonpayable",
      "type": "function"
    },
    {
      "inputs": [
        {
          "internalType": "address",
          "name": "_tssGroup",
          "type": "address"
        }
      ],
      "name": "setTssGroupAddress",
      "outputs": [],
      "stateMutability": "nonpayable",
      "type": "function"
    },
    {
      "inputs": [
        {
          "internalType": "address",
          "name": "user",
          "type": "address"
        }
      ],
      "name": "shares",
      "outputs": [
        {
          "internalType": "uint256",
          "name": "",
          "type": "uint256"
        }
      ],
      "stateMutability": "view",
      "type": "function"
    },
    {
      "inputs": [
        {
          "internalType": "uint256",
          "name": "amountShares",
          "type": "uint256"
        }
      ],
      "name": "sharesToUnderlying",
      "outputs": [
        {
          "internalType": "uint256",
          "name": "",
          "type": "uint256"
        }
      ],
      "stateMutability": "view",
      "type": "function"
    },
    {
      "inputs": [
        {
          "internalType": "uint256",
          "name": "amountShares",
          "type": "uint256"
        }
      ],
      "name": "sharesToUnderlyingView",
      "outputs": [
        {
          "internalType": "uint256",
          "name": "",
          "type": "uint256"
        }
      ],
      "stateMutability": "view",
      "type": "function"
    },
    {
      "inputs": [
        {
          "internalType": "uint256",
          "name": "",
          "type": "uint256"
        }
      ],
      "name": "slashAmount",
      "outputs": [
        {
          "internalType": "uint256",
          "name": "",
          "type": "uint256"
        }
      ],
      "stateMutability": "view",
      "type": "function"
    },
    {
      "inputs": [
        {
          "internalType": "bytes",
          "name": "_messageBytes",
          "type": "bytes"
        },
        {
          "internalType": "bytes",
          "name": "_sig",
          "type": "bytes"
        }
      ],
      "name": "slashing",
      "outputs": [],
      "stateMutability": "nonpayable",
      "type": "function"
    },
    {
      "inputs": [
        {
          "internalType": "address",
          "name": "",
          "type": "address"
        },
        {
          "internalType": "uint256",
          "name": "",
          "type": "uint256"
        }
      ],
      "name": "stakers",
      "outputs": [
        {
          "internalType": "address",
          "name": "",
          "type": "address"
        }
      ],
      "stateMutability": "view",
      "type": "function"
    },
    {
      "inputs": [],
      "name": "startWithdraw",
      "outputs": [],
      "stateMutability": "nonpayable",
      "type": "function"
    },
    {
      "inputs": [],
      "name": "totalShares",
      "outputs": [
        {
          "internalType": "uint256",
          "name": "",
          "type": "uint256"
        }
      ],
      "stateMutability": "view",
      "type": "function"
    },
    {
      "inputs": [
        {
          "internalType": "address",
          "name": "newOwner",
          "type": "address"
        }
      ],
      "name": "transferOwnership",
      "outputs": [],
      "stateMutability": "nonpayable",
      "type": "function"
    },
    {
      "inputs": [],
      "name": "tssDelegationContract",
      "outputs": [
        {
          "internalType": "address",
          "name": "",
          "type": "address"
        }
      ],
      "stateMutability": "view",
      "type": "function"
    },
    {
      "inputs": [],
      "name": "tssDelegationManagerContract",
      "outputs": [
        {
          "internalType": "address",
          "name": "",
          "type": "address"
        }
      ],
      "stateMutability": "view",
      "type": "function"
    },
    {
      "inputs": [],
      "name": "tssGroupContract",
      "outputs": [
        {
          "internalType": "address",
          "name": "",
          "type": "address"
        }
      ],
      "stateMutability": "view",
      "type": "function"
    },
    {
      "inputs": [],
      "name": "unJail",
      "outputs": [],
      "stateMutability": "nonpayable",
      "type": "function"
    },
    {
      "inputs": [
        {
          "internalType": "uint256",
          "name": "amountUnderlying",
          "type": "uint256"
        }
      ],
      "name": "underlyingToShares",
      "outputs": [
        {
          "internalType": "uint256",
          "name": "",
          "type": "uint256"
        }
      ],
      "stateMutability": "view",
      "type": "function"
    },
    {
      "inputs": [
        {
          "internalType": "uint256",
          "name": "amountUnderlying",
          "type": "uint256"
        }
      ],
      "name": "underlyingToSharesView",
      "outputs": [
        {
          "internalType": "uint256",
          "name": "",
          "type": "uint256"
        }
      ],
      "stateMutability": "view",
      "type": "function"
    },
    {
      "inputs": [],
      "name": "underlyingToken",
      "outputs": [
        {
          "internalType": "contract IERC20",
          "name": "",
          "type": "address"
        }
      ],
      "stateMutability": "view",
      "type": "function"
    },
    {
      "inputs": [
        {
          "internalType": "address",
          "name": "user",
          "type": "address"
        }
      ],
      "name": "userUnderlying",
      "outputs": [
        {
          "internalType": "uint256",
          "name": "",
          "type": "uint256"
        }
      ],
      "stateMutability": "nonpayable",
      "type": "function"
    },
    {
      "inputs": [
        {
          "internalType": "address",
          "name": "user",
          "type": "address"
        }
      ],
      "name": "userUnderlyingView",
      "outputs": [
        {
          "internalType": "uint256",
          "name": "",
          "type": "uint256"
        }
      ],
      "stateMutability": "view",
      "type": "function"
    },
    {
      "inputs": [],
      "name": "withdraw",
      "outputs": [],
      "stateMutability": "nonpayable",
      "type": "function"
    },
    {
      "inputs": [
        {
          "internalType": "address",
          "name": "depositor",
          "type": "address"
        },
        {
          "internalType": "contract IERC20",
          "name": "token",
          "type": "address"
        },
        {
          "internalType": "uint256",
          "name": "amountShares",
          "type": "uint256"
        }
      ],
      "name": "withdraw",
      "outputs": [],
      "stateMutability": "nonpayable",
      "type": "function"
    },
    {
      "inputs": [
        {
          "internalType": "address",
          "name": "",
          "type": "address"
        }
      ],
      "name": "withdrawalRoots",
      "outputs": [
        {
          "internalType": "bytes32",
          "name": "",
          "type": "bytes32"
        }
      ],
      "stateMutability": "view",
      "type": "function"
    },
    {
      "inputs": [
        {
          "internalType": "address",
          "name": "",
          "type": "address"
        }
      ],
      "name": "withdrawals",
      "outputs": [
        {
          "internalType": "address",
          "name": "depositor",
          "type": "address"
        },
        {
          "components": [
            {
              "internalType": "address",
              "name": "withdrawer",
              "type": "address"
            },
            {
              "internalType": "uint96",
              "name": "nonce",
              "type": "uint96"
            }
          ],
          "internalType": "struct IDelegationManager.WithdrawerAndNonce",
          "name": "withdrawerAndNonce",
          "type": "tuple"
        },
        {
          "internalType": "address",
          "name": "delegatedAddress",
          "type": "address"
        }
      ],
      "stateMutability": "view",
      "type": "function"
    }
  ],
  "transactionHash": "0xd5cbe177e4c695e68cfb0d6868dc4f2117dab1a6c54fdfa0a3bd90cf27b1f911",
  "args": [],
  "numDeployments": 1,
  "solcInputHash": "7dffbc8e64f2df3f20de6753db9c43ad",
  "bytecode": "0x60806040523480156200001157600080fd5b5060cd80546001600160a01b03191690556200002c62000032565b620000f4565b600054610100900460ff16156200009f5760405162461bcd60e51b815260206004820152602760248201527f496e697469616c697a61626c653a20636f6e747261637420697320696e697469604482015266616c697a696e6760c81b606482015260840160405180910390fd5b60005460ff9081161015620000f2576000805460ff191660ff9081179091556040519081527f7f26b83ff96e1f2b6a682f133852f6798a09c465da95921460cefb38474024989060200160405180910390a15b565b61531580620001046000396000f3fe6080604052600436106103a25760003560e01c80638f6a6240116101e7578063cc2a9a5b1161010d578063ea4d3c9b116100a0578063f47c83c51161006f578063f47c83c51461052f578063f5cf673b14610b7b578063f756fa2114610b9b578063fee17dd514610bb057600080fd5b8063ea4d3c9b14610afb578063f2bd740014610b1b578063f2fde38b14610b3b578063f3e7387514610b5b57600080fd5b8063d9caed12116100dc578063d9caed1214610a65578063df5cf72314610a85578063e3dae51c14610aa5578063ea0c8c2f14610ac557600080fd5b8063cc2a9a5b146109cf578063ce7c2ac2146109ef578063d323041d14610a0f578063d58ecaaa14610a2f57600080fd5b8063ac637c7a11610185578063bbb26c6311610154578063bbb26c6314610950578063c3a82e1114610962578063c665c35a1461098f578063c8b6cbf7146109af57600080fd5b8063ac637c7a146108ce578063b1bbdc41146108ee578063b3fc1cb21461090e578063b6b55f251461093057600080fd5b8063965a303f116101c1578063965a303f14610859578063a458413a14610879578063a91d58b414610899578063ab5921e1146108b957600080fd5b80638f6a62401461080457806390ed6bf41461082457806395cf5bea1461083957600080fd5b806357b0f05f116102cc578063740efec31161026a5780638340f549116102395780638340f549146107705780638c871019146107905780638d23fc61146107b05780638da5cb5b146107e657600080fd5b8063740efec3146106735780637a8b2637146106885780637a9262a2146106a8578063829673ef1461072a57600080fd5b806360ac5166116102a657806360ac5166146106095780636dd300b5146106295780636eae5b1114610649578063715018a61461065e57600080fd5b806357b0f05f146105b15780635887c33c146105d15780635c975abb146105f157600080fd5b80633a98ef3911610344578063412cdd2c11610313578063412cdd2c1461052f578063490ab9d61461054f578063553ca5f8146105715780635716d17c1461059157600080fd5b80633a98ef39146104b65780633c86a42f146104da5780633cb747bf146104fa5780633ccfd60b1461051a57600080fd5b80632495a599116103805780632495a5991461042457806326a4e8d21461045c578063289087ba1461047c57806329f134311461049657600080fd5b8063111b8c02146103a757806313e7c9d8146103be57806314bfb527146103f4575b600080fd5b3480156103b357600080fd5b506103bc610bc5565b005b3480156103ca57600080fd5b506103de6103d93660046143c9565b610bdb565b6040516103eb9190614442565b60405180910390f35b34801561040057600080fd5b5061041461040f3660046143c9565b610c75565b60405190151581526020016103eb565b34801561043057600080fd5b5060ca54610444906001600160a01b031681565b6040516001600160a01b0390911681526020016103eb565b34801561046857600080fd5b506103bc6104773660046143c9565b610d7d565b34801561048857600080fd5b5060dd546104149060ff1681565b3480156104a257600080fd5b506103bc6104b1366004614455565b610dcd565b3480156104c257600080fd5b506104cc60cb5481565b6040519081526020016103eb565b3480156104e657600080fd5b506103bc6104f53660046143c9565b610eef565b34801561050657600080fd5b5060cd54610444906001600160a01b031681565b34801561052657600080fd5b506103bc610f3f565b34801561053b57600080fd5b506103bc61054a3660046145fd565b505050565b34801561055b57600080fd5b506105646114d5565b6040516103eb9190614673565b34801561057d57600080fd5b506104cc61058c3660046143c9565b611537565b34801561059d57600080fd5b5060cf54610444906001600160a01b031681565b3480156105bd57600080fd5b506104446105cc3660046146c0565b61154b565b3480156105dd57600080fd5b506103bc6105ec366004614722565b611575565b3480156105fd57600080fd5b5060975460ff16610414565b34801561061557600080fd5b506103bc6106243660046143c9565b6117df565b34801561063557600080fd5b506103bc61064436600461478e565b61182f565b34801561065557600080fd5b506103bc6119e4565b34801561066a57600080fd5b506103bc611b92565b34801561067f57600080fd5b506103bc611ba4565b34801561069457600080fd5b506104cc6106a33660046146c0565b611efe565b3480156106b457600080fd5b5061071b6106c33660046143c9565b60d8602090815260009182526040918290206003810154835180850190945260048201546001600160a01b038082168652600160a01b9091046001600160601b03169385019390935260059091015490821692911683565b6040516103eb93929190614838565b34801561073657600080fd5b50610414610745366004614868565b600091825260d5602090815260408084206001600160a01b0393909316845291905290205460ff1690565b34801561077c57600080fd5b506104cc61078b366004614898565b611f34565b34801561079c57600080fd5b506104cc6107ab3660046146c0565b6120a3565b3480156107bc57600080fd5b506104446107cb3660046143c9565b60da602052600090815260409020546001600160a01b031681565b3480156107f257600080fd5b506033546001600160a01b0316610444565b34801561081057600080fd5b506104cc61081f3660046143c9565b6120ae565b34801561083057600080fd5b506103bc6120bc565b34801561084557600080fd5b506103bc6108543660046148d9565b61217a565b34801561086557600080fd5b5060d054610444906001600160a01b031681565b34801561088557600080fd5b506104146108943660046143c9565b6121e8565b3480156108a557600080fd5b506103bc6108b43660046148d9565b61226d565b3480156108c557600080fd5b506103de61238f565b3480156108da57600080fd5b506103bc6108e93660046143c9565b6123af565b3480156108fa57600080fd5b506103bc61090936600461478e565b6123e1565b34801561091a57600080fd5b506109236127b6565b6040516103eb919061491b565b34801561093c57600080fd5b506104cc61094b3660046146c0565b6127f0565b6103bc61095e36600461494c565b5050565b34801561096e57600080fd5b506104cc61097d3660046143c9565b60d76020526000908152604090205481565b34801561099b57600080fd5b5060d654610444906001600160a01b031681565b3480156109bb57600080fd5b506104446109ca36600461494c565b612888565b3480156109db57600080fd5b506103bc6109ea366004614978565b6128c0565b3480156109fb57600080fd5b506104cc610a0a3660046143c9565b612a5d565b348015610a1b57600080fd5b5060ce54610444906001600160a01b031681565b348015610a3b57600080fd5b50610444610a4a3660046143c9565b60db602052600090815260409020546001600160a01b031681565b348015610a7157600080fd5b506103bc610a80366004614898565b612ae0565b348015610a9157600080fd5b5060cc54610444906001600160a01b031681565b348015610ab157600080fd5b506104cc610ac03660046146c0565b612ce2565b348015610ad157600080fd5b50610444610ae03660046143c9565b60dc602052600090815260409020546001600160a01b031681565b348015610b0757600080fd5b5060c954610444906001600160a01b031681565b348015610b2757600080fd5b506104cc610b363660046146c0565b612d27565b348015610b4757600080fd5b506103bc610b563660046143c9565b612d3e565b348015610b6757600080fd5b506104cc610b763660046146c0565b612db7565b348015610b8757600080fd5b506103bc610b963660046149fa565b612dc2565b348015610ba757600080fd5b506103bc613068565b348015610bbc57600080fd5b506104146133c6565b610bcd6135f9565b610bd960d26000614253565b565b60d16020526000908152604090208054610bf490614a28565b80601f0160208091040260200160405190810160405280929190818152602001828054610c2090614a28565b8015610c6d5780601f10610c4257610100808354040283529160200191610c6d565b820191906000526020600020905b815481529060010190602001808311610c5057829003601f168201915b505050505081565b60ce546001600160a01b03828116600090815260d16020526040808220905163152eee4560e21b81529193849316916354bbb91491610cb691600401614a5d565b600060405180830381600087803b158015610cd057600080fd5b505af1158015610ce4573d6000803e3d6000fd5b505050506040513d6000823e601f3d908101601f19168201604052610d0c9190810190614b28565b805151909150604014610d5d5760405162461bcd60e51b81526020600482015260146024820152731d1cdcc81b595b58995c881b9bdd08195e1a5cdd60621b60448201526064015b60405180910390fd5b600181604001516001811115610d7557610d75614c07565b149392505050565b610d856135f9565b6001600160a01b038116610dab5760405162461bcd60e51b8152600401610d5490614c1d565b60ca80546001600160a01b0319166001600160a01b0392909216919091179055565b610dd56135f9565b8035602082013511610e3d5760405162461bcd60e51b815260206004820152602b60248201527f696e76616c696420706172616d20736c617368416d6f756e742c20616e696d7560448201526a73203c3d20757074696d6560a81b6064820152608401610d54565b60005b6002811015610ede576000828260028110610e5d57610e5d614c46565b602002013511610ea05760405162461bcd60e51b815260206004820152600e60248201526d1a5b9d985b1a5908185b5bdd5b9d60921b6044820152606401610d54565b818160028110610eb257610eb2614c46565b602002013560d38260028110610eca57610eca614c46565b015580610ed681614c72565b915050610e40565b505060dd805460ff19166001179055565b610ef76135f9565b6001600160a01b038116610f1d5760405162461bcd60e51b8152600401610d5490614c1d565b60d680546001600160a01b0319166001600160a01b0392909216919091179055565b60cc54604051633e28391d60e01b81523360048201526001600160a01b0390911690633e28391d9060240160206040518083038186803b158015610f8257600080fd5b505afa158015610f96573d6000803e3d6000fd5b505050506040513d601f19601f82011682018060405250810190610fba9190614c8d565b610ff65760405162461bcd60e51b815260206004820152600d60248201526c3737ba103232b632b3b0ba37b960991b6044820152606401610d54565b33600090815260d760205260409020541561105f5760405162461bcd60e51b8152602060048201526024808201527f6d73672073656e64657220616c726561647920726571756573742077697468646044820152637261777360e01b6064820152608401610d54565b6040805160018082528183019092526000916020808301908036833701905050905060008160008151811061109657611096614c46565b602090810291909101015260408051600180825281830190925260009181602001602082028036833701905050905030816000815181106110d9576110d9614c46565b6001600160a01b039290921660209283029190910190910152604080516001808252818301909252600091816020016020820280368337505060ca5482519293506001600160a01b03169183915060009061113657611136614c46565b6001600160a01b03929092166020928302919091019091015260408051600180825281830190925260009181602001602082028036833701905050905061117c33612a5d565b8160008151811061118f5761118f614c46565b602090810291909101015260cf546040516329f0dcef60e21b81523360048201526000916001600160a01b03169063a7c373bc9060240160206040518083038186803b1580156111de57600080fd5b505afa1580156111f2573d6000803e3d6000fd5b505050506040513d601f19601f820116820180604052508101906112169190614caf565b905060006040518060400160405280336001600160a01b0316815260200161123d84613653565b6001600160601b0316905260cc54604051631976849960e21b81523360048201529192506000916001600160a01b03909116906365da12649060240160206040518083038186803b15801561129157600080fd5b505afa1580156112a5573d6000803e3d6000fd5b505050506040513d601f19601f820116820180604052508101906112c99190614cc8565b6040805160c08101825288815260208082018990528183018890523360608301819052608083018790526001600160a01b03851660a0840152600090815260d88252929092208151805194955091938493919261132a928492910190614271565b5060208281015180516113439260018501920190614271565b506040820151805161135f9160028401916020909101906142d2565b5060608201516003820180546001600160a01b039283166001600160a01b031991821617909155608084015180516020909101516001600160601b0316600160a01b029083161760048085019190915560a09094015160059093018054938316939091169290921790915560cf5460405163529075a560e01b8152600093919092169163529075a5916113fe9133918e918e918e918e918d9101614d59565b602060405180830381600087803b15801561141857600080fd5b505af115801561142c573d6000803e3d6000fd5b505050506040513d601f19601f820116820180604052508101906114509190614caf565b33600081815260d76020526040812083905588519293507f784199bc7528da846b1da87aeba29604de8f22a93e73379d5d1c7282fa3c727f9289919061149857611498614c46565b60200260200101516040516114c29291906001600160a01b03929092168252602082015260400190565b60405180910390a1505050505050505050565b606060d280548060200260200160405190810160405280929190818152602001828054801561152d57602002820191906000526020600020905b81546001600160a01b0316815260019091019060200180831161150f575b5050505050905090565b60006115456106a383612a5d565b92915050565b60d2818154811061155b57600080fd5b6000918252602090912001546001600160a01b0316905081565b600260655414156115985760405162461bcd60e51b8152600401610d5490614dc7565b600260655560006115ab84860186614e09565b90506115ba8160200151610c75565b156116075760405162461bcd60e51b815260206004820152601760248201527f746865206e6f646520616c7265616479206a61696c65640000000000000000006044820152606401610d54565b8051600090815260d560209081526040808320828501516001600160a01b0316845290915290205460ff16156116715760405162461bcd60e51b815260206004820152600f60248201526e185b1c9958591e481cdb185cda1959608a1b6044820152606401610d54565b8051600090815260d560209081526040808320828501516001600160a01b039081168552925291829020805460ff1916600117905560ce549151911690633231a7f0906116c19088908890614f01565b6040519081900381206001600160e01b031960e084901b1682526116eb9187908790600401614f11565b602060405180830381600087803b15801561170557600080fd5b505af1158015611719573d6000803e3d6000fd5b505050506040513d601f19601f8201168201806040525081019061173d9190614c8d565b6117895760405162461bcd60e51b815260206004820152601c60248201527f7369676e6572206e6f74207473732067726f757020707562206b6579000000006044820152606401610d54565b611792816136bf565b7f9453459a6e9fa2069f1490c99cec15646afa157300f218a7f7840b23d09dbd3e816020015182606001516040516117cb929190614f47565b60405180910390a150506001606555505050565b6117e76135f9565b6001600160a01b03811661180d5760405162461bcd60e51b8152600401610d5490614c1d565b60ce80546001600160a01b0319166001600160a01b0392909216919091179055565b60cc546001600160a01b031633146118595760405162461bcd60e51b8152600401610d5490614f82565b8151600181146118a55760405162461bcd60e51b815260206004820152601760248201527664656c65676174696f6e206f6e6c7920666f722074737360481b6044820152606401610d54565b81516001146118f65760405162461bcd60e51b815260206004820152601d60248201527f64656c65676174696f6e207368617265206f6e6c7920666f72207473730000006044820152606401610d54565b306001600160a01b03168360008151811061191357611913614c46565b60200260200101516001600160a01b03161461196d5760405162461bcd60e51b81526020600482015260196024820152781b5d5cdd081d5cd94818dd5c9c995b9d0818dbdb9d1c9858dd603a1b6044820152606401610d54565b6001600160a01b03858116600090815260da6020526040902054166119dd576001600160a01b03808616600081815260da602090815260408083208054958a166001600160a01b03199687168117909155835260d982528220805460018101825590835291200180549092161790555b5050505050565b60dd5460ff16611a365760405162461bcd60e51b815260206004820152601d60248201527f68617665206e6f74207365742074686520736c61736820616d6f756e740000006044820152606401610d54565b6000611a4061391f565b905060d36001015460cb5460cc5460405163778e55f360e01b815284916001600160a01b03169063778e55f390611a7d9033903090600401614fcb565b60206040518083038186803b158015611a9557600080fd5b505afa158015611aa9573d6000803e3d6000fd5b505050506040513d601f19601f82011682018060405250810190611acd9190614caf565b611ad79190614fe5565b611ae19190615004565b1015611b265760405162461bcd60e51b8152602060048201526014602482015273496e73756666696369656e742062616c616e636560601b6044820152606401610d54565b60ce5433600090815260d160205260409081902090516310a7b12760e21b81526001600160a01b039092169163429ec49c91611b6491600401614a5d565b600060405180830381600087803b158015611b7e57600080fd5b505af11580156119dd573d6000803e3d6000fd5b611b9a6135f9565b610bd960006139a0565b60026065541415611bc75760405162461bcd60e51b8152600401610d5490614dc7565b600260655560cc5460405163778e55f360e01b81526000916001600160a01b03169063778e55f390611bff9033903090600401614fcb565b60206040518083038186803b158015611c1757600080fd5b505afa158015611c2b573d6000803e3d6000fd5b505050506040513d601f19601f82011682018060405250810190611c4f9190614caf565b11611c925760405162461bcd60e51b8152602060048201526013602482015272191bc81b9bdd081a185d994819195c1bdcda5d606a1b6044820152606401610d54565b60ce5433600090815260d16020526040908190209051630243371760e51b81526001600160a01b0390921691634866e2e091611cd091600401614a5d565b602060405180830381600087803b158015611cea57600080fd5b505af1158015611cfe573d6000803e3d6000fd5b505050506040513d601f19601f82011682018060405250810190611d229190614c8d565b80611db8575060ce5433600090815260d16020526040908190209051635e5e2fe360e11b81526001600160a01b039092169163bcbc5fc691611d6691600401614a5d565b602060405180830381600087803b158015611d8057600080fd5b505af1158015611d94573d6000803e3d6000fd5b505050506040513d601f19601f82011682018060405250810190611db89190614c8d565b611e165760405162461bcd60e51b815260206004820152602960248201527f6e6f742061742074686520696e6163746976652067726f7570206f722061637460448201526806976652067726f75760bc1b6064820152608401610d54565b60005b60d254811015611eb557336001600160a01b031660d28281548110611e4057611e40614c46565b6000918252602090912001546001600160a01b03161415611ea35760405162461bcd60e51b815260206004820152601a60248201527f616c726561647920696e2071756974526571756573744c6973740000000000006044820152606401610d54565b80611ead81614c72565b915050611e19565b5060d28054600181810183556000929092527ff2192e1030363415d7b4fb0406540a0060e8e2fc8982f3f32289379e11fa65460180546001600160a01b03191633179055606555565b600060cb5460001415611f0f575090565b60cb5482611f1b61391f565b611f259190614fe5565b6115459190615004565b919050565b6000611f3e6139f2565b60c9546001600160a01b03163314611f685760405162461bcd60e51b8152600401610d5490614f82565b60ca546001600160a01b03848116911614611feb5760405162461bcd60e51b815260206004820152603d60248201527f44656c65676174696f6e5368617265426173652e6465706f7369743a2043616e60448201527f206f6e6c79206465706f73697420756e6465726c79696e67546f6b656e0000006064820152608401610d54565b600082611ff661391f565b6120009190615026565b905080158061200f575060cb54155b1561201c57829150612038565b8060cb548461202b9190614fe5565b6120359190615004565b91505b8160cb600082825461204a919061503d565b9091555050604080516001600160a01b038088168252861660208201529081018490527f5548c837ab068cf56a2c2479df0882a4922fd203edb7517321831d95078c5f629060600160405180910390a1505b9392505050565b600061154582612ce2565b6000611545610b7683612a5d565b33600090815260d760205260409020546121275760405162461bcd60e51b815260206004820152602660248201527f6d73672073656e646572206d757374207265717565737420776974686472617760448201526508199a5c9cdd60d21b6064820152608401610d54565b33600081815260d760205260408082205460cf5491516331f8ee6760e11b8152600481018290526024810194909452604484019290925290916001600160a01b03909116906363f1dcce90606401611b64565b60d0546040516311a38c8560e01b81526001600160a01b03909116906311a38c85906121ac9030903390600401614fcb565b600060405180830381600087803b1580156121c657600080fd5b505af11580156121da573d6000803e3d6000fd5b5050505061095e828261226d565b60cf546040516358775aaf60e11b81526000916001600160a01b03169063b0eeb55e9061221b9085903090600401614fcb565b602060405180830381600087803b15801561223557600080fd5b505af1158015612249573d6000803e3d6000fd5b505050506040513d601f19601f820116820180604052508101906115459190614c8d565b600260655414156122905760405162461bcd60e51b8152600401610d5490614dc7565b600260655560cc546040516336b87bd760e11b81523360048201526001600160a01b0390911690636d70f7ae9060240160206040518083038186803b1580156122d857600080fd5b505afa1580156122ec573d6000803e3d6000fd5b505050506040513d601f19601f820116820180604052508101906123109190614c8d565b61236b5760405162461bcd60e51b815260206004820152602660248201527f6d73672073656e64657220686173206e6f742072656769737465726564206f7060448201526532b930ba37b960d11b6064820152608401610d54565b33600090815260d16020526040902061238590838361430d565b5050600160655550565b606060405180608001604052806048815260200161529860489139905090565b60d05460405163438bb7e560e01b81526001600160a01b039091169063438bb7e590611b649084903390600401614fcb565b60cc546001600160a01b0316331461240b5760405162461bcd60e51b8152600401610d5490614f82565b8151600181146124575760405162461bcd60e51b815260206004820152601760248201527664656c65676174696f6e206f6e6c7920666f722074737360481b6044820152606401610d54565b81516001146124a85760405162461bcd60e51b815260206004820152601d60248201527f64656c65676174696f6e207368617265206f6e6c7920666f72207473730000006044820152606401610d54565b306001600160a01b0316836000815181106124c5576124c5614c46565b60200260200101516001600160a01b03161461251f5760405162461bcd60e51b81526020600482015260196024820152781b5d5cdd081d5cd94818dd5c9c995b9d0818dbdb9d1c9858dd603a1b6044820152606401610d54565b8160008151811061253257612532614c46565b602002602001015160cf60009054906101000a90046001600160a01b03166001600160a01b03166305579ccc878660008151811061257257612572614c46565b60200260200101516040518363ffffffff1660e01b8152600401612597929190614fcb565b60206040518083038186803b1580156125af57600080fd5b505afa1580156125c3573d6000803e3d6000fd5b505050506040513d601f19601f820116820180604052508101906125e79190614caf565b14156119dd576001600160a01b038416600090815260d9602090815260408083208054825181850281018501909352808352919290919083018282801561265757602002820191906000526020600020905b81546001600160a01b03168152600190910190602001808311612639575b5050505050905060005b81518110156127ad57866001600160a01b031682828151811061268657612686614c46565b60200260200101516001600160a01b0316141561279b576001600160a01b038616600090815260d96020526040902082516126c390600190615026565b815481106126d3576126d3614c46565b60009182526020808320909101546001600160a01b03898116845260d9909252604090922080549190921691908390811061271057612710614c46565b600091825260208083209190910180546001600160a01b0319166001600160a01b03948516179055918816815260d99091526040902080548061275557612755615055565b60008281526020808220830160001990810180546001600160a01b031990811690915593019093556001600160a01b038a16815260da9092526040909120805490911690555b806127a581614c72565b915050612661565b50505050505050565b6127be614381565b60408051808201918290529060d39060029082845b8154815260200190600101908083116127d3575050505050905090565b60cf5460ca54604051631abeb0d960e01b81523060048201526001600160a01b0391821660248201526044810184905233606482015260009283921690631abeb0d990608401602060405180830381600087803b15801561285057600080fd5b505af1158015612864573d6000803e3d6000fd5b505050506040513d601f19601f8201168201806040525081019061209c9190614caf565b60d960205281600052604060002081815481106128a457600080fd5b6000918252602090912001546001600160a01b03169150829050565b600054610100900460ff16158080156128e05750600054600160ff909116105b806128fa5750303b1580156128fa575060005460ff166001145b61295d5760405162461bcd60e51b815260206004820152602e60248201527f496e697469616c697a61626c653a20636f6e747261637420697320616c72656160448201526d191e481a5b9a5d1a585b1a5e995960921b6064820152608401610d54565b6000805460ff191660011790558015612980576000805461ff0019166101001790555b612988613a38565b612990613a67565b60ca80546001600160a01b03808a166001600160a01b03199283161790925560ce805489841690831617905560cf8054888416908316811790915560d08054888516908416811790915560c98054841690921790915560cc80548316909117905560cd805486841690831617905560d680549285169290911691909117905580156127ad576000805461ff0019169055604051600181527f7f26b83ff96e1f2b6a682f133852f6798a09c465da95921460cefb38474024989060200160405180910390a150505050505050565b60c954604051634e5b005d60e11b81526000916001600160a01b031690639cb600ba90612a909085903090600401614fcb565b60206040518083038186803b158015612aa857600080fd5b505afa158015612abc573d6000803e3d6000fd5b505050506040513d601f19601f820116820180604052508101906115459190614caf565b612ae86139f2565b60c9546001600160a01b03163314612b125760405162461bcd60e51b8152600401610d5490614f82565b60ca546001600160a01b03838116911614612ba05760405162461bcd60e51b815260206004820152604260248201527f44656c65676174696f6e5368617265426173652e77697468647261773a20436160448201527f6e206f6e6c792077697468647261772074686520737472617465677920746f6b60648201526132b760f11b608482015260a401610d54565b60cb54811115612c355760405162461bcd60e51b815260206004820152605460248201527f44656c65676174696f6e5368617265426173652e77697468647261773a20616d60448201527f6f756e74536861726573206d757374206265206c657373207468616e206f7220606482015273657175616c20746f20746f74616c53686172657360601b608482015260a401610d54565b60cb8054828103909155600082821415612c5857612c5161391f565b9050612c79565b8183612c6261391f565b612c6c9190614fe5565b612c769190615004565b90505b60ca54612c90906001600160a01b03168683613a96565b604080516001600160a01b038088168252861660208201529081018290527f9b1bfa7fa9ee420a16e124f794c35ac9f90472acc99140eb2f6447c714cad8eb9060600160405180910390a15050505050565b600080612ced61391f565b9050801580612cfc575060cb54155b15612d08575090919050565b8060cb5484612d179190614fe5565b61209c9190615004565b50919050565b60d38160028110612d3757600080fd5b0154905081565b612d466135f9565b6001600160a01b038116612dab5760405162461bcd60e51b815260206004820152602660248201527f4f776e61626c653a206e6577206f776e657220697320746865207a65726f206160448201526564647265737360d01b6064820152608401610d54565b612db4816139a0565b50565b600061154582611efe565b336001600160a01b03831614612e2b5760405162461bcd60e51b815260206004820152602860248201527f6d73672073656e64657220697320646966662077697468206f70657261746f72604482015267206164647265737360c01b6064820152608401610d54565b60cc546040516336b87bd760e11b81523360048201526001600160a01b0390911690636d70f7ae9060240160206040518083038186803b158015612e6e57600080fd5b505afa158015612e82573d6000803e3d6000fd5b505050506040513d601f19601f82011682018060405250810190612ea69190614c8d565b612f005760405162461bcd60e51b815260206004820152602560248201527f6d73672073656e646572206973206e6f742072656769737465726564206f70656044820152643930ba37b960d91b6064820152608401610d54565b6001600160a01b03818116600090815260dc60205260409020541615612f685760405162461bcd60e51b815260206004820152601960248201527f74686520636c61696d657220686173206265656e2075736564000000000000006044820152606401610d54565b6001600160a01b03828116600090815260db60205260409020541615612fbe576001600160a01b03808316600090815260db6020908152604080832054909316825260dc90522080546001600160a01b03191690555b6001600160a01b03808316600081815260db6020908152604080832080549587166001600160a01b03199687168117909155835260dc90915280822080549094169092179092555163f5cf673b60e01b9061301f9085908590602401614fcb565b60408051601f198184030181529190526020810180516001600160e01b03166001600160e01b031990931692909217909152905061054a6020602160991b01621e848083613ae8565b33600090815260d760205260409020546130945760405162461bcd60e51b8152600401610d549061506b565b33600090815260d8602090815260408083208151815460e09481028201850190935260c081018381529093919284928491908401828280156130ff57602002820191906000526020600020905b81546001600160a01b031681526001909101906020018083116130e1575b505050505081526020016001820180548060200260200160405190810160405280929190818152602001828054801561316157602002820191906000526020600020905b81546001600160a01b03168152600190910190602001808311613143575b50505050508152602001600282018054806020026020016040519081016040528092919081815260200182805480156131b957602002820191906000526020600020905b8154815260200190600101908083116131a5575b505050918352505060038201546001600160a01b039081166020808401919091526040805180820182526004808701548086168352600160a01b90046001600160601b03169382019390935281850152600590940154821660609093019290925260c95492516329a8131760e11b81529394509190911691635350262e916132439185910161513a565b602060405180830381600087803b15801561325d57600080fd5b505af1158015613271573d6000803e3d6000fd5b505050506040513d601f19601f820116820180604052508101906132959190614c8d565b6132ef5760405162461bcd60e51b815260206004820152602560248201527f5468652077616974696e6720706572696f6420686173206e6f74207965742070604482015264185cdcd95960da1b6064820152608401610d54565b60cf5460405163218c446b60e21b81526001600160a01b039091169063863111ac90613324903390859060019060040161514d565b600060405180830381600087803b15801561333e57600080fd5b505af1158015613352573d6000803e3d6000fd5b505033600090815260d76020908152604080832083905560d890915281209250905061337e8282614253565b61338c600183016000614253565b61339a600283016000614253565b506003810180546001600160a01b03199081169091556000600483015560059091018054909116905550565b33600090815260d760205260408120546133f25760405162461bcd60e51b8152600401610d549061506b565b33600090815260d8602090815260408083208151815460e09481028201850190935260c0810183815290939192849284919084018282801561345d57602002820191906000526020600020905b81546001600160a01b0316815260019091019060200180831161343f575b50505050508152602001600182018054806020026020016040519081016040528092919081815260200182805480156134bf57602002820191906000526020600020905b81546001600160a01b031681526001909101906020018083116134a1575b505050505081526020016002820180548060200260200160405190810160405280929190818152602001828054801561351757602002820191906000526020600020905b815481526020019060010190808311613503575b505050918352505060038201546001600160a01b039081166020808401919091526040805180820182526004808701548086168352600160a01b90046001600160601b03169382019390935281850152600590940154821660609093019290925260c95492516329a8131760e11b81529394509190911691635350262e916135a19185910161513a565b602060405180830381600087803b1580156135bb57600080fd5b505af11580156135cf573d6000803e3d6000fd5b505050506040513d601f19601f820116820180604052508101906135f39190614c8d565b91505090565b6033546001600160a01b03163314610bd95760405162461bcd60e51b815260206004820181905260248201527f4f776e61626c653a2063616c6c6572206973206e6f7420746865206f776e65726044820152606401610d54565b60006001600160601b038211156136bb5760405162461bcd60e51b815260206004820152602660248201527f53616665436173743a2076616c756520646f65736e27742066697420696e203960448201526536206269747360d01b6064820152608401610d54565b5090565b60dd5460ff166137115760405162461bcd60e51b815260206004820152601d60248201527f68617665206e6f74207365742074686520736c61736820616d6f756e740000006044820152606401610d54565b6020808201516001600160a01b0316600090815260d190915260408120805461373990614a28565b80601f016020809104026020016040519081016040528092919081815260200182805461376590614a28565b80156137b25780601f10613787576101008083540402835291602001916137b2565b820191906000526020600020905b81548152906001019060200180831161379557829003601f168201915b50939450600093506137c392505050565b826060015160018111156137d9576137d9614c07565b14156138505760ce5460405163254ff98160e01b81526001600160a01b039091169063254ff9819061380f908490600401614442565b600060405180830381600087803b15801561382957600080fd5b505af115801561383d573d6000803e3d6000fd5b5050505061095e82602001516000613b4a565b60018260600151600181111561386857613868614c07565b14156138df5760ce5460405163254ff98160e01b81526001600160a01b039091169063254ff9819061389e908490600401614442565b600060405180830381600087803b1580156138b857600080fd5b505af11580156138cc573d6000803e3d6000fd5b5050505061095e82602001516001613b4a565b60405162461bcd60e51b8152602060048201526015602482015274657272207479706520666f7220736c617368696e6760581b6044820152606401610d54565b60ca546040516370a0823160e01b81523060048201526000916001600160a01b0316906370a082319060240160206040518083038186803b15801561396357600080fd5b505afa158015613977573d6000803e3d6000fd5b505050506040513d601f19601f8201168201806040525081019061399b9190614caf565b905090565b603380546001600160a01b038381166001600160a01b0319831681179093556040519116919082907f8be0079c531659141344cd1fd0a4f28419497f9722a3daafe3b4186f6b6457e090600090a35050565b60975460ff1615610bd95760405162461bcd60e51b815260206004820152601060248201526f14185d5cd8589b194e881c185d5cd95960821b6044820152606401610d54565b600054610100900460ff16613a5f5760405162461bcd60e51b8152600401610d5490615183565b610bd9613fab565b600054610100900460ff16613a8e5760405162461bcd60e51b8152600401610d5490615183565b610bd9613fdb565b604080516001600160a01b038416602482015260448082018490528251808303909101815260649091019091526020810180516001600160e01b031663a9059cbb60e01b17905261054a908490614009565b60cd54604051633dbb202b60e01b81526001600160a01b0390911690633dbb202b90613b1c908690859087906004016151ce565b600060405180830381600087803b158015613b3657600080fd5b505af11580156127ad573d6000803e3d6000fd5b600080613b5561391f565b905060d38360028110613b6a57613b6a614c46565b015460cb5460cc5460405163778e55f360e01b815284916001600160a01b03169063778e55f390613ba1908a903090600401614fcb565b60206040518083038186803b158015613bb957600080fd5b505afa158015613bcd573d6000803e3d6000fd5b505050506040513d601f19601f82011682018060405250810190613bf19190614caf565b613bfb9190614fe5565b613c059190615004565b1015613c535760405162461bcd60e51b815260206004820152601a60248201527f646f206e6f74206861766520656e6f75676874207368617265730000000000006044820152606401610d54565b8060cb5460d38560028110613c6a57613c6a614c46565b0154613c769190614fe5565b613c809190615004565b60cc5460405163778e55f360e01b81529193506000916001600160a01b039091169063778e55f390613cb89088903090600401614fcb565b60206040518083038186803b158015613cd057600080fd5b505afa158015613ce4573d6000803e3d6000fd5b505050506040513d601f19601f82011682018060405250810190613d089190614caf565b60408051600180825281830190925291925060009190602080830190803683370190505090503081600081518110613d4257613d42614c46565b6001600160a01b039290921660209283029190910190910152604080516001808252818301909252600091816020016020820280368337019050509050600081600081518110613d9457613d94614c46565b6020908102919091010152604080516001808252818301909252600091816020016020820280368337505060ca5482519293506001600160a01b031691839150600090613de357613de3614c46565b6001600160a01b03928316602091820292909201810191909152908916600090815260d9825260408082208054825181860281018601909352808352929391929091830182828015613e5e57602002820191906000526020600020905b81546001600160a01b03168152600190910190602001808311613e40575b5050505050905060005b8151811015613f9f576000613e95838381518110613e8857613e88614c46565b6020026020010151612a5d565b604080516001808252818301909252919250600091906020808301908036833701905050905087613ec6838c614fe5565b613ed09190615004565b81600081518110613ee357613ee3614c46565b602090810291909101015260cf5484516001600160a01b03909116906306f1f68490869086908110613f1757613f17614c46565b602090810291909101015160d6546040516001600160e01b031960e085901b168152613f5892916001600160a01b0316908c908b908d908990600401615208565b600060405180830381600087803b158015613f7257600080fd5b505af1158015613f86573d6000803e3d6000fd5b5050505050508080613f9790614c72565b915050613e68565b50505050505050505050565b600054610100900460ff16613fd25760405162461bcd60e51b8152600401610d5490615183565b610bd9336139a0565b600054610100900460ff166140025760405162461bcd60e51b8152600401610d5490615183565b6001606555565b600061405e826040518060400160405280602081526020017f5361666545524332303a206c6f772d6c6576656c2063616c6c206661696c6564815250856001600160a01b03166140db9092919063ffffffff16565b80519091501561054a578080602001905181019061407c9190614c8d565b61054a5760405162461bcd60e51b815260206004820152602a60248201527f5361666545524332303a204552433230206f7065726174696f6e20646964206e6044820152691bdd081cdd58d8d9595960b21b6064820152608401610d54565b60606140ea84846000856140f2565b949350505050565b6060824710156141535760405162461bcd60e51b815260206004820152602660248201527f416464726573733a20696e73756666696369656e742062616c616e636520666f6044820152651c8818d85b1b60d21b6064820152608401610d54565b843b6141a15760405162461bcd60e51b815260206004820152601d60248201527f416464726573733a2063616c6c20746f206e6f6e2d636f6e74726163740000006044820152606401610d54565b600080866001600160a01b031685876040516141bd919061527b565b60006040518083038185875af1925050503d80600081146141fa576040519150601f19603f3d011682016040523d82523d6000602084013e6141ff565b606091505b509150915061420f82828661421a565b979650505050505050565b6060831561422957508161209c565b8251156142395782518084602001fd5b8160405162461bcd60e51b8152600401610d549190614442565b5080546000825590600052602060002090810190612db4919061439f565b8280548282559060005260206000209081019282156142c6579160200282015b828111156142c657825182546001600160a01b0319166001600160a01b03909116178255602090920191600190910190614291565b506136bb92915061439f565b8280548282559060005260206000209081019282156142c6579160200282015b828111156142c65782518255916020019190600101906142f2565b82805461431990614a28565b90600052602060002090601f01602090048101928261433b57600085556142c6565b82601f106143545782800160ff198235161785556142c6565b828001600101855582156142c6579182015b828111156142c6578235825591602001919060010190614366565b60405180604001604052806002906020820280368337509192915050565b5b808211156136bb57600081556001016143a0565b6001600160a01b0381168114612db457600080fd5b6000602082840312156143db57600080fd5b813561209c816143b4565b60005b838110156144015781810151838201526020016143e9565b83811115614410576000848401525b50505050565b6000815180845261442e8160208601602086016143e6565b601f01601f19169290920160200192915050565b60208152600061209c6020830184614416565b60006040828403121561446757600080fd5b82604083011115612d2157600080fd5b634e487b7160e01b600052604160045260246000fd5b6040516060810167ffffffffffffffff811182821017156144b0576144b0614477565b60405290565b6040516080810167ffffffffffffffff811182821017156144b0576144b0614477565b604051601f8201601f1916810167ffffffffffffffff8111828210171561450257614502614477565b604052919050565b600067ffffffffffffffff82111561452457614524614477565b5060051b60200190565b600082601f83011261453f57600080fd5b8135602061455461454f8361450a565b6144d9565b82815260059290921b8401810191818101908684111561457357600080fd5b8286015b8481101561459757803561458a816143b4565b8352918301918301614577565b509695505050505050565b600082601f8301126145b357600080fd5b813560206145c361454f8361450a565b82815260059290921b840181019181810190868411156145e257600080fd5b8286015b8481101561459757803583529183019183016145e6565b60008060006060848603121561461257600080fd5b833561461d816143b4565b9250602084013567ffffffffffffffff8082111561463a57600080fd5b6146468783880161452e565b9350604086013591508082111561465c57600080fd5b50614669868287016145a2565b9150509250925092565b6020808252825182820181905260009190848201906040850190845b818110156146b45783516001600160a01b03168352928401929184019160010161468f565b50909695505050505050565b6000602082840312156146d257600080fd5b5035919050565b60008083601f8401126146eb57600080fd5b50813567ffffffffffffffff81111561470357600080fd5b60208301915083602082850101111561471b57600080fd5b9250929050565b6000806000806040858703121561473857600080fd5b843567ffffffffffffffff8082111561475057600080fd5b61475c888389016146d9565b9096509450602087013591508082111561477557600080fd5b50614782878288016146d9565b95989497509550505050565b600080600080608085870312156147a457600080fd5b84356147af816143b4565b935060208501356147bf816143b4565b9250604085013567ffffffffffffffff808211156147dc57600080fd5b6147e88883890161452e565b935060608701359150808211156147fe57600080fd5b5061480b878288016145a2565b91505092959194509250565b80516001600160a01b031682526020908101516001600160601b0316910152565b6001600160a01b03848116825260808201906148576020840186614817565b808416606084015250949350505050565b6000806040838503121561487b57600080fd5b82359150602083013561488d816143b4565b809150509250929050565b6000806000606084860312156148ad57600080fd5b83356148b8816143b4565b925060208401356148c8816143b4565b929592945050506040919091013590565b600080602083850312156148ec57600080fd5b823567ffffffffffffffff81111561490357600080fd5b61490f858286016146d9565b90969095509350505050565b60408101818360005b6002811015614943578151835260209283019290910190600101614924565b50505092915050565b6000806040838503121561495f57600080fd5b823561496a816143b4565b946020939093013593505050565b60008060008060008060c0878903121561499157600080fd5b863561499c816143b4565b955060208701356149ac816143b4565b945060408701356149bc816143b4565b935060608701356149cc816143b4565b925060808701356149dc816143b4565b915060a08701356149ec816143b4565b809150509295509295509295565b60008060408385031215614a0d57600080fd5b8235614a18816143b4565b9150602083013561488d816143b4565b600181811c90821680614a3c57607f821691505b60208210811415612d2157634e487b7160e01b600052602260045260246000fd5b600060208083526000845481600182811c915080831680614a7f57607f831692505b858310811415614a9d57634e487b7160e01b85526022600452602485fd5b878601838152602001818015614aba5760018114614acb57614af6565b60ff19861682528782019650614af6565b60008b81526020902060005b86811015614af057815484820152908501908901614ad7565b83019750505b50949998505050505050505050565b8051611f2f816143b4565b60028110612db457600080fd5b8051611f2f81614b10565b60006020808385031215614b3b57600080fd5b825167ffffffffffffffff80821115614b5357600080fd5b9084019060608287031215614b6757600080fd5b614b6f61448d565b825182811115614b7e57600080fd5b8301601f81018813614b8f57600080fd5b805183811115614ba157614ba1614477565b614bb3601f8201601f191687016144d9565b93508084528886828401011115614bc957600080fd5b614bd8818786018885016143e6565b5050818152614be8848401614b05565b84820152614bf860408401614b1d565b60408201529695505050505050565b634e487b7160e01b600052602160045260246000fd5b6020808252600f908201526e496e76616c6964206164647265737360881b604082015260600190565b634e487b7160e01b600052603260045260246000fd5b634e487b7160e01b600052601160045260246000fd5b6000600019821415614c8657614c86614c5c565b5060010190565b600060208284031215614c9f57600080fd5b8151801515811461209c57600080fd5b600060208284031215614cc157600080fd5b5051919050565b600060208284031215614cda57600080fd5b815161209c816143b4565b600081518084526020808501945080840160005b83811015614d1557815187529582019590820190600101614cf9565b509495945050505050565b600081518084526020808501945080840160005b83811015614d155781516001600160a01b031687529582019590820190600101614d34565b6001600160a01b038716815260e060208201819052600090614d7d90830188614ce5565b8281036040840152614d8f8188614d20565b90508281036060840152614da38187614d20565b90508281036080840152614db78186614ce5565b91505061420f60a0830184614817565b6020808252601f908201527f5265656e7472616e637947756172643a207265656e7472616e742063616c6c00604082015260600190565b8035611f2f81614b10565b60006020808385031215614e1c57600080fd5b823567ffffffffffffffff80821115614e3457600080fd5b9084019060808287031215614e4857600080fd5b614e506144b6565b8235815283830135614e61816143b4565b81850152604083013582811115614e7757600080fd5b83019150601f82018713614e8a57600080fd5b8135614e9861454f8261450a565b81815260059190911b83018501908581019089831115614eb757600080fd5b938601935b82851015614ede578435614ecf816143b4565b82529386019390860190614ebc565b604084015250614ef2905060608401614dfe565b60608201529695505050505050565b8183823760009101908152919050565b83815260406020820152816040820152818360608301376000818301606090810191909152601f909201601f1916010192915050565b6001600160a01b03831681526040810160028310614f7557634e487b7160e01b600052602160045260246000fd5b8260208301529392505050565b60208082526029908201527f44656c65676174696f6e5368617265426173652e6f6e6c7944656c656761746960408201526837b726b0b730b3b2b960b91b606082015260800190565b6001600160a01b0392831681529116602082015260400190565b6000816000190483118215151615614fff57614fff614c5c565b500290565b60008261502157634e487b7160e01b600052601260045260246000fd5b500490565b60008282101561503857615038614c5c565b500390565b6000821982111561505057615050614c5c565b500190565b634e487b7160e01b600052603160045260246000fd5b60208082526024908201527f6d73672073656e64657220646964206e6f7420726571756573742077697468646040820152637261777360e01b606082015260800190565b6000815160e084526150c460e0850182614d20565b9050602083015184820360208601526150dd8282614d20565b915050604083015184820360408601526150f78282614ce5565b915050606083015160018060a01b038082166060870152608085015191506151226080870183614817565b8060a08601511660c087015250508091505092915050565b60208152600061209c60208301846150af565b6001600160a01b0384168152606060208201819052600090615171908301856150af565b90508215156040830152949350505050565b6020808252602b908201527f496e697469616c697a61626c653a20636f6e7472616374206973206e6f74206960408201526a6e697469616c697a696e6760a81b606082015260800190565b6001600160a01b03841681526060602082018190526000906151f290830185614416565b905063ffffffff83166040830152949350505050565b6001600160a01b0387811682528616602082015260c06040820181905260009061523490830187614d20565b82810360608401526152468187614d20565b9050828103608084015261525a8186614ce5565b905082810360a084015261526e8185614ce5565b9998505050505050505050565b6000825161528d8184602087016143e6565b919091019291505056fe4d616e746c6520746f6b656e2044656c65676174696f6e536861726520696d706c656d656e746174696f6e20666f72207375626d6f64756c657320617320616e206578616d706c65a2646970667358221220a91ec5b7e0e7aea00ac3b8d770a500a9b99c3821701387714de9d313b517763d64736f6c63430008090033",
  "devdoc": {
    "events": {
      "Slashing(address,uint8)": {
        "params": {
          "": "1 slash type"
        }
      }
    },
    "kind": "dev",
    "methods": {
      "deposit(address,address,uint256)": {
        "details": "This function is only callable by the DelegationManager contract. It is invoked inside of the delegationManager's `depositIntoStrategy` function, and individual share balances are recorded in the delegationManager as well.",
        "params": {
          "amount": "is the amount of token being deposited",
          "token": "is the ERC20 token being deposited"
        },
        "returns": {
          "newShares": "is the number of new shares issued at the current exchange ratio."
        }
      },
      "getSlashRecord(uint256,address)": {
        "params": {
          "batchIndex": "the index of batch",
          "user": "address of the staker"
        }
      },
      "initialize(address,address,address,address,address,address)": {
        "params": {
          "_mantleToken": "mantle token contract address",
          "_tssGroupContract": "address tss group manager contract address"
        }
      },
      "isJailed(address)": {
        "params": {
          "user": "address of the staker"
        }
      },
      "owner()": {
        "details": "Returns the address of the current owner."
      },
      "paused()": {
        "details": "Returns true if the contract is paused, and false otherwise."
      },
      "renounceOwnership()": {
        "details": "Leaves the contract without owner. It will not be possible to call `onlyOwner` functions anymore. Can only be called by the current owner. NOTE: Renouncing ownership will leave the contract without an owner, thereby removing any functionality that is only available to the owner."
      },
      "setSlashingParams(uint256[2])": {
        "params": {
          "_slashAmount": "the amount to be deducted for each type"
        }
      },
      "setTokenAddress(address)": {
        "params": {
          "_token": "the erc20 mantle token contract address"
        }
      },
      "sharesToUnderlying(uint256)": {
        "details": "Implementation for these functions in particular may vary signifcantly for different strategies",
        "params": {
          "amountShares": "is the amount of shares to calculate its conversion into the underlying token"
        }
      },
      "sharesToUnderlyingView(uint256)": {
        "details": "Implementation for these functions in particular may vary signifcantly for different strategies",
        "params": {
          "amountShares": "is the amount of shares to calculate its conversion into the underlying token"
        }
      },
      "slashing(bytes,bytes)": {
        "params": {
          "_messageBytes": "the message that abi encode by type SlashMsg",
          "_sig": "the signature of the hash keccak256(_messageBytes)"
        }
      },
      "transferOwnership(address)": {
        "details": "Transfers ownership of the contract to a new account (`newOwner`). Can only be called by the current owner."
      },
      "underlyingToShares(uint256)": {
        "details": "Implementation for these functions in particular may vary signifcantly for different strategies",
        "params": {
          "amountUnderlying": "is the amount of `underlyingToken` to calculate its conversion into strategy shares"
        }
      },
      "underlyingToSharesView(uint256)": {
        "details": "Implementation for these functions in particular may vary signifcantly for different strategies",
        "params": {
          "amountUnderlying": "is the amount of `underlyingToken` to calculate its conversion into strategy shares"
        }
      },
      "withdraw(address,address,uint256)": {
        "details": "This function is only callable by the delegationManager contract. It is invoked inside of the delegationManager's other functions, and individual share balances are recorded in the delegationManager as well.",
        "params": {
          "amountShares": "is the amount of shares being withdrawn",
          "token": "is the ERC20 token being transferred out"
        }
      }
    },
    "version": 1
  },
  "userdoc": {
    "events": {
      "Slashing(address,uint8)": {
        "notice": "slash tssnode"
      }
    },
    "kind": "user",
    "methods": {
      "clearQuitRequestList()": {
        "notice": "clear the quit list"
      },
      "delegation()": {
        "notice": "DelegationManager contract"
      },
      "delegationManager()": {
        "notice": "DelegationManager contract"
      },
      "deposit(address,address,uint256)": {
        "notice": "Used to deposit tokens into this DelegationShare"
      },
      "explanation()": {
        "notice": "Currently returns a brief string explaining the strategy's goal & purpose, but for more complex strategies, may be a link to metadata that explains in more detail."
      },
      "getQuitRequestList()": {
        "notice": "return the quit list"
      },
      "getSlashRecord(uint256,address)": {
        "notice": "get the slash record"
      },
      "getSlashingParams()": {
        "notice": "set the slashing params (0 -> uptime, 1 -> animus)"
      },
      "initialize(address,address,address,address,address,address)": {
        "notice": "initializes the contract setting and the deployer as the initial owner"
      },
      "isJailed(address)": {
        "notice": "check the tssnode status"
      },
      "quitRequest()": {
        "notice": "send quit request for the next election"
      },
      "setSlashingParams(uint256[2])": {
        "notice": "set the slashing params (0 -> uptime , 1 -> animus)"
      },
      "setTokenAddress(address)": {
        "notice": "change the mantle token and tssGroup contract address"
      },
      "shares(address)": {
        "notice": "convenience function for fetching the current total shares of `user` in this strategy, by querying the `delegationManager` contract"
      },
      "sharesToUnderlying(uint256)": {
        "notice": "Used to convert a number of shares to the equivalent amount of underlying tokens for this strategy.In contrast to `sharesToUnderlyingView`, this function **may** make state modifications"
      },
      "sharesToUnderlyingView(uint256)": {
        "notice": "Used to convert a number of shares to the equivalent amount of underlying tokens for this strategy.In contrast to `sharesToUnderlying`, this function guarantees no state modifications"
      },
      "slashing(bytes,bytes)": {
        "notice": "verify the slash message then slash"
      },
      "totalShares()": {
        "notice": "The total number of extant shares in the DelegationShare"
      },
      "unJail()": {
        "notice": "set tss node status unjail"
      },
      "underlyingToShares(uint256)": {
        "notice": "Used to convert an amount of underlying tokens to the equivalent amount of shares in this strategy.In contrast to `underlyingToSharesView`, this function **may** make state modifications"
      },
      "underlyingToSharesView(uint256)": {
        "notice": "Used to convert an amount of underlying tokens to the equivalent amount of shares in this strategy.In contrast to `underlyingToShares`, this function guarantees no state modifications"
      },
      "underlyingToken()": {
        "notice": "The underyling token for shares in this DelegationShare"
      },
      "userUnderlying(address)": {
        "notice": "convenience function for fetching the current underlying value of all of the `user`'s shares in this strategy. In contrast to `userUnderlyingView`, this function **may** make state modifications"
      },
      "userUnderlyingView(address)": {
        "notice": "convenience function for fetching the current underlying value of all of the `user`'s shares in this strategy. In contrast to `userUnderlying`, this function guarantees no state modifications"
      },
      "withdraw(address,address,uint256)": {
        "notice": "Used to withdraw tokens from this DelegationShare, to the `depositor`'s address"
      }
    },
    "version": 1
  },
  "storageLayout": {
    "storage": [
      {
        "astId": 216,
        "contract": "contracts/L1/tss/TssStakingSlashing.sol:TssStakingSlashing",
        "label": "_initialized",
        "offset": 0,
        "slot": "0",
        "type": "t_uint8"
      },
      {
        "astId": 219,
        "contract": "contracts/L1/tss/TssStakingSlashing.sol:TssStakingSlashing",
        "label": "_initializing",
        "offset": 1,
        "slot": "0",
        "type": "t_bool"
      },
      {
        "astId": 2492,
        "contract": "contracts/L1/tss/TssStakingSlashing.sol:TssStakingSlashing",
        "label": "__gap",
        "offset": 0,
        "slot": "1",
        "type": "t_array(t_uint256)50_storage"
      },
      {
        "astId": 10,
        "contract": "contracts/L1/tss/TssStakingSlashing.sol:TssStakingSlashing",
        "label": "_owner",
        "offset": 0,
        "slot": "51",
        "type": "t_address"
      },
      {
        "astId": 130,
        "contract": "contracts/L1/tss/TssStakingSlashing.sol:TssStakingSlashing",
        "label": "__gap",
        "offset": 0,
        "slot": "52",
        "type": "t_array(t_uint256)49_storage"
      },
      {
        "astId": 501,
        "contract": "contracts/L1/tss/TssStakingSlashing.sol:TssStakingSlashing",
        "label": "_status",
        "offset": 0,
        "slot": "101",
        "type": "t_uint256"
      },
      {
        "astId": 545,
        "contract": "contracts/L1/tss/TssStakingSlashing.sol:TssStakingSlashing",
        "label": "__gap",
        "offset": 0,
        "slot": "102",
        "type": "t_array(t_uint256)49_storage"
      },
      {
        "astId": 381,
        "contract": "contracts/L1/tss/TssStakingSlashing.sol:TssStakingSlashing",
        "label": "_paused",
        "offset": 0,
        "slot": "151",
        "type": "t_bool"
      },
      {
        "astId": 486,
        "contract": "contracts/L1/tss/TssStakingSlashing.sol:TssStakingSlashing",
        "label": "__gap",
        "offset": 0,
        "slot": "152",
        "type": "t_array(t_uint256)49_storage"
      },
      {
        "astId": 11501,
        "contract": "contracts/L1/tss/TssStakingSlashing.sol:TssStakingSlashing",
        "label": "delegationManager",
        "offset": 0,
        "slot": "201",
        "type": "t_contract(IDelegationManager)12851"
      },
      {
        "astId": 11505,
        "contract": "contracts/L1/tss/TssStakingSlashing.sol:TssStakingSlashing",
        "label": "underlyingToken",
        "offset": 0,
        "slot": "202",
        "type": "t_contract(IERC20)7331"
      },
      {
        "astId": 11508,
        "contract": "contracts/L1/tss/TssStakingSlashing.sol:TssStakingSlashing",
        "label": "totalShares",
        "offset": 0,
        "slot": "203",
        "type": "t_uint256"
      },
      {
        "astId": 10129,
        "contract": "contracts/L1/tss/TssStakingSlashing.sol:TssStakingSlashing",
        "label": "delegation",
        "offset": 0,
        "slot": "204",
        "type": "t_contract(IDelegation)12623"
      },
      {
        "astId": 48427,
        "contract": "contracts/L1/tss/TssStakingSlashing.sol:TssStakingSlashing",
        "label": "messenger",
        "offset": 0,
        "slot": "205",
        "type": "t_address"
      },
      {
        "astId": 41818,
        "contract": "contracts/L1/tss/TssStakingSlashing.sol:TssStakingSlashing",
        "label": "tssGroupContract",
        "offset": 0,
        "slot": "206",
        "type": "t_address"
      },
      {
        "astId": 41820,
        "contract": "contracts/L1/tss/TssStakingSlashing.sol:TssStakingSlashing",
        "label": "tssDelegationManagerContract",
        "offset": 0,
        "slot": "207",
        "type": "t_address"
      },
      {
        "astId": 41822,
        "contract": "contracts/L1/tss/TssStakingSlashing.sol:TssStakingSlashing",
        "label": "tssDelegationContract",
        "offset": 0,
        "slot": "208",
        "type": "t_address"
      },
      {
        "astId": 41826,
        "contract": "contracts/L1/tss/TssStakingSlashing.sol:TssStakingSlashing",
        "label": "operators",
        "offset": 0,
        "slot": "209",
        "type": "t_mapping(t_address,t_bytes_storage)"
      },
      {
        "astId": 41829,
        "contract": "contracts/L1/tss/TssStakingSlashing.sol:TssStakingSlashing",
        "label": "quitRequestList",
        "offset": 0,
        "slot": "210",
        "type": "t_array(t_address)dyn_storage"
      },
      {
        "astId": 41833,
        "contract": "contracts/L1/tss/TssStakingSlashing.sol:TssStakingSlashing",
        "label": "slashAmount",
        "offset": 0,
        "slot": "211",
        "type": "t_array(t_uint256)2_storage"
      },
      {
        "astId": 41839,
        "contract": "contracts/L1/tss/TssStakingSlashing.sol:TssStakingSlashing",
        "label": "slashRecord",
        "offset": 0,
        "slot": "213",
        "type": "t_mapping(t_uint256,t_mapping(t_address,t_bool))"
      },
      {
        "astId": 41841,
        "contract": "contracts/L1/tss/TssStakingSlashing.sol:TssStakingSlashing",
        "label": "regulatoryAccount",
        "offset": 0,
        "slot": "214",
        "type": "t_address"
      },
      {
        "astId": 41845,
        "contract": "contracts/L1/tss/TssStakingSlashing.sol:TssStakingSlashing",
        "label": "withdrawalRoots",
        "offset": 0,
        "slot": "215",
        "type": "t_mapping(t_address,t_bytes32)"
      },
      {
        "astId": 41850,
        "contract": "contracts/L1/tss/TssStakingSlashing.sol:TssStakingSlashing",
        "label": "withdrawals",
        "offset": 0,
        "slot": "216",
        "type": "t_mapping(t_address,t_struct(QueuedWithdrawal)12701_storage)"
      },
      {
        "astId": 41855,
        "contract": "contracts/L1/tss/TssStakingSlashing.sol:TssStakingSlashing",
        "label": "stakers",
        "offset": 0,
        "slot": "217",
        "type": "t_mapping(t_address,t_array(t_address)dyn_storage)"
      },
      {
        "astId": 41859,
        "contract": "contracts/L1/tss/TssStakingSlashing.sol:TssStakingSlashing",
        "label": "delegators",
        "offset": 0,
        "slot": "218",
        "type": "t_mapping(t_address,t_address)"
      },
      {
        "astId": 41863,
        "contract": "contracts/L1/tss/TssStakingSlashing.sol:TssStakingSlashing",
        "label": "operatorClaimers",
        "offset": 0,
        "slot": "219",
        "type": "t_mapping(t_address,t_address)"
      },
      {
        "astId": 41867,
        "contract": "contracts/L1/tss/TssStakingSlashing.sol:TssStakingSlashing",
        "label": "claimerOperators",
        "offset": 0,
        "slot": "220",
        "type": "t_mapping(t_address,t_address)"
      },
      {
        "astId": 41869,
        "contract": "contracts/L1/tss/TssStakingSlashing.sol:TssStakingSlashing",
        "label": "isSetParam",
        "offset": 0,
        "slot": "221",
        "type": "t_bool"
      }
    ],
    "types": {
      "t_address": {
        "encoding": "inplace",
        "label": "address",
        "numberOfBytes": "20"
      },
      "t_array(t_address)dyn_storage": {
        "base": "t_address",
        "encoding": "dynamic_array",
        "label": "address[]",
        "numberOfBytes": "32"
      },
      "t_array(t_contract(IDelegationShare)12947)dyn_storage": {
        "base": "t_contract(IDelegationShare)12947",
        "encoding": "dynamic_array",
        "label": "contract IDelegationShare[]",
        "numberOfBytes": "32"
      },
      "t_array(t_contract(IERC20)7331)dyn_storage": {
        "base": "t_contract(IERC20)7331",
        "encoding": "dynamic_array",
        "label": "contract IERC20[]",
        "numberOfBytes": "32"
      },
      "t_array(t_uint256)2_storage": {
        "base": "t_uint256",
        "encoding": "inplace",
        "label": "uint256[2]",
        "numberOfBytes": "64"
      },
      "t_array(t_uint256)49_storage": {
        "base": "t_uint256",
        "encoding": "inplace",
        "label": "uint256[49]",
        "numberOfBytes": "1568"
      },
      "t_array(t_uint256)50_storage": {
        "base": "t_uint256",
        "encoding": "inplace",
        "label": "uint256[50]",
        "numberOfBytes": "1600"
      },
      "t_array(t_uint256)dyn_storage": {
        "base": "t_uint256",
        "encoding": "dynamic_array",
        "label": "uint256[]",
        "numberOfBytes": "32"
      },
      "t_bool": {
        "encoding": "inplace",
        "label": "bool",
        "numberOfBytes": "1"
      },
      "t_bytes32": {
        "encoding": "inplace",
        "label": "bytes32",
        "numberOfBytes": "32"
      },
      "t_bytes_storage": {
        "encoding": "bytes",
        "label": "bytes",
        "numberOfBytes": "32"
      },
      "t_contract(IDelegation)12623": {
        "encoding": "inplace",
        "label": "contract IDelegation",
        "numberOfBytes": "20"
      },
      "t_contract(IDelegationManager)12851": {
        "encoding": "inplace",
        "label": "contract IDelegationManager",
        "numberOfBytes": "20"
      },
      "t_contract(IDelegationShare)12947": {
        "encoding": "inplace",
        "label": "contract IDelegationShare",
        "numberOfBytes": "20"
      },
      "t_contract(IERC20)7331": {
        "encoding": "inplace",
        "label": "contract IERC20",
        "numberOfBytes": "20"
      },
      "t_mapping(t_address,t_address)": {
        "encoding": "mapping",
        "key": "t_address",
        "label": "mapping(address => address)",
        "numberOfBytes": "32",
        "value": "t_address"
      },
      "t_mapping(t_address,t_array(t_address)dyn_storage)": {
        "encoding": "mapping",
        "key": "t_address",
        "label": "mapping(address => address[])",
        "numberOfBytes": "32",
        "value": "t_array(t_address)dyn_storage"
      },
      "t_mapping(t_address,t_bool)": {
        "encoding": "mapping",
        "key": "t_address",
        "label": "mapping(address => bool)",
        "numberOfBytes": "32",
        "value": "t_bool"
      },
      "t_mapping(t_address,t_bytes32)": {
        "encoding": "mapping",
        "key": "t_address",
        "label": "mapping(address => bytes32)",
        "numberOfBytes": "32",
        "value": "t_bytes32"
      },
      "t_mapping(t_address,t_bytes_storage)": {
        "encoding": "mapping",
        "key": "t_address",
        "label": "mapping(address => bytes)",
        "numberOfBytes": "32",
        "value": "t_bytes_storage"
      },
      "t_mapping(t_address,t_struct(QueuedWithdrawal)12701_storage)": {
        "encoding": "mapping",
        "key": "t_address",
        "label": "mapping(address => struct IDelegationManager.QueuedWithdrawal)",
        "numberOfBytes": "32",
        "value": "t_struct(QueuedWithdrawal)12701_storage"
      },
      "t_mapping(t_uint256,t_mapping(t_address,t_bool))": {
        "encoding": "mapping",
        "key": "t_uint256",
        "label": "mapping(uint256 => mapping(address => bool))",
        "numberOfBytes": "32",
        "value": "t_mapping(t_address,t_bool)"
      },
      "t_struct(QueuedWithdrawal)12701_storage": {
        "encoding": "inplace",
        "label": "struct IDelegationManager.QueuedWithdrawal",
        "members": [
          {
            "astId": 12686,
            "contract": "contracts/L1/tss/TssStakingSlashing.sol:TssStakingSlashing",
            "label": "delegations",
            "offset": 0,
            "slot": "0",
            "type": "t_array(t_contract(IDelegationShare)12947)dyn_storage"
          },
          {
            "astId": 12690,
            "contract": "contracts/L1/tss/TssStakingSlashing.sol:TssStakingSlashing",
            "label": "tokens",
            "offset": 0,
            "slot": "1",
            "type": "t_array(t_contract(IERC20)7331)dyn_storage"
          },
          {
            "astId": 12693,
            "contract": "contracts/L1/tss/TssStakingSlashing.sol:TssStakingSlashing",
            "label": "shares",
            "offset": 0,
            "slot": "2",
            "type": "t_array(t_uint256)dyn_storage"
          },
          {
            "astId": 12695,
            "contract": "contracts/L1/tss/TssStakingSlashing.sol:TssStakingSlashing",
            "label": "depositor",
            "offset": 0,
            "slot": "3",
            "type": "t_address"
          },
          {
            "astId": 12698,
            "contract": "contracts/L1/tss/TssStakingSlashing.sol:TssStakingSlashing",
            "label": "withdrawerAndNonce",
            "offset": 0,
            "slot": "4",
            "type": "t_struct(WithdrawerAndNonce)12682_storage"
          },
          {
            "astId": 12700,
            "contract": "contracts/L1/tss/TssStakingSlashing.sol:TssStakingSlashing",
            "label": "delegatedAddress",
            "offset": 0,
            "slot": "5",
            "type": "t_address"
          }
        ],
        "numberOfBytes": "192"
      },
      "t_struct(WithdrawerAndNonce)12682_storage": {
        "encoding": "inplace",
        "label": "struct IDelegationManager.WithdrawerAndNonce",
        "members": [
          {
            "astId": 12679,
            "contract": "contracts/L1/tss/TssStakingSlashing.sol:TssStakingSlashing",
            "label": "withdrawer",
            "offset": 0,
            "slot": "0",
            "type": "t_address"
          },
          {
            "astId": 12681,
            "contract": "contracts/L1/tss/TssStakingSlashing.sol:TssStakingSlashing",
            "label": "nonce",
            "offset": 20,
            "slot": "0",
            "type": "t_uint96"
          }
        ],
        "numberOfBytes": "32"
      },
      "t_uint256": {
        "encoding": "inplace",
        "label": "uint256",
        "numberOfBytes": "32"
      },
      "t_uint8": {
        "encoding": "inplace",
        "label": "uint8",
        "numberOfBytes": "1"
      },
      "t_uint96": {
        "encoding": "inplace",
        "label": "uint96",
        "numberOfBytes": "12"
      }
    }
  }
}