{
  "address": "0x9c28c8D298ae7Ebf8daA6FA54e1F2909313dB158",
  "abi": [
    {
      "inputs": [
        {
          "internalType": "contract L1ChugSplashProxy",
          "name": "_target",
          "type": "address"
        },
        {
          "internalType": "address",
          "name": "_finalOwner",
          "type": "address"
        },
        {
          "internalType": "bytes32",
          "name": "_codeHash",
          "type": "bytes32"
        },
        {
          "internalType": "bytes32",
          "name": "_messengerSlotKey",
          "type": "bytes32"
        },
        {
          "internalType": "bytes32",
          "name": "_messengerSlotVal",
          "type": "bytes32"
        },
        {
          "internalType": "bytes32",
          "name": "_bridgeSlotKey",
          "type": "bytes32"
        },
        {
          "internalType": "bytes32",
          "name": "_bridgeSlotVal",
          "type": "bytes32"
        },
        {
          "internalType": "bytes32",
          "name": "_bitAddressSlotKey",
          "type": "bytes32"
        },
        {
          "internalType": "bytes32",
          "name": "_bitAddressSlotVal",
          "type": "bytes32"
        }
      ],
      "stateMutability": "nonpayable",
      "type": "constructor"
    },
    {
      "inputs": [],
      "name": "bitAddressSlotKey",
      "outputs": [
        {
          "internalType": "bytes32",
          "name": "",
          "type": "bytes32"
        }
      ],
      "stateMutability": "view",
      "type": "function"
    },
    {
      "inputs": [],
      "name": "bitAddressSlotVal",
      "outputs": [
        {
          "internalType": "bytes32",
          "name": "",
          "type": "bytes32"
        }
      ],
      "stateMutability": "view",
      "type": "function"
    },
    {
      "inputs": [],
      "name": "bridgeSlotKey",
      "outputs": [
        {
          "internalType": "bytes32",
          "name": "",
          "type": "bytes32"
        }
      ],
      "stateMutability": "view",
      "type": "function"
    },
    {
      "inputs": [],
      "name": "bridgeSlotVal",
      "outputs": [
        {
          "internalType": "bytes32",
          "name": "",
          "type": "bytes32"
        }
      ],
      "stateMutability": "view",
      "type": "function"
    },
    {
      "inputs": [],
      "name": "codeHash",
      "outputs": [
        {
          "internalType": "bytes32",
          "name": "",
          "type": "bytes32"
        }
      ],
      "stateMutability": "view",
      "type": "function"
    },
    {
      "inputs": [
        {
          "internalType": "bytes",
          "name": "_code",
          "type": "bytes"
        }
      ],
      "name": "doActions",
      "outputs": [],
      "stateMutability": "nonpayable",
      "type": "function"
    },
    {
      "inputs": [],
      "name": "finalOwner",
      "outputs": [
        {
          "internalType": "address",
          "name": "",
          "type": "address"
        }
      ],
      "stateMutability": "view",
      "type": "function"
    },
    {
      "inputs": [],
      "name": "isUpgrading",
      "outputs": [
        {
          "internalType": "bool",
          "name": "",
          "type": "bool"
        }
      ],
      "stateMutability": "view",
      "type": "function"
    },
    {
      "inputs": [],
      "name": "messengerSlotKey",
      "outputs": [
        {
          "internalType": "bytes32",
          "name": "",
          "type": "bytes32"
        }
      ],
      "stateMutability": "view",
      "type": "function"
    },
    {
      "inputs": [],
      "name": "messengerSlotVal",
      "outputs": [
        {
          "internalType": "bytes32",
          "name": "",
          "type": "bytes32"
        }
      ],
      "stateMutability": "view",
      "type": "function"
    },
    {
      "inputs": [],
      "name": "returnOwnership",
      "outputs": [],
      "stateMutability": "nonpayable",
      "type": "function"
    },
    {
      "inputs": [],
      "name": "target",
      "outputs": [
        {
          "internalType": "contract L1ChugSplashProxy",
          "name": "",
          "type": "address"
        }
      ],
      "stateMutability": "view",
      "type": "function"
    }
  ],
  "transactionHash": "0x949df4421bce0845c1ebb7986b80c794577113c1b63dec6973979da848ba9b99",
  "args": [
    "0x8BAccFF561FDe61D6bC8B6f299fFBa561d2189B9",
    "0xd5add52d36399570e56c183d949da83ac29aa7d6",
    "0x49075051f465bdbc646268a2eb11ff9fe359bd1492cd7c9345e7ab44d089db99",
    "0x0000000000000000000000000000000000000000000000000000000000000000",
    "0x0000000000000000000000007959CF3b8ffC87Faca8aD8a1B5D95c0f58C0BEf8",
    "0x0000000000000000000000000000000000000000000000000000000000000001",
    "0x0000000000000000000000004200000000000000000000000000000000000010",
    "0x0000000000000000000000000000000000000000000000000000000000000002",
    "0x000000000000000000000000df3BD218A936A92be5e43592143ecc7a33cef514"
  ],
  "numDeployments": 1,
  "solcInputHash": "437d5fdb061c3680de7364661c63d44d",
  "bytecode": "0x60806040526000805460ff1916600117905534801561001d57600080fd5b5060405161095f38038061095f83398101604081905261003c916100b1565b60008054610100600160a81b0319166101006001600160a01b039b8c1602179055600180546001600160a01b031916989099169790971790975560029490945560039290925560045560055560065560079190915560085561012f565b6001600160a01b03811681146100ae57600080fd5b50565b60008060008060008060008060006101208a8c0312156100d057600080fd5b89516100db81610099565b60208b01519099506100ec81610099565b8098505060408a0151965060608a0151955060808a0151945060a08a0151935060c08a0151925060e08a015191506101008a015190509295985092959850929598565b6108218061013e6000396000f3fe608060405234801561001057600080fd5b50600436106100d45760003560e01c8063708518de11610081578063a3b2d8a51161005b578063a3b2d8a514610184578063b79472621461018d578063d4b83992146101aa57600080fd5b8063708518de14610169578063830c9df814610172578063907023dd1461017b57600080fd5b8063297d1a34116100b2578063297d1a341461014f5780635307023b1461015757806361aaa41b1461016057600080fd5b80630bf56f21146100d957806317ad94ec146100ee57806318edaaf214610138575b600080fd5b6100ec6100e73660046106a9565b6101cf565b005b60015461010e9073ffffffffffffffffffffffffffffffffffffffff1681565b60405173ffffffffffffffffffffffffffffffffffffffff90911681526020015b60405180910390f35b61014160025481565b60405190815260200161012f565b6100ec610545565b61014160045481565b61014160085481565b61014160035481565b61014160075481565b61014160065481565b61014160055481565b60005461019a9060ff1681565b604051901515815260200161012f565b60005461010e90610100900473ffffffffffffffffffffffffffffffffffffffff1681565b600254815160208301201461026b576040517f08c379a000000000000000000000000000000000000000000000000000000000815260206004820152602860248201527f4368756753706c6173684469637461746f723a20496e636f727265637420636f60448201527f646520686173682e00000000000000000000000000000000000000000000000060648201526084015b60405180910390fd5b6000546040517f6c5d4ad000000000000000000000000000000000000000000000000000000000815261010090910473ffffffffffffffffffffffffffffffffffffffff1690636c5d4ad0906102c5908490600401610778565b600060405180830381600087803b1580156102df57600080fd5b505af11580156102f3573d6000803e3d6000fd5b5050600054600354600480546040517f9b0b0fda00000000000000000000000000000000000000000000000000000000815291820192909252602481019190915261010090910473ffffffffffffffffffffffffffffffffffffffff169250639b0b0fda9150604401600060405180830381600087803b15801561037657600080fd5b505af115801561038a573d6000803e3d6000fd5b50506000546005546006546040517f9b0b0fda0000000000000000000000000000000000000000000000000000000081526004810192909252602482015261010090910473ffffffffffffffffffffffffffffffffffffffff169250639b0b0fda9150604401600060405180830381600087803b15801561040a57600080fd5b505af115801561041e573d6000803e3d6000fd5b50506000546007546008546040517f9b0b0fda0000000000000000000000000000000000000000000000000000000081526004810192909252602482015261010090910473ffffffffffffffffffffffffffffffffffffffff169250639b0b0fda9150604401600060405180830381600087803b15801561049e57600080fd5b505af11580156104b2573d6000803e3d6000fd5b50506000546001546040517f13af403500000000000000000000000000000000000000000000000000000000815273ffffffffffffffffffffffffffffffffffffffff91821660048201526101009092041692506313af40359150602401600060405180830381600087803b15801561052a57600080fd5b505af115801561053e573d6000803e3d6000fd5b5050505050565b60015473ffffffffffffffffffffffffffffffffffffffff1633146105ec576040517f08c379a000000000000000000000000000000000000000000000000000000000815260206004820152602f60248201527f4368756753706c6173684469637461746f723a206f6e6c792063616c6c61626c60448201527f652062792066696e616c4f776e657200000000000000000000000000000000006064820152608401610262565b6000546001546040517f13af403500000000000000000000000000000000000000000000000000000000815273ffffffffffffffffffffffffffffffffffffffff918216600482015261010090920416906313af403590602401600060405180830381600087803b15801561066057600080fd5b505af1158015610674573d6000803e3d6000fd5b50505050565b7f4e487b7100000000000000000000000000000000000000000000000000000000600052604160045260246000fd5b6000602082840312156106bb57600080fd5b813567ffffffffffffffff808211156106d357600080fd5b818401915084601f8301126106e757600080fd5b8135818111156106f9576106f961067a565b604051601f82017fffffffffffffffffffffffffffffffffffffffffffffffffffffffffffffffe0908116603f0116810190838211818310171561073f5761073f61067a565b8160405282815287602084870101111561075857600080fd5b826020860160208301376000928101602001929092525095945050505050565b600060208083528351808285015260005b818110156107a557858101830151858201604001528201610789565b818111156107b7576000604083870101525b50601f017fffffffffffffffffffffffffffffffffffffffffffffffffffffffffffffffe01692909201604001939250505056fea2646970667358221220704e7aba988c36e2c63dab0cdd190afc63ab184dc3c44733381d043797cfcb0064736f6c63430008090033",
  "devdoc": {
    "details": "Like the AddressDictator, but specifically for the Proxy__BVM_L1StandardBridge. We're      working on a generalized version of this but this is good enough for the moment.",
    "kind": "dev",
    "methods": {},
    "title": "ChugSplashDictator",
    "version": 1
  },
  "userdoc": {
    "kind": "user",
    "methods": {
      "returnOwnership()": {
        "notice": "Transfers ownership of this contract to the finalOwner. Only callable by the finalOwner, which is intended to be our multisig. This function shouldn't be necessary, but it gives a sense of reassurance that we can recover if something really surprising goes wrong."
      }
    },
    "version": 1
  },
  "storageLayout": {
    "storage": [
      {
        "astId": 4202,
        "contract": "contracts/L1/deployment/ChugSplashDictator.sol:ChugSplashDictator",
        "label": "isUpgrading",
        "offset": 0,
        "slot": "0",
        "type": "t_bool"
      },
      {
        "astId": 4205,
        "contract": "contracts/L1/deployment/ChugSplashDictator.sol:ChugSplashDictator",
        "label": "target",
        "offset": 1,
        "slot": "0",
        "type": "t_contract(L1ChugSplashProxy)12725"
      },
      {
        "astId": 4207,
        "contract": "contracts/L1/deployment/ChugSplashDictator.sol:ChugSplashDictator",
        "label": "finalOwner",
        "offset": 0,
        "slot": "1",
        "type": "t_address"
      },
      {
        "astId": 4209,
        "contract": "contracts/L1/deployment/ChugSplashDictator.sol:ChugSplashDictator",
        "label": "codeHash",
        "offset": 0,
        "slot": "2",
        "type": "t_bytes32"
      },
      {
        "astId": 4211,
        "contract": "contracts/L1/deployment/ChugSplashDictator.sol:ChugSplashDictator",
        "label": "messengerSlotKey",
        "offset": 0,
        "slot": "3",
        "type": "t_bytes32"
      },
      {
        "astId": 4213,
        "contract": "contracts/L1/deployment/ChugSplashDictator.sol:ChugSplashDictator",
        "label": "messengerSlotVal",
        "offset": 0,
        "slot": "4",
        "type": "t_bytes32"
      },
      {
        "astId": 4215,
        "contract": "contracts/L1/deployment/ChugSplashDictator.sol:ChugSplashDictator",
        "label": "bridgeSlotKey",
        "offset": 0,
        "slot": "5",
        "type": "t_bytes32"
      },
      {
        "astId": 4217,
        "contract": "contracts/L1/deployment/ChugSplashDictator.sol:ChugSplashDictator",
        "label": "bridgeSlotVal",
        "offset": 0,
        "slot": "6",
        "type": "t_bytes32"
      },
      {
        "astId": 4219,
        "contract": "contracts/L1/deployment/ChugSplashDictator.sol:ChugSplashDictator",
        "label": "bitAddressSlotKey",
        "offset": 0,
        "slot": "7",
        "type": "t_bytes32"
      },
      {
        "astId": 4221,
        "contract": "contracts/L1/deployment/ChugSplashDictator.sol:ChugSplashDictator",
        "label": "bitAddressSlotVal",
        "offset": 0,
        "slot": "8",
        "type": "t_bytes32"
      }
    ],
    "types": {
      "t_address": {
        "encoding": "inplace",
        "label": "address",
        "numberOfBytes": "20"
      },
      "t_bool": {
        "encoding": "inplace",
        "label": "bool",
        "numberOfBytes": "1"
      },
      "t_bytes32": {
        "encoding": "inplace",
        "label": "bytes32",
        "numberOfBytes": "32"
      },
      "t_contract(L1ChugSplashProxy)12725": {
        "encoding": "inplace",
        "label": "contract L1ChugSplashProxy",
        "numberOfBytes": "20"
      }
    }
  }
}