{
  "address": "0x9faB987C9C469EB23Da31B7848B28aCf30905eA8",
  "abi": [
    {
      "inputs": [
        {
          "internalType": "address",
          "name": "_libAddressManager",
          "type": "address"
        },
        {
          "internalType": "uint256",
          "name": "_fraudProofWindow",
          "type": "uint256"
        },
        {
          "internalType": "uint256",
          "name": "_sequencerPublishWindow",
          "type": "uint256"
        }
      ],
      "stateMutability": "nonpayable",
      "type": "constructor"
    },
    {
      "anonymous": false,
      "inputs": [
        {
          "indexed": true,
          "internalType": "uint256",
          "name": "_batchIndex",
          "type": "uint256"
        },
        {
          "indexed": false,
          "internalType": "bytes32",
          "name": "_batchRoot",
          "type": "bytes32"
        },
        {
          "indexed": false,
          "internalType": "uint256",
          "name": "_batchSize",
          "type": "uint256"
        },
        {
          "indexed": false,
          "internalType": "uint256",
          "name": "_prevTotalElements",
          "type": "uint256"
        },
        {
          "indexed": false,
          "internalType": "bytes",
          "name": "_signature",
          "type": "bytes"
        },
        {
          "indexed": false,
          "internalType": "bytes",
          "name": "_extraData",
          "type": "bytes"
        }
      ],
      "name": "StateBatchAppended",
      "type": "event"
    },
    {
      "anonymous": false,
      "inputs": [
        {
          "indexed": true,
          "internalType": "uint256",
          "name": "_batchIndex",
          "type": "uint256"
        },
        {
          "indexed": false,
          "internalType": "bytes32",
          "name": "_batchRoot",
          "type": "bytes32"
        }
      ],
      "name": "StateBatchDeleted",
      "type": "event"
    },
    {
      "inputs": [],
      "name": "FRAUD_PROOF_WINDOW",
      "outputs": [
        {
          "internalType": "uint256",
          "name": "",
          "type": "uint256"
        }
      ],
      "stateMutability": "view",
      "type": "function"
    },
    {
      "inputs": [],
      "name": "SEQUENCER_PUBLISH_WINDOW",
      "outputs": [
        {
          "internalType": "uint256",
          "name": "",
          "type": "uint256"
        }
      ],
      "stateMutability": "view",
      "type": "function"
    },
    {
      "inputs": [
        {
          "internalType": "bytes32[]",
          "name": "_batch",
          "type": "bytes32[]"
        },
        {
          "internalType": "uint256",
          "name": "_shouldStartAtElement",
          "type": "uint256"
        },
        {
          "internalType": "bytes",
          "name": "_signature",
          "type": "bytes"
        }
      ],
      "name": "appendStateBatch",
      "outputs": [],
      "stateMutability": "nonpayable",
      "type": "function"
    },
    {
      "inputs": [],
      "name": "batches",
      "outputs": [
        {
          "internalType": "contract IChainStorageContainer",
          "name": "",
          "type": "address"
        }
      ],
      "stateMutability": "view",
      "type": "function"
    },
    {
      "inputs": [
        {
          "components": [
            {
              "internalType": "uint256",
              "name": "batchIndex",
              "type": "uint256"
            },
            {
              "internalType": "bytes32",
              "name": "batchRoot",
              "type": "bytes32"
            },
            {
              "internalType": "uint256",
              "name": "batchSize",
              "type": "uint256"
            },
            {
              "internalType": "uint256",
              "name": "prevTotalElements",
              "type": "uint256"
            },
            {
              "internalType": "bytes",
              "name": "signature",
              "type": "bytes"
            },
            {
              "internalType": "bytes",
              "name": "extraData",
              "type": "bytes"
            }
          ],
          "internalType": "struct Lib_BVMCodec.ChainBatchHeader",
          "name": "_batchHeader",
          "type": "tuple"
        }
      ],
      "name": "deleteStateBatch",
      "outputs": [],
      "stateMutability": "nonpayable",
      "type": "function"
    },
    {
      "inputs": [],
      "name": "getLastSequencerTimestamp",
      "outputs": [
        {
          "internalType": "uint256",
          "name": "_lastSequencerTimestamp",
          "type": "uint256"
        }
      ],
      "stateMutability": "view",
      "type": "function"
    },
    {
      "inputs": [],
      "name": "getTotalBatches",
      "outputs": [
        {
          "internalType": "uint256",
          "name": "_totalBatches",
          "type": "uint256"
        }
      ],
      "stateMutability": "view",
      "type": "function"
    },
    {
      "inputs": [],
      "name": "getTotalElements",
      "outputs": [
        {
          "internalType": "uint256",
          "name": "_totalElements",
          "type": "uint256"
        }
      ],
      "stateMutability": "view",
      "type": "function"
    },
    {
      "inputs": [
        {
          "components": [
            {
              "internalType": "uint256",
              "name": "batchIndex",
              "type": "uint256"
            },
            {
              "internalType": "bytes32",
              "name": "batchRoot",
              "type": "bytes32"
            },
            {
              "internalType": "uint256",
              "name": "batchSize",
              "type": "uint256"
            },
            {
              "internalType": "uint256",
              "name": "prevTotalElements",
              "type": "uint256"
            },
            {
              "internalType": "bytes",
              "name": "signature",
              "type": "bytes"
            },
            {
              "internalType": "bytes",
              "name": "extraData",
              "type": "bytes"
            }
          ],
          "internalType": "struct Lib_BVMCodec.ChainBatchHeader",
          "name": "_batchHeader",
          "type": "tuple"
        }
      ],
      "name": "insideFraudProofWindow",
      "outputs": [
        {
          "internalType": "bool",
          "name": "_inside",
          "type": "bool"
        }
      ],
      "stateMutability": "view",
      "type": "function"
    },
    {
      "inputs": [],
      "name": "libAddressManager",
      "outputs": [
        {
          "internalType": "contract Lib_AddressManager",
          "name": "",
          "type": "address"
        }
      ],
      "stateMutability": "view",
      "type": "function"
    },
    {
      "inputs": [
        {
          "internalType": "string",
          "name": "_name",
          "type": "string"
        }
      ],
      "name": "resolve",
      "outputs": [
        {
          "internalType": "address",
          "name": "",
          "type": "address"
        }
      ],
      "stateMutability": "view",
      "type": "function"
    },
    {
      "inputs": [
        {
          "internalType": "bytes32",
          "name": "_element",
          "type": "bytes32"
        },
        {
          "components": [
            {
              "internalType": "uint256",
              "name": "batchIndex",
              "type": "uint256"
            },
            {
              "internalType": "bytes32",
              "name": "batchRoot",
              "type": "bytes32"
            },
            {
              "internalType": "uint256",
              "name": "batchSize",
              "type": "uint256"
            },
            {
              "internalType": "uint256",
              "name": "prevTotalElements",
              "type": "uint256"
            },
            {
              "internalType": "bytes",
              "name": "signature",
              "type": "bytes"
            },
            {
              "internalType": "bytes",
              "name": "extraData",
              "type": "bytes"
            }
          ],
          "internalType": "struct Lib_BVMCodec.ChainBatchHeader",
          "name": "_batchHeader",
          "type": "tuple"
        },
        {
          "components": [
            {
              "internalType": "uint256",
              "name": "index",
              "type": "uint256"
            },
            {
              "internalType": "bytes32[]",
              "name": "siblings",
              "type": "bytes32[]"
            }
          ],
          "internalType": "struct Lib_BVMCodec.ChainInclusionProof",
          "name": "_proof",
          "type": "tuple"
        }
      ],
      "name": "verifyStateCommitment",
      "outputs": [
        {
          "internalType": "bool",
          "name": "",
          "type": "bool"
        }
      ],
      "stateMutability": "view",
      "type": "function"
    }
  ],
  "transactionHash": "0xe3a0ad636af2c94bfa72bdd8427b80c83f8ce7ce2906e2cabdd85ac0b0230f3d",
  "args": [
    "0x92aBAD50368175785e4270ca9eFd169c949C4ce1",
    0,
    12592000
  ],
  "numDeployments": 1,
  "solcInputHash": "5c9ed17eb5c0ea9df91b3711b5d1d506",
  "bytecode": "0x608060405234801561001057600080fd5b5060405162002314380380620023148339810160408190526100319161005d565b600080546001600160a01b0319166001600160a01b0394909416939093179092556001556002556100a0565b60008060006060848603121561007257600080fd5b83516001600160a01b038116811461008957600080fd5b602085015160409095015190969495509392505050565b61226480620000b06000396000f3fe608060405234801561001057600080fd5b50600436106100d45760003560e01c806381eb62ef11610081578063c17b291b1161005b578063c17b291b146101bb578063cfdf677e146101c4578063e561dddc146101cc57600080fd5b806381eb62ef1461017c57806389a1d98014610185578063b768bb17146101a857600080fd5b80635b4d90e2116100b25780635b4d90e21461014b5780637aa63a861461015e5780637ad168a01461017457600080fd5b80632169f79f146100d9578063299ca478146100ee578063461a447814610138575b600080fd5b6100ec6100e7366004611c5e565b6101d4565b005b60005461010e9073ffffffffffffffffffffffffffffffffffffffff1681565b60405173ffffffffffffffffffffffffffffffffffffffff90911681526020015b60405180910390f35b61010e610146366004611ccb565b6105df565b6100ec610159366004611db3565b61068c565b610166610848565b60405190815260200161012f565b610166610861565b61016660025481565b610198610193366004611db3565b61087a565b604051901515815260200161012f565b6101986101b6366004611de8565b610922565b61016660015481565b61010e6109ec565b610166610a14565b6101dc610848565b82146102555760405162461bcd60e51b815260206004820152603d60248201527f41637475616c20626174636820737461727420696e64657820646f6573206e6f60448201527f74206d6174636820657870656374656420737461727420696e6465782e00000060648201526084015b60405180910390fd5b6102936040518060400160405280600b81526020017f426f6e644d616e616765720000000000000000000000000000000000000000008152506105df565b6040517f02ad4d2a00000000000000000000000000000000000000000000000000000000815233600482015273ffffffffffffffffffffffffffffffffffffffff91909116906302ad4d2a9060240160206040518083038186803b1580156102fa57600080fd5b505afa15801561030e573d6000803e3d6000fd5b505050506040513d601f19601f820116820180604052508101906103329190611ea5565b6103a45760405162461bcd60e51b815260206004820152602f60248201527f50726f706f73657220646f6573206e6f74206861766520656e6f75676820636f60448201527f6c6c61746572616c20706f737465640000000000000000000000000000000000606482015260840161024c565b600083511161041b5760405162461bcd60e51b815260206004820152602360248201527f43616e6e6f74207375626d697420616e20656d7074792073746174652062617460448201527f63682e0000000000000000000000000000000000000000000000000000000000606482015260840161024c565b6104596040518060400160405280601981526020017f43616e6f6e6963616c5472616e73616374696f6e436861696e000000000000008152506105df565b73ffffffffffffffffffffffffffffffffffffffff16637aa63a866040518163ffffffff1660e01b815260040160206040518083038186803b15801561049e57600080fd5b505afa1580156104b2573d6000803e3d6000fd5b505050506040513d601f19601f820116820180604052508101906104d69190611ec7565b83516104e0610848565b6104ea9190611f0f565b11156105845760405162461bcd60e51b815260206004820152604960248201527f4e756d626572206f6620737461746520726f6f74732063616e6e6f742065786360448201527f65656420746865206e756d626572206f662063616e6f6e6963616c207472616e60648201527f73616374696f6e732e0000000000000000000000000000000000000000000000608482015260a40161024c565b61058f838383610a9b565b6105da838242336040516020016105c692919091825273ffffffffffffffffffffffffffffffffffffffff16602082015260400190565b604051602081830303815290604052610bd9565b505050565b600080546040517fbf40fac100000000000000000000000000000000000000000000000000000000815273ffffffffffffffffffffffffffffffffffffffff9091169063bf40fac190610636908590600401611f92565b60206040518083038186803b15801561064e57600080fd5b505afa158015610662573d6000803e3d6000fd5b505050506040513d601f19601f820116820180604052508101906106869190611fc7565b92915050565b6106ca6040518060400160405280601181526020017f42564d5f467261756456657269666965720000000000000000000000000000008152506105df565b73ffffffffffffffffffffffffffffffffffffffff163373ffffffffffffffffffffffffffffffffffffffff161461076a5760405162461bcd60e51b815260206004820152603b60248201527f537461746520626174636865732063616e206f6e6c792062652064656c65746560448201527f64206279207468652042564d5f467261756456657269666965722e0000000000606482015260840161024c565b61077381610e89565b6107bf5760405162461bcd60e51b815260206004820152601560248201527f496e76616c6964206261746368206865616465722e0000000000000000000000604482015260640161024c565b6107c88161087a565b61083c576040805162461bcd60e51b81526020600482015260248101919091527f537461746520626174636865732063616e206f6e6c792062652064656c65746560448201527f642077697468696e207468652066726175642070726f6f662077696e646f772e606482015260840161024c565b61084581610f4b565b50565b60008061085361117c565b5064ffffffffff1692915050565b60008061086c61117c565b64ffffffffff169392505050565b6000808260a001518060200190518101906108959190611fe4565b5090508061090b5760405162461bcd60e51b815260206004820152602560248201527f4261746368206865616465722074696d657374616d702063616e6e6f7420626560448201527f207a65726f000000000000000000000000000000000000000000000000000000606482015260840161024c565b426001548261091a9190611f0f565b119392505050565b600061092d83610e89565b6109795760405162461bcd60e51b815260206004820152601560248201527f496e76616c6964206261746368206865616465722e0000000000000000000000604482015260640161024c565b610996836020015185846000015185602001518760400151611220565b6109e25760405162461bcd60e51b815260206004820152601860248201527f496e76616c696420696e636c7573696f6e2070726f6f662e0000000000000000604482015260640161024c565b5060019392505050565b6000610a0f60405180606001604052806021815260200161220e602191396105df565b905090565b6000610a1e6109ec565b73ffffffffffffffffffffffffffffffffffffffff16631f7b6d326040518163ffffffff1660e01b815260040160206040518083038186803b158015610a6357600080fd5b505afa158015610a77573d6000803e3d6000fd5b505050506040513d601f19601f82011682018060405250810190610a0f9190611ec7565b610ad96040518060400160405280601781526020017f50726f78795f5f5453535f47726f75704d616e616765720000000000000000008152506105df565b73ffffffffffffffffffffffffffffffffffffffff16633231a7f08484604051602001610b07929190612014565b60405160208183030381529060405280519060200120836040518363ffffffff1660e01b8152600401610b3b92919061205c565b602060405180830381600087803b158015610b5557600080fd5b505af1158015610b69573d6000803e3d6000fd5b505050506040513d601f19601f82011682018060405250810190610b8d9190611ea5565b6105da5760405162461bcd60e51b815260206004820152601760248201527f766572696679207369676e6174757265206661696c6564000000000000000000604482015260640161024c565b6000610c196040518060400160405280600c81526020017f42564d5f50726f706f73657200000000000000000000000000000000000000008152506105df565b9050600080610c2661117c565b90925090503373ffffffffffffffffffffffffffffffffffffffff84161415610c50575042610cff565b426002548264ffffffffff16610c669190611f0f565b10610cff5760405162461bcd60e51b815260206004820152604360248201527f43616e6e6f74207075626c69736820737461746520726f6f747320776974686960448201527f6e207468652073657175656e636572207075626c69636174696f6e2077696e6460648201527f6f772e0000000000000000000000000000000000000000000000000000000000608482015260a40161024c565b60006040518060c00160405280610d14610a14565b8152602001610d228961148e565b8152602001885181526020018464ffffffffff16815260200187815260200186815250905080600001517f9cf3ad24eae3fd6d461e2f566b35b95b6d671871d9fcb45f8ac8030e4a8d21b382602001518360400151846060015185608001518660a00151604051610d97959493929190612075565b60405180910390a2610da76109ec565b73ffffffffffffffffffffffffffffffffffffffff16632015276c610dcb83611972565b610df084604001518560600151610de29190611f0f565b602887811b91909117901b90565b6040517fffffffff0000000000000000000000000000000000000000000000000000000060e085901b16815260048101929092527fffffffffffffffffffffffffffffffffffffffffffffffffffffff0000000000166024820152604401600060405180830381600087803b158015610e6857600080fd5b505af1158015610e7c573d6000803e3d6000fd5b5050505050505050505050565b6000610e936109ec565b82516040517f9507d39a00000000000000000000000000000000000000000000000000000000815273ffffffffffffffffffffffffffffffffffffffff9290921691639507d39a91610eeb9160040190815260200190565b60206040518083038186803b158015610f0357600080fd5b505afa158015610f17573d6000803e3d6000fd5b505050506040513d601f19601f82011682018060405250810190610f3b9190611ec7565b610f4483611972565b1492915050565b610f536109ec565b73ffffffffffffffffffffffffffffffffffffffff16631f7b6d326040518163ffffffff1660e01b815260040160206040518083038186803b158015610f9857600080fd5b505afa158015610fac573d6000803e3d6000fd5b505050506040513d601f19601f82011682018060405250810190610fd09190611ec7565b81511061101f5760405162461bcd60e51b815260206004820152601460248201527f496e76616c696420626174636820696e6465782e000000000000000000000000604482015260640161024c565b61102881610e89565b6110745760405162461bcd60e51b815260206004820152601560248201527f496e76616c6964206261746368206865616465722e0000000000000000000000604482015260640161024c565b61107c6109ec565b8151606083015173ffffffffffffffffffffffffffffffffffffffff929092169163167fd681919060281b6040517fffffffff0000000000000000000000000000000000000000000000000000000060e085901b16815260048101929092527fffffffffffffffffffffffffffffffffffffffffffffffffffffff0000000000166024820152604401600060405180830381600087803b15801561111f57600080fd5b505af1158015611133573d6000803e3d6000fd5b5050505080600001517f8747b69ce8fdb31c3b9b0a67bd8049ad8c1a69ea417b69b12174068abd9cbd64826020015160405161117191815260200190565b60405180910390a250565b60008060006111896109ec565b73ffffffffffffffffffffffffffffffffffffffff1663ccf8f9696040518163ffffffff1660e01b815260040160206040518083038186803b1580156111ce57600080fd5b505afa1580156111e2573d6000803e3d6000fd5b505050506040513d601f19601f8201168201806040525081019061120691906120b8565b64ffffffffff602882901c169460509190911c9350915050565b60008082116112975760405162461bcd60e51b815260206004820152603760248201527f4c69625f4d65726b6c65547265653a20546f74616c206c6561766573206d757360448201527f742062652067726561746572207468616e207a65726f2e000000000000000000606482015260840161024c565b81841061130b5760405162461bcd60e51b8152602060048201526024808201527f4c69625f4d65726b6c65547265653a20496e646578206f7574206f6620626f7560448201527f6e64732e00000000000000000000000000000000000000000000000000000000606482015260840161024c565b611314826119bb565b8351146113af5760405162461bcd60e51b815260206004820152604d60248201527f4c69625f4d65726b6c65547265653a20546f74616c207369626c696e6773206460448201527f6f6573206e6f7420636f72726563746c7920636f72726573706f6e6420746f2060648201527f746f74616c206c65617665732e00000000000000000000000000000000000000608482015260a40161024c565b8460005b845181101561148157856001166001141561141a578481815181106113da576113da6120fa565b6020026020010151826040516020016113fd929190918252602082015260400190565b604051602081830303815290604052805190602001209150611468565b8185828151811061142d5761142d6120fa565b602002602001015160405160200161144f929190918252602082015260400190565b6040516020818303038152906040528051906020012091505b60019590951c948061147981612129565b9150506113b3565b5090951495945050505050565b6000808251116115065760405162461bcd60e51b815260206004820152603460248201527f4c69625f4d65726b6c65547265653a204d7573742070726f766964652061742060448201527f6c65617374206f6e65206c65616620686173682e000000000000000000000000606482015260840161024c565b8151600114156115325781600081518110611523576115236120fa565b60200260200101519050919050565b60408051610200810182527f290decd9548b62a8d60345a988386fc84ba6bc95484008f6362f93160ef3e56381527f633dc4d7da7256660a892f8f1604a44b5432649cc8ec5cb3ced4c4e6ac94dd1d60208201527f890740a8eb06ce9be422cb8da5cdafc2b58c0a5e24036c578de2a433c828ff7d818301527f3b8ec09e026fdc305365dfc94e189a81b38c7597b3d941c279f042e8206e0bd86060808301919091527fecd50eee38e386bd62be9bedb990706951b65fe053bd9d8a521af753d139e2da60808301527fdefff6d330bb5403f63b14f33b578274160de3a50df4efecf0e0db73bcdd3da560a08301527f617bdd11f7c0a11f49db22f629387a12da7596f9d1704d7465177c63d88ec7d760c08301527f292c23a9aa1d8bea7e2435e555a4a60e379a5a35f3f452bae60121073fb6eead60e08301527fe1cea92ed99acdcb045a6726b2f87107e8a61620a232cf4d7d5b5766b3952e106101008301527f7ad66c0a68c72cb89e4fb4303841966e4062a76ab97451e3b9fb526a5ceb7f826101208301527fe026cc5a4aed3c22a58cbd3d2ac754c9352c5436f638042dca99034e836365166101408301527f3d04cffd8b46a874edf5cfae63077de85f849a660426697b06a829c70dd1409c6101608301527fad676aa337a485e4728a0b240d92b3ef7b3c372d06d189322bfd5f61f1e7203e6101808301527fa2fca4a49658f9fab7aa63289c91b7c7b6c832a6d0e69334ff5b0a3483d09dab6101a08301527f4ebfd9cd7bca2505f7bef59cc1c12ecc708fff26ae4af19abe852afe9e20c8626101c08301527f2def10d13dd169f550f578bda343d9717a138562e0093b380a1120789d53cf106101e083015282518381529081018352909160009190602082018180368337505085519192506000918291508180805b6001841115611948576117e3600285612191565b91506117f06002856121a5565b600114905060005b8281101561189c578a61180c8260026121b9565b8151811061181c5761181c6120fa565b602002602001015196508a81600261183491906121b9565b61183f906001611f0f565b8151811061184f5761184f6120fa565b6020026020010151955086602089015285604089015287805190602001208b828151811061187f5761187f6120fa565b60209081029190910101528061189481612129565b9150506117f8565b50801561191857896118af6001866121f6565b815181106118bf576118bf6120fa565b602002602001015195508783601081106118db576118db6120fa565b602002015160001b945085602088015284604088015286805190602001208a838151811061190b5761190b6120fa565b6020026020010181815250505b80611924576000611927565b60015b6119349060ff1683611f0f565b93508261194081612129565b9350506117cf565b8960008151811061195b5761195b6120fa565b602002602001015198505050505050505050919050565b6020808201516040808401516060850151608086015160a0870151935160009661199e96959101612075565b604051602081830303815290604052805190602001209050919050565b6000808211611a325760405162461bcd60e51b815260206004820152603060248201527f4c69625f4d65726b6c65547265653a2043616e6e6f7420636f6d70757465206360448201527f65696c286c6f675f3229206f6620302e00000000000000000000000000000000606482015260840161024c565b8160011415611a4357506000919050565b81600060805b60018110611a815780611a5f600180831b6121f6565b901b831615611a7957611a728183611f0f565b92811c9291505b60011c611a49565b506001811b8414611a9a57611a97600182611f0f565b90505b9392505050565b7f4e487b7100000000000000000000000000000000000000000000000000000000600052604160045260246000fd5b60405160c0810167ffffffffffffffff81118282101715611af357611af3611aa1565b60405290565b604051601f82017fffffffffffffffffffffffffffffffffffffffffffffffffffffffffffffffe016810167ffffffffffffffff81118282101715611b4057611b40611aa1565b604052919050565b600082601f830112611b5957600080fd5b8135602067ffffffffffffffff821115611b7557611b75611aa1565b8160051b611b84828201611af9565b9283528481018201928281019087851115611b9e57600080fd5b83870192505b84831015611bbd57823582529183019190830190611ba4565b979650505050505050565b600067ffffffffffffffff831115611be257611be2611aa1565b611c1360207fffffffffffffffffffffffffffffffffffffffffffffffffffffffffffffffe0601f86011601611af9565b9050828152838383011115611c2757600080fd5b828260208301376000602084830101529392505050565b600082601f830112611c4f57600080fd5b611a9a83833560208501611bc8565b600080600060608486031215611c7357600080fd5b833567ffffffffffffffff80821115611c8b57600080fd5b611c9787838801611b48565b9450602086013593506040860135915080821115611cb457600080fd5b50611cc186828701611c3e565b9150509250925092565b600060208284031215611cdd57600080fd5b813567ffffffffffffffff811115611cf457600080fd5b8201601f81018413611d0557600080fd5b611d1484823560208401611bc8565b949350505050565b600060c08284031215611d2e57600080fd5b611d36611ad0565b905081358152602082013560208201526040820135604082015260608201356060820152608082013567ffffffffffffffff80821115611d7557600080fd5b611d8185838601611c3e565b608084015260a0840135915080821115611d9a57600080fd5b50611da784828501611c3e565b60a08301525092915050565b600060208284031215611dc557600080fd5b813567ffffffffffffffff811115611ddc57600080fd5b611d1484828501611d1c565b600080600060608486031215611dfd57600080fd5b83359250602084013567ffffffffffffffff80821115611e1c57600080fd5b611e2887838801611d1c565b93506040860135915080821115611e3e57600080fd5b9085019060408288031215611e5257600080fd5b604051604081018181108382111715611e6d57611e6d611aa1565b60405282358152602083013582811115611e8657600080fd5b611e9289828601611b48565b6020830152508093505050509250925092565b600060208284031215611eb757600080fd5b81518015158114611a9a57600080fd5b600060208284031215611ed957600080fd5b5051919050565b7f4e487b7100000000000000000000000000000000000000000000000000000000600052601160045260246000fd5b60008219821115611f2257611f22611ee0565b500190565b6000815180845260005b81811015611f4d57602081850181015186830182015201611f31565b81811115611f5f576000602083870101525b50601f017fffffffffffffffffffffffffffffffffffffffffffffffffffffffffffffffe0169290920160200192915050565b602081526000611a9a6020830184611f27565b73ffffffffffffffffffffffffffffffffffffffff8116811461084557600080fd5b600060208284031215611fd957600080fd5b8151611a9a81611fa5565b60008060408385031215611ff757600080fd5b82519150602083015161200981611fa5565b809150509250929050565b604080825283519082018190526000906020906060840190828701845b8281101561204d57815184529284019290840190600101612031565b50505092019290925292915050565b828152604060208201526000611d146040830184611f27565b85815284602082015283604082015260a06060820152600061209a60a0830185611f27565b82810360808401526120ac8185611f27565b98975050505050505050565b6000602082840312156120ca57600080fd5b81517fffffffffffffffffffffffffffffffffffffffffffffffffffffff000000000081168114611a9a57600080fd5b7f4e487b7100000000000000000000000000000000000000000000000000000000600052603260045260246000fd5b60007fffffffffffffffffffffffffffffffffffffffffffffffffffffffffffffffff82141561215b5761215b611ee0565b5060010190565b7f4e487b7100000000000000000000000000000000000000000000000000000000600052601260045260246000fd5b6000826121a0576121a0612162565b500490565b6000826121b4576121b4612162565b500690565b6000817fffffffffffffffffffffffffffffffffffffffffffffffffffffffffffffffff04831182151516156121f1576121f1611ee0565b500290565b60008282101561220857612208611ee0565b50039056fe436861696e53746f72616765436f6e7461696e65722d5343432d62617463686573a2646970667358221220f08cbc5f5b472aa63119d7346bb85c95a6e4d8b996893c358cbd3978e70727ca64736f6c63430008090033",
  "devdoc": {
    "details": "The State Commitment Chain (SCC) contract contains a list of proposed state roots which Proposers assert to be a result of each transaction in the Canonical Transaction Chain (CTC). Elements here have a 1:1 correspondence with transactions in the CTC, and should be the unique state root calculated off-chain by applying the canonical transactions one by one.",
    "kind": "dev",
    "methods": {
      "appendStateBatch(bytes32[],uint256,bytes)": {
        "params": {
          "_batch": "Batch of state roots.",
          "_shouldStartAtElement": "Index of the element at which this batch should start."
        }
      },
      "batches()": {
        "returns": {
          "_0": "Reference to the batch storage container."
        }
      },
      "constructor": {
        "params": {
          "_libAddressManager": "Address of the Address Manager."
        }
      },
      "deleteStateBatch((uint256,bytes32,uint256,uint256,bytes,bytes))": {
        "params": {
          "_batchHeader": "Header of the batch to start deleting from."
        }
      },
      "getLastSequencerTimestamp()": {
        "returns": {
          "_lastSequencerTimestamp": "Last sequencer batch timestamp."
        }
      },
      "getTotalBatches()": {
        "returns": {
          "_totalBatches": "Total submitted batches."
        }
      },
      "getTotalElements()": {
        "returns": {
          "_totalElements": "Total submitted elements."
        }
      },
      "insideFraudProofWindow((uint256,bytes32,uint256,uint256,bytes,bytes))": {
        "params": {
          "_batchHeader": "Header of the batch to check."
        },
        "returns": {
          "_inside": "Whether or not the batch is inside the fraud proof window."
        }
      },
      "resolve(string)": {
        "params": {
          "_name": "Name to resolve an address for."
        },
        "returns": {
          "_0": "Address associated with the given name."
        }
      },
      "verifyStateCommitment(bytes32,(uint256,bytes32,uint256,uint256,bytes,bytes),(uint256,bytes32[]))": {
        "params": {
          "_batchHeader": "Header of the batch in which the element was included.",
          "_element": "Hash of the element to verify a proof for.",
          "_proof": "Merkle inclusion proof for the element."
        }
      }
    },
    "title": "StateCommitmentChain",
    "version": 1
  },
  "userdoc": {
    "kind": "user",
    "methods": {
      "appendStateBatch(bytes32[],uint256,bytes)": {
        "notice": "Appends a batch of state roots to the chain."
      },
      "batches()": {
        "notice": "Accesses the batch storage container."
      },
      "deleteStateBatch((uint256,bytes32,uint256,uint256,bytes,bytes))": {
        "notice": "Deletes all state roots after (and including) a given batch."
      },
      "getLastSequencerTimestamp()": {
        "notice": "Retrieves the timestamp of the last batch submitted by the sequencer."
      },
      "getTotalBatches()": {
        "notice": "Retrieves the total number of batches submitted."
      },
      "getTotalElements()": {
        "notice": "Retrieves the total number of elements submitted."
      },
      "insideFraudProofWindow((uint256,bytes32,uint256,uint256,bytes,bytes))": {
        "notice": "Checks whether a given batch is still inside its fraud proof window."
      },
      "resolve(string)": {
        "notice": "Resolves the address associated with a given name."
      },
      "verifyStateCommitment(bytes32,(uint256,bytes32,uint256,uint256,bytes,bytes),(uint256,bytes32[]))": {
        "notice": "Verifies a batch inclusion proof."
      }
    },
    "version": 1
  },
  "storageLayout": {
    "storage": [
      {
        "astId": 14210,
        "contract": "contracts/L1/rollup/StateCommitmentChain.sol:StateCommitmentChain",
        "label": "libAddressManager",
        "offset": 0,
        "slot": "0",
        "type": "t_contract(Lib_AddressManager)14202"
      },
      {
        "astId": 8451,
        "contract": "contracts/L1/rollup/StateCommitmentChain.sol:StateCommitmentChain",
        "label": "FRAUD_PROOF_WINDOW",
        "offset": 0,
        "slot": "1",
        "type": "t_uint256"
      },
      {
        "astId": 8453,
        "contract": "contracts/L1/rollup/StateCommitmentChain.sol:StateCommitmentChain",
        "label": "SEQUENCER_PUBLISH_WINDOW",
        "offset": 0,
        "slot": "2",
        "type": "t_uint256"
      }
    ],
    "types": {
      "t_contract(Lib_AddressManager)14202": {
        "encoding": "inplace",
        "label": "contract Lib_AddressManager",
        "numberOfBytes": "20"
      },
      "t_uint256": {
        "encoding": "inplace",
        "label": "uint256",
        "numberOfBytes": "32"
      }
    }
  }
}