{
  "_format": "hh-sol-artifact-1",
  "contractName": "TssRewardContract",
  "sourceName": "contracts/L2/predeploys/TssRewardContract.sol",
  "abi": [
    {
      "inputs": [
        {
          "internalType": "address",
          "name": "_deadAddress",
          "type": "address"
        },
        {
          "internalType": "address",
          "name": "_owner",
          "type": "address"
        },
        {
          "internalType": "uint256",
          "name": "_sendAmountPerYear",
          "type": "uint256"
        },
        {
          "internalType": "address",
          "name": "_bvmGasPriceOracleAddress",
          "type": "address"
        },
        {
          "internalType": "address",
          "name": "_l2Message",
          "type": "address"
        }
      ],
      "stateMutability": "nonpayable",
      "type": "constructor"
    },
    {
      "anonymous": false,
      "inputs": [
        {
          "indexed": false,
          "internalType": "uint256",
          "name": "batchTime",
          "type": "uint256"
        },
        {
          "indexed": false,
          "internalType": "address[]",
          "name": "tssMembers",
          "type": "address[]"
        }
      ],
      "name": "DistributeTssReward",
      "type": "event"
    },
    {
      "anonymous": false,
      "inputs": [
        {
          "indexed": false,
          "internalType": "uint256",
          "name": "blockStartHeight",
          "type": "uint256"
        },
        {
          "indexed": false,
          "internalType": "uint32",
          "name": "length",
          "type": "uint32"
        },
        {
          "indexed": false,
          "internalType": "address[]",
          "name": "tssMembers",
          "type": "address[]"
        }
      ],
      "name": "DistributeTssRewardByBlock",
      "type": "event"
    },
    {
      "inputs": [],
      "name": "bestBlockID",
      "outputs": [
        {
          "internalType": "uint256",
          "name": "",
          "type": "uint256"
        }
      ],
      "stateMutability": "view",
      "type": "function"
    },
    {
      "inputs": [],
      "name": "bvmGasPriceOracleAddress",
      "outputs": [
        {
          "internalType": "address",
          "name": "",
          "type": "address"
        }
      ],
      "stateMutability": "view",
      "type": "function"
    },
    {
      "inputs": [
        {
          "internalType": "uint256",
          "name": "_blockStartHeight",
          "type": "uint256"
        },
        {
          "internalType": "uint32",
          "name": "_length",
          "type": "uint32"
        },
        {
          "internalType": "uint256",
          "name": "_batchTime",
          "type": "uint256"
        },
        {
          "internalType": "address[]",
          "name": "_tssMembers",
          "type": "address[]"
        }
      ],
      "name": "claimReward",
      "outputs": [],
      "stateMutability": "nonpayable",
      "type": "function"
    },
    {
      "inputs": [],
      "name": "deadAddress",
      "outputs": [
        {
          "internalType": "address",
          "name": "",
          "type": "address"
        }
      ],
      "stateMutability": "view",
      "type": "function"
    },
    {
      "inputs": [],
      "name": "dust",
      "outputs": [
        {
          "internalType": "uint256",
          "name": "",
          "type": "uint256"
        }
      ],
      "stateMutability": "view",
      "type": "function"
    },
    {
      "inputs": [],
      "name": "l2Message",
      "outputs": [
        {
          "internalType": "address",
          "name": "",
          "type": "address"
        }
      ],
      "stateMutability": "view",
      "type": "function"
    },
    {
      "inputs": [],
      "name": "latsBatchTime",
      "outputs": [
        {
          "internalType": "uint256",
          "name": "",
          "type": "uint256"
        }
      ],
      "stateMutability": "view",
      "type": "function"
    },
    {
      "inputs": [
        {
          "internalType": "uint256",
          "name": "",
          "type": "uint256"
        }
      ],
      "name": "ledger",
      "outputs": [
        {
          "internalType": "uint256",
          "name": "",
          "type": "uint256"
        }
      ],
      "stateMutability": "view",
      "type": "function"
    },
    {
      "inputs": [],
      "name": "owner",
      "outputs": [
        {
          "internalType": "address",
          "name": "",
          "type": "address"
        }
      ],
      "stateMutability": "view",
      "type": "function"
    },
    {
      "inputs": [],
      "name": "queryOwner",
      "outputs": [
        {
          "internalType": "address",
          "name": "",
          "type": "address"
        }
      ],
      "stateMutability": "view",
      "type": "function"
    },
    {
      "inputs": [],
      "name": "queryReward",
      "outputs": [
        {
          "internalType": "uint256",
          "name": "",
          "type": "uint256"
        }
      ],
      "stateMutability": "view",
      "type": "function"
    },
    {
      "inputs": [],
      "name": "querySendAmountPerSecond",
      "outputs": [
        {
          "internalType": "uint256",
          "name": "",
          "type": "uint256"
        }
      ],
      "stateMutability": "view",
      "type": "function"
    },
    {
      "inputs": [],
      "name": "sendAmountPerYear",
      "outputs": [
        {
          "internalType": "uint256",
          "name": "",
          "type": "uint256"
        }
      ],
      "stateMutability": "view",
      "type": "function"
    },
    {
      "inputs": [],
      "name": "totalAmount",
      "outputs": [
        {
          "internalType": "uint256",
          "name": "",
          "type": "uint256"
        }
      ],
      "stateMutability": "view",
      "type": "function"
    },
    {
      "inputs": [
        {
          "internalType": "uint256",
          "name": "_blockID",
          "type": "uint256"
        },
        {
          "internalType": "uint256",
          "name": "_amount",
          "type": "uint256"
        }
      ],
      "name": "updateReward",
      "outputs": [
        {
          "internalType": "bool",
          "name": "",
          "type": "bool"
        }
      ],
      "stateMutability": "nonpayable",
      "type": "function"
    },
    {
      "inputs": [],
      "name": "withdraw",
      "outputs": [],
      "stateMutability": "nonpayable",
      "type": "function"
    },
    {
      "inputs": [],
      "name": "withdrawDust",
      "outputs": [],
      "stateMutability": "nonpayable",
      "type": "function"
    },
    {
      "stateMutability": "payable",
      "type": "receive"
    }
  ],
  "bytecode": "0x60806040523480156200001157600080fd5b5060405162001274380380620012748339810160408190526200003491620000aa565b600280546001600160a01b039687166001600160a01b0319918216179091556003805495871695821695909517909455600892909255600180549185169184169190911790556009805491909316911617905562000111565b80516001600160a01b0381168114620000a557600080fd5b919050565b600080600080600060a08688031215620000c357600080fd5b620000ce866200008d565b9450620000de602087016200008d565b935060408601519250620000f5606087016200008d565b915062000105608087016200008d565b90509295509295909350565b61115380620001216000396000f3fe6080604052600436106101125760003560e01c80632c79db11116100a5578063cfb550f111610074578063e3dad28511610059578063e3dad2851461031f578063fa11fd5a14610335578063fad9aba31461036057600080fd5b8063cfb550f1146102f4578063d8111a571461030957600080fd5b80632c79db11146102705780633ccfd60b146102855780638da5cb5b1461029a578063c9dd594b146102c757600080fd5b806315c6f166116100e157806315c6f1661461020257806319d509a1146102175780631a39d8ef1461022d57806327c8f8351461024357600080fd5b80630b50cd3e1461011e5780630fae75d91461015357806310a7fd7b14610175578063110b7eb0146101b057600080fd5b3661011957005b600080fd5b34801561012a57600080fd5b5061013e610139366004610df5565b610376565b60405190151581526020015b60405180910390f35b34801561015f57600080fd5b5061017361016e366004610e17565b610558565b005b34801561018157600080fd5b506101a2610190366004610eb9565b60006020819052908152604090205481565b60405190815260200161014a565b3480156101bc57600080fd5b506001546101dd9073ffffffffffffffffffffffffffffffffffffffff1681565b60405173ffffffffffffffffffffffffffffffffffffffff909116815260200161014a565b34801561020e57600080fd5b506101a261081d565b34801561022357600080fd5b506101a260055481565b34801561023957600080fd5b506101a260065481565b34801561024f57600080fd5b506002546101dd9073ffffffffffffffffffffffffffffffffffffffff1681565b34801561027c57600080fd5b506101a2610848565b34801561029157600080fd5b506101736108e1565b3480156102a657600080fd5b506003546101dd9073ffffffffffffffffffffffffffffffffffffffff1681565b3480156102d357600080fd5b506009546101dd9073ffffffffffffffffffffffffffffffffffffffff1681565b34801561030057600080fd5b50610173610a6f565b34801561031557600080fd5b506101a260085481565b34801561032b57600080fd5b506101a260075481565b34801561034157600080fd5b5060035473ffffffffffffffffffffffffffffffffffffffff166101dd565b34801561036c57600080fd5b506101a260045481565b60025460009073ffffffffffffffffffffffffffffffffffffffff163314610425576040517f08c379a000000000000000000000000000000000000000000000000000000000815260206004820152602760248201527f747373207265776172642063616c6c206d65737361676520756e61757468656e60448201527f746963617465640000000000000000000000000000000000000000000000000060648201526084015b60405180910390fd5b6006544710156104b7576040517f08c379a000000000000000000000000000000000000000000000000000000000815260206004820152603160248201527f62616c616e6365207265636f726420616e6420636f6e74726163742062616c6160448201527f6e636520617265206e6f7420657175616c000000000000000000000000000000606482015260840161041c565b6005546104c5906001610f01565b831461052d576040517f08c379a000000000000000000000000000000000000000000000000000000000815260206004820152601760248201527f626c6f636b2069642075706461746520696c6c6567616c000000000000000000604482015260640161041c565b600583905560065461053f9083610c13565b6006555060009182526020829052604090912055600190565b60095473ffffffffffffffffffffffffffffffffffffffff1633146105ff576040517f08c379a000000000000000000000000000000000000000000000000000000000815260206004820152602760248201527f747373207265776172642063616c6c206d65737361676520756e61757468656e60448201527f7469636174656400000000000000000000000000000000000000000000000000606482015260840161041c565b600160009054906101000a900473ffffffffffffffffffffffffffffffffffffffff1673ffffffffffffffffffffffffffffffffffffffff16630d1e43a06040518163ffffffff1660e01b815260040160206040518083038186803b15801561066757600080fd5b505afa15801561067b573d6000803e3d6000fd5b505050506040513d601f19601f8201168201806040525081019061069f9190610f19565b15156001146106b9576106b485858484610c26565b610816565b6000806000600754600014156106d6575050506007839055610816565b6004546106e161081d565b6007546106ee9089610f3b565b6106f89190610f52565b6107029190610f01565b600060045591506107138285610ddd565b925060005b848110156107b057600086868381811061073457610734610f8f565b90506020020160208101906107499190610fe7565b90506107558386610c13565b60405190935073ffffffffffffffffffffffffffffffffffffffff82169086156108fc029087906000818181858888f1935050505015801561079b573d6000803e3d6000fd5b505080806107a890611002565b915050610718565b5060006107bd8383610de9565b905080156107d6576004546107d29082610c13565b6004555b7ff8c88edb629fd6d7636c9252b157475c11ff64f1be0cd034423e9e1046499b008787876040516108099392919061108f565b60405180910390a1505050505b5050505050565b60006108436301e13380600854670de0b6b3a764000061083d9190610f52565b90610ddd565b905090565b60006006544710156108dc576040517f08c379a000000000000000000000000000000000000000000000000000000000815260206004820152603160248201527f62616c616e6365207265636f726420616e6420636f6e74726163742062616c6160448201527f6e636520617265206e6f7420657175616c000000000000000000000000000000606482015260840161041c565b504790565b60035473ffffffffffffffffffffffffffffffffffffffff163314610988576040517f08c379a000000000000000000000000000000000000000000000000000000000815260206004820152602c60248201527f6f6e6c792062652063616c6c656420627920746865206f776e6572206f66207460448201527f68697320636f6e74726163740000000000000000000000000000000000000000606482015260840161041c565b600654471015610a1a576040517f08c379a000000000000000000000000000000000000000000000000000000000815260206004820152603160248201527f62616c616e6365207265636f726420616e6420636f6e74726163742062616c6160448201527f6e636520617265206e6f7420657175616c000000000000000000000000000000606482015260840161041c565b60006006554715610a6d5760035460405173ffffffffffffffffffffffffffffffffffffffff909116904780156108fc02916000818181858888f19350505050158015610a6b573d6000803e3d6000fd5b505b565b60035473ffffffffffffffffffffffffffffffffffffffff163314610b16576040517f08c379a000000000000000000000000000000000000000000000000000000000815260206004820152602c60248201527f6f6e6c792062652063616c6c656420627920746865206f776e6572206f66207460448201527f68697320636f6e74726163740000000000000000000000000000000000000000606482015260840161041c565b600654471015610ba8576040517f08c379a000000000000000000000000000000000000000000000000000000000815260206004820152603160248201527f62616c616e6365207265636f726420616e6420636f6e74726163742062616c6160448201527f6e636520617265206e6f7420657175616c000000000000000000000000000000606482015260840161041c565b600454600654610bb89082610de9565b60065560006004558015610a6b5760035460045460405173ffffffffffffffffffffffffffffffffffffffff9092169181156108fc0291906000818181858888f19350505050158015610c0f573d6000803e3d6000fd5b5050565b6000610c1f8284610f01565b9392505050565b6000806000805b8663ffffffff16811015610c9d57610c69600080610c4b848c610f01565b81526020019081526020016000205484610c1390919063ffffffff16565b9250600080610c78838b610f01565b8152602001908152602001600020600090558080610c9590611002565b915050610c2d565b508115610d9757600454610cb19083610f01565b60006004559150610cc28285610ddd565b925060005b84811015610d6f576000868683818110610ce357610ce3610f8f565b9050602002016020810190610cf89190610fe7565b9050610d048386610c13565b600654909350610d149086610de9565b60065560405173ffffffffffffffffffffffffffffffffffffffff82169086156108fc029087906000818181858888f19350505050158015610d5a573d6000803e3d6000fd5b50508080610d6790611002565b915050610cc7565b506000610d7c8383610de9565b90508015610d9557600454610d919082610c13565b6004555b505b7f417ed5c981c4836fcb057421eaeb9defc15ab95bfadab190ec10e11aecaeeeb987878787604051610dcc94939291906110b2565b60405180910390a150505050505050565b6000610c1f82846110e2565b6000610c1f8284610f3b565b60008060408385031215610e0857600080fd5b50508035926020909101359150565b600080600080600060808688031215610e2f57600080fd5b85359450602086013563ffffffff81168114610e4a57600080fd5b935060408601359250606086013567ffffffffffffffff80821115610e6e57600080fd5b818801915088601f830112610e8257600080fd5b813581811115610e9157600080fd5b8960208260051b8501011115610ea657600080fd5b9699959850939650602001949392505050565b600060208284031215610ecb57600080fd5b5035919050565b7f4e487b7100000000000000000000000000000000000000000000000000000000600052601160045260246000fd5b60008219821115610f1457610f14610ed2565b500190565b600060208284031215610f2b57600080fd5b81518015158114610c1f57600080fd5b600082821015610f4d57610f4d610ed2565b500390565b6000817fffffffffffffffffffffffffffffffffffffffffffffffffffffffffffffffff0483118215151615610f8a57610f8a610ed2565b500290565b7f4e487b7100000000000000000000000000000000000000000000000000000000600052603260045260246000fd5b803573ffffffffffffffffffffffffffffffffffffffff81168114610fe257600080fd5b919050565b600060208284031215610ff957600080fd5b610c1f82610fbe565b60007fffffffffffffffffffffffffffffffffffffffffffffffffffffffffffffffff82141561103457611034610ed2565b5060010190565b8183526000602080850194508260005b858110156110845773ffffffffffffffffffffffffffffffffffffffff61107183610fbe565b168752958201959082019060010161104b565b509495945050505050565b8381526040602082015260006110a960408301848661103b565b95945050505050565b84815263ffffffff841660208201526060604082015260006110d860608301848661103b565b9695505050505050565b600082611118577f4e487b7100000000000000000000000000000000000000000000000000000000600052601260045260246000fd5b50049056fea26469706673582212208ec9c507de4b575049e484b351f11ff7565e44282c22bcf25e95432bc46d369164736f6c63430008090033",
  "linkReferences": {},
  "deployedLinkReferences": {}
}