{
  "abi": [
    {
      "inputs": [
        {
          "internalType": "address",
          "name": "_sequencer",
          "type": "address"
        },
        {
          "internalType": "contract IERC20",
          "name": "_stakeToken",
          "type": "address"
        },
        {
          "internalType": "uint256",
          "name": "_neededStake",
          "type": "uint256"
        },
        {
          "internalType": "contract IDataLayrServiceManager",
          "name": "_dlsm",
          "type": "address"
        }
      ],
      "stateMutability": "nonpayable",
      "type": "constructor"
    },
    {
      "anonymous": false,
      "inputs": [
        {
          "indexed": false,
          "internalType": "uint32",
          "name": "rollupStoreNumber",
          "type": "uint32"
        }
      ],
      "name": "RollupStoreConfirmed",
      "type": "event"
    },
    {
      "anonymous": false,
      "inputs": [
        {
          "indexed": false,
          "internalType": "uint32",
          "name": "dataStoreId",
          "type": "uint32"
        }
      ],
      "name": "RollupStoreInitialized",
      "type": "event"
    },
    {
      "anonymous": false,
      "inputs": [
        {
          "indexed": false,
          "internalType": "uint32",
          "name": "rollupStoreNumber",
          "type": "uint32"
        }
      ],
      "name": "RollupStoreReverted",
      "type": "event"
    },
    {
      "inputs": [],
      "name": "BLOCK_STALE_MEASURE",
      "outputs": [
        {
          "internalType": "uint256",
          "name": "",
          "type": "uint256"
        }
      ],
      "stateMutability": "view",
      "type": "function"
    },
    {
      "inputs": [
        {
          "internalType": "bytes",
          "name": "data",
          "type": "bytes"
        },
        {
          "components": [
            {
              "components": [
                {
                  "internalType": "bytes32",
                  "name": "headerHash",
                  "type": "bytes32"
                },
                {
                  "internalType": "uint32",
                  "name": "durationDataStoreId",
                  "type": "uint32"
                },
                {
                  "internalType": "uint32",
                  "name": "globalDataStoreId",
                  "type": "uint32"
                },
                {
                  "internalType": "uint32",
                  "name": "blockNumber",
                  "type": "uint32"
                },
                {
                  "internalType": "uint96",
                  "name": "fee",
                  "type": "uint96"
                },
                {
                  "internalType": "address",
                  "name": "confirmer",
                  "type": "address"
                },
                {
                  "internalType": "bytes32",
                  "name": "signatoryRecordHash",
                  "type": "bytes32"
                }
              ],
              "internalType": "struct IDataLayrServiceManager.DataStoreMetadata",
              "name": "metadata",
              "type": "tuple"
            },
            {
              "internalType": "uint8",
              "name": "duration",
              "type": "uint8"
            },
            {
              "internalType": "uint256",
              "name": "timestamp",
              "type": "uint256"
            },
            {
              "internalType": "uint32",
              "name": "index",
              "type": "uint32"
            }
          ],
          "internalType": "struct IDataLayrServiceManager.DataStoreSearchData",
          "name": "searchData",
          "type": "tuple"
        }
      ],
      "name": "confirmData",
      "outputs": [],
      "stateMutability": "nonpayable",
      "type": "function"
    },
    {
      "inputs": [
        {
          "internalType": "uint32",
          "name": "",
          "type": "uint32"
        }
      ],
      "name": "dataStoreIdToRollupStoreNumber",
      "outputs": [
        {
          "internalType": "uint256",
          "name": "",
          "type": "uint256"
        }
      ],
      "stateMutability": "view",
      "type": "function"
    },
    {
      "inputs": [],
      "name": "dlsm",
      "outputs": [
        {
          "internalType": "contract IDataLayrServiceManager",
          "name": "",
          "type": "address"
        }
      ],
      "stateMutability": "view",
      "type": "function"
    },
    {
      "inputs": [],
      "name": "fraudProofPeriod",
      "outputs": [
        {
          "internalType": "uint256",
          "name": "",
          "type": "uint256"
        }
      ],
      "stateMutability": "view",
      "type": "function"
    },
    {
      "inputs": [],
      "name": "neededStake",
      "outputs": [
        {
          "internalType": "uint256",
          "name": "",
          "type": "uint256"
        }
      ],
      "stateMutability": "view",
      "type": "function"
    },
    {
      "inputs": [],
      "name": "rollupStoreNumber",
      "outputs": [
        {
          "internalType": "uint256",
          "name": "",
          "type": "uint256"
        }
      ],
      "stateMutability": "view",
      "type": "function"
    },
    {
      "inputs": [
        {
          "internalType": "uint256",
          "name": "",
          "type": "uint256"
        }
      ],
      "name": "rollupStores",
      "outputs": [
        {
          "internalType": "uint32",
          "name": "dataStoreId",
          "type": "uint32"
        },
        {
          "internalType": "uint32",
          "name": "confirmAt",
          "type": "uint32"
        },
        {
          "internalType": "enum DataLayrRollup.RollupStoreStatus",
          "name": "status",
          "type": "uint8"
        }
      ],
      "stateMutability": "view",
      "type": "function"
    },
    {
      "inputs": [],
      "name": "sequencer",
      "outputs": [
        {
          "internalType": "address",
          "name": "",
          "type": "address"
        }
      ],
      "stateMutability": "view",
      "type": "function"
    },
    {
      "inputs": [],
      "name": "stakeToken",
      "outputs": [
        {
          "internalType": "contract IERC20",
          "name": "",
          "type": "address"
        }
      ],
      "stateMutability": "view",
      "type": "function"
    },
    {
      "inputs": [
        {
          "internalType": "bytes",
          "name": "header",
          "type": "bytes"
        },
        {
          "internalType": "uint8",
          "name": "duration",
          "type": "uint8"
        },
        {
          "internalType": "uint32",
          "name": "blockNumber",
          "type": "uint32"
        },
        {
          "internalType": "uint32",
          "name": "totalOperatorsIndex",
          "type": "uint32"
        }
      ],
      "name": "storeData",
      "outputs": [],
      "stateMutability": "nonpayable",
      "type": "function"
    }
  ],
  "bytecode": {
    "object": "0x6101006040526201518060e05234801561001857600080fd5b50604051610d46380380610d4683398101604081905261003791610090565b600080546001600160a01b03199081166001600160a01b039687161790915592841660805260048054909316931692909217905560a052606460c0526100e5565b6001600160a01b038116811461008d57600080fd5b50565b600080600080608085870312156100a657600080fd5b84516100b181610078565b60208601519094506100c281610078565b6040860151606087015191945092506100da81610078565b939692955090935050565b60805160a05160c05160e051610c1b61012b6000396000818161021701526103a101526000818161015a01526104e70152600060b2015260006101200152610c1b6000f3fe608060405234801561001057600080fd5b50600436106100a85760003560e01c80635e8b3f2d116100715780635e8b3f2d146101555780637ef01d5e1461017c578063b0393a3714610191578063b537c4c7146101df578063bcb8ec90146101ff578063f2a8f1241461021257600080fd5b80621526cc146100ad57806329c8beb1146100e7578063428bba091461011257806351ed6a301461011b5780635c1bba3814610142575b600080fd5b6100d47f000000000000000000000000000000000000000000000000000000000000000081565b6040519081526020015b60405180910390f35b6004546100fa906001600160a01b031681565b6040516001600160a01b0390911681526020016100de565b6100d460035481565b6100fa7f000000000000000000000000000000000000000000000000000000000000000081565b6000546100fa906001600160a01b031681565b6100d47f000000000000000000000000000000000000000000000000000000000000000081565b61018f61018a3660046107b0565b610239565b005b6101d061019f3660046108e0565b60016020526000908152604090205463ffffffff80821691640100000000810490911690600160401b900460ff1683565b6040516100de9392919061090f565b6100d46101ed366004610950565b60026020526000908152604090205481565b61018f61020d366004610974565b6104bb565b6100d47f000000000000000000000000000000000000000000000000000000000000000081565b6000546001600160a01b0316331461026c5760405162461bcd60e51b8152600401610263906109f0565b60405180910390fd5b805160409081015163ffffffff166000908152600260205220546000191461031a5760405162461bcd60e51b815260206004820152605560248201527f446174612073746f72652065697468657220776173206e6f7420696e6974696160448201527f6c697a65642062792074686520726f6c6c757020636f6e74726163742c206f72606482015274081a5cc8185b1c9958591e4818dbdb999a5c9b5959605a1b608482015260a401610263565b60048054604051635189951560e01b81526001600160a01b039091169163518995159161034d9187918791879101610a5a565b600060405180830381600087803b15801561036757600080fd5b505af115801561037b573d6000803e3d6000fd5b50506040805160608101825284519091015163ffffffff168152915050602081016103c67f000000000000000000000000000000000000000000000000000000000000000042610b2c565b63ffffffff16815260200160019052600354600090815260016020908152604091829020835181549285015163ffffffff9081166401000000000267ffffffffffffffff1990941691161791909117808255918301519091829068ff00000000000000001916600160401b836002811115610443576104436108f9565b02179055505060038054835160409081015163ffffffff16600090815260026020529081208290557fe9f8c90baa6e73f4fbc1350dac0cf673eabb9d0bf5eef014ce5fe08be7d2d7a9935090919061049a83610b45565b9091555060405163ffffffff909116815260200160405180910390a1505050565b6000546001600160a01b031633146104e55760405162461bcd60e51b8152600401610263906109f0565b7f000000000000000000000000000000000000000000000000000000000000000061051663ffffffff841643610b5e565b106105635760405162461bcd60e51b815260206004820152601e60248201527f7374616b65732074616b656e2066726f6d20746f6f206c6f6e672061676f00006044820152606401610263565b6000600460009054906101000a90046001600160a01b03166001600160a01b03166372d18e8d6040518163ffffffff1660e01b8152600401602060405180830381865afa1580156105b8573d6000803e3d6000fd5b505050506040513d601f19601f820116820180604052508101906105dc9190610b71565b6004805460405163dcf49ea760e01b81529293506001600160a01b03169163dcf49ea79161061891339130918a918a918a918f918f9101610b8e565b6020604051808303816000875af1158015610637573d6000803e3d6000fd5b505050506040513d601f19601f8201168201806040525081019061065b9190610b71565b5063ffffffff8116600081815260026020908152604091829020600019905590519182527f957f0dd1f1ce8fbaa766e73503339f17b04cfbbd7e0db44e9460644485b813b5910160405180910390a1505050505050565b60008083601f8401126106c457600080fd5b50813567ffffffffffffffff8111156106dc57600080fd5b6020830191508360208285010111156106f457600080fd5b9250929050565b6040516080810167ffffffffffffffff8111828210171561072c57634e487b7160e01b600052604160045260246000fd5b60405290565b60405160e0810167ffffffffffffffff8111828210171561072c57634e487b7160e01b600052604160045260246000fd5b63ffffffff8116811461077557600080fd5b50565b803561078381610763565b919050565b80356001600160a01b038116811461078357600080fd5b803560ff8116811461078357600080fd5b60008060008385036101608112156107c757600080fd5b843567ffffffffffffffff8111156107de57600080fd5b6107ea878288016106b2565b909550935050601f19016101408082121561080457600080fd5b61080c6106fb565b60e083121561081a57600080fd5b610822610732565b925060208701358352604087013561083981610763565b6020840152606087013561084c81610763565b6040840152608087013561085f81610763565b606084015260a08701356bffffffffffffffffffffffff8116811461088357600080fd5b608084015261089460c08801610788565b60a084015260e087013560c08401528281526108b3610100880161079f565b602082015261012087013560408201526108ce828801610778565b60608201528093505050509250925092565b6000602082840312156108f257600080fd5b5035919050565b634e487b7160e01b600052602160045260246000fd5b63ffffffff848116825283166020820152606081016003831061094257634e487b7160e01b600052602160045260246000fd5b826040830152949350505050565b60006020828403121561096257600080fd5b813561096d81610763565b9392505050565b60008060008060006080868803121561098c57600080fd5b853567ffffffffffffffff8111156109a357600080fd5b6109af888289016106b2565b90965094506109c290506020870161079f565b925060408601356109d281610763565b915060608601356109e281610763565b809150509295509295909350565b60208082526021908201527f4f6e6c79207468652073657175656e6365722063616e2073746f7265206461746040820152606160f81b606082015260800190565b81835281816020850137506000828201602090810191909152601f909101601f19169091010190565b6000610160808352610a6f8184018688610a31565b915050825180516020840152602081015163ffffffff808216604086015280604084015116606086015280606084015116608086015250506bffffffffffffffffffffffff60808201511660a084015260018060a01b0360a08201511660c084015260c081015160e0840152506020830151610af161010084018260ff169052565b50604083015161012083015260609092015163ffffffff166101409091015292915050565b634e487b7160e01b600052601160045260246000fd5b80820180821115610b3f57610b3f610b16565b92915050565b600060018201610b5757610b57610b16565b5060010190565b81810381811115610b3f57610b3f610b16565b600060208284031215610b8357600080fd5b815161096d81610763565b6001600160a01b0388811682528716602082015260ff8616604082015263ffffffff85811660608301528416608082015260c060a08201819052600090610bd89083018486610a31565b999850505050505050505056fea264697066735822122053ef172c6e5d8a1e35591e0aa7b682ec9a92d5737255a580daa7a14c9e8766b164736f6c63430008110033",
    "linkReferences": {}
  },
  "methodIdentifiers": {
    "BLOCK_STALE_MEASURE()": "5e8b3f2d",
    "confirmData(bytes,((bytes32,uint32,uint32,uint32,uint96,address,bytes32),uint8,uint256,uint32))": "7ef01d5e",
    "dataStoreIdToRollupStoreNumber(uint32)": "b537c4c7",
    "dlsm()": "29c8beb1",
    "fraudProofPeriod()": "f2a8f124",
    "neededStake()": "001526cc",
    "rollupStoreNumber()": "428bba09",
    "rollupStores(uint256)": "b0393a37",
    "sequencer()": "5c1bba38",
    "stakeToken()": "51ed6a30",
    "storeData(bytes,uint8,uint32,uint32)": "bcb8ec90"
  },
  "id": 16
}