{
  "_format": "hh-sol-artifact-1",
  "contractName": "BVM_DeployerWhitelist",
  "sourceName": "contracts/L2/predeploys/BVM_DeployerWhitelist.sol",
  "abi": [
    {
      "anonymous": false,
      "inputs": [
        {
          "indexed": false,
          "internalType": "address",
          "name": "oldOwner",
          "type": "address"
        },
        {
          "indexed": false,
          "internalType": "address",
          "name": "newOwner",
          "type": "address"
        }
      ],
      "name": "OwnerChanged",
      "type": "event"
    },
    {
      "anonymous": false,
      "inputs": [
        {
          "indexed": false,
          "internalType": "address",
          "name": "oldOwner",
          "type": "address"
        }
      ],
      "name": "WhitelistDisabled",
      "type": "event"
    },
    {
      "anonymous": false,
      "inputs": [
        {
          "indexed": false,
          "internalType": "address",
          "name": "deployer",
          "type": "address"
        },
        {
          "indexed": false,
          "internalType": "bool",
          "name": "whitelisted",
          "type": "bool"
        }
      ],
      "name": "WhitelistStatusChanged",
      "type": "event"
    },
    {
      "inputs": [],
      "name": "enableArbitraryContractDeployment",
      "outputs": [],
      "stateMutability": "nonpayable",
      "type": "function"
    },
    {
      "inputs": [
        {
          "internalType": "address",
          "name": "_deployer",
          "type": "address"
        }
      ],
      "name": "isDeployerAllowed",
      "outputs": [
        {
          "internalType": "bool",
          "name": "",
          "type": "bool"
        }
      ],
      "stateMutability": "view",
      "type": "function"
    },
    {
      "inputs": [],
      "name": "owner",
      "outputs": [
        {
          "internalType": "address",
          "name": "",
          "type": "address"
        }
      ],
      "stateMutability": "view",
      "type": "function"
    },
    {
      "inputs": [
        {
          "internalType": "address",
          "name": "_owner",
          "type": "address"
        }
      ],
      "name": "setOwner",
      "outputs": [],
      "stateMutability": "nonpayable",
      "type": "function"
    },
    {
      "inputs": [
        {
          "internalType": "address",
          "name": "_deployer",
          "type": "address"
        },
        {
          "internalType": "bool",
          "name": "_isWhitelisted",
          "type": "bool"
        }
      ],
      "name": "setWhitelistedDeployer",
      "outputs": [],
      "stateMutability": "nonpayable",
      "type": "function"
    },
    {
      "inputs": [
        {
          "internalType": "address",
          "name": "",
          "type": "address"
        }
      ],
      "name": "whitelist",
      "outputs": [
        {
          "internalType": "bool",
          "name": "",
          "type": "bool"
        }
      ],
      "stateMutability": "view",
      "type": "function"
    }
  ],
  "bytecode": "0x608060405234801561001057600080fd5b506106a8806100206000396000f3fe608060405234801561001057600080fd5b50600436106100725760003560e01c80639b19251a116100505780639b19251a146100e9578063b1540a011461011c578063bdc7b54f1461012f57600080fd5b806308fd63221461007757806313af40351461008c5780638da5cb5b1461009f575b600080fd5b61008a610085366004610614565b610137565b005b61008a61009a366004610650565b610271565b6000546100bf9073ffffffffffffffffffffffffffffffffffffffff1681565b60405173ffffffffffffffffffffffffffffffffffffffff90911681526020015b60405180910390f35b61010c6100f7366004610650565b60016020526000908152604090205460ff1681565b60405190151581526020016100e0565b61010c61012a366004610650565b61047c565b61008a6104cd565b60005473ffffffffffffffffffffffffffffffffffffffff1633146101e3576040517f08c379a000000000000000000000000000000000000000000000000000000000815260206004820152603a60248201527f46756e6374696f6e2063616e206f6e6c792062652063616c6c6564206279207460448201527f6865206f776e6572206f66207468697320636f6e74726163742e00000000000060648201526084015b60405180910390fd5b73ffffffffffffffffffffffffffffffffffffffff821660008181526001602090815260409182902080547fffffffffffffffffffffffffffffffffffffffffffffffffffffffffffffff00168515159081179091558251938452908301527f8daaf060c3306c38e068a75c054bf96ecd85a3db1252712c4d93632744c42e0d910160405180910390a15050565b60005473ffffffffffffffffffffffffffffffffffffffff163314610318576040517f08c379a000000000000000000000000000000000000000000000000000000000815260206004820152603a60248201527f46756e6374696f6e2063616e206f6e6c792062652063616c6c6564206279207460448201527f6865206f776e6572206f66207468697320636f6e74726163742e00000000000060648201526084016101da565b73ffffffffffffffffffffffffffffffffffffffff81166103e1576040517f08c379a000000000000000000000000000000000000000000000000000000000815260206004820152605160248201527f42564d5f4465706c6f79657257686974656c6973743a2063616e206f6e6c792060448201527f62652064697361626c65642076696120656e61626c654172626974726172794360648201527f6f6e74726163744465706c6f796d656e74000000000000000000000000000000608482015260a4016101da565b6000546040805173ffffffffffffffffffffffffffffffffffffffff928316815291831660208301527fb532073b38c83145e3e5135377a08bf9aab55bc0fd7c1179cd4fb995d2a5159c910160405180910390a1600080547fffffffffffffffffffffffff00000000000000000000000000000000000000001673ffffffffffffffffffffffffffffffffffffffff92909216919091179055565b6000805473ffffffffffffffffffffffffffffffffffffffff1615806104c7575073ffffffffffffffffffffffffffffffffffffffff821660009081526001602052604090205460ff165b92915050565b60005473ffffffffffffffffffffffffffffffffffffffff163314610574576040517f08c379a000000000000000000000000000000000000000000000000000000000815260206004820152603a60248201527f46756e6374696f6e2063616e206f6e6c792062652063616c6c6564206279207460448201527f6865206f776e6572206f66207468697320636f6e74726163742e00000000000060648201526084016101da565b60005460405173ffffffffffffffffffffffffffffffffffffffff90911681527fc0e106cf568e50698fdbde1eff56f5a5c966cc7958e37e276918e9e4ccdf8cd49060200160405180910390a1600080547fffffffffffffffffffffffff0000000000000000000000000000000000000000169055565b803573ffffffffffffffffffffffffffffffffffffffff8116811461060f57600080fd5b919050565b6000806040838503121561062757600080fd5b610630836105eb565b91506020830135801515811461064557600080fd5b809150509250929050565b60006020828403121561066257600080fd5b61066b826105eb565b939250505056fea2646970667358221220df27bdf86bfaa0da7e2c1622f676e71f90f0b0fe09846498fe6f2e58ca9e544464736f6c63430008090033",
  "linkReferences": {},
  "deployedLinkReferences": {}
}