{
  "abi": [
    {
      "inputs": [
        {
          "internalType": "address",
          "name": "_owner",
          "type": "address"
        },
        {
          "internalType": "uint256",
          "name": "_overhead",
          "type": "uint256"
        },
        {
          "internalType": "uint256",
          "name": "_scalar",
          "type": "uint256"
        },
        {
          "internalType": "bytes32",
          "name": "_batcherHash",
          "type": "bytes32"
        },
        {
          "internalType": "uint64",
          "name": "_gasLimit",
          "type": "uint64"
        },
        {
          "internalType": "address",
          "name": "_unsafeBlockSigner",
          "type": "address"
        }
      ],
      "stateMutability": "nonpayable",
      "type": "constructor"
    },
    {
      "anonymous": false,
      "inputs": [
        {
          "indexed": true,
          "internalType": "uint256",
          "name": "version",
          "type": "uint256"
        },
        {
          "indexed": true,
          "internalType": "enum SystemConfig.UpdateType",
          "name": "updateType",
          "type": "uint8"
        },
        {
          "indexed": false,
          "internalType": "bytes",
          "name": "data",
          "type": "bytes"
        }
      ],
      "name": "ConfigUpdate",
      "type": "event"
    },
    {
      "anonymous": false,
      "inputs": [
        {
          "indexed": false,
          "internalType": "uint8",
          "name": "version",
          "type": "uint8"
        }
      ],
      "name": "Initialized",
      "type": "event"
    },
    {
      "anonymous": false,
      "inputs": [
        {
          "indexed": true,
          "internalType": "address",
          "name": "previousOwner",
          "type": "address"
        },
        {
          "indexed": true,
          "internalType": "address",
          "name": "newOwner",
          "type": "address"
        }
      ],
      "name": "OwnershipTransferred",
      "type": "event"
    },
    {
      "inputs": [],
      "name": "MINIMUM_GAS_LIMIT",
      "outputs": [
        {
          "internalType": "uint64",
          "name": "",
          "type": "uint64"
        }
      ],
      "stateMutability": "view",
      "type": "function"
    },
    {
      "inputs": [],
      "name": "UNSAFE_BLOCK_SIGNER_SLOT",
      "outputs": [
        {
          "internalType": "bytes32",
          "name": "",
          "type": "bytes32"
        }
      ],
      "stateMutability": "view",
      "type": "function"
    },
    {
      "inputs": [],
      "name": "VERSION",
      "outputs": [
        {
          "internalType": "uint256",
          "name": "",
          "type": "uint256"
        }
      ],
      "stateMutability": "view",
      "type": "function"
    },
    {
      "inputs": [],
      "name": "batcherHash",
      "outputs": [
        {
          "internalType": "bytes32",
          "name": "",
          "type": "bytes32"
        }
      ],
      "stateMutability": "view",
      "type": "function"
    },
    {
      "inputs": [],
      "name": "gasLimit",
      "outputs": [
        {
          "internalType": "uint64",
          "name": "",
          "type": "uint64"
        }
      ],
      "stateMutability": "view",
      "type": "function"
    },
    {
      "inputs": [
        {
          "internalType": "address",
          "name": "_owner",
          "type": "address"
        },
        {
          "internalType": "uint256",
          "name": "_overhead",
          "type": "uint256"
        },
        {
          "internalType": "uint256",
          "name": "_scalar",
          "type": "uint256"
        },
        {
          "internalType": "bytes32",
          "name": "_batcherHash",
          "type": "bytes32"
        },
        {
          "internalType": "uint64",
          "name": "_gasLimit",
          "type": "uint64"
        },
        {
          "internalType": "address",
          "name": "_unsafeBlockSigner",
          "type": "address"
        }
      ],
      "name": "initialize",
      "outputs": [],
      "stateMutability": "nonpayable",
      "type": "function"
    },
    {
      "inputs": [],
      "name": "overhead",
      "outputs": [
        {
          "internalType": "uint256",
          "name": "",
          "type": "uint256"
        }
      ],
      "stateMutability": "view",
      "type": "function"
    },
    {
      "inputs": [],
      "name": "owner",
      "outputs": [
        {
          "internalType": "address",
          "name": "",
          "type": "address"
        }
      ],
      "stateMutability": "view",
      "type": "function"
    },
    {
      "inputs": [],
      "name": "renounceOwnership",
      "outputs": [],
      "stateMutability": "nonpayable",
      "type": "function"
    },
    {
      "inputs": [],
      "name": "scalar",
      "outputs": [
        {
          "internalType": "uint256",
          "name": "",
          "type": "uint256"
        }
      ],
      "stateMutability": "view",
      "type": "function"
    },
    {
      "inputs": [
        {
          "internalType": "bytes32",
          "name": "_batcherHash",
          "type": "bytes32"
        }
      ],
      "name": "setBatcherHash",
      "outputs": [],
      "stateMutability": "nonpayable",
      "type": "function"
    },
    {
      "inputs": [
        {
          "internalType": "uint256",
          "name": "_overhead",
          "type": "uint256"
        },
        {
          "internalType": "uint256",
          "name": "_scalar",
          "type": "uint256"
        }
      ],
      "name": "setGasConfig",
      "outputs": [],
      "stateMutability": "nonpayable",
      "type": "function"
    },
    {
      "inputs": [
        {
          "internalType": "uint64",
          "name": "_gasLimit",
          "type": "uint64"
        }
      ],
      "name": "setGasLimit",
      "outputs": [],
      "stateMutability": "nonpayable",
      "type": "function"
    },
    {
      "inputs": [
        {
          "internalType": "address",
          "name": "_unsafeBlockSigner",
          "type": "address"
        }
      ],
      "name": "setUnsafeBlockSigner",
      "outputs": [],
      "stateMutability": "nonpayable",
      "type": "function"
    },
    {
      "inputs": [
        {
          "internalType": "address",
          "name": "newOwner",
          "type": "address"
        }
      ],
      "name": "transferOwnership",
      "outputs": [],
      "stateMutability": "nonpayable",
      "type": "function"
    },
    {
      "inputs": [],
      "name": "unsafeBlockSigner",
      "outputs": [
        {
          "internalType": "address",
          "name": "",
          "type": "address"
        }
      ],
      "stateMutability": "view",
      "type": "function"
    },
    {
      "inputs": [],
      "name": "version",
      "outputs": [
        {
          "internalType": "string",
          "name": "",
          "type": "string"
        }
      ],
      "stateMutability": "view",
      "type": "function"
    }
  ],
  "bytecode": {
    "object": "0x60e06040523480156200001157600080fd5b50604051620015403803806200154083398101604081905262000034916200047b565b60016080819052600060a05260c052620000538686868686866200005f565b505050505050620004f0565b600054610100900460ff1615808015620000805750600054600160ff909116105b80620000b057506200009d306200025360201b620009021760201c565b158015620000b0575060005460ff166001145b620001195760405162461bcd60e51b815260206004820152602e60248201527f496e697469616c697a61626c653a20636f6e747261637420697320616c72656160448201526d191e481a5b9a5d1a585b1a5e995960921b60648201526084015b60405180910390fd5b6000805460ff1916600117905580156200013d576000805461ff0019166101001790555b627a12006001600160401b03841610156200019b5760405162461bcd60e51b815260206004820152601f60248201527f53797374656d436f6e6669673a20676173206c696d697420746f6f206c6f7700604482015260640162000110565b620001a562000262565b620001b087620002ca565b606586905560668590556067849055606880546001600160401b0319166001600160401b03851617905562000203827f65a7ed542fb37fe237fdfbdd70b31598523fe5b32879e307bae27a0bd9581c0855565b80156200024a576000805461ff0019169055604051600181527f7f26b83ff96e1f2b6a682f133852f6798a09c465da95921460cefb38474024989060200160405180910390a15b50505050505050565b6001600160a01b03163b151590565b600054610100900460ff16620002be5760405162461bcd60e51b815260206004820152602b60248201526000805160206200152083398151915260448201526a6e697469616c697a696e6760a81b606482015260840162000110565b620002c862000349565b565b620002d4620003b0565b6001600160a01b0381166200033b5760405162461bcd60e51b815260206004820152602660248201527f4f776e61626c653a206e6577206f776e657220697320746865207a65726f206160448201526564647265737360d01b606482015260840162000110565b62000346816200040c565b50565b600054610100900460ff16620003a55760405162461bcd60e51b815260206004820152602b60248201526000805160206200152083398151915260448201526a6e697469616c697a696e6760a81b606482015260840162000110565b620002c8336200040c565b6033546001600160a01b03163314620002c85760405162461bcd60e51b815260206004820181905260248201527f4f776e61626c653a2063616c6c6572206973206e6f7420746865206f776e6572604482015260640162000110565b603380546001600160a01b038381166001600160a01b0319831681179093556040519116919082907f8be0079c531659141344cd1fd0a4f28419497f9722a3daafe3b4186f6b6457e090600090a35050565b80516001600160a01b03811681146200047657600080fd5b919050565b60008060008060008060c087890312156200049557600080fd5b620004a0876200045e565b6020880151604089015160608a015160808b0151939950919750955093506001600160401b0381168114620004d457600080fd5b9150620004e460a088016200045e565b90509295509295509295565b60805160a05160c0516110006200052060003960006103c80152600061039f0152600061037601526110006000f3fe608060405234801561001057600080fd5b506004361061011b5760003560e01c80638f974d7f116100b2578063e81b2c6d11610081578063f45e65d811610066578063f45e65d814610286578063f68016b71461028f578063ffa1ad74146102a357600080fd5b8063e81b2c6d1461026a578063f2fde38b1461027357600080fd5b80638f974d7f1461021e578063935f029e14610231578063b40a817c14610244578063c9b26f611461025757600080fd5b80634f16540b116100ee5780634f16540b146101bc57806354fd4d50146101e3578063715018a6146101f85780638da5cb5b1461020057600080fd5b80630c18c1621461012057806318d139181461013c5780631fd19ee11461015157806329477e8614610199575b600080fd5b61012960655481565b6040519081526020015b60405180910390f35b61014f61014a366004610cb6565b6102ab565b005b7f65a7ed542fb37fe237fdfbdd70b31598523fe5b32879e307bae27a0bd9581c08545b60405173ffffffffffffffffffffffffffffffffffffffff9091168152602001610133565b6101a3627a120081565b60405167ffffffffffffffff9091168152602001610133565b6101297f65a7ed542fb37fe237fdfbdd70b31598523fe5b32879e307bae27a0bd9581c0881565b6101eb61036f565b6040516101339190610d52565b61014f610412565b60335473ffffffffffffffffffffffffffffffffffffffff16610174565b61014f61022c366004610d7d565b610426565b61014f61023f366004610ddc565b6106aa565b61014f610252366004610dfe565b610743565b61014f610265366004610e19565b61081b565b61012960675481565b61014f610281366004610cb6565b61084b565b61012960665481565b6068546101a39067ffffffffffffffff1681565b610129600081565b6102b361091e565b6102db817f65a7ed542fb37fe237fdfbdd70b31598523fe5b32879e307bae27a0bd9581c0855565b6040805173ffffffffffffffffffffffffffffffffffffffff8316602082015260009101604080517fffffffffffffffffffffffffffffffffffffffffffffffffffffffffffffffe0818403018152919052905060035b60007f1d2b0bda21d56b8bd12d4f94ebacffdfb35f5e226f84b461103bb8beab6353be836040516103639190610d52565b60405180910390a35050565b606061039a7f000000000000000000000000000000000000000000000000000000000000000061099f565b6103c37f000000000000000000000000000000000000000000000000000000000000000061099f565b6103ec7f000000000000000000000000000000000000000000000000000000000000000061099f565b6040516020016103fe93929190610e32565b604051602081830303815290604052905090565b61041a61091e565b6104246000610adc565b565b600054610100900460ff16158080156104465750600054600160ff909116105b806104605750303b158015610460575060005460ff166001145b6104f1576040517f08c379a000000000000000000000000000000000000000000000000000000000815260206004820152602e60248201527f496e697469616c697a61626c653a20636f6e747261637420697320616c72656160448201527f647920696e697469616c697a656400000000000000000000000000000000000060648201526084015b60405180910390fd5b600080547fffffffffffffffffffffffffffffffffffffffffffffffffffffffffffffff00166001179055801561054f57600080547fffffffffffffffffffffffffffffffffffffffffffffffffffffffffffff00ff166101001790555b627a120067ffffffffffffffff841610156105c6576040517f08c379a000000000000000000000000000000000000000000000000000000000815260206004820152601f60248201527f53797374656d436f6e6669673a20676173206c696d697420746f6f206c6f770060448201526064016104e8565b6105ce610b53565b6105d78761084b565b606586905560668590556067849055606880547fffffffffffffffffffffffffffffffffffffffffffffffff00000000000000001667ffffffffffffffff85161790557f65a7ed542fb37fe237fdfbdd70b31598523fe5b32879e307bae27a0bd9581c0882905580156106a157600080547fffffffffffffffffffffffffffffffffffffffffffffffffffffffffffff00ff169055604051600181527f7f26b83ff96e1f2b6a682f133852f6798a09c465da95921460cefb38474024989060200160405180910390a15b50505050505050565b6106b261091e565b606582905560668190556040805160208101849052908101829052600090606001604080517fffffffffffffffffffffffffffffffffffffffffffffffffffffffffffffffe08184030181529190529050600160007f1d2b0bda21d56b8bd12d4f94ebacffdfb35f5e226f84b461103bb8beab6353be836040516107369190610d52565b60405180910390a3505050565b61074b61091e565b627a120067ffffffffffffffff821610156107c2576040517f08c379a000000000000000000000000000000000000000000000000000000000815260206004820152601f60248201527f53797374656d436f6e6669673a20676173206c696d697420746f6f206c6f770060448201526064016104e8565b606880547fffffffffffffffffffffffffffffffffffffffffffffffff00000000000000001667ffffffffffffffff83169081179091556040805160208082019390935281518082039093018352810190526002610332565b61082361091e565b6067819055604080516020808201849052825180830390910181529082019091526000610332565b61085361091e565b73ffffffffffffffffffffffffffffffffffffffff81166108f6576040517f08c379a000000000000000000000000000000000000000000000000000000000815260206004820152602660248201527f4f776e61626c653a206e6577206f776e657220697320746865207a65726f206160448201527f646472657373000000000000000000000000000000000000000000000000000060648201526084016104e8565b6108ff81610adc565b50565b73ffffffffffffffffffffffffffffffffffffffff163b151590565b60335473ffffffffffffffffffffffffffffffffffffffff163314610424576040517f08c379a000000000000000000000000000000000000000000000000000000000815260206004820181905260248201527f4f776e61626c653a2063616c6c6572206973206e6f7420746865206f776e657260448201526064016104e8565b6060816000036109e257505060408051808201909152600181527f3000000000000000000000000000000000000000000000000000000000000000602082015290565b8160005b8115610a0c57806109f681610ed7565b9150610a059050600a83610f3e565b91506109e6565b60008167ffffffffffffffff811115610a2757610a27610f52565b6040519080825280601f01601f191660200182016040528015610a51576020820181803683370190505b5090505b8415610ad457610a66600183610f81565b9150610a73600a86610f98565b610a7e906030610fac565b60f81b818381518110610a9357610a93610fc4565b60200101907effffffffffffffffffffffffffffffffffffffffffffffffffffffffffffff1916908160001a905350610acd600a86610f3e565b9450610a55565b949350505050565b6033805473ffffffffffffffffffffffffffffffffffffffff8381167fffffffffffffffffffffffff0000000000000000000000000000000000000000831681179093556040519116919082907f8be0079c531659141344cd1fd0a4f28419497f9722a3daafe3b4186f6b6457e090600090a35050565b600054610100900460ff16610bea576040517f08c379a000000000000000000000000000000000000000000000000000000000815260206004820152602b60248201527f496e697469616c697a61626c653a20636f6e7472616374206973206e6f74206960448201527f6e697469616c697a696e6700000000000000000000000000000000000000000060648201526084016104e8565b610424600054610100900460ff16610c84576040517f08c379a000000000000000000000000000000000000000000000000000000000815260206004820152602b60248201527f496e697469616c697a61626c653a20636f6e7472616374206973206e6f74206960448201527f6e697469616c697a696e6700000000000000000000000000000000000000000060648201526084016104e8565b61042433610adc565b803573ffffffffffffffffffffffffffffffffffffffff81168114610cb157600080fd5b919050565b600060208284031215610cc857600080fd5b610cd182610c8d565b9392505050565b60005b83811015610cf3578181015183820152602001610cdb565b83811115610d02576000848401525b50505050565b60008151808452610d20816020860160208601610cd8565b601f017fffffffffffffffffffffffffffffffffffffffffffffffffffffffffffffffe0169290920160200192915050565b602081526000610cd16020830184610d08565b803567ffffffffffffffff81168114610cb157600080fd5b60008060008060008060c08789031215610d9657600080fd5b610d9f87610c8d565b9550602087013594506040870135935060608701359250610dc260808801610d65565b9150610dd060a08801610c8d565b90509295509295509295565b60008060408385031215610def57600080fd5b50508035926020909101359150565b600060208284031215610e1057600080fd5b610cd182610d65565b600060208284031215610e2b57600080fd5b5035919050565b60008451610e44818460208901610cd8565b80830190507f2e000000000000000000000000000000000000000000000000000000000000008082528551610e80816001850160208a01610cd8565b60019201918201528351610e9b816002840160208801610cd8565b0160020195945050505050565b7f4e487b7100000000000000000000000000000000000000000000000000000000600052601160045260246000fd5b60007fffffffffffffffffffffffffffffffffffffffffffffffffffffffffffffffff8203610f0857610f08610ea8565b5060010190565b7f4e487b7100000000000000000000000000000000000000000000000000000000600052601260045260246000fd5b600082610f4d57610f4d610f0f565b500490565b7f4e487b7100000000000000000000000000000000000000000000000000000000600052604160045260246000fd5b600082821015610f9357610f93610ea8565b500390565b600082610fa757610fa7610f0f565b500690565b60008219821115610fbf57610fbf610ea8565b500190565b7f4e487b7100000000000000000000000000000000000000000000000000000000600052603260045260246000fdfea164736f6c634300080f000a496e697469616c697a61626c653a20636f6e7472616374206973206e6f742069",
    "linkReferences": {}
  },
  "methodIdentifiers": {
    "MINIMUM_GAS_LIMIT()": "29477e86",
    "UNSAFE_BLOCK_SIGNER_SLOT()": "4f16540b",
    "VERSION()": "ffa1ad74",
    "batcherHash()": "e81b2c6d",
    "gasLimit()": "f68016b7",
    "initialize(address,uint256,uint256,bytes32,uint64,address)": "8f974d7f",
    "overhead()": "0c18c162",
    "owner()": "8da5cb5b",
    "renounceOwnership()": "715018a6",
    "scalar()": "f45e65d8",
    "setBatcherHash(bytes32)": "c9b26f61",
    "setGasConfig(uint256,uint256)": "935f029e",
    "setGasLimit(uint64)": "b40a817c",
    "setUnsafeBlockSigner(address)": "18d13918",
    "transferOwnership(address)": "f2fde38b",
    "unsafeBlockSigner()": "1fd19ee1",
    "version()": "54fd4d50"
  },
  "storageLayout": {
    "storage": [
      {
        "astId": 45590,
        "contract": "contracts/L1/SystemConfig.sol:SystemConfig",
        "label": "_initialized",
        "offset": 0,
        "slot": "0",
        "type": "t_uint8"
      },
      {
        "astId": 45593,
        "contract": "contracts/L1/SystemConfig.sol:SystemConfig",
        "label": "_initializing",
        "offset": 1,
        "slot": "0",
        "type": "t_bool"
      },
      {
        "astId": 46018,
        "contract": "contracts/L1/SystemConfig.sol:SystemConfig",
        "label": "__gap",
        "offset": 0,
        "slot": "1",
        "type": "t_array(t_uint256)50_storage"
      },
      {
        "astId": 45462,
        "contract": "contracts/L1/SystemConfig.sol:SystemConfig",
        "label": "_owner",
        "offset": 0,
        "slot": "51",
        "type": "t_address"
      },
      {
        "astId": 45582,
        "contract": "contracts/L1/SystemConfig.sol:SystemConfig",
        "label": "__gap",
        "offset": 0,
        "slot": "52",
        "type": "t_array(t_uint256)49_storage"
      },
      {
        "astId": 2181,
        "contract": "contracts/L1/SystemConfig.sol:SystemConfig",
        "label": "overhead",
        "offset": 0,
        "slot": "101",
        "type": "t_uint256"
      },
      {
        "astId": 2184,
        "contract": "contracts/L1/SystemConfig.sol:SystemConfig",
        "label": "scalar",
        "offset": 0,
        "slot": "102",
        "type": "t_uint256"
      },
      {
        "astId": 2187,
        "contract": "contracts/L1/SystemConfig.sol:SystemConfig",
        "label": "batcherHash",
        "offset": 0,
        "slot": "103",
        "type": "t_bytes32"
      },
      {
        "astId": 2190,
        "contract": "contracts/L1/SystemConfig.sol:SystemConfig",
        "label": "gasLimit",
        "offset": 0,
        "slot": "104",
        "type": "t_uint64"
      }
    ],
    "types": {
      "t_address": {
        "encoding": "inplace",
        "label": "address",
        "numberOfBytes": "20"
      },
      "t_array(t_uint256)49_storage": {
        "encoding": "inplace",
        "label": "uint256[49]",
        "numberOfBytes": "1568",
        "base": "t_uint256"
      },
      "t_array(t_uint256)50_storage": {
        "encoding": "inplace",
        "label": "uint256[50]",
        "numberOfBytes": "1600",
        "base": "t_uint256"
      },
      "t_bool": {
        "encoding": "inplace",
        "label": "bool",
        "numberOfBytes": "1"
      },
      "t_bytes32": {
        "encoding": "inplace",
        "label": "bytes32",
        "numberOfBytes": "32"
      },
      "t_uint256": {
        "encoding": "inplace",
        "label": "uint256",
        "numberOfBytes": "32"
      },
      "t_uint64": {
        "encoding": "inplace",
        "label": "uint64",
        "numberOfBytes": "8"
      },
      "t_uint8": {
        "encoding": "inplace",
        "label": "uint8",
        "numberOfBytes": "1"
      }
    }
  },
  "userdoc": {
    "version": 1,
    "kind": "user",
    "methods": {
      "MINIMUM_GAS_LIMIT()": {
        "notice": "Minimum gas limit. This should not be lower than the maximum deposit gas resource         limit in the ResourceMetering contract used by MantlePortal, to ensure the L2         block always has sufficient gas to process deposits."
      },
      "UNSAFE_BLOCK_SIGNER_SLOT()": {
        "notice": "Storage slot that the unsafe block signer is stored at. Storing it at this         deterministic storage slot allows for decoupling the storage layout from the way         that `solc` lays out storage. The `mt-node` uses a storage proof to fetch this value."
      },
      "VERSION()": {
        "notice": "Version identifier, used for upgrades."
      },
      "batcherHash()": {
        "notice": "Identifier for the batcher. For version 1 of this configuration, this is represented         as an address left-padded with zeros to 32 bytes."
      },
      "gasLimit()": {
        "notice": "L2 gas limit."
      },
      "initialize(address,uint256,uint256,bytes32,uint64,address)": {
        "notice": "Initializer."
      },
      "overhead()": {
        "notice": "Fixed L2 gas overhead."
      },
      "scalar()": {
        "notice": "Dynamic L2 gas overhead."
      },
      "setBatcherHash(bytes32)": {
        "notice": "Updates the batcher hash."
      },
      "setGasConfig(uint256,uint256)": {
        "notice": "Updates gas config."
      },
      "setGasLimit(uint64)": {
        "notice": "Updates the L2 gas limit."
      },
      "setUnsafeBlockSigner(address)": {
        "notice": "Updates the unsafe block signer address."
      },
      "unsafeBlockSigner()": {
        "notice": "High level getter for the unsafe block signer address. Unsafe blocks can be         propagated across the p2p network if they are signed by the key corresponding to         this address."
      },
      "version()": {
        "notice": "Returns the full semver contract version."
      }
    },
    "events": {
      "ConfigUpdate(uint256,uint8,bytes)": {
        "notice": "Emitted when configuration is updated"
      }
    },
    "notice": "The SystemConfig contract is used to manage configuration of an Mantle network. All         configuration is stored on L1 and picked up by L2 as part of the derviation of the L2         chain."
  },
  "devdoc": {
    "version": 1,
    "kind": "dev",
    "methods": {
      "constructor": {
        "params": {
          "_batcherHash": "Initial batcher hash.",
          "_gasLimit": "Initial gas limit.",
          "_overhead": "Initial overhead value.",
          "_owner": "Initial owner of the contract.",
          "_scalar": "Initial scalar value.",
          "_unsafeBlockSigner": "Initial unsafe block signer address."
        }
      },
      "initialize(address,uint256,uint256,bytes32,uint64,address)": {
        "params": {
          "_batcherHash": "Initial batcher hash.",
          "_gasLimit": "Initial gas limit.",
          "_overhead": "Initial overhead value.",
          "_owner": "Initial owner of the contract.",
          "_scalar": "Initial scalar value.",
          "_unsafeBlockSigner": "Initial unsafe block signer address."
        }
      },
      "owner()": {
        "details": "Returns the address of the current owner."
      },
      "renounceOwnership()": {
        "details": "Leaves the contract without owner. It will not be possible to call `onlyOwner` functions anymore. Can only be called by the current owner. NOTE: Renouncing ownership will leave the contract without an owner, thereby removing any functionality that is only available to the owner."
      },
      "setBatcherHash(bytes32)": {
        "params": {
          "_batcherHash": "New batcher hash."
        }
      },
      "setGasConfig(uint256,uint256)": {
        "params": {
          "_overhead": "New overhead value.",
          "_scalar": "New scalar value."
        }
      },
      "setGasLimit(uint64)": {
        "params": {
          "_gasLimit": "New gas limit."
        }
      },
      "setUnsafeBlockSigner(address)": {
        "params": {
          "_unsafeBlockSigner": "New unsafe block signer address."
        }
      },
      "transferOwnership(address)": {
        "details": "Transfers ownership of the contract to a new account (`newOwner`). Can only be called by the current owner."
      },
      "unsafeBlockSigner()": {
        "returns": {
          "_0": "Address of the unsafe block signer."
        }
      },
      "version()": {
        "returns": {
          "_0": "Semver contract version as a string."
        }
      }
    },
    "events": {
      "ConfigUpdate(uint256,uint8,bytes)": {
        "params": {
          "data": "Encoded update data.",
          "updateType": "Type of update.",
          "version": "SystemConfig version."
        }
      }
    },
    "title": "SystemConfig"
  },
  "id": 6
}