{
  "_format": "hh-sol-artifact-1",
  "contractName": "StateCommitmentChain",
  "sourceName": "contracts/L1/rollup/StateCommitmentChain.sol",
  "abi": [
    {
      "inputs": [
        {
          "internalType": "address",
          "name": "_libAddressManager",
          "type": "address"
        },
        {
          "internalType": "uint256",
          "name": "_fraudProofWindow",
          "type": "uint256"
        },
        {
          "internalType": "uint256",
          "name": "_sequencerPublishWindow",
          "type": "uint256"
        }
      ],
      "stateMutability": "nonpayable",
      "type": "constructor"
    },
    {
      "anonymous": false,
      "inputs": [
        {
          "indexed": true,
          "internalType": "uint256",
          "name": "_batchIndex",
          "type": "uint256"
        },
        {
          "indexed": false,
          "internalType": "bytes32",
          "name": "_batchRoot",
          "type": "bytes32"
        },
        {
          "indexed": false,
          "internalType": "uint256",
          "name": "_batchSize",
          "type": "uint256"
        },
        {
          "indexed": false,
          "internalType": "uint256",
          "name": "_prevTotalElements",
          "type": "uint256"
        },
        {
          "indexed": false,
          "internalType": "bytes",
          "name": "_extraData",
          "type": "bytes"
        }
      ],
      "name": "StateBatchAppended",
      "type": "event"
    },
    {
      "anonymous": false,
      "inputs": [
        {
          "indexed": true,
          "internalType": "uint256",
          "name": "_batchIndex",
          "type": "uint256"
        },
        {
          "indexed": false,
          "internalType": "bytes32",
          "name": "_batchRoot",
          "type": "bytes32"
        }
      ],
      "name": "StateBatchDeleted",
      "type": "event"
    },
    {
      "inputs": [],
      "name": "FRAUD_PROOF_WINDOW",
      "outputs": [
        {
          "internalType": "uint256",
          "name": "",
          "type": "uint256"
        }
      ],
      "stateMutability": "view",
      "type": "function"
    },
    {
      "inputs": [],
      "name": "SEQUENCER_PUBLISH_WINDOW",
      "outputs": [
        {
          "internalType": "uint256",
          "name": "",
          "type": "uint256"
        }
      ],
      "stateMutability": "view",
      "type": "function"
    },
    {
      "inputs": [
        {
          "internalType": "bytes32[]",
          "name": "_batch",
          "type": "bytes32[]"
        },
        {
          "internalType": "uint256",
          "name": "_shouldStartAtElement",
          "type": "uint256"
        }
      ],
      "name": "appendStateBatch",
      "outputs": [],
      "stateMutability": "nonpayable",
      "type": "function"
    },
    {
      "inputs": [],
      "name": "batches",
      "outputs": [
        {
          "internalType": "contract IChainStorageContainer",
          "name": "",
          "type": "address"
        }
      ],
      "stateMutability": "view",
      "type": "function"
    },
    {
      "inputs": [
        {
          "components": [
            {
              "internalType": "uint256",
              "name": "batchIndex",
              "type": "uint256"
            },
            {
              "internalType": "bytes32",
              "name": "batchRoot",
              "type": "bytes32"
            },
            {
              "internalType": "uint256",
              "name": "batchSize",
              "type": "uint256"
            },
            {
              "internalType": "uint256",
              "name": "prevTotalElements",
              "type": "uint256"
            },
            {
              "internalType": "bytes",
              "name": "extraData",
              "type": "bytes"
            }
          ],
          "internalType": "struct Lib_BVMCodec.ChainBatchHeader",
          "name": "_batchHeader",
          "type": "tuple"
        }
      ],
      "name": "deleteStateBatch",
      "outputs": [],
      "stateMutability": "nonpayable",
      "type": "function"
    },
    {
      "inputs": [],
      "name": "getLastSequencerTimestamp",
      "outputs": [
        {
          "internalType": "uint256",
          "name": "_lastSequencerTimestamp",
          "type": "uint256"
        }
      ],
      "stateMutability": "view",
      "type": "function"
    },
    {
      "inputs": [],
      "name": "getTotalBatches",
      "outputs": [
        {
          "internalType": "uint256",
          "name": "_totalBatches",
          "type": "uint256"
        }
      ],
      "stateMutability": "view",
      "type": "function"
    },
    {
      "inputs": [],
      "name": "getTotalElements",
      "outputs": [
        {
          "internalType": "uint256",
          "name": "_totalElements",
          "type": "uint256"
        }
      ],
      "stateMutability": "view",
      "type": "function"
    },
    {
      "inputs": [
        {
          "components": [
            {
              "internalType": "uint256",
              "name": "batchIndex",
              "type": "uint256"
            },
            {
              "internalType": "bytes32",
              "name": "batchRoot",
              "type": "bytes32"
            },
            {
              "internalType": "uint256",
              "name": "batchSize",
              "type": "uint256"
            },
            {
              "internalType": "uint256",
              "name": "prevTotalElements",
              "type": "uint256"
            },
            {
              "internalType": "bytes",
              "name": "extraData",
              "type": "bytes"
            }
          ],
          "internalType": "struct Lib_BVMCodec.ChainBatchHeader",
          "name": "_batchHeader",
          "type": "tuple"
        }
      ],
      "name": "insideFraudProofWindow",
      "outputs": [
        {
          "internalType": "bool",
          "name": "_inside",
          "type": "bool"
        }
      ],
      "stateMutability": "view",
      "type": "function"
    },
    {
      "inputs": [],
      "name": "libAddressManager",
      "outputs": [
        {
          "internalType": "contract Lib_AddressManager",
          "name": "",
          "type": "address"
        }
      ],
      "stateMutability": "view",
      "type": "function"
    },
    {
      "inputs": [
        {
          "internalType": "string",
          "name": "_name",
          "type": "string"
        }
      ],
      "name": "resolve",
      "outputs": [
        {
          "internalType": "address",
          "name": "",
          "type": "address"
        }
      ],
      "stateMutability": "view",
      "type": "function"
    },
    {
      "inputs": [
        {
          "internalType": "bytes32",
          "name": "_element",
          "type": "bytes32"
        },
        {
          "components": [
            {
              "internalType": "uint256",
              "name": "batchIndex",
              "type": "uint256"
            },
            {
              "internalType": "bytes32",
              "name": "batchRoot",
              "type": "bytes32"
            },
            {
              "internalType": "uint256",
              "name": "batchSize",
              "type": "uint256"
            },
            {
              "internalType": "uint256",
              "name": "prevTotalElements",
              "type": "uint256"
            },
            {
              "internalType": "bytes",
              "name": "extraData",
              "type": "bytes"
            }
          ],
          "internalType": "struct Lib_BVMCodec.ChainBatchHeader",
          "name": "_batchHeader",
          "type": "tuple"
        },
        {
          "components": [
            {
              "internalType": "uint256",
              "name": "index",
              "type": "uint256"
            },
            {
              "internalType": "bytes32[]",
              "name": "siblings",
              "type": "bytes32[]"
            }
          ],
          "internalType": "struct Lib_BVMCodec.ChainInclusionProof",
          "name": "_proof",
          "type": "tuple"
        }
      ],
      "name": "verifyStateCommitment",
      "outputs": [
        {
          "internalType": "bool",
          "name": "",
          "type": "bool"
        }
      ],
      "stateMutability": "view",
      "type": "function"
    }
  ],
  "bytecode": "0x608060405234801561001057600080fd5b506040516120bb3803806120bb83398101604081905261002f9161005b565b600080546001600160a01b0319166001600160a01b03949094169390931790925560015560025561009e565b60008060006060848603121561007057600080fd5b83516001600160a01b038116811461008757600080fd5b602085015160409095015190969495509392505050565b61200e806100ad6000396000f3fe608060405234801561001057600080fd5b50600436106100d45760003560e01c80638ca5cbb911610081578063c17b291b1161005b578063c17b291b146101bb578063cfdf677e146101c4578063e561dddc146101cc57600080fd5b80638ca5cbb9146101805780639418bddd14610195578063b8e189ac146101a857600080fd5b80637aa63a86116100b25780637aa63a86146101595780637ad168a01461016f57806381eb62ef1461017757600080fd5b8063299ca478146100d9578063461a4478146101235780634d69ee5714610136575b600080fd5b6000546100f99073ffffffffffffffffffffffffffffffffffffffff1681565b60405173ffffffffffffffffffffffffffffffffffffffff90911681526020015b60405180910390f35b6100f9610131366004611a1b565b6101d4565b610149610144366004611b8d565b610281565b604051901515815260200161011a565b610161610350565b60405190815260200161011a565b610161610369565b61016160025481565b61019361018e366004611c4a565b610382565b005b6101496101a3366004611c8f565b61075c565b6101936101b6366004611c8f565b610804565b61016160015481565b6100f96109c0565b6101616109e8565b600080546040517fbf40fac100000000000000000000000000000000000000000000000000000000815273ffffffffffffffffffffffffffffffffffffffff9091169063bf40fac19061022b908590600401611d2f565b60206040518083038186803b15801561024357600080fd5b505afa158015610257573d6000803e3d6000fd5b505050506040513d601f19601f8201168201806040525081019061027b9190611d64565b92915050565b600061028c83610a6f565b6102dd5760405162461bcd60e51b815260206004820152601560248201527f496e76616c6964206261746368206865616465722e000000000000000000000060448201526064015b60405180910390fd5b6102fa836020015185846000015185602001518760400151610b31565b6103465760405162461bcd60e51b815260206004820152601860248201527f496e76616c696420696e636c7573696f6e2070726f6f662e000000000000000060448201526064016102d4565b5060019392505050565b60008061035b610d9f565b5064ffffffffff1692915050565b600080610374610d9f565b64ffffffffff169392505050565b61038a610350565b81146103fe5760405162461bcd60e51b815260206004820152603d60248201527f41637475616c20626174636820737461727420696e64657820646f6573206e6f60448201527f74206d6174636820657870656374656420737461727420696e6465782e00000060648201526084016102d4565b61043c6040518060400160405280600b81526020017f426f6e644d616e616765720000000000000000000000000000000000000000008152506101d4565b6040517f02ad4d2a00000000000000000000000000000000000000000000000000000000815233600482015273ffffffffffffffffffffffffffffffffffffffff91909116906302ad4d2a9060240160206040518083038186803b1580156104a357600080fd5b505afa1580156104b7573d6000803e3d6000fd5b505050506040513d601f19601f820116820180604052508101906104db9190611d81565b61054d5760405162461bcd60e51b815260206004820152602f60248201527f50726f706f73657220646f6573206e6f74206861766520656e6f75676820636f60448201527f6c6c61746572616c20706f73746564000000000000000000000000000000000060648201526084016102d4565b60008251116105c45760405162461bcd60e51b815260206004820152602360248201527f43616e6e6f74207375626d697420616e20656d7074792073746174652062617460448201527f63682e000000000000000000000000000000000000000000000000000000000060648201526084016102d4565b6106026040518060400160405280601981526020017f43616e6f6e6963616c5472616e73616374696f6e436861696e000000000000008152506101d4565b73ffffffffffffffffffffffffffffffffffffffff16637aa63a866040518163ffffffff1660e01b815260040160206040518083038186803b15801561064757600080fd5b505afa15801561065b573d6000803e3d6000fd5b505050506040513d601f19601f8201168201806040525081019061067f9190611da3565b8251610689610350565b6106939190611deb565b111561072d5760405162461bcd60e51b815260206004820152604960248201527f4e756d626572206f6620737461746520726f6f74732063616e6e6f742065786360448201527f65656420746865206e756d626572206f662063616e6f6e6963616c207472616e60648201527f73616374696f6e732e0000000000000000000000000000000000000000000000608482015260a4016102d4565b6040805142602082015233818301528151808203830181526060909101909152610758908390610e43565b5050565b60008082608001518060200190518101906107779190611e03565b509050806107ed5760405162461bcd60e51b815260206004820152602560248201527f4261746368206865616465722074696d657374616d702063616e6e6f7420626560448201527f207a65726f00000000000000000000000000000000000000000000000000000060648201526084016102d4565b42600154826107fc9190611deb565b119392505050565b6108426040518060400160405280601181526020017f42564d5f467261756456657269666965720000000000000000000000000000008152506101d4565b73ffffffffffffffffffffffffffffffffffffffff163373ffffffffffffffffffffffffffffffffffffffff16146108e25760405162461bcd60e51b815260206004820152603b60248201527f537461746520626174636865732063616e206f6e6c792062652064656c65746560448201527f64206279207468652042564d5f467261756456657269666965722e000000000060648201526084016102d4565b6108eb81610a6f565b6109375760405162461bcd60e51b815260206004820152601560248201527f496e76616c6964206261746368206865616465722e000000000000000000000060448201526064016102d4565b6109408161075c565b6109b4576040805162461bcd60e51b81526020600482015260248101919091527f537461746520626174636865732063616e206f6e6c792062652064656c65746560448201527f642077697468696e207468652066726175642070726f6f662077696e646f772e60648201526084016102d4565b6109bd816110e6565b50565b60006109e3604051806060016040528060218152602001611fb8602191396101d4565b905090565b60006109f26109c0565b73ffffffffffffffffffffffffffffffffffffffff16631f7b6d326040518163ffffffff1660e01b815260040160206040518083038186803b158015610a3757600080fd5b505afa158015610a4b573d6000803e3d6000fd5b505050506040513d601f19601f820116820180604052508101906109e39190611da3565b6000610a796109c0565b82516040517f9507d39a00000000000000000000000000000000000000000000000000000000815273ffffffffffffffffffffffffffffffffffffffff9290921691639507d39a91610ad19160040190815260200190565b60206040518083038186803b158015610ae957600080fd5b505afa158015610afd573d6000803e3d6000fd5b505050506040513d601f19601f82011682018060405250810190610b219190611da3565b610b2a83611317565b1492915050565b6000808211610ba85760405162461bcd60e51b815260206004820152603760248201527f4c69625f4d65726b6c65547265653a20546f74616c206c6561766573206d757360448201527f742062652067726561746572207468616e207a65726f2e00000000000000000060648201526084016102d4565b818410610c1c5760405162461bcd60e51b8152602060048201526024808201527f4c69625f4d65726b6c65547265653a20496e646578206f7574206f6620626f7560448201527f6e64732e0000000000000000000000000000000000000000000000000000000060648201526084016102d4565b610c258261135d565b835114610cc05760405162461bcd60e51b815260206004820152604d60248201527f4c69625f4d65726b6c65547265653a20546f74616c207369626c696e6773206460448201527f6f6573206e6f7420636f72726563746c7920636f72726573706f6e6420746f2060648201527f746f74616c206c65617665732e00000000000000000000000000000000000000608482015260a4016102d4565b8460005b8451811015610d92578560011660011415610d2b57848181518110610ceb57610ceb611e33565b602002602001015182604051602001610d0e929190918252602082015260400190565b604051602081830303815290604052805190602001209150610d79565b81858281518110610d3e57610d3e611e33565b6020026020010151604051602001610d60929190918252602082015260400190565b6040516020818303038152906040528051906020012091505b60019590951c9480610d8a81611e62565b915050610cc4565b5090951495945050505050565b6000806000610dac6109c0565b73ffffffffffffffffffffffffffffffffffffffff1663ccf8f9696040518163ffffffff1660e01b815260040160206040518083038186803b158015610df157600080fd5b505afa158015610e05573d6000803e3d6000fd5b505050506040513d601f19601f82011682018060405250810190610e299190611e9b565b64ffffffffff602882901c169460509190911c9350915050565b6000610e836040518060400160405280600c81526020017f42564d5f50726f706f73657200000000000000000000000000000000000000008152506101d4565b9050600080610e90610d9f565b90925090503373ffffffffffffffffffffffffffffffffffffffff84161415610eba575042610f69565b426002548264ffffffffff16610ed09190611deb565b10610f695760405162461bcd60e51b815260206004820152604360248201527f43616e6e6f74207075626c69736820737461746520726f6f747320776974686960448201527f6e207468652073657175656e636572207075626c69636174696f6e2077696e6460648201527f6f772e0000000000000000000000000000000000000000000000000000000000608482015260a4016102d4565b60006040518060a00160405280610f7e6109e8565b8152602001610f8c88611443565b8152602001875181526020018464ffffffffff16815260200186815250905080600001517f16be4c5129a4e03cf3350262e181dc02ddfb4a6008d925368c0899fcd97ca9c58260200151836040015184606001518560800151604051610ff59493929190611edd565b60405180910390a26110056109c0565b73ffffffffffffffffffffffffffffffffffffffff16632015276c61102983611317565b61104e846040015185606001516110409190611deb565b602887811b91909117901b90565b6040517fffffffff0000000000000000000000000000000000000000000000000000000060e085901b16815260048101929092527fffffffffffffffffffffffffffffffffffffffffffffffffffffff0000000000166024820152604401600060405180830381600087803b1580156110c657600080fd5b505af11580156110da573d6000803e3d6000fd5b50505050505050505050565b6110ee6109c0565b73ffffffffffffffffffffffffffffffffffffffff16631f7b6d326040518163ffffffff1660e01b815260040160206040518083038186803b15801561113357600080fd5b505afa158015611147573d6000803e3d6000fd5b505050506040513d601f19601f8201168201806040525081019061116b9190611da3565b8151106111ba5760405162461bcd60e51b815260206004820152601460248201527f496e76616c696420626174636820696e6465782e00000000000000000000000060448201526064016102d4565b6111c381610a6f565b61120f5760405162461bcd60e51b815260206004820152601560248201527f496e76616c6964206261746368206865616465722e000000000000000000000060448201526064016102d4565b6112176109c0565b8151606083015173ffffffffffffffffffffffffffffffffffffffff929092169163167fd681919060281b6040517fffffffff0000000000000000000000000000000000000000000000000000000060e085901b16815260048101929092527fffffffffffffffffffffffffffffffffffffffffffffffffffffff0000000000166024820152604401600060405180830381600087803b1580156112ba57600080fd5b505af11580156112ce573d6000803e3d6000fd5b5050505080600001517f8747b69ce8fdb31c3b9b0a67bd8049ad8c1a69ea417b69b12174068abd9cbd64826020015160405161130c91815260200190565b60405180910390a250565b600081602001518260400151836060015184608001516040516020016113409493929190611edd565b604051602081830303815290604052805190602001209050919050565b60008082116113d45760405162461bcd60e51b815260206004820152603060248201527f4c69625f4d65726b6c65547265653a2043616e6e6f7420636f6d70757465206360448201527f65696c286c6f675f3229206f6620302e0000000000000000000000000000000060648201526084016102d4565b81600114156113e557506000919050565b81600060805b600181106114235780611401600180831b611f0c565b901b83161561141b576114148183611deb565b92811c9291505b60011c6113eb565b506001811b841461143c57611439600182611deb565b90505b9392505050565b6000808251116114bb5760405162461bcd60e51b815260206004820152603460248201527f4c69625f4d65726b6c65547265653a204d7573742070726f766964652061742060448201527f6c65617374206f6e65206c65616620686173682e00000000000000000000000060648201526084016102d4565b8151600114156114e757816000815181106114d8576114d8611e33565b60200260200101519050919050565b60408051610200810182527f290decd9548b62a8d60345a988386fc84ba6bc95484008f6362f93160ef3e56381527f633dc4d7da7256660a892f8f1604a44b5432649cc8ec5cb3ced4c4e6ac94dd1d60208201527f890740a8eb06ce9be422cb8da5cdafc2b58c0a5e24036c578de2a433c828ff7d818301527f3b8ec09e026fdc305365dfc94e189a81b38c7597b3d941c279f042e8206e0bd86060808301919091527fecd50eee38e386bd62be9bedb990706951b65fe053bd9d8a521af753d139e2da60808301527fdefff6d330bb5403f63b14f33b578274160de3a50df4efecf0e0db73bcdd3da560a08301527f617bdd11f7c0a11f49db22f629387a12da7596f9d1704d7465177c63d88ec7d760c08301527f292c23a9aa1d8bea7e2435e555a4a60e379a5a35f3f452bae60121073fb6eead60e08301527fe1cea92ed99acdcb045a6726b2f87107e8a61620a232cf4d7d5b5766b3952e106101008301527f7ad66c0a68c72cb89e4fb4303841966e4062a76ab97451e3b9fb526a5ceb7f826101208301527fe026cc5a4aed3c22a58cbd3d2ac754c9352c5436f638042dca99034e836365166101408301527f3d04cffd8b46a874edf5cfae63077de85f849a660426697b06a829c70dd1409c6101608301527fad676aa337a485e4728a0b240d92b3ef7b3c372d06d189322bfd5f61f1e7203e6101808301527fa2fca4a49658f9fab7aa63289c91b7c7b6c832a6d0e69334ff5b0a3483d09dab6101a08301527f4ebfd9cd7bca2505f7bef59cc1c12ecc708fff26ae4af19abe852afe9e20c8626101c08301527f2def10d13dd169f550f578bda343d9717a138562e0093b380a1120789d53cf106101e083015282518381529081018352909160009190602082018180368337505085519192506000918291508180805b60018411156118fd57611798600285611f52565b91506117a5600285611f66565b600114905060005b82811015611851578a6117c1826002611f7a565b815181106117d1576117d1611e33565b602002602001015196508a8160026117e99190611f7a565b6117f4906001611deb565b8151811061180457611804611e33565b6020026020010151955086602089015285604089015287805190602001208b828151811061183457611834611e33565b60209081029190910101528061184981611e62565b9150506117ad565b5080156118cd5789611864600186611f0c565b8151811061187457611874611e33565b6020026020010151955087836010811061189057611890611e33565b602002015160001b945085602088015284604088015286805190602001208a83815181106118c0576118c0611e33565b6020026020010181815250505b806118d95760006118dc565b60015b6118e99060ff1683611deb565b9350826118f581611e62565b935050611784565b8960008151811061191057611910611e33565b602002602001015198505050505050505050919050565b7f4e487b7100000000000000000000000000000000000000000000000000000000600052604160045260246000fd5b604051601f82017fffffffffffffffffffffffffffffffffffffffffffffffffffffffffffffffe016810167ffffffffffffffff8111828210171561199d5761199d611927565b604052919050565b600067ffffffffffffffff8311156119bf576119bf611927565b6119f060207fffffffffffffffffffffffffffffffffffffffffffffffffffffffffffffffe0601f86011601611956565b9050828152838383011115611a0457600080fd5b828260208301376000602084830101529392505050565b600060208284031215611a2d57600080fd5b813567ffffffffffffffff811115611a4457600080fd5b8201601f81018413611a5557600080fd5b611a64848235602084016119a5565b949350505050565b600060a08284031215611a7e57600080fd5b60405160a0810167ffffffffffffffff8282108183111715611aa257611aa2611927565b81604052829350843583526020850135602084015260408501356040840152606085013560608401526080850135915080821115611adf57600080fd5b508301601f81018513611af157600080fd5b611b00858235602084016119a5565b6080830152505092915050565b600082601f830112611b1e57600080fd5b8135602067ffffffffffffffff821115611b3a57611b3a611927565b8160051b611b49828201611956565b9283528481018201928281019087851115611b6357600080fd5b83870192505b84831015611b8257823582529183019190830190611b69565b979650505050505050565b600080600060608486031215611ba257600080fd5b83359250602084013567ffffffffffffffff80821115611bc157600080fd5b611bcd87838801611a6c565b93506040860135915080821115611be357600080fd5b9085019060408288031215611bf757600080fd5b604051604081018181108382111715611c1257611c12611927565b60405282358152602083013582811115611c2b57600080fd5b611c3789828601611b0d565b6020830152508093505050509250925092565b60008060408385031215611c5d57600080fd5b823567ffffffffffffffff811115611c7457600080fd5b611c8085828601611b0d565b95602094909401359450505050565b600060208284031215611ca157600080fd5b813567ffffffffffffffff811115611cb857600080fd5b611a6484828501611a6c565b6000815180845260005b81811015611cea57602081850181015186830182015201611cce565b81811115611cfc576000602083870101525b50601f017fffffffffffffffffffffffffffffffffffffffffffffffffffffffffffffffe0169290920160200192915050565b60208152600061143c6020830184611cc4565b73ffffffffffffffffffffffffffffffffffffffff811681146109bd57600080fd5b600060208284031215611d7657600080fd5b815161143c81611d42565b600060208284031215611d9357600080fd5b8151801515811461143c57600080fd5b600060208284031215611db557600080fd5b5051919050565b7f4e487b7100000000000000000000000000000000000000000000000000000000600052601160045260246000fd5b60008219821115611dfe57611dfe611dbc565b500190565b60008060408385031215611e1657600080fd5b825191506020830151611e2881611d42565b809150509250929050565b7f4e487b7100000000000000000000000000000000000000000000000000000000600052603260045260246000fd5b60007fffffffffffffffffffffffffffffffffffffffffffffffffffffffffffffffff821415611e9457611e94611dbc565b5060010190565b600060208284031215611ead57600080fd5b81517fffffffffffffffffffffffffffffffffffffffffffffffffffffff00000000008116811461143c57600080fd5b848152836020820152826040820152608060608201526000611f026080830184611cc4565b9695505050505050565b600082821015611f1e57611f1e611dbc565b500390565b7f4e487b7100000000000000000000000000000000000000000000000000000000600052601260045260246000fd5b600082611f6157611f61611f23565b500490565b600082611f7557611f75611f23565b500690565b6000817fffffffffffffffffffffffffffffffffffffffffffffffffffffffffffffffff0483118215151615611fb257611fb2611dbc565b50029056fe436861696e53746f72616765436f6e7461696e65722d5343432d62617463686573a26469706673582212200e4ab00ba57f3d2fca2d5e0fb43148ebac0cb9d159f87036281f1f2b6dc8f21f64736f6c63430008090033",
  "linkReferences": {},
  "deployedLinkReferences": {}
}