{
  "_format": "hh-sol-artifact-1",
  "contractName": "StateCommitmentChain",
  "sourceName": "contracts/L1/rollup/StateCommitmentChain.sol",
  "abi": [
    {
      "inputs": [
        {
          "internalType": "address",
          "name": "_libAddressManager",
          "type": "address"
        },
        {
          "internalType": "address",
          "name": "_l1messenger",
          "type": "address"
        },
        {
          "internalType": "uint256",
          "name": "_fraudProofWindow",
          "type": "uint256"
        },
        {
          "internalType": "uint256",
          "name": "_sequencerPublishWindow",
          "type": "uint256"
        }
      ],
      "stateMutability": "nonpayable",
      "type": "constructor"
    },
    {
      "anonymous": false,
      "inputs": [
        {
          "indexed": true,
          "internalType": "uint256",
          "name": "_startBlockNumber",
          "type": "uint256"
        },
        {
          "indexed": false,
          "internalType": "uint256",
          "name": "_length",
          "type": "uint256"
        },
        {
          "indexed": true,
          "internalType": "uint256",
          "name": "_batchTime",
          "type": "uint256"
        },
        {
          "indexed": false,
          "internalType": "address[]",
          "name": "_tssMembers",
          "type": "address[]"
        }
      ],
      "name": "DistributeTssReward",
      "type": "event"
    },
    {
      "anonymous": false,
      "inputs": [
        {
          "indexed": true,
          "internalType": "uint256",
          "name": "_batchIndex",
          "type": "uint256"
        },
        {
          "indexed": false,
          "internalType": "bytes32",
          "name": "_batchRoot",
          "type": "bytes32"
        },
        {
          "indexed": false,
          "internalType": "uint256",
          "name": "_batchSize",
          "type": "uint256"
        },
        {
          "indexed": false,
          "internalType": "uint256",
          "name": "_prevTotalElements",
          "type": "uint256"
        },
        {
          "indexed": false,
          "internalType": "bytes",
          "name": "_signature",
          "type": "bytes"
        },
        {
          "indexed": false,
          "internalType": "bytes",
          "name": "_extraData",
          "type": "bytes"
        }
      ],
      "name": "StateBatchAppended",
      "type": "event"
    },
    {
      "anonymous": false,
      "inputs": [
        {
          "indexed": true,
          "internalType": "uint256",
          "name": "_batchIndex",
          "type": "uint256"
        },
        {
          "indexed": false,
          "internalType": "bytes32",
          "name": "_batchRoot",
          "type": "bytes32"
        }
      ],
      "name": "StateBatchDeleted",
      "type": "event"
    },
    {
      "inputs": [],
      "name": "FRAUD_PROOF_WINDOW",
      "outputs": [
        {
          "internalType": "uint256",
          "name": "",
          "type": "uint256"
        }
      ],
      "stateMutability": "view",
      "type": "function"
    },
    {
      "inputs": [],
      "name": "SEQUENCER_PUBLISH_WINDOW",
      "outputs": [
        {
          "internalType": "uint256",
          "name": "",
          "type": "uint256"
        }
      ],
      "stateMutability": "view",
      "type": "function"
    },
    {
      "inputs": [
        {
          "internalType": "bytes32[]",
          "name": "_batch",
          "type": "bytes32[]"
        },
        {
          "internalType": "uint256",
          "name": "_shouldStartAtElement",
          "type": "uint256"
        },
        {
          "internalType": "bytes",
          "name": "_signature",
          "type": "bytes"
        }
      ],
      "name": "appendStateBatch",
      "outputs": [],
      "stateMutability": "nonpayable",
      "type": "function"
    },
    {
      "inputs": [],
      "name": "batches",
      "outputs": [
        {
          "internalType": "contract IChainStorageContainer",
          "name": "",
          "type": "address"
        }
      ],
      "stateMutability": "view",
      "type": "function"
    },
    {
      "inputs": [
        {
          "components": [
            {
              "internalType": "uint256",
              "name": "batchIndex",
              "type": "uint256"
            },
            {
              "internalType": "bytes32",
              "name": "batchRoot",
              "type": "bytes32"
            },
            {
              "internalType": "uint256",
              "name": "batchSize",
              "type": "uint256"
            },
            {
              "internalType": "uint256",
              "name": "prevTotalElements",
              "type": "uint256"
            },
            {
              "internalType": "bytes",
              "name": "signature",
              "type": "bytes"
            },
            {
              "internalType": "bytes",
              "name": "extraData",
              "type": "bytes"
            }
          ],
          "internalType": "struct Lib_BVMCodec.ChainBatchHeader",
          "name": "_batchHeader",
          "type": "tuple"
        }
      ],
      "name": "deleteStateBatch",
      "outputs": [],
      "stateMutability": "nonpayable",
      "type": "function"
    },
    {
      "inputs": [],
      "name": "getLastSequencerTimestamp",
      "outputs": [
        {
          "internalType": "uint256",
          "name": "_lastSequencerTimestamp",
          "type": "uint256"
        }
      ],
      "stateMutability": "view",
      "type": "function"
    },
    {
      "inputs": [],
      "name": "getTotalBatches",
      "outputs": [
        {
          "internalType": "uint256",
          "name": "_totalBatches",
          "type": "uint256"
        }
      ],
      "stateMutability": "view",
      "type": "function"
    },
    {
      "inputs": [],
      "name": "getTotalElements",
      "outputs": [
        {
          "internalType": "uint256",
          "name": "_totalElements",
          "type": "uint256"
        }
      ],
      "stateMutability": "view",
      "type": "function"
    },
    {
      "inputs": [
        {
          "components": [
            {
              "internalType": "uint256",
              "name": "batchIndex",
              "type": "uint256"
            },
            {
              "internalType": "bytes32",
              "name": "batchRoot",
              "type": "bytes32"
            },
            {
              "internalType": "uint256",
              "name": "batchSize",
              "type": "uint256"
            },
            {
              "internalType": "uint256",
              "name": "prevTotalElements",
              "type": "uint256"
            },
            {
              "internalType": "bytes",
              "name": "signature",
              "type": "bytes"
            },
            {
              "internalType": "bytes",
              "name": "extraData",
              "type": "bytes"
            }
          ],
          "internalType": "struct Lib_BVMCodec.ChainBatchHeader",
          "name": "_batchHeader",
          "type": "tuple"
        }
      ],
      "name": "insideFraudProofWindow",
      "outputs": [
        {
          "internalType": "bool",
          "name": "_inside",
          "type": "bool"
        }
      ],
      "stateMutability": "view",
      "type": "function"
    },
    {
      "inputs": [],
      "name": "libAddressManager",
      "outputs": [
        {
          "internalType": "contract Lib_AddressManager",
          "name": "",
          "type": "address"
        }
      ],
      "stateMutability": "view",
      "type": "function"
    },
    {
      "inputs": [],
      "name": "messenger",
      "outputs": [
        {
          "internalType": "address",
          "name": "",
          "type": "address"
        }
      ],
      "stateMutability": "view",
      "type": "function"
    },
    {
      "inputs": [
        {
          "internalType": "string",
          "name": "_name",
          "type": "string"
        }
      ],
      "name": "resolve",
      "outputs": [
        {
          "internalType": "address",
          "name": "",
          "type": "address"
        }
      ],
      "stateMutability": "view",
      "type": "function"
    },
    {
      "inputs": [
        {
          "internalType": "bytes32",
          "name": "_element",
          "type": "bytes32"
        },
        {
          "components": [
            {
              "internalType": "uint256",
              "name": "batchIndex",
              "type": "uint256"
            },
            {
              "internalType": "bytes32",
              "name": "batchRoot",
              "type": "bytes32"
            },
            {
              "internalType": "uint256",
              "name": "batchSize",
              "type": "uint256"
            },
            {
              "internalType": "uint256",
              "name": "prevTotalElements",
              "type": "uint256"
            },
            {
              "internalType": "bytes",
              "name": "signature",
              "type": "bytes"
            },
            {
              "internalType": "bytes",
              "name": "extraData",
              "type": "bytes"
            }
          ],
          "internalType": "struct Lib_BVMCodec.ChainBatchHeader",
          "name": "_batchHeader",
          "type": "tuple"
        },
        {
          "components": [
            {
              "internalType": "uint256",
              "name": "index",
              "type": "uint256"
            },
            {
              "internalType": "bytes32[]",
              "name": "siblings",
              "type": "bytes32[]"
            }
          ],
          "internalType": "struct Lib_BVMCodec.ChainInclusionProof",
          "name": "_proof",
          "type": "tuple"
        }
      ],
      "name": "verifyStateCommitment",
      "outputs": [
        {
          "internalType": "bool",
          "name": "",
          "type": "bool"
        }
      ],
      "stateMutability": "view",
      "type": "function"
    }
  ],
  "bytecode": "0x60806040523480156200001157600080fd5b50604051620027ec380380620027ec833981016040819052620000349162000090565b600080546001600160a01b039586166001600160a01b0319918216179091556001805494909516931692909217909255600291909155600355620000d8565b80516001600160a01b03811681146200008b57600080fd5b919050565b60008060008060808587031215620000a757600080fd5b620000b28562000073565b9350620000c26020860162000073565b6040860151606090960151949790965092505050565b61270480620000e86000396000f3fe608060405234801561001057600080fd5b50600436106100df5760003560e01c80637ad168a01161008c578063b768bb1711610066578063b768bb17146101d3578063c17b291b146101e6578063cfdf677e146101ef578063e561dddc146101f757600080fd5b80637ad168a01461019f57806381eb62ef146101a757806389a1d980146101b057600080fd5b8063461a4478116100bd578063461a4478146101635780635b4d90e2146101765780637aa63a861461018957600080fd5b80632169f79f146100e4578063299ca478146100f95780633cb747bf14610143575b600080fd5b6100f76100f2366004611f86565b6101ff565b005b6000546101199073ffffffffffffffffffffffffffffffffffffffff1681565b60405173ffffffffffffffffffffffffffffffffffffffff90911681526020015b60405180910390f35b6001546101199073ffffffffffffffffffffffffffffffffffffffff1681565b610119610171366004611ff3565b610614565b6100f76101843660046120db565b6106c1565b61019161087d565b60405190815260200161013a565b610191610896565b61019160035481565b6101c36101be3660046120db565b6108af565b604051901515815260200161013a565b6101c36101e1366004612110565b610957565b61019160025481565b610119610a21565b610191610a49565b61020761087d565b82146102805760405162461bcd60e51b815260206004820152603d60248201527f41637475616c20626174636820737461727420696e64657820646f6573206e6f60448201527f74206d6174636820657870656374656420737461727420696e6465782e00000060648201526084015b60405180910390fd5b6102be6040518060400160405280600b81526020017f426f6e644d616e61676572000000000000000000000000000000000000000000815250610614565b6040517f02ad4d2a00000000000000000000000000000000000000000000000000000000815233600482015273ffffffffffffffffffffffffffffffffffffffff91909116906302ad4d2a9060240160206040518083038186803b15801561032557600080fd5b505afa158015610339573d6000803e3d6000fd5b505050506040513d601f19601f8201168201806040525081019061035d91906121cd565b6103cf5760405162461bcd60e51b815260206004820152602f60248201527f50726f706f73657220646f6573206e6f74206861766520656e6f75676820636f60448201527f6c6c61746572616c20706f7374656400000000000000000000000000000000006064820152608401610277565b60008351116104465760405162461bcd60e51b815260206004820152602360248201527f43616e6e6f74207375626d697420616e20656d7074792073746174652062617460448201527f63682e00000000000000000000000000000000000000000000000000000000006064820152608401610277565b6104846040518060400160405280601981526020017f43616e6f6e6963616c5472616e73616374696f6e436861696e00000000000000815250610614565b73ffffffffffffffffffffffffffffffffffffffff16637aa63a866040518163ffffffff1660e01b815260040160206040518083038186803b1580156104c957600080fd5b505afa1580156104dd573d6000803e3d6000fd5b505050506040513d601f19601f8201168201806040525081019061050191906121ef565b835161050b61087d565b6105159190612237565b11156105af5760405162461bcd60e51b815260206004820152604960248201527f4e756d626572206f6620737461746520726f6f74732063616e6e6f742065786360448201527f65656420746865206e756d626572206f662063616e6f6e6963616c207472616e60648201527f73616374696f6e732e0000000000000000000000000000000000000000000000608482015260a401610277565b6105ba838383610ad0565b610605838242336040516020016105f192919091825273ffffffffffffffffffffffffffffffffffffffff16602082015260400190565b604051602081830303815290604052610c0e565b61060f8383610ebe565b505050565b600080546040517fbf40fac100000000000000000000000000000000000000000000000000000000815273ffffffffffffffffffffffffffffffffffffffff9091169063bf40fac19061066b9085906004016122ba565b60206040518083038186803b15801561068357600080fd5b505afa158015610697573d6000803e3d6000fd5b505050506040513d601f19601f820116820180604052508101906106bb91906122ef565b92915050565b6106ff6040518060400160405280601181526020017f42564d5f46726175645665726966696572000000000000000000000000000000815250610614565b73ffffffffffffffffffffffffffffffffffffffff163373ffffffffffffffffffffffffffffffffffffffff161461079f5760405162461bcd60e51b815260206004820152603b60248201527f537461746520626174636865732063616e206f6e6c792062652064656c65746560448201527f64206279207468652042564d5f467261756456657269666965722e00000000006064820152608401610277565b6107a881611111565b6107f45760405162461bcd60e51b815260206004820152601560248201527f496e76616c6964206261746368206865616465722e00000000000000000000006044820152606401610277565b6107fd816108af565b610871576040805162461bcd60e51b81526020600482015260248101919091527f537461746520626174636865732063616e206f6e6c792062652064656c65746560448201527f642077697468696e207468652066726175642070726f6f662077696e646f772e6064820152608401610277565b61087a816111d3565b50565b600080610888611404565b5064ffffffffff1692915050565b6000806108a1611404565b64ffffffffff169392505050565b6000808260a001518060200190518101906108ca919061230c565b509050806109405760405162461bcd60e51b815260206004820152602560248201527f4261746368206865616465722074696d657374616d702063616e6e6f7420626560448201527f207a65726f0000000000000000000000000000000000000000000000000000006064820152608401610277565b426002548261094f9190612237565b119392505050565b600061096283611111565b6109ae5760405162461bcd60e51b815260206004820152601560248201527f496e76616c6964206261746368206865616465722e00000000000000000000006044820152606401610277565b6109cb8360200151858460000151856020015187604001516114a8565b610a175760405162461bcd60e51b815260206004820152601860248201527f496e76616c696420696e636c7573696f6e2070726f6f662e00000000000000006044820152606401610277565b5060019392505050565b6000610a446040518060600160405280602181526020016126ae60219139610614565b905090565b6000610a53610a21565b73ffffffffffffffffffffffffffffffffffffffff16631f7b6d326040518163ffffffff1660e01b815260040160206040518083038186803b158015610a9857600080fd5b505afa158015610aac573d6000803e3d6000fd5b505050506040513d601f19601f82011682018060405250810190610a4491906121ef565b610b0e6040518060400160405280601781526020017f50726f78795f5f5453535f47726f75704d616e61676572000000000000000000815250610614565b73ffffffffffffffffffffffffffffffffffffffff16633231a7f08484604051602001610b3c92919061233c565b60405160208183030381529060405280519060200120836040518363ffffffff1660e01b8152600401610b70929190612384565b602060405180830381600087803b158015610b8a57600080fd5b505af1158015610b9e573d6000803e3d6000fd5b505050506040513d601f19601f82011682018060405250810190610bc291906121cd565b61060f5760405162461bcd60e51b815260206004820152601760248201527f766572696679207369676e6174757265206661696c65640000000000000000006044820152606401610277565b6000610c4e6040518060400160405280600c81526020017f42564d5f50726f706f7365720000000000000000000000000000000000000000815250610614565b9050600080610c5b611404565b90925090503373ffffffffffffffffffffffffffffffffffffffff84161415610c85575042610d34565b426003548264ffffffffff16610c9b9190612237565b10610d345760405162461bcd60e51b815260206004820152604360248201527f43616e6e6f74207075626c69736820737461746520726f6f747320776974686960448201527f6e207468652073657175656e636572207075626c69636174696f6e2077696e6460648201527f6f772e0000000000000000000000000000000000000000000000000000000000608482015260a401610277565b60006040518060c00160405280610d49610a49565b8152602001610d5789611716565b8152602001885181526020018464ffffffffff16815260200187815260200186815250905080600001517f9cf3ad24eae3fd6d461e2f566b35b95b6d671871d9fcb45f8ac8030e4a8d21b382602001518360400151846060015185608001518660a00151604051610dcc95949392919061239d565b60405180910390a2610ddc610a21565b73ffffffffffffffffffffffffffffffffffffffff16632015276c610e0083611bfa565b610e2584604001518560600151610e179190612237565b602887811b91909117901b90565b6040517fffffffff0000000000000000000000000000000000000000000000000000000060e085901b16815260048101929092527fffffffffffffffffffffffffffffffffffffffffffffffffffffff0000000000166024820152604401600060405180830381600087803b158015610e9d57600080fd5b505af1158015610eb1573d6000803e3d6000fd5b5050505050505050505050565b6000610efe6040518060400160405280601781526020017f50726f78795f5f5453535f47726f75704d616e61676572000000000000000000815250610614565b73ffffffffffffffffffffffffffffffffffffffff16632cd00d536040518163ffffffff1660e01b8152600401600060405180830381600087803b158015610f4557600080fd5b505af1158015610f59573d6000803e3d6000fd5b505050506040513d6000823e601f3d9081017fffffffffffffffffffffffffffffffffffffffffffffffffffffffffffffffe0168201604052610f9f91908101906123e0565b90506000815111610ff25760405162461bcd60e51b815260206004820152601860248201527f67657420747373206d656d6265727320696e206572726f7200000000000000006044820152606401610277565b82516040516000917f0fae75d9000000000000000000000000000000000000000000000000000000009161102e918691429087906024016124cb565b604080517fffffffffffffffffffffffffffffffffffffffffffffffffffffffffffffffe08184030181529190526020810180517bffffffffffffffffffffffffffffffffffffffffffffffffffffffff167fffffffff000000000000000000000000000000000000000000000000000000009093169290921790915290506110cf734200000000000000000000000000000000000020621e848083611c43565b42837ff533ef50019763ee9d95ad46e28350b533c11edd472ae7be93e8fae83c1b6d998651856040516111039291906124fa565b60405180910390a350505050565b600061111b610a21565b82516040517f9507d39a00000000000000000000000000000000000000000000000000000000815273ffffffffffffffffffffffffffffffffffffffff9290921691639507d39a916111739160040190815260200190565b60206040518083038186803b15801561118b57600080fd5b505afa15801561119f573d6000803e3d6000fd5b505050506040513d601f19601f820116820180604052508101906111c391906121ef565b6111cc83611bfa565b1492915050565b6111db610a21565b73ffffffffffffffffffffffffffffffffffffffff16631f7b6d326040518163ffffffff1660e01b815260040160206040518083038186803b15801561122057600080fd5b505afa158015611234573d6000803e3d6000fd5b505050506040513d601f19601f8201168201806040525081019061125891906121ef565b8151106112a75760405162461bcd60e51b815260206004820152601460248201527f496e76616c696420626174636820696e6465782e0000000000000000000000006044820152606401610277565b6112b081611111565b6112fc5760405162461bcd60e51b815260206004820152601560248201527f496e76616c6964206261746368206865616465722e00000000000000000000006044820152606401610277565b611304610a21565b8151606083015173ffffffffffffffffffffffffffffffffffffffff929092169163167fd681919060281b6040517fffffffff0000000000000000000000000000000000000000000000000000000060e085901b16815260048101929092527fffffffffffffffffffffffffffffffffffffffffffffffffffffff0000000000166024820152604401600060405180830381600087803b1580156113a757600080fd5b505af11580156113bb573d6000803e3d6000fd5b5050505080600001517f8747b69ce8fdb31c3b9b0a67bd8049ad8c1a69ea417b69b12174068abd9cbd6482602001516040516113f991815260200190565b60405180910390a250565b6000806000611411610a21565b73ffffffffffffffffffffffffffffffffffffffff1663ccf8f9696040518163ffffffff1660e01b815260040160206040518083038186803b15801561145657600080fd5b505afa15801561146a573d6000803e3d6000fd5b505050506040513d601f19601f8201168201806040525081019061148e9190612513565b64ffffffffff602882901c169460509190911c9350915050565b600080821161151f5760405162461bcd60e51b815260206004820152603760248201527f4c69625f4d65726b6c65547265653a20546f74616c206c6561766573206d757360448201527f742062652067726561746572207468616e207a65726f2e0000000000000000006064820152608401610277565b8184106115935760405162461bcd60e51b8152602060048201526024808201527f4c69625f4d65726b6c65547265653a20496e646578206f7574206f6620626f7560448201527f6e64732e000000000000000000000000000000000000000000000000000000006064820152608401610277565b61159c82611cd4565b8351146116375760405162461bcd60e51b815260206004820152604d60248201527f4c69625f4d65726b6c65547265653a20546f74616c207369626c696e6773206460448201527f6f6573206e6f7420636f72726563746c7920636f72726573706f6e6420746f2060648201527f746f74616c206c65617665732e00000000000000000000000000000000000000608482015260a401610277565b8460005b84518110156117095785600116600114156116a25784818151811061166257611662612555565b602002602001015182604051602001611685929190918252602082015260400190565b6040516020818303038152906040528051906020012091506116f0565b818582815181106116b5576116b5612555565b60200260200101516040516020016116d7929190918252602082015260400190565b6040516020818303038152906040528051906020012091505b60019590951c948061170181612584565b91505061163b565b5090951495945050505050565b60008082511161178e5760405162461bcd60e51b815260206004820152603460248201527f4c69625f4d65726b6c65547265653a204d7573742070726f766964652061742060448201527f6c65617374206f6e65206c65616620686173682e0000000000000000000000006064820152608401610277565b8151600114156117ba57816000815181106117ab576117ab612555565b60200260200101519050919050565b60408051610200810182527f290decd9548b62a8d60345a988386fc84ba6bc95484008f6362f93160ef3e56381527f633dc4d7da7256660a892f8f1604a44b5432649cc8ec5cb3ced4c4e6ac94dd1d60208201527f890740a8eb06ce9be422cb8da5cdafc2b58c0a5e24036c578de2a433c828ff7d818301527f3b8ec09e026fdc305365dfc94e189a81b38c7597b3d941c279f042e8206e0bd86060808301919091527fecd50eee38e386bd62be9bedb990706951b65fe053bd9d8a521af753d139e2da60808301527fdefff6d330bb5403f63b14f33b578274160de3a50df4efecf0e0db73bcdd3da560a08301527f617bdd11f7c0a11f49db22f629387a12da7596f9d1704d7465177c63d88ec7d760c08301527f292c23a9aa1d8bea7e2435e555a4a60e379a5a35f3f452bae60121073fb6eead60e08301527fe1cea92ed99acdcb045a6726b2f87107e8a61620a232cf4d7d5b5766b3952e106101008301527f7ad66c0a68c72cb89e4fb4303841966e4062a76ab97451e3b9fb526a5ceb7f826101208301527fe026cc5a4aed3c22a58cbd3d2ac754c9352c5436f638042dca99034e836365166101408301527f3d04cffd8b46a874edf5cfae63077de85f849a660426697b06a829c70dd1409c6101608301527fad676aa337a485e4728a0b240d92b3ef7b3c372d06d189322bfd5f61f1e7203e6101808301527fa2fca4a49658f9fab7aa63289c91b7c7b6c832a6d0e69334ff5b0a3483d09dab6101a08301527f4ebfd9cd7bca2505f7bef59cc1c12ecc708fff26ae4af19abe852afe9e20c8626101c08301527f2def10d13dd169f550f578bda343d9717a138562e0093b380a1120789d53cf106101e083015282518381529081018352909160009190602082018180368337505085519192506000918291508180805b6001841115611bd057611a6b6002856125ec565b9150611a78600285612600565b600114905060005b82811015611b24578a611a94826002612614565b81518110611aa457611aa4612555565b602002602001015196508a816002611abc9190612614565b611ac7906001612237565b81518110611ad757611ad7612555565b6020026020010151955086602089015285604089015287805190602001208b8281518110611b0757611b07612555565b602090810291909101015280611b1c81612584565b915050611a80565b508015611ba05789611b37600186612651565b81518110611b4757611b47612555565b60200260200101519550878360108110611b6357611b63612555565b602002015160001b945085602088015284604088015286805190602001208a8381518110611b9357611b93612555565b6020026020010181815250505b80611bac576000611baf565b60015b611bbc9060ff1683612237565b935082611bc881612584565b935050611a57565b89600081518110611be357611be3612555565b602002602001015198505050505050505050919050565b6020808201516040808401516060850151608086015160a08701519351600096611c269695910161239d565b604051602081830303815290604052805190602001209050919050565b6001546040517f3dbb202b00000000000000000000000000000000000000000000000000000000815273ffffffffffffffffffffffffffffffffffffffff90911690633dbb202b90611c9d90869085908790600401612668565b600060405180830381600087803b158015611cb757600080fd5b505af1158015611ccb573d6000803e3d6000fd5b50505050505050565b6000808211611d4b5760405162461bcd60e51b815260206004820152603060248201527f4c69625f4d65726b6c65547265653a2043616e6e6f7420636f6d70757465206360448201527f65696c286c6f675f3229206f6620302e000000000000000000000000000000006064820152608401610277565b8160011415611d5c57506000919050565b81600060805b60018110611d9a5780611d78600180831b612651565b901b831615611d9257611d8b8183612237565b92811c9291505b60011c611d62565b506001811b8414611db357611db0600182612237565b90505b9392505050565b7f4e487b7100000000000000000000000000000000000000000000000000000000600052604160045260246000fd5b60405160c0810167ffffffffffffffff81118282101715611e0c57611e0c611dba565b60405290565b604051601f82017fffffffffffffffffffffffffffffffffffffffffffffffffffffffffffffffe016810167ffffffffffffffff81118282101715611e5957611e59611dba565b604052919050565b600067ffffffffffffffff821115611e7b57611e7b611dba565b5060051b60200190565b600082601f830112611e9657600080fd5b81356020611eab611ea683611e61565b611e12565b82815260059290921b84018101918181019086841115611eca57600080fd5b8286015b84811015611ee55780358352918301918301611ece565b509695505050505050565b600067ffffffffffffffff831115611f0a57611f0a611dba565b611f3b60207fffffffffffffffffffffffffffffffffffffffffffffffffffffffffffffffe0601f86011601611e12565b9050828152838383011115611f4f57600080fd5b828260208301376000602084830101529392505050565b600082601f830112611f7757600080fd5b611db383833560208501611ef0565b600080600060608486031215611f9b57600080fd5b833567ffffffffffffffff80821115611fb357600080fd5b611fbf87838801611e85565b9450602086013593506040860135915080821115611fdc57600080fd5b50611fe986828701611f66565b9150509250925092565b60006020828403121561200557600080fd5b813567ffffffffffffffff81111561201c57600080fd5b8201601f8101841361202d57600080fd5b61203c84823560208401611ef0565b949350505050565b600060c0828403121561205657600080fd5b61205e611de9565b905081358152602082013560208201526040820135604082015260608201356060820152608082013567ffffffffffffffff8082111561209d57600080fd5b6120a985838601611f66565b608084015260a08401359150808211156120c257600080fd5b506120cf84828501611f66565b60a08301525092915050565b6000602082840312156120ed57600080fd5b813567ffffffffffffffff81111561210457600080fd5b61203c84828501612044565b60008060006060848603121561212557600080fd5b83359250602084013567ffffffffffffffff8082111561214457600080fd5b61215087838801612044565b9350604086013591508082111561216657600080fd5b908501906040828803121561217a57600080fd5b60405160408101818110838211171561219557612195611dba565b604052823581526020830135828111156121ae57600080fd5b6121ba89828601611e85565b6020830152508093505050509250925092565b6000602082840312156121df57600080fd5b81518015158114611db357600080fd5b60006020828403121561220157600080fd5b5051919050565b7f4e487b7100000000000000000000000000000000000000000000000000000000600052601160045260246000fd5b6000821982111561224a5761224a612208565b500190565b6000815180845260005b8181101561227557602081850181015186830182015201612259565b81811115612287576000602083870101525b50601f017fffffffffffffffffffffffffffffffffffffffffffffffffffffffffffffffe0169290920160200192915050565b602081526000611db3602083018461224f565b73ffffffffffffffffffffffffffffffffffffffff8116811461087a57600080fd5b60006020828403121561230157600080fd5b8151611db3816122cd565b6000806040838503121561231f57600080fd5b825191506020830151612331816122cd565b809150509250929050565b604080825283519082018190526000906020906060840190828701845b8281101561237557815184529284019290840190600101612359565b50505092019290925292915050565b82815260406020820152600061203c604083018461224f565b85815284602082015283604082015260a0606082015260006123c260a083018561224f565b82810360808401526123d4818561224f565b98975050505050505050565b600060208083850312156123f357600080fd5b825167ffffffffffffffff81111561240a57600080fd5b8301601f8101851361241b57600080fd5b8051612429611ea682611e61565b81815260059190911b8201830190838101908783111561244857600080fd5b928401925b8284101561246f578351612460816122cd565b8252928401929084019061244d565b979650505050505050565b600081518084526020808501945080840160005b838110156124c057815173ffffffffffffffffffffffffffffffffffffffff168752958201959082019060010161248e565b509495945050505050565b8481528360208201528260408201526080606082015260006124f0608083018461247a565b9695505050505050565b82815260406020820152600061203c604083018461247a565b60006020828403121561252557600080fd5b81517fffffffffffffffffffffffffffffffffffffffffffffffffffffff000000000081168114611db357600080fd5b7f4e487b7100000000000000000000000000000000000000000000000000000000600052603260045260246000fd5b60007fffffffffffffffffffffffffffffffffffffffffffffffffffffffffffffffff8214156125b6576125b6612208565b5060010190565b7f4e487b7100000000000000000000000000000000000000000000000000000000600052601260045260246000fd5b6000826125fb576125fb6125bd565b500490565b60008261260f5761260f6125bd565b500690565b6000817fffffffffffffffffffffffffffffffffffffffffffffffffffffffffffffffff048311821515161561264c5761264c612208565b500290565b60008282101561266357612663612208565b500390565b73ffffffffffffffffffffffffffffffffffffffff84168152606060208201526000612697606083018561224f565b905063ffffffff8316604083015294935050505056fe436861696e53746f72616765436f6e7461696e65722d5343432d62617463686573a264697066735822122019c0f5f0e396d6ecdb407843492f6d8504e1e6abd059134399a0df238192081564736f6c63430008090033",
  "linkReferences": {},
  "deployedLinkReferences": {}
}