{
  "_format": "hh-sol-artifact-1",
  "contractName": "BlockFinalizationVerifier",
  "sourceName": "contracts/L1/fraud-proof/verifier/subverifiers/BlockFinalizationVerifier.sol",
  "abi": [
    {
      "inputs": [
        {
          "components": [
            {
              "internalType": "address",
              "name": "coinbase",
              "type": "address"
            },
            {
              "internalType": "uint256",
              "name": "timestamp",
              "type": "uint256"
            },
            {
              "internalType": "uint256",
              "name": "number",
              "type": "uint256"
            },
            {
              "internalType": "address",
              "name": "origin",
              "type": "address"
            },
            {
              "components": [
                {
                  "internalType": "uint64",
                  "name": "nonce",
                  "type": "uint64"
                },
                {
                  "internalType": "uint256",
                  "name": "gasPrice",
                  "type": "uint256"
                },
                {
                  "internalType": "uint64",
                  "name": "gas",
                  "type": "uint64"
                },
                {
                  "internalType": "address",
                  "name": "to",
                  "type": "address"
                },
                {
                  "internalType": "uint256",
                  "name": "value",
                  "type": "uint256"
                },
                {
                  "internalType": "bytes",
                  "name": "data",
                  "type": "bytes"
                },
                {
                  "internalType": "uint256",
                  "name": "v",
                  "type": "uint256"
                },
                {
                  "internalType": "uint256",
                  "name": "r",
                  "type": "uint256"
                },
                {
                  "internalType": "uint256",
                  "name": "s",
                  "type": "uint256"
                }
              ],
              "internalType": "struct EVMTypesLib.Transaction",
              "name": "transaction",
              "type": "tuple"
            },
            {
              "internalType": "bytes32",
              "name": "inputRoot",
              "type": "bytes32"
            },
            {
              "internalType": "bytes32",
              "name": "txHash",
              "type": "bytes32"
            }
          ],
          "internalType": "struct VerificationContext.Context",
          "name": "ctx",
          "type": "tuple"
        },
        {
          "internalType": "bytes32",
          "name": "currStateHash",
          "type": "bytes32"
        },
        {
          "internalType": "bytes",
          "name": "encoded",
          "type": "bytes"
        }
      ],
      "name": "executeOneStepProof",
      "outputs": [
        {
          "components": [
            {
              "internalType": "uint64",
              "name": "blockNumber",
              "type": "uint64"
            },
            {
              "internalType": "bytes32",
              "name": "globalStateRoot",
              "type": "bytes32"
            },
            {
              "internalType": "uint256",
              "name": "cumulativeGasUsed",
              "type": "uint256"
            },
            {
              "internalType": "bytes32",
              "name": "blockHashRoot",
              "type": "bytes32"
            }
          ],
          "internalType": "struct OneStepProof.BlockStateProof",
          "name": "endState",
          "type": "tuple"
        }
      ],
      "stateMutability": "pure",
      "type": "function"
    },
    {
      "inputs": [
        {
          "components": [
            {
              "internalType": "address",
              "name": "coinbase",
              "type": "address"
            },
            {
              "internalType": "uint256",
              "name": "timestamp",
              "type": "uint256"
            },
            {
              "internalType": "uint256",
              "name": "number",
              "type": "uint256"
            },
            {
              "internalType": "address",
              "name": "origin",
              "type": "address"
            },
            {
              "components": [
                {
                  "internalType": "uint64",
                  "name": "nonce",
                  "type": "uint64"
                },
                {
                  "internalType": "uint256",
                  "name": "gasPrice",
                  "type": "uint256"
                },
                {
                  "internalType": "uint64",
                  "name": "gas",
                  "type": "uint64"
                },
                {
                  "internalType": "address",
                  "name": "to",
                  "type": "address"
                },
                {
                  "internalType": "uint256",
                  "name": "value",
                  "type": "uint256"
                },
                {
                  "internalType": "bytes",
                  "name": "data",
                  "type": "bytes"
                },
                {
                  "internalType": "uint256",
                  "name": "v",
                  "type": "uint256"
                },
                {
                  "internalType": "uint256",
                  "name": "r",
                  "type": "uint256"
                },
                {
                  "internalType": "uint256",
                  "name": "s",
                  "type": "uint256"
                }
              ],
              "internalType": "struct EVMTypesLib.Transaction",
              "name": "transaction",
              "type": "tuple"
            },
            {
              "internalType": "bytes32",
              "name": "inputRoot",
              "type": "bytes32"
            },
            {
              "internalType": "bytes32",
              "name": "txHash",
              "type": "bytes32"
            }
          ],
          "internalType": "struct VerificationContext.Context",
          "name": "ctx",
          "type": "tuple"
        },
        {
          "internalType": "bytes32",
          "name": "currStateHash",
          "type": "bytes32"
        },
        {
          "internalType": "bytes",
          "name": "encoded",
          "type": "bytes"
        }
      ],
      "name": "verifyOneStepProof",
      "outputs": [
        {
          "internalType": "bytes32",
          "name": "",
          "type": "bytes32"
        }
      ],
      "stateMutability": "pure",
      "type": "function"
    }
  ],
  "bytecode": "0x608060405234801561001057600080fd5b50611f2e806100206000396000f3fe608060405234801561001057600080fd5b50600436106100365760003560e01c80632138b3e41461003b57806389c3ad0f14610061575b600080fd5b61004e610049366004611a8a565b6100b0565b6040519081526020015b60405180910390f35b61007461006f366004611a8a565b6100cf565b604051610058919081516001600160401b0316815260208083015190820152604080830151908201526060918201519181019190915260800190565b60006100c66100c1868686866100cf565b6101e5565b95945050505050565b6040805160808101825260008082526020820181905291810182905260608101829052906100fb61179f565b6101068585846101fe565b60405191935091506000908587823783902090508681146101605760405162461bcd60e51b815260206004820152600f60248201526e2130b21029ba30ba3290283937b7b360891b60448201526064015b60405180910390fd5b6000610183848888600187600001516101799190611b89565b8760a00151610424565b909450905060006101958a8386610606565b90506101ad85898987600001518860a00151866106cb565b60608089019190915285516001600160401b0316885260408087015160208a0152950151948701949094525050505050949350505050565b60006101f0826109a6565b805190602001209050919050565b600061020861179f565b6101d061021e6001600160401b03851686611bb1565b101561026c5760405162461bcd60e51b815260206004820152601760248201527f50726f6f6620556e646572666c6f772028496e746572290000000000000000006044820152606401610157565b6102b8836001600160401b031686868080601f0160208091040260200160405190810160405280939291908181526020018383808284376000920191909152509293925050610a449050565b6001600160401b031681526103196102d1846008611bc8565b6001600160401b031686868080601f0160208091040260200160405190810160405280939291908181526020018383808284376000920191909152509293925050610a449050565b6001600160401b0316602082015261037d610335846010611bc8565b6001600160401b031686868080601f0160208091040260200160405190810160405280939291908181526020018383808284376000920191909152509293925050610aa19050565b60408201526103906102d1846030611bc8565b6001600160401b031660608201526103ac6102d1846050611bc8565b6001600160401b031660808201526103c8610335846070611bc8565b60a08201526103db610335846090611bc8565b60c08201526103ee6103358460b0611bc8565b60e082015261040885856104038660d0611bc8565b610aff565b61010082015261041a836101d0611bc8565b9150935093915050565b6040805160208101909152600080825290819061044287878a610bad565b604080518082019091526000815260606020820152919950915061049d88888080601f0160208091040260200160405190810160405280939291908181526020018383808284376000920191909152508d9250610c4a915050565b83518151929b50909250906000805b8460200151518160ff1610156105a4576001808416141561052c578385602001518260ff16815181106104e1576104e1611bf3565b6020026020010151604051602001610503929190918252602082015260400190565b6040516020818303038152906040528051906020012093508060ff166001901b82179150610581565b84602001518160ff168151811061054557610545611bf3565b602002602001015184604051602001610568929190918252602082015260400190565b6040516020818303038152906040528051906020012093505b6001836001600160401b0316901c9250808061059c90611c09565b9150506104ac565b508783146105c45760405162461bcd60e51b815260040161015790611c29565b886001600160401b0316816001600160401b0316146105f55760405162461bcd60e51b815260040161015790611c29565b505091519899975050505050505050565b60006106106117f2565b8381527f1dcc4de8dec75d7aab85b567b6ccd41ad312451b948a7413f0a142fd40d49347602082015284516001600160a01b0316604082810191909152830151606082015260c0830151608082015260e083015160a0820152600160c082015282516001600160401b031660e08201526304c4b4006001600160401b0390811661010083015260808401511661012082015260208501516001600160401b03166101408201526101008301516101608201526100c681610df3565b604080516020810190915260008082529081906106e988888b610bad565b604080518082019091526000815260606020820152919a50915061074489898080601f0160208091040260200160405190810160405280939291908181526020018383808284376000920191909152508e9250610c4a915050565b83518151929c50909250906000805b8460200151518160ff16101561084b57600180841614156107d3578385602001518260ff168151811061078857610788611bf3565b60200260200101516040516020016107aa929190918252602082015260400190565b6040516020818303038152906040528051906020012093508060ff166001901b82179150610828565b84602001518160ff16815181106107ec576107ec611bf3565b60200260200101518460405160200161080f929190918252602082015260400190565b6040516020818303038152906040528051906020012093505b6001836001600160401b0316901c9250808061084390611c09565b915050610753565b5088831461086b5760405162461bcd60e51b815260040161015790611c29565b896001600160401b0316816001600160401b03161461089c5760405162461bcd60e51b815260040161015790611c29565b8351889350915060005b8460200151518160ff161015610992576001808416141561091a578385602001518260ff16815181106108db576108db611bf3565b60200260200101516040516020016108fd929190918252602082015260400190565b60405160208183030381529060405280519060200120935061096f565b84602001518160ff168151811061093357610933611bf3565b602002602001015184604051602001610956929190918252602082015260400190565b6040516020818303038152906040528051906020012093505b6001836001600160401b0316901c9250808061098a90611c09565b9150506108a6565b509b9c919b50909950505050505050505050565b60606109ea82600001516040516020016109d3919060c09190911b6001600160c01b031916815260080190565b60408051601f19818403018152919052829061116c565b9050610a0682602001516040516020016109d391815260200190565b9050610a2282604001516040516020016109d391815260200190565b9050610a3e82606001516040516020016109d391815260200190565b92915050565b6000610a51826008611c55565b83511015610a985760405162461bcd60e51b8152602060048201526014602482015273746f55696e7436345f6f75744f66426f756e647360601b6044820152606401610157565b50016008015190565b6000610aae826020611c55565b83511015610af65760405162461bcd60e51b8152602060048201526015602482015274746f427974657333325f6f75744f66426f756e647360581b6044820152606401610157565b50016020015190565b610b07611854565b610b0f611854565b60005b6008811015610ba457610b67846001600160401b031687878080601f0160208091040260200160405190810160405280939291908181526020018383808284376000920191909152509293925050610aa19050565b82518260088110610b7a57610b7a611bf3565b602002018181525050602084610b909190611bc8565b935080610b9c81611c6d565b915050610b12565b50949350505050565b60408051602081019091526000808252906020610bd36001600160401b03851686611bb1565b1015610bf15760405162461bcd60e51b815260040161015790611c88565b610c3d836001600160401b031686868080601f0160208091040260200160405190810160405280939291908181526020018383808284376000920191909152509293925050610aa19050565b815261041a836020611bc8565b60408051808201909152600080825260606020830152906009836001600160401b03168551610c799190611bb1565b1015610c975760405162461bcd60e51b815260040161015790611c88565b610caa846001600160401b038516610a44565b6001600160401b031681526000610cd5610cc5856008611bc8565b86906001600160401b03166111e9565b9050610ce2600985611bc8565b9350610cef816020611cb1565b60ff16846001600160401b03168651610d089190611bb1565b1015610d265760405162461bcd60e51b815260040161015790611c88565b8060ff166001600160401b03811115610d4157610d4161187a565b604051908082528060200260200182016040528015610d6a578160200160208202803683370190505b50602083015260005b8160ff16816001600160401b03161015610de657610d9a866001600160401b038716610aa1565b8360200151826001600160401b031681518110610db957610db9611bf3565b602002602001018181525050602085610dd29190611bc8565b945080610dde81611cda565b915050610d73565b50839250505b9250929050565b60408051600f8082526102008201909252600091829190816020015b6060815260200190600190039081610e0f579050509050610e548360000151604051602001610e4091815260200190565b604051602081830303815290604052611245565b81600081518110610e6757610e67611bf3565b6020026020010181905250610e8c8360200151604051602001610e4091815260200190565b81600181518110610e9f57610e9f611bf3565b6020026020010181905250610eb783604001516112b4565b81600281518110610eca57610eca611bf3565b6020026020010181905250610eef8360600151604051602001610e4091815260200190565b81600381518110610f0257610f02611bf3565b6020026020010181905250610f278360800151604051602001610e4091815260200190565b81600481518110610f3a57610f3a611bf3565b6020026020010181905250610f5f8360a00151604051602001610e4091815260200190565b81600581518110610f7257610f72611bf3565b6020026020010181905250610f9a83610160015160000151604051602001610e409190611d01565b81600681518110610fad57610fad611bf3565b6020026020010181905250610fc58360c001516112dd565b81600781518110610fd857610fd8611bf3565b6020026020010181905250610ff08360e001516112dd565b8160088151811061100357611003611bf3565b60200260200101819052506110258361010001516001600160401b03166112dd565b8160098151811061103857611038611bf3565b602002602001018190525061105a8361012001516001600160401b03166112dd565b81600a8151811061106d5761106d611bf3565b602002602001018190525061108f8361014001516001600160401b03166112dd565b81600b815181106110a2576110a2611bf3565b60200260200101819052506110c560405180602001604052806000815250611245565b81600c815181106110d8576110d8611bf3565b60200260200101819052506110fc6000801b604051602001610e4091815260200190565b81600d8151811061110f5761110f611bf3565b60209081029190910181019190915260405160009181019190915261113690602801610e40565b81600e8151811061114957611149611bf3565b602002602001018190525061115d816112f0565b80519060200120915050919050565b6060806040519050835180825260208201818101602087015b8183101561119d578051835260209283019201611185565b50855184518101855292509050808201602086015b818310156111ca5780518352602092830192016111b2565b508651929092011591909101601f01601f191660405250905092915050565b60006111f6826001611c55565b8351101561123c5760405162461bcd60e51b8152602060048201526013602482015272746f55696e74385f6f75744f66426f756e647360681b6044820152606401610157565b50016001015190565b60608082516001148015611273575060808360008151811061126957611269611bf3565b016020015160f81c105b1561127f575081610a3e565b61128b83516080611334565b8360405160200161129d929190611d71565b604051602081830303815290604052905092915050565b604051606082811b6bffffffffffffffffffffffff1916602083015290610a3e90603401610e40565b6060610a3e6112eb836114e2565b611245565b606060006112fd83611613565b905061130b815160c0611334565b8160405160200161131d929190611d71565b604051602081830303815290604052915050919050565b606080603884101561139b57604080516001808252818301909252906020820181803683370190505090506113698385611d8e565b60f81b8160008151811061137f5761137f611bf3565b60200101906001600160f81b031916908160001a9053506114db565b600060015b6113aa8187611dc9565b156113d057816113b981611c6d565b92506113c9905061010082611ddd565b90506113a0565b6113db826001611c55565b6001600160401b038111156113f2576113f261187a565b6040519080825280601f01601f19166020018201604052801561141c576020820181803683370190505b5092506114298583611d8e565b611434906037611d8e565b60f81b8360008151811061144a5761144a611bf3565b60200101906001600160f81b031916908160001a905350600190505b8181116114d85761010061147a8284611bb1565b61148690610100611ed8565b6114909088611dc9565b61149a9190611ee4565b60f81b8382815181106114af576114af611bf3565b60200101906001600160f81b031916908160001a905350806114d081611c6d565b915050611466565b50505b9392505050565b60606000826040516020016114f991815260200190565b604051602081830303815290604052905060005b60208110156115535781818151811061152857611528611bf3565b01602001516001600160f81b0319161561154157611553565b8061154b81611c6d565b91505061150d565b6000611560826020611bb1565b6001600160401b038111156115775761157761187a565b6040519080825280601f01601f1916602001820160405280156115a1576020820181803683370190505b50905060005b8151811015610ba45783836115bb81611c6d565b9450815181106115cd576115cd611bf3565b602001015160f81c60f81b8282815181106115ea576115ea611bf3565b60200101906001600160f81b031916908160001a9053508061160b81611c6d565b9150506115a7565b606081516000141561163357505060408051600081526020810190915290565b6000805b835181101561167a5783818151811061165257611652611bf3565b602002602001015151826116669190611c55565b91508061167281611c6d565b915050611637565b6000826001600160401b038111156116945761169461187a565b6040519080825280601f01601f1916602001820160405280156116be576020820181803683370190505b50600092509050602081015b8551831015610ba45760008684815181106116e7576116e7611bf3565b60200260200101519050600060208201905061170583828451611742565b87858151811061171757611717611bf3565b6020026020010151518361172b9190611c55565b92505050828061173a90611c6d565b9350506116ca565b8282825b6020811061177e578151835261175d602084611c55565b925061176a602083611c55565b9150611777602082611bb1565b9050611746565b905182516020929092036101000a6000190180199091169116179052505050565b6040805161012081018252600080825260208201819052918101829052606081018290526080810182905260a0810182905260c0810182905260e081019190915261010081016117ed611854565b905290565b6040805161018081018252600080825260208201819052918101829052606081018290526080810182905260a0810182905260c0810182905260e081018290526101008101829052610120810182905261014081019190915261016081016117ed5b604080516101208101909152806117ed6020820160088161010080368337509192915050565b634e487b7160e01b600052604160045260246000fd5b60405161012081016001600160401b03811182821017156118b3576118b361187a565b60405290565b60405160e081016001600160401b03811182821017156118b3576118b361187a565b80356001600160a01b03811681146118f257600080fd5b919050565b80356001600160401b03811681146118f257600080fd5b600082601f83011261191f57600080fd5b81356001600160401b03808211156119395761193961187a565b604051601f8301601f19908116603f011681019082821181831017156119615761196161187a565b8160405283815286602085880101111561197a57600080fd5b836020870160208301376000602085830101528094505050505092915050565b600061012082840312156119ad57600080fd5b6119b5611890565b90506119c0826118f7565b8152602082013560208201526119d8604083016118f7565b60408201526119e9606083016118db565b60608201526080820135608082015260a08201356001600160401b03811115611a1157600080fd5b611a1d8482850161190e565b60a08301525060c082013560c082015260e082013560e082015261010080830135818301525092915050565b60008083601f840112611a5b57600080fd5b5081356001600160401b03811115611a7257600080fd5b602083019150836020828501011115610dec57600080fd5b60008060008060608587031215611aa057600080fd5b84356001600160401b0380821115611ab757600080fd5b9086019060e08289031215611acb57600080fd5b611ad36118b9565b611adc836118db565b81526020830135602082015260408301356040820152611afe606084016118db565b6060820152608083013582811115611b1557600080fd5b611b218a82860161199a565b60808301525060a083013560a082015260c083013560c082015280965050602087013594506040870135915080821115611b5a57600080fd5b50611b6787828801611a49565b95989497509550505050565b634e487b7160e01b600052601160045260246000fd5b60006001600160401b0383811690831681811015611ba957611ba9611b73565b039392505050565b600082821015611bc357611bc3611b73565b500390565b60006001600160401b03808316818516808303821115611bea57611bea611b73565b01949350505050565b634e487b7160e01b600052603260045260246000fd5b600060ff821660ff811415611c2057611c20611b73565b60010192915050565b6020808252601290820152712130b210213637b1b5a430b9b4283937b7b360711b604082015260600190565b60008219821115611c6857611c68611b73565b500190565b6000600019821415611c8157611c81611b73565b5060010190565b6020808252600f908201526e50726f6f6620556e646572666c6f7760881b604082015260600190565b600060ff821660ff84168160ff0481118215151615611cd257611cd2611b73565b029392505050565b60006001600160401b0380831681811415611cf757611cf7611b73565b6001019392505050565b60008183825b6008811015611d26578151835260209283019290910190600101611d07565b5050506101008201905092915050565b6000815160005b81811015611d575760208185018101518683015201611d3d565b81811115611d66576000828601525b509290920192915050565b6000611d86611d808386611d36565b84611d36565b949350505050565b600060ff821660ff84168060ff03821115611dab57611dab611b73565b019392505050565b634e487b7160e01b600052601260045260246000fd5b600082611dd857611dd8611db3565b500490565b6000816000190483118215151615611df757611df7611b73565b500290565b600181815b80851115611e37578160001904821115611e1d57611e1d611b73565b80851615611e2a57918102915b93841c9390800290611e01565b509250929050565b600082611e4e57506001610a3e565b81611e5b57506000610a3e565b8160018114611e715760028114611e7b57611e97565b6001915050610a3e565b60ff841115611e8c57611e8c611b73565b50506001821b610a3e565b5060208310610133831016604e8410600b8410161715611eba575081810a610a3e565b611ec48383611dfc565b8060001904821115611cd257611cd2611b73565b60006114db8383611e3f565b600082611ef357611ef3611db3565b50069056fea264697066735822122079ee9bcb4bf0c2b2931c784e3398baa4c789e4012e0011b3b1d5ebf11743463f64736f6c63430008090033",
  "linkReferences": {},
  "deployedLinkReferences": {}
}