{
  "_format": "hh-sol-artifact-1",
  "contractName": "CanonicalTransactionChain",
  "sourceName": "contracts/L1/rollup/CanonicalTransactionChain.sol",
  "abi": [
    {
      "inputs": [
        {
          "internalType": "address",
          "name": "_libAddressManager",
          "type": "address"
        },
        {
          "internalType": "uint256",
          "name": "_maxTransactionGasLimit",
          "type": "uint256"
        },
        {
          "internalType": "uint256",
          "name": "_l2GasDiscountDivisor",
          "type": "uint256"
        },
        {
          "internalType": "uint256",
          "name": "_enqueueGasCost",
          "type": "uint256"
        }
      ],
      "stateMutability": "nonpayable",
      "type": "constructor"
    },
    {
      "anonymous": false,
      "inputs": [
        {
          "indexed": false,
          "internalType": "uint256",
          "name": "l2GasDiscountDivisor",
          "type": "uint256"
        },
        {
          "indexed": false,
          "internalType": "uint256",
          "name": "enqueueGasCost",
          "type": "uint256"
        },
        {
          "indexed": false,
          "internalType": "uint256",
          "name": "enqueueL2GasPrepaid",
          "type": "uint256"
        }
      ],
      "name": "L2GasParamsUpdated",
      "type": "event"
    },
    {
      "anonymous": false,
      "inputs": [
        {
          "indexed": false,
          "internalType": "uint256",
          "name": "_startingQueueIndex",
          "type": "uint256"
        },
        {
          "indexed": false,
          "internalType": "uint256",
          "name": "_numQueueElements",
          "type": "uint256"
        },
        {
          "indexed": false,
          "internalType": "uint256",
          "name": "_totalElements",
          "type": "uint256"
        }
      ],
      "name": "QueueBatchAppended",
      "type": "event"
    },
    {
      "anonymous": false,
      "inputs": [
        {
          "indexed": false,
          "internalType": "uint256",
          "name": "_startingQueueIndex",
          "type": "uint256"
        },
        {
          "indexed": false,
          "internalType": "uint256",
          "name": "_numQueueElements",
          "type": "uint256"
        },
        {
          "indexed": false,
          "internalType": "uint256",
          "name": "_totalElements",
          "type": "uint256"
        }
      ],
      "name": "SequencerBatchAppended",
      "type": "event"
    },
    {
      "anonymous": false,
      "inputs": [
        {
          "indexed": true,
          "internalType": "uint256",
          "name": "_batchIndex",
          "type": "uint256"
        },
        {
          "indexed": false,
          "internalType": "bytes32",
          "name": "_batchRoot",
          "type": "bytes32"
        },
        {
          "indexed": false,
          "internalType": "uint256",
          "name": "_batchSize",
          "type": "uint256"
        },
        {
          "indexed": false,
          "internalType": "uint256",
          "name": "_prevTotalElements",
          "type": "uint256"
        },
        {
          "indexed": false,
          "internalType": "bytes",
          "name": "_signature",
          "type": "bytes"
        },
        {
          "indexed": false,
          "internalType": "bytes",
          "name": "_extraData",
          "type": "bytes"
        }
      ],
      "name": "TransactionBatchAppended",
      "type": "event"
    },
    {
      "anonymous": false,
      "inputs": [
        {
          "indexed": true,
          "internalType": "address",
          "name": "_l1TxOrigin",
          "type": "address"
        },
        {
          "indexed": true,
          "internalType": "address",
          "name": "_target",
          "type": "address"
        },
        {
          "indexed": false,
          "internalType": "uint256",
          "name": "_gasLimit",
          "type": "uint256"
        },
        {
          "indexed": false,
          "internalType": "bytes",
          "name": "_data",
          "type": "bytes"
        },
        {
          "indexed": true,
          "internalType": "uint256",
          "name": "_queueIndex",
          "type": "uint256"
        },
        {
          "indexed": false,
          "internalType": "uint256",
          "name": "_timestamp",
          "type": "uint256"
        }
      ],
      "name": "TransactionEnqueued",
      "type": "event"
    },
    {
      "inputs": [],
      "name": "MAX_ROLLUP_TX_SIZE",
      "outputs": [
        {
          "internalType": "uint256",
          "name": "",
          "type": "uint256"
        }
      ],
      "stateMutability": "view",
      "type": "function"
    },
    {
      "inputs": [],
      "name": "MIN_ROLLUP_TX_GAS",
      "outputs": [
        {
          "internalType": "uint256",
          "name": "",
          "type": "uint256"
        }
      ],
      "stateMutability": "view",
      "type": "function"
    },
    {
      "inputs": [],
      "name": "appendSequencerBatch",
      "outputs": [],
      "stateMutability": "nonpayable",
      "type": "function"
    },
    {
      "inputs": [],
      "name": "batches",
      "outputs": [
        {
          "internalType": "contract IChainStorageContainer",
          "name": "",
          "type": "address"
        }
      ],
      "stateMutability": "view",
      "type": "function"
    },
    {
      "inputs": [
        {
          "internalType": "address",
          "name": "_target",
          "type": "address"
        },
        {
          "internalType": "uint256",
          "name": "_gasLimit",
          "type": "uint256"
        },
        {
          "internalType": "bytes",
          "name": "_data",
          "type": "bytes"
        }
      ],
      "name": "enqueue",
      "outputs": [],
      "stateMutability": "nonpayable",
      "type": "function"
    },
    {
      "inputs": [],
      "name": "enqueueGasCost",
      "outputs": [
        {
          "internalType": "uint256",
          "name": "",
          "type": "uint256"
        }
      ],
      "stateMutability": "view",
      "type": "function"
    },
    {
      "inputs": [],
      "name": "enqueueL2GasPrepaid",
      "outputs": [
        {
          "internalType": "uint256",
          "name": "",
          "type": "uint256"
        }
      ],
      "stateMutability": "view",
      "type": "function"
    },
    {
      "inputs": [],
      "name": "getLastBlockNumber",
      "outputs": [
        {
          "internalType": "uint40",
          "name": "",
          "type": "uint40"
        }
      ],
      "stateMutability": "view",
      "type": "function"
    },
    {
      "inputs": [],
      "name": "getLastTimestamp",
      "outputs": [
        {
          "internalType": "uint40",
          "name": "",
          "type": "uint40"
        }
      ],
      "stateMutability": "view",
      "type": "function"
    },
    {
      "inputs": [],
      "name": "getNextQueueIndex",
      "outputs": [
        {
          "internalType": "uint40",
          "name": "",
          "type": "uint40"
        }
      ],
      "stateMutability": "view",
      "type": "function"
    },
    {
      "inputs": [],
      "name": "getNumPendingQueueElements",
      "outputs": [
        {
          "internalType": "uint40",
          "name": "",
          "type": "uint40"
        }
      ],
      "stateMutability": "view",
      "type": "function"
    },
    {
      "inputs": [
        {
          "internalType": "uint256",
          "name": "_index",
          "type": "uint256"
        }
      ],
      "name": "getQueueElement",
      "outputs": [
        {
          "components": [
            {
              "internalType": "bytes32",
              "name": "transactionHash",
              "type": "bytes32"
            },
            {
              "internalType": "uint40",
              "name": "timestamp",
              "type": "uint40"
            },
            {
              "internalType": "uint40",
              "name": "blockNumber",
              "type": "uint40"
            }
          ],
          "internalType": "struct Lib_BVMCodec.QueueElement",
          "name": "_element",
          "type": "tuple"
        }
      ],
      "stateMutability": "view",
      "type": "function"
    },
    {
      "inputs": [],
      "name": "getQueueLength",
      "outputs": [
        {
          "internalType": "uint40",
          "name": "",
          "type": "uint40"
        }
      ],
      "stateMutability": "view",
      "type": "function"
    },
    {
      "inputs": [],
      "name": "getTotalBatches",
      "outputs": [
        {
          "internalType": "uint256",
          "name": "_totalBatches",
          "type": "uint256"
        }
      ],
      "stateMutability": "view",
      "type": "function"
    },
    {
      "inputs": [],
      "name": "getTotalElements",
      "outputs": [
        {
          "internalType": "uint256",
          "name": "_totalElements",
          "type": "uint256"
        }
      ],
      "stateMutability": "view",
      "type": "function"
    },
    {
      "inputs": [],
      "name": "l2GasDiscountDivisor",
      "outputs": [
        {
          "internalType": "uint256",
          "name": "",
          "type": "uint256"
        }
      ],
      "stateMutability": "view",
      "type": "function"
    },
    {
      "inputs": [],
      "name": "libAddressManager",
      "outputs": [
        {
          "internalType": "contract Lib_AddressManager",
          "name": "",
          "type": "address"
        }
      ],
      "stateMutability": "view",
      "type": "function"
    },
    {
      "inputs": [],
      "name": "maxTransactionGasLimit",
      "outputs": [
        {
          "internalType": "uint256",
          "name": "",
          "type": "uint256"
        }
      ],
      "stateMutability": "view",
      "type": "function"
    },
    {
      "inputs": [
        {
          "internalType": "string",
          "name": "_name",
          "type": "string"
        }
      ],
      "name": "resolve",
      "outputs": [
        {
          "internalType": "address",
          "name": "",
          "type": "address"
        }
      ],
      "stateMutability": "view",
      "type": "function"
    },
    {
      "inputs": [
        {
          "internalType": "uint256",
          "name": "_l2GasDiscountDivisor",
          "type": "uint256"
        },
        {
          "internalType": "uint256",
          "name": "_enqueueGasCost",
          "type": "uint256"
        }
      ],
      "name": "setGasParams",
      "outputs": [],
      "stateMutability": "nonpayable",
      "type": "function"
    }
  ],
  "bytecode": "0x608060405234801561001057600080fd5b5060405162001ad438038062001ad483398101604081905261003191610072565b600080546001600160a01b0319166001600160a01b03861617905560048390556002829055600181905561006581836100bd565b600355506100ea92505050565b6000806000806080858703121561008857600080fd5b84516001600160a01b038116811461009f57600080fd5b60208601516040870151606090970151919890975090945092505050565b60008160001904831182151516156100e557634e487b7160e01b600052601160045260246000fd5b500290565b6119da80620000fa6000396000f3fe608060405234801561001057600080fd5b506004361061016c5760003560e01c8063876ed5cb116100cd578063d0f8934411610081578063e654b1fb11610066578063e654b1fb146102c0578063edcc4a45146102c9578063f722b41a146102dc57600080fd5b8063d0f89344146102b0578063e561dddc146102b857600080fd5b8063b8f77005116100b2578063b8f7700514610297578063ccf987c81461029f578063cfdf677e146102a857600080fd5b8063876ed5cb146102855780638d38c6c11461028e57600080fd5b80635ae6256d1161012457806378f4b2f21161010957806378f4b2f2146102645780637a167a8a1461026e5780637aa63a861461027d57600080fd5b80635ae6256d146102475780636fee07e01461024f57600080fd5b80632a7f18be116101555780632a7f18be146101d25780633789977014610216578063461a44781461023457600080fd5b80630b3dfa9714610171578063299ca4781461018d575b600080fd5b61017a60035481565b6040519081526020015b60405180910390f35b6000546101ad9073ffffffffffffffffffffffffffffffffffffffff1681565b60405173ffffffffffffffffffffffffffffffffffffffff9091168152602001610184565b6101e56101e0366004611403565b6102e4565b604080518251815260208084015164ffffffffff908116918301919091529282015190921690820152606001610184565b61021e610362565b60405164ffffffffff9091168152602001610184565b6101ad6102423660046114df565b610376565b61021e610423565b61026261025d366004611555565b610437565b005b61017a620186a081565b60055464ffffffffff1661021e565b61017a610899565b61017a61c35081565b61017a60045481565b60065461021e565b61017a60025481565b6101ad6108b4565b6102626108dc565b61017a610df8565b61017a60015481565b6102626102d73660046115c2565b610e7f565b61021e611016565b604080516060810182526000808252602082018190529181019190915260068281548110610314576103146115e4565b6000918252602091829020604080516060810182526002909302909101805483526001015464ffffffffff808216948401949094526501000000000090049092169181019190915292915050565b60008061036d611032565b50949350505050565b600080546040517fbf40fac100000000000000000000000000000000000000000000000000000000815273ffffffffffffffffffffffffffffffffffffffff9091169063bf40fac1906103cd90859060040161167e565b60206040518083038186803b1580156103e557600080fd5b505afa1580156103f9573d6000803e3d6000fd5b505050506040513d601f19601f8201168201806040525081019061041d9190611698565b92915050565b60008061042e611032565b95945050505050565b61c350815111156104cf576040517f08c379a000000000000000000000000000000000000000000000000000000000815260206004820152603d60248201527f5472616e73616374696f6e20646174612073697a652065786365656473206d6160448201527f78696d756d20666f7220726f6c6c7570207472616e73616374696f6e2e00000060648201526084015b60405180910390fd5b600454821115610561576040517f08c379a000000000000000000000000000000000000000000000000000000000815260206004820152603d60248201527f5472616e73616374696f6e20676173206c696d69742065786365656473206d6160448201527f78696d756d20666f7220726f6c6c7570207472616e73616374696f6e2e00000060648201526084016104c6565b620186a08210156105f4576040517f08c379a000000000000000000000000000000000000000000000000000000000815260206004820152602960248201527f5472616e73616374696f6e20676173206c696d697420746f6f206c6f7720746f60448201527f20656e71756575652e000000000000000000000000000000000000000000000060648201526084016104c6565b6003548211156106dc5760006002546003548461061191906116e4565b61061b91906116fb565b905060005a90508181116106b1576040517f08c379a000000000000000000000000000000000000000000000000000000000815260206004820152602b60248201527f496e73756666696369656e742067617320666f72204c322072617465206c696d60448201527f6974696e67206275726e2e00000000000000000000000000000000000000000060648201526084016104c6565b60005b825a6106c090846116e4565b10156106d857806106d081611736565b9150506106b4565b5050505b6000333214156106ed575033610706565b5033731111000000000000000000000000000000001111015b60008185858560405160200161071f949392919061176f565b604080517fffffffffffffffffffffffffffffffffffffffffffffffffffffffffffffffe0818403018152828252805160209182012060608401835280845264ffffffffff42811692850192835243811693850193845260068054600181810183556000838152975160029092027ff652222313e28459528d920b65115c16c04f3efc82aaedc97be59f3f377c0d3f81019290925594517ff652222313e28459528d920b65115c16c04f3efc82aaedc97be59f3f377c0d4090910180549651841665010000000000027fffffffffffffffffffffffffffffffffffffffffffff0000000000000000000090971691909316179490941790559154919350610825916116e4565b9050808673ffffffffffffffffffffffffffffffffffffffff168473ffffffffffffffffffffffffffffffffffffffff167f4b388aecf9fa6cc92253704e5975a6129a4f735bdbd99567df4ed0094ee4ceb5888842604051610889939291906117b8565b60405180910390a4505050505050565b6000806108a4611032565b50505064ffffffffff1692915050565b60006108d760405180606001604052806021815260200161198460219139610376565b905090565b60043560d81c60093560e890811c90600c35901c6108f8610899565b8364ffffffffff161461098d576040517f08c379a000000000000000000000000000000000000000000000000000000000815260206004820152603d60248201527f41637475616c20626174636820737461727420696e64657820646f6573206e6f60448201527f74206d6174636820657870656374656420737461727420696e6465782e00000060648201526084016104c6565b6109cb6040518060400160405280600d81526020017f42564d5f53657175656e63657200000000000000000000000000000000000000815250610376565b73ffffffffffffffffffffffffffffffffffffffff163373ffffffffffffffffffffffffffffffffffffffff1614610a85576040517f08c379a000000000000000000000000000000000000000000000000000000000815260206004820152602d60248201527f46756e6374696f6e2063616e206f6e6c792062652063616c6c6564206279207460448201527f68652053657175656e6365722e0000000000000000000000000000000000000060648201526084016104c6565b6000610a9762ffffff831660106117e1565b610aa290600f61181e565b905064ffffffffff8116361015610b3b576040517f08c379a000000000000000000000000000000000000000000000000000000000815260206004820152602260248201527f4e6f7420656e6f756768204261746368436f6e74657874732070726f7669646560448201527f642e00000000000000000000000000000000000000000000000000000000000060648201526084016104c6565b6005546040805160808101825260008082526020820181905291810182905260608101829052909164ffffffffff169060005b8562ffffff168163ffffffff161015610bcc576000610b928263ffffffff166110ed565b8051909350839150610ba49086611836565b9450826020015184610bb6919061185e565b9350508080610bc49061187e565b915050610b6e565b5060065464ffffffffff83161115610c8c576040517f08c379a000000000000000000000000000000000000000000000000000000000815260206004820152604260248201527f417474656d7074656420746f20617070656e64206d6f726520656c656d656e7460448201527f73207468616e2061726520617661696c61626c6520696e20746865207175657560648201527f652e000000000000000000000000000000000000000000000000000000000000608482015260a4016104c6565b6000610c9d8462ffffff89166118a2565b63ffffffff169050600080836020015160001415610cc657505060408201516060830151610d37565b60006006610cd56001886118c7565b64ffffffffff1681548110610cec57610cec6115e4565b6000918252602091829020604080516060810182526002909302909101805483526001015464ffffffffff808216948401859052650100000000009091041691018190529093509150505b610d5b610d456001436116e4565b408a62ffffff168564ffffffffff168585611174565b7f602f1aeac0ca2e7a13e281a9ef0ad7838542712ce16780fa2ecffd351f05f899610d8684876118c7565b84610d8f610899565b6040805164ffffffffff94851681529390921660208401529082015260600160405180910390a15050600580547fffffffffffffffffffffffffffffffffffffffffffffffffffffff00000000001664ffffffffff949094169390931790925550505050505050565b6000610e026108b4565b73ffffffffffffffffffffffffffffffffffffffff16631f7b6d326040518163ffffffff1660e01b815260040160206040518083038186803b158015610e4757600080fd5b505afa158015610e5b573d6000803e3d6000fd5b505050506040513d601f19601f820116820180604052508101906108d791906118e5565b60008054906101000a900473ffffffffffffffffffffffffffffffffffffffff1673ffffffffffffffffffffffffffffffffffffffff16638da5cb5b6040518163ffffffff1660e01b815260040160206040518083038186803b158015610ee557600080fd5b505afa158015610ef9573d6000803e3d6000fd5b505050506040513d601f19601f82011682018060405250810190610f1d9190611698565b73ffffffffffffffffffffffffffffffffffffffff163373ffffffffffffffffffffffffffffffffffffffff1614610fb1576040517f08c379a000000000000000000000000000000000000000000000000000000000815260206004820181905260248201527f4f6e6c792063616c6c61626c6520627920746865204275726e2041646d696e2e60448201526064016104c6565b60018190556002829055610fc581836117e1565b60038190556002546001546040805192835260208301919091528101919091527fc6ed75e96b8b18b71edc1a6e82a9d677f8268c774a262c624eeb2cf0a8b3e07e9060600160405180910390a15050565b6005546006546000916108d79164ffffffffff909116906118c7565b60008060008060006110426108b4565b73ffffffffffffffffffffffffffffffffffffffff1663ccf8f9696040518163ffffffff1660e01b815260040160206040518083038186803b15801561108757600080fd5b505afa15801561109b573d6000803e3d6000fd5b505050506040513d601f19601f820116820180604052508101906110bf91906118fe565b64ffffffffff602882901c811697605083901c82169750607883901c8216965060a09290921c169350915050565b6111186040518060800160405280600081526020016000815260200160008152602001600081525090565b60006111256010846117e1565b61113090600f61181e565b60408051608081018252823560e890811c82526003840135901c6020820152600683013560d890811c92820192909252600b90920135901c60608201529392505050565b600061117e6108b4565b905060008061118b611032565b50509150915060006040518060c001604052808573ffffffffffffffffffffffffffffffffffffffff16631f7b6d326040518163ffffffff1660e01b815260040160206040518083038186803b1580156111e457600080fd5b505afa1580156111f8573d6000803e3d6000fd5b505050506040513d601f19601f8201168201806040525081019061121c91906118e5565b81526020018a81526020018981526020018464ffffffffff16815260200160405180602001604052806000815250815260200160405180602001604052806000815250815250905080600001517fa47512905cf577d4cfae2efc3df461008ddb7234e91ce7f4eefcdb51e1077ccf82602001518360400151846060015185608001518660a001516040516112b4959493929190611940565b60405180910390a260006112c7826113ba565b905060006113028360400151866112de919061185e565b6112e88b8761185e565b602890811b9190911760508b901b1760788a901b17901b90565b6040517f2015276c000000000000000000000000000000000000000000000000000000008152600481018490527fffffffffffffffffffffffffffffffffffffffffffffffffffffff00000000008216602482015290915073ffffffffffffffffffffffffffffffffffffffff871690632015276c90604401600060405180830381600087803b15801561139557600080fd5b505af11580156113a9573d6000803e3d6000fd5b505050505050505050505050505050565b6020808201516040808401516060850151608086015160a087015193516000966113e696959101611940565b604051602081830303815290604052805190602001209050919050565b60006020828403121561141557600080fd5b5035919050565b7f4e487b7100000000000000000000000000000000000000000000000000000000600052604160045260246000fd5b600067ffffffffffffffff808411156114665761146661141c565b604051601f85017fffffffffffffffffffffffffffffffffffffffffffffffffffffffffffffffe0908116603f011681019082821181831017156114ac576114ac61141c565b816040528093508581528686860111156114c557600080fd5b858560208301376000602087830101525050509392505050565b6000602082840312156114f157600080fd5b813567ffffffffffffffff81111561150857600080fd5b8201601f8101841361151957600080fd5b6115288482356020840161144b565b949350505050565b73ffffffffffffffffffffffffffffffffffffffff8116811461155257600080fd5b50565b60008060006060848603121561156a57600080fd5b833561157581611530565b925060208401359150604084013567ffffffffffffffff81111561159857600080fd5b8401601f810186136115a957600080fd5b6115b88682356020840161144b565b9150509250925092565b600080604083850312156115d557600080fd5b50508035926020909101359150565b7f4e487b7100000000000000000000000000000000000000000000000000000000600052603260045260246000fd5b6000815180845260005b818110156116395760208185018101518683018201520161161d565b8181111561164b576000602083870101525b50601f017fffffffffffffffffffffffffffffffffffffffffffffffffffffffffffffffe0169290920160200192915050565b6020815260006116916020830184611613565b9392505050565b6000602082840312156116aa57600080fd5b815161169181611530565b7f4e487b7100000000000000000000000000000000000000000000000000000000600052601160045260246000fd5b6000828210156116f6576116f66116b5565b500390565b600082611731577f4e487b7100000000000000000000000000000000000000000000000000000000600052601260045260246000fd5b500490565b60007fffffffffffffffffffffffffffffffffffffffffffffffffffffffffffffffff821415611768576117686116b5565b5060010190565b600073ffffffffffffffffffffffffffffffffffffffff8087168352808616602084015250836040830152608060608301526117ae6080830184611613565b9695505050505050565b8381526060602082015260006117d16060830185611613565b9050826040830152949350505050565b6000817fffffffffffffffffffffffffffffffffffffffffffffffffffffffffffffffff0483118215151615611819576118196116b5565b500290565b60008219821115611831576118316116b5565b500190565b600063ffffffff808316818516808303821115611855576118556116b5565b01949350505050565b600064ffffffffff808316818516808303821115611855576118556116b5565b600063ffffffff80831681811415611898576118986116b5565b6001019392505050565b600063ffffffff838116908316818110156118bf576118bf6116b5565b039392505050565b600064ffffffffff838116908316818110156118bf576118bf6116b5565b6000602082840312156118f757600080fd5b5051919050565b60006020828403121561191057600080fd5b81517fffffffffffffffffffffffffffffffffffffffffffffffffffffff00000000008116811461169157600080fd5b85815284602082015283604082015260a06060820152600061196560a0830185611613565b82810360808401526119778185611613565b9897505050505050505056fe436861696e53746f72616765436f6e7461696e65722d4354432d62617463686573a26469706673582212207b62cab53b3294af5970e336a94aa42e59c862f1a671bc562ac7e93b7e022b0964736f6c63430008090033",
  "linkReferences": {},
  "deployedLinkReferences": {}
}