{
  "_format": "hh-sol-artifact-1",
  "contractName": "L2StandardTokenFactory",
  "sourceName": "contracts/L2/messaging/L2StandardTokenFactory.sol",
  "abi": [
    {
      "anonymous": false,
      "inputs": [
        {
          "indexed": true,
          "internalType": "address",
          "name": "_l1Token",
          "type": "address"
        },
        {
          "indexed": true,
          "internalType": "address",
          "name": "_l2Token",
          "type": "address"
        },
        {
          "indexed": false,
          "internalType": "uint8",
          "name": "decimal",
          "type": "uint8"
        }
      ],
      "name": "StandardL2TokenCreated",
      "type": "event"
    },
    {
      "inputs": [
        {
          "internalType": "address",
          "name": "_l1Token",
          "type": "address"
        },
        {
          "internalType": "string",
          "name": "_name",
          "type": "string"
        },
        {
          "internalType": "string",
          "name": "_symbol",
          "type": "string"
        },
        {
          "internalType": "uint8",
          "name": "_decimal",
          "type": "uint8"
        }
      ],
      "name": "createStandardL2Token",
      "outputs": [],
      "stateMutability": "nonpayable",
      "type": "function"
    }
  ],
  "bytecode": "0x608060405234801561001057600080fd5b5061146d806100206000396000f3fe608060405234801561001057600080fd5b506004361061002b5760003560e01c80630769a96914610030575b600080fd5b61004361003e3660046101e4565b610045565b005b6001600160a01b03841661009f5760405162461bcd60e51b815260206004820152601d60248201527f4d7573742070726f76696465204c3120746f6b656e2061646472657373000000604482015260640160405180910390fd5b60006010602160991b01858585856040516100b990610134565b6100c79594939291906102cc565b604051809103906000f0801580156100e3573d6000803e3d6000fd5b5060405160ff841681529091506001600160a01b0380831691908716907f41e27481c6f764357db26ae29b68b9f3aafc40b87444459cbf50d338c75317329060200160405180910390a35050505050565b6111178061032183390190565b634e487b7160e01b600052604160045260246000fd5b600082601f83011261016857600080fd5b813567ffffffffffffffff8082111561018357610183610141565b604051601f8301601f19908116603f011681019082821181831017156101ab576101ab610141565b816040528381528660208588010111156101c457600080fd5b836020870160208301376000602085830101528094505050505092915050565b600080600080608085870312156101fa57600080fd5b84356001600160a01b038116811461021157600080fd5b9350602085013567ffffffffffffffff8082111561022e57600080fd5b61023a88838901610157565b9450604087013591508082111561025057600080fd5b5061025d87828801610157565b925050606085013560ff8116811461027457600080fd5b939692955090935050565b6000815180845260005b818110156102a557602081850181015186830182015201610289565b818111156102b7576000602083870101525b50601f01601f19169290920160200192915050565b6001600160a01b0386811682528516602082015260a0604082018190526000906102f89083018661027f565b828103606084015261030a818661027f565b91505060ff83166080830152969550505050505056fe60806040523480156200001157600080fd5b506040516200111738038062001117833981016040819052620000349162000247565b8251839083906200004d906003906020850190620000b7565b50805162000063906004906020840190620000b7565b5050600580546001600160a01b039687166001600160a01b0319909116179055506006805460ff909216600160a01b026001600160a81b031990921695909416949094179390931790915550620003309050565b828054620000c590620002f3565b90600052602060002090601f016020900481019282620000e9576000855562000134565b82601f106200010457805160ff191683800117855562000134565b8280016001018555821562000134579182015b828111156200013457825182559160200191906001019062000117565b506200014292915062000146565b5090565b5b8082111562000142576000815560010162000147565b80516001600160a01b03811681146200017557600080fd5b919050565b634e487b7160e01b600052604160045260246000fd5b600082601f830112620001a257600080fd5b81516001600160401b0380821115620001bf57620001bf6200017a565b604051601f8301601f19908116603f01168101908282118183101715620001ea57620001ea6200017a565b816040528381526020925086838588010111156200020757600080fd5b600091505b838210156200022b57858201830151818301840152908201906200020c565b838211156200023d5760008385830101525b9695505050505050565b600080600080600060a086880312156200026057600080fd5b6200026b866200015d565b94506200027b602087016200015d565b60408701519094506001600160401b03808211156200029957600080fd5b620002a789838a0162000190565b94506060880151915080821115620002be57600080fd5b50620002cd8882890162000190565b925050608086015160ff81168114620002e557600080fd5b809150509295509295909350565b600181811c908216806200030857607f821691505b602082108114156200032a57634e487b7160e01b600052602260045260246000fd5b50919050565b610dd780620003406000396000f3fe608060405234801561001057600080fd5b506004361061010b5760003560e01c806370a08231116100a2578063a457c2d711610071578063a457c2d714610225578063a9059cbb14610238578063ae1f6aaf1461024b578063c01e1bd614610276578063dd62ed3e1461028957600080fd5b806370a08231146101cd57806376809ce3146101f657806395d89b411461020a5780639dc29fac1461021257600080fd5b806323b872dd116100de57806323b872dd14610172578063313ce5671461018557806339509351146101a557806340c10f19146101b857600080fd5b806301ffc9a71461011057806306fdde0314610138578063095ea7b31461014d57806318160ddd14610160575b600080fd5b61012361011e366004610bcb565b6102c2565b60405190151581526020015b60405180910390f35b610140610320565b60405161012f9190610bfc565b61012361015b366004610c6d565b6103b2565b6002545b60405190815260200161012f565b610123610180366004610c97565b6103c8565b600654600160a01b900460ff165b60405160ff909116815260200161012f565b6101236101b3366004610c6d565b610477565b6101cb6101c6366004610c6d565b6104b3565b005b6101646101db366004610cd3565b6001600160a01b031660009081526020819052604090205490565b60065461019390600160a01b900460ff1681565b61014061055e565b6101cb610220366004610c6d565b61056d565b610123610233366004610c6d565b61060c565b610123610246366004610c6d565b6106a5565b60065461025e906001600160a01b031681565b6040516001600160a01b03909116815260200161012f565b60055461025e906001600160a01b031681565b610164610297366004610cee565b6001600160a01b03918216600090815260016020908152604080832093909416825291909152205490565b60007f01ffc9a7a5cef8baa21ed3c5c0d7e23accb804b619e9333b597f47a0d84076e2631d1d8b6360e01b6001600160e01b031984166301ffc9a760e01b148061031857506001600160e01b0319848116908216145b949350505050565b60606003805461032f90610d21565b80601f016020809104026020016040519081016040528092919081815260200182805461035b90610d21565b80156103a85780601f1061037d576101008083540402835291602001916103a8565b820191906000526020600020905b81548152906001019060200180831161038b57829003601f168201915b5050505050905090565b60006103bf3384846106b2565b50600192915050565b60006103d58484846107d7565b6001600160a01b03841660009081526001602090815260408083203384529091529020548281101561045f5760405162461bcd60e51b815260206004820152602860248201527f45524332303a207472616e7366657220616d6f756e74206578636565647320616044820152676c6c6f77616e636560c01b60648201526084015b60405180910390fd5b61046c85338584036106b2565b506001949350505050565b3360008181526001602090815260408083206001600160a01b038716845290915281205490916103bf9185906104ae908690610d72565b6106b2565b6006546001600160a01b0316331461050d5760405162461bcd60e51b815260206004820181905260248201527f4f6e6c79204c32204272696467652063616e206d696e7420616e64206275726e6044820152606401610456565b61051782826109a6565b816001600160a01b03167f0f6798a560793a54c3bcfe86a93cde1e73087d944c0ea20544137d41213968858260405161055291815260200190565b60405180910390a25050565b60606004805461032f90610d21565b6006546001600160a01b031633146105c75760405162461bcd60e51b815260206004820181905260248201527f4f6e6c79204c32204272696467652063616e206d696e7420616e64206275726e6044820152606401610456565b6105d18282610a85565b816001600160a01b03167fcc16f5dbb4873280815c1ee09dbd06736cffcc184412cf7a71a0fdb75d397ca58260405161055291815260200190565b3360009081526001602090815260408083206001600160a01b03861684529091528120548281101561068e5760405162461bcd60e51b815260206004820152602560248201527f45524332303a2064656372656173656420616c6c6f77616e63652062656c6f77604482015264207a65726f60d81b6064820152608401610456565b61069b33858584036106b2565b5060019392505050565b60006103bf3384846107d7565b6001600160a01b0383166107145760405162461bcd60e51b8152602060048201526024808201527f45524332303a20617070726f76652066726f6d20746865207a65726f206164646044820152637265737360e01b6064820152608401610456565b6001600160a01b0382166107755760405162461bcd60e51b815260206004820152602260248201527f45524332303a20617070726f766520746f20746865207a65726f206164647265604482015261737360f01b6064820152608401610456565b6001600160a01b0383811660008181526001602090815260408083209487168084529482529182902085905590518481527f8c5be1e5ebec7d5bd14f71427d1e84f3dd0314c0f7b2291e5b200ac8c7c3b92591015b60405180910390a3505050565b6001600160a01b03831661083b5760405162461bcd60e51b815260206004820152602560248201527f45524332303a207472616e736665722066726f6d20746865207a65726f206164604482015264647265737360d81b6064820152608401610456565b6001600160a01b03821661089d5760405162461bcd60e51b815260206004820152602360248201527f45524332303a207472616e7366657220746f20746865207a65726f206164647260448201526265737360e81b6064820152608401610456565b6001600160a01b038316600090815260208190526040902054818110156109155760405162461bcd60e51b815260206004820152602660248201527f45524332303a207472616e7366657220616d6f756e7420657863656564732062604482015265616c616e636560d01b6064820152608401610456565b6001600160a01b0380851660009081526020819052604080822085850390559185168152908120805484929061094c908490610d72565b92505081905550826001600160a01b0316846001600160a01b03167fddf252ad1be2c89b69c2b068fc378daa952ba7f163c4a11628f55a4df523b3ef8460405161099891815260200190565b60405180910390a350505050565b6001600160a01b0382166109fc5760405162461bcd60e51b815260206004820152601f60248201527f45524332303a206d696e7420746f20746865207a65726f2061646472657373006044820152606401610456565b8060026000828254610a0e9190610d72565b90915550506001600160a01b03821660009081526020819052604081208054839290610a3b908490610d72565b90915550506040518181526001600160a01b038316906000907fddf252ad1be2c89b69c2b068fc378daa952ba7f163c4a11628f55a4df523b3ef9060200160405180910390a35050565b6001600160a01b038216610ae55760405162461bcd60e51b815260206004820152602160248201527f45524332303a206275726e2066726f6d20746865207a65726f206164647265736044820152607360f81b6064820152608401610456565b6001600160a01b03821660009081526020819052604090205481811015610b595760405162461bcd60e51b815260206004820152602260248201527f45524332303a206275726e20616d6f756e7420657863656564732062616c616e604482015261636560f01b6064820152608401610456565b6001600160a01b0383166000908152602081905260408120838303905560028054849290610b88908490610d8a565b90915550506040518281526000906001600160a01b038516907fddf252ad1be2c89b69c2b068fc378daa952ba7f163c4a11628f55a4df523b3ef906020016107ca565b600060208284031215610bdd57600080fd5b81356001600160e01b031981168114610bf557600080fd5b9392505050565b600060208083528351808285015260005b81811015610c2957858101830151858201604001528201610c0d565b81811115610c3b576000604083870101525b50601f01601f1916929092016040019392505050565b80356001600160a01b0381168114610c6857600080fd5b919050565b60008060408385031215610c8057600080fd5b610c8983610c51565b946020939093013593505050565b600080600060608486031215610cac57600080fd5b610cb584610c51565b9250610cc360208501610c51565b9150604084013590509250925092565b600060208284031215610ce557600080fd5b610bf582610c51565b60008060408385031215610d0157600080fd5b610d0a83610c51565b9150610d1860208401610c51565b90509250929050565b600181811c90821680610d3557607f821691505b60208210811415610d5657634e487b7160e01b600052602260045260246000fd5b50919050565b634e487b7160e01b600052601160045260246000fd5b60008219821115610d8557610d85610d5c565b500190565b600082821015610d9c57610d9c610d5c565b50039056fea2646970667358221220ed1c890f63fc0e27aceeab528a2838fcf26ba283b930f3ff95172ea75710515064736f6c63430008090033a2646970667358221220d2089fe3cf99c77168475e5926c9955ca6dbfbede91ab3f343399d687179ebb164736f6c63430008090033",
  "linkReferences": {},
  "deployedLinkReferences": {}
}