{
  "_format": "hh-sol-artifact-1",
  "contractName": "TeleportrDisburser",
  "sourceName": "contracts/L2/teleportr/TeleportrDisburser.sol",
  "abi": [
    {
      "inputs": [],
      "stateMutability": "nonpayable",
      "type": "constructor"
    },
    {
      "anonymous": false,
      "inputs": [
        {
          "indexed": true,
          "internalType": "address",
          "name": "owner",
          "type": "address"
        },
        {
          "indexed": false,
          "internalType": "uint256",
          "name": "balance",
          "type": "uint256"
        }
      ],
      "name": "BalanceWithdrawn",
      "type": "event"
    },
    {
      "anonymous": false,
      "inputs": [
        {
          "indexed": true,
          "internalType": "uint256",
          "name": "depositId",
          "type": "uint256"
        },
        {
          "indexed": true,
          "internalType": "address",
          "name": "to",
          "type": "address"
        },
        {
          "indexed": false,
          "internalType": "uint256",
          "name": "amount",
          "type": "uint256"
        }
      ],
      "name": "DisbursementFailed",
      "type": "event"
    },
    {
      "anonymous": false,
      "inputs": [
        {
          "indexed": true,
          "internalType": "uint256",
          "name": "depositId",
          "type": "uint256"
        },
        {
          "indexed": true,
          "internalType": "address",
          "name": "to",
          "type": "address"
        },
        {
          "indexed": false,
          "internalType": "uint256",
          "name": "amount",
          "type": "uint256"
        }
      ],
      "name": "DisbursementSuccess",
      "type": "event"
    },
    {
      "anonymous": false,
      "inputs": [
        {
          "indexed": true,
          "internalType": "address",
          "name": "previousOwner",
          "type": "address"
        },
        {
          "indexed": true,
          "internalType": "address",
          "name": "newOwner",
          "type": "address"
        }
      ],
      "name": "OwnershipTransferred",
      "type": "event"
    },
    {
      "inputs": [
        {
          "internalType": "uint256",
          "name": "_nextDepositId",
          "type": "uint256"
        },
        {
          "components": [
            {
              "internalType": "uint256",
              "name": "amount",
              "type": "uint256"
            },
            {
              "internalType": "address",
              "name": "addr",
              "type": "address"
            }
          ],
          "internalType": "struct TeleportrDisburser.Disbursement[]",
          "name": "_disbursements",
          "type": "tuple[]"
        }
      ],
      "name": "disburse",
      "outputs": [],
      "stateMutability": "payable",
      "type": "function"
    },
    {
      "inputs": [],
      "name": "owner",
      "outputs": [
        {
          "internalType": "address",
          "name": "",
          "type": "address"
        }
      ],
      "stateMutability": "view",
      "type": "function"
    },
    {
      "inputs": [],
      "name": "renounceOwnership",
      "outputs": [],
      "stateMutability": "nonpayable",
      "type": "function"
    },
    {
      "inputs": [],
      "name": "totalDisbursements",
      "outputs": [
        {
          "internalType": "uint256",
          "name": "",
          "type": "uint256"
        }
      ],
      "stateMutability": "view",
      "type": "function"
    },
    {
      "inputs": [
        {
          "internalType": "address",
          "name": "newOwner",
          "type": "address"
        }
      ],
      "name": "transferOwnership",
      "outputs": [],
      "stateMutability": "nonpayable",
      "type": "function"
    },
    {
      "inputs": [],
      "name": "withdrawBalance",
      "outputs": [],
      "stateMutability": "nonpayable",
      "type": "function"
    }
  ],
  "bytecode": "0x608060405234801561001057600080fd5b5061001a33610024565b6000600155610074565b600080546001600160a01b038381166001600160a01b0319831681178455604051919092169283917f8be0079c531659141344cd1fd0a4f28419497f9722a3daafe3b4186f6b6457e09190a35050565b6109e1806100836000396000f3fe6080604052600436106100655760003560e01c80638da5cb5b116100435780638da5cb5b146100bf578063ad48144d146100f4578063f2fde38b1461010757600080fd5b806325999e7f1461006a5780635fd8c71014610093578063715018a6146100aa575b600080fd5b34801561007657600080fd5b5061008060015481565b6040519081526020015b60405180910390f35b34801561009f57600080fd5b506100a8610127565b005b3480156100b657600080fd5b506100a8610248565b3480156100cb57600080fd5b5060005460405173ffffffffffffffffffffffffffffffffffffffff909116815260200161008a565b6100a8610102366004610840565b6102d5565b34801561011357600080fd5b506100a86101223660046108bf565b61069b565b60005473ffffffffffffffffffffffffffffffffffffffff1633146101ad576040517f08c379a000000000000000000000000000000000000000000000000000000000815260206004820181905260248201527f4f776e61626c653a2063616c6c6572206973206e6f7420746865206f776e657260448201526064015b60405180910390fd5b6000546040805147808252915173ffffffffffffffffffffffffffffffffffffffff9093169283917fddc398b321237a8d40ac914388309c2f52a08c134e4dc4ce61e32f57cb7d80f1919081900360200190a260405173ffffffffffffffffffffffffffffffffffffffff83169082156108fc029083906000818181858888f19350505050158015610243573d6000803e3d6000fd5b505050565b60005473ffffffffffffffffffffffffffffffffffffffff1633146102c9576040517f08c379a000000000000000000000000000000000000000000000000000000000815260206004820181905260248201527f4f776e61626c653a2063616c6c6572206973206e6f7420746865206f776e657260448201526064016101a4565b6102d360006107cb565b565b60005473ffffffffffffffffffffffffffffffffffffffff163314610356576040517f08c379a000000000000000000000000000000000000000000000000000000000815260206004820181905260248201527f4f776e61626c653a2063616c6c6572206973206e6f7420746865206f776e657260448201526064016101a4565b80806103be576040517f08c379a000000000000000000000000000000000000000000000000000000000815260206004820152601060248201527f4e6f2064697362757273656d656e74730000000000000000000000000000000060448201526064016101a4565b60015484811461042a576040517f08c379a000000000000000000000000000000000000000000000000000000000815260206004820152601a60248201527f556e6578706563746564206e657874206465706f73697420696400000000000060448201526064016101a4565b60018054830190556000805b8381101561047757858582818110610450576104506108fc565b610463926040909102013590508361095a565b91508061046f81610972565b915050610436565b50348114610507576040517f08c379a000000000000000000000000000000000000000000000000000000000815260206004820152602160248201527f44697362757273656d656e7420746f74616c20213d20616d6f756e742073656e60448201527f740000000000000000000000000000000000000000000000000000000000000060648201526084016101a4565b60005b83811015610692576000868683818110610526576105266108fc565b9050604002016000013590506000878784818110610546576105466108fc565b905060400201602001602081019061055e91906108bf565b905060008173ffffffffffffffffffffffffffffffffffffffff16836108fc90604051600060405180830381858888f193505050503d80600081146105bf576040519150601f19603f3d011682016040523d82523d6000602084013e6105c4565b606091505b505090508015610624578173ffffffffffffffffffffffffffffffffffffffff16867feaa22fd2d7b875476355b32cf719794faf9d91b66e73bc6375a053cace9caaee8560405161061791815260200190565b60405180910390a3610676565b8173ffffffffffffffffffffffffffffffffffffffff16867f9b478c095979d3d3a7d602ffd9ee1f0843204d853558ae0882c8fcc0a5bc78cf8560405161066d91815260200190565b60405180910390a35b600186019550505050808061068a90610972565b91505061050a565b50505050505050565b60005473ffffffffffffffffffffffffffffffffffffffff16331461071c576040517f08c379a000000000000000000000000000000000000000000000000000000000815260206004820181905260248201527f4f776e61626c653a2063616c6c6572206973206e6f7420746865206f776e657260448201526064016101a4565b73ffffffffffffffffffffffffffffffffffffffff81166107bf576040517f08c379a000000000000000000000000000000000000000000000000000000000815260206004820152602660248201527f4f776e61626c653a206e6577206f776e657220697320746865207a65726f206160448201527f646472657373000000000000000000000000000000000000000000000000000060648201526084016101a4565b6107c8816107cb565b50565b6000805473ffffffffffffffffffffffffffffffffffffffff8381167fffffffffffffffffffffffff0000000000000000000000000000000000000000831681178455604051919092169283917f8be0079c531659141344cd1fd0a4f28419497f9722a3daafe3b4186f6b6457e09190a35050565b60008060006040848603121561085557600080fd5b83359250602084013567ffffffffffffffff8082111561087457600080fd5b818601915086601f83011261088857600080fd5b81358181111561089757600080fd5b8760208260061b85010111156108ac57600080fd5b6020830194508093505050509250925092565b6000602082840312156108d157600080fd5b813573ffffffffffffffffffffffffffffffffffffffff811681146108f557600080fd5b9392505050565b7f4e487b7100000000000000000000000000000000000000000000000000000000600052603260045260246000fd5b7f4e487b7100000000000000000000000000000000000000000000000000000000600052601160045260246000fd5b6000821982111561096d5761096d61092b565b500190565b60007fffffffffffffffffffffffffffffffffffffffffffffffffffffffffffffffff8214156109a4576109a461092b565b506001019056fea26469706673582212209c98cb9cc04bc2bf5e8c0baf23ef87d045122afe6cfbb0e3c31bd854dd7fad7d64736f6c63430008090033",
  "linkReferences": {},
  "deployedLinkReferences": {}
}