{
  "abi": [
    {
      "inputs": [],
      "name": "echidna_round_trip_aliasing",
      "outputs": [
        {
          "internalType": "bool",
          "name": "",
          "type": "bool"
        }
      ],
      "stateMutability": "view",
      "type": "function"
    },
    {
      "inputs": [
        {
          "internalType": "address",
          "name": "addr",
          "type": "address"
        }
      ],
      "name": "testRoundTrip",
      "outputs": [],
      "stateMutability": "nonpayable",
      "type": "function"
    }
  ],
  "bytecode": {
    "object": "0x608060405234801561001057600080fd5b5060aa8061001f6000396000f3fe6080604052348015600f57600080fd5b506004361060325760003560e01c8063206a6a72146037578063cfae1588146052575b600080fd5b60005460ff1615604051901515815260200160405180910390f35b6060605d3660046062565b50565b005b600060208284031215607357600080fd5b813573ffffffffffffffffffffffffffffffffffffffff81168114609657600080fd5b939250505056fea164736f6c634300080f000a",
    "linkReferences": {}
  },
  "methodIdentifiers": {
    "echidna_round_trip_aliasing()": "206a6a72",
    "testRoundTrip(address)": "cfae1588"
  },
  "storageLayout": {
    "storage": [
      {
        "astId": 4817,
        "contract": "contracts/echidna/FuzzAddressAliasing.sol:EchidnaFuzzAddressAliasing",
        "label": "failedRoundtrip",
        "offset": 0,
        "slot": "0",
        "type": "t_bool"
      }
    ],
    "types": {
      "t_bool": {
        "encoding": "inplace",
        "label": "bool",
        "numberOfBytes": "1"
      }
    }
  },
  "userdoc": {
    "version": 1,
    "kind": "user",
    "methods": {
      "testRoundTrip(address)": {
        "notice": "Takes an address to be aliased with AddressAliasHelper and then unaliased         and updates the test contract's state indicating if the round trip encoding         failed."
      }
    }
  },
  "devdoc": {
    "version": 1,
    "kind": "dev",
    "methods": {
      "echidna_round_trip_aliasing()": {}
    }
  },
  "id": 21
}