{
  "_format": "hh-sol-artifact-1",
  "contractName": "BondManager",
  "sourceName": "contracts/L1/verification/BondManager.sol",
  "abi": [
    {
      "inputs": [
        {
          "internalType": "address",
          "name": "_libAddressManager",
          "type": "address"
        }
      ],
      "stateMutability": "nonpayable",
      "type": "constructor"
    },
    {
      "inputs": [
        {
          "internalType": "address",
          "name": "_who",
          "type": "address"
        }
      ],
      "name": "isCollateralized",
      "outputs": [
        {
          "internalType": "bool",
          "name": "",
          "type": "bool"
        }
      ],
      "stateMutability": "view",
      "type": "function"
    },
    {
      "inputs": [],
      "name": "libAddressManager",
      "outputs": [
        {
          "internalType": "contract Lib_AddressManager",
          "name": "",
          "type": "address"
        }
      ],
      "stateMutability": "view",
      "type": "function"
    },
    {
      "inputs": [
        {
          "internalType": "string",
          "name": "_name",
          "type": "string"
        }
      ],
      "name": "resolve",
      "outputs": [
        {
          "internalType": "address",
          "name": "",
          "type": "address"
        }
      ],
      "stateMutability": "view",
      "type": "function"
    }
  ],
  "bytecode": "0x608060405234801561001057600080fd5b506040516103bb3803806103bb83398101604081905261002f91610054565b600080546001600160a01b0319166001600160a01b0392909216919091179055610084565b60006020828403121561006657600080fd5b81516001600160a01b038116811461007d57600080fd5b9392505050565b610328806100936000396000f3fe608060405234801561001057600080fd5b50600436106100415760003560e01c806302ad4d2a14610046578063299ca4781461006e578063461a447814610099575b600080fd5b610059610054366004610195565b6100ac565b60405190151581526020015b60405180910390f35b600054610081906001600160a01b031681565b6040516001600160a01b039091168152602001610065565b6100816100a73660046101cf565b6100f6565b60006100db6040518060400160405280600c81526020016b212b26afa83937b837b9b2b960a11b8152506100f6565b6001600160a01b0316826001600160a01b0316149050919050565b6000805460405163bf40fac160e01b81526001600160a01b039091169063bf40fac190610127908590600401610280565b60206040518083038186803b15801561013f57600080fd5b505afa158015610153573d6000803e3d6000fd5b505050506040513d601f19601f8201168201806040525081019061017791906102d5565b92915050565b6001600160a01b038116811461019257600080fd5b50565b6000602082840312156101a757600080fd5b81356101b28161017d565b9392505050565b634e487b7160e01b600052604160045260246000fd5b6000602082840312156101e157600080fd5b813567ffffffffffffffff808211156101f957600080fd5b818401915084601f83011261020d57600080fd5b81358181111561021f5761021f6101b9565b604051601f8201601f19908116603f01168101908382118183101715610247576102476101b9565b8160405282815287602084870101111561026057600080fd5b826020860160208301376000928101602001929092525095945050505050565b600060208083528351808285015260005b818110156102ad57858101830151858201604001528201610291565b818111156102bf576000604083870101525b50601f01601f1916929092016040019392505050565b6000602082840312156102e757600080fd5b81516101b28161017d56fea264697066735822122001b0fcd2fe35ea1c8769d40c0a1fbdfe16bff1d476980df598e6a0ccdf55e89564736f6c63430008090033",
  "linkReferences": {},
  "deployedLinkReferences": {}
}