{
  "_format": "hh-sol-artifact-1",
  "contractName": "L1StandardBridge",
  "sourceName": "contracts/L1/messaging/L1StandardBridge.sol",
  "abi": [
    {
      "inputs": [],
      "stateMutability": "nonpayable",
      "type": "constructor"
    },
    {
      "anonymous": false,
      "inputs": [
        {
          "indexed": true,
          "internalType": "address",
          "name": "_l1Token",
          "type": "address"
        },
        {
          "indexed": true,
          "internalType": "address",
          "name": "_l2Token",
          "type": "address"
        },
        {
          "indexed": true,
          "internalType": "address",
          "name": "_from",
          "type": "address"
        },
        {
          "indexed": false,
          "internalType": "address",
          "name": "_to",
          "type": "address"
        },
        {
          "indexed": false,
          "internalType": "uint256",
          "name": "_amount",
          "type": "uint256"
        },
        {
          "indexed": false,
          "internalType": "bytes",
          "name": "_data",
          "type": "bytes"
        }
      ],
      "name": "ERC20DepositInitiated",
      "type": "event"
    },
    {
      "anonymous": false,
      "inputs": [
        {
          "indexed": true,
          "internalType": "address",
          "name": "_l1Token",
          "type": "address"
        },
        {
          "indexed": true,
          "internalType": "address",
          "name": "_l2Token",
          "type": "address"
        },
        {
          "indexed": true,
          "internalType": "address",
          "name": "_from",
          "type": "address"
        },
        {
          "indexed": false,
          "internalType": "address",
          "name": "_to",
          "type": "address"
        },
        {
          "indexed": false,
          "internalType": "uint256",
          "name": "_amount",
          "type": "uint256"
        },
        {
          "indexed": false,
          "internalType": "bytes",
          "name": "_data",
          "type": "bytes"
        }
      ],
      "name": "ERC20WithdrawalFinalized",
      "type": "event"
    },
    {
      "anonymous": false,
      "inputs": [
        {
          "indexed": true,
          "internalType": "address",
          "name": "_from",
          "type": "address"
        },
        {
          "indexed": true,
          "internalType": "address",
          "name": "_to",
          "type": "address"
        },
        {
          "indexed": false,
          "internalType": "uint256",
          "name": "_amount",
          "type": "uint256"
        },
        {
          "indexed": false,
          "internalType": "bytes",
          "name": "_data",
          "type": "bytes"
        }
      ],
      "name": "ETHDepositInitiated",
      "type": "event"
    },
    {
      "anonymous": false,
      "inputs": [
        {
          "indexed": true,
          "internalType": "address",
          "name": "_from",
          "type": "address"
        },
        {
          "indexed": true,
          "internalType": "address",
          "name": "_to",
          "type": "address"
        },
        {
          "indexed": false,
          "internalType": "uint256",
          "name": "_amount",
          "type": "uint256"
        },
        {
          "indexed": false,
          "internalType": "bytes",
          "name": "_data",
          "type": "bytes"
        }
      ],
      "name": "ETHWithdrawalFinalized",
      "type": "event"
    },
    {
      "inputs": [
        {
          "internalType": "address",
          "name": "_l1Token",
          "type": "address"
        },
        {
          "internalType": "address",
          "name": "_l2Token",
          "type": "address"
        },
        {
          "internalType": "uint256",
          "name": "_amount",
          "type": "uint256"
        },
        {
          "internalType": "uint32",
          "name": "_l2Gas",
          "type": "uint32"
        },
        {
          "internalType": "bytes",
          "name": "_data",
          "type": "bytes"
        }
      ],
      "name": "depositERC20",
      "outputs": [],
      "stateMutability": "nonpayable",
      "type": "function"
    },
    {
      "inputs": [
        {
          "internalType": "address",
          "name": "_l1Token",
          "type": "address"
        },
        {
          "internalType": "address",
          "name": "_l2Token",
          "type": "address"
        },
        {
          "internalType": "address",
          "name": "_to",
          "type": "address"
        },
        {
          "internalType": "uint256",
          "name": "_amount",
          "type": "uint256"
        },
        {
          "internalType": "uint32",
          "name": "_l2Gas",
          "type": "uint32"
        },
        {
          "internalType": "bytes",
          "name": "_data",
          "type": "bytes"
        }
      ],
      "name": "depositERC20To",
      "outputs": [],
      "stateMutability": "nonpayable",
      "type": "function"
    },
    {
      "inputs": [
        {
          "internalType": "uint32",
          "name": "_l2Gas",
          "type": "uint32"
        },
        {
          "internalType": "bytes",
          "name": "_data",
          "type": "bytes"
        }
      ],
      "name": "depositETH",
      "outputs": [],
      "stateMutability": "payable",
      "type": "function"
    },
    {
      "inputs": [
        {
          "internalType": "address",
          "name": "_to",
          "type": "address"
        },
        {
          "internalType": "uint32",
          "name": "_l2Gas",
          "type": "uint32"
        },
        {
          "internalType": "bytes",
          "name": "_data",
          "type": "bytes"
        }
      ],
      "name": "depositETHTo",
      "outputs": [],
      "stateMutability": "payable",
      "type": "function"
    },
    {
      "inputs": [
        {
          "internalType": "address",
          "name": "",
          "type": "address"
        },
        {
          "internalType": "address",
          "name": "",
          "type": "address"
        }
      ],
      "name": "deposits",
      "outputs": [
        {
          "internalType": "uint256",
          "name": "",
          "type": "uint256"
        }
      ],
      "stateMutability": "view",
      "type": "function"
    },
    {
      "inputs": [],
      "name": "donateETH",
      "outputs": [],
      "stateMutability": "payable",
      "type": "function"
    },
    {
      "inputs": [
        {
          "internalType": "address",
          "name": "_from",
          "type": "address"
        },
        {
          "internalType": "address",
          "name": "_to",
          "type": "address"
        },
        {
          "internalType": "uint256",
          "name": "_amount",
          "type": "uint256"
        },
        {
          "internalType": "bytes",
          "name": "_data",
          "type": "bytes"
        }
      ],
      "name": "finalizeBitWithdrawal",
      "outputs": [],
      "stateMutability": "nonpayable",
      "type": "function"
    },
    {
      "inputs": [
        {
          "internalType": "address",
          "name": "_l1Token",
          "type": "address"
        },
        {
          "internalType": "address",
          "name": "_l2Token",
          "type": "address"
        },
        {
          "internalType": "address",
          "name": "_from",
          "type": "address"
        },
        {
          "internalType": "address",
          "name": "_to",
          "type": "address"
        },
        {
          "internalType": "uint256",
          "name": "_amount",
          "type": "uint256"
        },
        {
          "internalType": "bytes",
          "name": "_data",
          "type": "bytes"
        }
      ],
      "name": "finalizeERC20Withdrawal",
      "outputs": [],
      "stateMutability": "nonpayable",
      "type": "function"
    },
    {
      "inputs": [
        {
          "internalType": "address",
          "name": "_from",
          "type": "address"
        },
        {
          "internalType": "address",
          "name": "_to",
          "type": "address"
        },
        {
          "internalType": "uint256",
          "name": "_amount",
          "type": "uint256"
        },
        {
          "internalType": "bytes",
          "name": "_data",
          "type": "bytes"
        }
      ],
      "name": "finalizeETHWithdrawal",
      "outputs": [],
      "stateMutability": "nonpayable",
      "type": "function"
    },
    {
      "inputs": [
        {
          "internalType": "address",
          "name": "_l1messenger",
          "type": "address"
        },
        {
          "internalType": "address",
          "name": "_l2TokenBridge",
          "type": "address"
        },
        {
          "internalType": "address",
          "name": "_l1BitAddress",
          "type": "address"
        }
      ],
      "name": "initialize",
      "outputs": [],
      "stateMutability": "nonpayable",
      "type": "function"
    },
    {
      "inputs": [],
      "name": "l1BitAddress",
      "outputs": [
        {
          "internalType": "address",
          "name": "",
          "type": "address"
        }
      ],
      "stateMutability": "view",
      "type": "function"
    },
    {
      "inputs": [],
      "name": "l2TokenBridge",
      "outputs": [
        {
          "internalType": "address",
          "name": "",
          "type": "address"
        }
      ],
      "stateMutability": "view",
      "type": "function"
    },
    {
      "inputs": [],
      "name": "messenger",
      "outputs": [
        {
          "internalType": "address",
          "name": "",
          "type": "address"
        }
      ],
      "stateMutability": "view",
      "type": "function"
    },
    {
      "stateMutability": "payable",
      "type": "receive"
    }
  ],
  "bytecode": "0x608060405234801561001057600080fd5b50600080546001600160a01b0319169055611a40806100306000396000f3fe6080604052600436106100d65760003560e01c80638f601f661161007f5780639e8a83ec116100595780639e8a83ec1461028a578063a9f9e675146102aa578063b1a1a882146102ca578063c0c53b8b146102dd57600080fd5b80638f601f661461021157806391c49bf8146102575780639a2ac6d51461027757600080fd5b8063838b2520116100b0578063838b2520146101d1578063839f0ec6146101f15780638b4c40b01461014d57600080fd5b80631532ec34146101545780633cb747bf1461017457806358a997f6146101b157600080fd5b3661014f57333b1561012f5760405162461bcd60e51b815260206004820152600f60248201527f4163636f756e74206e6f7420454f41000000000000000000000000000000000060448201526064015b60405180910390fd5b61014d333362030d40604051806020016040528060008152506102fd565b005b600080fd5b34801561016057600080fd5b5061014d61016f36600461141e565b610404565b34801561018057600080fd5b50600054610194906001600160a01b031681565b6040516001600160a01b0390911681526020015b60405180910390f35b3480156101bd57600080fd5b5061014d6101cc3660046114aa565b6106eb565b3480156101dd57600080fd5b5061014d6101ec36600461152d565b610752565b3480156101fd57600080fd5b5061014d61020c36600461141e565b61076b565b34801561021d57600080fd5b5061024961022c3660046115c3565b600360209081526000928352604080842090915290825290205481565b6040519081526020016101a8565b34801561026357600080fd5b50600154610194906001600160a01b031681565b61014d6102853660046115fc565b610946565b34801561029657600080fd5b50600254610194906001600160a01b031681565b3480156102b657600080fd5b5061014d6102c536600461165f565b61098e565b61014d6102d83660046116d8565b610c07565b3480156102e957600080fd5b5061014d6102f836600461172b565b610c9d565b600063662a633a60e01b600073deaddeaddeaddeaddeaddeaddeaddeaddead111187873487604051602401610337969594939291906117ce565b60408051601f198184030181529190526020810180517bffffffffffffffffffffffffffffffffffffffffffffffffffffffff167fffffffff00000000000000000000000000000000000000000000000000000000909316929092179091526001549091506103b0906001600160a01b03168483610d73565b836001600160a01b0316856001600160a01b03167f35d79ab81f2b2017e19afb5c5571778877782d7a8786f5907f93b0f4702f4f2334856040516103f592919061181c565b60405180910390a35050505050565b6001546001600160a01b03166104226000546001600160a01b031690565b6001600160a01b0316336001600160a01b0316146104a85760405162461bcd60e51b815260206004820152602e60248201527f42564d5f58434841494e3a206d657373656e67657220636f6e7472616374207560448201527f6e61757468656e746963617465640000000000000000000000000000000000006064820152608401610126565b806001600160a01b03166104c46000546001600160a01b031690565b6001600160a01b0316636e296e456040518163ffffffff1660e01b815260040160206040518083038186803b1580156104fc57600080fd5b505afa158015610510573d6000803e3d6000fd5b505050506040513d601f19601f820116820180604052508101906105349190611835565b6001600160a01b0316146105b05760405162461bcd60e51b815260206004820152603060248201527f42564d5f58434841494e3a2077726f6e672073656e646572206f662063726f7360448201527f732d646f6d61696e206d657373616765000000000000000000000000000000006064820152608401610126565b604080516000808252602082019092526001600160a01b0387169086906040516105da9190611852565b60006040518083038185875af1925050503d8060008114610617576040519150601f19603f3d011682016040523d82523d6000602084013e61061c565b606091505b50509050806106935760405162461bcd60e51b815260206004820152603460248201527f5472616e7366657248656c7065723a3a736166655472616e736665724554483a60448201527f20455448207472616e73666572206661696c65640000000000000000000000006064820152608401610126565b856001600160a01b0316876001600160a01b03167f2ac69ee804d9a7a0984249f508dfab7cb2534b465b6ce1580f99a38ba9c5e6318787876040516106da93929190611899565b60405180910390a350505050505050565b333b1561073a5760405162461bcd60e51b815260206004820152600f60248201527f4163636f756e74206e6f7420454f4100000000000000000000000000000000006044820152606401610126565b61074a8686333388888888610dee565b505050505050565b6107628787338888888888610dee565b50505050505050565b6001546001600160a01b03166107896000546001600160a01b031690565b6001600160a01b0316336001600160a01b03161461080f5760405162461bcd60e51b815260206004820152602e60248201527f42564d5f58434841494e3a206d657373656e67657220636f6e7472616374207560448201527f6e61757468656e746963617465640000000000000000000000000000000000006064820152608401610126565b806001600160a01b031661082b6000546001600160a01b031690565b6001600160a01b0316636e296e456040518163ffffffff1660e01b815260040160206040518083038186803b15801561086357600080fd5b505afa158015610877573d6000803e3d6000fd5b505050506040513d601f19601f8201168201806040525081019061089b9190611835565b6001600160a01b0316146109175760405162461bcd60e51b815260206004820152603060248201527f42564d5f58434841494e3a2077726f6e672073656e646572206f662063726f7360448201527f732d646f6d61696e206d657373616765000000000000000000000000000000006064820152608401610126565b60025461074a906001600160a01b031673deaddeaddeaddeaddeaddeaddeaddeaddead0000888888888861098e565b61098833858585858080601f0160208091040260200160405190810160405280939291908181526020018383808284376000920191909152506102fd92505050565b50505050565b6001546001600160a01b03166109ac6000546001600160a01b031690565b6001600160a01b0316336001600160a01b031614610a325760405162461bcd60e51b815260206004820152602e60248201527f42564d5f58434841494e3a206d657373656e67657220636f6e7472616374207560448201527f6e61757468656e746963617465640000000000000000000000000000000000006064820152608401610126565b806001600160a01b0316610a4e6000546001600160a01b031690565b6001600160a01b0316636e296e456040518163ffffffff1660e01b815260040160206040518083038186803b158015610a8657600080fd5b505afa158015610a9a573d6000803e3d6000fd5b505050506040513d601f19601f82011682018060405250810190610abe9190611835565b6001600160a01b031614610b3a5760405162461bcd60e51b815260206004820152603060248201527f42564d5f58434841494e3a2077726f6e672073656e646572206f662063726f7360448201527f732d646f6d61696e206d657373616765000000000000000000000000000000006064820152608401610126565b6001600160a01b038089166000908152600360209081526040808320938b1683529290522054610b6b9085906118eb565b6001600160a01b03808a166000818152600360209081526040808320948d1683529390529190912091909155610ba290868661104d565b856001600160a01b0316876001600160a01b0316896001600160a01b03167f3ceee06c1e37648fcbb6ed52e17b3e1f275a1f8c7b22a84b2b84732431e046b388888888604051610bf59493929190611902565b60405180910390a45050505050505050565b333b15610c565760405162461bcd60e51b815260206004820152600f60248201527f4163636f756e74206e6f7420454f4100000000000000000000000000000000006044820152606401610126565b610c9833338585858080601f0160208091040260200160405190810160405280939291908181526020018383808284376000920191909152506102fd92505050565b505050565b6000546001600160a01b031615610d1c5760405162461bcd60e51b815260206004820152602660248201527f436f6e74726163742068617320616c7265616479206265656e20696e6974696160448201527f6c697a65642e00000000000000000000000000000000000000000000000000006064820152608401610126565b600080546001600160a01b039485167fffffffffffffffffffffffff000000000000000000000000000000000000000091821617909155600180549385169382169390931790925560028054919093169116179055565b6000546040517f3dbb202b0000000000000000000000000000000000000000000000000000000081526001600160a01b0390911690633dbb202b90610dc090869085908790600401611935565b600060405180830381600087803b158015610dda57600080fd5b505af1158015610762573d6000803e3d6000fd5b610e036001600160a01b0389168730876110f6565b6002546060906001600160a01b038a811691161415610eec5760405173deaddeaddeaddeaddeaddeaddeaddeaddead000098507f662a633a0000000000000000000000000000000000000000000000000000000090610e8690731a4b46696b2bb4794eb3d4c26f1c55f9170fa4c5908b908b908b908b908a908a9060240161196d565b60408051601f198184030181529190526020810180517bffffffffffffffffffffffffffffffffffffffffffffffffffffffff167fffffffff00000000000000000000000000000000000000000000000000000000909316929092179091529050610f8d565b6040517f662a633a0000000000000000000000000000000000000000000000000000000090610f2b908b908b908b908b908b908a908a9060240161196d565b60408051601f198184030181529190526020810180517bffffffffffffffffffffffffffffffffffffffffffffffffffffffff167fffffffff000000000000000000000000000000000000000000000000000000009093169290921790915290505b600154610fa4906001600160a01b03168583610d73565b6001600160a01b03808a166000908152600360209081526040808320938c1683529290522054610fd59086906119bd565b6001600160a01b03808b1660008181526003602090815260408083208e86168085529252918290209490945551918a1692917f718594027abd4eaed59f95162563e0cc6d0e8d5b86b1c7be8b1b0ac3343d03969061103a908b908b908a908a90611902565b60405180910390a4505050505050505050565b6040516001600160a01b038316602482015260448101829052610c989084907fa9059cbb00000000000000000000000000000000000000000000000000000000906064015b60408051601f198184030181529190526020810180517bffffffffffffffffffffffffffffffffffffffffffffffffffffffff167fffffffff0000000000000000000000000000000000000000000000000000000090931692909217909152611147565b6040516001600160a01b03808516602483015283166044820152606481018290526109889085907f23b872dd0000000000000000000000000000000000000000000000000000000090608401611092565b600061119c826040518060400160405280602081526020017f5361666545524332303a206c6f772d6c6576656c2063616c6c206661696c6564815250856001600160a01b031661122c9092919063ffffffff16565b805190915015610c9857808060200190518101906111ba91906119d5565b610c985760405162461bcd60e51b815260206004820152602a60248201527f5361666545524332303a204552433230206f7065726174696f6e20646964206e60448201527f6f742073756363656564000000000000000000000000000000000000000000006064820152608401610126565b606061123b8484600085611245565b90505b9392505050565b6060824710156112bd5760405162461bcd60e51b815260206004820152602660248201527f416464726573733a20696e73756666696369656e742062616c616e636520666f60448201527f722063616c6c00000000000000000000000000000000000000000000000000006064820152608401610126565b843b61130b5760405162461bcd60e51b815260206004820152601d60248201527f416464726573733a2063616c6c20746f206e6f6e2d636f6e74726163740000006044820152606401610126565b600080866001600160a01b031685876040516113279190611852565b60006040518083038185875af1925050503d8060008114611364576040519150601f19603f3d011682016040523d82523d6000602084013e611369565b606091505b5091509150611379828286611384565b979650505050505050565b6060831561139357508161123e565b8251156113a35782518084602001fd5b8160405162461bcd60e51b815260040161012691906119f7565b6001600160a01b03811681146113d257600080fd5b50565b60008083601f8401126113e757600080fd5b50813567ffffffffffffffff8111156113ff57600080fd5b60208301915083602082850101111561141757600080fd5b9250929050565b60008060008060006080868803121561143657600080fd5b8535611441816113bd565b94506020860135611451816113bd565b935060408601359250606086013567ffffffffffffffff81111561147457600080fd5b611480888289016113d5565b969995985093965092949392505050565b803563ffffffff811681146114a557600080fd5b919050565b60008060008060008060a087890312156114c357600080fd5b86356114ce816113bd565b955060208701356114de816113bd565b9450604087013593506114f360608801611491565b9250608087013567ffffffffffffffff81111561150f57600080fd5b61151b89828a016113d5565b979a9699509497509295939492505050565b600080600080600080600060c0888a03121561154857600080fd5b8735611553816113bd565b96506020880135611563816113bd565b95506040880135611573816113bd565b94506060880135935061158860808901611491565b925060a088013567ffffffffffffffff8111156115a457600080fd5b6115b08a828b016113d5565b989b979a50959850939692959293505050565b600080604083850312156115d657600080fd5b82356115e1816113bd565b915060208301356115f1816113bd565b809150509250929050565b6000806000806060858703121561161257600080fd5b843561161d816113bd565b935061162b60208601611491565b9250604085013567ffffffffffffffff81111561164757600080fd5b611653878288016113d5565b95989497509550505050565b600080600080600080600060c0888a03121561167a57600080fd5b8735611685816113bd565b96506020880135611695816113bd565b955060408801356116a5816113bd565b945060608801356116b5816113bd565b93506080880135925060a088013567ffffffffffffffff8111156115a457600080fd5b6000806000604084860312156116ed57600080fd5b6116f684611491565b9250602084013567ffffffffffffffff81111561171257600080fd5b61171e868287016113d5565b9497909650939450505050565b60008060006060848603121561174057600080fd5b833561174b816113bd565b9250602084013561175b816113bd565b9150604084013561176b816113bd565b809150509250925092565b60005b83811015611791578181015183820152602001611779565b838111156109885750506000910152565b600081518084526117ba816020860160208601611776565b601f01601f19169290920160200192915050565b60006001600160a01b0380891683528088166020840152808716604084015280861660608401525083608083015260c060a083015261181060c08301846117a2565b98975050505050505050565b82815260406020820152600061123b60408301846117a2565b60006020828403121561184757600080fd5b815161123e816113bd565b60008251611864818460208701611776565b9190910192915050565b818352818160208501375060006020828401015260006020601f19601f840116840101905092915050565b8381526040602082015260006118b360408301848661186e565b95945050505050565b7f4e487b7100000000000000000000000000000000000000000000000000000000600052601160045260246000fd5b6000828210156118fd576118fd6118bc565b500390565b6001600160a01b038516815283602082015260606040820152600061192b60608301848661186e565b9695505050505050565b6001600160a01b038416815260606020820152600061195760608301856117a2565b905063ffffffff83166040830152949350505050565b60006001600160a01b03808a1683528089166020840152808816604084015280871660608401525084608083015260c060a08301526119b060c08301848661186e565b9998505050505050505050565b600082198211156119d0576119d06118bc565b500190565b6000602082840312156119e757600080fd5b8151801515811461123e57600080fd5b60208152600061123e60208301846117a256fea26469706673582212207a0f6b0198c34e105bf36fbc8078546983cfaf284eb777bdc723b349f354516f64736f6c63430008090033",
  "linkReferences": {},
  "deployedLinkReferences": {}
}