{
  "_format": "hh-sol-artifact-1",
  "contractName": "L1StandardBridge",
  "sourceName": "contracts/L1/messaging/L1StandardBridge.sol",
  "abi": [
    {
      "inputs": [],
      "stateMutability": "nonpayable",
      "type": "constructor"
    },
    {
      "anonymous": false,
      "inputs": [
        {
          "indexed": true,
          "internalType": "address",
          "name": "_l1Token",
          "type": "address"
        },
        {
          "indexed": true,
          "internalType": "address",
          "name": "_l2Token",
          "type": "address"
        },
        {
          "indexed": true,
          "internalType": "address",
          "name": "_from",
          "type": "address"
        },
        {
          "indexed": false,
          "internalType": "address",
          "name": "_to",
          "type": "address"
        },
        {
          "indexed": false,
          "internalType": "uint256",
          "name": "_amount",
          "type": "uint256"
        },
        {
          "indexed": false,
          "internalType": "bytes",
          "name": "_data",
          "type": "bytes"
        }
      ],
      "name": "ERC20DepositInitiated",
      "type": "event"
    },
    {
      "anonymous": false,
      "inputs": [
        {
          "indexed": true,
          "internalType": "address",
          "name": "_l1Token",
          "type": "address"
        },
        {
          "indexed": true,
          "internalType": "address",
          "name": "_l2Token",
          "type": "address"
        },
        {
          "indexed": true,
          "internalType": "address",
          "name": "_from",
          "type": "address"
        },
        {
          "indexed": false,
          "internalType": "address",
          "name": "_to",
          "type": "address"
        },
        {
          "indexed": false,
          "internalType": "uint256",
          "name": "_amount",
          "type": "uint256"
        },
        {
          "indexed": false,
          "internalType": "bytes",
          "name": "_data",
          "type": "bytes"
        }
      ],
      "name": "ERC20WithdrawalFinalized",
      "type": "event"
    },
    {
      "anonymous": false,
      "inputs": [
        {
          "indexed": true,
          "internalType": "address",
          "name": "_from",
          "type": "address"
        },
        {
          "indexed": true,
          "internalType": "address",
          "name": "_to",
          "type": "address"
        },
        {
          "indexed": false,
          "internalType": "uint256",
          "name": "_amount",
          "type": "uint256"
        },
        {
          "indexed": false,
          "internalType": "bytes",
          "name": "_data",
          "type": "bytes"
        }
      ],
      "name": "ETHDepositInitiated",
      "type": "event"
    },
    {
      "anonymous": false,
      "inputs": [
        {
          "indexed": true,
          "internalType": "address",
          "name": "_from",
          "type": "address"
        },
        {
          "indexed": true,
          "internalType": "address",
          "name": "_to",
          "type": "address"
        },
        {
          "indexed": false,
          "internalType": "uint256",
          "name": "_amount",
          "type": "uint256"
        },
        {
          "indexed": false,
          "internalType": "bytes",
          "name": "_data",
          "type": "bytes"
        }
      ],
      "name": "ETHWithdrawalFinalized",
      "type": "event"
    },
    {
      "anonymous": false,
      "inputs": [
        {
          "indexed": false,
          "internalType": "uint8",
          "name": "version",
          "type": "uint8"
        }
      ],
      "name": "Initialized",
      "type": "event"
    },
    {
      "inputs": [
        {
          "internalType": "address",
          "name": "_l1Token",
          "type": "address"
        },
        {
          "internalType": "address",
          "name": "_l2Token",
          "type": "address"
        },
        {
          "internalType": "uint256",
          "name": "_amount",
          "type": "uint256"
        },
        {
          "internalType": "uint32",
          "name": "_l2Gas",
          "type": "uint32"
        },
        {
          "internalType": "bytes",
          "name": "_data",
          "type": "bytes"
        }
      ],
      "name": "depositERC20",
      "outputs": [],
      "stateMutability": "nonpayable",
      "type": "function"
    },
    {
      "inputs": [
        {
          "internalType": "address",
          "name": "_l1Token",
          "type": "address"
        },
        {
          "internalType": "address",
          "name": "_l2Token",
          "type": "address"
        },
        {
          "internalType": "address",
          "name": "_to",
          "type": "address"
        },
        {
          "internalType": "uint256",
          "name": "_amount",
          "type": "uint256"
        },
        {
          "internalType": "uint32",
          "name": "_l2Gas",
          "type": "uint32"
        },
        {
          "internalType": "bytes",
          "name": "_data",
          "type": "bytes"
        }
      ],
      "name": "depositERC20To",
      "outputs": [],
      "stateMutability": "nonpayable",
      "type": "function"
    },
    {
      "inputs": [
        {
          "internalType": "uint32",
          "name": "_l2Gas",
          "type": "uint32"
        },
        {
          "internalType": "bytes",
          "name": "_data",
          "type": "bytes"
        }
      ],
      "name": "depositETH",
      "outputs": [],
      "stateMutability": "payable",
      "type": "function"
    },
    {
      "inputs": [
        {
          "internalType": "address",
          "name": "_to",
          "type": "address"
        },
        {
          "internalType": "uint32",
          "name": "_l2Gas",
          "type": "uint32"
        },
        {
          "internalType": "bytes",
          "name": "_data",
          "type": "bytes"
        }
      ],
      "name": "depositETHTo",
      "outputs": [],
      "stateMutability": "payable",
      "type": "function"
    },
    {
      "inputs": [
        {
          "internalType": "address",
          "name": "",
          "type": "address"
        },
        {
          "internalType": "address",
          "name": "",
          "type": "address"
        }
      ],
      "name": "deposits",
      "outputs": [
        {
          "internalType": "uint256",
          "name": "",
          "type": "uint256"
        }
      ],
      "stateMutability": "view",
      "type": "function"
    },
    {
      "inputs": [],
      "name": "donateETH",
      "outputs": [],
      "stateMutability": "payable",
      "type": "function"
    },
    {
      "inputs": [
        {
          "internalType": "address",
          "name": "_l1Token",
          "type": "address"
        },
        {
          "internalType": "address",
          "name": "_l2Token",
          "type": "address"
        },
        {
          "internalType": "address",
          "name": "_from",
          "type": "address"
        },
        {
          "internalType": "address",
          "name": "_to",
          "type": "address"
        },
        {
          "internalType": "uint256",
          "name": "_amount",
          "type": "uint256"
        },
        {
          "internalType": "bytes",
          "name": "_data",
          "type": "bytes"
        }
      ],
      "name": "finalizeERC20Withdrawal",
      "outputs": [],
      "stateMutability": "nonpayable",
      "type": "function"
    },
    {
      "inputs": [
        {
          "internalType": "address",
          "name": "_from",
          "type": "address"
        },
        {
          "internalType": "address",
          "name": "_to",
          "type": "address"
        },
        {
          "internalType": "uint256",
          "name": "_amount",
          "type": "uint256"
        },
        {
          "internalType": "bytes",
          "name": "_data",
          "type": "bytes"
        }
      ],
      "name": "finalizeETHWithdrawal",
      "outputs": [],
      "stateMutability": "nonpayable",
      "type": "function"
    },
    {
      "inputs": [
        {
          "internalType": "address",
          "name": "_from",
          "type": "address"
        },
        {
          "internalType": "address",
          "name": "_to",
          "type": "address"
        },
        {
          "internalType": "uint256",
          "name": "_amount",
          "type": "uint256"
        },
        {
          "internalType": "bytes",
          "name": "_data",
          "type": "bytes"
        }
      ],
      "name": "finalizeMantleWithdrawal",
      "outputs": [],
      "stateMutability": "nonpayable",
      "type": "function"
    },
    {
      "inputs": [
        {
          "internalType": "address",
          "name": "_l1messenger",
          "type": "address"
        },
        {
          "internalType": "address",
          "name": "_l2TokenBridge",
          "type": "address"
        },
        {
          "internalType": "address",
          "name": "_l1MantleAddress",
          "type": "address"
        }
      ],
      "name": "initialize",
      "outputs": [],
      "stateMutability": "nonpayable",
      "type": "function"
    },
    {
      "inputs": [],
      "name": "l1MantleAddress",
      "outputs": [
        {
          "internalType": "address",
          "name": "",
          "type": "address"
        }
      ],
      "stateMutability": "view",
      "type": "function"
    },
    {
      "inputs": [],
      "name": "l2TokenBridge",
      "outputs": [
        {
          "internalType": "address",
          "name": "",
          "type": "address"
        }
      ],
      "stateMutability": "view",
      "type": "function"
    },
    {
      "inputs": [],
      "name": "messenger",
      "outputs": [
        {
          "internalType": "address",
          "name": "",
          "type": "address"
        }
      ],
      "stateMutability": "view",
      "type": "function"
    },
    {
      "stateMutability": "payable",
      "type": "receive"
    }
  ],
  "bytecode": "0x608060405234801561001057600080fd5b506000805462010000600160b01b031916905561002b610030565b6100f0565b600054610100900460ff161561009c5760405162461bcd60e51b815260206004820152602760248201527f496e697469616c697a61626c653a20636f6e747261637420697320696e697469604482015266616c697a696e6760c81b606482015260840160405180910390fd5b60005460ff90811610156100ee576000805460ff191660ff9081179091556040519081527f7f26b83ff96e1f2b6a682f133852f6798a09c465da95921460cefb38474024989060200160405180910390a15b565b6117d7806100ff6000396000f3fe6080604052600436106100c65760003560e01c80638f601f661161007f578063a9f9e67511610059578063a9f9e67514610273578063b1a1a88214610293578063c0c53b8b146102a6578063f82b418e146102c657600080fd5b80638f601f66146101fa57806391c49bf8146102405780639a2ac6d51461026057600080fd5b80631532ec341461013757806333151848146101575780633cb747bf1461019457806358a997f6146101ba578063838b2520146101da5780638b4c40b01461013057600080fd5b3661013257333b156100f35760405162461bcd60e51b81526004016100ea9061106e565b60405180910390fd5b3233146101125760405162461bcd60e51b81526004016100ea90611097565b610130333362030d40604051806020016040528060008152506102e6565b005b600080fd5b34801561014357600080fd5b5061013061015236600461112f565b6103c0565b34801561016357600080fd5b50600254610177906001600160a01b031681565b6040516001600160a01b0390911681526020015b60405180910390f35b3480156101a057600080fd5b50600054610177906201000090046001600160a01b031681565b3480156101c657600080fd5b506101306101d53660046111bb565b6105f3565b3480156101e657600080fd5b506101306101f536600461123e565b610649565b34801561020657600080fd5b506102326102153660046112d4565b600360209081526000928352604080842090915290825290205481565b60405190815260200161018b565b34801561024c57600080fd5b50600154610177906001600160a01b031681565b61013061026e36600461130d565b610662565b34801561027f57600080fd5b5061013061028e366004611370565b6106aa565b6101306102a13660046113e9565b610878565b3480156102b257600080fd5b506101306102c136600461143c565b6108fd565b3480156102d257600080fd5b506101306102e136600461112f565b6109b5565b600063662a633a60e01b600073deaddeaddeaddeaddeaddeaddeaddeaddead111187873487604051602401610320969594939291906114df565b60408051601f198184030181529190526020810180516001600160e01b03166001600160e01b03199093169290921790915260015490915061036c906001600160a01b03168483610ae5565b836001600160a01b0316856001600160a01b03167f35d79ab81f2b2017e19afb5c5571778877782d7a8786f5907f93b0f4702f4f2334856040516103b192919061152e565b60405180910390a35050505050565b6001546001600160a01b03166103e56000546001600160a01b03620100009091041690565b6001600160a01b0316336001600160a01b0316146104155760405162461bcd60e51b81526004016100ea90611547565b6000546001600160a01b0380831691620100009004166001600160a01b0316636e296e456040518163ffffffff1660e01b815260040160206040518083038186803b15801561046357600080fd5b505afa158015610477573d6000803e3d6000fd5b505050506040513d601f19601f8201168201806040525081019061049b9190611595565b6001600160a01b0316146104c15760405162461bcd60e51b81526004016100ea906115b2565b604080516000808252602082019092526001600160a01b0387169086906040516104eb9190611602565b60006040518083038185875af1925050503d8060008114610528576040519150601f19603f3d011682016040523d82523d6000602084013e61052d565b606091505b505090508061059b5760405162461bcd60e51b815260206004820152603460248201527f5472616e7366657248656c7065723a3a736166655472616e736665724554483a60448201527308115512081d1c985b9cd9995c8819985a5b195960621b60648201526084016100ea565b856001600160a01b0316876001600160a01b03167f2ac69ee804d9a7a0984249f508dfab7cb2534b465b6ce1580f99a38ba9c5e6318787876040516105e293929190611647565b60405180910390a350505050505050565b333b156106125760405162461bcd60e51b81526004016100ea9061106e565b3233146106315760405162461bcd60e51b81526004016100ea90611097565b6106418686333388888888610b54565b505050505050565b6106598787338888888888610b54565b50505050505050565b6106a433858585858080601f0160208091040260200160405190810160405280939291908181526020018383808284376000920191909152506102e692505050565b50505050565b6001546001600160a01b03166106cf6000546001600160a01b03620100009091041690565b6001600160a01b0316336001600160a01b0316146106ff5760405162461bcd60e51b81526004016100ea90611547565b6000546001600160a01b0380831691620100009004166001600160a01b0316636e296e456040518163ffffffff1660e01b815260040160206040518083038186803b15801561074d57600080fd5b505afa158015610761573d6000803e3d6000fd5b505050506040513d601f19601f820116820180604052508101906107859190611595565b6001600160a01b0316146107ab5760405162461bcd60e51b81526004016100ea906115b2565b6001600160a01b038089166000908152600360209081526040808320938b16835292905220546107dc908590611680565b6001600160a01b03808a166000818152600360209081526040808320948d1683529390529190912091909155610813908686610d87565b856001600160a01b0316876001600160a01b0316896001600160a01b03167f3ceee06c1e37648fcbb6ed52e17b3e1f275a1f8c7b22a84b2b84732431e046b3888888886040516108669493929190611697565b60405180910390a45050505050505050565b333b156108975760405162461bcd60e51b81526004016100ea9061106e565b3233146108b65760405162461bcd60e51b81526004016100ea90611097565b6108f833338585858080601f0160208091040260200160405190810160405280939291908181526020018383808284376000920191909152506102e692505050565b505050565b6000546201000090046001600160a01b03161561096b5760405162461bcd60e51b815260206004820152602660248201527f436f6e74726163742068617320616c7265616479206265656e20696e697469616044820152653634bd32b21760d11b60648201526084016100ea565b600080546001600160a01b03948516620100000262010000600160b01b0319909116179055600180549284166001600160a01b031993841617905560028054919093169116179055565b6001546001600160a01b03166109da6000546001600160a01b03620100009091041690565b6001600160a01b0316336001600160a01b031614610a0a5760405162461bcd60e51b81526004016100ea90611547565b6000546001600160a01b0380831691620100009004166001600160a01b0316636e296e456040518163ffffffff1660e01b815260040160206040518083038186803b158015610a5857600080fd5b505afa158015610a6c573d6000803e3d6000fd5b505050506040513d601f19601f82011682018060405250810190610a909190611595565b6001600160a01b031614610ab65760405162461bcd60e51b81526004016100ea906115b2565b600254610641906001600160a01b031673deaddeaddeaddeaddeaddeaddeaddeaddead000088888888886106aa565b6000546201000090046001600160a01b03166001600160a01b0316633dbb202b8483856040518463ffffffff1660e01b8152600401610b26939291906116c9565b600060405180830381600087803b158015610b4057600080fd5b505af1158015610659573d6000803e3d6000fd5b610b696001600160a01b038916873087610dea565b6002546060906001600160a01b038a811691161415610c6c576001600160a01b03881673deaddeaddeaddeaddeaddeaddeaddeaddead000014610be55760405162461bcd60e51b81526020600482015260146024820152732ab736b0ba31b432b2103a37b5b2b7103830b4b960611b60448201526064016100ea565b604051633315319d60e11b90610c3390731a4b46696b2bb4794eb3d4c26f1c55f9170fa4c59073deaddeaddeaddeaddeaddeaddeaddeaddead0000908b908b908b908a908a90602401611703565b60408051601f198184030181529190526020810180516001600160e01b03166001600160e01b0319909316929092179091529050610cc7565b604051633315319d60e11b90610c92908b908b908b908b908b908a908a90602401611703565b60408051601f198184030181529190526020810180516001600160e01b03166001600160e01b03199093169290921790915290505b600154610cde906001600160a01b03168583610ae5565b6001600160a01b03808a166000908152600360209081526040808320938c1683529290522054610d0f908690611754565b6001600160a01b03808b1660008181526003602090815260408083208e86168085529252918290209490945551918a1692917f718594027abd4eaed59f95162563e0cc6d0e8d5b86b1c7be8b1b0ac3343d039690610d74908b908b908a908a90611697565b60405180910390a4505050505050505050565b6040516001600160a01b0383166024820152604481018290526108f890849063a9059cbb60e01b906064015b60408051601f198184030181529190526020810180516001600160e01b03166001600160e01b031990931692909217909152610e22565b6040516001600160a01b03808516602483015283166044820152606481018290526106a49085906323b872dd60e01b90608401610db3565b6000610e77826040518060400160405280602081526020017f5361666545524332303a206c6f772d6c6576656c2063616c6c206661696c6564815250856001600160a01b0316610ef49092919063ffffffff16565b8051909150156108f85780806020019051810190610e95919061176c565b6108f85760405162461bcd60e51b815260206004820152602a60248201527f5361666545524332303a204552433230206f7065726174696f6e20646964206e6044820152691bdd081cdd58d8d9595960b21b60648201526084016100ea565b6060610f038484600085610f0d565b90505b9392505050565b606082471015610f6e5760405162461bcd60e51b815260206004820152602660248201527f416464726573733a20696e73756666696369656e742062616c616e636520666f6044820152651c8818d85b1b60d21b60648201526084016100ea565b843b610fbc5760405162461bcd60e51b815260206004820152601d60248201527f416464726573733a2063616c6c20746f206e6f6e2d636f6e747261637400000060448201526064016100ea565b600080866001600160a01b03168587604051610fd89190611602565b60006040518083038185875af1925050503d8060008114611015576040519150601f19603f3d011682016040523d82523d6000602084013e61101a565b606091505b509150915061102a828286611035565b979650505050505050565b60608315611044575081610f06565b8251156110545782518084602001fd5b8160405162461bcd60e51b81526004016100ea919061178e565b6020808252600f908201526e4163636f756e74206e6f7420454f4160881b604082015260600190565b6020808252601b908201527f6d73672e73656e646572206973206e6f74207473206f726967696e0000000000604082015260600190565b6001600160a01b03811681146110e357600080fd5b50565b60008083601f8401126110f857600080fd5b50813567ffffffffffffffff81111561111057600080fd5b60208301915083602082850101111561112857600080fd5b9250929050565b60008060008060006080868803121561114757600080fd5b8535611152816110ce565b94506020860135611162816110ce565b935060408601359250606086013567ffffffffffffffff81111561118557600080fd5b611191888289016110e6565b969995985093965092949392505050565b803563ffffffff811681146111b657600080fd5b919050565b60008060008060008060a087890312156111d457600080fd5b86356111df816110ce565b955060208701356111ef816110ce565b945060408701359350611204606088016111a2565b9250608087013567ffffffffffffffff81111561122057600080fd5b61122c89828a016110e6565b979a9699509497509295939492505050565b600080600080600080600060c0888a03121561125957600080fd5b8735611264816110ce565b96506020880135611274816110ce565b95506040880135611284816110ce565b945060608801359350611299608089016111a2565b925060a088013567ffffffffffffffff8111156112b557600080fd5b6112c18a828b016110e6565b989b979a50959850939692959293505050565b600080604083850312156112e757600080fd5b82356112f2816110ce565b91506020830135611302816110ce565b809150509250929050565b6000806000806060858703121561132357600080fd5b843561132e816110ce565b935061133c602086016111a2565b9250604085013567ffffffffffffffff81111561135857600080fd5b611364878288016110e6565b95989497509550505050565b600080600080600080600060c0888a03121561138b57600080fd5b8735611396816110ce565b965060208801356113a6816110ce565b955060408801356113b6816110ce565b945060608801356113c6816110ce565b93506080880135925060a088013567ffffffffffffffff8111156112b557600080fd5b6000806000604084860312156113fe57600080fd5b611407846111a2565b9250602084013567ffffffffffffffff81111561142357600080fd5b61142f868287016110e6565b9497909650939450505050565b60008060006060848603121561145157600080fd5b833561145c816110ce565b9250602084013561146c816110ce565b9150604084013561147c816110ce565b809150509250925092565b60005b838110156114a257818101518382015260200161148a565b838111156106a45750506000910152565b600081518084526114cb816020860160208601611487565b601f01601f19169290920160200192915050565b6001600160a01b03878116825286811660208301528581166040830152841660608201526080810183905260c060a08201819052600090611522908301846114b3565b98975050505050505050565b828152604060208201526000610f0360408301846114b3565b6020808252602e908201527f42564d5f58434841494e3a206d657373656e67657220636f6e7472616374207560408201526d1b985d5d1a195b9d1a58d85d195960921b606082015260800190565b6000602082840312156115a757600080fd5b8151610f06816110ce565b60208082526030908201527f42564d5f58434841494e3a2077726f6e672073656e646572206f662063726f7360408201526f732d646f6d61696e206d65737361676560801b606082015260800190565b60008251611614818460208701611487565b9190910192915050565b81835281816020850137506000828201602090810191909152601f909101601f19169091010190565b83815260406020820152600061166160408301848661161e565b95945050505050565b634e487b7160e01b600052601160045260246000fd5b6000828210156116925761169261166a565b500390565b60018060a01b03851681528360208201526060604082015260006116bf60608301848661161e565b9695505050505050565b6001600160a01b03841681526060602082018190526000906116ed908301856114b3565b905063ffffffff83166040830152949350505050565b6001600160a01b03888116825287811660208301528681166040830152851660608201526080810184905260c060a08201819052600090611747908301848661161e565b9998505050505050505050565b600082198211156117675761176761166a565b500190565b60006020828403121561177e57600080fd5b81518015158114610f0657600080fd5b602081526000610f0660208301846114b356fea2646970667358221220d90333ba8b9982cb794d4ec351e7e8d89e3d86bb0fef5fa4627356647638aeba64736f6c63430008090033",
  "linkReferences": {},
  "deployedLinkReferences": {}
}